{
	"contracts/Constructor.sol": {
		"Constructor": {
			"abi": [
				{
					"inputs": [
						{
							"internalType": "string",
							"name": "name",
							"type": "string"
						},
						{
							"internalType": "uint256",
							"name": "num",
							"type": "uint256"
						}
					],
					"stateMutability": "nonpayable",
					"type": "constructor"
				},
				{
					"inputs": [],
					"name": "number",
					"outputs": [
						{
							"internalType": "uint256",
							"name": "",
							"type": "uint256"
						}
					],
					"stateMutability": "view",
					"type": "function"
				},
				{
					"inputs": [],
					"name": "owner",
					"outputs": [
						{
							"internalType": "address",
							"name": "",
							"type": "address"
						}
					],
					"stateMutability": "view",
					"type": "function"
				},
				{
					"inputs": [],
					"name": "tokenName",
					"outputs": [
						{
							"internalType": "string",
							"name": "",
							"type": "string"
						}
					],
					"stateMutability": "view",
					"type": "function"
				},
				{
					"inputs": [],
					"name": "totalSupply",
					"outputs": [
						{
							"internalType": "uint256",
							"name": "",
							"type": "uint256"
						}
					],
					"stateMutability": "view",
					"type": "function"
				}
			],
			"devdoc": {
				"kind": "dev",
				"methods": {},
				"version": 1
			},
			"evm": {
				"assembly": "    /* \"contracts/Constructor.sol\":59:665  contract Constructor {\r... */\n  mstore(0x40, 0xa0)\n    /* \"contracts/Constructor.sol\":231:364  constructor(string memory name, uint num){\r... */\n  callvalue\n  dup1\n  iszero\n  tag_1\n  jumpi\n  0x00\n  dup1\n  revert\ntag_1:\n  pop\n  mload(0x40)\n  sub(codesize, bytecodeSize)\n  dup1\n  bytecodeSize\n  dup4\n  codecopy\n  dup2\n  dup2\n  add\n  0x40\n  mstore\n  dup2\n  add\n  swap1\n  tag_2\n  swap2\n  swap1\n  tag_3\n  jump\t// in\ntag_2:\n    /* \"contracts/Constructor.sol\":295:299  name */\n  dup2\n    /* \"contracts/Constructor.sol\":283:292  tokenName */\n  0x00\n    /* \"contracts/Constructor.sol\":283:299  tokenName = name */\n  swap1\n  dup1\n  mload\n  swap1\n  0x20\n  add\n  swap1\n  tag_6\n  swap3\n  swap2\n  swap1\n  tag_7\n  jump\t// in\ntag_6:\n  pop\n    /* \"contracts/Constructor.sol\":324:327  num */\n  dup1\n    /* \"contracts/Constructor.sol\":310:321  totalSupply */\n  0x01\n    /* \"contracts/Constructor.sol\":310:327  totalSupply = num */\n  dup2\n  swap1\n  sstore\n  pop\n    /* \"contracts/Constructor.sol\":346:356  msg.sender */\n  caller\n    /* \"contracts/Constructor.sol\":338:356  owner = msg.sender */\n  0xffffffffffffffffffffffffffffffffffffffff\n  and\n  0x80\n  dup2\n  0xffffffffffffffffffffffffffffffffffffffff\n  and\n  0x60\n  shl\n  dup2\n  mstore\n  pop\n  pop\n    /* \"contracts/Constructor.sol\":231:364  constructor(string memory name, uint num){\r... */\n  pop\n  pop\n    /* \"contracts/Constructor.sol\":59:665  contract Constructor {\r... */\n  jump(tag_8)\ntag_7:\n  dup3\n  dup1\n  sload\n  tag_9\n  swap1\n  tag_10\n  jump\t// in\ntag_9:\n  swap1\n  0x00\n  mstore\n  keccak256(0x00, 0x20)\n  swap1\n  0x1f\n  add\n  0x20\n  swap1\n  div\n  dup2\n  add\n  swap3\n  dup3\n  tag_12\n  jumpi\n  0x00\n  dup6\n  sstore\n  jump(tag_11)\ntag_12:\n  dup3\n  0x1f\n  lt\n  tag_13\n  jumpi\n  dup1\n  mload\n  not(0xff)\n  and\n  dup4\n  dup1\n  add\n  or\n  dup6\n  sstore\n  jump(tag_11)\ntag_13:\n  dup3\n  dup1\n  add\n  0x01\n  add\n  dup6\n  sstore\n  dup3\n  iszero\n  tag_11\n  jumpi\n  swap2\n  dup3\n  add\ntag_14:\n  dup3\n  dup2\n  gt\n  iszero\n  tag_15\n  jumpi\n  dup3\n  mload\n  dup3\n  sstore\n  swap2\n  0x20\n  add\n  swap2\n  swap1\n  0x01\n  add\n  swap1\n  jump(tag_14)\ntag_15:\ntag_11:\n  pop\n  swap1\n  pop\n  tag_16\n  swap2\n  swap1\n  tag_17\n  jump\t// in\ntag_16:\n  pop\n  swap1\n  jump\t// out\ntag_17:\ntag_18:\n  dup1\n  dup3\n  gt\n  iszero\n  tag_19\n  jumpi\n  0x00\n  dup2\n  0x00\n  swap1\n  sstore\n  pop\n  0x01\n  add\n  jump(tag_18)\ntag_19:\n  pop\n  swap1\n  jump\t// out\n    /* \"#utility.yul\":7:360   */\ntag_21:\n  0x00\n    /* \"#utility.yul\":121:186   */\n  tag_23\n    /* \"#utility.yul\":136:185   */\n  tag_24\n    /* \"#utility.yul\":178:184   */\n  dup5\n    /* \"#utility.yul\":136:185   */\n  tag_25\n  jump\t// in\ntag_24:\n    /* \"#utility.yul\":121:186   */\n  tag_26\n  jump\t// in\ntag_23:\n    /* \"#utility.yul\":112:186   */\n  swap1\n  pop\n    /* \"#utility.yul\":209:215   */\n  dup3\n    /* \"#utility.yul\":202:207   */\n  dup2\n    /* \"#utility.yul\":195:216   */\n  mstore\n    /* \"#utility.yul\":247:251   */\n  0x20\n    /* \"#utility.yul\":240:245   */\n  dup2\n    /* \"#utility.yul\":236:252   */\n  add\n    /* \"#utility.yul\":285:288   */\n  dup5\n    /* \"#utility.yul\":276:282   */\n  dup5\n    /* \"#utility.yul\":271:274   */\n  dup5\n    /* \"#utility.yul\":267:283   */\n  add\n    /* \"#utility.yul\":264:289   */\n  gt\n    /* \"#utility.yul\":261:263   */\n  iszero\n  tag_27\n  jumpi\n    /* \"#utility.yul\":302:303   */\n  0x00\n    /* \"#utility.yul\":299:300   */\n  dup1\n    /* \"#utility.yul\":292:304   */\n  revert\n    /* \"#utility.yul\":261:263   */\ntag_27:\n    /* \"#utility.yul\":315:354   */\n  tag_28\n    /* \"#utility.yul\":347:353   */\n  dup5\n    /* \"#utility.yul\":342:345   */\n  dup3\n    /* \"#utility.yul\":337:340   */\n  dup6\n    /* \"#utility.yul\":315:354   */\n  tag_29\n  jump\t// in\ntag_28:\n    /* \"#utility.yul\":102:360   */\n  pop\n  swap4\n  swap3\n  pop\n  pop\n  pop\n  jump\t// out\n    /* \"#utility.yul\":380:668   */\ntag_30:\n  0x00\n    /* \"#utility.yul\":496:499   */\n  dup3\n    /* \"#utility.yul\":489:493   */\n  0x1f\n    /* \"#utility.yul\":481:487   */\n  dup4\n    /* \"#utility.yul\":477:494   */\n  add\n    /* \"#utility.yul\":473:500   */\n  slt\n    /* \"#utility.yul\":463:465   */\n  tag_32\n  jumpi\n    /* \"#utility.yul\":514:515   */\n  0x00\n    /* \"#utility.yul\":511:512   */\n  dup1\n    /* \"#utility.yul\":504:516   */\n  revert\n    /* \"#utility.yul\":463:465   */\ntag_32:\n    /* \"#utility.yul\":547:553   */\n  dup2\n    /* \"#utility.yul\":541:554   */\n  mload\n    /* \"#utility.yul\":572:662   */\n  tag_33\n    /* \"#utility.yul\":658:661   */\n  dup5\n    /* \"#utility.yul\":650:656   */\n  dup3\n    /* \"#utility.yul\":643:647   */\n  0x20\n    /* \"#utility.yul\":635:641   */\n  dup7\n    /* \"#utility.yul\":631:648   */\n  add\n    /* \"#utility.yul\":572:662   */\n  tag_21\n  jump\t// in\ntag_33:\n    /* \"#utility.yul\":563:662   */\n  swap2\n  pop\n    /* \"#utility.yul\":453:668   */\n  pop\n  swap3\n  swap2\n  pop\n  pop\n  jump\t// out\n    /* \"#utility.yul\":674:817   */\ntag_34:\n  0x00\n    /* \"#utility.yul\":762:768   */\n  dup2\n    /* \"#utility.yul\":756:769   */\n  mload\n    /* \"#utility.yul\":747:769   */\n  swap1\n  pop\n    /* \"#utility.yul\":778:811   */\n  tag_36\n    /* \"#utility.yul\":805:810   */\n  dup2\n    /* \"#utility.yul\":778:811   */\n  tag_37\n  jump\t// in\ntag_36:\n    /* \"#utility.yul\":737:817   */\n  swap3\n  swap2\n  pop\n  pop\n  jump\t// out\n    /* \"#utility.yul\":823:1369   */\ntag_3:\n  0x00\n  dup1\n    /* \"#utility.yul\":969:971   */\n  0x40\n    /* \"#utility.yul\":957:966   */\n  dup4\n    /* \"#utility.yul\":948:955   */\n  dup6\n    /* \"#utility.yul\":944:967   */\n  sub\n    /* \"#utility.yul\":940:972   */\n  slt\n    /* \"#utility.yul\":937:939   */\n  iszero\n  tag_39\n  jumpi\n    /* \"#utility.yul\":985:986   */\n  0x00\n    /* \"#utility.yul\":982:983   */\n  dup1\n    /* \"#utility.yul\":975:987   */\n  revert\n    /* \"#utility.yul\":937:939   */\ntag_39:\n    /* \"#utility.yul\":1049:1050   */\n  0x00\n    /* \"#utility.yul\":1038:1047   */\n  dup4\n    /* \"#utility.yul\":1034:1051   */\n  add\n    /* \"#utility.yul\":1028:1052   */\n  mload\n    /* \"#utility.yul\":1079:1097   */\n  0xffffffffffffffff\n    /* \"#utility.yul\":1071:1077   */\n  dup2\n    /* \"#utility.yul\":1068:1098   */\n  gt\n    /* \"#utility.yul\":1065:1067   */\n  iszero\n  tag_40\n  jumpi\n    /* \"#utility.yul\":1111:1112   */\n  0x00\n    /* \"#utility.yul\":1108:1109   */\n  dup1\n    /* \"#utility.yul\":1101:1113   */\n  revert\n    /* \"#utility.yul\":1065:1067   */\ntag_40:\n    /* \"#utility.yul\":1139:1213   */\n  tag_41\n    /* \"#utility.yul\":1205:1212   */\n  dup6\n    /* \"#utility.yul\":1196:1202   */\n  dup3\n    /* \"#utility.yul\":1185:1194   */\n  dup7\n    /* \"#utility.yul\":1181:1203   */\n  add\n    /* \"#utility.yul\":1139:1213   */\n  tag_30\n  jump\t// in\ntag_41:\n    /* \"#utility.yul\":1129:1213   */\n  swap3\n  pop\n    /* \"#utility.yul\":999:1223   */\n  pop\n    /* \"#utility.yul\":1262:1264   */\n  0x20\n    /* \"#utility.yul\":1288:1352   */\n  tag_42\n    /* \"#utility.yul\":1344:1351   */\n  dup6\n    /* \"#utility.yul\":1335:1341   */\n  dup3\n    /* \"#utility.yul\":1324:1333   */\n  dup7\n    /* \"#utility.yul\":1320:1342   */\n  add\n    /* \"#utility.yul\":1288:1352   */\n  tag_34\n  jump\t// in\ntag_42:\n    /* \"#utility.yul\":1278:1352   */\n  swap2\n  pop\n    /* \"#utility.yul\":1233:1362   */\n  pop\n    /* \"#utility.yul\":927:1369   */\n  swap3\n  pop\n  swap3\n  swap1\n  pop\n  jump\t// out\n    /* \"#utility.yul\":1375:1658   */\ntag_26:\n  0x00\n    /* \"#utility.yul\":1441:1443   */\n  0x40\n    /* \"#utility.yul\":1435:1444   */\n  mload\n    /* \"#utility.yul\":1425:1444   */\n  swap1\n  pop\n    /* \"#utility.yul\":1483:1487   */\n  dup2\n    /* \"#utility.yul\":1475:1481   */\n  dup2\n    /* \"#utility.yul\":1471:1488   */\n  add\n    /* \"#utility.yul\":1590:1596   */\n  dup2\n    /* \"#utility.yul\":1578:1588   */\n  dup2\n    /* \"#utility.yul\":1575:1597   */\n  lt\n    /* \"#utility.yul\":1554:1572   */\n  0xffffffffffffffff\n    /* \"#utility.yul\":1542:1552   */\n  dup3\n    /* \"#utility.yul\":1539:1573   */\n  gt\n    /* \"#utility.yul\":1536:1598   */\n  or\n    /* \"#utility.yul\":1533:1535   */\n  iszero\n  tag_44\n  jumpi\n    /* \"#utility.yul\":1601:1619   */\n  tag_45\n  tag_46\n  jump\t// in\ntag_45:\n    /* \"#utility.yul\":1533:1535   */\ntag_44:\n    /* \"#utility.yul\":1641:1651   */\n  dup1\n    /* \"#utility.yul\":1637:1639   */\n  0x40\n    /* \"#utility.yul\":1630:1652   */\n  mstore\n    /* \"#utility.yul\":1415:1658   */\n  pop\n  swap2\n  swap1\n  pop\n  jump\t// out\n    /* \"#utility.yul\":1664:1996   */\ntag_25:\n  0x00\n    /* \"#utility.yul\":1816:1834   */\n  0xffffffffffffffff\n    /* \"#utility.yul\":1808:1814   */\n  dup3\n    /* \"#utility.yul\":1805:1835   */\n  gt\n    /* \"#utility.yul\":1802:1804   */\n  iszero\n  tag_48\n  jumpi\n    /* \"#utility.yul\":1838:1856   */\n  tag_49\n  tag_46\n  jump\t// in\ntag_49:\n    /* \"#utility.yul\":1802:1804   */\ntag_48:\n    /* \"#utility.yul\":1923:1927   */\n  0x1f\n    /* \"#utility.yul\":1919:1928   */\n  not\n    /* \"#utility.yul\":1912:1916   */\n  0x1f\n    /* \"#utility.yul\":1904:1910   */\n  dup4\n    /* \"#utility.yul\":1900:1917   */\n  add\n    /* \"#utility.yul\":1896:1929   */\n  and\n    /* \"#utility.yul\":1888:1929   */\n  swap1\n  pop\n    /* \"#utility.yul\":1984:1988   */\n  0x20\n    /* \"#utility.yul\":1978:1982   */\n  dup2\n    /* \"#utility.yul\":1974:1989   */\n  add\n    /* \"#utility.yul\":1966:1989   */\n  swap1\n  pop\n    /* \"#utility.yul\":1731:1996   */\n  swap2\n  swap1\n  pop\n  jump\t// out\n    /* \"#utility.yul\":2002:2079   */\ntag_50:\n  0x00\n    /* \"#utility.yul\":2068:2073   */\n  dup2\n    /* \"#utility.yul\":2057:2073   */\n  swap1\n  pop\n    /* \"#utility.yul\":2047:2079   */\n  swap2\n  swap1\n  pop\n  jump\t// out\n    /* \"#utility.yul\":2085:2392   */\ntag_29:\n    /* \"#utility.yul\":2153:2154   */\n  0x00\n    /* \"#utility.yul\":2163:2276   */\ntag_53:\n    /* \"#utility.yul\":2177:2183   */\n  dup4\n    /* \"#utility.yul\":2174:2175   */\n  dup2\n    /* \"#utility.yul\":2171:2184   */\n  lt\n    /* \"#utility.yul\":2163:2276   */\n  iszero\n  tag_55\n  jumpi\n    /* \"#utility.yul\":2262:2263   */\n  dup1\n    /* \"#utility.yul\":2257:2260   */\n  dup3\n    /* \"#utility.yul\":2253:2264   */\n  add\n    /* \"#utility.yul\":2247:2265   */\n  mload\n    /* \"#utility.yul\":2243:2244   */\n  dup2\n    /* \"#utility.yul\":2238:2241   */\n  dup5\n    /* \"#utility.yul\":2234:2245   */\n  add\n    /* \"#utility.yul\":2227:2266   */\n  mstore\n    /* \"#utility.yul\":2199:2201   */\n  0x20\n    /* \"#utility.yul\":2196:2197   */\n  dup2\n    /* \"#utility.yul\":2192:2202   */\n  add\n    /* \"#utility.yul\":2187:2202   */\n  swap1\n  pop\n    /* \"#utility.yul\":2163:2276   */\n  jump(tag_53)\ntag_55:\n    /* \"#utility.yul\":2294:2300   */\n  dup4\n    /* \"#utility.yul\":2291:2292   */\n  dup2\n    /* \"#utility.yul\":2288:2301   */\n  gt\n    /* \"#utility.yul\":2285:2287   */\n  iszero\n  tag_56\n  jumpi\n    /* \"#utility.yul\":2374:2375   */\n  0x00\n    /* \"#utility.yul\":2365:2371   */\n  dup5\n    /* \"#utility.yul\":2360:2363   */\n  dup5\n    /* \"#utility.yul\":2356:2372   */\n  add\n    /* \"#utility.yul\":2349:2376   */\n  mstore\n    /* \"#utility.yul\":2285:2287   */\ntag_56:\n    /* \"#utility.yul\":2134:2392   */\n  pop\n  pop\n  pop\n  pop\n  jump\t// out\n    /* \"#utility.yul\":2398:2718   */\ntag_10:\n  0x00\n    /* \"#utility.yul\":2479:2480   */\n  0x02\n    /* \"#utility.yul\":2473:2477   */\n  dup3\n    /* \"#utility.yul\":2469:2481   */\n  div\n    /* \"#utility.yul\":2459:2481   */\n  swap1\n  pop\n    /* \"#utility.yul\":2526:2527   */\n  0x01\n    /* \"#utility.yul\":2520:2524   */\n  dup3\n    /* \"#utility.yul\":2516:2528   */\n  and\n    /* \"#utility.yul\":2547:2565   */\n  dup1\n    /* \"#utility.yul\":2537:2539   */\n  tag_58\n  jumpi\n    /* \"#utility.yul\":2603:2607   */\n  0x7f\n    /* \"#utility.yul\":2595:2601   */\n  dup3\n    /* \"#utility.yul\":2591:2608   */\n  and\n    /* \"#utility.yul\":2581:2608   */\n  swap2\n  pop\n    /* \"#utility.yul\":2537:2539   */\ntag_58:\n    /* \"#utility.yul\":2665:2667   */\n  0x20\n    /* \"#utility.yul\":2657:2663   */\n  dup3\n    /* \"#utility.yul\":2654:2668   */\n  lt\n    /* \"#utility.yul\":2634:2652   */\n  dup2\n    /* \"#utility.yul\":2631:2669   */\n  eq\n    /* \"#utility.yul\":2628:2630   */\n  iszero\n  tag_59\n  jumpi\n    /* \"#utility.yul\":2684:2702   */\n  tag_60\n  tag_61\n  jump\t// in\ntag_60:\n    /* \"#utility.yul\":2628:2630   */\ntag_59:\n    /* \"#utility.yul\":2449:2718   */\n  pop\n  swap2\n  swap1\n  pop\n  jump\t// out\n    /* \"#utility.yul\":2724:2904   */\ntag_61:\n    /* \"#utility.yul\":2772:2849   */\n  0x4e487b7100000000000000000000000000000000000000000000000000000000\n    /* \"#utility.yul\":2769:2770   */\n  0x00\n    /* \"#utility.yul\":2762:2850   */\n  mstore\n    /* \"#utility.yul\":2869:2873   */\n  0x22\n    /* \"#utility.yul\":2866:2867   */\n  0x04\n    /* \"#utility.yul\":2859:2874   */\n  mstore\n    /* \"#utility.yul\":2893:2897   */\n  0x24\n    /* \"#utility.yul\":2890:2891   */\n  0x00\n    /* \"#utility.yul\":2883:2898   */\n  revert\n    /* \"#utility.yul\":2910:3090   */\ntag_46:\n    /* \"#utility.yul\":2958:3035   */\n  0x4e487b7100000000000000000000000000000000000000000000000000000000\n    /* \"#utility.yul\":2955:2956   */\n  0x00\n    /* \"#utility.yul\":2948:3036   */\n  mstore\n    /* \"#utility.yul\":3055:3059   */\n  0x41\n    /* \"#utility.yul\":3052:3053   */\n  0x04\n    /* \"#utility.yul\":3045:3060   */\n  mstore\n    /* \"#utility.yul\":3079:3083   */\n  0x24\n    /* \"#utility.yul\":3076:3077   */\n  0x00\n    /* \"#utility.yul\":3069:3084   */\n  revert\n    /* \"#utility.yul\":3096:3218   */\ntag_37:\n    /* \"#utility.yul\":3169:3193   */\n  tag_65\n    /* \"#utility.yul\":3187:3192   */\n  dup2\n    /* \"#utility.yul\":3169:3193   */\n  tag_50\n  jump\t// in\ntag_65:\n    /* \"#utility.yul\":3162:3167   */\n  dup2\n    /* \"#utility.yul\":3159:3194   */\n  eq\n    /* \"#utility.yul\":3149:3151   */\n  tag_66\n  jumpi\n    /* \"#utility.yul\":3208:3209   */\n  0x00\n    /* \"#utility.yul\":3205:3206   */\n  dup1\n    /* \"#utility.yul\":3198:3210   */\n  revert\n    /* \"#utility.yul\":3149:3151   */\ntag_66:\n    /* \"#utility.yul\":3139:3218   */\n  pop\n  jump\t// out\n    /* \"contracts/Constructor.sol\":59:665  contract Constructor {\r... */\ntag_8:\n  shr(0x60, mload(0x80))\n  codecopy(0x00, dataOffset(sub_0), dataSize(sub_0))\n  0x00\n  assignImmutable(\"0x1a192fabce13988b84994d4296e6cdc418d55e2f1d7f942188d4040b94fc57ac\")\n  return(0x00, dataSize(sub_0))\nstop\n\nsub_0: assembly {\n        /* \"contracts/Constructor.sol\":59:665  contract Constructor {\r... */\n      mstore(0x40, 0x80)\n      callvalue\n      dup1\n      iszero\n      tag_1\n      jumpi\n      0x00\n      dup1\n      revert\n    tag_1:\n      pop\n      jumpi(tag_2, lt(calldatasize, 0x04))\n      shr(0xe0, calldataload(0x00))\n      dup1\n      0x18160ddd\n      eq\n      tag_3\n      jumpi\n      dup1\n      0x6c02a931\n      eq\n      tag_4\n      jumpi\n      dup1\n      0x8381f58a\n      eq\n      tag_5\n      jumpi\n      dup1\n      0x8da5cb5b\n      eq\n      tag_6\n      jumpi\n    tag_2:\n      0x00\n      dup1\n      revert\n        /* \"contracts/Constructor.sol\":119:142  uint public totalSupply */\n    tag_3:\n      tag_7\n      tag_8\n      jump\t// in\n    tag_7:\n      mload(0x40)\n      tag_9\n      swap2\n      swap1\n      tag_10\n      jump\t// in\n    tag_9:\n      mload(0x40)\n      dup1\n      swap2\n      sub\n      swap1\n      return\n        /* \"contracts/Constructor.sol\":89:112  string public tokenName */\n    tag_4:\n      tag_11\n      tag_12\n      jump\t// in\n    tag_11:\n      mload(0x40)\n      tag_13\n      swap2\n      swap1\n      tag_14\n      jump\t// in\n    tag_13:\n      mload(0x40)\n      dup1\n      swap2\n      sub\n      swap1\n      return\n        /* \"contracts/Constructor.sol\":149:181  uint public constant number = 10 */\n    tag_5:\n      tag_15\n      tag_16\n      jump\t// in\n    tag_15:\n      mload(0x40)\n      tag_17\n      swap2\n      swap1\n      tag_10\n      jump\t// in\n    tag_17:\n      mload(0x40)\n      dup1\n      swap2\n      sub\n      swap1\n      return\n        /* \"contracts/Constructor.sol\":188:218  address public immutable owner */\n    tag_6:\n      tag_18\n      tag_19\n      jump\t// in\n    tag_18:\n      mload(0x40)\n      tag_20\n      swap2\n      swap1\n      tag_21\n      jump\t// in\n    tag_20:\n      mload(0x40)\n      dup1\n      swap2\n      sub\n      swap1\n      return\n        /* \"contracts/Constructor.sol\":119:142  uint public totalSupply */\n    tag_8:\n      sload(0x01)\n      dup2\n      jump\t// out\n        /* \"contracts/Constructor.sol\":89:112  string public tokenName */\n    tag_12:\n      0x00\n      dup1\n      sload\n      tag_22\n      swap1\n      tag_23\n      jump\t// in\n    tag_22:\n      dup1\n      0x1f\n      add\n      0x20\n      dup1\n      swap2\n      div\n      mul\n      0x20\n      add\n      mload(0x40)\n      swap1\n      dup2\n      add\n      0x40\n      mstore\n      dup1\n      swap3\n      swap2\n      swap1\n      dup2\n      dup2\n      mstore\n      0x20\n      add\n      dup3\n      dup1\n      sload\n      tag_24\n      swap1\n      tag_23\n      jump\t// in\n    tag_24:\n      dup1\n      iszero\n      tag_25\n      jumpi\n      dup1\n      0x1f\n      lt\n      tag_26\n      jumpi\n      0x0100\n      dup1\n      dup4\n      sload\n      div\n      mul\n      dup4\n      mstore\n      swap2\n      0x20\n      add\n      swap2\n      jump(tag_25)\n    tag_26:\n      dup3\n      add\n      swap2\n      swap1\n      0x00\n      mstore\n      keccak256(0x00, 0x20)\n      swap1\n    tag_27:\n      dup2\n      sload\n      dup2\n      mstore\n      swap1\n      0x01\n      add\n      swap1\n      0x20\n      add\n      dup1\n      dup4\n      gt\n      tag_27\n      jumpi\n      dup3\n      swap1\n      sub\n      0x1f\n      and\n      dup3\n      add\n      swap2\n    tag_25:\n      pop\n      pop\n      pop\n      pop\n      pop\n      dup2\n      jump\t// out\n        /* \"contracts/Constructor.sol\":149:181  uint public constant number = 10 */\n    tag_16:\n        /* \"contracts/Constructor.sol\":179:181  10 */\n      0x0a\n        /* \"contracts/Constructor.sol\":149:181  uint public constant number = 10 */\n      dup2\n      jump\t// out\n        /* \"contracts/Constructor.sol\":188:218  address public immutable owner */\n    tag_19:\n      immutable(\"0x1a192fabce13988b84994d4296e6cdc418d55e2f1d7f942188d4040b94fc57ac\")\n      dup2\n      jump\t// out\n        /* \"#utility.yul\":7:125   */\n    tag_29:\n        /* \"#utility.yul\":94:118   */\n      tag_31\n        /* \"#utility.yul\":112:117   */\n      dup2\n        /* \"#utility.yul\":94:118   */\n      tag_32\n      jump\t// in\n    tag_31:\n        /* \"#utility.yul\":89:92   */\n      dup3\n        /* \"#utility.yul\":82:119   */\n      mstore\n        /* \"#utility.yul\":72:125   */\n      pop\n      pop\n      jump\t// out\n        /* \"#utility.yul\":131:495   */\n    tag_33:\n      0x00\n        /* \"#utility.yul\":247:286   */\n      tag_35\n        /* \"#utility.yul\":280:285   */\n      dup3\n        /* \"#utility.yul\":247:286   */\n      tag_36\n      jump\t// in\n    tag_35:\n        /* \"#utility.yul\":302:373   */\n      tag_37\n        /* \"#utility.yul\":366:372   */\n      dup2\n        /* \"#utility.yul\":361:364   */\n      dup6\n        /* \"#utility.yul\":302:373   */\n      tag_38\n      jump\t// in\n    tag_37:\n        /* \"#utility.yul\":295:373   */\n      swap4\n      pop\n        /* \"#utility.yul\":382:434   */\n      tag_39\n        /* \"#utility.yul\":427:433   */\n      dup2\n        /* \"#utility.yul\":422:425   */\n      dup6\n        /* \"#utility.yul\":415:419   */\n      0x20\n        /* \"#utility.yul\":408:413   */\n      dup7\n        /* \"#utility.yul\":404:420   */\n      add\n        /* \"#utility.yul\":382:434   */\n      tag_40\n      jump\t// in\n    tag_39:\n        /* \"#utility.yul\":459:488   */\n      tag_41\n        /* \"#utility.yul\":481:487   */\n      dup2\n        /* \"#utility.yul\":459:488   */\n      tag_42\n      jump\t// in\n    tag_41:\n        /* \"#utility.yul\":454:457   */\n      dup5\n        /* \"#utility.yul\":450:489   */\n      add\n        /* \"#utility.yul\":443:489   */\n      swap2\n      pop\n        /* \"#utility.yul\":223:495   */\n      pop\n      swap3\n      swap2\n      pop\n      pop\n      jump\t// out\n        /* \"#utility.yul\":501:619   */\n    tag_43:\n        /* \"#utility.yul\":588:612   */\n      tag_45\n        /* \"#utility.yul\":606:611   */\n      dup2\n        /* \"#utility.yul\":588:612   */\n      tag_46\n      jump\t// in\n    tag_45:\n        /* \"#utility.yul\":583:586   */\n      dup3\n        /* \"#utility.yul\":576:613   */\n      mstore\n        /* \"#utility.yul\":566:619   */\n      pop\n      pop\n      jump\t// out\n        /* \"#utility.yul\":625:847   */\n    tag_21:\n      0x00\n        /* \"#utility.yul\":756:758   */\n      0x20\n        /* \"#utility.yul\":745:754   */\n      dup3\n        /* \"#utility.yul\":741:759   */\n      add\n        /* \"#utility.yul\":733:759   */\n      swap1\n      pop\n        /* \"#utility.yul\":769:840   */\n      tag_48\n        /* \"#utility.yul\":837:838   */\n      0x00\n        /* \"#utility.yul\":826:835   */\n      dup4\n        /* \"#utility.yul\":822:839   */\n      add\n        /* \"#utility.yul\":813:819   */\n      dup5\n        /* \"#utility.yul\":769:840   */\n      tag_29\n      jump\t// in\n    tag_48:\n        /* \"#utility.yul\":723:847   */\n      swap3\n      swap2\n      pop\n      pop\n      jump\t// out\n        /* \"#utility.yul\":853:1166   */\n    tag_14:\n      0x00\n        /* \"#utility.yul\":1004:1006   */\n      0x20\n        /* \"#utility.yul\":993:1002   */\n      dup3\n        /* \"#utility.yul\":989:1007   */\n      add\n        /* \"#utility.yul\":981:1007   */\n      swap1\n      pop\n        /* \"#utility.yul\":1053:1062   */\n      dup2\n        /* \"#utility.yul\":1047:1051   */\n      dup2\n        /* \"#utility.yul\":1043:1063   */\n      sub\n        /* \"#utility.yul\":1039:1040   */\n      0x00\n        /* \"#utility.yul\":1028:1037   */\n      dup4\n        /* \"#utility.yul\":1024:1041   */\n      add\n        /* \"#utility.yul\":1017:1064   */\n      mstore\n        /* \"#utility.yul\":1081:1159   */\n      tag_50\n        /* \"#utility.yul\":1154:1158   */\n      dup2\n        /* \"#utility.yul\":1145:1151   */\n      dup5\n        /* \"#utility.yul\":1081:1159   */\n      tag_33\n      jump\t// in\n    tag_50:\n        /* \"#utility.yul\":1073:1159   */\n      swap1\n      pop\n        /* \"#utility.yul\":971:1166   */\n      swap3\n      swap2\n      pop\n      pop\n      jump\t// out\n        /* \"#utility.yul\":1172:1394   */\n    tag_10:\n      0x00\n        /* \"#utility.yul\":1303:1305   */\n      0x20\n        /* \"#utility.yul\":1292:1301   */\n      dup3\n        /* \"#utility.yul\":1288:1306   */\n      add\n        /* \"#utility.yul\":1280:1306   */\n      swap1\n      pop\n        /* \"#utility.yul\":1316:1387   */\n      tag_52\n        /* \"#utility.yul\":1384:1385   */\n      0x00\n        /* \"#utility.yul\":1373:1382   */\n      dup4\n        /* \"#utility.yul\":1369:1386   */\n      add\n        /* \"#utility.yul\":1360:1366   */\n      dup5\n        /* \"#utility.yul\":1316:1387   */\n      tag_43\n      jump\t// in\n    tag_52:\n        /* \"#utility.yul\":1270:1394   */\n      swap3\n      swap2\n      pop\n      pop\n      jump\t// out\n        /* \"#utility.yul\":1400:1499   */\n    tag_36:\n      0x00\n        /* \"#utility.yul\":1486:1491   */\n      dup2\n        /* \"#utility.yul\":1480:1492   */\n      mload\n        /* \"#utility.yul\":1470:1492   */\n      swap1\n      pop\n        /* \"#utility.yul\":1459:1499   */\n      swap2\n      swap1\n      pop\n      jump\t// out\n        /* \"#utility.yul\":1505:1674   */\n    tag_38:\n      0x00\n        /* \"#utility.yul\":1623:1629   */\n      dup3\n        /* \"#utility.yul\":1618:1621   */\n      dup3\n        /* \"#utility.yul\":1611:1630   */\n      mstore\n        /* \"#utility.yul\":1663:1667   */\n      0x20\n        /* \"#utility.yul\":1658:1661   */\n      dup3\n        /* \"#utility.yul\":1654:1668   */\n      add\n        /* \"#utility.yul\":1639:1668   */\n      swap1\n      pop\n        /* \"#utility.yul\":1601:1674   */\n      swap3\n      swap2\n      pop\n      pop\n      jump\t// out\n        /* \"#utility.yul\":1680:1776   */\n    tag_32:\n      0x00\n        /* \"#utility.yul\":1746:1770   */\n      tag_56\n        /* \"#utility.yul\":1764:1769   */\n      dup3\n        /* \"#utility.yul\":1746:1770   */\n      tag_57\n      jump\t// in\n    tag_56:\n        /* \"#utility.yul\":1735:1770   */\n      swap1\n      pop\n        /* \"#utility.yul\":1725:1776   */\n      swap2\n      swap1\n      pop\n      jump\t// out\n        /* \"#utility.yul\":1782:1908   */\n    tag_57:\n      0x00\n        /* \"#utility.yul\":1859:1901   */\n      0xffffffffffffffffffffffffffffffffffffffff\n        /* \"#utility.yul\":1852:1857   */\n      dup3\n        /* \"#utility.yul\":1848:1902   */\n      and\n        /* \"#utility.yul\":1837:1902   */\n      swap1\n      pop\n        /* \"#utility.yul\":1827:1908   */\n      swap2\n      swap1\n      pop\n      jump\t// out\n        /* \"#utility.yul\":1914:1991   */\n    tag_46:\n      0x00\n        /* \"#utility.yul\":1980:1985   */\n      dup2\n        /* \"#utility.yul\":1969:1985   */\n      swap1\n      pop\n        /* \"#utility.yul\":1959:1991   */\n      swap2\n      swap1\n      pop\n      jump\t// out\n        /* \"#utility.yul\":1997:2304   */\n    tag_40:\n        /* \"#utility.yul\":2065:2066   */\n      0x00\n        /* \"#utility.yul\":2075:2188   */\n    tag_61:\n        /* \"#utility.yul\":2089:2095   */\n      dup4\n        /* \"#utility.yul\":2086:2087   */\n      dup2\n        /* \"#utility.yul\":2083:2096   */\n      lt\n        /* \"#utility.yul\":2075:2188   */\n      iszero\n      tag_63\n      jumpi\n        /* \"#utility.yul\":2174:2175   */\n      dup1\n        /* \"#utility.yul\":2169:2172   */\n      dup3\n        /* \"#utility.yul\":2165:2176   */\n      add\n        /* \"#utility.yul\":2159:2177   */\n      mload\n        /* \"#utility.yul\":2155:2156   */\n      dup2\n        /* \"#utility.yul\":2150:2153   */\n      dup5\n        /* \"#utility.yul\":2146:2157   */\n      add\n        /* \"#utility.yul\":2139:2178   */\n      mstore\n        /* \"#utility.yul\":2111:2113   */\n      0x20\n        /* \"#utility.yul\":2108:2109   */\n      dup2\n        /* \"#utility.yul\":2104:2114   */\n      add\n        /* \"#utility.yul\":2099:2114   */\n      swap1\n      pop\n        /* \"#utility.yul\":2075:2188   */\n      jump(tag_61)\n    tag_63:\n        /* \"#utility.yul\":2206:2212   */\n      dup4\n        /* \"#utility.yul\":2203:2204   */\n      dup2\n        /* \"#utility.yul\":2200:2213   */\n      gt\n        /* \"#utility.yul\":2197:2199   */\n      iszero\n      tag_64\n      jumpi\n        /* \"#utility.yul\":2286:2287   */\n      0x00\n        /* \"#utility.yul\":2277:2283   */\n      dup5\n        /* \"#utility.yul\":2272:2275   */\n      dup5\n        /* \"#utility.yul\":2268:2284   */\n      add\n        /* \"#utility.yul\":2261:2288   */\n      mstore\n        /* \"#utility.yul\":2197:2199   */\n    tag_64:\n        /* \"#utility.yul\":2046:2304   */\n      pop\n      pop\n      pop\n      pop\n      jump\t// out\n        /* \"#utility.yul\":2310:2630   */\n    tag_23:\n      0x00\n        /* \"#utility.yul\":2391:2392   */\n      0x02\n        /* \"#utility.yul\":2385:2389   */\n      dup3\n        /* \"#utility.yul\":2381:2393   */\n      div\n        /* \"#utility.yul\":2371:2393   */\n      swap1\n      pop\n        /* \"#utility.yul\":2438:2439   */\n      0x01\n        /* \"#utility.yul\":2432:2436   */\n      dup3\n        /* \"#utility.yul\":2428:2440   */\n      and\n        /* \"#utility.yul\":2459:2477   */\n      dup1\n        /* \"#utility.yul\":2449:2451   */\n      tag_66\n      jumpi\n        /* \"#utility.yul\":2515:2519   */\n      0x7f\n        /* \"#utility.yul\":2507:2513   */\n      dup3\n        /* \"#utility.yul\":2503:2520   */\n      and\n        /* \"#utility.yul\":2493:2520   */\n      swap2\n      pop\n        /* \"#utility.yul\":2449:2451   */\n    tag_66:\n        /* \"#utility.yul\":2577:2579   */\n      0x20\n        /* \"#utility.yul\":2569:2575   */\n      dup3\n        /* \"#utility.yul\":2566:2580   */\n      lt\n        /* \"#utility.yul\":2546:2564   */\n      dup2\n        /* \"#utility.yul\":2543:2581   */\n      eq\n        /* \"#utility.yul\":2540:2542   */\n      iszero\n      tag_67\n      jumpi\n        /* \"#utility.yul\":2596:2614   */\n      tag_68\n      tag_69\n      jump\t// in\n    tag_68:\n        /* \"#utility.yul\":2540:2542   */\n    tag_67:\n        /* \"#utility.yul\":2361:2630   */\n      pop\n      swap2\n      swap1\n      pop\n      jump\t// out\n        /* \"#utility.yul\":2636:2816   */\n    tag_69:\n        /* \"#utility.yul\":2684:2761   */\n      0x4e487b7100000000000000000000000000000000000000000000000000000000\n        /* \"#utility.yul\":2681:2682   */\n      0x00\n        /* \"#utility.yul\":2674:2762   */\n      mstore\n        /* \"#utility.yul\":2781:2785   */\n      0x22\n        /* \"#utility.yul\":2778:2779   */\n      0x04\n        /* \"#utility.yul\":2771:2786   */\n      mstore\n        /* \"#utility.yul\":2805:2809   */\n      0x24\n        /* \"#utility.yul\":2802:2803   */\n      0x00\n        /* \"#utility.yul\":2795:2810   */\n      revert\n        /* \"#utility.yul\":2822:2924   */\n    tag_42:\n      0x00\n        /* \"#utility.yul\":2914:2916   */\n      0x1f\n        /* \"#utility.yul\":2910:2917   */\n      not\n        /* \"#utility.yul\":2905:2907   */\n      0x1f\n        /* \"#utility.yul\":2898:2903   */\n      dup4\n        /* \"#utility.yul\":2894:2908   */\n      add\n        /* \"#utility.yul\":2890:2918   */\n      and\n        /* \"#utility.yul\":2880:2918   */\n      swap1\n      pop\n        /* \"#utility.yul\":2870:2924   */\n      swap2\n      swap1\n      pop\n      jump\t// out\n\n    auxdata: 0xa26469706673582212200a4f9ba0ef3cd0ed4a9d94ba580757a609de7563b5eab86eeb18bb38654966f964736f6c63430008000033\n}\n",
				"bytecode": {
					"linkReferences": {},
					"object": "60a060405234801561001057600080fd5b506040516106cd3803806106cd833981810160405281019061003291906101ae565b816000908051906020019061004892919061008e565b50806001819055503373ffffffffffffffffffffffffffffffffffffffff1660808173ffffffffffffffffffffffffffffffffffffffff1660601b815250505050610347565b82805461009a906102a0565b90600052602060002090601f0160209004810192826100bc5760008555610103565b82601f106100d557805160ff1916838001178555610103565b82800160010185558215610103579182015b828111156101025782518255916020019190600101906100e7565b5b5090506101109190610114565b5090565b5b8082111561012d576000816000905550600101610115565b5090565b600061014461013f84610233565b610202565b90508281526020810184848401111561015c57600080fd5b61016784828561026d565b509392505050565b600082601f83011261018057600080fd5b8151610190848260208601610131565b91505092915050565b6000815190506101a881610330565b92915050565b600080604083850312156101c157600080fd5b600083015167ffffffffffffffff8111156101db57600080fd5b6101e78582860161016f565b92505060206101f885828601610199565b9150509250929050565b6000604051905081810181811067ffffffffffffffff8211171561022957610228610301565b5b8060405250919050565b600067ffffffffffffffff82111561024e5761024d610301565b5b601f19601f8301169050602081019050919050565b6000819050919050565b60005b8381101561028b578082015181840152602081019050610270565b8381111561029a576000848401525b50505050565b600060028204905060018216806102b857607f821691505b602082108114156102cc576102cb6102d2565b5b50919050565b7f4e487b7100000000000000000000000000000000000000000000000000000000600052602260045260246000fd5b7f4e487b7100000000000000000000000000000000000000000000000000000000600052604160045260246000fd5b61033981610263565b811461034457600080fd5b50565b60805160601c610368610365600039600061016401526103686000f3fe608060405234801561001057600080fd5b506004361061004c5760003560e01c806318160ddd146100515780636c02a9311461006f5780638381f58a1461008d5780638da5cb5b146100ab575b600080fd5b6100596100c9565b604051610066919061021a565b60405180910390f35b6100776100cf565b60405161008491906101f8565b60405180910390f35b61009561015d565b6040516100a2919061021a565b60405180910390f35b6100b3610162565b6040516100c091906101dd565b60405180910390f35b60015481565b600080546100dc906102c0565b80601f0160208091040260200160405190810160405280929190818152602001828054610108906102c0565b80156101555780601f1061012a57610100808354040283529160200191610155565b820191906000526020600020905b81548152906001019060200180831161013857829003601f168201915b505050505081565b600a81565b7f000000000000000000000000000000000000000000000000000000000000000081565b61018f81610251565b82525050565b60006101a082610235565b6101aa8185610240565b93506101ba81856020860161028d565b6101c381610321565b840191505092915050565b6101d781610283565b82525050565b60006020820190506101f26000830184610186565b92915050565b600060208201905081810360008301526102128184610195565b905092915050565b600060208201905061022f60008301846101ce565b92915050565b600081519050919050565b600082825260208201905092915050565b600061025c82610263565b9050919050565b600073ffffffffffffffffffffffffffffffffffffffff82169050919050565b6000819050919050565b60005b838110156102ab578082015181840152602081019050610290565b838111156102ba576000848401525b50505050565b600060028204905060018216806102d857607f821691505b602082108114156102ec576102eb6102f2565b5b50919050565b7f4e487b7100000000000000000000000000000000000000000000000000000000600052602260045260246000fd5b6000601f19601f830116905091905056fea26469706673582212200a4f9ba0ef3cd0ed4a9d94ba580757a609de7563b5eab86eeb18bb38654966f964736f6c63430008000033",
					"opcodes": "PUSH1 0xA0 PUSH1 0x40 MSTORE CALLVALUE DUP1 ISZERO PUSH2 0x10 JUMPI PUSH1 0x0 DUP1 REVERT JUMPDEST POP PUSH1 0x40 MLOAD PUSH2 0x6CD CODESIZE SUB DUP1 PUSH2 0x6CD DUP4 CODECOPY DUP2 DUP2 ADD PUSH1 0x40 MSTORE DUP2 ADD SWAP1 PUSH2 0x32 SWAP2 SWAP1 PUSH2 0x1AE JUMP JUMPDEST DUP2 PUSH1 0x0 SWAP1 DUP1 MLOAD SWAP1 PUSH1 0x20 ADD SWAP1 PUSH2 0x48 SWAP3 SWAP2 SWAP1 PUSH2 0x8E JUMP JUMPDEST POP DUP1 PUSH1 0x1 DUP2 SWAP1 SSTORE POP CALLER PUSH20 0xFFFFFFFFFFFFFFFFFFFFFFFFFFFFFFFFFFFFFFFF AND PUSH1 0x80 DUP2 PUSH20 0xFFFFFFFFFFFFFFFFFFFFFFFFFFFFFFFFFFFFFFFF AND PUSH1 0x60 SHL DUP2 MSTORE POP POP POP POP PUSH2 0x347 JUMP JUMPDEST DUP3 DUP1 SLOAD PUSH2 0x9A SWAP1 PUSH2 0x2A0 JUMP JUMPDEST SWAP1 PUSH1 0x0 MSTORE PUSH1 0x20 PUSH1 0x0 KECCAK256 SWAP1 PUSH1 0x1F ADD PUSH1 0x20 SWAP1 DIV DUP2 ADD SWAP3 DUP3 PUSH2 0xBC JUMPI PUSH1 0x0 DUP6 SSTORE PUSH2 0x103 JUMP JUMPDEST DUP3 PUSH1 0x1F LT PUSH2 0xD5 JUMPI DUP1 MLOAD PUSH1 0xFF NOT AND DUP4 DUP1 ADD OR DUP6 SSTORE PUSH2 0x103 JUMP JUMPDEST DUP3 DUP1 ADD PUSH1 0x1 ADD DUP6 SSTORE DUP3 ISZERO PUSH2 0x103 JUMPI SWAP2 DUP3 ADD JUMPDEST DUP3 DUP2 GT ISZERO PUSH2 0x102 JUMPI DUP3 MLOAD DUP3 SSTORE SWAP2 PUSH1 0x20 ADD SWAP2 SWAP1 PUSH1 0x1 ADD SWAP1 PUSH2 0xE7 JUMP JUMPDEST JUMPDEST POP SWAP1 POP PUSH2 0x110 SWAP2 SWAP1 PUSH2 0x114 JUMP JUMPDEST POP SWAP1 JUMP JUMPDEST JUMPDEST DUP1 DUP3 GT ISZERO PUSH2 0x12D JUMPI PUSH1 0x0 DUP2 PUSH1 0x0 SWAP1 SSTORE POP PUSH1 0x1 ADD PUSH2 0x115 JUMP JUMPDEST POP SWAP1 JUMP JUMPDEST PUSH1 0x0 PUSH2 0x144 PUSH2 0x13F DUP5 PUSH2 0x233 JUMP JUMPDEST PUSH2 0x202 JUMP JUMPDEST SWAP1 POP DUP3 DUP2 MSTORE PUSH1 0x20 DUP2 ADD DUP5 DUP5 DUP5 ADD GT ISZERO PUSH2 0x15C JUMPI PUSH1 0x0 DUP1 REVERT JUMPDEST PUSH2 0x167 DUP5 DUP3 DUP6 PUSH2 0x26D JUMP JUMPDEST POP SWAP4 SWAP3 POP POP POP JUMP JUMPDEST PUSH1 0x0 DUP3 PUSH1 0x1F DUP4 ADD SLT PUSH2 0x180 JUMPI PUSH1 0x0 DUP1 REVERT JUMPDEST DUP2 MLOAD PUSH2 0x190 DUP5 DUP3 PUSH1 0x20 DUP7 ADD PUSH2 0x131 JUMP JUMPDEST SWAP2 POP POP SWAP3 SWAP2 POP POP JUMP JUMPDEST PUSH1 0x0 DUP2 MLOAD SWAP1 POP PUSH2 0x1A8 DUP2 PUSH2 0x330 JUMP JUMPDEST SWAP3 SWAP2 POP POP JUMP JUMPDEST PUSH1 0x0 DUP1 PUSH1 0x40 DUP4 DUP6 SUB SLT ISZERO PUSH2 0x1C1 JUMPI PUSH1 0x0 DUP1 REVERT JUMPDEST PUSH1 0x0 DUP4 ADD MLOAD PUSH8 0xFFFFFFFFFFFFFFFF DUP2 GT ISZERO PUSH2 0x1DB JUMPI PUSH1 0x0 DUP1 REVERT JUMPDEST PUSH2 0x1E7 DUP6 DUP3 DUP7 ADD PUSH2 0x16F JUMP JUMPDEST SWAP3 POP POP PUSH1 0x20 PUSH2 0x1F8 DUP6 DUP3 DUP7 ADD PUSH2 0x199 JUMP JUMPDEST SWAP2 POP POP SWAP3 POP SWAP3 SWAP1 POP JUMP JUMPDEST PUSH1 0x0 PUSH1 0x40 MLOAD SWAP1 POP DUP2 DUP2 ADD DUP2 DUP2 LT PUSH8 0xFFFFFFFFFFFFFFFF DUP3 GT OR ISZERO PUSH2 0x229 JUMPI PUSH2 0x228 PUSH2 0x301 JUMP JUMPDEST JUMPDEST DUP1 PUSH1 0x40 MSTORE POP SWAP2 SWAP1 POP JUMP JUMPDEST PUSH1 0x0 PUSH8 0xFFFFFFFFFFFFFFFF DUP3 GT ISZERO PUSH2 0x24E JUMPI PUSH2 0x24D PUSH2 0x301 JUMP JUMPDEST JUMPDEST PUSH1 0x1F NOT PUSH1 0x1F DUP4 ADD AND SWAP1 POP PUSH1 0x20 DUP2 ADD SWAP1 POP SWAP2 SWAP1 POP JUMP JUMPDEST PUSH1 0x0 DUP2 SWAP1 POP SWAP2 SWAP1 POP JUMP JUMPDEST PUSH1 0x0 JUMPDEST DUP4 DUP2 LT ISZERO PUSH2 0x28B JUMPI DUP1 DUP3 ADD MLOAD DUP2 DUP5 ADD MSTORE PUSH1 0x20 DUP2 ADD SWAP1 POP PUSH2 0x270 JUMP JUMPDEST DUP4 DUP2 GT ISZERO PUSH2 0x29A JUMPI PUSH1 0x0 DUP5 DUP5 ADD MSTORE JUMPDEST POP POP POP POP JUMP JUMPDEST PUSH1 0x0 PUSH1 0x2 DUP3 DIV SWAP1 POP PUSH1 0x1 DUP3 AND DUP1 PUSH2 0x2B8 JUMPI PUSH1 0x7F DUP3 AND SWAP2 POP JUMPDEST PUSH1 0x20 DUP3 LT DUP2 EQ ISZERO PUSH2 0x2CC JUMPI PUSH2 0x2CB PUSH2 0x2D2 JUMP JUMPDEST JUMPDEST POP SWAP2 SWAP1 POP JUMP JUMPDEST PUSH32 0x4E487B7100000000000000000000000000000000000000000000000000000000 PUSH1 0x0 MSTORE PUSH1 0x22 PUSH1 0x4 MSTORE PUSH1 0x24 PUSH1 0x0 REVERT JUMPDEST PUSH32 0x4E487B7100000000000000000000000000000000000000000000000000000000 PUSH1 0x0 MSTORE PUSH1 0x41 PUSH1 0x4 MSTORE PUSH1 0x24 PUSH1 0x0 REVERT JUMPDEST PUSH2 0x339 DUP2 PUSH2 0x263 JUMP JUMPDEST DUP2 EQ PUSH2 0x344 JUMPI PUSH1 0x0 DUP1 REVERT JUMPDEST POP JUMP JUMPDEST PUSH1 0x80 MLOAD PUSH1 0x60 SHR PUSH2 0x368 PUSH2 0x365 PUSH1 0x0 CODECOPY PUSH1 0x0 PUSH2 0x164 ADD MSTORE PUSH2 0x368 PUSH1 0x0 RETURN INVALID PUSH1 0x80 PUSH1 0x40 MSTORE CALLVALUE DUP1 ISZERO PUSH2 0x10 JUMPI PUSH1 0x0 DUP1 REVERT JUMPDEST POP PUSH1 0x4 CALLDATASIZE LT PUSH2 0x4C JUMPI PUSH1 0x0 CALLDATALOAD PUSH1 0xE0 SHR DUP1 PUSH4 0x18160DDD EQ PUSH2 0x51 JUMPI DUP1 PUSH4 0x6C02A931 EQ PUSH2 0x6F JUMPI DUP1 PUSH4 0x8381F58A EQ PUSH2 0x8D JUMPI DUP1 PUSH4 0x8DA5CB5B EQ PUSH2 0xAB JUMPI JUMPDEST PUSH1 0x0 DUP1 REVERT JUMPDEST PUSH2 0x59 PUSH2 0xC9 JUMP JUMPDEST PUSH1 0x40 MLOAD PUSH2 0x66 SWAP2 SWAP1 PUSH2 0x21A JUMP JUMPDEST PUSH1 0x40 MLOAD DUP1 SWAP2 SUB SWAP1 RETURN JUMPDEST PUSH2 0x77 PUSH2 0xCF JUMP JUMPDEST PUSH1 0x40 MLOAD PUSH2 0x84 SWAP2 SWAP1 PUSH2 0x1F8 JUMP JUMPDEST PUSH1 0x40 MLOAD DUP1 SWAP2 SUB SWAP1 RETURN JUMPDEST PUSH2 0x95 PUSH2 0x15D JUMP JUMPDEST PUSH1 0x40 MLOAD PUSH2 0xA2 SWAP2 SWAP1 PUSH2 0x21A JUMP JUMPDEST PUSH1 0x40 MLOAD DUP1 SWAP2 SUB SWAP1 RETURN JUMPDEST PUSH2 0xB3 PUSH2 0x162 JUMP JUMPDEST PUSH1 0x40 MLOAD PUSH2 0xC0 SWAP2 SWAP1 PUSH2 0x1DD JUMP JUMPDEST PUSH1 0x40 MLOAD DUP1 SWAP2 SUB SWAP1 RETURN JUMPDEST PUSH1 0x1 SLOAD DUP2 JUMP JUMPDEST PUSH1 0x0 DUP1 SLOAD PUSH2 0xDC SWAP1 PUSH2 0x2C0 JUMP JUMPDEST DUP1 PUSH1 0x1F ADD PUSH1 0x20 DUP1 SWAP2 DIV MUL PUSH1 0x20 ADD PUSH1 0x40 MLOAD SWAP1 DUP2 ADD PUSH1 0x40 MSTORE DUP1 SWAP3 SWAP2 SWAP1 DUP2 DUP2 MSTORE PUSH1 0x20 ADD DUP3 DUP1 SLOAD PUSH2 0x108 SWAP1 PUSH2 0x2C0 JUMP JUMPDEST DUP1 ISZERO PUSH2 0x155 JUMPI DUP1 PUSH1 0x1F LT PUSH2 0x12A JUMPI PUSH2 0x100 DUP1 DUP4 SLOAD DIV MUL DUP4 MSTORE SWAP2 PUSH1 0x20 ADD SWAP2 PUSH2 0x155 JUMP JUMPDEST DUP3 ADD SWAP2 SWAP1 PUSH1 0x0 MSTORE PUSH1 0x20 PUSH1 0x0 KECCAK256 SWAP1 JUMPDEST DUP2 SLOAD DUP2 MSTORE SWAP1 PUSH1 0x1 ADD SWAP1 PUSH1 0x20 ADD DUP1 DUP4 GT PUSH2 0x138 JUMPI DUP3 SWAP1 SUB PUSH1 0x1F AND DUP3 ADD SWAP2 JUMPDEST POP POP POP POP POP DUP2 JUMP JUMPDEST PUSH1 0xA DUP2 JUMP JUMPDEST PUSH32 0x0 DUP2 JUMP JUMPDEST PUSH2 0x18F DUP2 PUSH2 0x251 JUMP JUMPDEST DUP3 MSTORE POP POP JUMP JUMPDEST PUSH1 0x0 PUSH2 0x1A0 DUP3 PUSH2 0x235 JUMP JUMPDEST PUSH2 0x1AA DUP2 DUP6 PUSH2 0x240 JUMP JUMPDEST SWAP4 POP PUSH2 0x1BA DUP2 DUP6 PUSH1 0x20 DUP7 ADD PUSH2 0x28D JUMP JUMPDEST PUSH2 0x1C3 DUP2 PUSH2 0x321 JUMP JUMPDEST DUP5 ADD SWAP2 POP POP SWAP3 SWAP2 POP POP JUMP JUMPDEST PUSH2 0x1D7 DUP2 PUSH2 0x283 JUMP JUMPDEST DUP3 MSTORE POP POP JUMP JUMPDEST PUSH1 0x0 PUSH1 0x20 DUP3 ADD SWAP1 POP PUSH2 0x1F2 PUSH1 0x0 DUP4 ADD DUP5 PUSH2 0x186 JUMP JUMPDEST SWAP3 SWAP2 POP POP JUMP JUMPDEST PUSH1 0x0 PUSH1 0x20 DUP3 ADD SWAP1 POP DUP2 DUP2 SUB PUSH1 0x0 DUP4 ADD MSTORE PUSH2 0x212 DUP2 DUP5 PUSH2 0x195 JUMP JUMPDEST SWAP1 POP SWAP3 SWAP2 POP POP JUMP JUMPDEST PUSH1 0x0 PUSH1 0x20 DUP3 ADD SWAP1 POP PUSH2 0x22F PUSH1 0x0 DUP4 ADD DUP5 PUSH2 0x1CE JUMP JUMPDEST SWAP3 SWAP2 POP POP JUMP JUMPDEST PUSH1 0x0 DUP2 MLOAD SWAP1 POP SWAP2 SWAP1 POP JUMP JUMPDEST PUSH1 0x0 DUP3 DUP3 MSTORE PUSH1 0x20 DUP3 ADD SWAP1 POP SWAP3 SWAP2 POP POP JUMP JUMPDEST PUSH1 0x0 PUSH2 0x25C DUP3 PUSH2 0x263 JUMP JUMPDEST SWAP1 POP SWAP2 SWAP1 POP JUMP JUMPDEST PUSH1 0x0 PUSH20 0xFFFFFFFFFFFFFFFFFFFFFFFFFFFFFFFFFFFFFFFF DUP3 AND SWAP1 POP SWAP2 SWAP1 POP JUMP JUMPDEST PUSH1 0x0 DUP2 SWAP1 POP SWAP2 SWAP1 POP JUMP JUMPDEST PUSH1 0x0 JUMPDEST DUP4 DUP2 LT ISZERO PUSH2 0x2AB JUMPI DUP1 DUP3 ADD MLOAD DUP2 DUP5 ADD MSTORE PUSH1 0x20 DUP2 ADD SWAP1 POP PUSH2 0x290 JUMP JUMPDEST DUP4 DUP2 GT ISZERO PUSH2 0x2BA JUMPI PUSH1 0x0 DUP5 DUP5 ADD MSTORE JUMPDEST POP POP POP POP JUMP JUMPDEST PUSH1 0x0 PUSH1 0x2 DUP3 DIV SWAP1 POP PUSH1 0x1 DUP3 AND DUP1 PUSH2 0x2D8 JUMPI PUSH1 0x7F DUP3 AND SWAP2 POP JUMPDEST PUSH1 0x20 DUP3 LT DUP2 EQ ISZERO PUSH2 0x2EC JUMPI PUSH2 0x2EB PUSH2 0x2F2 JUMP JUMPDEST JUMPDEST POP SWAP2 SWAP1 POP JUMP JUMPDEST PUSH32 0x4E487B7100000000000000000000000000000000000000000000000000000000 PUSH1 0x0 MSTORE PUSH1 0x22 PUSH1 0x4 MSTORE PUSH1 0x24 PUSH1 0x0 REVERT JUMPDEST PUSH1 0x0 PUSH1 0x1F NOT PUSH1 0x1F DUP4 ADD AND SWAP1 POP SWAP2 SWAP1 POP JUMP INVALID LOG2 PUSH5 0x6970667358 0x22 SLT KECCAK256 EXP 0x4F SWAP12 LOG0 0xEF EXTCODECOPY 0xD0 0xED 0x4A SWAP14 SWAP5 0xBA PC SMOD JUMPI 0xA6 MULMOD 0xDE PUSH22 0x63B5EAB86EEB18BB38654966F964736F6C6343000800 STOP CALLER "
				},
				"gasEstimates": {
					"creation": {
						"codeDepositCost": "174400",
						"executionCost": "infinite",
						"totalCost": "infinite"
					},
					"external": {
						"number()": "351",
						"owner()": "infinite",
						"tokenName()": "infinite",
						"totalSupply()": "1107"
					}
				},
				"methodIdentifiers": {
					"number()": "8381f58a",
					"owner()": "8da5cb5b",
					"tokenName()": "6c02a931",
					"totalSupply()": "18160ddd"
				}
			},
			"storageLayout": {
				"storage": [
					{
						"astId": 3,
						"contract": "contracts/Constructor.sol:Constructor",
						"label": "tokenName",
						"offset": 0,
						"slot": "0",
						"type": "t_string_storage"
					},
					{
						"astId": 5,
						"contract": "contracts/Constructor.sol:Constructor",
						"label": "totalSupply",
						"offset": 0,
						"slot": "1",
						"type": "t_uint256"
					}
				],
				"types": {
					"t_string_storage": {
						"encoding": "bytes",
						"label": "string",
						"numberOfBytes": "32"
					},
					"t_uint256": {
						"encoding": "inplace",
						"label": "uint256",
						"numberOfBytes": "32"
					}
				}
			},
			"userdoc": {
				"kind": "user",
				"methods": {},
				"version": 1
			}
		}
	}
}