{
	"contracts/Create.sol": {
		"VaultFactory": {
			"abi": [
				{
					"inputs": [],
					"name": "createVault",
					"outputs": [],
					"stateMutability": "nonpayable",
					"type": "function"
				},
				{
					"inputs": [],
					"name": "createVaultWithPayment",
					"outputs": [],
					"stateMutability": "payable",
					"type": "function"
				},
				{
					"inputs": [
						{
							"internalType": "address",
							"name": "",
							"type": "address"
						},
						{
							"internalType": "uint256",
							"name": "",
							"type": "uint256"
						}
					],
					"name": "userVaults",
					"outputs": [
						{
							"internalType": "contract Vault",
							"name": "",
							"type": "address"
						}
					],
					"stateMutability": "view",
					"type": "function"
				}
			],
			"devdoc": {
				"kind": "dev",
				"methods": {},
				"version": 1
			},
			"evm": {
				"assembly": "    /* \"contracts/Create.sol\":60:458  contract VaultFactory {\r... */\n  mstore(0x40, 0x80)\n  callvalue\n  dup1\n  iszero\n  tag_1\n  jumpi\n  0x00\n  dup1\n  revert\ntag_1:\n  pop\n  dataSize(sub_0)\n  dup1\n  dataOffset(sub_0)\n  0x00\n  codecopy\n  0x00\n  return\nstop\n\nsub_0: assembly {\n        /* \"contracts/Create.sol\":60:458  contract VaultFactory {\r... */\n      mstore(0x40, 0x80)\n      jumpi(tag_1, lt(calldatasize, 0x04))\n      shr(0xe0, calldataload(0x00))\n      dup1\n      0x5d12928b\n      eq\n      tag_2\n      jumpi\n      dup1\n      0x9c841fef\n      eq\n      tag_3\n      jumpi\n      dup1\n      0xad19c5b6\n      eq\n      tag_4\n      jumpi\n    tag_1:\n      0x00\n      dup1\n      revert\n        /* \"contracts/Create.sol\":146:277  function createVault() external {\r... */\n    tag_2:\n      callvalue\n      dup1\n      iszero\n      tag_5\n      jumpi\n      0x00\n      dup1\n      revert\n    tag_5:\n      pop\n      tag_6\n      tag_7\n      jump\t// in\n    tag_6:\n      stop\n        /* \"contracts/Create.sol\":91:137  mapping (address => Vault[]) public userVaults */\n    tag_3:\n      callvalue\n      dup1\n      iszero\n      tag_8\n      jumpi\n      0x00\n      dup1\n      revert\n    tag_8:\n      pop\n      tag_9\n      0x04\n      dup1\n      calldatasize\n      sub\n      dup2\n      add\n      swap1\n      tag_10\n      swap2\n      swap1\n      tag_11\n      jump\t// in\n    tag_10:\n      tag_12\n      jump\t// in\n    tag_9:\n      mload(0x40)\n      tag_13\n      swap2\n      swap1\n      tag_14\n      jump\t// in\n    tag_13:\n      mload(0x40)\n      dup1\n      swap2\n      sub\n      swap1\n      return\n        /* \"contracts/Create.sol\":285:455  function createVaultWithPayment() external payable {\r... */\n    tag_4:\n      tag_15\n      tag_16\n      jump\t// in\n    tag_15:\n      stop\n        /* \"contracts/Create.sol\":146:277  function createVault() external {\r... */\n    tag_7:\n        /* \"contracts/Create.sol\":189:200  Vault vault */\n      0x00\n        /* \"contracts/Create.sol\":213:223  msg.sender */\n      caller\n        /* \"contracts/Create.sol\":203:224  new Vault(msg.sender) */\n      mload(0x40)\n      tag_18\n      swap1\n      tag_19\n      jump\t// in\n    tag_18:\n      tag_20\n      swap2\n      swap1\n      tag_21\n      jump\t// in\n    tag_20:\n      mload(0x40)\n      dup1\n      swap2\n      sub\n      swap1\n      0x00\n      create\n      dup1\n      iszero\n      dup1\n      iszero\n      tag_22\n      jumpi\n      returndatasize\n      0x00\n      dup1\n      returndatacopy\n      revert(0x00, returndatasize)\n    tag_22:\n      pop\n        /* \"contracts/Create.sol\":189:224  Vault vault = new Vault(msg.sender) */\n      swap1\n      pop\n        /* \"contracts/Create.sol\":235:245  userVaults */\n      0x00\n        /* \"contracts/Create.sol\":235:257  userVaults[msg.sender] */\n      dup1\n        /* \"contracts/Create.sol\":246:256  msg.sender */\n      caller\n        /* \"contracts/Create.sol\":235:257  userVaults[msg.sender] */\n      0xffffffffffffffffffffffffffffffffffffffff\n      and\n      0xffffffffffffffffffffffffffffffffffffffff\n      and\n      dup2\n      mstore\n      0x20\n      add\n      swap1\n      dup2\n      mstore\n      0x20\n      add\n      0x00\n      keccak256\n        /* \"contracts/Create.sol\":263:268  vault */\n      dup2\n        /* \"contracts/Create.sol\":235:269  userVaults[msg.sender].push(vault) */\n      swap1\n      dup1\n      0x01\n      dup2\n      sload\n      add\n      dup1\n      dup3\n      sstore\n      dup1\n      swap2\n      pop\n      pop\n      0x01\n      swap1\n      sub\n      swap1\n      0x00\n      mstore\n      keccak256(0x00, 0x20)\n      add\n      0x00\n      swap1\n      swap2\n      swap1\n      swap2\n      swap1\n      swap2\n      0x0100\n      exp\n      dup2\n      sload\n      dup2\n      0xffffffffffffffffffffffffffffffffffffffff\n      mul\n      not\n      and\n      swap1\n      dup4\n      0xffffffffffffffffffffffffffffffffffffffff\n      and\n      mul\n      or\n      swap1\n      sstore\n      pop\n        /* \"contracts/Create.sol\":146:277  function createVault() external {\r... */\n      pop\n      jump\t// out\n        /* \"contracts/Create.sol\":91:137  mapping (address => Vault[]) public userVaults */\n    tag_12:\n      mstore(0x20, 0x00)\n      dup2\n      0x00\n      mstore\n      keccak256(0x00, 0x40)\n      dup2\n      dup2\n      sload\n      dup2\n      lt\n      tag_24\n      jumpi\n      0x00\n      dup1\n      revert\n    tag_24:\n      swap1\n      0x00\n      mstore\n      keccak256(0x00, 0x20)\n      add\n      0x00\n      swap2\n      pop\n      swap2\n      pop\n      swap1\n      sload\n      swap1\n      0x0100\n      exp\n      swap1\n      div\n      0xffffffffffffffffffffffffffffffffffffffff\n      and\n      dup2\n      jump\t// out\n        /* \"contracts/Create.sol\":285:455  function createVaultWithPayment() external payable {\r... */\n    tag_16:\n        /* \"contracts/Create.sol\":347:358  Vault vault */\n      0x00\n        /* \"contracts/Create.sol\":380:389  msg.value */\n      callvalue\n        /* \"contracts/Create.sol\":391:401  msg.sender */\n      caller\n        /* \"contracts/Create.sol\":361:402  (new Vault){value: msg.value}(msg.sender) */\n      mload(0x40)\n      tag_27\n      swap1\n      tag_19\n      jump\t// in\n    tag_27:\n      tag_28\n      swap2\n      swap1\n      tag_21\n      jump\t// in\n    tag_28:\n      mload(0x40)\n      dup1\n      swap2\n      sub\n      swap1\n      dup3\n      create\n      swap1\n      pop\n      dup1\n      iszero\n      dup1\n      iszero\n      tag_29\n      jumpi\n      returndatasize\n      0x00\n      dup1\n      returndatacopy\n      revert(0x00, returndatasize)\n    tag_29:\n      pop\n        /* \"contracts/Create.sol\":347:402  Vault vault = (new Vault){value: msg.value}(msg.sender) */\n      swap1\n      pop\n        /* \"contracts/Create.sol\":413:423  userVaults */\n      0x00\n        /* \"contracts/Create.sol\":413:435  userVaults[msg.sender] */\n      dup1\n        /* \"contracts/Create.sol\":424:434  msg.sender */\n      caller\n        /* \"contracts/Create.sol\":413:435  userVaults[msg.sender] */\n      0xffffffffffffffffffffffffffffffffffffffff\n      and\n      0xffffffffffffffffffffffffffffffffffffffff\n      and\n      dup2\n      mstore\n      0x20\n      add\n      swap1\n      dup2\n      mstore\n      0x20\n      add\n      0x00\n      keccak256\n        /* \"contracts/Create.sol\":441:446  vault */\n      dup2\n        /* \"contracts/Create.sol\":413:447  userVaults[msg.sender].push(vault) */\n      swap1\n      dup1\n      0x01\n      dup2\n      sload\n      add\n      dup1\n      dup3\n      sstore\n      dup1\n      swap2\n      pop\n      pop\n      0x01\n      swap1\n      sub\n      swap1\n      0x00\n      mstore\n      keccak256(0x00, 0x20)\n      add\n      0x00\n      swap1\n      swap2\n      swap1\n      swap2\n      swap1\n      swap2\n      0x0100\n      exp\n      dup2\n      sload\n      dup2\n      0xffffffffffffffffffffffffffffffffffffffff\n      mul\n      not\n      and\n      swap1\n      dup4\n      0xffffffffffffffffffffffffffffffffffffffff\n      and\n      mul\n      or\n      swap1\n      sstore\n      pop\n        /* \"contracts/Create.sol\":285:455  function createVaultWithPayment() external payable {\r... */\n      pop\n      jump\t// out\n    tag_19:\n      dataSize(sub_0)\n      dup1\n      dataOffset(sub_0)\n      dup4\n      codecopy\n      add\n      swap1\n      jump\t// out\n        /* \"#utility.yul\":7:146   */\n    tag_32:\n      0x00\n        /* \"#utility.yul\":91:97   */\n      dup2\n        /* \"#utility.yul\":78:98   */\n      calldataload\n        /* \"#utility.yul\":69:98   */\n      swap1\n      pop\n        /* \"#utility.yul\":107:140   */\n      tag_34\n        /* \"#utility.yul\":134:139   */\n      dup2\n        /* \"#utility.yul\":107:140   */\n      tag_35\n      jump\t// in\n    tag_34:\n        /* \"#utility.yul\":59:146   */\n      swap3\n      swap2\n      pop\n      pop\n      jump\t// out\n        /* \"#utility.yul\":152:291   */\n    tag_36:\n      0x00\n        /* \"#utility.yul\":236:242   */\n      dup2\n        /* \"#utility.yul\":223:243   */\n      calldataload\n        /* \"#utility.yul\":214:243   */\n      swap1\n      pop\n        /* \"#utility.yul\":252:285   */\n      tag_38\n        /* \"#utility.yul\":279:284   */\n      dup2\n        /* \"#utility.yul\":252:285   */\n      tag_39\n      jump\t// in\n    tag_38:\n        /* \"#utility.yul\":204:291   */\n      swap3\n      swap2\n      pop\n      pop\n      jump\t// out\n        /* \"#utility.yul\":297:704   */\n    tag_11:\n      0x00\n      dup1\n        /* \"#utility.yul\":422:424   */\n      0x40\n        /* \"#utility.yul\":410:419   */\n      dup4\n        /* \"#utility.yul\":401:408   */\n      dup6\n        /* \"#utility.yul\":397:420   */\n      sub\n        /* \"#utility.yul\":393:425   */\n      slt\n        /* \"#utility.yul\":390:392   */\n      iszero\n      tag_41\n      jumpi\n        /* \"#utility.yul\":438:439   */\n      0x00\n        /* \"#utility.yul\":435:436   */\n      dup1\n        /* \"#utility.yul\":428:440   */\n      revert\n        /* \"#utility.yul\":390:392   */\n    tag_41:\n        /* \"#utility.yul\":481:482   */\n      0x00\n        /* \"#utility.yul\":506:559   */\n      tag_42\n        /* \"#utility.yul\":551:558   */\n      dup6\n        /* \"#utility.yul\":542:548   */\n      dup3\n        /* \"#utility.yul\":531:540   */\n      dup7\n        /* \"#utility.yul\":527:549   */\n      add\n        /* \"#utility.yul\":506:559   */\n      tag_32\n      jump\t// in\n    tag_42:\n        /* \"#utility.yul\":496:559   */\n      swap3\n      pop\n        /* \"#utility.yul\":452:569   */\n      pop\n        /* \"#utility.yul\":608:610   */\n      0x20\n        /* \"#utility.yul\":634:687   */\n      tag_43\n        /* \"#utility.yul\":679:686   */\n      dup6\n        /* \"#utility.yul\":670:676   */\n      dup3\n        /* \"#utility.yul\":659:668   */\n      dup7\n        /* \"#utility.yul\":655:677   */\n      add\n        /* \"#utility.yul\":634:687   */\n      tag_36\n      jump\t// in\n    tag_43:\n        /* \"#utility.yul\":624:687   */\n      swap2\n      pop\n        /* \"#utility.yul\":579:697   */\n      pop\n        /* \"#utility.yul\":380:704   */\n      swap3\n      pop\n      swap3\n      swap1\n      pop\n      jump\t// out\n        /* \"#utility.yul\":710:828   */\n    tag_44:\n        /* \"#utility.yul\":797:821   */\n      tag_46\n        /* \"#utility.yul\":815:820   */\n      dup2\n        /* \"#utility.yul\":797:821   */\n      tag_47\n      jump\t// in\n    tag_46:\n        /* \"#utility.yul\":792:795   */\n      dup3\n        /* \"#utility.yul\":785:822   */\n      mstore\n        /* \"#utility.yul\":775:828   */\n      pop\n      pop\n      jump\t// out\n        /* \"#utility.yul\":834:1007   */\n    tag_48:\n        /* \"#utility.yul\":942:1000   */\n      tag_50\n        /* \"#utility.yul\":994:999   */\n      dup2\n        /* \"#utility.yul\":942:1000   */\n      tag_51\n      jump\t// in\n    tag_50:\n        /* \"#utility.yul\":937:940   */\n      dup3\n        /* \"#utility.yul\":930:1001   */\n      mstore\n        /* \"#utility.yul\":920:1007   */\n      pop\n      pop\n      jump\t// out\n        /* \"#utility.yul\":1013:1235   */\n    tag_21:\n      0x00\n        /* \"#utility.yul\":1144:1146   */\n      0x20\n        /* \"#utility.yul\":1133:1142   */\n      dup3\n        /* \"#utility.yul\":1129:1147   */\n      add\n        /* \"#utility.yul\":1121:1147   */\n      swap1\n      pop\n        /* \"#utility.yul\":1157:1228   */\n      tag_53\n        /* \"#utility.yul\":1225:1226   */\n      0x00\n        /* \"#utility.yul\":1214:1223   */\n      dup4\n        /* \"#utility.yul\":1210:1227   */\n      add\n        /* \"#utility.yul\":1201:1207   */\n      dup5\n        /* \"#utility.yul\":1157:1228   */\n      tag_44\n      jump\t// in\n    tag_53:\n        /* \"#utility.yul\":1111:1235   */\n      swap3\n      swap2\n      pop\n      pop\n      jump\t// out\n        /* \"#utility.yul\":1241:1505   */\n    tag_14:\n      0x00\n        /* \"#utility.yul\":1393:1395   */\n      0x20\n        /* \"#utility.yul\":1382:1391   */\n      dup3\n        /* \"#utility.yul\":1378:1396   */\n      add\n        /* \"#utility.yul\":1370:1396   */\n      swap1\n      pop\n        /* \"#utility.yul\":1406:1498   */\n      tag_55\n        /* \"#utility.yul\":1495:1496   */\n      0x00\n        /* \"#utility.yul\":1484:1493   */\n      dup4\n        /* \"#utility.yul\":1480:1497   */\n      add\n        /* \"#utility.yul\":1471:1477   */\n      dup5\n        /* \"#utility.yul\":1406:1498   */\n      tag_48\n      jump\t// in\n    tag_55:\n        /* \"#utility.yul\":1360:1505   */\n      swap3\n      swap2\n      pop\n      pop\n      jump\t// out\n        /* \"#utility.yul\":1511:1607   */\n    tag_47:\n      0x00\n        /* \"#utility.yul\":1577:1601   */\n      tag_57\n        /* \"#utility.yul\":1595:1600   */\n      dup3\n        /* \"#utility.yul\":1577:1601   */\n      tag_58\n      jump\t// in\n    tag_57:\n        /* \"#utility.yul\":1566:1601   */\n      swap1\n      pop\n        /* \"#utility.yul\":1556:1607   */\n      swap2\n      swap1\n      pop\n      jump\t// out\n        /* \"#utility.yul\":1613:1739   */\n    tag_58:\n      0x00\n        /* \"#utility.yul\":1690:1732   */\n      0xffffffffffffffffffffffffffffffffffffffff\n        /* \"#utility.yul\":1683:1688   */\n      dup3\n        /* \"#utility.yul\":1679:1733   */\n      and\n        /* \"#utility.yul\":1668:1733   */\n      swap1\n      pop\n        /* \"#utility.yul\":1658:1739   */\n      swap2\n      swap1\n      pop\n      jump\t// out\n        /* \"#utility.yul\":1745:1822   */\n    tag_60:\n      0x00\n        /* \"#utility.yul\":1811:1816   */\n      dup2\n        /* \"#utility.yul\":1800:1816   */\n      swap1\n      pop\n        /* \"#utility.yul\":1790:1822   */\n      swap2\n      swap1\n      pop\n      jump\t// out\n        /* \"#utility.yul\":1828:1988   */\n    tag_51:\n      0x00\n        /* \"#utility.yul\":1932:1982   */\n      tag_63\n        /* \"#utility.yul\":1976:1981   */\n      dup3\n        /* \"#utility.yul\":1932:1982   */\n      tag_64\n      jump\t// in\n    tag_63:\n        /* \"#utility.yul\":1919:1982   */\n      swap1\n      pop\n        /* \"#utility.yul\":1909:1988   */\n      swap2\n      swap1\n      pop\n      jump\t// out\n        /* \"#utility.yul\":1994:2120   */\n    tag_64:\n      0x00\n        /* \"#utility.yul\":2090:2114   */\n      tag_66\n        /* \"#utility.yul\":2108:2113   */\n      dup3\n        /* \"#utility.yul\":2090:2114   */\n      tag_58\n      jump\t// in\n    tag_66:\n        /* \"#utility.yul\":2077:2114   */\n      swap1\n      pop\n        /* \"#utility.yul\":2067:2120   */\n      swap2\n      swap1\n      pop\n      jump\t// out\n        /* \"#utility.yul\":2126:2248   */\n    tag_35:\n        /* \"#utility.yul\":2199:2223   */\n      tag_68\n        /* \"#utility.yul\":2217:2222   */\n      dup2\n        /* \"#utility.yul\":2199:2223   */\n      tag_47\n      jump\t// in\n    tag_68:\n        /* \"#utility.yul\":2192:2197   */\n      dup2\n        /* \"#utility.yul\":2189:2224   */\n      eq\n        /* \"#utility.yul\":2179:2181   */\n      tag_69\n      jumpi\n        /* \"#utility.yul\":2238:2239   */\n      0x00\n        /* \"#utility.yul\":2235:2236   */\n      dup1\n        /* \"#utility.yul\":2228:2240   */\n      revert\n        /* \"#utility.yul\":2179:2181   */\n    tag_69:\n        /* \"#utility.yul\":2169:2248   */\n      pop\n      jump\t// out\n        /* \"#utility.yul\":2254:2376   */\n    tag_39:\n        /* \"#utility.yul\":2327:2351   */\n      tag_71\n        /* \"#utility.yul\":2345:2350   */\n      dup2\n        /* \"#utility.yul\":2327:2351   */\n      tag_60\n      jump\t// in\n    tag_71:\n        /* \"#utility.yul\":2320:2325   */\n      dup2\n        /* \"#utility.yul\":2317:2352   */\n      eq\n        /* \"#utility.yul\":2307:2309   */\n      tag_72\n      jumpi\n        /* \"#utility.yul\":2366:2367   */\n      0x00\n        /* \"#utility.yul\":2363:2364   */\n      dup1\n        /* \"#utility.yul\":2356:2368   */\n      revert\n        /* \"#utility.yul\":2307:2309   */\n    tag_72:\n        /* \"#utility.yul\":2297:2376   */\n      pop\n      jump\t// out\n    stop\n\n    sub_0: assembly {\n            /* \"contracts/Create.sol\":462:1173  contract Vault {\r... */\n          mstore(0x40, 0x80)\n            /* \"contracts/Create.sol\":545:645  constructor(address _owner) payable {\r... */\n          mload(0x40)\n          sub(codesize, bytecodeSize)\n          dup1\n          bytecodeSize\n          dup4\n          codecopy\n          dup2\n          dup2\n          add\n          0x40\n          mstore\n          dup2\n          add\n          swap1\n          tag_1\n          swap2\n          swap1\n          tag_2\n          jump\t// in\n        tag_1:\n            /* \"contracts/Create.sol\":600:606  _owner */\n          dup1\n            /* \"contracts/Create.sol\":592:597  owner */\n          0x00\n          dup1\n            /* \"contracts/Create.sol\":592:606  owner = _owner */\n          0x0100\n          exp\n          dup2\n          sload\n          dup2\n          0xffffffffffffffffffffffffffffffffffffffff\n          mul\n          not\n          and\n          swap1\n          dup4\n          0xffffffffffffffffffffffffffffffffffffffff\n          and\n          mul\n          or\n          swap1\n          sstore\n          pop\n            /* \"contracts/Create.sol\":628:637  msg.value */\n          callvalue\n            /* \"contracts/Create.sol\":617:624  balance */\n          0x01\n          0x00\n            /* \"contracts/Create.sol\":617:637  balance += msg.value */\n          dup3\n          dup3\n          sload\n          tag_5\n          swap2\n          swap1\n          tag_6\n          jump\t// in\n        tag_5:\n          swap3\n          pop\n          pop\n          dup2\n          swap1\n          sstore\n          pop\n            /* \"contracts/Create.sol\":545:645  constructor(address _owner) payable {\r... */\n          pop\n            /* \"contracts/Create.sol\":462:1173  contract Vault {\r... */\n          jump(tag_7)\n            /* \"#utility.yul\":7:150   */\n        tag_9:\n          0x00\n            /* \"#utility.yul\":95:101   */\n          dup2\n            /* \"#utility.yul\":89:102   */\n          mload\n            /* \"#utility.yul\":80:102   */\n          swap1\n          pop\n            /* \"#utility.yul\":111:144   */\n          tag_11\n            /* \"#utility.yul\":138:143   */\n          dup2\n            /* \"#utility.yul\":111:144   */\n          tag_12\n          jump\t// in\n        tag_11:\n            /* \"#utility.yul\":70:150   */\n          swap3\n          swap2\n          pop\n          pop\n          jump\t// out\n            /* \"#utility.yul\":156:440   */\n        tag_2:\n          0x00\n            /* \"#utility.yul\":275:277   */\n          0x20\n            /* \"#utility.yul\":263:272   */\n          dup3\n            /* \"#utility.yul\":254:261   */\n          dup5\n            /* \"#utility.yul\":250:273   */\n          sub\n            /* \"#utility.yul\":246:278   */\n          slt\n            /* \"#utility.yul\":243:245   */\n          iszero\n          tag_14\n          jumpi\n            /* \"#utility.yul\":291:292   */\n          0x00\n            /* \"#utility.yul\":288:289   */\n          dup1\n            /* \"#utility.yul\":281:293   */\n          revert\n            /* \"#utility.yul\":243:245   */\n        tag_14:\n            /* \"#utility.yul\":334:335   */\n          0x00\n            /* \"#utility.yul\":359:423   */\n          tag_15\n            /* \"#utility.yul\":415:422   */\n          dup5\n            /* \"#utility.yul\":406:412   */\n          dup3\n            /* \"#utility.yul\":395:404   */\n          dup6\n            /* \"#utility.yul\":391:413   */\n          add\n            /* \"#utility.yul\":359:423   */\n          tag_9\n          jump\t// in\n        tag_15:\n            /* \"#utility.yul\":349:423   */\n          swap2\n          pop\n            /* \"#utility.yul\":305:433   */\n          pop\n            /* \"#utility.yul\":233:440   */\n          swap3\n          swap2\n          pop\n          pop\n          jump\t// out\n            /* \"#utility.yul\":446:751   */\n        tag_6:\n          0x00\n            /* \"#utility.yul\":505:525   */\n          tag_17\n            /* \"#utility.yul\":523:524   */\n          dup3\n            /* \"#utility.yul\":505:525   */\n          tag_18\n          jump\t// in\n        tag_17:\n            /* \"#utility.yul\":500:525   */\n          swap2\n          pop\n            /* \"#utility.yul\":539:559   */\n          tag_19\n            /* \"#utility.yul\":557:558   */\n          dup4\n            /* \"#utility.yul\":539:559   */\n          tag_18\n          jump\t// in\n        tag_19:\n            /* \"#utility.yul\":534:559   */\n          swap3\n          pop\n            /* \"#utility.yul\":693:694   */\n          dup3\n            /* \"#utility.yul\":625:691   */\n          0xffffffffffffffffffffffffffffffffffffffffffffffffffffffffffffffff\n            /* \"#utility.yul\":621:695   */\n          sub\n            /* \"#utility.yul\":618:619   */\n          dup3\n            /* \"#utility.yul\":615:696   */\n          gt\n            /* \"#utility.yul\":612:614   */\n          iszero\n          tag_20\n          jumpi\n            /* \"#utility.yul\":699:717   */\n          tag_21\n          tag_22\n          jump\t// in\n        tag_21:\n            /* \"#utility.yul\":612:614   */\n        tag_20:\n            /* \"#utility.yul\":743:744   */\n          dup3\n            /* \"#utility.yul\":740:741   */\n          dup3\n            /* \"#utility.yul\":736:745   */\n          add\n            /* \"#utility.yul\":729:745   */\n          swap1\n          pop\n            /* \"#utility.yul\":490:751   */\n          swap3\n          swap2\n          pop\n          pop\n          jump\t// out\n            /* \"#utility.yul\":757:853   */\n        tag_23:\n          0x00\n            /* \"#utility.yul\":823:847   */\n          tag_25\n            /* \"#utility.yul\":841:846   */\n          dup3\n            /* \"#utility.yul\":823:847   */\n          tag_26\n          jump\t// in\n        tag_25:\n            /* \"#utility.yul\":812:847   */\n          swap1\n          pop\n            /* \"#utility.yul\":802:853   */\n          swap2\n          swap1\n          pop\n          jump\t// out\n            /* \"#utility.yul\":859:985   */\n        tag_26:\n          0x00\n            /* \"#utility.yul\":936:978   */\n          0xffffffffffffffffffffffffffffffffffffffff\n            /* \"#utility.yul\":929:934   */\n          dup3\n            /* \"#utility.yul\":925:979   */\n          and\n            /* \"#utility.yul\":914:979   */\n          swap1\n          pop\n            /* \"#utility.yul\":904:985   */\n          swap2\n          swap1\n          pop\n          jump\t// out\n            /* \"#utility.yul\":991:1068   */\n        tag_18:\n          0x00\n            /* \"#utility.yul\":1057:1062   */\n          dup2\n            /* \"#utility.yul\":1046:1062   */\n          swap1\n          pop\n            /* \"#utility.yul\":1036:1068   */\n          swap2\n          swap1\n          pop\n          jump\t// out\n            /* \"#utility.yul\":1074:1254   */\n        tag_22:\n            /* \"#utility.yul\":1122:1199   */\n          0x4e487b7100000000000000000000000000000000000000000000000000000000\n            /* \"#utility.yul\":1119:1120   */\n          0x00\n            /* \"#utility.yul\":1112:1200   */\n          mstore\n            /* \"#utility.yul\":1219:1223   */\n          0x11\n            /* \"#utility.yul\":1216:1217   */\n          0x04\n            /* \"#utility.yul\":1209:1224   */\n          mstore\n            /* \"#utility.yul\":1243:1247   */\n          0x24\n            /* \"#utility.yul\":1240:1241   */\n          0x00\n            /* \"#utility.yul\":1233:1248   */\n          revert\n            /* \"#utility.yul\":1260:1382   */\n        tag_12:\n            /* \"#utility.yul\":1333:1357   */\n          tag_31\n            /* \"#utility.yul\":1351:1356   */\n          dup2\n            /* \"#utility.yul\":1333:1357   */\n          tag_23\n          jump\t// in\n        tag_31:\n            /* \"#utility.yul\":1326:1331   */\n          dup2\n            /* \"#utility.yul\":1323:1358   */\n          eq\n            /* \"#utility.yul\":1313:1315   */\n          tag_32\n          jumpi\n            /* \"#utility.yul\":1372:1373   */\n          0x00\n            /* \"#utility.yul\":1369:1370   */\n          dup1\n            /* \"#utility.yul\":1362:1374   */\n          revert\n            /* \"#utility.yul\":1313:1315   */\n        tag_32:\n            /* \"#utility.yul\":1303:1382   */\n          pop\n          jump\t// out\n            /* \"contracts/Create.sol\":462:1173  contract Vault {\r... */\n        tag_7:\n          dataSize(sub_0)\n          dup1\n          dataOffset(sub_0)\n          0x00\n          codecopy\n          0x00\n          return\n        stop\n\n        sub_0: assembly {\n                /* \"contracts/Create.sol\":462:1173  contract Vault {\r... */\n              mstore(0x40, 0x80)\n              jumpi(tag_1, lt(calldatasize, 0x04))\n              shr(0xe0, calldataload(0x00))\n              dup1\n              0x12065fe0\n              eq\n              tag_3\n              jumpi\n              dup1\n              0x2e1a7d4d\n              eq\n              tag_4\n              jumpi\n              dup1\n              0x8da5cb5b\n              eq\n              tag_5\n              jumpi\n              dup1\n              0xd0e30db0\n              eq\n              tag_6\n              jumpi\n              jump(tag_2)\n            tag_1:\n              jumpi(tag_2, calldatasize)\n                /* \"contracts/Create.sol\":778:787  msg.value */\n              callvalue\n                /* \"contracts/Create.sol\":767:774  balance */\n              0x01\n              0x00\n                /* \"contracts/Create.sol\":767:787  balance += msg.value */\n              dup3\n              dup3\n              sload\n              tag_9\n              swap2\n              swap1\n              tag_10\n              jump\t// in\n            tag_9:\n              swap3\n              pop\n              pop\n              dup2\n              swap1\n              sstore\n              pop\n                /* \"contracts/Create.sol\":462:1173  contract Vault {\r... */\n              stop\n            tag_2:\n                /* \"contracts/Create.sol\":703:712  msg.value */\n              callvalue\n                /* \"contracts/Create.sol\":692:699  balance */\n              0x01\n              0x00\n                /* \"contracts/Create.sol\":692:712  balance += msg.value */\n              dup3\n              dup3\n              sload\n              tag_13\n              swap2\n              swap1\n              tag_10\n              jump\t// in\n            tag_13:\n              swap3\n              pop\n              pop\n              dup2\n              swap1\n              sstore\n              pop\n                /* \"contracts/Create.sol\":462:1173  contract Vault {\r... */\n              stop\n                /* \"contracts/Create.sol\":803:890  function getBalance() external view returns (uint256) {\r... */\n            tag_3:\n              callvalue\n              dup1\n              iszero\n              tag_14\n              jumpi\n              0x00\n              dup1\n              revert\n            tag_14:\n              pop\n              tag_15\n              tag_16\n              jump\t// in\n            tag_15:\n              mload(0x40)\n              tag_17\n              swap2\n              swap1\n              tag_18\n              jump\t// in\n            tag_17:\n              mload(0x40)\n              dup1\n              swap2\n              sub\n              swap1\n              return\n                /* \"contracts/Create.sol\":981:1170  function withdraw(uint256 _amount) external {\r... */\n            tag_4:\n              callvalue\n              dup1\n              iszero\n              tag_19\n              jumpi\n              0x00\n              dup1\n              revert\n            tag_19:\n              pop\n              tag_20\n              0x04\n              dup1\n              calldatasize\n              sub\n              dup2\n              add\n              swap1\n              tag_21\n              swap2\n              swap1\n              tag_22\n              jump\t// in\n            tag_21:\n              tag_23\n              jump\t// in\n            tag_20:\n              stop\n                /* \"contracts/Create.sol\":486:506  address public owner */\n            tag_5:\n              callvalue\n              dup1\n              iszero\n              tag_24\n              jumpi\n              0x00\n              dup1\n              revert\n            tag_24:\n              pop\n              tag_25\n              tag_26\n              jump\t// in\n            tag_25:\n              mload(0x40)\n              tag_27\n              swap2\n              swap1\n              tag_28\n              jump\t// in\n            tag_27:\n              mload(0x40)\n              dup1\n              swap2\n              sub\n              swap1\n              return\n                /* \"contracts/Create.sol\":898:973  function deposit() external payable {\r... */\n            tag_6:\n              tag_29\n              tag_30\n              jump\t// in\n            tag_29:\n              stop\n                /* \"contracts/Create.sol\":803:890  function getBalance() external view returns (uint256) {\r... */\n            tag_16:\n                /* \"contracts/Create.sol\":848:855  uint256 */\n              0x00\n                /* \"contracts/Create.sol\":875:882  balance */\n              sload(0x01)\n                /* \"contracts/Create.sol\":868:882  return balance */\n              swap1\n              pop\n                /* \"contracts/Create.sol\":803:890  function getBalance() external view returns (uint256) {\r... */\n              swap1\n              jump\t// out\n                /* \"contracts/Create.sol\":981:1170  function withdraw(uint256 _amount) external {\r... */\n            tag_23:\n                /* \"contracts/Create.sol\":1058:1063  owner */\n              0x00\n              dup1\n              sload\n              swap1\n              0x0100\n              exp\n              swap1\n              div\n              0xffffffffffffffffffffffffffffffffffffffff\n              and\n                /* \"contracts/Create.sol\":1044:1063  msg.sender == owner */\n              0xffffffffffffffffffffffffffffffffffffffff\n              and\n                /* \"contracts/Create.sol\":1044:1054  msg.sender */\n              caller\n                /* \"contracts/Create.sol\":1044:1063  msg.sender == owner */\n              0xffffffffffffffffffffffffffffffffffffffff\n              and\n              eq\n                /* \"contracts/Create.sol\":1036:1090  require(msg.sender == owner, \"You are not authorized\") */\n              tag_33\n              jumpi\n              mload(0x40)\n              0x08c379a000000000000000000000000000000000000000000000000000000000\n              dup2\n              mstore\n              0x04\n              add\n              tag_34\n              swap1\n              tag_35\n              jump\t// in\n            tag_34:\n              mload(0x40)\n              dup1\n              swap2\n              sub\n              swap1\n              revert\n            tag_33:\n                /* \"contracts/Create.sol\":1112:1119  _amount */\n              dup1\n                /* \"contracts/Create.sol\":1101:1108  balance */\n              0x01\n              0x00\n                /* \"contracts/Create.sol\":1101:1119  balance -= _amount */\n              dup3\n              dup3\n              sload\n              tag_36\n              swap2\n              swap1\n              tag_37\n              jump\t// in\n            tag_36:\n              swap3\n              pop\n              pop\n              dup2\n              swap1\n              sstore\n              pop\n                /* \"contracts/Create.sol\":1138:1143  owner */\n              0x00\n              dup1\n              sload\n              swap1\n              0x0100\n              exp\n              swap1\n              div\n              0xffffffffffffffffffffffffffffffffffffffff\n              and\n                /* \"contracts/Create.sol\":1130:1153  payable(owner).transfer */\n              0xffffffffffffffffffffffffffffffffffffffff\n              and\n                /* \"contracts/Create.sol\":1130:1162  payable(owner).transfer(_amount) */\n              0x08fc\n                /* \"contracts/Create.sol\":1154:1161  _amount */\n              dup3\n                /* \"contracts/Create.sol\":1130:1162  payable(owner).transfer(_amount) */\n              swap1\n              dup2\n              iszero\n              mul\n              swap1\n              mload(0x40)\n              0x00\n              mload(0x40)\n              dup1\n              dup4\n              sub\n              dup2\n              dup6\n              dup9\n              dup9\n              call\n              swap4\n              pop\n              pop\n              pop\n              pop\n              iszero\n              dup1\n              iszero\n              tag_39\n              jumpi\n              returndatasize\n              0x00\n              dup1\n              returndatacopy\n              revert(0x00, returndatasize)\n            tag_39:\n              pop\n                /* \"contracts/Create.sol\":981:1170  function withdraw(uint256 _amount) external {\r... */\n              pop\n              jump\t// out\n                /* \"contracts/Create.sol\":486:506  address public owner */\n            tag_26:\n              0x00\n              dup1\n              sload\n              swap1\n              0x0100\n              exp\n              swap1\n              div\n              0xffffffffffffffffffffffffffffffffffffffff\n              and\n              dup2\n              jump\t// out\n                /* \"contracts/Create.sol\":898:973  function deposit() external payable {\r... */\n            tag_30:\n                /* \"contracts/Create.sol\":956:965  msg.value */\n              callvalue\n                /* \"contracts/Create.sol\":945:952  balance */\n              0x01\n              0x00\n                /* \"contracts/Create.sol\":945:965  balance += msg.value */\n              dup3\n              dup3\n              sload\n              tag_41\n              swap2\n              swap1\n              tag_10\n              jump\t// in\n            tag_41:\n              swap3\n              pop\n              pop\n              dup2\n              swap1\n              sstore\n              pop\n                /* \"contracts/Create.sol\":898:973  function deposit() external payable {\r... */\n              jump\t// out\n                /* \"#utility.yul\":7:146   */\n            tag_43:\n              0x00\n                /* \"#utility.yul\":91:97   */\n              dup2\n                /* \"#utility.yul\":78:98   */\n              calldataload\n                /* \"#utility.yul\":69:98   */\n              swap1\n              pop\n                /* \"#utility.yul\":107:140   */\n              tag_45\n                /* \"#utility.yul\":134:139   */\n              dup2\n                /* \"#utility.yul\":107:140   */\n              tag_46\n              jump\t// in\n            tag_45:\n                /* \"#utility.yul\":59:146   */\n              swap3\n              swap2\n              pop\n              pop\n              jump\t// out\n                /* \"#utility.yul\":152:414   */\n            tag_22:\n              0x00\n                /* \"#utility.yul\":260:262   */\n              0x20\n                /* \"#utility.yul\":248:257   */\n              dup3\n                /* \"#utility.yul\":239:246   */\n              dup5\n                /* \"#utility.yul\":235:258   */\n              sub\n                /* \"#utility.yul\":231:263   */\n              slt\n                /* \"#utility.yul\":228:230   */\n              iszero\n              tag_48\n              jumpi\n                /* \"#utility.yul\":276:277   */\n              0x00\n                /* \"#utility.yul\":273:274   */\n              dup1\n                /* \"#utility.yul\":266:278   */\n              revert\n                /* \"#utility.yul\":228:230   */\n            tag_48:\n                /* \"#utility.yul\":319:320   */\n              0x00\n                /* \"#utility.yul\":344:397   */\n              tag_49\n                /* \"#utility.yul\":389:396   */\n              dup5\n                /* \"#utility.yul\":380:386   */\n              dup3\n                /* \"#utility.yul\":369:378   */\n              dup6\n                /* \"#utility.yul\":365:387   */\n              add\n                /* \"#utility.yul\":344:397   */\n              tag_43\n              jump\t// in\n            tag_49:\n                /* \"#utility.yul\":334:397   */\n              swap2\n              pop\n                /* \"#utility.yul\":290:407   */\n              pop\n                /* \"#utility.yul\":218:414   */\n              swap3\n              swap2\n              pop\n              pop\n              jump\t// out\n                /* \"#utility.yul\":420:538   */\n            tag_50:\n                /* \"#utility.yul\":507:531   */\n              tag_52\n                /* \"#utility.yul\":525:530   */\n              dup2\n                /* \"#utility.yul\":507:531   */\n              tag_53\n              jump\t// in\n            tag_52:\n                /* \"#utility.yul\":502:505   */\n              dup3\n                /* \"#utility.yul\":495:532   */\n              mstore\n                /* \"#utility.yul\":485:538   */\n              pop\n              pop\n              jump\t// out\n                /* \"#utility.yul\":544:864   */\n            tag_54:\n              0x00\n                /* \"#utility.yul\":707:774   */\n              tag_56\n                /* \"#utility.yul\":771:773   */\n              0x16\n                /* \"#utility.yul\":766:769   */\n              dup4\n                /* \"#utility.yul\":707:774   */\n              tag_57\n              jump\t// in\n            tag_56:\n                /* \"#utility.yul\":700:774   */\n              swap2\n              pop\n                /* \"#utility.yul\":804:828   */\n              0x596f7520617265206e6f7420617574686f72697a656400000000000000000000\n                /* \"#utility.yul\":800:801   */\n              0x00\n                /* \"#utility.yul\":795:798   */\n              dup4\n                /* \"#utility.yul\":791:802   */\n              add\n                /* \"#utility.yul\":784:829   */\n              mstore\n                /* \"#utility.yul\":855:857   */\n              0x20\n                /* \"#utility.yul\":850:853   */\n              dup3\n                /* \"#utility.yul\":846:858   */\n              add\n                /* \"#utility.yul\":839:858   */\n              swap1\n              pop\n                /* \"#utility.yul\":690:864   */\n              swap2\n              swap1\n              pop\n              jump\t// out\n                /* \"#utility.yul\":870:988   */\n            tag_58:\n                /* \"#utility.yul\":957:981   */\n              tag_60\n                /* \"#utility.yul\":975:980   */\n              dup2\n                /* \"#utility.yul\":957:981   */\n              tag_61\n              jump\t// in\n            tag_60:\n                /* \"#utility.yul\":952:955   */\n              dup3\n                /* \"#utility.yul\":945:982   */\n              mstore\n                /* \"#utility.yul\":935:988   */\n              pop\n              pop\n              jump\t// out\n                /* \"#utility.yul\":994:1216   */\n            tag_28:\n              0x00\n                /* \"#utility.yul\":1125:1127   */\n              0x20\n                /* \"#utility.yul\":1114:1123   */\n              dup3\n                /* \"#utility.yul\":1110:1128   */\n              add\n                /* \"#utility.yul\":1102:1128   */\n              swap1\n              pop\n                /* \"#utility.yul\":1138:1209   */\n              tag_63\n                /* \"#utility.yul\":1206:1207   */\n              0x00\n                /* \"#utility.yul\":1195:1204   */\n              dup4\n                /* \"#utility.yul\":1191:1208   */\n              add\n                /* \"#utility.yul\":1182:1188   */\n              dup5\n                /* \"#utility.yul\":1138:1209   */\n              tag_50\n              jump\t// in\n            tag_63:\n                /* \"#utility.yul\":1092:1216   */\n              swap3\n              swap2\n              pop\n              pop\n              jump\t// out\n                /* \"#utility.yul\":1222:1641   */\n            tag_35:\n              0x00\n                /* \"#utility.yul\":1426:1428   */\n              0x20\n                /* \"#utility.yul\":1415:1424   */\n              dup3\n                /* \"#utility.yul\":1411:1429   */\n              add\n                /* \"#utility.yul\":1403:1429   */\n              swap1\n              pop\n                /* \"#utility.yul\":1475:1484   */\n              dup2\n                /* \"#utility.yul\":1469:1473   */\n              dup2\n                /* \"#utility.yul\":1465:1485   */\n              sub\n                /* \"#utility.yul\":1461:1462   */\n              0x00\n                /* \"#utility.yul\":1450:1459   */\n              dup4\n                /* \"#utility.yul\":1446:1463   */\n              add\n                /* \"#utility.yul\":1439:1486   */\n              mstore\n                /* \"#utility.yul\":1503:1634   */\n              tag_65\n                /* \"#utility.yul\":1629:1633   */\n              dup2\n                /* \"#utility.yul\":1503:1634   */\n              tag_54\n              jump\t// in\n            tag_65:\n                /* \"#utility.yul\":1495:1634   */\n              swap1\n              pop\n                /* \"#utility.yul\":1393:1641   */\n              swap2\n              swap1\n              pop\n              jump\t// out\n                /* \"#utility.yul\":1647:1869   */\n            tag_18:\n              0x00\n                /* \"#utility.yul\":1778:1780   */\n              0x20\n                /* \"#utility.yul\":1767:1776   */\n              dup3\n                /* \"#utility.yul\":1763:1781   */\n              add\n                /* \"#utility.yul\":1755:1781   */\n              swap1\n              pop\n                /* \"#utility.yul\":1791:1862   */\n              tag_67\n                /* \"#utility.yul\":1859:1860   */\n              0x00\n                /* \"#utility.yul\":1848:1857   */\n              dup4\n                /* \"#utility.yul\":1844:1861   */\n              add\n                /* \"#utility.yul\":1835:1841   */\n              dup5\n                /* \"#utility.yul\":1791:1862   */\n              tag_58\n              jump\t// in\n            tag_67:\n                /* \"#utility.yul\":1745:1869   */\n              swap3\n              swap2\n              pop\n              pop\n              jump\t// out\n                /* \"#utility.yul\":1875:2044   */\n            tag_57:\n              0x00\n                /* \"#utility.yul\":1993:1999   */\n              dup3\n                /* \"#utility.yul\":1988:1991   */\n              dup3\n                /* \"#utility.yul\":1981:2000   */\n              mstore\n                /* \"#utility.yul\":2033:2037   */\n              0x20\n                /* \"#utility.yul\":2028:2031   */\n              dup3\n                /* \"#utility.yul\":2024:2038   */\n              add\n                /* \"#utility.yul\":2009:2038   */\n              swap1\n              pop\n                /* \"#utility.yul\":1971:2044   */\n              swap3\n              swap2\n              pop\n              pop\n              jump\t// out\n                /* \"#utility.yul\":2050:2355   */\n            tag_10:\n              0x00\n                /* \"#utility.yul\":2109:2129   */\n              tag_70\n                /* \"#utility.yul\":2127:2128   */\n              dup3\n                /* \"#utility.yul\":2109:2129   */\n              tag_61\n              jump\t// in\n            tag_70:\n                /* \"#utility.yul\":2104:2129   */\n              swap2\n              pop\n                /* \"#utility.yul\":2143:2163   */\n              tag_71\n                /* \"#utility.yul\":2161:2162   */\n              dup4\n                /* \"#utility.yul\":2143:2163   */\n              tag_61\n              jump\t// in\n            tag_71:\n                /* \"#utility.yul\":2138:2163   */\n              swap3\n              pop\n                /* \"#utility.yul\":2297:2298   */\n              dup3\n                /* \"#utility.yul\":2229:2295   */\n              0xffffffffffffffffffffffffffffffffffffffffffffffffffffffffffffffff\n                /* \"#utility.yul\":2225:2299   */\n              sub\n                /* \"#utility.yul\":2222:2223   */\n              dup3\n                /* \"#utility.yul\":2219:2300   */\n              gt\n                /* \"#utility.yul\":2216:2218   */\n              iszero\n              tag_72\n              jumpi\n                /* \"#utility.yul\":2303:2321   */\n              tag_73\n              tag_74\n              jump\t// in\n            tag_73:\n                /* \"#utility.yul\":2216:2218   */\n            tag_72:\n                /* \"#utility.yul\":2347:2348   */\n              dup3\n                /* \"#utility.yul\":2344:2345   */\n              dup3\n                /* \"#utility.yul\":2340:2349   */\n              add\n                /* \"#utility.yul\":2333:2349   */\n              swap1\n              pop\n                /* \"#utility.yul\":2094:2355   */\n              swap3\n              swap2\n              pop\n              pop\n              jump\t// out\n                /* \"#utility.yul\":2361:2552   */\n            tag_37:\n              0x00\n                /* \"#utility.yul\":2421:2441   */\n              tag_76\n                /* \"#utility.yul\":2439:2440   */\n              dup3\n                /* \"#utility.yul\":2421:2441   */\n              tag_61\n              jump\t// in\n            tag_76:\n                /* \"#utility.yul\":2416:2441   */\n              swap2\n              pop\n                /* \"#utility.yul\":2455:2475   */\n              tag_77\n                /* \"#utility.yul\":2473:2474   */\n              dup4\n                /* \"#utility.yul\":2455:2475   */\n              tag_61\n              jump\t// in\n            tag_77:\n                /* \"#utility.yul\":2450:2475   */\n              swap3\n              pop\n                /* \"#utility.yul\":2494:2495   */\n              dup3\n                /* \"#utility.yul\":2491:2492   */\n              dup3\n                /* \"#utility.yul\":2488:2496   */\n              lt\n                /* \"#utility.yul\":2485:2487   */\n              iszero\n              tag_78\n              jumpi\n                /* \"#utility.yul\":2499:2517   */\n              tag_79\n              tag_74\n              jump\t// in\n            tag_79:\n                /* \"#utility.yul\":2485:2487   */\n            tag_78:\n                /* \"#utility.yul\":2544:2545   */\n              dup3\n                /* \"#utility.yul\":2541:2542   */\n              dup3\n                /* \"#utility.yul\":2537:2546   */\n              sub\n                /* \"#utility.yul\":2529:2546   */\n              swap1\n              pop\n                /* \"#utility.yul\":2406:2552   */\n              swap3\n              swap2\n              pop\n              pop\n              jump\t// out\n                /* \"#utility.yul\":2558:2654   */\n            tag_53:\n              0x00\n                /* \"#utility.yul\":2624:2648   */\n              tag_81\n                /* \"#utility.yul\":2642:2647   */\n              dup3\n                /* \"#utility.yul\":2624:2648   */\n              tag_82\n              jump\t// in\n            tag_81:\n                /* \"#utility.yul\":2613:2648   */\n              swap1\n              pop\n                /* \"#utility.yul\":2603:2654   */\n              swap2\n              swap1\n              pop\n              jump\t// out\n                /* \"#utility.yul\":2660:2786   */\n            tag_82:\n              0x00\n                /* \"#utility.yul\":2737:2779   */\n              0xffffffffffffffffffffffffffffffffffffffff\n                /* \"#utility.yul\":2730:2735   */\n              dup3\n                /* \"#utility.yul\":2726:2780   */\n              and\n                /* \"#utility.yul\":2715:2780   */\n              swap1\n              pop\n                /* \"#utility.yul\":2705:2786   */\n              swap2\n              swap1\n              pop\n              jump\t// out\n                /* \"#utility.yul\":2792:2869   */\n            tag_61:\n              0x00\n                /* \"#utility.yul\":2858:2863   */\n              dup2\n                /* \"#utility.yul\":2847:2863   */\n              swap1\n              pop\n                /* \"#utility.yul\":2837:2869   */\n              swap2\n              swap1\n              pop\n              jump\t// out\n                /* \"#utility.yul\":2875:3055   */\n            tag_74:\n                /* \"#utility.yul\":2923:3000   */\n              0x4e487b7100000000000000000000000000000000000000000000000000000000\n                /* \"#utility.yul\":2920:2921   */\n              0x00\n                /* \"#utility.yul\":2913:3001   */\n              mstore\n                /* \"#utility.yul\":3020:3024   */\n              0x11\n                /* \"#utility.yul\":3017:3018   */\n              0x04\n                /* \"#utility.yul\":3010:3025   */\n              mstore\n                /* \"#utility.yul\":3044:3048   */\n              0x24\n                /* \"#utility.yul\":3041:3042   */\n              0x00\n                /* \"#utility.yul\":3034:3049   */\n              revert\n                /* \"#utility.yul\":3061:3183   */\n            tag_46:\n                /* \"#utility.yul\":3134:3158   */\n              tag_87\n                /* \"#utility.yul\":3152:3157   */\n              dup2\n                /* \"#utility.yul\":3134:3158   */\n              tag_61\n              jump\t// in\n            tag_87:\n                /* \"#utility.yul\":3127:3132   */\n              dup2\n                /* \"#utility.yul\":3124:3159   */\n              eq\n                /* \"#utility.yul\":3114:3116   */\n              tag_88\n              jumpi\n                /* \"#utility.yul\":3173:3174   */\n              0x00\n                /* \"#utility.yul\":3170:3171   */\n              dup1\n                /* \"#utility.yul\":3163:3175   */\n              revert\n                /* \"#utility.yul\":3114:3116   */\n            tag_88:\n                /* \"#utility.yul\":3104:3183   */\n              pop\n              jump\t// out\n\n            auxdata: 0xa26469706673582212201b574bed6c1a522fb00a6cebef51d740c888765c0ab6b71126d38db79b58305064736f6c63430008000033\n        }\n    }\n\n    auxdata: 0xa2646970667358221220939afc5f4ef0a19f4af46d4d922c14ed1f6159e1c26fc85b1771d75d3e5aacce64736f6c63430008000033\n}\n",
				"bytecode": {
					"linkReferences": {},
					"object": "608060405234801561001057600080fd5b50610a75806100206000396000f3fe6080604052600436106100345760003560e01c80635d12928b146100395780639c841fef14610050578063ad19c5b61461008d575b600080fd5b34801561004557600080fd5b5061004e610097565b005b34801561005c57600080fd5b50610077600480360381019061007291906102d2565b610171565b6040516100849190610347565b60405180910390f35b6100956101bf565b005b6000336040516100a69061029b565b6100b0919061032c565b604051809103906000f0801580156100cc573d6000803e3d6000fd5b5090506000803373ffffffffffffffffffffffffffffffffffffffff1673ffffffffffffffffffffffffffffffffffffffff168152602001908152602001600020819080600181540180825580915050600190039060005260206000200160009091909190916101000a81548173ffffffffffffffffffffffffffffffffffffffff021916908373ffffffffffffffffffffffffffffffffffffffff16021790555050565b6000602052816000526040600020818154811061018d57600080fd5b906000526020600020016000915091509054906101000a900473ffffffffffffffffffffffffffffffffffffffff1681565b600034336040516101cf9061029b565b6101d9919061032c565b6040518091039082f09050801580156101f6573d6000803e3d6000fd5b5090506000803373ffffffffffffffffffffffffffffffffffffffff1673ffffffffffffffffffffffffffffffffffffffff168152602001908152602001600020819080600181540180825580915050600190039060005260206000200160009091909190916101000a81548173ffffffffffffffffffffffffffffffffffffffff021916908373ffffffffffffffffffffffffffffffffffffffff16021790555050565b61064f806103f183390190565b6000813590506102b7816103c2565b92915050565b6000813590506102cc816103d9565b92915050565b600080604083850312156102e557600080fd5b60006102f3858286016102a8565b9250506020610304858286016102bd565b9150509250929050565b61031781610362565b82525050565b6103268161039e565b82525050565b6000602082019050610341600083018461030e565b92915050565b600060208201905061035c600083018461031d565b92915050565b600061036d82610374565b9050919050565b600073ffffffffffffffffffffffffffffffffffffffff82169050919050565b6000819050919050565b60006103a9826103b0565b9050919050565b60006103bb82610374565b9050919050565b6103cb81610362565b81146103d657600080fd5b50565b6103e281610394565b81146103ed57600080fd5b5056fe608060405260405161064f38038061064f83398181016040528101906100259190610099565b806000806101000a81548173ffffffffffffffffffffffffffffffffffffffff021916908373ffffffffffffffffffffffffffffffffffffffff160217905550346001600082825461007791906100c2565b925050819055505061019a565b60008151905061009381610183565b92915050565b6000602082840312156100ab57600080fd5b60006100b984828501610084565b91505092915050565b60006100cd8261014a565b91506100d88361014a565b9250827fffffffffffffffffffffffffffffffffffffffffffffffffffffffffffffffff0382111561010d5761010c610154565b5b828201905092915050565b60006101238261012a565b9050919050565b600073ffffffffffffffffffffffffffffffffffffffff82169050919050565b6000819050919050565b7f4e487b7100000000000000000000000000000000000000000000000000000000600052601160045260246000fd5b61018c81610118565b811461019757600080fd5b50565b6104a6806101a96000396000f3fe6080604052600436106100435760003560e01c806312065fe01461007e5780632e1a7d4d146100a95780638da5cb5b146100d2578063d0e30db0146100fd57610063565b3661006357346001600082825461005a9190610364565b92505081905550005b34600160008282546100759190610364565b92505081905550005b34801561008a57600080fd5b50610093610107565b6040516100a09190610338565b60405180910390f35b3480156100b557600080fd5b506100d060048036038101906100cb9190610276565b610111565b005b3480156100de57600080fd5b506100e7610222565b6040516100f491906102fd565b60405180910390f35b610105610246565b005b6000600154905090565b60008054906101000a900473ffffffffffffffffffffffffffffffffffffffff1673ffffffffffffffffffffffffffffffffffffffff163373ffffffffffffffffffffffffffffffffffffffff161461019f576040517f08c379a000000000000000000000000000000000000000000000000000000000815260040161019690610318565b60405180910390fd5b80600160008282546101b191906103ba565b9250508190555060008054906101000a900473ffffffffffffffffffffffffffffffffffffffff1673ffffffffffffffffffffffffffffffffffffffff166108fc829081150290604051600060405180830381858888f1935050505015801561021e573d6000803e3d6000fd5b5050565b60008054906101000a900473ffffffffffffffffffffffffffffffffffffffff1681565b34600160008282546102589190610364565b92505081905550565b60008135905061027081610459565b92915050565b60006020828403121561028857600080fd5b600061029684828501610261565b91505092915050565b6102a8816103ee565b82525050565b60006102bb601683610353565b91507f596f7520617265206e6f7420617574686f72697a6564000000000000000000006000830152602082019050919050565b6102f781610420565b82525050565b6000602082019050610312600083018461029f565b92915050565b60006020820190508181036000830152610331816102ae565b9050919050565b600060208201905061034d60008301846102ee565b92915050565b600082825260208201905092915050565b600061036f82610420565b915061037a83610420565b9250827fffffffffffffffffffffffffffffffffffffffffffffffffffffffffffffffff038211156103af576103ae61042a565b5b828201905092915050565b60006103c582610420565b91506103d083610420565b9250828210156103e3576103e261042a565b5b828203905092915050565b60006103f982610400565b9050919050565b600073ffffffffffffffffffffffffffffffffffffffff82169050919050565b6000819050919050565b7f4e487b7100000000000000000000000000000000000000000000000000000000600052601160045260246000fd5b61046281610420565b811461046d57600080fd5b5056fea26469706673582212201b574bed6c1a522fb00a6cebef51d740c888765c0ab6b71126d38db79b58305064736f6c63430008000033a2646970667358221220939afc5f4ef0a19f4af46d4d922c14ed1f6159e1c26fc85b1771d75d3e5aacce64736f6c63430008000033",
					"opcodes": "PUSH1 0x80 PUSH1 0x40 MSTORE CALLVALUE DUP1 ISZERO PUSH2 0x10 JUMPI PUSH1 0x0 DUP1 REVERT JUMPDEST POP PUSH2 0xA75 DUP1 PUSH2 0x20 PUSH1 0x0 CODECOPY PUSH1 0x0 RETURN INVALID PUSH1 0x80 PUSH1 0x40 MSTORE PUSH1 0x4 CALLDATASIZE LT PUSH2 0x34 JUMPI PUSH1 0x0 CALLDATALOAD PUSH1 0xE0 SHR DUP1 PUSH4 0x5D12928B EQ PUSH2 0x39 JUMPI DUP1 PUSH4 0x9C841FEF EQ PUSH2 0x50 JUMPI DUP1 PUSH4 0xAD19C5B6 EQ PUSH2 0x8D JUMPI JUMPDEST PUSH1 0x0 DUP1 REVERT JUMPDEST CALLVALUE DUP1 ISZERO PUSH2 0x45 JUMPI PUSH1 0x0 DUP1 REVERT JUMPDEST POP PUSH2 0x4E PUSH2 0x97 JUMP JUMPDEST STOP JUMPDEST CALLVALUE DUP1 ISZERO PUSH2 0x5C JUMPI PUSH1 0x0 DUP1 REVERT JUMPDEST POP PUSH2 0x77 PUSH1 0x4 DUP1 CALLDATASIZE SUB DUP2 ADD SWAP1 PUSH2 0x72 SWAP2 SWAP1 PUSH2 0x2D2 JUMP JUMPDEST PUSH2 0x171 JUMP JUMPDEST PUSH1 0x40 MLOAD PUSH2 0x84 SWAP2 SWAP1 PUSH2 0x347 JUMP JUMPDEST PUSH1 0x40 MLOAD DUP1 SWAP2 SUB SWAP1 RETURN JUMPDEST PUSH2 0x95 PUSH2 0x1BF JUMP JUMPDEST STOP JUMPDEST PUSH1 0x0 CALLER PUSH1 0x40 MLOAD PUSH2 0xA6 SWAP1 PUSH2 0x29B JUMP JUMPDEST PUSH2 0xB0 SWAP2 SWAP1 PUSH2 0x32C JUMP JUMPDEST PUSH1 0x40 MLOAD DUP1 SWAP2 SUB SWAP1 PUSH1 0x0 CREATE DUP1 ISZERO DUP1 ISZERO PUSH2 0xCC JUMPI RETURNDATASIZE PUSH1 0x0 DUP1 RETURNDATACOPY RETURNDATASIZE PUSH1 0x0 REVERT JUMPDEST POP SWAP1 POP PUSH1 0x0 DUP1 CALLER PUSH20 0xFFFFFFFFFFFFFFFFFFFFFFFFFFFFFFFFFFFFFFFF AND PUSH20 0xFFFFFFFFFFFFFFFFFFFFFFFFFFFFFFFFFFFFFFFF AND DUP2 MSTORE PUSH1 0x20 ADD SWAP1 DUP2 MSTORE PUSH1 0x20 ADD PUSH1 0x0 KECCAK256 DUP2 SWAP1 DUP1 PUSH1 0x1 DUP2 SLOAD ADD DUP1 DUP3 SSTORE DUP1 SWAP2 POP POP PUSH1 0x1 SWAP1 SUB SWAP1 PUSH1 0x0 MSTORE PUSH1 0x20 PUSH1 0x0 KECCAK256 ADD PUSH1 0x0 SWAP1 SWAP2 SWAP1 SWAP2 SWAP1 SWAP2 PUSH2 0x100 EXP DUP2 SLOAD DUP2 PUSH20 0xFFFFFFFFFFFFFFFFFFFFFFFFFFFFFFFFFFFFFFFF MUL NOT AND SWAP1 DUP4 PUSH20 0xFFFFFFFFFFFFFFFFFFFFFFFFFFFFFFFFFFFFFFFF AND MUL OR SWAP1 SSTORE POP POP JUMP JUMPDEST PUSH1 0x0 PUSH1 0x20 MSTORE DUP2 PUSH1 0x0 MSTORE PUSH1 0x40 PUSH1 0x0 KECCAK256 DUP2 DUP2 SLOAD DUP2 LT PUSH2 0x18D JUMPI PUSH1 0x0 DUP1 REVERT JUMPDEST SWAP1 PUSH1 0x0 MSTORE PUSH1 0x20 PUSH1 0x0 KECCAK256 ADD PUSH1 0x0 SWAP2 POP SWAP2 POP SWAP1 SLOAD SWAP1 PUSH2 0x100 EXP SWAP1 DIV PUSH20 0xFFFFFFFFFFFFFFFFFFFFFFFFFFFFFFFFFFFFFFFF AND DUP2 JUMP JUMPDEST PUSH1 0x0 CALLVALUE CALLER PUSH1 0x40 MLOAD PUSH2 0x1CF SWAP1 PUSH2 0x29B JUMP JUMPDEST PUSH2 0x1D9 SWAP2 SWAP1 PUSH2 0x32C JUMP JUMPDEST PUSH1 0x40 MLOAD DUP1 SWAP2 SUB SWAP1 DUP3 CREATE SWAP1 POP DUP1 ISZERO DUP1 ISZERO PUSH2 0x1F6 JUMPI RETURNDATASIZE PUSH1 0x0 DUP1 RETURNDATACOPY RETURNDATASIZE PUSH1 0x0 REVERT JUMPDEST POP SWAP1 POP PUSH1 0x0 DUP1 CALLER PUSH20 0xFFFFFFFFFFFFFFFFFFFFFFFFFFFFFFFFFFFFFFFF AND PUSH20 0xFFFFFFFFFFFFFFFFFFFFFFFFFFFFFFFFFFFFFFFF AND DUP2 MSTORE PUSH1 0x20 ADD SWAP1 DUP2 MSTORE PUSH1 0x20 ADD PUSH1 0x0 KECCAK256 DUP2 SWAP1 DUP1 PUSH1 0x1 DUP2 SLOAD ADD DUP1 DUP3 SSTORE DUP1 SWAP2 POP POP PUSH1 0x1 SWAP1 SUB SWAP1 PUSH1 0x0 MSTORE PUSH1 0x20 PUSH1 0x0 KECCAK256 ADD PUSH1 0x0 SWAP1 SWAP2 SWAP1 SWAP2 SWAP1 SWAP2 PUSH2 0x100 EXP DUP2 SLOAD DUP2 PUSH20 0xFFFFFFFFFFFFFFFFFFFFFFFFFFFFFFFFFFFFFFFF MUL NOT AND SWAP1 DUP4 PUSH20 0xFFFFFFFFFFFFFFFFFFFFFFFFFFFFFFFFFFFFFFFF AND MUL OR SWAP1 SSTORE POP POP JUMP JUMPDEST PUSH2 0x64F DUP1 PUSH2 0x3F1 DUP4 CODECOPY ADD SWAP1 JUMP JUMPDEST PUSH1 0x0 DUP2 CALLDATALOAD SWAP1 POP PUSH2 0x2B7 DUP2 PUSH2 0x3C2 JUMP JUMPDEST SWAP3 SWAP2 POP POP JUMP JUMPDEST PUSH1 0x0 DUP2 CALLDATALOAD SWAP1 POP PUSH2 0x2CC DUP2 PUSH2 0x3D9 JUMP JUMPDEST SWAP3 SWAP2 POP POP JUMP JUMPDEST PUSH1 0x0 DUP1 PUSH1 0x40 DUP4 DUP6 SUB SLT ISZERO PUSH2 0x2E5 JUMPI PUSH1 0x0 DUP1 REVERT JUMPDEST PUSH1 0x0 PUSH2 0x2F3 DUP6 DUP3 DUP7 ADD PUSH2 0x2A8 JUMP JUMPDEST SWAP3 POP POP PUSH1 0x20 PUSH2 0x304 DUP6 DUP3 DUP7 ADD PUSH2 0x2BD JUMP JUMPDEST SWAP2 POP POP SWAP3 POP SWAP3 SWAP1 POP JUMP JUMPDEST PUSH2 0x317 DUP2 PUSH2 0x362 JUMP JUMPDEST DUP3 MSTORE POP POP JUMP JUMPDEST PUSH2 0x326 DUP2 PUSH2 0x39E JUMP JUMPDEST DUP3 MSTORE POP POP JUMP JUMPDEST PUSH1 0x0 PUSH1 0x20 DUP3 ADD SWAP1 POP PUSH2 0x341 PUSH1 0x0 DUP4 ADD DUP5 PUSH2 0x30E JUMP JUMPDEST SWAP3 SWAP2 POP POP JUMP JUMPDEST PUSH1 0x0 PUSH1 0x20 DUP3 ADD SWAP1 POP PUSH2 0x35C PUSH1 0x0 DUP4 ADD DUP5 PUSH2 0x31D JUMP JUMPDEST SWAP3 SWAP2 POP POP JUMP JUMPDEST PUSH1 0x0 PUSH2 0x36D DUP3 PUSH2 0x374 JUMP JUMPDEST SWAP1 POP SWAP2 SWAP1 POP JUMP JUMPDEST PUSH1 0x0 PUSH20 0xFFFFFFFFFFFFFFFFFFFFFFFFFFFFFFFFFFFFFFFF DUP3 AND SWAP1 POP SWAP2 SWAP1 POP JUMP JUMPDEST PUSH1 0x0 DUP2 SWAP1 POP SWAP2 SWAP1 POP JUMP JUMPDEST PUSH1 0x0 PUSH2 0x3A9 DUP3 PUSH2 0x3B0 JUMP JUMPDEST SWAP1 POP SWAP2 SWAP1 POP JUMP JUMPDEST PUSH1 0x0 PUSH2 0x3BB DUP3 PUSH2 0x374 JUMP JUMPDEST SWAP1 POP SWAP2 SWAP1 POP JUMP JUMPDEST PUSH2 0x3CB DUP2 PUSH2 0x362 JUMP JUMPDEST DUP2 EQ PUSH2 0x3D6 JUMPI PUSH1 0x0 DUP1 REVERT JUMPDEST POP JUMP JUMPDEST PUSH2 0x3E2 DUP2 PUSH2 0x394 JUMP JUMPDEST DUP2 EQ PUSH2 0x3ED JUMPI PUSH1 0x0 DUP1 REVERT JUMPDEST POP JUMP INVALID PUSH1 0x80 PUSH1 0x40 MSTORE PUSH1 0x40 MLOAD PUSH2 0x64F CODESIZE SUB DUP1 PUSH2 0x64F DUP4 CODECOPY DUP2 DUP2 ADD PUSH1 0x40 MSTORE DUP2 ADD SWAP1 PUSH2 0x25 SWAP2 SWAP1 PUSH2 0x99 JUMP JUMPDEST DUP1 PUSH1 0x0 DUP1 PUSH2 0x100 EXP DUP2 SLOAD DUP2 PUSH20 0xFFFFFFFFFFFFFFFFFFFFFFFFFFFFFFFFFFFFFFFF MUL NOT AND SWAP1 DUP4 PUSH20 0xFFFFFFFFFFFFFFFFFFFFFFFFFFFFFFFFFFFFFFFF AND MUL OR SWAP1 SSTORE POP CALLVALUE PUSH1 0x1 PUSH1 0x0 DUP3 DUP3 SLOAD PUSH2 0x77 SWAP2 SWAP1 PUSH2 0xC2 JUMP JUMPDEST SWAP3 POP POP DUP2 SWAP1 SSTORE POP POP PUSH2 0x19A JUMP JUMPDEST PUSH1 0x0 DUP2 MLOAD SWAP1 POP PUSH2 0x93 DUP2 PUSH2 0x183 JUMP JUMPDEST SWAP3 SWAP2 POP POP JUMP JUMPDEST PUSH1 0x0 PUSH1 0x20 DUP3 DUP5 SUB SLT ISZERO PUSH2 0xAB JUMPI PUSH1 0x0 DUP1 REVERT JUMPDEST PUSH1 0x0 PUSH2 0xB9 DUP5 DUP3 DUP6 ADD PUSH2 0x84 JUMP JUMPDEST SWAP2 POP POP SWAP3 SWAP2 POP POP JUMP JUMPDEST PUSH1 0x0 PUSH2 0xCD DUP3 PUSH2 0x14A JUMP JUMPDEST SWAP2 POP PUSH2 0xD8 DUP4 PUSH2 0x14A JUMP JUMPDEST SWAP3 POP DUP3 PUSH32 0xFFFFFFFFFFFFFFFFFFFFFFFFFFFFFFFFFFFFFFFFFFFFFFFFFFFFFFFFFFFFFFFF SUB DUP3 GT ISZERO PUSH2 0x10D JUMPI PUSH2 0x10C PUSH2 0x154 JUMP JUMPDEST JUMPDEST DUP3 DUP3 ADD SWAP1 POP SWAP3 SWAP2 POP POP JUMP JUMPDEST PUSH1 0x0 PUSH2 0x123 DUP3 PUSH2 0x12A JUMP JUMPDEST SWAP1 POP SWAP2 SWAP1 POP JUMP JUMPDEST PUSH1 0x0 PUSH20 0xFFFFFFFFFFFFFFFFFFFFFFFFFFFFFFFFFFFFFFFF DUP3 AND SWAP1 POP SWAP2 SWAP1 POP JUMP JUMPDEST PUSH1 0x0 DUP2 SWAP1 POP SWAP2 SWAP1 POP JUMP JUMPDEST PUSH32 0x4E487B7100000000000000000000000000000000000000000000000000000000 PUSH1 0x0 MSTORE PUSH1 0x11 PUSH1 0x4 MSTORE PUSH1 0x24 PUSH1 0x0 REVERT JUMPDEST PUSH2 0x18C DUP2 PUSH2 0x118 JUMP JUMPDEST DUP2 EQ PUSH2 0x197 JUMPI PUSH1 0x0 DUP1 REVERT JUMPDEST POP JUMP JUMPDEST PUSH2 0x4A6 DUP1 PUSH2 0x1A9 PUSH1 0x0 CODECOPY PUSH1 0x0 RETURN INVALID PUSH1 0x80 PUSH1 0x40 MSTORE PUSH1 0x4 CALLDATASIZE LT PUSH2 0x43 JUMPI PUSH1 0x0 CALLDATALOAD PUSH1 0xE0 SHR DUP1 PUSH4 0x12065FE0 EQ PUSH2 0x7E JUMPI DUP1 PUSH4 0x2E1A7D4D EQ PUSH2 0xA9 JUMPI DUP1 PUSH4 0x8DA5CB5B EQ PUSH2 0xD2 JUMPI DUP1 PUSH4 0xD0E30DB0 EQ PUSH2 0xFD JUMPI PUSH2 0x63 JUMP JUMPDEST CALLDATASIZE PUSH2 0x63 JUMPI CALLVALUE PUSH1 0x1 PUSH1 0x0 DUP3 DUP3 SLOAD PUSH2 0x5A SWAP2 SWAP1 PUSH2 0x364 JUMP JUMPDEST SWAP3 POP POP DUP2 SWAP1 SSTORE POP STOP JUMPDEST CALLVALUE PUSH1 0x1 PUSH1 0x0 DUP3 DUP3 SLOAD PUSH2 0x75 SWAP2 SWAP1 PUSH2 0x364 JUMP JUMPDEST SWAP3 POP POP DUP2 SWAP1 SSTORE POP STOP JUMPDEST CALLVALUE DUP1 ISZERO PUSH2 0x8A JUMPI PUSH1 0x0 DUP1 REVERT JUMPDEST POP PUSH2 0x93 PUSH2 0x107 JUMP JUMPDEST PUSH1 0x40 MLOAD PUSH2 0xA0 SWAP2 SWAP1 PUSH2 0x338 JUMP JUMPDEST PUSH1 0x40 MLOAD DUP1 SWAP2 SUB SWAP1 RETURN JUMPDEST CALLVALUE DUP1 ISZERO PUSH2 0xB5 JUMPI PUSH1 0x0 DUP1 REVERT JUMPDEST POP PUSH2 0xD0 PUSH1 0x4 DUP1 CALLDATASIZE SUB DUP2 ADD SWAP1 PUSH2 0xCB SWAP2 SWAP1 PUSH2 0x276 JUMP JUMPDEST PUSH2 0x111 JUMP JUMPDEST STOP JUMPDEST CALLVALUE DUP1 ISZERO PUSH2 0xDE JUMPI PUSH1 0x0 DUP1 REVERT JUMPDEST POP PUSH2 0xE7 PUSH2 0x222 JUMP JUMPDEST PUSH1 0x40 MLOAD PUSH2 0xF4 SWAP2 SWAP1 PUSH2 0x2FD JUMP JUMPDEST PUSH1 0x40 MLOAD DUP1 SWAP2 SUB SWAP1 RETURN JUMPDEST PUSH2 0x105 PUSH2 0x246 JUMP JUMPDEST STOP JUMPDEST PUSH1 0x0 PUSH1 0x1 SLOAD SWAP1 POP SWAP1 JUMP JUMPDEST PUSH1 0x0 DUP1 SLOAD SWAP1 PUSH2 0x100 EXP SWAP1 DIV PUSH20 0xFFFFFFFFFFFFFFFFFFFFFFFFFFFFFFFFFFFFFFFF AND PUSH20 0xFFFFFFFFFFFFFFFFFFFFFFFFFFFFFFFFFFFFFFFF AND CALLER PUSH20 0xFFFFFFFFFFFFFFFFFFFFFFFFFFFFFFFFFFFFFFFF AND EQ PUSH2 0x19F JUMPI PUSH1 0x40 MLOAD PUSH32 0x8C379A000000000000000000000000000000000000000000000000000000000 DUP2 MSTORE PUSH1 0x4 ADD PUSH2 0x196 SWAP1 PUSH2 0x318 JUMP JUMPDEST PUSH1 0x40 MLOAD DUP1 SWAP2 SUB SWAP1 REVERT JUMPDEST DUP1 PUSH1 0x1 PUSH1 0x0 DUP3 DUP3 SLOAD PUSH2 0x1B1 SWAP2 SWAP1 PUSH2 0x3BA JUMP JUMPDEST SWAP3 POP POP DUP2 SWAP1 SSTORE POP PUSH1 0x0 DUP1 SLOAD SWAP1 PUSH2 0x100 EXP SWAP1 DIV PUSH20 0xFFFFFFFFFFFFFFFFFFFFFFFFFFFFFFFFFFFFFFFF AND PUSH20 0xFFFFFFFFFFFFFFFFFFFFFFFFFFFFFFFFFFFFFFFF AND PUSH2 0x8FC DUP3 SWAP1 DUP2 ISZERO MUL SWAP1 PUSH1 0x40 MLOAD PUSH1 0x0 PUSH1 0x40 MLOAD DUP1 DUP4 SUB DUP2 DUP6 DUP9 DUP9 CALL SWAP4 POP POP POP POP ISZERO DUP1 ISZERO PUSH2 0x21E JUMPI RETURNDATASIZE PUSH1 0x0 DUP1 RETURNDATACOPY RETURNDATASIZE PUSH1 0x0 REVERT JUMPDEST POP POP JUMP JUMPDEST PUSH1 0x0 DUP1 SLOAD SWAP1 PUSH2 0x100 EXP SWAP1 DIV PUSH20 0xFFFFFFFFFFFFFFFFFFFFFFFFFFFFFFFFFFFFFFFF AND DUP2 JUMP JUMPDEST CALLVALUE PUSH1 0x1 PUSH1 0x0 DUP3 DUP3 SLOAD PUSH2 0x258 SWAP2 SWAP1 PUSH2 0x364 JUMP JUMPDEST SWAP3 POP POP DUP2 SWAP1 SSTORE POP JUMP JUMPDEST PUSH1 0x0 DUP2 CALLDATALOAD SWAP1 POP PUSH2 0x270 DUP2 PUSH2 0x459 JUMP JUMPDEST SWAP3 SWAP2 POP POP JUMP JUMPDEST PUSH1 0x0 PUSH1 0x20 DUP3 DUP5 SUB SLT ISZERO PUSH2 0x288 JUMPI PUSH1 0x0 DUP1 REVERT JUMPDEST PUSH1 0x0 PUSH2 0x296 DUP5 DUP3 DUP6 ADD PUSH2 0x261 JUMP JUMPDEST SWAP2 POP POP SWAP3 SWAP2 POP POP JUMP JUMPDEST PUSH2 0x2A8 DUP2 PUSH2 0x3EE JUMP JUMPDEST DUP3 MSTORE POP POP JUMP JUMPDEST PUSH1 0x0 PUSH2 0x2BB PUSH1 0x16 DUP4 PUSH2 0x353 JUMP JUMPDEST SWAP2 POP PUSH32 0x596F7520617265206E6F7420617574686F72697A656400000000000000000000 PUSH1 0x0 DUP4 ADD MSTORE PUSH1 0x20 DUP3 ADD SWAP1 POP SWAP2 SWAP1 POP JUMP JUMPDEST PUSH2 0x2F7 DUP2 PUSH2 0x420 JUMP JUMPDEST DUP3 MSTORE POP POP JUMP JUMPDEST PUSH1 0x0 PUSH1 0x20 DUP3 ADD SWAP1 POP PUSH2 0x312 PUSH1 0x0 DUP4 ADD DUP5 PUSH2 0x29F JUMP JUMPDEST SWAP3 SWAP2 POP POP JUMP JUMPDEST PUSH1 0x0 PUSH1 0x20 DUP3 ADD SWAP1 POP DUP2 DUP2 SUB PUSH1 0x0 DUP4 ADD MSTORE PUSH2 0x331 DUP2 PUSH2 0x2AE JUMP JUMPDEST SWAP1 POP SWAP2 SWAP1 POP JUMP JUMPDEST PUSH1 0x0 PUSH1 0x20 DUP3 ADD SWAP1 POP PUSH2 0x34D PUSH1 0x0 DUP4 ADD DUP5 PUSH2 0x2EE JUMP JUMPDEST SWAP3 SWAP2 POP POP JUMP JUMPDEST PUSH1 0x0 DUP3 DUP3 MSTORE PUSH1 0x20 DUP3 ADD SWAP1 POP SWAP3 SWAP2 POP POP JUMP JUMPDEST PUSH1 0x0 PUSH2 0x36F DUP3 PUSH2 0x420 JUMP JUMPDEST SWAP2 POP PUSH2 0x37A DUP4 PUSH2 0x420 JUMP JUMPDEST SWAP3 POP DUP3 PUSH32 0xFFFFFFFFFFFFFFFFFFFFFFFFFFFFFFFFFFFFFFFFFFFFFFFFFFFFFFFFFFFFFFFF SUB DUP3 GT ISZERO PUSH2 0x3AF JUMPI PUSH2 0x3AE PUSH2 0x42A JUMP JUMPDEST JUMPDEST DUP3 DUP3 ADD SWAP1 POP SWAP3 SWAP2 POP POP JUMP JUMPDEST PUSH1 0x0 PUSH2 0x3C5 DUP3 PUSH2 0x420 JUMP JUMPDEST SWAP2 POP PUSH2 0x3D0 DUP4 PUSH2 0x420 JUMP JUMPDEST SWAP3 POP DUP3 DUP3 LT ISZERO PUSH2 0x3E3 JUMPI PUSH2 0x3E2 PUSH2 0x42A JUMP JUMPDEST JUMPDEST DUP3 DUP3 SUB SWAP1 POP SWAP3 SWAP2 POP POP JUMP JUMPDEST PUSH1 0x0 PUSH2 0x3F9 DUP3 PUSH2 0x400 JUMP JUMPDEST SWAP1 POP SWAP2 SWAP1 POP JUMP JUMPDEST PUSH1 0x0 PUSH20 0xFFFFFFFFFFFFFFFFFFFFFFFFFFFFFFFFFFFFFFFF DUP3 AND SWAP1 POP SWAP2 SWAP1 POP JUMP JUMPDEST PUSH1 0x0 DUP2 SWAP1 POP SWAP2 SWAP1 POP JUMP JUMPDEST PUSH32 0x4E487B7100000000000000000000000000000000000000000000000000000000 PUSH1 0x0 MSTORE PUSH1 0x11 PUSH1 0x4 MSTORE PUSH1 0x24 PUSH1 0x0 REVERT JUMPDEST PUSH2 0x462 DUP2 PUSH2 0x420 JUMP JUMPDEST DUP2 EQ PUSH2 0x46D JUMPI PUSH1 0x0 DUP1 REVERT JUMPDEST POP JUMP INVALID LOG2 PUSH5 0x6970667358 0x22 SLT KECCAK256 SHL JUMPI 0x4B 0xED PUSH13 0x1A522FB00A6CEBEF51D740C888 PUSH23 0x5C0AB6B71126D38DB79B58305064736F6C634300080000 CALLER LOG2 PUSH5 0x6970667358 0x22 SLT KECCAK256 SWAP4 SWAP11 0xFC 0x5F 0x4E CREATE LOG1 SWAP16 0x4A DELEGATECALL PUSH14 0x4D922C14ED1F6159E1C26FC85B17 PUSH18 0xD75D3E5AACCE64736F6C6343000800003300 "
				},
				"gasEstimates": {
					"creation": {
						"codeDepositCost": "535400",
						"executionCost": "568",
						"totalCost": "535968"
					},
					"external": {
						"createVault()": "infinite",
						"createVaultWithPayment()": "infinite",
						"userVaults(address,uint256)": "infinite"
					}
				},
				"methodIdentifiers": {
					"createVault()": "5d12928b",
					"createVaultWithPayment()": "ad19c5b6",
					"userVaults(address,uint256)": "9c841fef"
				}
			},
			"storageLayout": {
				"storage": [
					{
						"astId": 7,
						"contract": "contracts/Create.sol:VaultFactory",
						"label": "userVaults",
						"offset": 0,
						"slot": "0",
						"type": "t_mapping(t_address,t_array(t_contract(Vault)137)dyn_storage)"
					}
				],
				"types": {
					"t_address": {
						"encoding": "inplace",
						"label": "address",
						"numberOfBytes": "20"
					},
					"t_array(t_contract(Vault)137)dyn_storage": {
						"base": "t_contract(Vault)137",
						"encoding": "dynamic_array",
						"label": "contract Vault[]",
						"numberOfBytes": "32"
					},
					"t_contract(Vault)137": {
						"encoding": "inplace",
						"label": "contract Vault",
						"numberOfBytes": "20"
					},
					"t_mapping(t_address,t_array(t_contract(Vault)137)dyn_storage)": {
						"encoding": "mapping",
						"key": "t_address",
						"label": "mapping(address => contract Vault[])",
						"numberOfBytes": "32",
						"value": "t_array(t_contract(Vault)137)dyn_storage"
					}
				}
			},
			"userdoc": {
				"kind": "user",
				"methods": {},
				"version": 1
			}
		}
	}
}