{
	"contracts/Loops.sol": {
		"Loops": {
			"abi": [
				{
					"inputs": [],
					"name": "getArr0",
					"outputs": [
						{
							"internalType": "uint256[15]",
							"name": "",
							"type": "uint256[15]"
						}
					],
					"stateMutability": "view",
					"type": "function"
				},
				{
					"inputs": [],
					"name": "getArr1",
					"outputs": [
						{
							"internalType": "uint256[15]",
							"name": "",
							"type": "uint256[15]"
						}
					],
					"stateMutability": "view",
					"type": "function"
				},
				{
					"inputs": [],
					"name": "listByFor",
					"outputs": [],
					"stateMutability": "nonpayable",
					"type": "function"
				},
				{
					"inputs": [],
					"name": "listByWhile",
					"outputs": [],
					"stateMutability": "nonpayable",
					"type": "function"
				},
				{
					"inputs": [
						{
							"internalType": "uint256",
							"name": "",
							"type": "uint256"
						}
					],
					"name": "numbers0",
					"outputs": [
						{
							"internalType": "uint256",
							"name": "",
							"type": "uint256"
						}
					],
					"stateMutability": "view",
					"type": "function"
				},
				{
					"inputs": [
						{
							"internalType": "uint256",
							"name": "",
							"type": "uint256"
						}
					],
					"name": "numbers1",
					"outputs": [
						{
							"internalType": "uint256",
							"name": "",
							"type": "uint256"
						}
					],
					"stateMutability": "view",
					"type": "function"
				}
			],
			"devdoc": {
				"kind": "dev",
				"methods": {},
				"version": 1
			},
			"evm": {
				"assembly": "    /* \"contracts/Loops.sol\":67:795  contract Loops {\r... */\n  mstore(0x40, 0x80)\n  callvalue\n  dup1\n  iszero\n  tag_1\n  jumpi\n  0x00\n  dup1\n  revert\ntag_1:\n  pop\n  dataSize(sub_0)\n  dup1\n  dataOffset(sub_0)\n  0x00\n  codecopy\n  0x00\n  return\nstop\n\nsub_0: assembly {\n        /* \"contracts/Loops.sol\":67:795  contract Loops {\r... */\n      mstore(0x40, 0x80)\n      callvalue\n      dup1\n      iszero\n      tag_1\n      jumpi\n      0x00\n      dup1\n      revert\n    tag_1:\n      pop\n      jumpi(tag_2, lt(calldatasize, 0x04))\n      shr(0xe0, calldataload(0x00))\n      dup1\n      0x0cf8d617\n      eq\n      tag_3\n      jumpi\n      dup1\n      0x62b44ce1\n      eq\n      tag_4\n      jumpi\n      dup1\n      0xa168614d\n      eq\n      tag_5\n      jumpi\n      dup1\n      0xa8d798ff\n      eq\n      tag_6\n      jumpi\n      dup1\n      0xc84c7205\n      eq\n      tag_7\n      jumpi\n      dup1\n      0xd9f0d049\n      eq\n      tag_8\n      jumpi\n    tag_2:\n      0x00\n      dup1\n      revert\n        /* \"contracts/Loops.sol\":531:689  function listByWhile() public {\r... */\n    tag_3:\n      tag_9\n      tag_10\n      jump\t// in\n    tag_9:\n      stop\n        /* \"contracts/Loops.sol\":123:150  uint256[15] public numbers1 */\n    tag_4:\n      tag_11\n      0x04\n      dup1\n      calldatasize\n      sub\n      dup2\n      add\n      swap1\n      tag_12\n      swap2\n      swap1\n      tag_13\n      jump\t// in\n    tag_12:\n      tag_14\n      jump\t// in\n    tag_11:\n      mload(0x40)\n      tag_15\n      swap2\n      swap1\n      tag_16\n      jump\t// in\n    tag_15:\n      mload(0x40)\n      dup1\n      swap2\n      sub\n      swap1\n      return\n        /* \"contracts/Loops.sol\":697:790  function getArr1() public view returns(uint256[15] memory) {\r... */\n    tag_5:\n      tag_17\n      tag_18\n      jump\t// in\n    tag_17:\n      mload(0x40)\n      tag_19\n      swap2\n      swap1\n      tag_20\n      jump\t// in\n    tag_19:\n      mload(0x40)\n      dup1\n      swap2\n      sub\n      swap1\n      return\n        /* \"contracts/Loops.sol\":159:422  function listByFor() public {\r... */\n    tag_6:\n      tag_21\n      tag_22\n      jump\t// in\n    tag_21:\n      stop\n        /* \"contracts/Loops.sol\":89:116  uint256[15] public numbers0 */\n    tag_7:\n      tag_23\n      0x04\n      dup1\n      calldatasize\n      sub\n      dup2\n      add\n      swap1\n      tag_24\n      swap2\n      swap1\n      tag_13\n      jump\t// in\n    tag_24:\n      tag_25\n      jump\t// in\n    tag_23:\n      mload(0x40)\n      tag_26\n      swap2\n      swap1\n      tag_16\n      jump\t// in\n    tag_26:\n      mload(0x40)\n      dup1\n      swap2\n      sub\n      swap1\n      return\n        /* \"contracts/Loops.sol\":430:523  function getArr0() public view returns(uint256[15] memory) {\r... */\n    tag_8:\n      tag_27\n      tag_28\n      jump\t// in\n    tag_27:\n      mload(0x40)\n      tag_29\n      swap2\n      swap1\n      tag_20\n      jump\t// in\n    tag_29:\n      mload(0x40)\n      dup1\n      swap2\n      sub\n      swap1\n      return\n        /* \"contracts/Loops.sol\":531:689  function listByWhile() public {\r... */\n    tag_10:\n        /* \"contracts/Loops.sol\":572:581  uint256 i */\n      0x00\n        /* \"contracts/Loops.sol\":596:682  while(i < numbers1.length){\r... */\n    tag_31:\n        /* \"contracts/Loops.sol\":606:621  numbers1.length */\n      0x0f\n        /* \"contracts/Loops.sol\":602:603  i */\n      dup2\n        /* \"contracts/Loops.sol\":602:621  i < numbers1.length */\n      lt\n        /* \"contracts/Loops.sol\":596:682  while(i < numbers1.length){\r... */\n      iszero\n      tag_32\n      jumpi\n        /* \"contracts/Loops.sol\":651:652  i */\n      dup1\n        /* \"contracts/Loops.sol\":637:645  numbers1 */\n      0x0f\n        /* \"contracts/Loops.sol\":646:647  i */\n      dup3\n        /* \"contracts/Loops.sol\":637:648  numbers1[i] */\n      0x0f\n      dup2\n      lt\n      tag_33\n      jumpi\n      mstore(0x00, 0x4e487b7100000000000000000000000000000000000000000000000000000000)\n      mstore(0x04, 0x32)\n      revert(0x00, 0x24)\n    tag_33:\n      add\n        /* \"contracts/Loops.sol\":637:652  numbers1[i] = i */\n      dup2\n      swap1\n      sstore\n      pop\n        /* \"contracts/Loops.sol\":667:670  i++ */\n      dup1\n      dup1\n      tag_35\n      swap1\n      tag_36\n      jump\t// in\n    tag_35:\n      swap2\n      pop\n      pop\n        /* \"contracts/Loops.sol\":596:682  while(i < numbers1.length){\r... */\n      jump(tag_31)\n    tag_32:\n        /* \"contracts/Loops.sol\":531:689  function listByWhile() public {\r... */\n      pop\n      jump\t// out\n        /* \"contracts/Loops.sol\":123:150  uint256[15] public numbers1 */\n    tag_14:\n      0x0f\n      dup2\n      0x0f\n      dup2\n      lt\n      tag_37\n      jumpi\n      0x00\n      dup1\n      revert\n    tag_37:\n      add\n      0x00\n      swap2\n      pop\n      swap1\n      pop\n      sload\n      dup2\n      jump\t// out\n        /* \"contracts/Loops.sol\":697:790  function getArr1() public view returns(uint256[15] memory) {\r... */\n    tag_18:\n        /* \"contracts/Loops.sol\":736:754  uint256[15] memory */\n      tag_39\n      tag_40\n      jump\t// in\n    tag_39:\n        /* \"contracts/Loops.sol\":774:782  numbers1 */\n      0x0f\n        /* \"contracts/Loops.sol\":767:782  return numbers1 */\n      dup1\n      dup1\n      0x20\n      mul\n      mload(0x40)\n      swap1\n      dup2\n      add\n      0x40\n      mstore\n      dup1\n      swap3\n      swap2\n      swap1\n      dup3\n      0x0f\n      dup1\n      iszero\n      tag_42\n      jumpi\n      0x20\n      mul\n      dup3\n      add\n      swap2\n    tag_43:\n      dup2\n      sload\n      dup2\n      mstore\n      0x20\n      add\n      swap1\n      0x01\n      add\n      swap1\n      dup1\n      dup4\n      gt\n      tag_43\n      jumpi\n    tag_42:\n      pop\n      pop\n      pop\n      pop\n      pop\n      swap1\n      pop\n        /* \"contracts/Loops.sol\":697:790  function getArr1() public view returns(uint256[15] memory) {\r... */\n      swap1\n      jump\t// out\n        /* \"contracts/Loops.sol\":159:422  function listByFor() public {\r... */\n    tag_22:\n        /* \"contracts/Loops.sol\":198:221  uint256[15] memory nums */\n      0x00\n        /* \"contracts/Loops.sol\":224:232  numbers0 */\n      dup1\n        /* \"contracts/Loops.sol\":198:232  uint256[15] memory nums = numbers0 */\n      0x0f\n      dup1\n      0x20\n      mul\n      mload(0x40)\n      swap1\n      dup2\n      add\n      0x40\n      mstore\n      dup1\n      swap3\n      swap2\n      swap1\n      dup3\n      0x0f\n      dup1\n      iszero\n      tag_45\n      jumpi\n      0x20\n      mul\n      dup3\n      add\n      swap2\n    tag_46:\n      dup2\n      sload\n      dup2\n      mstore\n      0x20\n      add\n      swap1\n      0x01\n      add\n      swap1\n      dup1\n      dup4\n      gt\n      tag_46\n      jumpi\n    tag_45:\n      pop\n      pop\n      pop\n      pop\n      pop\n      swap1\n      pop\n        /* \"contracts/Loops.sol\":249:258  uint256 i */\n      0x00\n        /* \"contracts/Loops.sol\":245:387  for(uint256 i = 0; i < nums.length; i++) {\r... */\n    tag_47:\n        /* \"contracts/Loops.sol\":268:279  nums.length */\n      0x0f\n        /* \"contracts/Loops.sol\":264:265  i */\n      dup2\n        /* \"contracts/Loops.sol\":264:279  i < nums.length */\n      lt\n        /* \"contracts/Loops.sol\":245:387  for(uint256 i = 0; i < nums.length; i++) {\r... */\n      iszero\n      tag_48\n      jumpi\n        /* \"contracts/Loops.sol\":307:308  9 */\n      0x09\n        /* \"contracts/Loops.sol\":304:305  i */\n      dup2\n        /* \"contracts/Loops.sol\":304:308  i==9 */\n      eq\n        /* \"contracts/Loops.sol\":301:318  if(i==9) continue */\n      iszero\n      tag_50\n      jumpi\n        /* \"contracts/Loops.sol\":310:318  continue */\n      jump(tag_49)\n        /* \"contracts/Loops.sol\":301:318  if(i==9) continue */\n    tag_50:\n        /* \"contracts/Loops.sol\":340:342  12 */\n      0x0c\n        /* \"contracts/Loops.sol\":337:338  i */\n      dup2\n        /* \"contracts/Loops.sol\":337:342  i==12 */\n      eq\n        /* \"contracts/Loops.sol\":333:349  if (i==12) break */\n      iszero\n      tag_51\n      jumpi\n        /* \"contracts/Loops.sol\":344:349  break */\n      jump(tag_48)\n        /* \"contracts/Loops.sol\":333:349  if (i==12) break */\n    tag_51:\n        /* \"contracts/Loops.sol\":374:375  i */\n      dup1\n        /* \"contracts/Loops.sol\":364:368  nums */\n      dup3\n        /* \"contracts/Loops.sol\":369:370  i */\n      dup3\n        /* \"contracts/Loops.sol\":364:371  nums[i] */\n      0x0f\n      dup2\n      lt\n      tag_52\n      jumpi\n      mstore(0x00, 0x4e487b7100000000000000000000000000000000000000000000000000000000)\n      mstore(0x04, 0x32)\n      revert(0x00, 0x24)\n    tag_52:\n      0x20\n      mul\n      add\n        /* \"contracts/Loops.sol\":364:375  nums[i] = i */\n      dup2\n      dup2\n      mstore\n      pop\n      pop\n        /* \"contracts/Loops.sol\":245:387  for(uint256 i = 0; i < nums.length; i++) {\r... */\n    tag_49:\n        /* \"contracts/Loops.sol\":281:284  i++ */\n      dup1\n      dup1\n      tag_53\n      swap1\n      tag_36\n      jump\t// in\n    tag_53:\n      swap2\n      pop\n      pop\n        /* \"contracts/Loops.sol\":245:387  for(uint256 i = 0; i < nums.length; i++) {\r... */\n      jump(tag_47)\n    tag_48:\n      pop\n        /* \"contracts/Loops.sol\":410:414  nums */\n      dup1\n        /* \"contracts/Loops.sol\":399:407  numbers0 */\n      0x00\n        /* \"contracts/Loops.sol\":399:414  numbers0 = nums */\n      swap1\n      0x0f\n      tag_54\n      swap3\n      swap2\n      swap1\n      tag_55\n      jump\t// in\n    tag_54:\n      pop\n        /* \"contracts/Loops.sol\":159:422  function listByFor() public {\r... */\n      pop\n      jump\t// out\n        /* \"contracts/Loops.sol\":89:116  uint256[15] public numbers0 */\n    tag_25:\n      0x00\n      dup2\n      0x0f\n      dup2\n      lt\n      tag_56\n      jumpi\n      0x00\n      dup1\n      revert\n    tag_56:\n      add\n      0x00\n      swap2\n      pop\n      swap1\n      pop\n      sload\n      dup2\n      jump\t// out\n        /* \"contracts/Loops.sol\":430:523  function getArr0() public view returns(uint256[15] memory) {\r... */\n    tag_28:\n        /* \"contracts/Loops.sol\":469:487  uint256[15] memory */\n      tag_58\n      tag_40\n      jump\t// in\n    tag_58:\n        /* \"contracts/Loops.sol\":507:515  numbers0 */\n      0x00\n        /* \"contracts/Loops.sol\":500:515  return numbers0 */\n      0x0f\n      dup1\n      0x20\n      mul\n      mload(0x40)\n      swap1\n      dup2\n      add\n      0x40\n      mstore\n      dup1\n      swap3\n      swap2\n      swap1\n      dup3\n      0x0f\n      dup1\n      iszero\n      tag_60\n      jumpi\n      0x20\n      mul\n      dup3\n      add\n      swap2\n    tag_61:\n      dup2\n      sload\n      dup2\n      mstore\n      0x20\n      add\n      swap1\n      0x01\n      add\n      swap1\n      dup1\n      dup4\n      gt\n      tag_61\n      jumpi\n    tag_60:\n      pop\n      pop\n      pop\n      pop\n      pop\n      swap1\n      pop\n        /* \"contracts/Loops.sol\":430:523  function getArr0() public view returns(uint256[15] memory) {\r... */\n      swap1\n      jump\t// out\n    tag_40:\n      mload(0x40)\n      dup1\n      0x01e0\n      add\n      0x40\n      mstore\n      dup1\n      0x0f\n      swap1\n      0x20\n      dup3\n      mul\n      dup1\n      calldatasize\n      dup4\n      calldatacopy\n      dup1\n      dup3\n      add\n      swap2\n      pop\n      pop\n      swap1\n      pop\n      pop\n      swap1\n      jump\t// out\n    tag_55:\n      dup3\n      0x0f\n      dup2\n      add\n      swap3\n      dup3\n      iszero\n      tag_62\n      jumpi\n      swap2\n      0x20\n      mul\n      dup3\n      add\n    tag_63:\n      dup3\n      dup2\n      gt\n      iszero\n      tag_64\n      jumpi\n      dup3\n      mload\n      dup3\n      sstore\n      swap2\n      0x20\n      add\n      swap2\n      swap1\n      0x01\n      add\n      swap1\n      jump(tag_63)\n    tag_64:\n    tag_62:\n      pop\n      swap1\n      pop\n      tag_65\n      swap2\n      swap1\n      tag_66\n      jump\t// in\n    tag_65:\n      pop\n      swap1\n      jump\t// out\n    tag_66:\n    tag_67:\n      dup1\n      dup3\n      gt\n      iszero\n      tag_68\n      jumpi\n      0x00\n      dup2\n      0x00\n      swap1\n      sstore\n      pop\n      0x01\n      add\n      jump(tag_67)\n    tag_68:\n      pop\n      swap1\n      jump\t// out\n        /* \"#utility.yul\":7:146   */\n    tag_70:\n      0x00\n        /* \"#utility.yul\":91:97   */\n      dup2\n        /* \"#utility.yul\":78:98   */\n      calldataload\n        /* \"#utility.yul\":69:98   */\n      swap1\n      pop\n        /* \"#utility.yul\":107:140   */\n      tag_72\n        /* \"#utility.yul\":134:139   */\n      dup2\n        /* \"#utility.yul\":107:140   */\n      tag_73\n      jump\t// in\n    tag_72:\n        /* \"#utility.yul\":59:146   */\n      swap3\n      swap2\n      pop\n      pop\n      jump\t// out\n        /* \"#utility.yul\":152:414   */\n    tag_13:\n      0x00\n        /* \"#utility.yul\":260:262   */\n      0x20\n        /* \"#utility.yul\":248:257   */\n      dup3\n        /* \"#utility.yul\":239:246   */\n      dup5\n        /* \"#utility.yul\":235:258   */\n      sub\n        /* \"#utility.yul\":231:263   */\n      slt\n        /* \"#utility.yul\":228:230   */\n      iszero\n      tag_75\n      jumpi\n        /* \"#utility.yul\":276:277   */\n      0x00\n        /* \"#utility.yul\":273:274   */\n      dup1\n        /* \"#utility.yul\":266:278   */\n      revert\n        /* \"#utility.yul\":228:230   */\n    tag_75:\n        /* \"#utility.yul\":319:320   */\n      0x00\n        /* \"#utility.yul\":344:397   */\n      tag_76\n        /* \"#utility.yul\":389:396   */\n      dup5\n        /* \"#utility.yul\":380:386   */\n      dup3\n        /* \"#utility.yul\":369:378   */\n      dup6\n        /* \"#utility.yul\":365:387   */\n      add\n        /* \"#utility.yul\":344:397   */\n      tag_70\n      jump\t// in\n    tag_76:\n        /* \"#utility.yul\":334:397   */\n      swap2\n      pop\n        /* \"#utility.yul\":290:407   */\n      pop\n        /* \"#utility.yul\":218:414   */\n      swap3\n      swap2\n      pop\n      pop\n      jump\t// out\n        /* \"#utility.yul\":420:599   */\n    tag_77:\n      0x00\n        /* \"#utility.yul\":510:556   */\n      tag_79\n        /* \"#utility.yul\":552:555   */\n      dup4\n        /* \"#utility.yul\":544:550   */\n      dup4\n        /* \"#utility.yul\":510:556   */\n      tag_80\n      jump\t// in\n    tag_79:\n        /* \"#utility.yul\":588:592   */\n      0x20\n        /* \"#utility.yul\":583:586   */\n      dup4\n        /* \"#utility.yul\":579:593   */\n      add\n        /* \"#utility.yul\":565:593   */\n      swap1\n      pop\n        /* \"#utility.yul\":500:599   */\n      swap3\n      swap2\n      pop\n      pop\n      jump\t// out\n        /* \"#utility.yul\":639:1339   */\n    tag_81:\n        /* \"#utility.yul\":777:830   */\n      tag_83\n        /* \"#utility.yul\":824:829   */\n      dup2\n        /* \"#utility.yul\":777:830   */\n      tag_84\n      jump\t// in\n    tag_83:\n        /* \"#utility.yul\":846:931   */\n      tag_85\n        /* \"#utility.yul\":924:930   */\n      dup2\n        /* \"#utility.yul\":919:922   */\n      dup5\n        /* \"#utility.yul\":846:931   */\n      tag_86\n      jump\t// in\n    tag_85:\n        /* \"#utility.yul\":839:931   */\n      swap3\n      pop\n        /* \"#utility.yul\":955:1010   */\n      tag_87\n        /* \"#utility.yul\":1004:1009   */\n      dup3\n        /* \"#utility.yul\":955:1010   */\n      tag_88\n      jump\t// in\n    tag_87:\n        /* \"#utility.yul\":1033:1040   */\n      dup1\n        /* \"#utility.yul\":1064:1065   */\n      0x00\n        /* \"#utility.yul\":1049:1332   */\n    tag_89:\n        /* \"#utility.yul\":1074:1080   */\n      dup4\n        /* \"#utility.yul\":1071:1072   */\n      dup2\n        /* \"#utility.yul\":1068:1081   */\n      lt\n        /* \"#utility.yul\":1049:1332   */\n      iszero\n      tag_91\n      jumpi\n        /* \"#utility.yul\":1150:1156   */\n      dup2\n        /* \"#utility.yul\":1144:1157   */\n      mload\n        /* \"#utility.yul\":1177:1240   */\n      tag_92\n        /* \"#utility.yul\":1236:1239   */\n      dup8\n        /* \"#utility.yul\":1221:1234   */\n      dup3\n        /* \"#utility.yul\":1177:1240   */\n      tag_77\n      jump\t// in\n    tag_92:\n        /* \"#utility.yul\":1170:1240   */\n      swap7\n      pop\n        /* \"#utility.yul\":1263:1322   */\n      tag_93\n        /* \"#utility.yul\":1315:1321   */\n      dup4\n        /* \"#utility.yul\":1263:1322   */\n      tag_94\n      jump\t// in\n    tag_93:\n        /* \"#utility.yul\":1253:1322   */\n      swap3\n      pop\n        /* \"#utility.yul\":1109:1332   */\n      pop\n        /* \"#utility.yul\":1096:1097   */\n      0x01\n        /* \"#utility.yul\":1093:1094   */\n      dup2\n        /* \"#utility.yul\":1089:1098   */\n      add\n        /* \"#utility.yul\":1084:1098   */\n      swap1\n      pop\n        /* \"#utility.yul\":1049:1332   */\n      jump(tag_89)\n    tag_91:\n        /* \"#utility.yul\":1053:1067   */\n      pop\n        /* \"#utility.yul\":753:1339   */\n      pop\n      pop\n      pop\n      pop\n      pop\n      jump\t// out\n        /* \"#utility.yul\":1345:1453   */\n    tag_80:\n        /* \"#utility.yul\":1422:1446   */\n      tag_96\n        /* \"#utility.yul\":1440:1445   */\n      dup2\n        /* \"#utility.yul\":1422:1446   */\n      tag_97\n      jump\t// in\n    tag_96:\n        /* \"#utility.yul\":1417:1420   */\n      dup3\n        /* \"#utility.yul\":1410:1447   */\n      mstore\n        /* \"#utility.yul\":1400:1453   */\n      pop\n      pop\n      jump\t// out\n        /* \"#utility.yul\":1459:1577   */\n    tag_98:\n        /* \"#utility.yul\":1546:1570   */\n      tag_100\n        /* \"#utility.yul\":1564:1569   */\n      dup2\n        /* \"#utility.yul\":1546:1570   */\n      tag_97\n      jump\t// in\n    tag_100:\n        /* \"#utility.yul\":1541:1544   */\n      dup3\n        /* \"#utility.yul\":1534:1571   */\n      mstore\n        /* \"#utility.yul\":1524:1577   */\n      pop\n      pop\n      jump\t// out\n        /* \"#utility.yul\":1583:1902   */\n    tag_20:\n      0x00\n        /* \"#utility.yul\":1762:1765   */\n      0x01e0\n        /* \"#utility.yul\":1751:1760   */\n      dup3\n        /* \"#utility.yul\":1747:1766   */\n      add\n        /* \"#utility.yul\":1739:1766   */\n      swap1\n      pop\n        /* \"#utility.yul\":1776:1895   */\n      tag_102\n        /* \"#utility.yul\":1892:1893   */\n      0x00\n        /* \"#utility.yul\":1881:1890   */\n      dup4\n        /* \"#utility.yul\":1877:1894   */\n      add\n        /* \"#utility.yul\":1868:1874   */\n      dup5\n        /* \"#utility.yul\":1776:1895   */\n      tag_81\n      jump\t// in\n    tag_102:\n        /* \"#utility.yul\":1729:1902   */\n      swap3\n      swap2\n      pop\n      pop\n      jump\t// out\n        /* \"#utility.yul\":1908:2130   */\n    tag_16:\n      0x00\n        /* \"#utility.yul\":2039:2041   */\n      0x20\n        /* \"#utility.yul\":2028:2037   */\n      dup3\n        /* \"#utility.yul\":2024:2042   */\n      add\n        /* \"#utility.yul\":2016:2042   */\n      swap1\n      pop\n        /* \"#utility.yul\":2052:2123   */\n      tag_104\n        /* \"#utility.yul\":2120:2121   */\n      0x00\n        /* \"#utility.yul\":2109:2118   */\n      dup4\n        /* \"#utility.yul\":2105:2122   */\n      add\n        /* \"#utility.yul\":2096:2102   */\n      dup5\n        /* \"#utility.yul\":2052:2123   */\n      tag_98\n      jump\t// in\n    tag_104:\n        /* \"#utility.yul\":2006:2130   */\n      swap3\n      swap2\n      pop\n      pop\n      jump\t// out\n        /* \"#utility.yul\":2136:2235   */\n    tag_88:\n      0x00\n        /* \"#utility.yul\":2225:2228   */\n      dup2\n        /* \"#utility.yul\":2217:2228   */\n      swap1\n      pop\n        /* \"#utility.yul\":2207:2235   */\n      swap2\n      swap1\n      pop\n      jump\t// out\n        /* \"#utility.yul\":2241:2346   */\n    tag_84:\n      0x00\n        /* \"#utility.yul\":2335:2339   */\n      0x0f\n        /* \"#utility.yul\":2325:2339   */\n      swap1\n      pop\n        /* \"#utility.yul\":2314:2346   */\n      swap2\n      swap1\n      pop\n      jump\t// out\n        /* \"#utility.yul\":2352:2464   */\n    tag_94:\n      0x00\n        /* \"#utility.yul\":2453:2457   */\n      0x20\n        /* \"#utility.yul\":2448:2451   */\n      dup3\n        /* \"#utility.yul\":2444:2458   */\n      add\n        /* \"#utility.yul\":2436:2458   */\n      swap1\n      pop\n        /* \"#utility.yul\":2426:2464   */\n      swap2\n      swap1\n      pop\n      jump\t// out\n        /* \"#utility.yul\":2470:2614   */\n    tag_86:\n      0x00\n        /* \"#utility.yul\":2605:2608   */\n      dup2\n        /* \"#utility.yul\":2590:2608   */\n      swap1\n      pop\n        /* \"#utility.yul\":2580:2614   */\n      swap3\n      swap2\n      pop\n      pop\n      jump\t// out\n        /* \"#utility.yul\":2620:2697   */\n    tag_97:\n      0x00\n        /* \"#utility.yul\":2686:2691   */\n      dup2\n        /* \"#utility.yul\":2675:2691   */\n      swap1\n      pop\n        /* \"#utility.yul\":2665:2697   */\n      swap2\n      swap1\n      pop\n      jump\t// out\n        /* \"#utility.yul\":2703:2936   */\n    tag_36:\n      0x00\n        /* \"#utility.yul\":2765:2789   */\n      tag_111\n        /* \"#utility.yul\":2783:2788   */\n      dup3\n        /* \"#utility.yul\":2765:2789   */\n      tag_97\n      jump\t// in\n    tag_111:\n        /* \"#utility.yul\":2756:2789   */\n      swap2\n      pop\n        /* \"#utility.yul\":2811:2877   */\n      0xffffffffffffffffffffffffffffffffffffffffffffffffffffffffffffffff\n        /* \"#utility.yul\":2804:2809   */\n      dup3\n        /* \"#utility.yul\":2801:2878   */\n      eq\n        /* \"#utility.yul\":2798:2800   */\n      iszero\n      tag_112\n      jumpi\n        /* \"#utility.yul\":2881:2899   */\n      tag_113\n      tag_114\n      jump\t// in\n    tag_113:\n        /* \"#utility.yul\":2798:2800   */\n    tag_112:\n        /* \"#utility.yul\":2928:2929   */\n      0x01\n        /* \"#utility.yul\":2921:2926   */\n      dup3\n        /* \"#utility.yul\":2917:2930   */\n      add\n        /* \"#utility.yul\":2910:2930   */\n      swap1\n      pop\n        /* \"#utility.yul\":2746:2936   */\n      swap2\n      swap1\n      pop\n      jump\t// out\n        /* \"#utility.yul\":2942:3122   */\n    tag_114:\n        /* \"#utility.yul\":2990:3067   */\n      0x4e487b7100000000000000000000000000000000000000000000000000000000\n        /* \"#utility.yul\":2987:2988   */\n      0x00\n        /* \"#utility.yul\":2980:3068   */\n      mstore\n        /* \"#utility.yul\":3087:3091   */\n      0x11\n        /* \"#utility.yul\":3084:3085   */\n      0x04\n        /* \"#utility.yul\":3077:3092   */\n      mstore\n        /* \"#utility.yul\":3111:3115   */\n      0x24\n        /* \"#utility.yul\":3108:3109   */\n      0x00\n        /* \"#utility.yul\":3101:3116   */\n      revert\n        /* \"#utility.yul\":3128:3250   */\n    tag_73:\n        /* \"#utility.yul\":3201:3225   */\n      tag_117\n        /* \"#utility.yul\":3219:3224   */\n      dup2\n        /* \"#utility.yul\":3201:3225   */\n      tag_97\n      jump\t// in\n    tag_117:\n        /* \"#utility.yul\":3194:3199   */\n      dup2\n        /* \"#utility.yul\":3191:3226   */\n      eq\n        /* \"#utility.yul\":3181:3183   */\n      tag_118\n      jumpi\n        /* \"#utility.yul\":3240:3241   */\n      0x00\n        /* \"#utility.yul\":3237:3238   */\n      dup1\n        /* \"#utility.yul\":3230:3242   */\n      revert\n        /* \"#utility.yul\":3181:3183   */\n    tag_118:\n        /* \"#utility.yul\":3171:3250   */\n      pop\n      jump\t// out\n\n    auxdata: 0xa2646970667358221220d2eb86eef109f7c376a4c5fe2556a5b7818570bcf972376a071fb03a72674ccd64736f6c63430008000033\n}\n",
				"bytecode": {
					"linkReferences": {},
					"object": "608060405234801561001057600080fd5b50610598806100206000396000f3fe608060405234801561001057600080fd5b50600436106100625760003560e01c80630cf8d6171461006757806362b44ce114610071578063a168614d146100a1578063a8d798ff146100bf578063c84c7205146100c9578063d9f0d049146100f9575b600080fd5b61006f610117565b005b61008b600480360381019061008691906103af565b610179565b6040516100989190610481565b60405180910390f35b6100a9610194565b6040516100b69190610465565b60405180910390f35b6100c76101de565b005b6100e360048036038101906100de91906103af565b6102b4565b6040516100f09190610481565b60405180910390f35b6101016102cf565b60405161010e9190610465565b60405180910390f35b60005b600f8110156101765780600f82600f811061015e577f4e487b7100000000000000000000000000000000000000000000000000000000600052603260045260246000fd5b0181905550808061016e906104d3565b91505061011a565b50565b600f81600f811061018957600080fd5b016000915090505481565b61019c61031a565b600f80806020026040519081016040528092919082600f80156101d4576020028201915b8154815260200190600101908083116101c0575b5050505050905090565b600080600f806020026040519081016040528092919082600f8015610218576020028201915b815481526020019060010190808311610204575b5050505050905060005b600f81101561029e5760098114156102395761028b565b600c8114156102475761029e565b808282600f8110610281577f4e487b7100000000000000000000000000000000000000000000000000000000600052603260045260246000fd5b6020020181815250505b8080610296906104d3565b915050610222565b5080600090600f6102b092919061033d565b5050565b600081600f81106102c457600080fd5b016000915090505481565b6102d761031a565b6000600f806020026040519081016040528092919082600f8015610310576020028201915b8154815260200190600101908083116102fc575b5050505050905090565b604051806101e00160405280600f90602082028036833780820191505090505090565b82600f810192821561036c579160200282015b8281111561036b578251825591602001919060010190610350565b5b509050610379919061037d565b5090565b5b8082111561039657600081600090555060010161037e565b5090565b6000813590506103a98161054b565b92915050565b6000602082840312156103c157600080fd5b60006103cf8482850161039a565b91505092915050565b60006103e48383610447565b60208301905092915050565b6103f9816104a6565b61040381846104be565b925061040e8261049c565b8060005b8381101561043f57815161042687826103d8565b9650610431836104b1565b925050600181019050610412565b505050505050565b610450816104c9565b82525050565b61045f816104c9565b82525050565b60006101e08201905061047b60008301846103f0565b92915050565b60006020820190506104966000830184610456565b92915050565b6000819050919050565b6000600f9050919050565b6000602082019050919050565b600081905092915050565b6000819050919050565b60006104de826104c9565b91507fffffffffffffffffffffffffffffffffffffffffffffffffffffffffffffffff8214156105115761051061051c565b5b600182019050919050565b7f4e487b7100000000000000000000000000000000000000000000000000000000600052601160045260246000fd5b610554816104c9565b811461055f57600080fd5b5056fea2646970667358221220d2eb86eef109f7c376a4c5fe2556a5b7818570bcf972376a071fb03a72674ccd64736f6c63430008000033",
					"opcodes": "PUSH1 0x80 PUSH1 0x40 MSTORE CALLVALUE DUP1 ISZERO PUSH2 0x10 JUMPI PUSH1 0x0 DUP1 REVERT JUMPDEST POP PUSH2 0x598 DUP1 PUSH2 0x20 PUSH1 0x0 CODECOPY PUSH1 0x0 RETURN INVALID PUSH1 0x80 PUSH1 0x40 MSTORE CALLVALUE DUP1 ISZERO PUSH2 0x10 JUMPI PUSH1 0x0 DUP1 REVERT JUMPDEST POP PUSH1 0x4 CALLDATASIZE LT PUSH2 0x62 JUMPI PUSH1 0x0 CALLDATALOAD PUSH1 0xE0 SHR DUP1 PUSH4 0xCF8D617 EQ PUSH2 0x67 JUMPI DUP1 PUSH4 0x62B44CE1 EQ PUSH2 0x71 JUMPI DUP1 PUSH4 0xA168614D EQ PUSH2 0xA1 JUMPI DUP1 PUSH4 0xA8D798FF EQ PUSH2 0xBF JUMPI DUP1 PUSH4 0xC84C7205 EQ PUSH2 0xC9 JUMPI DUP1 PUSH4 0xD9F0D049 EQ PUSH2 0xF9 JUMPI JUMPDEST PUSH1 0x0 DUP1 REVERT JUMPDEST PUSH2 0x6F PUSH2 0x117 JUMP JUMPDEST STOP JUMPDEST PUSH2 0x8B PUSH1 0x4 DUP1 CALLDATASIZE SUB DUP2 ADD SWAP1 PUSH2 0x86 SWAP2 SWAP1 PUSH2 0x3AF JUMP JUMPDEST PUSH2 0x179 JUMP JUMPDEST PUSH1 0x40 MLOAD PUSH2 0x98 SWAP2 SWAP1 PUSH2 0x481 JUMP JUMPDEST PUSH1 0x40 MLOAD DUP1 SWAP2 SUB SWAP1 RETURN JUMPDEST PUSH2 0xA9 PUSH2 0x194 JUMP JUMPDEST PUSH1 0x40 MLOAD PUSH2 0xB6 SWAP2 SWAP1 PUSH2 0x465 JUMP JUMPDEST PUSH1 0x40 MLOAD DUP1 SWAP2 SUB SWAP1 RETURN JUMPDEST PUSH2 0xC7 PUSH2 0x1DE JUMP JUMPDEST STOP JUMPDEST PUSH2 0xE3 PUSH1 0x4 DUP1 CALLDATASIZE SUB DUP2 ADD SWAP1 PUSH2 0xDE SWAP2 SWAP1 PUSH2 0x3AF JUMP JUMPDEST PUSH2 0x2B4 JUMP JUMPDEST PUSH1 0x40 MLOAD PUSH2 0xF0 SWAP2 SWAP1 PUSH2 0x481 JUMP JUMPDEST PUSH1 0x40 MLOAD DUP1 SWAP2 SUB SWAP1 RETURN JUMPDEST PUSH2 0x101 PUSH2 0x2CF JUMP JUMPDEST PUSH1 0x40 MLOAD PUSH2 0x10E SWAP2 SWAP1 PUSH2 0x465 JUMP JUMPDEST PUSH1 0x40 MLOAD DUP1 SWAP2 SUB SWAP1 RETURN JUMPDEST PUSH1 0x0 JUMPDEST PUSH1 0xF DUP2 LT ISZERO PUSH2 0x176 JUMPI DUP1 PUSH1 0xF DUP3 PUSH1 0xF DUP2 LT PUSH2 0x15E JUMPI PUSH32 0x4E487B7100000000000000000000000000000000000000000000000000000000 PUSH1 0x0 MSTORE PUSH1 0x32 PUSH1 0x4 MSTORE PUSH1 0x24 PUSH1 0x0 REVERT JUMPDEST ADD DUP2 SWAP1 SSTORE POP DUP1 DUP1 PUSH2 0x16E SWAP1 PUSH2 0x4D3 JUMP JUMPDEST SWAP2 POP POP PUSH2 0x11A JUMP JUMPDEST POP JUMP JUMPDEST PUSH1 0xF DUP2 PUSH1 0xF DUP2 LT PUSH2 0x189 JUMPI PUSH1 0x0 DUP1 REVERT JUMPDEST ADD PUSH1 0x0 SWAP2 POP SWAP1 POP SLOAD DUP2 JUMP JUMPDEST PUSH2 0x19C PUSH2 0x31A JUMP JUMPDEST PUSH1 0xF DUP1 DUP1 PUSH1 0x20 MUL PUSH1 0x40 MLOAD SWAP1 DUP2 ADD PUSH1 0x40 MSTORE DUP1 SWAP3 SWAP2 SWAP1 DUP3 PUSH1 0xF DUP1 ISZERO PUSH2 0x1D4 JUMPI PUSH1 0x20 MUL DUP3 ADD SWAP2 JUMPDEST DUP2 SLOAD DUP2 MSTORE PUSH1 0x20 ADD SWAP1 PUSH1 0x1 ADD SWAP1 DUP1 DUP4 GT PUSH2 0x1C0 JUMPI JUMPDEST POP POP POP POP POP SWAP1 POP SWAP1 JUMP JUMPDEST PUSH1 0x0 DUP1 PUSH1 0xF DUP1 PUSH1 0x20 MUL PUSH1 0x40 MLOAD SWAP1 DUP2 ADD PUSH1 0x40 MSTORE DUP1 SWAP3 SWAP2 SWAP1 DUP3 PUSH1 0xF DUP1 ISZERO PUSH2 0x218 JUMPI PUSH1 0x20 MUL DUP3 ADD SWAP2 JUMPDEST DUP2 SLOAD DUP2 MSTORE PUSH1 0x20 ADD SWAP1 PUSH1 0x1 ADD SWAP1 DUP1 DUP4 GT PUSH2 0x204 JUMPI JUMPDEST POP POP POP POP POP SWAP1 POP PUSH1 0x0 JUMPDEST PUSH1 0xF DUP2 LT ISZERO PUSH2 0x29E JUMPI PUSH1 0x9 DUP2 EQ ISZERO PUSH2 0x239 JUMPI PUSH2 0x28B JUMP JUMPDEST PUSH1 0xC DUP2 EQ ISZERO PUSH2 0x247 JUMPI PUSH2 0x29E JUMP JUMPDEST DUP1 DUP3 DUP3 PUSH1 0xF DUP2 LT PUSH2 0x281 JUMPI PUSH32 0x4E487B7100000000000000000000000000000000000000000000000000000000 PUSH1 0x0 MSTORE PUSH1 0x32 PUSH1 0x4 MSTORE PUSH1 0x24 PUSH1 0x0 REVERT JUMPDEST PUSH1 0x20 MUL ADD DUP2 DUP2 MSTORE POP POP JUMPDEST DUP1 DUP1 PUSH2 0x296 SWAP1 PUSH2 0x4D3 JUMP JUMPDEST SWAP2 POP POP PUSH2 0x222 JUMP JUMPDEST POP DUP1 PUSH1 0x0 SWAP1 PUSH1 0xF PUSH2 0x2B0 SWAP3 SWAP2 SWAP1 PUSH2 0x33D JUMP JUMPDEST POP POP JUMP JUMPDEST PUSH1 0x0 DUP2 PUSH1 0xF DUP2 LT PUSH2 0x2C4 JUMPI PUSH1 0x0 DUP1 REVERT JUMPDEST ADD PUSH1 0x0 SWAP2 POP SWAP1 POP SLOAD DUP2 JUMP JUMPDEST PUSH2 0x2D7 PUSH2 0x31A JUMP JUMPDEST PUSH1 0x0 PUSH1 0xF DUP1 PUSH1 0x20 MUL PUSH1 0x40 MLOAD SWAP1 DUP2 ADD PUSH1 0x40 MSTORE DUP1 SWAP3 SWAP2 SWAP1 DUP3 PUSH1 0xF DUP1 ISZERO PUSH2 0x310 JUMPI PUSH1 0x20 MUL DUP3 ADD SWAP2 JUMPDEST DUP2 SLOAD DUP2 MSTORE PUSH1 0x20 ADD SWAP1 PUSH1 0x1 ADD SWAP1 DUP1 DUP4 GT PUSH2 0x2FC JUMPI JUMPDEST POP POP POP POP POP SWAP1 POP SWAP1 JUMP JUMPDEST PUSH1 0x40 MLOAD DUP1 PUSH2 0x1E0 ADD PUSH1 0x40 MSTORE DUP1 PUSH1 0xF SWAP1 PUSH1 0x20 DUP3 MUL DUP1 CALLDATASIZE DUP4 CALLDATACOPY DUP1 DUP3 ADD SWAP2 POP POP SWAP1 POP POP SWAP1 JUMP JUMPDEST DUP3 PUSH1 0xF DUP2 ADD SWAP3 DUP3 ISZERO PUSH2 0x36C JUMPI SWAP2 PUSH1 0x20 MUL DUP3 ADD JUMPDEST DUP3 DUP2 GT ISZERO PUSH2 0x36B JUMPI DUP3 MLOAD DUP3 SSTORE SWAP2 PUSH1 0x20 ADD SWAP2 SWAP1 PUSH1 0x1 ADD SWAP1 PUSH2 0x350 JUMP JUMPDEST JUMPDEST POP SWAP1 POP PUSH2 0x379 SWAP2 SWAP1 PUSH2 0x37D JUMP JUMPDEST POP SWAP1 JUMP JUMPDEST JUMPDEST DUP1 DUP3 GT ISZERO PUSH2 0x396 JUMPI PUSH1 0x0 DUP2 PUSH1 0x0 SWAP1 SSTORE POP PUSH1 0x1 ADD PUSH2 0x37E JUMP JUMPDEST POP SWAP1 JUMP JUMPDEST PUSH1 0x0 DUP2 CALLDATALOAD SWAP1 POP PUSH2 0x3A9 DUP2 PUSH2 0x54B JUMP JUMPDEST SWAP3 SWAP2 POP POP JUMP JUMPDEST PUSH1 0x0 PUSH1 0x20 DUP3 DUP5 SUB SLT ISZERO PUSH2 0x3C1 JUMPI PUSH1 0x0 DUP1 REVERT JUMPDEST PUSH1 0x0 PUSH2 0x3CF DUP5 DUP3 DUP6 ADD PUSH2 0x39A JUMP JUMPDEST SWAP2 POP POP SWAP3 SWAP2 POP POP JUMP JUMPDEST PUSH1 0x0 PUSH2 0x3E4 DUP4 DUP4 PUSH2 0x447 JUMP JUMPDEST PUSH1 0x20 DUP4 ADD SWAP1 POP SWAP3 SWAP2 POP POP JUMP JUMPDEST PUSH2 0x3F9 DUP2 PUSH2 0x4A6 JUMP JUMPDEST PUSH2 0x403 DUP2 DUP5 PUSH2 0x4BE JUMP JUMPDEST SWAP3 POP PUSH2 0x40E DUP3 PUSH2 0x49C JUMP JUMPDEST DUP1 PUSH1 0x0 JUMPDEST DUP4 DUP2 LT ISZERO PUSH2 0x43F JUMPI DUP2 MLOAD PUSH2 0x426 DUP8 DUP3 PUSH2 0x3D8 JUMP JUMPDEST SWAP7 POP PUSH2 0x431 DUP4 PUSH2 0x4B1 JUMP JUMPDEST SWAP3 POP POP PUSH1 0x1 DUP2 ADD SWAP1 POP PUSH2 0x412 JUMP JUMPDEST POP POP POP POP POP POP JUMP JUMPDEST PUSH2 0x450 DUP2 PUSH2 0x4C9 JUMP JUMPDEST DUP3 MSTORE POP POP JUMP JUMPDEST PUSH2 0x45F DUP2 PUSH2 0x4C9 JUMP JUMPDEST DUP3 MSTORE POP POP JUMP JUMPDEST PUSH1 0x0 PUSH2 0x1E0 DUP3 ADD SWAP1 POP PUSH2 0x47B PUSH1 0x0 DUP4 ADD DUP5 PUSH2 0x3F0 JUMP JUMPDEST SWAP3 SWAP2 POP POP JUMP JUMPDEST PUSH1 0x0 PUSH1 0x20 DUP3 ADD SWAP1 POP PUSH2 0x496 PUSH1 0x0 DUP4 ADD DUP5 PUSH2 0x456 JUMP JUMPDEST SWAP3 SWAP2 POP POP JUMP JUMPDEST PUSH1 0x0 DUP2 SWAP1 POP SWAP2 SWAP1 POP JUMP JUMPDEST PUSH1 0x0 PUSH1 0xF SWAP1 POP SWAP2 SWAP1 POP JUMP JUMPDEST PUSH1 0x0 PUSH1 0x20 DUP3 ADD SWAP1 POP SWAP2 SWAP1 POP JUMP JUMPDEST PUSH1 0x0 DUP2 SWAP1 POP SWAP3 SWAP2 POP POP JUMP JUMPDEST PUSH1 0x0 DUP2 SWAP1 POP SWAP2 SWAP1 POP JUMP JUMPDEST PUSH1 0x0 PUSH2 0x4DE DUP3 PUSH2 0x4C9 JUMP JUMPDEST SWAP2 POP PUSH32 0xFFFFFFFFFFFFFFFFFFFFFFFFFFFFFFFFFFFFFFFFFFFFFFFFFFFFFFFFFFFFFFFF DUP3 EQ ISZERO PUSH2 0x511 JUMPI PUSH2 0x510 PUSH2 0x51C JUMP JUMPDEST JUMPDEST PUSH1 0x1 DUP3 ADD SWAP1 POP SWAP2 SWAP1 POP JUMP JUMPDEST PUSH32 0x4E487B7100000000000000000000000000000000000000000000000000000000 PUSH1 0x0 MSTORE PUSH1 0x11 PUSH1 0x4 MSTORE PUSH1 0x24 PUSH1 0x0 REVERT JUMPDEST PUSH2 0x554 DUP2 PUSH2 0x4C9 JUMP JUMPDEST DUP2 EQ PUSH2 0x55F JUMPI PUSH1 0x0 DUP1 REVERT JUMPDEST POP JUMP INVALID LOG2 PUSH5 0x6970667358 0x22 SLT KECCAK256 0xD2 0xEB DUP7 0xEE CALL MULMOD 0xF7 0xC3 PUSH23 0xA4C5FE2556A5B7818570BCF972376A071FB03A72674CCD PUSH5 0x736F6C6343 STOP ADDMOD STOP STOP CALLER "
				},
				"gasEstimates": {
					"creation": {
						"codeDepositCost": "286400",
						"executionCost": "324",
						"totalCost": "286724"
					},
					"external": {
						"getArr0()": "infinite",
						"getArr1()": "infinite",
						"listByFor()": "infinite",
						"listByWhile()": "infinite",
						"numbers0(uint256)": "infinite",
						"numbers1(uint256)": "infinite"
					}
				},
				"methodIdentifiers": {
					"getArr0()": "d9f0d049",
					"getArr1()": "a168614d",
					"listByFor()": "a8d798ff",
					"listByWhile()": "0cf8d617",
					"numbers0(uint256)": "c84c7205",
					"numbers1(uint256)": "62b44ce1"
				}
			},
			"storageLayout": {
				"storage": [
					{
						"astId": 5,
						"contract": "contracts/Loops.sol:Loops",
						"label": "numbers0",
						"offset": 0,
						"slot": "0",
						"type": "t_array(t_uint256)15_storage"
					},
					{
						"astId": 9,
						"contract": "contracts/Loops.sol:Loops",
						"label": "numbers1",
						"offset": 0,
						"slot": "15",
						"type": "t_array(t_uint256)15_storage"
					}
				],
				"types": {
					"t_array(t_uint256)15_storage": {
						"base": "t_uint256",
						"encoding": "inplace",
						"label": "uint256[15]",
						"numberOfBytes": "480"
					},
					"t_uint256": {
						"encoding": "inplace",
						"label": "uint256",
						"numberOfBytes": "32"
					}
				}
			},
			"userdoc": {
				"kind": "user",
				"methods": {},
				"version": 1
			}
		}
	}
}