{
	"contracts/If_Else.sol": {
		"IfElse": {
			"abi": [
				{
					"inputs": [
						{
							"internalType": "string",
							"name": "_password",
							"type": "string"
						}
					],
					"stateMutability": "nonpayable",
					"type": "constructor"
				},
				{
					"inputs": [
						{
							"internalType": "string",
							"name": "_password",
							"type": "string"
						}
					],
					"name": "login",
					"outputs": [
						{
							"internalType": "bool",
							"name": "",
							"type": "bool"
						}
					],
					"stateMutability": "nonpayable",
					"type": "function"
				},
				{
					"inputs": [],
					"name": "loginStatus",
					"outputs": [
						{
							"internalType": "uint256",
							"name": "",
							"type": "uint256"
						}
					],
					"stateMutability": "view",
					"type": "function"
				},
				{
					"inputs": [
						{
							"internalType": "string",
							"name": "_password",
							"type": "string"
						}
					],
					"name": "loginlogin",
					"outputs": [
						{
							"internalType": "bool",
							"name": "",
							"type": "bool"
						}
					],
					"stateMutability": "view",
					"type": "function"
				}
			],
			"devdoc": {
				"kind": "dev",
				"methods": {},
				"version": 1
			},
			"evm": {
				"assembly": "    /* \"contracts/If_Else.sol\":66:1151  contract IfElse {\r... */\n  mstore(0x40, 0x80)\n    /* \"contracts/If_Else.sol\":171:275  constructor(string memory _password){\r... */\n  callvalue\n  dup1\n  iszero\n  tag_1\n  jumpi\n  0x00\n  dup1\n  revert\ntag_1:\n  pop\n  mload(0x40)\n  sub(codesize, bytecodeSize)\n  dup1\n  bytecodeSize\n  dup4\n  codecopy\n  dup2\n  dup2\n  add\n  0x40\n  mstore\n  dup2\n  add\n  swap1\n  tag_2\n  swap2\n  swap1\n  tag_3\n  jump\t// in\ntag_2:\n    /* \"contracts/If_Else.sol\":256:265  _password */\n  dup1\n    /* \"contracts/If_Else.sol\":245:266  abi.encode(_password) */\n  add(0x20, mload(0x40))\n  tag_6\n  swap2\n  swap1\n  tag_7\n  jump\t// in\ntag_6:\n  mload(0x40)\n  0x20\n  dup2\n  dup4\n  sub\n  sub\n  dup2\n  mstore\n  swap1\n  0x40\n  mstore\n    /* \"contracts/If_Else.sol\":235:267  keccak256(abi.encode(_password)) */\n  dup1\n  mload\n  swap1\n  0x20\n  add\n  keccak256\n    /* \"contracts/If_Else.sol\":218:232  hashedPassword */\n  0x00\n    /* \"contracts/If_Else.sol\":218:267  hashedPassword = keccak256(abi.encode(_password)) */\n  dup2\n  swap1\n  sstore\n  pop\n    /* \"contracts/If_Else.sol\":171:275  constructor(string memory _password){\r... */\n  pop\n    /* \"contracts/If_Else.sol\":66:1151  contract IfElse {\r... */\n  jump(tag_8)\n    /* \"#utility.yul\":7:360   */\ntag_10:\n  0x00\n    /* \"#utility.yul\":121:186   */\n  tag_12\n    /* \"#utility.yul\":136:185   */\n  tag_13\n    /* \"#utility.yul\":178:184   */\n  dup5\n    /* \"#utility.yul\":136:185   */\n  tag_14\n  jump\t// in\ntag_13:\n    /* \"#utility.yul\":121:186   */\n  tag_15\n  jump\t// in\ntag_12:\n    /* \"#utility.yul\":112:186   */\n  swap1\n  pop\n    /* \"#utility.yul\":209:215   */\n  dup3\n    /* \"#utility.yul\":202:207   */\n  dup2\n    /* \"#utility.yul\":195:216   */\n  mstore\n    /* \"#utility.yul\":247:251   */\n  0x20\n    /* \"#utility.yul\":240:245   */\n  dup2\n    /* \"#utility.yul\":236:252   */\n  add\n    /* \"#utility.yul\":285:288   */\n  dup5\n    /* \"#utility.yul\":276:282   */\n  dup5\n    /* \"#utility.yul\":271:274   */\n  dup5\n    /* \"#utility.yul\":267:283   */\n  add\n    /* \"#utility.yul\":264:289   */\n  gt\n    /* \"#utility.yul\":261:263   */\n  iszero\n  tag_16\n  jumpi\n    /* \"#utility.yul\":302:303   */\n  0x00\n    /* \"#utility.yul\":299:300   */\n  dup1\n    /* \"#utility.yul\":292:304   */\n  revert\n    /* \"#utility.yul\":261:263   */\ntag_16:\n    /* \"#utility.yul\":315:354   */\n  tag_17\n    /* \"#utility.yul\":347:353   */\n  dup5\n    /* \"#utility.yul\":342:345   */\n  dup3\n    /* \"#utility.yul\":337:340   */\n  dup6\n    /* \"#utility.yul\":315:354   */\n  tag_18\n  jump\t// in\ntag_17:\n    /* \"#utility.yul\":102:360   */\n  pop\n  swap4\n  swap3\n  pop\n  pop\n  pop\n  jump\t// out\n    /* \"#utility.yul\":380:668   */\ntag_19:\n  0x00\n    /* \"#utility.yul\":496:499   */\n  dup3\n    /* \"#utility.yul\":489:493   */\n  0x1f\n    /* \"#utility.yul\":481:487   */\n  dup4\n    /* \"#utility.yul\":477:494   */\n  add\n    /* \"#utility.yul\":473:500   */\n  slt\n    /* \"#utility.yul\":463:465   */\n  tag_21\n  jumpi\n    /* \"#utility.yul\":514:515   */\n  0x00\n    /* \"#utility.yul\":511:512   */\n  dup1\n    /* \"#utility.yul\":504:516   */\n  revert\n    /* \"#utility.yul\":463:465   */\ntag_21:\n    /* \"#utility.yul\":547:553   */\n  dup2\n    /* \"#utility.yul\":541:554   */\n  mload\n    /* \"#utility.yul\":572:662   */\n  tag_22\n    /* \"#utility.yul\":658:661   */\n  dup5\n    /* \"#utility.yul\":650:656   */\n  dup3\n    /* \"#utility.yul\":643:647   */\n  0x20\n    /* \"#utility.yul\":635:641   */\n  dup7\n    /* \"#utility.yul\":631:648   */\n  add\n    /* \"#utility.yul\":572:662   */\n  tag_10\n  jump\t// in\ntag_22:\n    /* \"#utility.yul\":563:662   */\n  swap2\n  pop\n    /* \"#utility.yul\":453:668   */\n  pop\n  swap3\n  swap2\n  pop\n  pop\n  jump\t// out\n    /* \"#utility.yul\":674:1064   */\ntag_3:\n  0x00\n    /* \"#utility.yul\":803:805   */\n  0x20\n    /* \"#utility.yul\":791:800   */\n  dup3\n    /* \"#utility.yul\":782:789   */\n  dup5\n    /* \"#utility.yul\":778:801   */\n  sub\n    /* \"#utility.yul\":774:806   */\n  slt\n    /* \"#utility.yul\":771:773   */\n  iszero\n  tag_24\n  jumpi\n    /* \"#utility.yul\":819:820   */\n  0x00\n    /* \"#utility.yul\":816:817   */\n  dup1\n    /* \"#utility.yul\":809:821   */\n  revert\n    /* \"#utility.yul\":771:773   */\ntag_24:\n    /* \"#utility.yul\":883:884   */\n  0x00\n    /* \"#utility.yul\":872:881   */\n  dup3\n    /* \"#utility.yul\":868:885   */\n  add\n    /* \"#utility.yul\":862:886   */\n  mload\n    /* \"#utility.yul\":913:931   */\n  0xffffffffffffffff\n    /* \"#utility.yul\":905:911   */\n  dup2\n    /* \"#utility.yul\":902:932   */\n  gt\n    /* \"#utility.yul\":899:901   */\n  iszero\n  tag_25\n  jumpi\n    /* \"#utility.yul\":945:946   */\n  0x00\n    /* \"#utility.yul\":942:943   */\n  dup1\n    /* \"#utility.yul\":935:947   */\n  revert\n    /* \"#utility.yul\":899:901   */\ntag_25:\n    /* \"#utility.yul\":973:1047   */\n  tag_26\n    /* \"#utility.yul\":1039:1046   */\n  dup5\n    /* \"#utility.yul\":1030:1036   */\n  dup3\n    /* \"#utility.yul\":1019:1028   */\n  dup6\n    /* \"#utility.yul\":1015:1037   */\n  add\n    /* \"#utility.yul\":973:1047   */\n  tag_19\n  jump\t// in\ntag_26:\n    /* \"#utility.yul\":963:1047   */\n  swap2\n  pop\n    /* \"#utility.yul\":833:1057   */\n  pop\n    /* \"#utility.yul\":761:1064   */\n  swap3\n  swap2\n  pop\n  pop\n  jump\t// out\n    /* \"#utility.yul\":1070:1434   */\ntag_27:\n  0x00\n    /* \"#utility.yul\":1186:1225   */\n  tag_29\n    /* \"#utility.yul\":1219:1224   */\n  dup3\n    /* \"#utility.yul\":1186:1225   */\n  tag_30\n  jump\t// in\ntag_29:\n    /* \"#utility.yul\":1241:1312   */\n  tag_31\n    /* \"#utility.yul\":1305:1311   */\n  dup2\n    /* \"#utility.yul\":1300:1303   */\n  dup6\n    /* \"#utility.yul\":1241:1312   */\n  tag_32\n  jump\t// in\ntag_31:\n    /* \"#utility.yul\":1234:1312   */\n  swap4\n  pop\n    /* \"#utility.yul\":1321:1373   */\n  tag_33\n    /* \"#utility.yul\":1366:1372   */\n  dup2\n    /* \"#utility.yul\":1361:1364   */\n  dup6\n    /* \"#utility.yul\":1354:1358   */\n  0x20\n    /* \"#utility.yul\":1347:1352   */\n  dup7\n    /* \"#utility.yul\":1343:1359   */\n  add\n    /* \"#utility.yul\":1321:1373   */\n  tag_18\n  jump\t// in\ntag_33:\n    /* \"#utility.yul\":1398:1427   */\n  tag_34\n    /* \"#utility.yul\":1420:1426   */\n  dup2\n    /* \"#utility.yul\":1398:1427   */\n  tag_35\n  jump\t// in\ntag_34:\n    /* \"#utility.yul\":1393:1396   */\n  dup5\n    /* \"#utility.yul\":1389:1428   */\n  add\n    /* \"#utility.yul\":1382:1428   */\n  swap2\n  pop\n    /* \"#utility.yul\":1162:1434   */\n  pop\n  swap3\n  swap2\n  pop\n  pop\n  jump\t// out\n    /* \"#utility.yul\":1440:1753   */\ntag_7:\n  0x00\n    /* \"#utility.yul\":1591:1593   */\n  0x20\n    /* \"#utility.yul\":1580:1589   */\n  dup3\n    /* \"#utility.yul\":1576:1594   */\n  add\n    /* \"#utility.yul\":1568:1594   */\n  swap1\n  pop\n    /* \"#utility.yul\":1640:1649   */\n  dup2\n    /* \"#utility.yul\":1634:1638   */\n  dup2\n    /* \"#utility.yul\":1630:1650   */\n  sub\n    /* \"#utility.yul\":1626:1627   */\n  0x00\n    /* \"#utility.yul\":1615:1624   */\n  dup4\n    /* \"#utility.yul\":1611:1628   */\n  add\n    /* \"#utility.yul\":1604:1651   */\n  mstore\n    /* \"#utility.yul\":1668:1746   */\n  tag_37\n    /* \"#utility.yul\":1741:1745   */\n  dup2\n    /* \"#utility.yul\":1732:1738   */\n  dup5\n    /* \"#utility.yul\":1668:1746   */\n  tag_27\n  jump\t// in\ntag_37:\n    /* \"#utility.yul\":1660:1746   */\n  swap1\n  pop\n    /* \"#utility.yul\":1558:1753   */\n  swap3\n  swap2\n  pop\n  pop\n  jump\t// out\n    /* \"#utility.yul\":1759:2042   */\ntag_15:\n  0x00\n    /* \"#utility.yul\":1825:1827   */\n  0x40\n    /* \"#utility.yul\":1819:1828   */\n  mload\n    /* \"#utility.yul\":1809:1828   */\n  swap1\n  pop\n    /* \"#utility.yul\":1867:1871   */\n  dup2\n    /* \"#utility.yul\":1859:1865   */\n  dup2\n    /* \"#utility.yul\":1855:1872   */\n  add\n    /* \"#utility.yul\":1974:1980   */\n  dup2\n    /* \"#utility.yul\":1962:1972   */\n  dup2\n    /* \"#utility.yul\":1959:1981   */\n  lt\n    /* \"#utility.yul\":1938:1956   */\n  0xffffffffffffffff\n    /* \"#utility.yul\":1926:1936   */\n  dup3\n    /* \"#utility.yul\":1923:1957   */\n  gt\n    /* \"#utility.yul\":1920:1982   */\n  or\n    /* \"#utility.yul\":1917:1919   */\n  iszero\n  tag_39\n  jumpi\n    /* \"#utility.yul\":1985:2003   */\n  tag_40\n  tag_41\n  jump\t// in\ntag_40:\n    /* \"#utility.yul\":1917:1919   */\ntag_39:\n    /* \"#utility.yul\":2025:2035   */\n  dup1\n    /* \"#utility.yul\":2021:2023   */\n  0x40\n    /* \"#utility.yul\":2014:2036   */\n  mstore\n    /* \"#utility.yul\":1799:2042   */\n  pop\n  swap2\n  swap1\n  pop\n  jump\t// out\n    /* \"#utility.yul\":2048:2380   */\ntag_14:\n  0x00\n    /* \"#utility.yul\":2200:2218   */\n  0xffffffffffffffff\n    /* \"#utility.yul\":2192:2198   */\n  dup3\n    /* \"#utility.yul\":2189:2219   */\n  gt\n    /* \"#utility.yul\":2186:2188   */\n  iszero\n  tag_43\n  jumpi\n    /* \"#utility.yul\":2222:2240   */\n  tag_44\n  tag_41\n  jump\t// in\ntag_44:\n    /* \"#utility.yul\":2186:2188   */\ntag_43:\n    /* \"#utility.yul\":2307:2311   */\n  0x1f\n    /* \"#utility.yul\":2303:2312   */\n  not\n    /* \"#utility.yul\":2296:2300   */\n  0x1f\n    /* \"#utility.yul\":2288:2294   */\n  dup4\n    /* \"#utility.yul\":2284:2301   */\n  add\n    /* \"#utility.yul\":2280:2313   */\n  and\n    /* \"#utility.yul\":2272:2313   */\n  swap1\n  pop\n    /* \"#utility.yul\":2368:2372   */\n  0x20\n    /* \"#utility.yul\":2362:2366   */\n  dup2\n    /* \"#utility.yul\":2358:2373   */\n  add\n    /* \"#utility.yul\":2350:2373   */\n  swap1\n  pop\n    /* \"#utility.yul\":2115:2380   */\n  swap2\n  swap1\n  pop\n  jump\t// out\n    /* \"#utility.yul\":2386:2485   */\ntag_30:\n  0x00\n    /* \"#utility.yul\":2472:2477   */\n  dup2\n    /* \"#utility.yul\":2466:2478   */\n  mload\n    /* \"#utility.yul\":2456:2478   */\n  swap1\n  pop\n    /* \"#utility.yul\":2445:2485   */\n  swap2\n  swap1\n  pop\n  jump\t// out\n    /* \"#utility.yul\":2491:2660   */\ntag_32:\n  0x00\n    /* \"#utility.yul\":2609:2615   */\n  dup3\n    /* \"#utility.yul\":2604:2607   */\n  dup3\n    /* \"#utility.yul\":2597:2616   */\n  mstore\n    /* \"#utility.yul\":2649:2653   */\n  0x20\n    /* \"#utility.yul\":2644:2647   */\n  dup3\n    /* \"#utility.yul\":2640:2654   */\n  add\n    /* \"#utility.yul\":2625:2654   */\n  swap1\n  pop\n    /* \"#utility.yul\":2587:2660   */\n  swap3\n  swap2\n  pop\n  pop\n  jump\t// out\n    /* \"#utility.yul\":2666:2973   */\ntag_18:\n    /* \"#utility.yul\":2734:2735   */\n  0x00\n    /* \"#utility.yul\":2744:2857   */\ntag_48:\n    /* \"#utility.yul\":2758:2764   */\n  dup4\n    /* \"#utility.yul\":2755:2756   */\n  dup2\n    /* \"#utility.yul\":2752:2765   */\n  lt\n    /* \"#utility.yul\":2744:2857   */\n  iszero\n  tag_50\n  jumpi\n    /* \"#utility.yul\":2843:2844   */\n  dup1\n    /* \"#utility.yul\":2838:2841   */\n  dup3\n    /* \"#utility.yul\":2834:2845   */\n  add\n    /* \"#utility.yul\":2828:2846   */\n  mload\n    /* \"#utility.yul\":2824:2825   */\n  dup2\n    /* \"#utility.yul\":2819:2822   */\n  dup5\n    /* \"#utility.yul\":2815:2826   */\n  add\n    /* \"#utility.yul\":2808:2847   */\n  mstore\n    /* \"#utility.yul\":2780:2782   */\n  0x20\n    /* \"#utility.yul\":2777:2778   */\n  dup2\n    /* \"#utility.yul\":2773:2783   */\n  add\n    /* \"#utility.yul\":2768:2783   */\n  swap1\n  pop\n    /* \"#utility.yul\":2744:2857   */\n  jump(tag_48)\ntag_50:\n    /* \"#utility.yul\":2875:2881   */\n  dup4\n    /* \"#utility.yul\":2872:2873   */\n  dup2\n    /* \"#utility.yul\":2869:2882   */\n  gt\n    /* \"#utility.yul\":2866:2868   */\n  iszero\n  tag_51\n  jumpi\n    /* \"#utility.yul\":2955:2956   */\n  0x00\n    /* \"#utility.yul\":2946:2952   */\n  dup5\n    /* \"#utility.yul\":2941:2944   */\n  dup5\n    /* \"#utility.yul\":2937:2953   */\n  add\n    /* \"#utility.yul\":2930:2957   */\n  mstore\n    /* \"#utility.yul\":2866:2868   */\ntag_51:\n    /* \"#utility.yul\":2715:2973   */\n  pop\n  pop\n  pop\n  pop\n  jump\t// out\n    /* \"#utility.yul\":2979:3159   */\ntag_41:\n    /* \"#utility.yul\":3027:3104   */\n  0x4e487b7100000000000000000000000000000000000000000000000000000000\n    /* \"#utility.yul\":3024:3025   */\n  0x00\n    /* \"#utility.yul\":3017:3105   */\n  mstore\n    /* \"#utility.yul\":3124:3128   */\n  0x41\n    /* \"#utility.yul\":3121:3122   */\n  0x04\n    /* \"#utility.yul\":3114:3129   */\n  mstore\n    /* \"#utility.yul\":3148:3152   */\n  0x24\n    /* \"#utility.yul\":3145:3146   */\n  0x00\n    /* \"#utility.yul\":3138:3153   */\n  revert\n    /* \"#utility.yul\":3165:3267   */\ntag_35:\n  0x00\n    /* \"#utility.yul\":3257:3259   */\n  0x1f\n    /* \"#utility.yul\":3253:3260   */\n  not\n    /* \"#utility.yul\":3248:3250   */\n  0x1f\n    /* \"#utility.yul\":3241:3246   */\n  dup4\n    /* \"#utility.yul\":3237:3251   */\n  add\n    /* \"#utility.yul\":3233:3261   */\n  and\n    /* \"#utility.yul\":3223:3261   */\n  swap1\n  pop\n    /* \"#utility.yul\":3213:3267   */\n  swap2\n  swap1\n  pop\n  jump\t// out\n    /* \"contracts/If_Else.sol\":66:1151  contract IfElse {\r... */\ntag_8:\n  dataSize(sub_0)\n  dup1\n  dataOffset(sub_0)\n  0x00\n  codecopy\n  0x00\n  return\nstop\n\nsub_0: assembly {\n        /* \"contracts/If_Else.sol\":66:1151  contract IfElse {\r... */\n      mstore(0x40, 0x80)\n      callvalue\n      dup1\n      iszero\n      tag_1\n      jumpi\n      0x00\n      dup1\n      revert\n    tag_1:\n      pop\n      jumpi(tag_2, lt(calldatasize, 0x04))\n      shr(0xe0, calldataload(0x00))\n      dup1\n      0x2f41fc65\n      eq\n      tag_3\n      jumpi\n      dup1\n      0x3a7d280c\n      eq\n      tag_4\n      jumpi\n      dup1\n      0xcccc188a\n      eq\n      tag_5\n      jumpi\n    tag_2:\n      0x00\n      dup1\n      revert\n        /* \"contracts/If_Else.sol\":738:1046  function loginStatus() public view returns (uint256) {\r... */\n    tag_3:\n      tag_6\n      tag_7\n      jump\t// in\n    tag_6:\n      mload(0x40)\n      tag_8\n      swap2\n      swap1\n      tag_9\n      jump\t// in\n    tag_8:\n      mload(0x40)\n      dup1\n      swap2\n      sub\n      swap1\n      return\n        /* \"contracts/If_Else.sol\":283:557  function login(string memory _password) public returns(bool){\r... */\n    tag_4:\n      tag_10\n      0x04\n      dup1\n      calldatasize\n      sub\n      dup2\n      add\n      swap1\n      tag_11\n      swap2\n      swap1\n      tag_12\n      jump\t// in\n    tag_11:\n      tag_13\n      jump\t// in\n    tag_10:\n      mload(0x40)\n      tag_14\n      swap2\n      swap1\n      tag_15\n      jump\t// in\n    tag_14:\n      mload(0x40)\n      dup1\n      swap2\n      sub\n      swap1\n      return\n        /* \"contracts/If_Else.sol\":565:730  function loginlogin(string memory _password) public view returns (bool) {\r... */\n    tag_5:\n      tag_16\n      0x04\n      dup1\n      calldatasize\n      sub\n      dup2\n      add\n      swap1\n      tag_17\n      swap2\n      swap1\n      tag_12\n      jump\t// in\n    tag_17:\n      tag_18\n      jump\t// in\n    tag_16:\n      mload(0x40)\n      tag_19\n      swap2\n      swap1\n      tag_15\n      jump\t// in\n    tag_19:\n      mload(0x40)\n      dup1\n      swap2\n      sub\n      swap1\n      return\n        /* \"contracts/If_Else.sol\":738:1046  function loginStatus() public view returns (uint256) {\r... */\n    tag_7:\n        /* \"contracts/If_Else.sol\":782:789  uint256 */\n      0x00\n        /* \"contracts/If_Else.sol\":820:821  0 */\n      dup1\n        /* \"contracts/If_Else.sol\":806:816  loginCount */\n      sload(0x01)\n        /* \"contracts/If_Else.sol\":806:821  loginCount == 0 */\n      eq\n        /* \"contracts/If_Else.sol\":802:1039  if (loginCount == 0) {\r... */\n      iszero\n      tag_21\n      jumpi\n        /* \"contracts/If_Else.sol\":845:846  0 */\n      0x00\n        /* \"contracts/If_Else.sol\":838:846  return 0 */\n      swap1\n      pop\n      jump(tag_20)\n        /* \"contracts/If_Else.sol\":802:1039  if (loginCount == 0) {\r... */\n    tag_21:\n        /* \"contracts/If_Else.sol\":880:881  0 */\n      0x00\n        /* \"contracts/If_Else.sol\":867:877  loginCount */\n      sload(0x01)\n        /* \"contracts/If_Else.sol\":867:881  loginCount > 0 */\n      gt\n        /* \"contracts/If_Else.sol\":867:900  loginCount > 0 && loginCount != 1 */\n      dup1\n      iszero\n      tag_23\n      jumpi\n      pop\n        /* \"contracts/If_Else.sol\":899:900  1 */\n      0x01\n        /* \"contracts/If_Else.sol\":885:895  loginCount */\n      dup1\n      sload\n        /* \"contracts/If_Else.sol\":885:900  loginCount != 1 */\n      eq\n      iszero\n        /* \"contracts/If_Else.sol\":867:900  loginCount > 0 && loginCount != 1 */\n    tag_23:\n        /* \"contracts/If_Else.sol\":864:1039  if(loginCount > 0 && loginCount != 1) {\r... */\n      iszero\n      tag_24\n      jumpi\n        /* \"contracts/If_Else.sol\":924:925  1 */\n      0x01\n        /* \"contracts/If_Else.sol\":917:925  return 1 */\n      swap1\n      pop\n      jump(tag_20)\n        /* \"contracts/If_Else.sol\":864:1039  if(loginCount > 0 && loginCount != 1) {\r... */\n    tag_24:\n        /* \"contracts/If_Else.sol\":960:961  1 */\n      0x01\n        /* \"contracts/If_Else.sol\":946:956  loginCount */\n      dup1\n      sload\n        /* \"contracts/If_Else.sol\":946:961  loginCount == 1 */\n      eq\n        /* \"contracts/If_Else.sol\":943:1039  if(loginCount == 1) {\r... */\n      iszero\n      tag_26\n      jumpi\n        /* \"contracts/If_Else.sol\":985:986  2 */\n      0x02\n        /* \"contracts/If_Else.sol\":978:986  return 2 */\n      swap1\n      pop\n      jump(tag_20)\n        /* \"contracts/If_Else.sol\":943:1039  if(loginCount == 1) {\r... */\n    tag_26:\n        /* \"contracts/If_Else.sol\":1026:1027  3 */\n      0x03\n        /* \"contracts/If_Else.sol\":1019:1027  return 3 */\n      swap1\n      pop\n        /* \"contracts/If_Else.sol\":738:1046  function loginStatus() public view returns (uint256) {\r... */\n    tag_20:\n      swap1\n      jump\t// out\n        /* \"contracts/If_Else.sol\":283:557  function login(string memory _password) public returns(bool){\r... */\n    tag_13:\n        /* \"contracts/If_Else.sol\":338:342  bool */\n      0x00\n        /* \"contracts/If_Else.sol\":396:405  _password */\n      dup2\n        /* \"contracts/If_Else.sol\":385:406  abi.encode(_password) */\n      add(0x20, mload(0x40))\n      tag_29\n      swap2\n      swap1\n      tag_30\n      jump\t// in\n    tag_29:\n      mload(0x40)\n      0x20\n      dup2\n      dup4\n      sub\n      sub\n      dup2\n      mstore\n      swap1\n      0x40\n      mstore\n        /* \"contracts/If_Else.sol\":375:407  keccak256(abi.encode(_password)) */\n      dup1\n      mload\n      swap1\n      0x20\n      add\n      keccak256\n        /* \"contracts/If_Else.sol\":357:371  hashedPassword */\n      sload(0x00)\n        /* \"contracts/If_Else.sol\":357:407  hashedPassword == keccak256(abi.encode(_password)) */\n      eq\n        /* \"contracts/If_Else.sol\":354:550  if(hashedPassword == keccak256(abi.encode(_password))){\r... */\n      iszero\n      tag_31\n      jumpi\n        /* \"contracts/If_Else.sol\":423:433  loginCount */\n      0x01\n      0x00\n        /* \"contracts/If_Else.sol\":423:435  loginCount++ */\n      dup2\n      sload\n      dup1\n      swap3\n      swap2\n      swap1\n      tag_32\n      swap1\n      tag_33\n      jump\t// in\n    tag_32:\n      swap2\n      swap1\n      pop\n      sstore\n      pop\n        /* \"contracts/If_Else.sol\":489:493  true */\n      0x01\n        /* \"contracts/If_Else.sol\":482:493  return true */\n      swap1\n      pop\n      jump(tag_28)\n        /* \"contracts/If_Else.sol\":354:550  if(hashedPassword == keccak256(abi.encode(_password))){\r... */\n    tag_31:\n        /* \"contracts/If_Else.sol\":533:538  false */\n      0x00\n        /* \"contracts/If_Else.sol\":526:538  return false */\n      swap1\n      pop\n        /* \"contracts/If_Else.sol\":283:557  function login(string memory _password) public returns(bool){\r... */\n    tag_28:\n      swap2\n      swap1\n      pop\n      jump\t// out\n        /* \"contracts/If_Else.sol\":565:730  function loginlogin(string memory _password) public view returns (bool) {\r... */\n    tag_18:\n        /* \"contracts/If_Else.sol\":631:635  bool */\n      0x00\n        /* \"contracts/If_Else.sol\":695:704  _password */\n      dup2\n        /* \"contracts/If_Else.sol\":684:705  abi.encode(_password) */\n      add(0x20, mload(0x40))\n      tag_36\n      swap2\n      swap1\n      tag_30\n      jump\t// in\n    tag_36:\n      mload(0x40)\n      0x20\n      dup2\n      dup4\n      sub\n      sub\n      dup2\n      mstore\n      swap1\n      0x40\n      mstore\n        /* \"contracts/If_Else.sol\":674:706  keccak256(abi.encode(_password)) */\n      dup1\n      mload\n      swap1\n      0x20\n      add\n      keccak256\n        /* \"contracts/If_Else.sol\":656:670  hashedPassword */\n      sload(0x00)\n        /* \"contracts/If_Else.sol\":656:706  hashedPassword == keccak256(abi.encode(_password)) */\n      eq\n        /* \"contracts/If_Else.sol\":655:722  (hashedPassword == keccak256(abi.encode(_password))) ? true : false */\n      tag_37\n      jumpi\n        /* \"contracts/If_Else.sol\":717:722  false */\n      0x00\n        /* \"contracts/If_Else.sol\":655:722  (hashedPassword == keccak256(abi.encode(_password))) ? true : false */\n      jump(tag_38)\n    tag_37:\n        /* \"contracts/If_Else.sol\":710:714  true */\n      0x01\n        /* \"contracts/If_Else.sol\":655:722  (hashedPassword == keccak256(abi.encode(_password))) ? true : false */\n    tag_38:\n        /* \"contracts/If_Else.sol\":648:722  return (hashedPassword == keccak256(abi.encode(_password))) ? true : false */\n      swap1\n      pop\n        /* \"contracts/If_Else.sol\":565:730  function loginlogin(string memory _password) public view returns (bool) {\r... */\n      swap2\n      swap1\n      pop\n      jump\t// out\n        /* \"#utility.yul\":7:351   */\n    tag_40:\n      0x00\n        /* \"#utility.yul\":110:175   */\n      tag_42\n        /* \"#utility.yul\":125:174   */\n      tag_43\n        /* \"#utility.yul\":167:173   */\n      dup5\n        /* \"#utility.yul\":125:174   */\n      tag_44\n      jump\t// in\n    tag_43:\n        /* \"#utility.yul\":110:175   */\n      tag_45\n      jump\t// in\n    tag_42:\n        /* \"#utility.yul\":101:175   */\n      swap1\n      pop\n        /* \"#utility.yul\":198:204   */\n      dup3\n        /* \"#utility.yul\":191:196   */\n      dup2\n        /* \"#utility.yul\":184:205   */\n      mstore\n        /* \"#utility.yul\":236:240   */\n      0x20\n        /* \"#utility.yul\":229:234   */\n      dup2\n        /* \"#utility.yul\":225:241   */\n      add\n        /* \"#utility.yul\":274:277   */\n      dup5\n        /* \"#utility.yul\":265:271   */\n      dup5\n        /* \"#utility.yul\":260:263   */\n      dup5\n        /* \"#utility.yul\":256:272   */\n      add\n        /* \"#utility.yul\":253:278   */\n      gt\n        /* \"#utility.yul\":250:252   */\n      iszero\n      tag_46\n      jumpi\n        /* \"#utility.yul\":291:292   */\n      0x00\n        /* \"#utility.yul\":288:289   */\n      dup1\n        /* \"#utility.yul\":281:293   */\n      revert\n        /* \"#utility.yul\":250:252   */\n    tag_46:\n        /* \"#utility.yul\":304:345   */\n      tag_47\n        /* \"#utility.yul\":338:344   */\n      dup5\n        /* \"#utility.yul\":333:336   */\n      dup3\n        /* \"#utility.yul\":328:331   */\n      dup6\n        /* \"#utility.yul\":304:345   */\n      tag_48\n      jump\t// in\n    tag_47:\n        /* \"#utility.yul\":91:351   */\n      pop\n      swap4\n      swap3\n      pop\n      pop\n      pop\n      jump\t// out\n        /* \"#utility.yul\":371:644   */\n    tag_49:\n      0x00\n        /* \"#utility.yul\":476:479   */\n      dup3\n        /* \"#utility.yul\":469:473   */\n      0x1f\n        /* \"#utility.yul\":461:467   */\n      dup4\n        /* \"#utility.yul\":457:474   */\n      add\n        /* \"#utility.yul\":453:480   */\n      slt\n        /* \"#utility.yul\":443:445   */\n      tag_51\n      jumpi\n        /* \"#utility.yul\":494:495   */\n      0x00\n        /* \"#utility.yul\":491:492   */\n      dup1\n        /* \"#utility.yul\":484:496   */\n      revert\n        /* \"#utility.yul\":443:445   */\n    tag_51:\n        /* \"#utility.yul\":534:540   */\n      dup2\n        /* \"#utility.yul\":521:541   */\n      calldataload\n        /* \"#utility.yul\":559:638   */\n      tag_52\n        /* \"#utility.yul\":634:637   */\n      dup5\n        /* \"#utility.yul\":626:632   */\n      dup3\n        /* \"#utility.yul\":619:623   */\n      0x20\n        /* \"#utility.yul\":611:617   */\n      dup7\n        /* \"#utility.yul\":607:624   */\n      add\n        /* \"#utility.yul\":559:638   */\n      tag_40\n      jump\t// in\n    tag_52:\n        /* \"#utility.yul\":550:638   */\n      swap2\n      pop\n        /* \"#utility.yul\":433:644   */\n      pop\n      swap3\n      swap2\n      pop\n      pop\n      jump\t// out\n        /* \"#utility.yul\":650:1025   */\n    tag_12:\n      0x00\n        /* \"#utility.yul\":768:770   */\n      0x20\n        /* \"#utility.yul\":756:765   */\n      dup3\n        /* \"#utility.yul\":747:754   */\n      dup5\n        /* \"#utility.yul\":743:766   */\n      sub\n        /* \"#utility.yul\":739:771   */\n      slt\n        /* \"#utility.yul\":736:738   */\n      iszero\n      tag_54\n      jumpi\n        /* \"#utility.yul\":784:785   */\n      0x00\n        /* \"#utility.yul\":781:782   */\n      dup1\n        /* \"#utility.yul\":774:786   */\n      revert\n        /* \"#utility.yul\":736:738   */\n    tag_54:\n        /* \"#utility.yul\":855:856   */\n      0x00\n        /* \"#utility.yul\":844:853   */\n      dup3\n        /* \"#utility.yul\":840:857   */\n      add\n        /* \"#utility.yul\":827:858   */\n      calldataload\n        /* \"#utility.yul\":885:903   */\n      0xffffffffffffffff\n        /* \"#utility.yul\":877:883   */\n      dup2\n        /* \"#utility.yul\":874:904   */\n      gt\n        /* \"#utility.yul\":871:873   */\n      iszero\n      tag_55\n      jumpi\n        /* \"#utility.yul\":917:918   */\n      0x00\n        /* \"#utility.yul\":914:915   */\n      dup1\n        /* \"#utility.yul\":907:919   */\n      revert\n        /* \"#utility.yul\":871:873   */\n    tag_55:\n        /* \"#utility.yul\":945:1008   */\n      tag_56\n        /* \"#utility.yul\":1000:1007   */\n      dup5\n        /* \"#utility.yul\":991:997   */\n      dup3\n        /* \"#utility.yul\":980:989   */\n      dup6\n        /* \"#utility.yul\":976:998   */\n      add\n        /* \"#utility.yul\":945:1008   */\n      tag_49\n      jump\t// in\n    tag_56:\n        /* \"#utility.yul\":935:1008   */\n      swap2\n      pop\n        /* \"#utility.yul\":798:1018   */\n      pop\n        /* \"#utility.yul\":726:1025   */\n      swap3\n      swap2\n      pop\n      pop\n      jump\t// out\n        /* \"#utility.yul\":1031:1140   */\n    tag_57:\n        /* \"#utility.yul\":1112:1133   */\n      tag_59\n        /* \"#utility.yul\":1127:1132   */\n      dup2\n        /* \"#utility.yul\":1112:1133   */\n      tag_60\n      jump\t// in\n    tag_59:\n        /* \"#utility.yul\":1107:1110   */\n      dup3\n        /* \"#utility.yul\":1100:1134   */\n      mstore\n        /* \"#utility.yul\":1090:1140   */\n      pop\n      pop\n      jump\t// out\n        /* \"#utility.yul\":1146:1510   */\n    tag_61:\n      0x00\n        /* \"#utility.yul\":1262:1301   */\n      tag_63\n        /* \"#utility.yul\":1295:1300   */\n      dup3\n        /* \"#utility.yul\":1262:1301   */\n      tag_64\n      jump\t// in\n    tag_63:\n        /* \"#utility.yul\":1317:1388   */\n      tag_65\n        /* \"#utility.yul\":1381:1387   */\n      dup2\n        /* \"#utility.yul\":1376:1379   */\n      dup6\n        /* \"#utility.yul\":1317:1388   */\n      tag_66\n      jump\t// in\n    tag_65:\n        /* \"#utility.yul\":1310:1388   */\n      swap4\n      pop\n        /* \"#utility.yul\":1397:1449   */\n      tag_67\n        /* \"#utility.yul\":1442:1448   */\n      dup2\n        /* \"#utility.yul\":1437:1440   */\n      dup6\n        /* \"#utility.yul\":1430:1434   */\n      0x20\n        /* \"#utility.yul\":1423:1428   */\n      dup7\n        /* \"#utility.yul\":1419:1435   */\n      add\n        /* \"#utility.yul\":1397:1449   */\n      tag_68\n      jump\t// in\n    tag_67:\n        /* \"#utility.yul\":1474:1503   */\n      tag_69\n        /* \"#utility.yul\":1496:1502   */\n      dup2\n        /* \"#utility.yul\":1474:1503   */\n      tag_70\n      jump\t// in\n    tag_69:\n        /* \"#utility.yul\":1469:1472   */\n      dup5\n        /* \"#utility.yul\":1465:1504   */\n      add\n        /* \"#utility.yul\":1458:1504   */\n      swap2\n      pop\n        /* \"#utility.yul\":1238:1510   */\n      pop\n      swap3\n      swap2\n      pop\n      pop\n      jump\t// out\n        /* \"#utility.yul\":1516:1634   */\n    tag_71:\n        /* \"#utility.yul\":1603:1627   */\n      tag_73\n        /* \"#utility.yul\":1621:1626   */\n      dup2\n        /* \"#utility.yul\":1603:1627   */\n      tag_74\n      jump\t// in\n    tag_73:\n        /* \"#utility.yul\":1598:1601   */\n      dup3\n        /* \"#utility.yul\":1591:1628   */\n      mstore\n        /* \"#utility.yul\":1581:1634   */\n      pop\n      pop\n      jump\t// out\n        /* \"#utility.yul\":1640:1850   */\n    tag_15:\n      0x00\n        /* \"#utility.yul\":1765:1767   */\n      0x20\n        /* \"#utility.yul\":1754:1763   */\n      dup3\n        /* \"#utility.yul\":1750:1768   */\n      add\n        /* \"#utility.yul\":1742:1768   */\n      swap1\n      pop\n        /* \"#utility.yul\":1778:1843   */\n      tag_76\n        /* \"#utility.yul\":1840:1841   */\n      0x00\n        /* \"#utility.yul\":1829:1838   */\n      dup4\n        /* \"#utility.yul\":1825:1842   */\n      add\n        /* \"#utility.yul\":1816:1822   */\n      dup5\n        /* \"#utility.yul\":1778:1843   */\n      tag_57\n      jump\t// in\n    tag_76:\n        /* \"#utility.yul\":1732:1850   */\n      swap3\n      swap2\n      pop\n      pop\n      jump\t// out\n        /* \"#utility.yul\":1856:2169   */\n    tag_30:\n      0x00\n        /* \"#utility.yul\":2007:2009   */\n      0x20\n        /* \"#utility.yul\":1996:2005   */\n      dup3\n        /* \"#utility.yul\":1992:2010   */\n      add\n        /* \"#utility.yul\":1984:2010   */\n      swap1\n      pop\n        /* \"#utility.yul\":2056:2065   */\n      dup2\n        /* \"#utility.yul\":2050:2054   */\n      dup2\n        /* \"#utility.yul\":2046:2066   */\n      sub\n        /* \"#utility.yul\":2042:2043   */\n      0x00\n        /* \"#utility.yul\":2031:2040   */\n      dup4\n        /* \"#utility.yul\":2027:2044   */\n      add\n        /* \"#utility.yul\":2020:2067   */\n      mstore\n        /* \"#utility.yul\":2084:2162   */\n      tag_78\n        /* \"#utility.yul\":2157:2161   */\n      dup2\n        /* \"#utility.yul\":2148:2154   */\n      dup5\n        /* \"#utility.yul\":2084:2162   */\n      tag_61\n      jump\t// in\n    tag_78:\n        /* \"#utility.yul\":2076:2162   */\n      swap1\n      pop\n        /* \"#utility.yul\":1974:2169   */\n      swap3\n      swap2\n      pop\n      pop\n      jump\t// out\n        /* \"#utility.yul\":2175:2397   */\n    tag_9:\n      0x00\n        /* \"#utility.yul\":2306:2308   */\n      0x20\n        /* \"#utility.yul\":2295:2304   */\n      dup3\n        /* \"#utility.yul\":2291:2309   */\n      add\n        /* \"#utility.yul\":2283:2309   */\n      swap1\n      pop\n        /* \"#utility.yul\":2319:2390   */\n      tag_80\n        /* \"#utility.yul\":2387:2388   */\n      0x00\n        /* \"#utility.yul\":2376:2385   */\n      dup4\n        /* \"#utility.yul\":2372:2389   */\n      add\n        /* \"#utility.yul\":2363:2369   */\n      dup5\n        /* \"#utility.yul\":2319:2390   */\n      tag_71\n      jump\t// in\n    tag_80:\n        /* \"#utility.yul\":2273:2397   */\n      swap3\n      swap2\n      pop\n      pop\n      jump\t// out\n        /* \"#utility.yul\":2403:2686   */\n    tag_45:\n      0x00\n        /* \"#utility.yul\":2469:2471   */\n      0x40\n        /* \"#utility.yul\":2463:2472   */\n      mload\n        /* \"#utility.yul\":2453:2472   */\n      swap1\n      pop\n        /* \"#utility.yul\":2511:2515   */\n      dup2\n        /* \"#utility.yul\":2503:2509   */\n      dup2\n        /* \"#utility.yul\":2499:2516   */\n      add\n        /* \"#utility.yul\":2618:2624   */\n      dup2\n        /* \"#utility.yul\":2606:2616   */\n      dup2\n        /* \"#utility.yul\":2603:2625   */\n      lt\n        /* \"#utility.yul\":2582:2600   */\n      0xffffffffffffffff\n        /* \"#utility.yul\":2570:2580   */\n      dup3\n        /* \"#utility.yul\":2567:2601   */\n      gt\n        /* \"#utility.yul\":2564:2626   */\n      or\n        /* \"#utility.yul\":2561:2563   */\n      iszero\n      tag_82\n      jumpi\n        /* \"#utility.yul\":2629:2647   */\n      tag_83\n      tag_84\n      jump\t// in\n    tag_83:\n        /* \"#utility.yul\":2561:2563   */\n    tag_82:\n        /* \"#utility.yul\":2669:2679   */\n      dup1\n        /* \"#utility.yul\":2665:2667   */\n      0x40\n        /* \"#utility.yul\":2658:2680   */\n      mstore\n        /* \"#utility.yul\":2443:2686   */\n      pop\n      swap2\n      swap1\n      pop\n      jump\t// out\n        /* \"#utility.yul\":2692:3024   */\n    tag_44:\n      0x00\n        /* \"#utility.yul\":2844:2862   */\n      0xffffffffffffffff\n        /* \"#utility.yul\":2836:2842   */\n      dup3\n        /* \"#utility.yul\":2833:2863   */\n      gt\n        /* \"#utility.yul\":2830:2832   */\n      iszero\n      tag_86\n      jumpi\n        /* \"#utility.yul\":2866:2884   */\n      tag_87\n      tag_84\n      jump\t// in\n    tag_87:\n        /* \"#utility.yul\":2830:2832   */\n    tag_86:\n        /* \"#utility.yul\":2951:2955   */\n      0x1f\n        /* \"#utility.yul\":2947:2956   */\n      not\n        /* \"#utility.yul\":2940:2944   */\n      0x1f\n        /* \"#utility.yul\":2932:2938   */\n      dup4\n        /* \"#utility.yul\":2928:2945   */\n      add\n        /* \"#utility.yul\":2924:2957   */\n      and\n        /* \"#utility.yul\":2916:2957   */\n      swap1\n      pop\n        /* \"#utility.yul\":3012:3016   */\n      0x20\n        /* \"#utility.yul\":3006:3010   */\n      dup2\n        /* \"#utility.yul\":3002:3017   */\n      add\n        /* \"#utility.yul\":2994:3017   */\n      swap1\n      pop\n        /* \"#utility.yul\":2759:3024   */\n      swap2\n      swap1\n      pop\n      jump\t// out\n        /* \"#utility.yul\":3030:3129   */\n    tag_64:\n      0x00\n        /* \"#utility.yul\":3116:3121   */\n      dup2\n        /* \"#utility.yul\":3110:3122   */\n      mload\n        /* \"#utility.yul\":3100:3122   */\n      swap1\n      pop\n        /* \"#utility.yul\":3089:3129   */\n      swap2\n      swap1\n      pop\n      jump\t// out\n        /* \"#utility.yul\":3135:3304   */\n    tag_66:\n      0x00\n        /* \"#utility.yul\":3253:3259   */\n      dup3\n        /* \"#utility.yul\":3248:3251   */\n      dup3\n        /* \"#utility.yul\":3241:3260   */\n      mstore\n        /* \"#utility.yul\":3293:3297   */\n      0x20\n        /* \"#utility.yul\":3288:3291   */\n      dup3\n        /* \"#utility.yul\":3284:3298   */\n      add\n        /* \"#utility.yul\":3269:3298   */\n      swap1\n      pop\n        /* \"#utility.yul\":3231:3304   */\n      swap3\n      swap2\n      pop\n      pop\n      jump\t// out\n        /* \"#utility.yul\":3310:3400   */\n    tag_60:\n      0x00\n        /* \"#utility.yul\":3387:3392   */\n      dup2\n        /* \"#utility.yul\":3380:3393   */\n      iszero\n        /* \"#utility.yul\":3373:3394   */\n      iszero\n        /* \"#utility.yul\":3362:3394   */\n      swap1\n      pop\n        /* \"#utility.yul\":3352:3400   */\n      swap2\n      swap1\n      pop\n      jump\t// out\n        /* \"#utility.yul\":3406:3483   */\n    tag_74:\n      0x00\n        /* \"#utility.yul\":3472:3477   */\n      dup2\n        /* \"#utility.yul\":3461:3477   */\n      swap1\n      pop\n        /* \"#utility.yul\":3451:3483   */\n      swap2\n      swap1\n      pop\n      jump\t// out\n        /* \"#utility.yul\":3489:3643   */\n    tag_48:\n        /* \"#utility.yul\":3573:3579   */\n      dup3\n        /* \"#utility.yul\":3568:3571   */\n      dup2\n        /* \"#utility.yul\":3563:3566   */\n      dup4\n        /* \"#utility.yul\":3550:3580   */\n      calldatacopy\n        /* \"#utility.yul\":3635:3636   */\n      0x00\n        /* \"#utility.yul\":3626:3632   */\n      dup4\n        /* \"#utility.yul\":3621:3624   */\n      dup4\n        /* \"#utility.yul\":3617:3633   */\n      add\n        /* \"#utility.yul\":3610:3637   */\n      mstore\n        /* \"#utility.yul\":3540:3643   */\n      pop\n      pop\n      pop\n      jump\t// out\n        /* \"#utility.yul\":3649:3956   */\n    tag_68:\n        /* \"#utility.yul\":3717:3718   */\n      0x00\n        /* \"#utility.yul\":3727:3840   */\n    tag_94:\n        /* \"#utility.yul\":3741:3747   */\n      dup4\n        /* \"#utility.yul\":3738:3739   */\n      dup2\n        /* \"#utility.yul\":3735:3748   */\n      lt\n        /* \"#utility.yul\":3727:3840   */\n      iszero\n      tag_96\n      jumpi\n        /* \"#utility.yul\":3826:3827   */\n      dup1\n        /* \"#utility.yul\":3821:3824   */\n      dup3\n        /* \"#utility.yul\":3817:3828   */\n      add\n        /* \"#utility.yul\":3811:3829   */\n      mload\n        /* \"#utility.yul\":3807:3808   */\n      dup2\n        /* \"#utility.yul\":3802:3805   */\n      dup5\n        /* \"#utility.yul\":3798:3809   */\n      add\n        /* \"#utility.yul\":3791:3830   */\n      mstore\n        /* \"#utility.yul\":3763:3765   */\n      0x20\n        /* \"#utility.yul\":3760:3761   */\n      dup2\n        /* \"#utility.yul\":3756:3766   */\n      add\n        /* \"#utility.yul\":3751:3766   */\n      swap1\n      pop\n        /* \"#utility.yul\":3727:3840   */\n      jump(tag_94)\n    tag_96:\n        /* \"#utility.yul\":3858:3864   */\n      dup4\n        /* \"#utility.yul\":3855:3856   */\n      dup2\n        /* \"#utility.yul\":3852:3865   */\n      gt\n        /* \"#utility.yul\":3849:3851   */\n      iszero\n      tag_97\n      jumpi\n        /* \"#utility.yul\":3938:3939   */\n      0x00\n        /* \"#utility.yul\":3929:3935   */\n      dup5\n        /* \"#utility.yul\":3924:3927   */\n      dup5\n        /* \"#utility.yul\":3920:3936   */\n      add\n        /* \"#utility.yul\":3913:3940   */\n      mstore\n        /* \"#utility.yul\":3849:3851   */\n    tag_97:\n        /* \"#utility.yul\":3698:3956   */\n      pop\n      pop\n      pop\n      pop\n      jump\t// out\n        /* \"#utility.yul\":3962:4195   */\n    tag_33:\n      0x00\n        /* \"#utility.yul\":4024:4048   */\n      tag_99\n        /* \"#utility.yul\":4042:4047   */\n      dup3\n        /* \"#utility.yul\":4024:4048   */\n      tag_74\n      jump\t// in\n    tag_99:\n        /* \"#utility.yul\":4015:4048   */\n      swap2\n      pop\n        /* \"#utility.yul\":4070:4136   */\n      0xffffffffffffffffffffffffffffffffffffffffffffffffffffffffffffffff\n        /* \"#utility.yul\":4063:4068   */\n      dup3\n        /* \"#utility.yul\":4060:4137   */\n      eq\n        /* \"#utility.yul\":4057:4059   */\n      iszero\n      tag_100\n      jumpi\n        /* \"#utility.yul\":4140:4158   */\n      tag_101\n      tag_102\n      jump\t// in\n    tag_101:\n        /* \"#utility.yul\":4057:4059   */\n    tag_100:\n        /* \"#utility.yul\":4187:4188   */\n      0x01\n        /* \"#utility.yul\":4180:4185   */\n      dup3\n        /* \"#utility.yul\":4176:4189   */\n      add\n        /* \"#utility.yul\":4169:4189   */\n      swap1\n      pop\n        /* \"#utility.yul\":4005:4195   */\n      swap2\n      swap1\n      pop\n      jump\t// out\n        /* \"#utility.yul\":4201:4381   */\n    tag_102:\n        /* \"#utility.yul\":4249:4326   */\n      0x4e487b7100000000000000000000000000000000000000000000000000000000\n        /* \"#utility.yul\":4246:4247   */\n      0x00\n        /* \"#utility.yul\":4239:4327   */\n      mstore\n        /* \"#utility.yul\":4346:4350   */\n      0x11\n        /* \"#utility.yul\":4343:4344   */\n      0x04\n        /* \"#utility.yul\":4336:4351   */\n      mstore\n        /* \"#utility.yul\":4370:4374   */\n      0x24\n        /* \"#utility.yul\":4367:4368   */\n      0x00\n        /* \"#utility.yul\":4360:4375   */\n      revert\n        /* \"#utility.yul\":4387:4567   */\n    tag_84:\n        /* \"#utility.yul\":4435:4512   */\n      0x4e487b7100000000000000000000000000000000000000000000000000000000\n        /* \"#utility.yul\":4432:4433   */\n      0x00\n        /* \"#utility.yul\":4425:4513   */\n      mstore\n        /* \"#utility.yul\":4532:4536   */\n      0x41\n        /* \"#utility.yul\":4529:4530   */\n      0x04\n        /* \"#utility.yul\":4522:4537   */\n      mstore\n        /* \"#utility.yul\":4556:4560   */\n      0x24\n        /* \"#utility.yul\":4553:4554   */\n      0x00\n        /* \"#utility.yul\":4546:4561   */\n      revert\n        /* \"#utility.yul\":4573:4675   */\n    tag_70:\n      0x00\n        /* \"#utility.yul\":4665:4667   */\n      0x1f\n        /* \"#utility.yul\":4661:4668   */\n      not\n        /* \"#utility.yul\":4656:4658   */\n      0x1f\n        /* \"#utility.yul\":4649:4654   */\n      dup4\n        /* \"#utility.yul\":4645:4659   */\n      add\n        /* \"#utility.yul\":4641:4669   */\n      and\n        /* \"#utility.yul\":4631:4669   */\n      swap1\n      pop\n        /* \"#utility.yul\":4621:4675   */\n      swap2\n      swap1\n      pop\n      jump\t// out\n\n    auxdata: 0xa264697066735822122056130978a9b9fcc81a12521d6e45c45ff1c641ca08b1d0604ec50fb2e3280edd64736f6c63430008000033\n}\n",
				"bytecode": {
					"linkReferences": {},
					"object": "608060405234801561001057600080fd5b50604051610738380380610738833981810160405281019061003291906100cd565b806040516020016100439190610147565b6040516020818303038152906040528051906020012060008190555050610259565b60006100786100738461019a565b610169565b90508281526020810184848401111561009057600080fd5b61009b8482856101e6565b509392505050565b600082601f8301126100b457600080fd5b81516100c4848260208601610065565b91505092915050565b6000602082840312156100df57600080fd5b600082015167ffffffffffffffff8111156100f957600080fd5b610105848285016100a3565b91505092915050565b6000610119826101ca565b61012381856101d5565b93506101338185602086016101e6565b61013c81610248565b840191505092915050565b60006020820190508181036000830152610161818461010e565b905092915050565b6000604051905081810181811067ffffffffffffffff821117156101905761018f610219565b5b8060405250919050565b600067ffffffffffffffff8211156101b5576101b4610219565b5b601f19601f8301169050602081019050919050565b600081519050919050565b600082825260208201905092915050565b60005b838110156102045780820151818401526020810190506101e9565b83811115610213576000848401525b50505050565b7f4e487b7100000000000000000000000000000000000000000000000000000000600052604160045260246000fd5b6000601f19601f8301169050919050565b6104d0806102686000396000f3fe608060405234801561001057600080fd5b50600436106100415760003560e01c80632f41fc65146100465780633a7d280c14610064578063cccc188a14610094575b600080fd5b61004e6100c4565b60405161005b91906102f2565b60405180910390f35b61007e6004803603810190610079919061021d565b610116565b60405161008b91906102b5565b60405180910390f35b6100ae60048036038101906100a9919061021d565b610173565b6040516100bb91906102b5565b60405180910390f35b60008060015414156100d95760009050610113565b60006001541180156100ed57506001805414155b156100fb5760019050610113565b60018054141561010e5760029050610113565b600390505b90565b60008160405160200161012991906102d0565b604051602081830303815290604052805190602001206000541415610169576001600081548092919061015b906103e2565b91905055506001905061016e565b600090505b919050565b60008160405160200161018691906102d0565b60405160208183030381529060405280519060200120600054146101ab5760006101ae565b60015b9050919050565b60006101c86101c38461033e565b61030d565b9050828152602081018484840111156101e057600080fd5b6101eb8482856103a0565b509392505050565b600082601f83011261020457600080fd5b81356102148482602086016101b5565b91505092915050565b60006020828403121561022f57600080fd5b600082013567ffffffffffffffff81111561024957600080fd5b610255848285016101f3565b91505092915050565b6102678161038a565b82525050565b60006102788261036e565b6102828185610379565b93506102928185602086016103af565b61029b81610489565b840191505092915050565b6102af81610396565b82525050565b60006020820190506102ca600083018461025e565b92915050565b600060208201905081810360008301526102ea818461026d565b905092915050565b600060208201905061030760008301846102a6565b92915050565b6000604051905081810181811067ffffffffffffffff821117156103345761033361045a565b5b8060405250919050565b600067ffffffffffffffff8211156103595761035861045a565b5b601f19601f8301169050602081019050919050565b600081519050919050565b600082825260208201905092915050565b60008115159050919050565b6000819050919050565b82818337600083830152505050565b60005b838110156103cd5780820151818401526020810190506103b2565b838111156103dc576000848401525b50505050565b60006103ed82610396565b91507fffffffffffffffffffffffffffffffffffffffffffffffffffffffffffffffff8214156104205761041f61042b565b5b600182019050919050565b7f4e487b7100000000000000000000000000000000000000000000000000000000600052601160045260246000fd5b7f4e487b7100000000000000000000000000000000000000000000000000000000600052604160045260246000fd5b6000601f19601f830116905091905056fea264697066735822122056130978a9b9fcc81a12521d6e45c45ff1c641ca08b1d0604ec50fb2e3280edd64736f6c63430008000033",
					"opcodes": "PUSH1 0x80 PUSH1 0x40 MSTORE CALLVALUE DUP1 ISZERO PUSH2 0x10 JUMPI PUSH1 0x0 DUP1 REVERT JUMPDEST POP PUSH1 0x40 MLOAD PUSH2 0x738 CODESIZE SUB DUP1 PUSH2 0x738 DUP4 CODECOPY DUP2 DUP2 ADD PUSH1 0x40 MSTORE DUP2 ADD SWAP1 PUSH2 0x32 SWAP2 SWAP1 PUSH2 0xCD JUMP JUMPDEST DUP1 PUSH1 0x40 MLOAD PUSH1 0x20 ADD PUSH2 0x43 SWAP2 SWAP1 PUSH2 0x147 JUMP JUMPDEST PUSH1 0x40 MLOAD PUSH1 0x20 DUP2 DUP4 SUB SUB DUP2 MSTORE SWAP1 PUSH1 0x40 MSTORE DUP1 MLOAD SWAP1 PUSH1 0x20 ADD KECCAK256 PUSH1 0x0 DUP2 SWAP1 SSTORE POP POP PUSH2 0x259 JUMP JUMPDEST PUSH1 0x0 PUSH2 0x78 PUSH2 0x73 DUP5 PUSH2 0x19A JUMP JUMPDEST PUSH2 0x169 JUMP JUMPDEST SWAP1 POP DUP3 DUP2 MSTORE PUSH1 0x20 DUP2 ADD DUP5 DUP5 DUP5 ADD GT ISZERO PUSH2 0x90 JUMPI PUSH1 0x0 DUP1 REVERT JUMPDEST PUSH2 0x9B DUP5 DUP3 DUP6 PUSH2 0x1E6 JUMP JUMPDEST POP SWAP4 SWAP3 POP POP POP JUMP JUMPDEST PUSH1 0x0 DUP3 PUSH1 0x1F DUP4 ADD SLT PUSH2 0xB4 JUMPI PUSH1 0x0 DUP1 REVERT JUMPDEST DUP2 MLOAD PUSH2 0xC4 DUP5 DUP3 PUSH1 0x20 DUP7 ADD PUSH2 0x65 JUMP JUMPDEST SWAP2 POP POP SWAP3 SWAP2 POP POP JUMP JUMPDEST PUSH1 0x0 PUSH1 0x20 DUP3 DUP5 SUB SLT ISZERO PUSH2 0xDF JUMPI PUSH1 0x0 DUP1 REVERT JUMPDEST PUSH1 0x0 DUP3 ADD MLOAD PUSH8 0xFFFFFFFFFFFFFFFF DUP2 GT ISZERO PUSH2 0xF9 JUMPI PUSH1 0x0 DUP1 REVERT JUMPDEST PUSH2 0x105 DUP5 DUP3 DUP6 ADD PUSH2 0xA3 JUMP JUMPDEST SWAP2 POP POP SWAP3 SWAP2 POP POP JUMP JUMPDEST PUSH1 0x0 PUSH2 0x119 DUP3 PUSH2 0x1CA JUMP JUMPDEST PUSH2 0x123 DUP2 DUP6 PUSH2 0x1D5 JUMP JUMPDEST SWAP4 POP PUSH2 0x133 DUP2 DUP6 PUSH1 0x20 DUP7 ADD PUSH2 0x1E6 JUMP JUMPDEST PUSH2 0x13C DUP2 PUSH2 0x248 JUMP JUMPDEST DUP5 ADD SWAP2 POP POP SWAP3 SWAP2 POP POP JUMP JUMPDEST PUSH1 0x0 PUSH1 0x20 DUP3 ADD SWAP1 POP DUP2 DUP2 SUB PUSH1 0x0 DUP4 ADD MSTORE PUSH2 0x161 DUP2 DUP5 PUSH2 0x10E JUMP JUMPDEST SWAP1 POP SWAP3 SWAP2 POP POP JUMP JUMPDEST PUSH1 0x0 PUSH1 0x40 MLOAD SWAP1 POP DUP2 DUP2 ADD DUP2 DUP2 LT PUSH8 0xFFFFFFFFFFFFFFFF DUP3 GT OR ISZERO PUSH2 0x190 JUMPI PUSH2 0x18F PUSH2 0x219 JUMP JUMPDEST JUMPDEST DUP1 PUSH1 0x40 MSTORE POP SWAP2 SWAP1 POP JUMP JUMPDEST PUSH1 0x0 PUSH8 0xFFFFFFFFFFFFFFFF DUP3 GT ISZERO PUSH2 0x1B5 JUMPI PUSH2 0x1B4 PUSH2 0x219 JUMP JUMPDEST JUMPDEST PUSH1 0x1F NOT PUSH1 0x1F DUP4 ADD AND SWAP1 POP PUSH1 0x20 DUP2 ADD SWAP1 POP SWAP2 SWAP1 POP JUMP JUMPDEST PUSH1 0x0 DUP2 MLOAD SWAP1 POP SWAP2 SWAP1 POP JUMP JUMPDEST PUSH1 0x0 DUP3 DUP3 MSTORE PUSH1 0x20 DUP3 ADD SWAP1 POP SWAP3 SWAP2 POP POP JUMP JUMPDEST PUSH1 0x0 JUMPDEST DUP4 DUP2 LT ISZERO PUSH2 0x204 JUMPI DUP1 DUP3 ADD MLOAD DUP2 DUP5 ADD MSTORE PUSH1 0x20 DUP2 ADD SWAP1 POP PUSH2 0x1E9 JUMP JUMPDEST DUP4 DUP2 GT ISZERO PUSH2 0x213 JUMPI PUSH1 0x0 DUP5 DUP5 ADD MSTORE JUMPDEST POP POP POP POP JUMP JUMPDEST PUSH32 0x4E487B7100000000000000000000000000000000000000000000000000000000 PUSH1 0x0 MSTORE PUSH1 0x41 PUSH1 0x4 MSTORE PUSH1 0x24 PUSH1 0x0 REVERT JUMPDEST PUSH1 0x0 PUSH1 0x1F NOT PUSH1 0x1F DUP4 ADD AND SWAP1 POP SWAP2 SWAP1 POP JUMP JUMPDEST PUSH2 0x4D0 DUP1 PUSH2 0x268 PUSH1 0x0 CODECOPY PUSH1 0x0 RETURN INVALID PUSH1 0x80 PUSH1 0x40 MSTORE CALLVALUE DUP1 ISZERO PUSH2 0x10 JUMPI PUSH1 0x0 DUP1 REVERT JUMPDEST POP PUSH1 0x4 CALLDATASIZE LT PUSH2 0x41 JUMPI PUSH1 0x0 CALLDATALOAD PUSH1 0xE0 SHR DUP1 PUSH4 0x2F41FC65 EQ PUSH2 0x46 JUMPI DUP1 PUSH4 0x3A7D280C EQ PUSH2 0x64 JUMPI DUP1 PUSH4 0xCCCC188A EQ PUSH2 0x94 JUMPI JUMPDEST PUSH1 0x0 DUP1 REVERT JUMPDEST PUSH2 0x4E PUSH2 0xC4 JUMP JUMPDEST PUSH1 0x40 MLOAD PUSH2 0x5B SWAP2 SWAP1 PUSH2 0x2F2 JUMP JUMPDEST PUSH1 0x40 MLOAD DUP1 SWAP2 SUB SWAP1 RETURN JUMPDEST PUSH2 0x7E PUSH1 0x4 DUP1 CALLDATASIZE SUB DUP2 ADD SWAP1 PUSH2 0x79 SWAP2 SWAP1 PUSH2 0x21D JUMP JUMPDEST PUSH2 0x116 JUMP JUMPDEST PUSH1 0x40 MLOAD PUSH2 0x8B SWAP2 SWAP1 PUSH2 0x2B5 JUMP JUMPDEST PUSH1 0x40 MLOAD DUP1 SWAP2 SUB SWAP1 RETURN JUMPDEST PUSH2 0xAE PUSH1 0x4 DUP1 CALLDATASIZE SUB DUP2 ADD SWAP1 PUSH2 0xA9 SWAP2 SWAP1 PUSH2 0x21D JUMP JUMPDEST PUSH2 0x173 JUMP JUMPDEST PUSH1 0x40 MLOAD PUSH2 0xBB SWAP2 SWAP1 PUSH2 0x2B5 JUMP JUMPDEST PUSH1 0x40 MLOAD DUP1 SWAP2 SUB SWAP1 RETURN JUMPDEST PUSH1 0x0 DUP1 PUSH1 0x1 SLOAD EQ ISZERO PUSH2 0xD9 JUMPI PUSH1 0x0 SWAP1 POP PUSH2 0x113 JUMP JUMPDEST PUSH1 0x0 PUSH1 0x1 SLOAD GT DUP1 ISZERO PUSH2 0xED JUMPI POP PUSH1 0x1 DUP1 SLOAD EQ ISZERO JUMPDEST ISZERO PUSH2 0xFB JUMPI PUSH1 0x1 SWAP1 POP PUSH2 0x113 JUMP JUMPDEST PUSH1 0x1 DUP1 SLOAD EQ ISZERO PUSH2 0x10E JUMPI PUSH1 0x2 SWAP1 POP PUSH2 0x113 JUMP JUMPDEST PUSH1 0x3 SWAP1 POP JUMPDEST SWAP1 JUMP JUMPDEST PUSH1 0x0 DUP2 PUSH1 0x40 MLOAD PUSH1 0x20 ADD PUSH2 0x129 SWAP2 SWAP1 PUSH2 0x2D0 JUMP JUMPDEST PUSH1 0x40 MLOAD PUSH1 0x20 DUP2 DUP4 SUB SUB DUP2 MSTORE SWAP1 PUSH1 0x40 MSTORE DUP1 MLOAD SWAP1 PUSH1 0x20 ADD KECCAK256 PUSH1 0x0 SLOAD EQ ISZERO PUSH2 0x169 JUMPI PUSH1 0x1 PUSH1 0x0 DUP2 SLOAD DUP1 SWAP3 SWAP2 SWAP1 PUSH2 0x15B SWAP1 PUSH2 0x3E2 JUMP JUMPDEST SWAP2 SWAP1 POP SSTORE POP PUSH1 0x1 SWAP1 POP PUSH2 0x16E JUMP JUMPDEST PUSH1 0x0 SWAP1 POP JUMPDEST SWAP2 SWAP1 POP JUMP JUMPDEST PUSH1 0x0 DUP2 PUSH1 0x40 MLOAD PUSH1 0x20 ADD PUSH2 0x186 SWAP2 SWAP1 PUSH2 0x2D0 JUMP JUMPDEST PUSH1 0x40 MLOAD PUSH1 0x20 DUP2 DUP4 SUB SUB DUP2 MSTORE SWAP1 PUSH1 0x40 MSTORE DUP1 MLOAD SWAP1 PUSH1 0x20 ADD KECCAK256 PUSH1 0x0 SLOAD EQ PUSH2 0x1AB JUMPI PUSH1 0x0 PUSH2 0x1AE JUMP JUMPDEST PUSH1 0x1 JUMPDEST SWAP1 POP SWAP2 SWAP1 POP JUMP JUMPDEST PUSH1 0x0 PUSH2 0x1C8 PUSH2 0x1C3 DUP5 PUSH2 0x33E JUMP JUMPDEST PUSH2 0x30D JUMP JUMPDEST SWAP1 POP DUP3 DUP2 MSTORE PUSH1 0x20 DUP2 ADD DUP5 DUP5 DUP5 ADD GT ISZERO PUSH2 0x1E0 JUMPI PUSH1 0x0 DUP1 REVERT JUMPDEST PUSH2 0x1EB DUP5 DUP3 DUP6 PUSH2 0x3A0 JUMP JUMPDEST POP SWAP4 SWAP3 POP POP POP JUMP JUMPDEST PUSH1 0x0 DUP3 PUSH1 0x1F DUP4 ADD SLT PUSH2 0x204 JUMPI PUSH1 0x0 DUP1 REVERT JUMPDEST DUP2 CALLDATALOAD PUSH2 0x214 DUP5 DUP3 PUSH1 0x20 DUP7 ADD PUSH2 0x1B5 JUMP JUMPDEST SWAP2 POP POP SWAP3 SWAP2 POP POP JUMP JUMPDEST PUSH1 0x0 PUSH1 0x20 DUP3 DUP5 SUB SLT ISZERO PUSH2 0x22F JUMPI PUSH1 0x0 DUP1 REVERT JUMPDEST PUSH1 0x0 DUP3 ADD CALLDATALOAD PUSH8 0xFFFFFFFFFFFFFFFF DUP2 GT ISZERO PUSH2 0x249 JUMPI PUSH1 0x0 DUP1 REVERT JUMPDEST PUSH2 0x255 DUP5 DUP3 DUP6 ADD PUSH2 0x1F3 JUMP JUMPDEST SWAP2 POP POP SWAP3 SWAP2 POP POP JUMP JUMPDEST PUSH2 0x267 DUP2 PUSH2 0x38A JUMP JUMPDEST DUP3 MSTORE POP POP JUMP JUMPDEST PUSH1 0x0 PUSH2 0x278 DUP3 PUSH2 0x36E JUMP JUMPDEST PUSH2 0x282 DUP2 DUP6 PUSH2 0x379 JUMP JUMPDEST SWAP4 POP PUSH2 0x292 DUP2 DUP6 PUSH1 0x20 DUP7 ADD PUSH2 0x3AF JUMP JUMPDEST PUSH2 0x29B DUP2 PUSH2 0x489 JUMP JUMPDEST DUP5 ADD SWAP2 POP POP SWAP3 SWAP2 POP POP JUMP JUMPDEST PUSH2 0x2AF DUP2 PUSH2 0x396 JUMP JUMPDEST DUP3 MSTORE POP POP JUMP JUMPDEST PUSH1 0x0 PUSH1 0x20 DUP3 ADD SWAP1 POP PUSH2 0x2CA PUSH1 0x0 DUP4 ADD DUP5 PUSH2 0x25E JUMP JUMPDEST SWAP3 SWAP2 POP POP JUMP JUMPDEST PUSH1 0x0 PUSH1 0x20 DUP3 ADD SWAP1 POP DUP2 DUP2 SUB PUSH1 0x0 DUP4 ADD MSTORE PUSH2 0x2EA DUP2 DUP5 PUSH2 0x26D JUMP JUMPDEST SWAP1 POP SWAP3 SWAP2 POP POP JUMP JUMPDEST PUSH1 0x0 PUSH1 0x20 DUP3 ADD SWAP1 POP PUSH2 0x307 PUSH1 0x0 DUP4 ADD DUP5 PUSH2 0x2A6 JUMP JUMPDEST SWAP3 SWAP2 POP POP JUMP JUMPDEST PUSH1 0x0 PUSH1 0x40 MLOAD SWAP1 POP DUP2 DUP2 ADD DUP2 DUP2 LT PUSH8 0xFFFFFFFFFFFFFFFF DUP3 GT OR ISZERO PUSH2 0x334 JUMPI PUSH2 0x333 PUSH2 0x45A JUMP JUMPDEST JUMPDEST DUP1 PUSH1 0x40 MSTORE POP SWAP2 SWAP1 POP JUMP JUMPDEST PUSH1 0x0 PUSH8 0xFFFFFFFFFFFFFFFF DUP3 GT ISZERO PUSH2 0x359 JUMPI PUSH2 0x358 PUSH2 0x45A JUMP JUMPDEST JUMPDEST PUSH1 0x1F NOT PUSH1 0x1F DUP4 ADD AND SWAP1 POP PUSH1 0x20 DUP2 ADD SWAP1 POP SWAP2 SWAP1 POP JUMP JUMPDEST PUSH1 0x0 DUP2 MLOAD SWAP1 POP SWAP2 SWAP1 POP JUMP JUMPDEST PUSH1 0x0 DUP3 DUP3 MSTORE PUSH1 0x20 DUP3 ADD SWAP1 POP SWAP3 SWAP2 POP POP JUMP JUMPDEST PUSH1 0x0 DUP2 ISZERO ISZERO SWAP1 POP SWAP2 SWAP1 POP JUMP JUMPDEST PUSH1 0x0 DUP2 SWAP1 POP SWAP2 SWAP1 POP JUMP JUMPDEST DUP3 DUP2 DUP4 CALLDATACOPY PUSH1 0x0 DUP4 DUP4 ADD MSTORE POP POP POP JUMP JUMPDEST PUSH1 0x0 JUMPDEST DUP4 DUP2 LT ISZERO PUSH2 0x3CD JUMPI DUP1 DUP3 ADD MLOAD DUP2 DUP5 ADD MSTORE PUSH1 0x20 DUP2 ADD SWAP1 POP PUSH2 0x3B2 JUMP JUMPDEST DUP4 DUP2 GT ISZERO PUSH2 0x3DC JUMPI PUSH1 0x0 DUP5 DUP5 ADD MSTORE JUMPDEST POP POP POP POP JUMP JUMPDEST PUSH1 0x0 PUSH2 0x3ED DUP3 PUSH2 0x396 JUMP JUMPDEST SWAP2 POP PUSH32 0xFFFFFFFFFFFFFFFFFFFFFFFFFFFFFFFFFFFFFFFFFFFFFFFFFFFFFFFFFFFFFFFF DUP3 EQ ISZERO PUSH2 0x420 JUMPI PUSH2 0x41F PUSH2 0x42B JUMP JUMPDEST JUMPDEST PUSH1 0x1 DUP3 ADD SWAP1 POP SWAP2 SWAP1 POP JUMP JUMPDEST PUSH32 0x4E487B7100000000000000000000000000000000000000000000000000000000 PUSH1 0x0 MSTORE PUSH1 0x11 PUSH1 0x4 MSTORE PUSH1 0x24 PUSH1 0x0 REVERT JUMPDEST PUSH32 0x4E487B7100000000000000000000000000000000000000000000000000000000 PUSH1 0x0 MSTORE PUSH1 0x41 PUSH1 0x4 MSTORE PUSH1 0x24 PUSH1 0x0 REVERT JUMPDEST PUSH1 0x0 PUSH1 0x1F NOT PUSH1 0x1F DUP4 ADD AND SWAP1 POP SWAP2 SWAP1 POP JUMP INVALID LOG2 PUSH5 0x6970667358 0x22 SLT KECCAK256 JUMP SGT MULMOD PUSH25 0xA9B9FCC81A12521D6E45C45FF1C641CA08B1D0604EC50FB2E3 0x28 0xE 0xDD PUSH5 0x736F6C6343 STOP ADDMOD STOP STOP CALLER "
				},
				"gasEstimates": {
					"creation": {
						"codeDepositCost": "246400",
						"executionCost": "infinite",
						"totalCost": "infinite"
					},
					"external": {
						"login(string)": "infinite",
						"loginStatus()": "3638",
						"loginlogin(string)": "infinite"
					}
				},
				"methodIdentifiers": {
					"login(string)": "3a7d280c",
					"loginStatus()": "2f41fc65",
					"loginlogin(string)": "cccc188a"
				}
			},
			"storageLayout": {
				"storage": [
					{
						"astId": 3,
						"contract": "contracts/If_Else.sol:IfElse",
						"label": "hashedPassword",
						"offset": 0,
						"slot": "0",
						"type": "t_bytes32"
					},
					{
						"astId": 5,
						"contract": "contracts/If_Else.sol:IfElse",
						"label": "loginCount",
						"offset": 0,
						"slot": "1",
						"type": "t_uint256"
					}
				],
				"types": {
					"t_bytes32": {
						"encoding": "inplace",
						"label": "bytes32",
						"numberOfBytes": "32"
					},
					"t_uint256": {
						"encoding": "inplace",
						"label": "uint256",
						"numberOfBytes": "32"
					}
				}
			},
			"userdoc": {
				"kind": "user",
				"methods": {},
				"version": 1
			}
		}
	}
}