{
	"contracts/Modifiers.sol": {
		"StructsAndEnums": {
			"abi": [
				{
					"inputs": [],
					"stateMutability": "nonpayable",
					"type": "constructor"
				},
				{
					"inputs": [
						{
							"internalType": "uint256",
							"name": "_orderId",
							"type": "uint256"
						}
					],
					"name": "advanceOrder",
					"outputs": [],
					"stateMutability": "nonpayable",
					"type": "function"
				},
				{
					"inputs": [
						{
							"internalType": "string",
							"name": "_zipCode",
							"type": "string"
						},
						{
							"internalType": "uint256[]",
							"name": "_products",
							"type": "uint256[]"
						}
					],
					"name": "createOrder",
					"outputs": [
						{
							"internalType": "uint256",
							"name": "",
							"type": "uint256"
						}
					],
					"stateMutability": "nonpayable",
					"type": "function"
				},
				{
					"inputs": [
						{
							"internalType": "uint256",
							"name": "_orderId",
							"type": "uint256"
						}
					],
					"name": "getOrder",
					"outputs": [
						{
							"components": [
								{
									"internalType": "address",
									"name": "customer",
									"type": "address"
								},
								{
									"internalType": "string",
									"name": "zipCode",
									"type": "string"
								},
								{
									"internalType": "uint256[]",
									"name": "products",
									"type": "uint256[]"
								},
								{
									"internalType": "enum StructsAndEnums.Status",
									"name": "status",
									"type": "uint8"
								}
							],
							"internalType": "struct StructsAndEnums.Order",
							"name": "",
							"type": "tuple"
						}
					],
					"stateMutability": "view",
					"type": "function"
				},
				{
					"inputs": [
						{
							"internalType": "uint256",
							"name": "",
							"type": "uint256"
						}
					],
					"name": "orders",
					"outputs": [
						{
							"internalType": "address",
							"name": "customer",
							"type": "address"
						},
						{
							"internalType": "string",
							"name": "zipCode",
							"type": "string"
						},
						{
							"internalType": "enum StructsAndEnums.Status",
							"name": "status",
							"type": "uint8"
						}
					],
					"stateMutability": "view",
					"type": "function"
				},
				{
					"inputs": [],
					"name": "owner",
					"outputs": [
						{
							"internalType": "address",
							"name": "",
							"type": "address"
						}
					],
					"stateMutability": "view",
					"type": "function"
				},
				{
					"inputs": [],
					"name": "txCount",
					"outputs": [
						{
							"internalType": "uint256",
							"name": "",
							"type": "uint256"
						}
					],
					"stateMutability": "view",
					"type": "function"
				},
				{
					"inputs": [
						{
							"internalType": "uint256",
							"name": "_orderId",
							"type": "uint256"
						},
						{
							"internalType": "string",
							"name": "_zip",
							"type": "string"
						}
					],
					"name": "updateZip",
					"outputs": [],
					"stateMutability": "nonpayable",
					"type": "function"
				}
			],
			"devdoc": {
				"kind": "dev",
				"methods": {},
				"version": 1
			},
			"evm": {
				"assembly": "    /* \"contracts/Modifiers.sol\":60:2822  contract StructsAndEnums {... */\n  mstore(0x40, 0x80)\n    /* \"contracts/Modifiers.sol\":434:485  constructor() {... */\n  callvalue\n  dup1\n  iszero\n  tag_1\n  jumpi\n  0x00\n  dup1\n  revert\ntag_1:\n  pop\n    /* \"contracts/Modifiers.sol\":467:477  msg.sender */\n  caller\n    /* \"contracts/Modifiers.sol\":459:464  owner */\n  0x01\n  0x00\n    /* \"contracts/Modifiers.sol\":459:477  owner = msg.sender */\n  0x0100\n  exp\n  dup2\n  sload\n  dup2\n  0xffffffffffffffffffffffffffffffffffffffff\n  mul\n  not\n  and\n  swap1\n  dup4\n  0xffffffffffffffffffffffffffffffffffffffff\n  and\n  mul\n  or\n  swap1\n  sstore\n  pop\n    /* \"contracts/Modifiers.sol\":60:2822  contract StructsAndEnums {... */\n  dataSize(sub_0)\n  dup1\n  dataOffset(sub_0)\n  0x00\n  codecopy\n  0x00\n  return\nstop\n\nsub_0: assembly {\n        /* \"contracts/Modifiers.sol\":60:2822  contract StructsAndEnums {... */\n      mstore(0x40, 0x80)\n      callvalue\n      dup1\n      iszero\n      tag_1\n      jumpi\n      0x00\n      dup1\n      revert\n    tag_1:\n      pop\n      jumpi(tag_2, lt(calldatasize, 0x04))\n      shr(0xe0, calldataload(0x00))\n      dup1\n      0x8da5cb5b\n      gt\n      tag_10\n      jumpi\n      dup1\n      0x8da5cb5b\n      eq\n      tag_6\n      jumpi\n      dup1\n      0xa85c38ef\n      eq\n      tag_7\n      jumpi\n      dup1\n      0xafe13a62\n      eq\n      tag_8\n      jumpi\n      dup1\n      0xd09ef241\n      eq\n      tag_9\n      jumpi\n      jump(tag_2)\n    tag_10:\n      dup1\n      0x3c540687\n      eq\n      tag_3\n      jumpi\n      dup1\n      0x577dc0a0\n      eq\n      tag_4\n      jumpi\n      dup1\n      0x6d9a65d8\n      eq\n      tag_5\n      jumpi\n    tag_2:\n      0x00\n      dup1\n      revert\n        /* \"contracts/Modifiers.sol\":403:425  uint256 public txCount */\n    tag_3:\n      tag_11\n      tag_12\n      jump\t// in\n    tag_11:\n      mload(0x40)\n      tag_13\n      swap2\n      swap1\n      tag_14\n      jump\t// in\n    tag_13:\n      mload(0x40)\n      dup1\n      swap2\n      sub\n      swap1\n      return\n        /* \"contracts/Modifiers.sol\":1830:2207  function updateZip(uint256 _orderId, string memory _zip) onlyCustomer(_orderId) incTx checkOrderId(_orderId) external {... */\n    tag_4:\n      tag_15\n      0x04\n      dup1\n      calldatasize\n      sub\n      dup2\n      add\n      swap1\n      tag_16\n      swap2\n      swap1\n      tag_17\n      jump\t// in\n    tag_16:\n      tag_18\n      jump\t// in\n    tag_15:\n      stop\n        /* \"contracts/Modifiers.sol\":493:942  function createOrder(string memory _zipCode, uint256[] memory _products) incTx checkProduct(_products) external returns(uint256) {... */\n    tag_5:\n      tag_19\n      0x04\n      dup1\n      calldatasize\n      sub\n      dup2\n      add\n      swap1\n      tag_20\n      swap2\n      swap1\n      tag_21\n      jump\t// in\n    tag_20:\n      tag_22\n      jump\t// in\n    tag_19:\n      mload(0x40)\n      tag_23\n      swap2\n      swap1\n      tag_14\n      jump\t// in\n    tag_23:\n      mload(0x40)\n      dup1\n      swap2\n      sub\n      swap1\n      return\n        /* \"contracts/Modifiers.sol\":376:396  address public owner */\n    tag_6:\n      tag_24\n      tag_25\n      jump\t// in\n    tag_24:\n      mload(0x40)\n      tag_26\n      swap2\n      swap1\n      tag_27\n      jump\t// in\n    tag_26:\n      mload(0x40)\n      dup1\n      swap2\n      sub\n      swap1\n      return\n        /* \"contracts/Modifiers.sol\":348:369  Order[] public orders */\n    tag_7:\n      tag_28\n      0x04\n      dup1\n      calldatasize\n      sub\n      dup2\n      add\n      swap1\n      tag_29\n      swap2\n      swap1\n      tag_30\n      jump\t// in\n    tag_29:\n      tag_31\n      jump\t// in\n    tag_28:\n      mload(0x40)\n      tag_32\n      swap4\n      swap3\n      swap2\n      swap1\n      tag_33\n      jump\t// in\n    tag_32:\n      mload(0x40)\n      dup1\n      swap2\n      sub\n      swap1\n      return\n        /* \"contracts/Modifiers.sol\":950:1604  function advanceOrder(uint256 _orderId) checkOrderId(_orderId) onlyOwner public {... */\n    tag_8:\n      tag_34\n      0x04\n      dup1\n      calldatasize\n      sub\n      dup2\n      add\n      swap1\n      tag_35\n      swap2\n      swap1\n      tag_30\n      jump\t// in\n    tag_35:\n      tag_36\n      jump\t// in\n    tag_34:\n      stop\n        /* \"contracts/Modifiers.sol\":1612:1822  function getOrder(uint256 _orderId) checkOrderId(_orderId) external view returns(Order memory){... */\n    tag_9:\n      tag_37\n      0x04\n      dup1\n      calldatasize\n      sub\n      dup2\n      add\n      swap1\n      tag_38\n      swap2\n      swap1\n      tag_30\n      jump\t// in\n    tag_38:\n      tag_39\n      jump\t// in\n    tag_37:\n      mload(0x40)\n      tag_40\n      swap2\n      swap1\n      tag_41\n      jump\t// in\n    tag_40:\n      mload(0x40)\n      dup1\n      swap2\n      sub\n      swap1\n      return\n        /* \"contracts/Modifiers.sol\":403:425  uint256 public txCount */\n    tag_12:\n      sload(0x02)\n      dup2\n      jump\t// out\n        /* \"contracts/Modifiers.sol\":1830:2207  function updateZip(uint256 _orderId, string memory _zip) onlyCustomer(_orderId) incTx checkOrderId(_orderId) external {... */\n    tag_18:\n        /* \"contracts/Modifiers.sol\":1900:1908  _orderId */\n      dup2\n        /* \"contracts/Modifiers.sol\":2750:2760  msg.sender */\n      caller\n        /* \"contracts/Modifiers.sol\":2721:2760  orders[_orderId].customer == msg.sender */\n      0xffffffffffffffffffffffffffffffffffffffff\n      and\n        /* \"contracts/Modifiers.sol\":2721:2727  orders */\n      0x00\n        /* \"contracts/Modifiers.sol\":2728:2736  _orderId */\n      dup3\n        /* \"contracts/Modifiers.sol\":2721:2737  orders[_orderId] */\n      dup2\n      sload\n      dup2\n      lt\n      tag_43\n      jumpi\n      tag_44\n      tag_45\n      jump\t// in\n    tag_44:\n    tag_43:\n      swap1\n      0x00\n      mstore\n      keccak256(0x00, 0x20)\n      swap1\n      0x04\n      mul\n      add\n        /* \"contracts/Modifiers.sol\":2721:2746  orders[_orderId].customer */\n      0x00\n      add\n      0x00\n      swap1\n      sload\n      swap1\n      0x0100\n      exp\n      swap1\n      div\n      0xffffffffffffffffffffffffffffffffffffffff\n      and\n        /* \"contracts/Modifiers.sol\":2721:2760  orders[_orderId].customer == msg.sender */\n      0xffffffffffffffffffffffffffffffffffffffff\n      and\n      eq\n        /* \"contracts/Modifiers.sol\":2713:2799  require(orders[_orderId].customer == msg.sender, \"You are not the owner of the order\") */\n      tag_47\n      jumpi\n      mload(0x40)\n      0x08c379a000000000000000000000000000000000000000000000000000000000\n      dup2\n      mstore\n      0x04\n      add\n      tag_48\n      swap1\n      tag_49\n      jump\t// in\n    tag_48:\n      mload(0x40)\n      dup1\n      swap2\n      sub\n      swap1\n      revert\n    tag_47:\n        /* \"contracts/Modifiers.sol\":1929:1937  _orderId */\n      dup3\n        /* \"contracts/Modifiers.sol\":2419:2425  orders */\n      0x00\n        /* \"contracts/Modifiers.sol\":2419:2432  orders.length */\n      dup1\n      sload\n      swap1\n      pop\n        /* \"contracts/Modifiers.sol\":2408:2416  _orderId */\n      dup2\n        /* \"contracts/Modifiers.sol\":2408:2432  _orderId < orders.length */\n      lt\n        /* \"contracts/Modifiers.sol\":2400:2458  require(_orderId < orders.length, \"Not a valid order id.\") */\n      tag_52\n      jumpi\n      mload(0x40)\n      0x08c379a000000000000000000000000000000000000000000000000000000000\n      dup2\n      mstore\n      0x04\n      add\n      tag_53\n      swap1\n      tag_54\n      jump\t// in\n    tag_53:\n      mload(0x40)\n      dup1\n      swap2\n      sub\n      swap1\n      revert\n    tag_52:\n        /* \"contracts/Modifiers.sol\":2041:2060  Order storage order */\n      0x00\n        /* \"contracts/Modifiers.sol\":2063:2069  orders */\n      dup1\n        /* \"contracts/Modifiers.sol\":2070:2078  _orderId */\n      dup6\n        /* \"contracts/Modifiers.sol\":2063:2079  orders[_orderId] */\n      dup2\n      sload\n      dup2\n      lt\n      tag_56\n      jumpi\n      tag_57\n      tag_45\n      jump\t// in\n    tag_57:\n    tag_56:\n      swap1\n      0x00\n      mstore\n      keccak256(0x00, 0x20)\n      swap1\n      0x04\n      mul\n      add\n        /* \"contracts/Modifiers.sol\":2041:2079  Order storage order = orders[_orderId] */\n      swap1\n      pop\n        /* \"contracts/Modifiers.sol\":2195:2199  _zip */\n      dup4\n        /* \"contracts/Modifiers.sol\":2179:2184  order */\n      dup2\n        /* \"contracts/Modifiers.sol\":2179:2192  order.zipCode */\n      0x01\n      add\n        /* \"contracts/Modifiers.sol\":2179:2199  order.zipCode = _zip */\n      swap1\n      dup2\n      tag_59\n      swap2\n      swap1\n      tag_60\n      jump\t// in\n    tag_59:\n      pop\n        /* \"contracts/Modifiers.sol\":1948:2207  {... */\n      pop\n        /* \"contracts/Modifiers.sol\":2512:2513  _ */\n      pop\n        /* \"contracts/Modifiers.sol\":2524:2531  txCount */\n      0x02\n      0x00\n        /* \"contracts/Modifiers.sol\":2524:2533  txCount++ */\n      dup2\n      sload\n      dup1\n      swap3\n      swap2\n      swap1\n      tag_61\n      swap1\n      tag_62\n      jump\t// in\n    tag_61:\n      swap2\n      swap1\n      pop\n      sstore\n      pop\n        /* \"contracts/Modifiers.sol\":1830:2207  function updateZip(uint256 _orderId, string memory _zip) onlyCustomer(_orderId) incTx checkOrderId(_orderId) external {... */\n      pop\n      pop\n      pop\n      jump\t// out\n        /* \"contracts/Modifiers.sol\":493:942  function createOrder(string memory _zipCode, uint256[] memory _products) incTx checkProduct(_products) external returns(uint256) {... */\n    tag_22:\n        /* \"contracts/Modifiers.sol\":613:620  uint256 */\n      0x00\n        /* \"contracts/Modifiers.sol\":585:594  _products */\n      dup2\n        /* \"contracts/Modifiers.sol\":2303:2304  0 */\n      0x00\n        /* \"contracts/Modifiers.sol\":2284:2293  _products */\n      dup2\n        /* \"contracts/Modifiers.sol\":2284:2300  _products.length */\n      mload\n        /* \"contracts/Modifiers.sol\":2284:2304  _products.length > 0 */\n      gt\n        /* \"contracts/Modifiers.sol\":2276:2321  require(_products.length > 0, \"No products.\") */\n      tag_65\n      jumpi\n      mload(0x40)\n      0x08c379a000000000000000000000000000000000000000000000000000000000\n      dup2\n      mstore\n      0x04\n      add\n      tag_66\n      swap1\n      tag_67\n      jump\t// in\n    tag_66:\n      mload(0x40)\n      dup1\n      swap2\n      sub\n      swap1\n      revert\n    tag_65:\n        /* \"contracts/Modifiers.sol\":694:713  Order memory _order */\n      tag_69\n      tag_70\n      jump\t// in\n    tag_69:\n        /* \"contracts/Modifiers.sol\":742:752  msg.sender */\n      caller\n        /* \"contracts/Modifiers.sol\":724:730  _order */\n      dup2\n        /* \"contracts/Modifiers.sol\":724:739  _order.customer */\n      0x00\n      add\n        /* \"contracts/Modifiers.sol\":724:752  _order.customer = msg.sender */\n      swap1\n      0xffffffffffffffffffffffffffffffffffffffff\n      and\n      swap1\n      dup2\n      0xffffffffffffffffffffffffffffffffffffffff\n      and\n      dup2\n      mstore\n      pop\n      pop\n        /* \"contracts/Modifiers.sol\":780:788  _zipCode */\n      dup5\n        /* \"contracts/Modifiers.sol\":763:769  _order */\n      dup2\n        /* \"contracts/Modifiers.sol\":763:777  _order.zipCode */\n      0x20\n      add\n        /* \"contracts/Modifiers.sol\":763:788  _order.zipCode = _zipCode */\n      dup2\n      swap1\n      mstore\n      pop\n        /* \"contracts/Modifiers.sol\":817:826  _products */\n      dup4\n        /* \"contracts/Modifiers.sol\":799:805  _order */\n      dup2\n        /* \"contracts/Modifiers.sol\":799:814  _order.products */\n      0x40\n      add\n        /* \"contracts/Modifiers.sol\":799:826  _order.products = _products */\n      dup2\n      swap1\n      mstore\n      pop\n        /* \"contracts/Modifiers.sol\":853:865  Status.Taken */\n      0x00\n        /* \"contracts/Modifiers.sol\":837:843  _order */\n      dup2\n        /* \"contracts/Modifiers.sol\":837:850  _order.status */\n      0x60\n      add\n        /* \"contracts/Modifiers.sol\":837:865  _order.status = Status.Taken */\n      swap1\n      0x03\n      dup2\n      gt\n      iszero\n      tag_71\n      jumpi\n      tag_72\n      tag_73\n      jump\t// in\n    tag_72:\n    tag_71:\n      swap1\n      dup2\n      0x03\n      dup2\n      gt\n      iszero\n      tag_74\n      jumpi\n      tag_75\n      tag_73\n      jump\t// in\n    tag_75:\n    tag_74:\n      dup2\n      mstore\n      pop\n      pop\n        /* \"contracts/Modifiers.sol\":878:884  orders */\n      0x00\n        /* \"contracts/Modifiers.sol\":890:896  _order */\n      dup2\n        /* \"contracts/Modifiers.sol\":878:897  orders.push(_order) */\n      swap1\n      dup1\n      0x01\n      dup2\n      sload\n      add\n      dup1\n      dup3\n      sstore\n      dup1\n      swap2\n      pop\n      pop\n      0x01\n      swap1\n      sub\n      swap1\n      0x00\n      mstore\n      keccak256(0x00, 0x20)\n      swap1\n      0x04\n      mul\n      add\n      0x00\n      swap1\n      swap2\n      swap1\n      swap2\n      swap1\n      swap2\n      pop\n      0x00\n      dup3\n      add\n      mload\n      dup2\n      0x00\n      add\n      exp(0x0100, 0x00)\n      dup2\n      sload\n      dup2\n      0xffffffffffffffffffffffffffffffffffffffff\n      mul\n      not\n      and\n      swap1\n      dup4\n      0xffffffffffffffffffffffffffffffffffffffff\n      and\n      mul\n      or\n      swap1\n      sstore\n      pop\n      0x20\n      dup3\n      add\n      mload\n      dup2\n      0x01\n      add\n      swap1\n      dup2\n      tag_77\n      swap2\n      swap1\n      tag_60\n      jump\t// in\n    tag_77:\n      pop\n      0x40\n      dup3\n      add\n      mload\n      dup2\n      0x02\n      add\n      swap1\n      dup1\n      mload\n      swap1\n      0x20\n      add\n      swap1\n      tag_78\n      swap3\n      swap2\n      swap1\n      tag_79\n      jump\t// in\n    tag_78:\n      pop\n      0x60\n      dup3\n      add\n      mload\n      dup2\n      0x03\n      add\n      exp(0x0100, 0x00)\n      dup2\n      sload\n      dup2\n      0xff\n      mul\n      not\n      and\n      swap1\n      dup4\n      0x03\n      dup2\n      gt\n      iszero\n      tag_80\n      jumpi\n      tag_81\n      tag_73\n      jump\t// in\n    tag_81:\n    tag_80:\n      mul\n      or\n      swap1\n      sstore\n      pop\n      pop\n      pop\n        /* \"contracts/Modifiers.sol\":933:934  1 */\n      0x01\n        /* \"contracts/Modifiers.sol\":917:923  orders */\n      0x00\n        /* \"contracts/Modifiers.sol\":917:930  orders.length */\n      dup1\n      sload\n      swap1\n      pop\n        /* \"contracts/Modifiers.sol\":917:934  orders.length - 1 */\n      tag_82\n      swap2\n      swap1\n      tag_83\n      jump\t// in\n    tag_82:\n        /* \"contracts/Modifiers.sol\":910:934  return orders.length - 1 */\n      swap3\n      pop\n      pop\n        /* \"contracts/Modifiers.sol\":2512:2513  _ */\n      pop\n        /* \"contracts/Modifiers.sol\":2524:2531  txCount */\n      0x02\n      0x00\n        /* \"contracts/Modifiers.sol\":2524:2533  txCount++ */\n      dup2\n      sload\n      dup1\n      swap3\n      swap2\n      swap1\n      tag_84\n      swap1\n      tag_62\n      jump\t// in\n    tag_84:\n      swap2\n      swap1\n      pop\n      sstore\n      pop\n        /* \"contracts/Modifiers.sol\":493:942  function createOrder(string memory _zipCode, uint256[] memory _products) incTx checkProduct(_products) external returns(uint256) {... */\n      swap3\n      swap2\n      pop\n      pop\n      jump\t// out\n        /* \"contracts/Modifiers.sol\":376:396  address public owner */\n    tag_25:\n      0x01\n      0x00\n      swap1\n      sload\n      swap1\n      0x0100\n      exp\n      swap1\n      div\n      0xffffffffffffffffffffffffffffffffffffffff\n      and\n      dup2\n      jump\t// out\n        /* \"contracts/Modifiers.sol\":348:369  Order[] public orders */\n    tag_31:\n      0x00\n      dup2\n      dup2\n      sload\n      dup2\n      lt\n      tag_85\n      jumpi\n      0x00\n      dup1\n      revert\n    tag_85:\n      swap1\n      0x00\n      mstore\n      keccak256(0x00, 0x20)\n      swap1\n      0x04\n      mul\n      add\n      0x00\n      swap2\n      pop\n      swap1\n      pop\n      dup1\n      0x00\n      add\n      0x00\n      swap1\n      sload\n      swap1\n      0x0100\n      exp\n      swap1\n      div\n      0xffffffffffffffffffffffffffffffffffffffff\n      and\n      swap1\n      dup1\n      0x01\n      add\n      dup1\n      sload\n      tag_87\n      swap1\n      tag_88\n      jump\t// in\n    tag_87:\n      dup1\n      0x1f\n      add\n      0x20\n      dup1\n      swap2\n      div\n      mul\n      0x20\n      add\n      mload(0x40)\n      swap1\n      dup2\n      add\n      0x40\n      mstore\n      dup1\n      swap3\n      swap2\n      swap1\n      dup2\n      dup2\n      mstore\n      0x20\n      add\n      dup3\n      dup1\n      sload\n      tag_89\n      swap1\n      tag_88\n      jump\t// in\n    tag_89:\n      dup1\n      iszero\n      tag_90\n      jumpi\n      dup1\n      0x1f\n      lt\n      tag_91\n      jumpi\n      0x0100\n      dup1\n      dup4\n      sload\n      div\n      mul\n      dup4\n      mstore\n      swap2\n      0x20\n      add\n      swap2\n      jump(tag_90)\n    tag_91:\n      dup3\n      add\n      swap2\n      swap1\n      0x00\n      mstore\n      keccak256(0x00, 0x20)\n      swap1\n    tag_92:\n      dup2\n      sload\n      dup2\n      mstore\n      swap1\n      0x01\n      add\n      swap1\n      0x20\n      add\n      dup1\n      dup4\n      gt\n      tag_92\n      jumpi\n      dup3\n      swap1\n      sub\n      0x1f\n      and\n      dup3\n      add\n      swap2\n    tag_90:\n      pop\n      pop\n      pop\n      pop\n      pop\n      swap1\n      dup1\n      0x03\n      add\n      0x00\n      swap1\n      sload\n      swap1\n      0x0100\n      exp\n      swap1\n      div\n      0xff\n      and\n      swap1\n      pop\n      dup4\n      jump\t// out\n        /* \"contracts/Modifiers.sol\":950:1604  function advanceOrder(uint256 _orderId) checkOrderId(_orderId) onlyOwner public {... */\n    tag_36:\n        /* \"contracts/Modifiers.sol\":1003:1011  _orderId */\n      dup1\n        /* \"contracts/Modifiers.sol\":2419:2425  orders */\n      0x00\n        /* \"contracts/Modifiers.sol\":2419:2432  orders.length */\n      dup1\n      sload\n      swap1\n      pop\n        /* \"contracts/Modifiers.sol\":2408:2416  _orderId */\n      dup2\n        /* \"contracts/Modifiers.sol\":2408:2432  _orderId < orders.length */\n      lt\n        /* \"contracts/Modifiers.sol\":2400:2458  require(_orderId < orders.length, \"Not a valid order id.\") */\n      tag_94\n      jumpi\n      mload(0x40)\n      0x08c379a000000000000000000000000000000000000000000000000000000000\n      dup2\n      mstore\n      0x04\n      add\n      tag_95\n      swap1\n      tag_54\n      jump\t// in\n    tag_95:\n      mload(0x40)\n      dup1\n      swap2\n      sub\n      swap1\n      revert\n    tag_94:\n        /* \"contracts/Modifiers.sol\":2601:2606  owner */\n      0x01\n      0x00\n      swap1\n      sload\n      swap1\n      0x0100\n      exp\n      swap1\n      div\n      0xffffffffffffffffffffffffffffffffffffffff\n      and\n        /* \"contracts/Modifiers.sol\":2587:2606  msg.sender == owner */\n      0xffffffffffffffffffffffffffffffffffffffff\n      and\n        /* \"contracts/Modifiers.sol\":2587:2597  msg.sender */\n      caller\n        /* \"contracts/Modifiers.sol\":2587:2606  msg.sender == owner */\n      0xffffffffffffffffffffffffffffffffffffffff\n      and\n      eq\n        /* \"contracts/Modifiers.sol\":2579:2634  require(msg.sender == owner, \"You are not authorized.\") */\n      tag_97\n      jumpi\n      mload(0x40)\n      0x08c379a000000000000000000000000000000000000000000000000000000000\n      dup2\n      mstore\n      0x04\n      add\n      tag_98\n      swap1\n      tag_99\n      jump\t// in\n    tag_98:\n      mload(0x40)\n      dup1\n      swap2\n      sub\n      swap1\n      revert\n    tag_97:\n        /* \"contracts/Modifiers.sol\":1184:1203  Order storage order */\n      0x00\n        /* \"contracts/Modifiers.sol\":1206:1212  orders */\n      dup1\n        /* \"contracts/Modifiers.sol\":1213:1221  _orderId */\n      dup4\n        /* \"contracts/Modifiers.sol\":1206:1222  orders[_orderId] */\n      dup2\n      sload\n      dup2\n      lt\n      tag_101\n      jumpi\n      tag_102\n      tag_45\n      jump\t// in\n    tag_102:\n    tag_101:\n      swap1\n      0x00\n      mstore\n      keccak256(0x00, 0x20)\n      swap1\n      0x04\n      mul\n      add\n        /* \"contracts/Modifiers.sol\":1184:1222  Order storage order = orders[_orderId] */\n      swap1\n      pop\n        /* \"contracts/Modifiers.sol\":1257:1271  Status.Shipped */\n      0x03\n        /* \"contracts/Modifiers.sol\":1241:1271  order.status != Status.Shipped */\n      dup1\n      dup2\n      gt\n      iszero\n      tag_104\n      jumpi\n      tag_105\n      tag_73\n      jump\t// in\n    tag_105:\n    tag_104:\n        /* \"contracts/Modifiers.sol\":1241:1246  order */\n      dup2\n        /* \"contracts/Modifiers.sol\":1241:1253  order.status */\n      0x03\n      add\n      0x00\n      swap1\n      sload\n      swap1\n      0x0100\n      exp\n      swap1\n      div\n      0xff\n      and\n        /* \"contracts/Modifiers.sol\":1241:1271  order.status != Status.Shipped */\n      0x03\n      dup2\n      gt\n      iszero\n      tag_106\n      jumpi\n      tag_107\n      tag_73\n      jump\t// in\n    tag_107:\n    tag_106:\n      sub\n        /* \"contracts/Modifiers.sol\":1233:1301  require(order.status != Status.Shipped, \"Order is already shipped.\") */\n      tag_108\n      jumpi\n      mload(0x40)\n      0x08c379a000000000000000000000000000000000000000000000000000000000\n      dup2\n      mstore\n      0x04\n      add\n      tag_109\n      swap1\n      tag_110\n      jump\t// in\n    tag_109:\n      mload(0x40)\n      dup1\n      swap2\n      sub\n      swap1\n      revert\n    tag_108:\n        /* \"contracts/Modifiers.sol\":1334:1346  Status.Taken */\n      0x00\n        /* \"contracts/Modifiers.sol\":1318:1346  order.status == Status.Taken */\n      0x03\n      dup2\n      gt\n      iszero\n      tag_111\n      jumpi\n      tag_112\n      tag_73\n      jump\t// in\n    tag_112:\n    tag_111:\n        /* \"contracts/Modifiers.sol\":1318:1323  order */\n      dup2\n        /* \"contracts/Modifiers.sol\":1318:1330  order.status */\n      0x03\n      add\n      0x00\n      swap1\n      sload\n      swap1\n      0x0100\n      exp\n      swap1\n      div\n      0xff\n      and\n        /* \"contracts/Modifiers.sol\":1318:1346  order.status == Status.Taken */\n      0x03\n      dup2\n      gt\n      iszero\n      tag_113\n      jumpi\n      tag_114\n      tag_73\n      jump\t// in\n    tag_114:\n    tag_113:\n      sub\n        /* \"contracts/Modifiers.sol\":1314:1597  if (order.status == Status.Taken){... */\n      tag_115\n      jumpi\n        /* \"contracts/Modifiers.sol\":1377:1393  Status.Preparing */\n      0x01\n        /* \"contracts/Modifiers.sol\":1362:1367  order */\n      dup2\n        /* \"contracts/Modifiers.sol\":1362:1374  order.status */\n      0x03\n      add\n      0x00\n        /* \"contracts/Modifiers.sol\":1362:1393  order.status = Status.Preparing */\n      0x0100\n      exp\n      dup2\n      sload\n      dup2\n      0xff\n      mul\n      not\n      and\n      swap1\n      dup4\n      0x03\n      dup2\n      gt\n      iszero\n      tag_116\n      jumpi\n      tag_117\n      tag_73\n      jump\t// in\n    tag_117:\n    tag_116:\n      mul\n      or\n      swap1\n      sstore\n      pop\n        /* \"contracts/Modifiers.sol\":1314:1597  if (order.status == Status.Taken){... */\n      jump(tag_118)\n    tag_115:\n        /* \"contracts/Modifiers.sol\":1431:1447  Status.Preparing */\n      0x01\n        /* \"contracts/Modifiers.sol\":1415:1447  order.status == Status.Preparing */\n      0x03\n      dup2\n      gt\n      iszero\n      tag_119\n      jumpi\n      tag_120\n      tag_73\n      jump\t// in\n    tag_120:\n    tag_119:\n        /* \"contracts/Modifiers.sol\":1415:1420  order */\n      dup2\n        /* \"contracts/Modifiers.sol\":1415:1427  order.status */\n      0x03\n      add\n      0x00\n      swap1\n      sload\n      swap1\n      0x0100\n      exp\n      swap1\n      div\n      0xff\n      and\n        /* \"contracts/Modifiers.sol\":1415:1447  order.status == Status.Preparing */\n      0x03\n      dup2\n      gt\n      iszero\n      tag_121\n      jumpi\n      tag_122\n      tag_73\n      jump\t// in\n    tag_122:\n    tag_121:\n      sub\n        /* \"contracts/Modifiers.sol\":1411:1597  if (order.status == Status.Preparing){... */\n      tag_123\n      jumpi\n        /* \"contracts/Modifiers.sol\":1478:1490  Status.Boxed */\n      0x02\n        /* \"contracts/Modifiers.sol\":1463:1468  order */\n      dup2\n        /* \"contracts/Modifiers.sol\":1463:1475  order.status */\n      0x03\n      add\n      0x00\n        /* \"contracts/Modifiers.sol\":1463:1490  order.status = Status.Boxed */\n      0x0100\n      exp\n      dup2\n      sload\n      dup2\n      0xff\n      mul\n      not\n      and\n      swap1\n      dup4\n      0x03\n      dup2\n      gt\n      iszero\n      tag_124\n      jumpi\n      tag_125\n      tag_73\n      jump\t// in\n    tag_125:\n    tag_124:\n      mul\n      or\n      swap1\n      sstore\n      pop\n        /* \"contracts/Modifiers.sol\":1411:1597  if (order.status == Status.Preparing){... */\n      jump(tag_126)\n    tag_123:\n        /* \"contracts/Modifiers.sol\":1528:1540  Status.Boxed */\n      0x02\n        /* \"contracts/Modifiers.sol\":1512:1540  order.status == Status.Boxed */\n      0x03\n      dup2\n      gt\n      iszero\n      tag_127\n      jumpi\n      tag_128\n      tag_73\n      jump\t// in\n    tag_128:\n    tag_127:\n        /* \"contracts/Modifiers.sol\":1512:1517  order */\n      dup2\n        /* \"contracts/Modifiers.sol\":1512:1524  order.status */\n      0x03\n      add\n      0x00\n      swap1\n      sload\n      swap1\n      0x0100\n      exp\n      swap1\n      div\n      0xff\n      and\n        /* \"contracts/Modifiers.sol\":1512:1540  order.status == Status.Boxed */\n      0x03\n      dup2\n      gt\n      iszero\n      tag_129\n      jumpi\n      tag_130\n      tag_73\n      jump\t// in\n    tag_130:\n    tag_129:\n      sub\n        /* \"contracts/Modifiers.sol\":1508:1597  if (order.status == Status.Boxed){... */\n      tag_131\n      jumpi\n        /* \"contracts/Modifiers.sol\":1571:1585  Status.Shipped */\n      0x03\n        /* \"contracts/Modifiers.sol\":1556:1561  order */\n      dup2\n        /* \"contracts/Modifiers.sol\":1556:1568  order.status */\n      0x03\n      add\n      0x00\n        /* \"contracts/Modifiers.sol\":1556:1585  order.status = Status.Shipped */\n      0x0100\n      exp\n      dup2\n      sload\n      dup2\n      0xff\n      mul\n      not\n      and\n      swap1\n      dup4\n      0x03\n      dup2\n      gt\n      iszero\n      tag_132\n      jumpi\n      tag_133\n      tag_73\n      jump\t// in\n    tag_133:\n    tag_132:\n      mul\n      or\n      swap1\n      sstore\n      pop\n        /* \"contracts/Modifiers.sol\":1508:1597  if (order.status == Status.Boxed){... */\n    tag_131:\n        /* \"contracts/Modifiers.sol\":1411:1597  if (order.status == Status.Preparing){... */\n    tag_126:\n        /* \"contracts/Modifiers.sol\":1314:1597  if (order.status == Status.Taken){... */\n    tag_118:\n        /* \"contracts/Modifiers.sol\":1030:1604  {... */\n      pop\n        /* \"contracts/Modifiers.sol\":950:1604  function advanceOrder(uint256 _orderId) checkOrderId(_orderId) onlyOwner public {... */\n      pop\n      pop\n      jump\t// out\n        /* \"contracts/Modifiers.sol\":1612:1822  function getOrder(uint256 _orderId) checkOrderId(_orderId) external view returns(Order memory){... */\n    tag_39:\n        /* \"contracts/Modifiers.sol\":1693:1705  Order memory */\n      tag_134\n      tag_70\n      jump\t// in\n    tag_134:\n        /* \"contracts/Modifiers.sol\":1661:1669  _orderId */\n      dup2\n        /* \"contracts/Modifiers.sol\":2419:2425  orders */\n      0x00\n        /* \"contracts/Modifiers.sol\":2419:2432  orders.length */\n      dup1\n      sload\n      swap1\n      pop\n        /* \"contracts/Modifiers.sol\":2408:2416  _orderId */\n      dup2\n        /* \"contracts/Modifiers.sol\":2408:2432  _orderId < orders.length */\n      lt\n        /* \"contracts/Modifiers.sol\":2400:2458  require(_orderId < orders.length, \"Not a valid order id.\") */\n      tag_136\n      jumpi\n      mload(0x40)\n      0x08c379a000000000000000000000000000000000000000000000000000000000\n      dup2\n      mstore\n      0x04\n      add\n      tag_137\n      swap1\n      tag_54\n      jump\t// in\n    tag_137:\n      mload(0x40)\n      dup1\n      swap2\n      sub\n      swap1\n      revert\n    tag_136:\n        /* \"contracts/Modifiers.sol\":1798:1804  orders */\n      0x00\n        /* \"contracts/Modifiers.sol\":1805:1813  _orderId */\n      dup4\n        /* \"contracts/Modifiers.sol\":1798:1814  orders[_orderId] */\n      dup2\n      sload\n      dup2\n      lt\n      tag_139\n      jumpi\n      tag_140\n      tag_45\n      jump\t// in\n    tag_140:\n    tag_139:\n      swap1\n      0x00\n      mstore\n      keccak256(0x00, 0x20)\n      swap1\n      0x04\n      mul\n      add\n        /* \"contracts/Modifiers.sol\":1791:1814  return orders[_orderId] */\n      mload(0x40)\n      dup1\n      0x80\n      add\n      0x40\n      mstore\n      swap1\n      dup2\n      0x00\n      dup3\n      add\n      0x00\n      swap1\n      sload\n      swap1\n      0x0100\n      exp\n      swap1\n      div\n      0xffffffffffffffffffffffffffffffffffffffff\n      and\n      0xffffffffffffffffffffffffffffffffffffffff\n      and\n      0xffffffffffffffffffffffffffffffffffffffff\n      and\n      dup2\n      mstore\n      0x20\n      add\n      0x01\n      dup3\n      add\n      dup1\n      sload\n      tag_142\n      swap1\n      tag_88\n      jump\t// in\n    tag_142:\n      dup1\n      0x1f\n      add\n      0x20\n      dup1\n      swap2\n      div\n      mul\n      0x20\n      add\n      mload(0x40)\n      swap1\n      dup2\n      add\n      0x40\n      mstore\n      dup1\n      swap3\n      swap2\n      swap1\n      dup2\n      dup2\n      mstore\n      0x20\n      add\n      dup3\n      dup1\n      sload\n      tag_143\n      swap1\n      tag_88\n      jump\t// in\n    tag_143:\n      dup1\n      iszero\n      tag_144\n      jumpi\n      dup1\n      0x1f\n      lt\n      tag_145\n      jumpi\n      0x0100\n      dup1\n      dup4\n      sload\n      div\n      mul\n      dup4\n      mstore\n      swap2\n      0x20\n      add\n      swap2\n      jump(tag_144)\n    tag_145:\n      dup3\n      add\n      swap2\n      swap1\n      0x00\n      mstore\n      keccak256(0x00, 0x20)\n      swap1\n    tag_146:\n      dup2\n      sload\n      dup2\n      mstore\n      swap1\n      0x01\n      add\n      swap1\n      0x20\n      add\n      dup1\n      dup4\n      gt\n      tag_146\n      jumpi\n      dup3\n      swap1\n      sub\n      0x1f\n      and\n      dup3\n      add\n      swap2\n    tag_144:\n      pop\n      pop\n      pop\n      pop\n      pop\n      dup2\n      mstore\n      0x20\n      add\n      0x02\n      dup3\n      add\n      dup1\n      sload\n      dup1\n      0x20\n      mul\n      0x20\n      add\n      mload(0x40)\n      swap1\n      dup2\n      add\n      0x40\n      mstore\n      dup1\n      swap3\n      swap2\n      swap1\n      dup2\n      dup2\n      mstore\n      0x20\n      add\n      dup3\n      dup1\n      sload\n      dup1\n      iszero\n      tag_147\n      jumpi\n      0x20\n      mul\n      dup3\n      add\n      swap2\n      swap1\n      0x00\n      mstore\n      keccak256(0x00, 0x20)\n      swap1\n    tag_148:\n      dup2\n      sload\n      dup2\n      mstore\n      0x20\n      add\n      swap1\n      0x01\n      add\n      swap1\n      dup1\n      dup4\n      gt\n      tag_148\n      jumpi\n    tag_147:\n      pop\n      pop\n      pop\n      pop\n      pop\n      dup2\n      mstore\n      0x20\n      add\n      0x03\n      dup3\n      add\n      0x00\n      swap1\n      sload\n      swap1\n      0x0100\n      exp\n      swap1\n      div\n      0xff\n      and\n      0x03\n      dup2\n      gt\n      iszero\n      tag_149\n      jumpi\n      tag_150\n      tag_73\n      jump\t// in\n    tag_150:\n    tag_149:\n      0x03\n      dup2\n      gt\n      iszero\n      tag_151\n      jumpi\n      tag_152\n      tag_73\n      jump\t// in\n    tag_152:\n    tag_151:\n      dup2\n      mstore\n      pop\n      pop\n      swap2\n      pop\n        /* \"contracts/Modifiers.sol\":1612:1822  function getOrder(uint256 _orderId) checkOrderId(_orderId) external view returns(Order memory){... */\n      pop\n      swap2\n      swap1\n      pop\n      jump\t// out\n    tag_70:\n      mload(0x40)\n      dup1\n      0x80\n      add\n      0x40\n      mstore\n      dup1\n      and(0xffffffffffffffffffffffffffffffffffffffff, 0x00)\n      dup2\n      mstore\n      0x20\n      add\n      0x60\n      dup2\n      mstore\n      0x20\n      add\n      0x60\n      dup2\n      mstore\n      0x20\n      add\n      0x00\n      0x03\n      dup2\n      gt\n      iszero\n      tag_153\n      jumpi\n      tag_154\n      tag_73\n      jump\t// in\n    tag_154:\n    tag_153:\n      dup2\n      mstore\n      pop\n      swap1\n      jump\t// out\n    tag_79:\n      dup3\n      dup1\n      sload\n      dup3\n      dup3\n      sstore\n      swap1\n      0x00\n      mstore\n      keccak256(0x00, 0x20)\n      swap1\n      dup2\n      add\n      swap3\n      dup3\n      iszero\n      tag_155\n      jumpi\n      swap2\n      0x20\n      mul\n      dup3\n      add\n    tag_156:\n      dup3\n      dup2\n      gt\n      iszero\n      tag_157\n      jumpi\n      dup3\n      mload\n      dup3\n      sstore\n      swap2\n      0x20\n      add\n      swap2\n      swap1\n      0x01\n      add\n      swap1\n      jump(tag_156)\n    tag_157:\n    tag_155:\n      pop\n      swap1\n      pop\n      tag_158\n      swap2\n      swap1\n      tag_159\n      jump\t// in\n    tag_158:\n      pop\n      swap1\n      jump\t// out\n    tag_159:\n    tag_160:\n      dup1\n      dup3\n      gt\n      iszero\n      tag_161\n      jumpi\n      0x00\n      dup2\n      0x00\n      swap1\n      sstore\n      pop\n      0x01\n      add\n      jump(tag_160)\n    tag_161:\n      pop\n      swap1\n      jump\t// out\n        /* \"#utility.yul\":7:84   */\n    tag_162:\n        /* \"#utility.yul\":44:51   */\n      0x00\n        /* \"#utility.yul\":73:78   */\n      dup2\n        /* \"#utility.yul\":62:78   */\n      swap1\n      pop\n        /* \"#utility.yul\":7:84   */\n      swap2\n      swap1\n      pop\n      jump\t// out\n        /* \"#utility.yul\":90:208   */\n    tag_163:\n        /* \"#utility.yul\":177:201   */\n      tag_236\n        /* \"#utility.yul\":195:200   */\n      dup2\n        /* \"#utility.yul\":177:201   */\n      tag_162\n      jump\t// in\n    tag_236:\n        /* \"#utility.yul\":172:175   */\n      dup3\n        /* \"#utility.yul\":165:202   */\n      mstore\n        /* \"#utility.yul\":90:208   */\n      pop\n      pop\n      jump\t// out\n        /* \"#utility.yul\":214:436   */\n    tag_14:\n        /* \"#utility.yul\":307:311   */\n      0x00\n        /* \"#utility.yul\":345:347   */\n      0x20\n        /* \"#utility.yul\":334:343   */\n      dup3\n        /* \"#utility.yul\":330:348   */\n      add\n        /* \"#utility.yul\":322:348   */\n      swap1\n      pop\n        /* \"#utility.yul\":358:429   */\n      tag_238\n        /* \"#utility.yul\":426:427   */\n      0x00\n        /* \"#utility.yul\":415:424   */\n      dup4\n        /* \"#utility.yul\":411:428   */\n      add\n        /* \"#utility.yul\":402:408   */\n      dup5\n        /* \"#utility.yul\":358:429   */\n      tag_163\n      jump\t// in\n    tag_238:\n        /* \"#utility.yul\":214:436   */\n      swap3\n      swap2\n      pop\n      pop\n      jump\t// out\n        /* \"#utility.yul\":442:517   */\n    tag_164:\n        /* \"#utility.yul\":475:481   */\n      0x00\n        /* \"#utility.yul\":508:510   */\n      0x40\n        /* \"#utility.yul\":502:511   */\n      mload\n        /* \"#utility.yul\":492:511   */\n      swap1\n      pop\n        /* \"#utility.yul\":442:517   */\n      swap1\n      jump\t// out\n        /* \"#utility.yul\":523:640   */\n    tag_165:\n        /* \"#utility.yul\":632:633   */\n      0x00\n        /* \"#utility.yul\":629:630   */\n      dup1\n        /* \"#utility.yul\":622:634   */\n      revert\n        /* \"#utility.yul\":646:763   */\n    tag_166:\n        /* \"#utility.yul\":755:756   */\n      0x00\n        /* \"#utility.yul\":752:753   */\n      dup1\n        /* \"#utility.yul\":745:757   */\n      revert\n        /* \"#utility.yul\":769:891   */\n    tag_167:\n        /* \"#utility.yul\":842:866   */\n      tag_243\n        /* \"#utility.yul\":860:865   */\n      dup2\n        /* \"#utility.yul\":842:866   */\n      tag_162\n      jump\t// in\n    tag_243:\n        /* \"#utility.yul\":835:840   */\n      dup2\n        /* \"#utility.yul\":832:867   */\n      eq\n        /* \"#utility.yul\":822:885   */\n      tag_244\n      jumpi\n        /* \"#utility.yul\":881:882   */\n      0x00\n        /* \"#utility.yul\":878:879   */\n      dup1\n        /* \"#utility.yul\":871:883   */\n      revert\n        /* \"#utility.yul\":822:885   */\n    tag_244:\n        /* \"#utility.yul\":769:891   */\n      pop\n      jump\t// out\n        /* \"#utility.yul\":897:1036   */\n    tag_168:\n        /* \"#utility.yul\":943:948   */\n      0x00\n        /* \"#utility.yul\":981:987   */\n      dup2\n        /* \"#utility.yul\":968:988   */\n      calldataload\n        /* \"#utility.yul\":959:988   */\n      swap1\n      pop\n        /* \"#utility.yul\":997:1030   */\n      tag_246\n        /* \"#utility.yul\":1024:1029   */\n      dup2\n        /* \"#utility.yul\":997:1030   */\n      tag_167\n      jump\t// in\n    tag_246:\n        /* \"#utility.yul\":897:1036   */\n      swap3\n      swap2\n      pop\n      pop\n      jump\t// out\n        /* \"#utility.yul\":1042:1159   */\n    tag_169:\n        /* \"#utility.yul\":1151:1152   */\n      0x00\n        /* \"#utility.yul\":1148:1149   */\n      dup1\n        /* \"#utility.yul\":1141:1153   */\n      revert\n        /* \"#utility.yul\":1165:1282   */\n    tag_170:\n        /* \"#utility.yul\":1274:1275   */\n      0x00\n        /* \"#utility.yul\":1271:1272   */\n      dup1\n        /* \"#utility.yul\":1264:1276   */\n      revert\n        /* \"#utility.yul\":1288:1390   */\n    tag_171:\n        /* \"#utility.yul\":1329:1335   */\n      0x00\n        /* \"#utility.yul\":1380:1382   */\n      0x1f\n        /* \"#utility.yul\":1376:1383   */\n      not\n        /* \"#utility.yul\":1371:1373   */\n      0x1f\n        /* \"#utility.yul\":1364:1369   */\n      dup4\n        /* \"#utility.yul\":1360:1374   */\n      add\n        /* \"#utility.yul\":1356:1384   */\n      and\n        /* \"#utility.yul\":1346:1384   */\n      swap1\n      pop\n        /* \"#utility.yul\":1288:1390   */\n      swap2\n      swap1\n      pop\n      jump\t// out\n        /* \"#utility.yul\":1396:1576   */\n    tag_172:\n        /* \"#utility.yul\":1444:1521   */\n      0x4e487b7100000000000000000000000000000000000000000000000000000000\n        /* \"#utility.yul\":1441:1442   */\n      0x00\n        /* \"#utility.yul\":1434:1522   */\n      mstore\n        /* \"#utility.yul\":1541:1545   */\n      0x41\n        /* \"#utility.yul\":1538:1539   */\n      0x04\n        /* \"#utility.yul\":1531:1546   */\n      mstore\n        /* \"#utility.yul\":1565:1569   */\n      0x24\n        /* \"#utility.yul\":1562:1563   */\n      0x00\n        /* \"#utility.yul\":1555:1570   */\n      revert\n        /* \"#utility.yul\":1582:1863   */\n    tag_173:\n        /* \"#utility.yul\":1665:1692   */\n      tag_252\n        /* \"#utility.yul\":1687:1691   */\n      dup3\n        /* \"#utility.yul\":1665:1692   */\n      tag_171\n      jump\t// in\n    tag_252:\n        /* \"#utility.yul\":1657:1663   */\n      dup2\n        /* \"#utility.yul\":1653:1693   */\n      add\n        /* \"#utility.yul\":1795:1801   */\n      dup2\n        /* \"#utility.yul\":1783:1793   */\n      dup2\n        /* \"#utility.yul\":1780:1802   */\n      lt\n        /* \"#utility.yul\":1759:1777   */\n      0xffffffffffffffff\n        /* \"#utility.yul\":1747:1757   */\n      dup3\n        /* \"#utility.yul\":1744:1778   */\n      gt\n        /* \"#utility.yul\":1741:1803   */\n      or\n        /* \"#utility.yul\":1738:1826   */\n      iszero\n      tag_253\n      jumpi\n        /* \"#utility.yul\":1806:1824   */\n      tag_254\n      tag_172\n      jump\t// in\n    tag_254:\n        /* \"#utility.yul\":1738:1826   */\n    tag_253:\n        /* \"#utility.yul\":1846:1856   */\n      dup1\n        /* \"#utility.yul\":1842:1844   */\n      0x40\n        /* \"#utility.yul\":1835:1857   */\n      mstore\n        /* \"#utility.yul\":1625:1863   */\n      pop\n        /* \"#utility.yul\":1582:1863   */\n      pop\n      pop\n      jump\t// out\n        /* \"#utility.yul\":1869:1998   */\n    tag_174:\n        /* \"#utility.yul\":1903:1909   */\n      0x00\n        /* \"#utility.yul\":1930:1950   */\n      tag_256\n      tag_164\n      jump\t// in\n    tag_256:\n        /* \"#utility.yul\":1920:1950   */\n      swap1\n      pop\n        /* \"#utility.yul\":1959:1992   */\n      tag_257\n        /* \"#utility.yul\":1987:1991   */\n      dup3\n        /* \"#utility.yul\":1979:1985   */\n      dup3\n        /* \"#utility.yul\":1959:1992   */\n      tag_173\n      jump\t// in\n    tag_257:\n        /* \"#utility.yul\":1869:1998   */\n      swap2\n      swap1\n      pop\n      jump\t// out\n        /* \"#utility.yul\":2004:2312   */\n    tag_175:\n        /* \"#utility.yul\":2066:2070   */\n      0x00\n        /* \"#utility.yul\":2156:2174   */\n      0xffffffffffffffff\n        /* \"#utility.yul\":2148:2154   */\n      dup3\n        /* \"#utility.yul\":2145:2175   */\n      gt\n        /* \"#utility.yul\":2142:2198   */\n      iszero\n      tag_259\n      jumpi\n        /* \"#utility.yul\":2178:2196   */\n      tag_260\n      tag_172\n      jump\t// in\n    tag_260:\n        /* \"#utility.yul\":2142:2198   */\n    tag_259:\n        /* \"#utility.yul\":2216:2245   */\n      tag_261\n        /* \"#utility.yul\":2238:2244   */\n      dup3\n        /* \"#utility.yul\":2216:2245   */\n      tag_171\n      jump\t// in\n    tag_261:\n        /* \"#utility.yul\":2208:2245   */\n      swap1\n      pop\n        /* \"#utility.yul\":2300:2304   */\n      0x20\n        /* \"#utility.yul\":2294:2298   */\n      dup2\n        /* \"#utility.yul\":2290:2305   */\n      add\n        /* \"#utility.yul\":2282:2305   */\n      swap1\n      pop\n        /* \"#utility.yul\":2004:2312   */\n      swap2\n      swap1\n      pop\n      jump\t// out\n        /* \"#utility.yul\":2318:2466   */\n    tag_176:\n        /* \"#utility.yul\":2416:2422   */\n      dup3\n        /* \"#utility.yul\":2411:2414   */\n      dup2\n        /* \"#utility.yul\":2406:2409   */\n      dup4\n        /* \"#utility.yul\":2393:2423   */\n      calldatacopy\n        /* \"#utility.yul\":2457:2458   */\n      0x00\n        /* \"#utility.yul\":2448:2454   */\n      dup4\n        /* \"#utility.yul\":2443:2446   */\n      dup4\n        /* \"#utility.yul\":2439:2455   */\n      add\n        /* \"#utility.yul\":2432:2459   */\n      mstore\n        /* \"#utility.yul\":2318:2466   */\n      pop\n      pop\n      pop\n      jump\t// out\n        /* \"#utility.yul\":2472:2897   */\n    tag_177:\n        /* \"#utility.yul\":2550:2555   */\n      0x00\n        /* \"#utility.yul\":2575:2641   */\n      tag_264\n        /* \"#utility.yul\":2591:2640   */\n      tag_265\n        /* \"#utility.yul\":2633:2639   */\n      dup5\n        /* \"#utility.yul\":2591:2640   */\n      tag_175\n      jump\t// in\n    tag_265:\n        /* \"#utility.yul\":2575:2641   */\n      tag_174\n      jump\t// in\n    tag_264:\n        /* \"#utility.yul\":2566:2641   */\n      swap1\n      pop\n        /* \"#utility.yul\":2664:2670   */\n      dup3\n        /* \"#utility.yul\":2657:2662   */\n      dup2\n        /* \"#utility.yul\":2650:2671   */\n      mstore\n        /* \"#utility.yul\":2702:2706   */\n      0x20\n        /* \"#utility.yul\":2695:2700   */\n      dup2\n        /* \"#utility.yul\":2691:2707   */\n      add\n        /* \"#utility.yul\":2740:2743   */\n      dup5\n        /* \"#utility.yul\":2731:2737   */\n      dup5\n        /* \"#utility.yul\":2726:2729   */\n      dup5\n        /* \"#utility.yul\":2722:2738   */\n      add\n        /* \"#utility.yul\":2719:2744   */\n      gt\n        /* \"#utility.yul\":2716:2828   */\n      iszero\n      tag_266\n      jumpi\n        /* \"#utility.yul\":2747:2826   */\n      tag_267\n      tag_170\n      jump\t// in\n    tag_267:\n        /* \"#utility.yul\":2716:2828   */\n    tag_266:\n        /* \"#utility.yul\":2837:2891   */\n      tag_268\n        /* \"#utility.yul\":2884:2890   */\n      dup5\n        /* \"#utility.yul\":2879:2882   */\n      dup3\n        /* \"#utility.yul\":2874:2877   */\n      dup6\n        /* \"#utility.yul\":2837:2891   */\n      tag_176\n      jump\t// in\n    tag_268:\n        /* \"#utility.yul\":2556:2897   */\n      pop\n        /* \"#utility.yul\":2472:2897   */\n      swap4\n      swap3\n      pop\n      pop\n      pop\n      jump\t// out\n        /* \"#utility.yul\":2917:3257   */\n    tag_178:\n        /* \"#utility.yul\":2973:2978   */\n      0x00\n        /* \"#utility.yul\":3022:3025   */\n      dup3\n        /* \"#utility.yul\":3015:3019   */\n      0x1f\n        /* \"#utility.yul\":3007:3013   */\n      dup4\n        /* \"#utility.yul\":3003:3020   */\n      add\n        /* \"#utility.yul\":2999:3026   */\n      slt\n        /* \"#utility.yul\":2989:3111   */\n      tag_270\n      jumpi\n        /* \"#utility.yul\":3030:3109   */\n      tag_271\n      tag_169\n      jump\t// in\n    tag_271:\n        /* \"#utility.yul\":2989:3111   */\n    tag_270:\n        /* \"#utility.yul\":3147:3153   */\n      dup2\n        /* \"#utility.yul\":3134:3154   */\n      calldataload\n        /* \"#utility.yul\":3172:3251   */\n      tag_272\n        /* \"#utility.yul\":3247:3250   */\n      dup5\n        /* \"#utility.yul\":3239:3245   */\n      dup3\n        /* \"#utility.yul\":3232:3236   */\n      0x20\n        /* \"#utility.yul\":3224:3230   */\n      dup7\n        /* \"#utility.yul\":3220:3237   */\n      add\n        /* \"#utility.yul\":3172:3251   */\n      tag_177\n      jump\t// in\n    tag_272:\n        /* \"#utility.yul\":3163:3251   */\n      swap2\n      pop\n        /* \"#utility.yul\":2979:3257   */\n      pop\n        /* \"#utility.yul\":2917:3257   */\n      swap3\n      swap2\n      pop\n      pop\n      jump\t// out\n        /* \"#utility.yul\":3263:3917   */\n    tag_17:\n        /* \"#utility.yul\":3341:3347   */\n      0x00\n        /* \"#utility.yul\":3349:3355   */\n      dup1\n        /* \"#utility.yul\":3398:3400   */\n      0x40\n        /* \"#utility.yul\":3386:3395   */\n      dup4\n        /* \"#utility.yul\":3377:3384   */\n      dup6\n        /* \"#utility.yul\":3373:3396   */\n      sub\n        /* \"#utility.yul\":3369:3401   */\n      slt\n        /* \"#utility.yul\":3366:3485   */\n      iszero\n      tag_274\n      jumpi\n        /* \"#utility.yul\":3404:3483   */\n      tag_275\n      tag_165\n      jump\t// in\n    tag_275:\n        /* \"#utility.yul\":3366:3485   */\n    tag_274:\n        /* \"#utility.yul\":3524:3525   */\n      0x00\n        /* \"#utility.yul\":3549:3602   */\n      tag_276\n        /* \"#utility.yul\":3594:3601   */\n      dup6\n        /* \"#utility.yul\":3585:3591   */\n      dup3\n        /* \"#utility.yul\":3574:3583   */\n      dup7\n        /* \"#utility.yul\":3570:3592   */\n      add\n        /* \"#utility.yul\":3549:3602   */\n      tag_168\n      jump\t// in\n    tag_276:\n        /* \"#utility.yul\":3539:3602   */\n      swap3\n      pop\n        /* \"#utility.yul\":3495:3612   */\n      pop\n        /* \"#utility.yul\":3679:3681   */\n      0x20\n        /* \"#utility.yul\":3668:3677   */\n      dup4\n        /* \"#utility.yul\":3664:3682   */\n      add\n        /* \"#utility.yul\":3651:3683   */\n      calldataload\n        /* \"#utility.yul\":3710:3728   */\n      0xffffffffffffffff\n        /* \"#utility.yul\":3702:3708   */\n      dup2\n        /* \"#utility.yul\":3699:3729   */\n      gt\n        /* \"#utility.yul\":3696:3813   */\n      iszero\n      tag_277\n      jumpi\n        /* \"#utility.yul\":3732:3811   */\n      tag_278\n      tag_166\n      jump\t// in\n    tag_278:\n        /* \"#utility.yul\":3696:3813   */\n    tag_277:\n        /* \"#utility.yul\":3837:3900   */\n      tag_279\n        /* \"#utility.yul\":3892:3899   */\n      dup6\n        /* \"#utility.yul\":3883:3889   */\n      dup3\n        /* \"#utility.yul\":3872:3881   */\n      dup7\n        /* \"#utility.yul\":3868:3890   */\n      add\n        /* \"#utility.yul\":3837:3900   */\n      tag_178\n      jump\t// in\n    tag_279:\n        /* \"#utility.yul\":3827:3900   */\n      swap2\n      pop\n        /* \"#utility.yul\":3622:3910   */\n      pop\n        /* \"#utility.yul\":3263:3917   */\n      swap3\n      pop\n      swap3\n      swap1\n      pop\n      jump\t// out\n        /* \"#utility.yul\":3923:4234   */\n    tag_179:\n        /* \"#utility.yul\":4000:4004   */\n      0x00\n        /* \"#utility.yul\":4090:4108   */\n      0xffffffffffffffff\n        /* \"#utility.yul\":4082:4088   */\n      dup3\n        /* \"#utility.yul\":4079:4109   */\n      gt\n        /* \"#utility.yul\":4076:4132   */\n      iszero\n      tag_281\n      jumpi\n        /* \"#utility.yul\":4112:4130   */\n      tag_282\n      tag_172\n      jump\t// in\n    tag_282:\n        /* \"#utility.yul\":4076:4132   */\n    tag_281:\n        /* \"#utility.yul\":4162:4166   */\n      0x20\n        /* \"#utility.yul\":4154:4160   */\n      dup3\n        /* \"#utility.yul\":4150:4167   */\n      mul\n        /* \"#utility.yul\":4142:4167   */\n      swap1\n      pop\n        /* \"#utility.yul\":4222:4226   */\n      0x20\n        /* \"#utility.yul\":4216:4220   */\n      dup2\n        /* \"#utility.yul\":4212:4227   */\n      add\n        /* \"#utility.yul\":4204:4227   */\n      swap1\n      pop\n        /* \"#utility.yul\":3923:4234   */\n      swap2\n      swap1\n      pop\n      jump\t// out\n        /* \"#utility.yul\":4240:4357   */\n    tag_180:\n        /* \"#utility.yul\":4349:4350   */\n      0x00\n        /* \"#utility.yul\":4346:4347   */\n      dup1\n        /* \"#utility.yul\":4339:4351   */\n      revert\n        /* \"#utility.yul\":4380:5090   */\n    tag_181:\n        /* \"#utility.yul\":4476:4481   */\n      0x00\n        /* \"#utility.yul\":4501:4582   */\n      tag_285\n        /* \"#utility.yul\":4517:4581   */\n      tag_286\n        /* \"#utility.yul\":4574:4580   */\n      dup5\n        /* \"#utility.yul\":4517:4581   */\n      tag_179\n      jump\t// in\n    tag_286:\n        /* \"#utility.yul\":4501:4582   */\n      tag_174\n      jump\t// in\n    tag_285:\n        /* \"#utility.yul\":4492:4582   */\n      swap1\n      pop\n        /* \"#utility.yul\":4602:4607   */\n      dup1\n        /* \"#utility.yul\":4631:4637   */\n      dup4\n        /* \"#utility.yul\":4624:4629   */\n      dup3\n        /* \"#utility.yul\":4617:4638   */\n      mstore\n        /* \"#utility.yul\":4665:4669   */\n      0x20\n        /* \"#utility.yul\":4658:4663   */\n      dup3\n        /* \"#utility.yul\":4654:4670   */\n      add\n        /* \"#utility.yul\":4647:4670   */\n      swap1\n      pop\n        /* \"#utility.yul\":4718:4722   */\n      0x20\n        /* \"#utility.yul\":4710:4716   */\n      dup5\n        /* \"#utility.yul\":4706:4723   */\n      mul\n        /* \"#utility.yul\":4698:4704   */\n      dup4\n        /* \"#utility.yul\":4694:4724   */\n      add\n        /* \"#utility.yul\":4747:4750   */\n      dup6\n        /* \"#utility.yul\":4739:4745   */\n      dup2\n        /* \"#utility.yul\":4736:4751   */\n      gt\n        /* \"#utility.yul\":4733:4855   */\n      iszero\n      tag_287\n      jumpi\n        /* \"#utility.yul\":4766:4845   */\n      tag_288\n      tag_180\n      jump\t// in\n    tag_288:\n        /* \"#utility.yul\":4733:4855   */\n    tag_287:\n        /* \"#utility.yul\":4881:4887   */\n      dup4\n        /* \"#utility.yul\":4864:5084   */\n    tag_289:\n        /* \"#utility.yul\":4898:4904   */\n      dup2\n        /* \"#utility.yul\":4893:4896   */\n      dup2\n        /* \"#utility.yul\":4890:4905   */\n      lt\n        /* \"#utility.yul\":4864:5084   */\n      iszero\n      tag_291\n      jumpi\n        /* \"#utility.yul\":4973:4976   */\n      dup1\n        /* \"#utility.yul\":5002:5039   */\n      tag_292\n        /* \"#utility.yul\":5035:5038   */\n      dup9\n        /* \"#utility.yul\":5023:5033   */\n      dup3\n        /* \"#utility.yul\":5002:5039   */\n      tag_168\n      jump\t// in\n    tag_292:\n        /* \"#utility.yul\":4997:5000   */\n      dup5\n        /* \"#utility.yul\":4990:5040   */\n      mstore\n        /* \"#utility.yul\":5069:5073   */\n      0x20\n        /* \"#utility.yul\":5064:5067   */\n      dup5\n        /* \"#utility.yul\":5060:5074   */\n      add\n        /* \"#utility.yul\":5053:5074   */\n      swap4\n      pop\n        /* \"#utility.yul\":4940:5084   */\n      pop\n        /* \"#utility.yul\":4924:4928   */\n      0x20\n        /* \"#utility.yul\":4919:4922   */\n      dup2\n        /* \"#utility.yul\":4915:4929   */\n      add\n        /* \"#utility.yul\":4908:4929   */\n      swap1\n      pop\n        /* \"#utility.yul\":4864:5084   */\n      jump(tag_289)\n    tag_291:\n        /* \"#utility.yul\":4868:4889   */\n      pop\n        /* \"#utility.yul\":4482:5090   */\n      pop\n      pop\n        /* \"#utility.yul\":4380:5090   */\n      swap4\n      swap3\n      pop\n      pop\n      pop\n      jump\t// out\n        /* \"#utility.yul\":5113:5483   */\n    tag_182:\n        /* \"#utility.yul\":5184:5189   */\n      0x00\n        /* \"#utility.yul\":5233:5236   */\n      dup3\n        /* \"#utility.yul\":5226:5230   */\n      0x1f\n        /* \"#utility.yul\":5218:5224   */\n      dup4\n        /* \"#utility.yul\":5214:5231   */\n      add\n        /* \"#utility.yul\":5210:5237   */\n      slt\n        /* \"#utility.yul\":5200:5322   */\n      tag_294\n      jumpi\n        /* \"#utility.yul\":5241:5320   */\n      tag_295\n      tag_169\n      jump\t// in\n    tag_295:\n        /* \"#utility.yul\":5200:5322   */\n    tag_294:\n        /* \"#utility.yul\":5358:5364   */\n      dup2\n        /* \"#utility.yul\":5345:5365   */\n      calldataload\n        /* \"#utility.yul\":5383:5477   */\n      tag_296\n        /* \"#utility.yul\":5473:5476   */\n      dup5\n        /* \"#utility.yul\":5465:5471   */\n      dup3\n        /* \"#utility.yul\":5458:5462   */\n      0x20\n        /* \"#utility.yul\":5450:5456   */\n      dup7\n        /* \"#utility.yul\":5446:5463   */\n      add\n        /* \"#utility.yul\":5383:5477   */\n      tag_181\n      jump\t// in\n    tag_296:\n        /* \"#utility.yul\":5374:5477   */\n      swap2\n      pop\n        /* \"#utility.yul\":5190:5483   */\n      pop\n        /* \"#utility.yul\":5113:5483   */\n      swap3\n      swap2\n      pop\n      pop\n      jump\t// out\n        /* \"#utility.yul\":5489:6353   */\n    tag_21:\n        /* \"#utility.yul\":5592:5598   */\n      0x00\n        /* \"#utility.yul\":5600:5606   */\n      dup1\n        /* \"#utility.yul\":5649:5651   */\n      0x40\n        /* \"#utility.yul\":5637:5646   */\n      dup4\n        /* \"#utility.yul\":5628:5635   */\n      dup6\n        /* \"#utility.yul\":5624:5647   */\n      sub\n        /* \"#utility.yul\":5620:5652   */\n      slt\n        /* \"#utility.yul\":5617:5736   */\n      iszero\n      tag_298\n      jumpi\n        /* \"#utility.yul\":5655:5734   */\n      tag_299\n      tag_165\n      jump\t// in\n    tag_299:\n        /* \"#utility.yul\":5617:5736   */\n    tag_298:\n        /* \"#utility.yul\":5803:5804   */\n      0x00\n        /* \"#utility.yul\":5792:5801   */\n      dup4\n        /* \"#utility.yul\":5788:5805   */\n      add\n        /* \"#utility.yul\":5775:5806   */\n      calldataload\n        /* \"#utility.yul\":5833:5851   */\n      0xffffffffffffffff\n        /* \"#utility.yul\":5825:5831   */\n      dup2\n        /* \"#utility.yul\":5822:5852   */\n      gt\n        /* \"#utility.yul\":5819:5936   */\n      iszero\n      tag_300\n      jumpi\n        /* \"#utility.yul\":5855:5934   */\n      tag_301\n      tag_166\n      jump\t// in\n    tag_301:\n        /* \"#utility.yul\":5819:5936   */\n    tag_300:\n        /* \"#utility.yul\":5960:6023   */\n      tag_302\n        /* \"#utility.yul\":6015:6022   */\n      dup6\n        /* \"#utility.yul\":6006:6012   */\n      dup3\n        /* \"#utility.yul\":5995:6004   */\n      dup7\n        /* \"#utility.yul\":5991:6013   */\n      add\n        /* \"#utility.yul\":5960:6023   */\n      tag_178\n      jump\t// in\n    tag_302:\n        /* \"#utility.yul\":5950:6023   */\n      swap3\n      pop\n        /* \"#utility.yul\":5746:6033   */\n      pop\n        /* \"#utility.yul\":6100:6102   */\n      0x20\n        /* \"#utility.yul\":6089:6098   */\n      dup4\n        /* \"#utility.yul\":6085:6103   */\n      add\n        /* \"#utility.yul\":6072:6104   */\n      calldataload\n        /* \"#utility.yul\":6131:6149   */\n      0xffffffffffffffff\n        /* \"#utility.yul\":6123:6129   */\n      dup2\n        /* \"#utility.yul\":6120:6150   */\n      gt\n        /* \"#utility.yul\":6117:6234   */\n      iszero\n      tag_303\n      jumpi\n        /* \"#utility.yul\":6153:6232   */\n      tag_304\n      tag_166\n      jump\t// in\n    tag_304:\n        /* \"#utility.yul\":6117:6234   */\n    tag_303:\n        /* \"#utility.yul\":6258:6336   */\n      tag_305\n        /* \"#utility.yul\":6328:6335   */\n      dup6\n        /* \"#utility.yul\":6319:6325   */\n      dup3\n        /* \"#utility.yul\":6308:6317   */\n      dup7\n        /* \"#utility.yul\":6304:6326   */\n      add\n        /* \"#utility.yul\":6258:6336   */\n      tag_182\n      jump\t// in\n    tag_305:\n        /* \"#utility.yul\":6248:6336   */\n      swap2\n      pop\n        /* \"#utility.yul\":6043:6346   */\n      pop\n        /* \"#utility.yul\":5489:6353   */\n      swap3\n      pop\n      swap3\n      swap1\n      pop\n      jump\t// out\n        /* \"#utility.yul\":6359:6485   */\n    tag_183:\n        /* \"#utility.yul\":6396:6403   */\n      0x00\n        /* \"#utility.yul\":6436:6478   */\n      0xffffffffffffffffffffffffffffffffffffffff\n        /* \"#utility.yul\":6429:6434   */\n      dup3\n        /* \"#utility.yul\":6425:6479   */\n      and\n        /* \"#utility.yul\":6414:6479   */\n      swap1\n      pop\n        /* \"#utility.yul\":6359:6485   */\n      swap2\n      swap1\n      pop\n      jump\t// out\n        /* \"#utility.yul\":6491:6587   */\n    tag_184:\n        /* \"#utility.yul\":6528:6535   */\n      0x00\n        /* \"#utility.yul\":6557:6581   */\n      tag_308\n        /* \"#utility.yul\":6575:6580   */\n      dup3\n        /* \"#utility.yul\":6557:6581   */\n      tag_183\n      jump\t// in\n    tag_308:\n        /* \"#utility.yul\":6546:6581   */\n      swap1\n      pop\n        /* \"#utility.yul\":6491:6587   */\n      swap2\n      swap1\n      pop\n      jump\t// out\n        /* \"#utility.yul\":6593:6711   */\n    tag_185:\n        /* \"#utility.yul\":6680:6704   */\n      tag_310\n        /* \"#utility.yul\":6698:6703   */\n      dup2\n        /* \"#utility.yul\":6680:6704   */\n      tag_184\n      jump\t// in\n    tag_310:\n        /* \"#utility.yul\":6675:6678   */\n      dup3\n        /* \"#utility.yul\":6668:6705   */\n      mstore\n        /* \"#utility.yul\":6593:6711   */\n      pop\n      pop\n      jump\t// out\n        /* \"#utility.yul\":6717:6939   */\n    tag_27:\n        /* \"#utility.yul\":6810:6814   */\n      0x00\n        /* \"#utility.yul\":6848:6850   */\n      0x20\n        /* \"#utility.yul\":6837:6846   */\n      dup3\n        /* \"#utility.yul\":6833:6851   */\n      add\n        /* \"#utility.yul\":6825:6851   */\n      swap1\n      pop\n        /* \"#utility.yul\":6861:6932   */\n      tag_312\n        /* \"#utility.yul\":6929:6930   */\n      0x00\n        /* \"#utility.yul\":6918:6927   */\n      dup4\n        /* \"#utility.yul\":6914:6931   */\n      add\n        /* \"#utility.yul\":6905:6911   */\n      dup5\n        /* \"#utility.yul\":6861:6932   */\n      tag_185\n      jump\t// in\n    tag_312:\n        /* \"#utility.yul\":6717:6939   */\n      swap3\n      swap2\n      pop\n      pop\n      jump\t// out\n        /* \"#utility.yul\":6945:7274   */\n    tag_30:\n        /* \"#utility.yul\":7004:7010   */\n      0x00\n        /* \"#utility.yul\":7053:7055   */\n      0x20\n        /* \"#utility.yul\":7041:7050   */\n      dup3\n        /* \"#utility.yul\":7032:7039   */\n      dup5\n        /* \"#utility.yul\":7028:7051   */\n      sub\n        /* \"#utility.yul\":7024:7056   */\n      slt\n        /* \"#utility.yul\":7021:7140   */\n      iszero\n      tag_314\n      jumpi\n        /* \"#utility.yul\":7059:7138   */\n      tag_315\n      tag_165\n      jump\t// in\n    tag_315:\n        /* \"#utility.yul\":7021:7140   */\n    tag_314:\n        /* \"#utility.yul\":7179:7180   */\n      0x00\n        /* \"#utility.yul\":7204:7257   */\n      tag_316\n        /* \"#utility.yul\":7249:7256   */\n      dup5\n        /* \"#utility.yul\":7240:7246   */\n      dup3\n        /* \"#utility.yul\":7229:7238   */\n      dup6\n        /* \"#utility.yul\":7225:7247   */\n      add\n        /* \"#utility.yul\":7204:7257   */\n      tag_168\n      jump\t// in\n    tag_316:\n        /* \"#utility.yul\":7194:7257   */\n      swap2\n      pop\n        /* \"#utility.yul\":7150:7267   */\n      pop\n        /* \"#utility.yul\":6945:7274   */\n      swap3\n      swap2\n      pop\n      pop\n      jump\t// out\n        /* \"#utility.yul\":7280:7379   */\n    tag_186:\n        /* \"#utility.yul\":7332:7338   */\n      0x00\n        /* \"#utility.yul\":7366:7371   */\n      dup2\n        /* \"#utility.yul\":7360:7372   */\n      mload\n        /* \"#utility.yul\":7350:7372   */\n      swap1\n      pop\n        /* \"#utility.yul\":7280:7379   */\n      swap2\n      swap1\n      pop\n      jump\t// out\n        /* \"#utility.yul\":7385:7554   */\n    tag_187:\n        /* \"#utility.yul\":7469:7480   */\n      0x00\n        /* \"#utility.yul\":7503:7509   */\n      dup3\n        /* \"#utility.yul\":7498:7501   */\n      dup3\n        /* \"#utility.yul\":7491:7510   */\n      mstore\n        /* \"#utility.yul\":7543:7547   */\n      0x20\n        /* \"#utility.yul\":7538:7541   */\n      dup3\n        /* \"#utility.yul\":7534:7548   */\n      add\n        /* \"#utility.yul\":7519:7548   */\n      swap1\n      pop\n        /* \"#utility.yul\":7385:7554   */\n      swap3\n      swap2\n      pop\n      pop\n      jump\t// out\n        /* \"#utility.yul\":7560:7699   */\n    tag_188:\n        /* \"#utility.yul\":7649:7655   */\n      dup3\n        /* \"#utility.yul\":7644:7647   */\n      dup2\n        /* \"#utility.yul\":7639:7642   */\n      dup4\n        /* \"#utility.yul\":7633:7656   */\n      mcopy\n        /* \"#utility.yul\":7690:7691   */\n      0x00\n        /* \"#utility.yul\":7681:7687   */\n      dup4\n        /* \"#utility.yul\":7676:7679   */\n      dup4\n        /* \"#utility.yul\":7672:7688   */\n      add\n        /* \"#utility.yul\":7665:7692   */\n      mstore\n        /* \"#utility.yul\":7560:7699   */\n      pop\n      pop\n      pop\n      jump\t// out\n        /* \"#utility.yul\":7705:8082   */\n    tag_189:\n        /* \"#utility.yul\":7793:7796   */\n      0x00\n        /* \"#utility.yul\":7821:7860   */\n      tag_321\n        /* \"#utility.yul\":7854:7859   */\n      dup3\n        /* \"#utility.yul\":7821:7860   */\n      tag_186\n      jump\t// in\n    tag_321:\n        /* \"#utility.yul\":7876:7947   */\n      tag_322\n        /* \"#utility.yul\":7940:7946   */\n      dup2\n        /* \"#utility.yul\":7935:7938   */\n      dup6\n        /* \"#utility.yul\":7876:7947   */\n      tag_187\n      jump\t// in\n    tag_322:\n        /* \"#utility.yul\":7869:7947   */\n      swap4\n      pop\n        /* \"#utility.yul\":7956:8021   */\n      tag_323\n        /* \"#utility.yul\":8014:8020   */\n      dup2\n        /* \"#utility.yul\":8009:8012   */\n      dup6\n        /* \"#utility.yul\":8002:8006   */\n      0x20\n        /* \"#utility.yul\":7995:8000   */\n      dup7\n        /* \"#utility.yul\":7991:8007   */\n      add\n        /* \"#utility.yul\":7956:8021   */\n      tag_188\n      jump\t// in\n    tag_323:\n        /* \"#utility.yul\":8046:8075   */\n      tag_324\n        /* \"#utility.yul\":8068:8074   */\n      dup2\n        /* \"#utility.yul\":8046:8075   */\n      tag_171\n      jump\t// in\n    tag_324:\n        /* \"#utility.yul\":8041:8044   */\n      dup5\n        /* \"#utility.yul\":8037:8076   */\n      add\n        /* \"#utility.yul\":8030:8076   */\n      swap2\n      pop\n        /* \"#utility.yul\":7797:8082   */\n      pop\n        /* \"#utility.yul\":7705:8082   */\n      swap3\n      swap2\n      pop\n      pop\n      jump\t// out\n        /* \"#utility.yul\":8088:8268   */\n    tag_73:\n        /* \"#utility.yul\":8136:8213   */\n      0x4e487b7100000000000000000000000000000000000000000000000000000000\n        /* \"#utility.yul\":8133:8134   */\n      0x00\n        /* \"#utility.yul\":8126:8214   */\n      mstore\n        /* \"#utility.yul\":8233:8237   */\n      0x21\n        /* \"#utility.yul\":8230:8231   */\n      0x04\n        /* \"#utility.yul\":8223:8238   */\n      mstore\n        /* \"#utility.yul\":8257:8261   */\n      0x24\n        /* \"#utility.yul\":8254:8255   */\n      0x00\n        /* \"#utility.yul\":8247:8262   */\n      revert\n        /* \"#utility.yul\":8274:8387   */\n    tag_190:\n        /* \"#utility.yul\":8355:8356   */\n      0x04\n        /* \"#utility.yul\":8348:8353   */\n      dup2\n        /* \"#utility.yul\":8345:8357   */\n      lt\n        /* \"#utility.yul\":8335:8381   */\n      tag_327\n      jumpi\n        /* \"#utility.yul\":8361:8379   */\n      tag_328\n      tag_73\n      jump\t// in\n    tag_328:\n        /* \"#utility.yul\":8335:8381   */\n    tag_327:\n        /* \"#utility.yul\":8274:8387   */\n      pop\n      jump\t// out\n        /* \"#utility.yul\":8393:8520   */\n    tag_191:\n        /* \"#utility.yul\":8438:8445   */\n      0x00\n        /* \"#utility.yul\":8467:8472   */\n      dup2\n        /* \"#utility.yul\":8456:8472   */\n      swap1\n      pop\n        /* \"#utility.yul\":8473:8514   */\n      tag_330\n        /* \"#utility.yul\":8508:8513   */\n      dup3\n        /* \"#utility.yul\":8473:8514   */\n      tag_190\n      jump\t// in\n    tag_330:\n        /* \"#utility.yul\":8393:8520   */\n      swap2\n      swap1\n      pop\n      jump\t// out\n        /* \"#utility.yul\":8526:8653   */\n    tag_192:\n        /* \"#utility.yul\":8582:8591   */\n      0x00\n        /* \"#utility.yul\":8615:8647   */\n      tag_332\n        /* \"#utility.yul\":8641:8646   */\n      dup3\n        /* \"#utility.yul\":8615:8647   */\n      tag_191\n      jump\t// in\n    tag_332:\n        /* \"#utility.yul\":8602:8647   */\n      swap1\n      pop\n        /* \"#utility.yul\":8526:8653   */\n      swap2\n      swap1\n      pop\n      jump\t// out\n        /* \"#utility.yul\":8659:8802   */\n    tag_193:\n        /* \"#utility.yul\":8752:8795   */\n      tag_334\n        /* \"#utility.yul\":8789:8794   */\n      dup2\n        /* \"#utility.yul\":8752:8795   */\n      tag_192\n      jump\t// in\n    tag_334:\n        /* \"#utility.yul\":8747:8750   */\n      dup3\n        /* \"#utility.yul\":8740:8796   */\n      mstore\n        /* \"#utility.yul\":8659:8802   */\n      pop\n      pop\n      jump\t// out\n        /* \"#utility.yul\":8808:9353   */\n    tag_33:\n        /* \"#utility.yul\":8983:8987   */\n      0x00\n        /* \"#utility.yul\":9021:9023   */\n      0x60\n        /* \"#utility.yul\":9010:9019   */\n      dup3\n        /* \"#utility.yul\":9006:9024   */\n      add\n        /* \"#utility.yul\":8998:9024   */\n      swap1\n      pop\n        /* \"#utility.yul\":9034:9105   */\n      tag_336\n        /* \"#utility.yul\":9102:9103   */\n      0x00\n        /* \"#utility.yul\":9091:9100   */\n      dup4\n        /* \"#utility.yul\":9087:9104   */\n      add\n        /* \"#utility.yul\":9078:9084   */\n      dup7\n        /* \"#utility.yul\":9034:9105   */\n      tag_185\n      jump\t// in\n    tag_336:\n        /* \"#utility.yul\":9152:9161   */\n      dup2\n        /* \"#utility.yul\":9146:9150   */\n      dup2\n        /* \"#utility.yul\":9142:9162   */\n      sub\n        /* \"#utility.yul\":9137:9139   */\n      0x20\n        /* \"#utility.yul\":9126:9135   */\n      dup4\n        /* \"#utility.yul\":9122:9140   */\n      add\n        /* \"#utility.yul\":9115:9163   */\n      mstore\n        /* \"#utility.yul\":9180:9258   */\n      tag_337\n        /* \"#utility.yul\":9253:9257   */\n      dup2\n        /* \"#utility.yul\":9244:9250   */\n      dup6\n        /* \"#utility.yul\":9180:9258   */\n      tag_189\n      jump\t// in\n    tag_337:\n        /* \"#utility.yul\":9172:9258   */\n      swap1\n      pop\n        /* \"#utility.yul\":9268:9346   */\n      tag_338\n        /* \"#utility.yul\":9342:9344   */\n      0x40\n        /* \"#utility.yul\":9331:9340   */\n      dup4\n        /* \"#utility.yul\":9327:9345   */\n      add\n        /* \"#utility.yul\":9318:9324   */\n      dup5\n        /* \"#utility.yul\":9268:9346   */\n      tag_193\n      jump\t// in\n    tag_338:\n        /* \"#utility.yul\":8808:9353   */\n      swap5\n      swap4\n      pop\n      pop\n      pop\n      pop\n      jump\t// out\n        /* \"#utility.yul\":9359:9467   */\n    tag_194:\n        /* \"#utility.yul\":9436:9460   */\n      tag_340\n        /* \"#utility.yul\":9454:9459   */\n      dup2\n        /* \"#utility.yul\":9436:9460   */\n      tag_184\n      jump\t// in\n    tag_340:\n        /* \"#utility.yul\":9431:9434   */\n      dup3\n        /* \"#utility.yul\":9424:9461   */\n      mstore\n        /* \"#utility.yul\":9359:9467   */\n      pop\n      pop\n      jump\t// out\n        /* \"#utility.yul\":9473:9632   */\n    tag_195:\n        /* \"#utility.yul\":9547:9558   */\n      0x00\n        /* \"#utility.yul\":9581:9587   */\n      dup3\n        /* \"#utility.yul\":9576:9579   */\n      dup3\n        /* \"#utility.yul\":9569:9588   */\n      mstore\n        /* \"#utility.yul\":9621:9625   */\n      0x20\n        /* \"#utility.yul\":9616:9619   */\n      dup3\n        /* \"#utility.yul\":9612:9626   */\n      add\n        /* \"#utility.yul\":9597:9626   */\n      swap1\n      pop\n        /* \"#utility.yul\":9473:9632   */\n      swap3\n      swap2\n      pop\n      pop\n      jump\t// out\n        /* \"#utility.yul\":9638:9995   */\n    tag_196:\n        /* \"#utility.yul\":9716:9719   */\n      0x00\n        /* \"#utility.yul\":9744:9783   */\n      tag_343\n        /* \"#utility.yul\":9777:9782   */\n      dup3\n        /* \"#utility.yul\":9744:9783   */\n      tag_186\n      jump\t// in\n    tag_343:\n        /* \"#utility.yul\":9799:9860   */\n      tag_344\n        /* \"#utility.yul\":9853:9859   */\n      dup2\n        /* \"#utility.yul\":9848:9851   */\n      dup6\n        /* \"#utility.yul\":9799:9860   */\n      tag_195\n      jump\t// in\n    tag_344:\n        /* \"#utility.yul\":9792:9860   */\n      swap4\n      pop\n        /* \"#utility.yul\":9869:9934   */\n      tag_345\n        /* \"#utility.yul\":9927:9933   */\n      dup2\n        /* \"#utility.yul\":9922:9925   */\n      dup6\n        /* \"#utility.yul\":9915:9919   */\n      0x20\n        /* \"#utility.yul\":9908:9913   */\n      dup7\n        /* \"#utility.yul\":9904:9920   */\n      add\n        /* \"#utility.yul\":9869:9934   */\n      tag_188\n      jump\t// in\n    tag_345:\n        /* \"#utility.yul\":9959:9988   */\n      tag_346\n        /* \"#utility.yul\":9981:9987   */\n      dup2\n        /* \"#utility.yul\":9959:9988   */\n      tag_171\n      jump\t// in\n    tag_346:\n        /* \"#utility.yul\":9954:9957   */\n      dup5\n        /* \"#utility.yul\":9950:9989   */\n      add\n        /* \"#utility.yul\":9943:9989   */\n      swap2\n      pop\n        /* \"#utility.yul\":9720:9995   */\n      pop\n        /* \"#utility.yul\":9638:9995   */\n      swap3\n      swap2\n      pop\n      pop\n      jump\t// out\n        /* \"#utility.yul\":10001:10115   */\n    tag_197:\n        /* \"#utility.yul\":10068:10074   */\n      0x00\n        /* \"#utility.yul\":10102:10107   */\n      dup2\n        /* \"#utility.yul\":10096:10108   */\n      mload\n        /* \"#utility.yul\":10086:10108   */\n      swap1\n      pop\n        /* \"#utility.yul\":10001:10115   */\n      swap2\n      swap1\n      pop\n      jump\t// out\n        /* \"#utility.yul\":10121:10295   */\n    tag_198:\n        /* \"#utility.yul\":10210:10221   */\n      0x00\n        /* \"#utility.yul\":10244:10250   */\n      dup3\n        /* \"#utility.yul\":10239:10242   */\n      dup3\n        /* \"#utility.yul\":10232:10251   */\n      mstore\n        /* \"#utility.yul\":10284:10288   */\n      0x20\n        /* \"#utility.yul\":10279:10282   */\n      dup3\n        /* \"#utility.yul\":10275:10289   */\n      add\n        /* \"#utility.yul\":10260:10289   */\n      swap1\n      pop\n        /* \"#utility.yul\":10121:10295   */\n      swap3\n      swap2\n      pop\n      pop\n      jump\t// out\n        /* \"#utility.yul\":10301:10433   */\n    tag_199:\n        /* \"#utility.yul\":10368:10372   */\n      0x00\n        /* \"#utility.yul\":10391:10394   */\n      dup2\n        /* \"#utility.yul\":10383:10394   */\n      swap1\n      pop\n        /* \"#utility.yul\":10421:10425   */\n      0x20\n        /* \"#utility.yul\":10416:10419   */\n      dup3\n        /* \"#utility.yul\":10412:10426   */\n      add\n        /* \"#utility.yul\":10404:10426   */\n      swap1\n      pop\n        /* \"#utility.yul\":10301:10433   */\n      swap2\n      swap1\n      pop\n      jump\t// out\n        /* \"#utility.yul\":10439:10547   */\n    tag_200:\n        /* \"#utility.yul\":10516:10540   */\n      tag_351\n        /* \"#utility.yul\":10534:10539   */\n      dup2\n        /* \"#utility.yul\":10516:10540   */\n      tag_162\n      jump\t// in\n    tag_351:\n        /* \"#utility.yul\":10511:10514   */\n      dup3\n        /* \"#utility.yul\":10504:10541   */\n      mstore\n        /* \"#utility.yul\":10439:10547   */\n      pop\n      pop\n      jump\t// out\n        /* \"#utility.yul\":10553:10732   */\n    tag_201:\n        /* \"#utility.yul\":10622:10632   */\n      0x00\n        /* \"#utility.yul\":10643:10689   */\n      tag_353\n        /* \"#utility.yul\":10685:10688   */\n      dup4\n        /* \"#utility.yul\":10677:10683   */\n      dup4\n        /* \"#utility.yul\":10643:10689   */\n      tag_200\n      jump\t// in\n    tag_353:\n        /* \"#utility.yul\":10721:10725   */\n      0x20\n        /* \"#utility.yul\":10716:10719   */\n      dup4\n        /* \"#utility.yul\":10712:10726   */\n      add\n        /* \"#utility.yul\":10698:10726   */\n      swap1\n      pop\n        /* \"#utility.yul\":10553:10732   */\n      swap3\n      swap2\n      pop\n      pop\n      jump\t// out\n        /* \"#utility.yul\":10738:10851   */\n    tag_202:\n        /* \"#utility.yul\":10808:10812   */\n      0x00\n        /* \"#utility.yul\":10840:10844   */\n      0x20\n        /* \"#utility.yul\":10835:10838   */\n      dup3\n        /* \"#utility.yul\":10831:10845   */\n      add\n        /* \"#utility.yul\":10823:10845   */\n      swap1\n      pop\n        /* \"#utility.yul\":10738:10851   */\n      swap2\n      swap1\n      pop\n      jump\t// out\n        /* \"#utility.yul\":10887:11599   */\n    tag_203:\n        /* \"#utility.yul\":10996:10999   */\n      0x00\n        /* \"#utility.yul\":11025:11079   */\n      tag_356\n        /* \"#utility.yul\":11073:11078   */\n      dup3\n        /* \"#utility.yul\":11025:11079   */\n      tag_197\n      jump\t// in\n    tag_356:\n        /* \"#utility.yul\":11095:11171   */\n      tag_357\n        /* \"#utility.yul\":11164:11170   */\n      dup2\n        /* \"#utility.yul\":11159:11162   */\n      dup6\n        /* \"#utility.yul\":11095:11171   */\n      tag_198\n      jump\t// in\n    tag_357:\n        /* \"#utility.yul\":11088:11171   */\n      swap4\n      pop\n        /* \"#utility.yul\":11195:11251   */\n      tag_358\n        /* \"#utility.yul\":11245:11250   */\n      dup4\n        /* \"#utility.yul\":11195:11251   */\n      tag_199\n      jump\t// in\n    tag_358:\n        /* \"#utility.yul\":11274:11281   */\n      dup1\n        /* \"#utility.yul\":11305:11306   */\n      0x00\n        /* \"#utility.yul\":11290:11574   */\n    tag_359:\n        /* \"#utility.yul\":11315:11321   */\n      dup4\n        /* \"#utility.yul\":11312:11313   */\n      dup2\n        /* \"#utility.yul\":11309:11322   */\n      lt\n        /* \"#utility.yul\":11290:11574   */\n      iszero\n      tag_361\n      jumpi\n        /* \"#utility.yul\":11391:11397   */\n      dup2\n        /* \"#utility.yul\":11385:11398   */\n      mload\n        /* \"#utility.yul\":11418:11481   */\n      tag_362\n        /* \"#utility.yul\":11477:11480   */\n      dup9\n        /* \"#utility.yul\":11462:11475   */\n      dup3\n        /* \"#utility.yul\":11418:11481   */\n      tag_201\n      jump\t// in\n    tag_362:\n        /* \"#utility.yul\":11411:11481   */\n      swap8\n      pop\n        /* \"#utility.yul\":11504:11564   */\n      tag_363\n        /* \"#utility.yul\":11557:11563   */\n      dup4\n        /* \"#utility.yul\":11504:11564   */\n      tag_202\n      jump\t// in\n    tag_363:\n        /* \"#utility.yul\":11494:11564   */\n      swap3\n      pop\n        /* \"#utility.yul\":11350:11574   */\n      pop\n        /* \"#utility.yul\":11337:11338   */\n      0x01\n        /* \"#utility.yul\":11334:11335   */\n      dup2\n        /* \"#utility.yul\":11330:11339   */\n      add\n        /* \"#utility.yul\":11325:11339   */\n      swap1\n      pop\n        /* \"#utility.yul\":11290:11574   */\n      jump(tag_359)\n    tag_361:\n        /* \"#utility.yul\":11294:11308   */\n      pop\n        /* \"#utility.yul\":11590:11593   */\n      dup6\n        /* \"#utility.yul\":11583:11593   */\n      swap4\n      pop\n        /* \"#utility.yul\":11001:11599   */\n      pop\n      pop\n      pop\n        /* \"#utility.yul\":10887:11599   */\n      swap3\n      swap2\n      pop\n      pop\n      jump\t// out\n        /* \"#utility.yul\":11605:11738   */\n    tag_204:\n        /* \"#utility.yul\":11688:11731   */\n      tag_365\n        /* \"#utility.yul\":11725:11730   */\n      dup2\n        /* \"#utility.yul\":11688:11731   */\n      tag_192\n      jump\t// in\n    tag_365:\n        /* \"#utility.yul\":11683:11686   */\n      dup3\n        /* \"#utility.yul\":11676:11732   */\n      mstore\n        /* \"#utility.yul\":11605:11738   */\n      pop\n      pop\n      jump\t// out\n        /* \"#utility.yul\":11812:12878   */\n    tag_205:\n        /* \"#utility.yul\":11923:11926   */\n      0x00\n        /* \"#utility.yul\":11959:11963   */\n      0x80\n        /* \"#utility.yul\":11954:11957   */\n      dup4\n        /* \"#utility.yul\":11950:11964   */\n      add\n        /* \"#utility.yul\":12050:12054   */\n      0x00\n        /* \"#utility.yul\":12043:12048   */\n      dup4\n        /* \"#utility.yul\":12039:12055   */\n      add\n        /* \"#utility.yul\":12033:12056   */\n      mload\n        /* \"#utility.yul\":12069:12132   */\n      tag_367\n        /* \"#utility.yul\":12126:12130   */\n      0x00\n        /* \"#utility.yul\":12121:12124   */\n      dup7\n        /* \"#utility.yul\":12117:12131   */\n      add\n        /* \"#utility.yul\":12103:12115   */\n      dup3\n        /* \"#utility.yul\":12069:12132   */\n      tag_194\n      jump\t// in\n    tag_367:\n        /* \"#utility.yul\":11974:12142   */\n      pop\n        /* \"#utility.yul\":12227:12231   */\n      0x20\n        /* \"#utility.yul\":12220:12225   */\n      dup4\n        /* \"#utility.yul\":12216:12232   */\n      add\n        /* \"#utility.yul\":12210:12233   */\n      mload\n        /* \"#utility.yul\":12280:12283   */\n      dup5\n        /* \"#utility.yul\":12274:12278   */\n      dup3\n        /* \"#utility.yul\":12270:12284   */\n      sub\n        /* \"#utility.yul\":12263:12267   */\n      0x20\n        /* \"#utility.yul\":12258:12261   */\n      dup7\n        /* \"#utility.yul\":12254:12268   */\n      add\n        /* \"#utility.yul\":12247:12285   */\n      mstore\n        /* \"#utility.yul\":12306:12379   */\n      tag_368\n        /* \"#utility.yul\":12374:12378   */\n      dup3\n        /* \"#utility.yul\":12360:12372   */\n      dup3\n        /* \"#utility.yul\":12306:12379   */\n      tag_196\n      jump\t// in\n    tag_368:\n        /* \"#utility.yul\":12298:12379   */\n      swap2\n      pop\n        /* \"#utility.yul\":12152:12390   */\n      pop\n        /* \"#utility.yul\":12476:12480   */\n      0x40\n        /* \"#utility.yul\":12469:12474   */\n      dup4\n        /* \"#utility.yul\":12465:12481   */\n      add\n        /* \"#utility.yul\":12459:12482   */\n      mload\n        /* \"#utility.yul\":12529:12532   */\n      dup5\n        /* \"#utility.yul\":12523:12527   */\n      dup3\n        /* \"#utility.yul\":12519:12533   */\n      sub\n        /* \"#utility.yul\":12512:12516   */\n      0x40\n        /* \"#utility.yul\":12507:12510   */\n      dup7\n        /* \"#utility.yul\":12503:12517   */\n      add\n        /* \"#utility.yul\":12496:12534   */\n      mstore\n        /* \"#utility.yul\":12555:12658   */\n      tag_369\n        /* \"#utility.yul\":12653:12657   */\n      dup3\n        /* \"#utility.yul\":12639:12651   */\n      dup3\n        /* \"#utility.yul\":12555:12658   */\n      tag_203\n      jump\t// in\n    tag_369:\n        /* \"#utility.yul\":12547:12658   */\n      swap2\n      pop\n        /* \"#utility.yul\":12400:12669   */\n      pop\n        /* \"#utility.yul\":12753:12757   */\n      0x60\n        /* \"#utility.yul\":12746:12751   */\n      dup4\n        /* \"#utility.yul\":12742:12758   */\n      add\n        /* \"#utility.yul\":12736:12759   */\n      mload\n        /* \"#utility.yul\":12772:12841   */\n      tag_370\n        /* \"#utility.yul\":12835:12839   */\n      0x60\n        /* \"#utility.yul\":12830:12833   */\n      dup7\n        /* \"#utility.yul\":12826:12840   */\n      add\n        /* \"#utility.yul\":12812:12824   */\n      dup3\n        /* \"#utility.yul\":12772:12841   */\n      tag_204\n      jump\t// in\n    tag_370:\n        /* \"#utility.yul\":12679:12851   */\n      pop\n        /* \"#utility.yul\":12868:12872   */\n      dup1\n        /* \"#utility.yul\":12861:12872   */\n      swap2\n      pop\n        /* \"#utility.yul\":11928:12878   */\n      pop\n        /* \"#utility.yul\":11812:12878   */\n      swap3\n      swap2\n      pop\n      pop\n      jump\t// out\n        /* \"#utility.yul\":12884:13241   */\n    tag_41:\n        /* \"#utility.yul\":13019:13023   */\n      0x00\n        /* \"#utility.yul\":13057:13059   */\n      0x20\n        /* \"#utility.yul\":13046:13055   */\n      dup3\n        /* \"#utility.yul\":13042:13060   */\n      add\n        /* \"#utility.yul\":13034:13060   */\n      swap1\n      pop\n        /* \"#utility.yul\":13106:13115   */\n      dup2\n        /* \"#utility.yul\":13100:13104   */\n      dup2\n        /* \"#utility.yul\":13096:13116   */\n      sub\n        /* \"#utility.yul\":13092:13093   */\n      0x00\n        /* \"#utility.yul\":13081:13090   */\n      dup4\n        /* \"#utility.yul\":13077:13094   */\n      add\n        /* \"#utility.yul\":13070:13117   */\n      mstore\n        /* \"#utility.yul\":13134:13234   */\n      tag_372\n        /* \"#utility.yul\":13229:13233   */\n      dup2\n        /* \"#utility.yul\":13220:13226   */\n      dup5\n        /* \"#utility.yul\":13134:13234   */\n      tag_205\n      jump\t// in\n    tag_372:\n        /* \"#utility.yul\":13126:13234   */\n      swap1\n      pop\n        /* \"#utility.yul\":12884:13241   */\n      swap3\n      swap2\n      pop\n      pop\n      jump\t// out\n        /* \"#utility.yul\":13247:13427   */\n    tag_45:\n        /* \"#utility.yul\":13295:13372   */\n      0x4e487b7100000000000000000000000000000000000000000000000000000000\n        /* \"#utility.yul\":13292:13293   */\n      0x00\n        /* \"#utility.yul\":13285:13373   */\n      mstore\n        /* \"#utility.yul\":13392:13396   */\n      0x32\n        /* \"#utility.yul\":13389:13390   */\n      0x04\n        /* \"#utility.yul\":13382:13397   */\n      mstore\n        /* \"#utility.yul\":13416:13420   */\n      0x24\n        /* \"#utility.yul\":13413:13414   */\n      0x00\n        /* \"#utility.yul\":13406:13421   */\n      revert\n        /* \"#utility.yul\":13433:13654   */\n    tag_206:\n        /* \"#utility.yul\":13573:13607   */\n      0x596f7520617265206e6f7420746865206f776e6572206f6620746865206f7264\n        /* \"#utility.yul\":13569:13570   */\n      0x00\n        /* \"#utility.yul\":13561:13567   */\n      dup3\n        /* \"#utility.yul\":13557:13571   */\n      add\n        /* \"#utility.yul\":13550:13608   */\n      mstore\n        /* \"#utility.yul\":13642:13646   */\n      0x6572000000000000000000000000000000000000000000000000000000000000\n        /* \"#utility.yul\":13637:13639   */\n      0x20\n        /* \"#utility.yul\":13629:13635   */\n      dup3\n        /* \"#utility.yul\":13625:13640   */\n      add\n        /* \"#utility.yul\":13618:13647   */\n      mstore\n        /* \"#utility.yul\":13433:13654   */\n      pop\n      jump\t// out\n        /* \"#utility.yul\":13660:14026   */\n    tag_207:\n        /* \"#utility.yul\":13802:13805   */\n      0x00\n        /* \"#utility.yul\":13823:13890   */\n      tag_376\n        /* \"#utility.yul\":13887:13889   */\n      0x22\n        /* \"#utility.yul\":13882:13885   */\n      dup4\n        /* \"#utility.yul\":13823:13890   */\n      tag_187\n      jump\t// in\n    tag_376:\n        /* \"#utility.yul\":13816:13890   */\n      swap2\n      pop\n        /* \"#utility.yul\":13899:13992   */\n      tag_377\n        /* \"#utility.yul\":13988:13991   */\n      dup3\n        /* \"#utility.yul\":13899:13992   */\n      tag_206\n      jump\t// in\n    tag_377:\n        /* \"#utility.yul\":14017:14019   */\n      0x40\n        /* \"#utility.yul\":14012:14015   */\n      dup3\n        /* \"#utility.yul\":14008:14020   */\n      add\n        /* \"#utility.yul\":14001:14020   */\n      swap1\n      pop\n        /* \"#utility.yul\":13660:14026   */\n      swap2\n      swap1\n      pop\n      jump\t// out\n        /* \"#utility.yul\":14032:14451   */\n    tag_49:\n        /* \"#utility.yul\":14198:14202   */\n      0x00\n        /* \"#utility.yul\":14236:14238   */\n      0x20\n        /* \"#utility.yul\":14225:14234   */\n      dup3\n        /* \"#utility.yul\":14221:14239   */\n      add\n        /* \"#utility.yul\":14213:14239   */\n      swap1\n      pop\n        /* \"#utility.yul\":14285:14294   */\n      dup2\n        /* \"#utility.yul\":14279:14283   */\n      dup2\n        /* \"#utility.yul\":14275:14295   */\n      sub\n        /* \"#utility.yul\":14271:14272   */\n      0x00\n        /* \"#utility.yul\":14260:14269   */\n      dup4\n        /* \"#utility.yul\":14256:14273   */\n      add\n        /* \"#utility.yul\":14249:14296   */\n      mstore\n        /* \"#utility.yul\":14313:14444   */\n      tag_379\n        /* \"#utility.yul\":14439:14443   */\n      dup2\n        /* \"#utility.yul\":14313:14444   */\n      tag_207\n      jump\t// in\n    tag_379:\n        /* \"#utility.yul\":14305:14444   */\n      swap1\n      pop\n        /* \"#utility.yul\":14032:14451   */\n      swap2\n      swap1\n      pop\n      jump\t// out\n        /* \"#utility.yul\":14457:14628   */\n    tag_208:\n        /* \"#utility.yul\":14597:14620   */\n      0x4e6f7420612076616c6964206f726465722069642e0000000000000000000000\n        /* \"#utility.yul\":14593:14594   */\n      0x00\n        /* \"#utility.yul\":14585:14591   */\n      dup3\n        /* \"#utility.yul\":14581:14595   */\n      add\n        /* \"#utility.yul\":14574:14621   */\n      mstore\n        /* \"#utility.yul\":14457:14628   */\n      pop\n      jump\t// out\n        /* \"#utility.yul\":14634:15000   */\n    tag_209:\n        /* \"#utility.yul\":14776:14779   */\n      0x00\n        /* \"#utility.yul\":14797:14864   */\n      tag_382\n        /* \"#utility.yul\":14861:14863   */\n      0x15\n        /* \"#utility.yul\":14856:14859   */\n      dup4\n        /* \"#utility.yul\":14797:14864   */\n      tag_187\n      jump\t// in\n    tag_382:\n        /* \"#utility.yul\":14790:14864   */\n      swap2\n      pop\n        /* \"#utility.yul\":14873:14966   */\n      tag_383\n        /* \"#utility.yul\":14962:14965   */\n      dup3\n        /* \"#utility.yul\":14873:14966   */\n      tag_208\n      jump\t// in\n    tag_383:\n        /* \"#utility.yul\":14991:14993   */\n      0x20\n        /* \"#utility.yul\":14986:14989   */\n      dup3\n        /* \"#utility.yul\":14982:14994   */\n      add\n        /* \"#utility.yul\":14975:14994   */\n      swap1\n      pop\n        /* \"#utility.yul\":14634:15000   */\n      swap2\n      swap1\n      pop\n      jump\t// out\n        /* \"#utility.yul\":15006:15425   */\n    tag_54:\n        /* \"#utility.yul\":15172:15176   */\n      0x00\n        /* \"#utility.yul\":15210:15212   */\n      0x20\n        /* \"#utility.yul\":15199:15208   */\n      dup3\n        /* \"#utility.yul\":15195:15213   */\n      add\n        /* \"#utility.yul\":15187:15213   */\n      swap1\n      pop\n        /* \"#utility.yul\":15259:15268   */\n      dup2\n        /* \"#utility.yul\":15253:15257   */\n      dup2\n        /* \"#utility.yul\":15249:15269   */\n      sub\n        /* \"#utility.yul\":15245:15246   */\n      0x00\n        /* \"#utility.yul\":15234:15243   */\n      dup4\n        /* \"#utility.yul\":15230:15247   */\n      add\n        /* \"#utility.yul\":15223:15270   */\n      mstore\n        /* \"#utility.yul\":15287:15418   */\n      tag_385\n        /* \"#utility.yul\":15413:15417   */\n      dup2\n        /* \"#utility.yul\":15287:15418   */\n      tag_209\n      jump\t// in\n    tag_385:\n        /* \"#utility.yul\":15279:15418   */\n      swap1\n      pop\n        /* \"#utility.yul\":15006:15425   */\n      swap2\n      swap1\n      pop\n      jump\t// out\n        /* \"#utility.yul\":15431:15611   */\n    tag_210:\n        /* \"#utility.yul\":15479:15556   */\n      0x4e487b7100000000000000000000000000000000000000000000000000000000\n        /* \"#utility.yul\":15476:15477   */\n      0x00\n        /* \"#utility.yul\":15469:15557   */\n      mstore\n        /* \"#utility.yul\":15576:15580   */\n      0x22\n        /* \"#utility.yul\":15573:15574   */\n      0x04\n        /* \"#utility.yul\":15566:15581   */\n      mstore\n        /* \"#utility.yul\":15600:15604   */\n      0x24\n        /* \"#utility.yul\":15597:15598   */\n      0x00\n        /* \"#utility.yul\":15590:15605   */\n      revert\n        /* \"#utility.yul\":15617:15937   */\n    tag_88:\n        /* \"#utility.yul\":15661:15667   */\n      0x00\n        /* \"#utility.yul\":15698:15699   */\n      0x02\n        /* \"#utility.yul\":15692:15696   */\n      dup3\n        /* \"#utility.yul\":15688:15700   */\n      div\n        /* \"#utility.yul\":15678:15700   */\n      swap1\n      pop\n        /* \"#utility.yul\":15745:15746   */\n      0x01\n        /* \"#utility.yul\":15739:15743   */\n      dup3\n        /* \"#utility.yul\":15735:15747   */\n      and\n        /* \"#utility.yul\":15766:15784   */\n      dup1\n        /* \"#utility.yul\":15756:15837   */\n      tag_388\n      jumpi\n        /* \"#utility.yul\":15822:15826   */\n      0x7f\n        /* \"#utility.yul\":15814:15820   */\n      dup3\n        /* \"#utility.yul\":15810:15827   */\n      and\n        /* \"#utility.yul\":15800:15827   */\n      swap2\n      pop\n        /* \"#utility.yul\":15756:15837   */\n    tag_388:\n        /* \"#utility.yul\":15884:15886   */\n      0x20\n        /* \"#utility.yul\":15876:15882   */\n      dup3\n        /* \"#utility.yul\":15873:15887   */\n      lt\n        /* \"#utility.yul\":15853:15871   */\n      dup2\n        /* \"#utility.yul\":15850:15888   */\n      sub\n        /* \"#utility.yul\":15847:15931   */\n      tag_389\n      jumpi\n        /* \"#utility.yul\":15903:15921   */\n      tag_390\n      tag_210\n      jump\t// in\n    tag_390:\n        /* \"#utility.yul\":15847:15931   */\n    tag_389:\n        /* \"#utility.yul\":15668:15937   */\n      pop\n        /* \"#utility.yul\":15617:15937   */\n      swap2\n      swap1\n      pop\n      jump\t// out\n        /* \"#utility.yul\":15943:16084   */\n    tag_211:\n        /* \"#utility.yul\":15992:15996   */\n      0x00\n        /* \"#utility.yul\":16015:16018   */\n      dup2\n        /* \"#utility.yul\":16007:16018   */\n      swap1\n      pop\n        /* \"#utility.yul\":16038:16041   */\n      dup2\n        /* \"#utility.yul\":16035:16036   */\n      0x00\n        /* \"#utility.yul\":16028:16042   */\n      mstore\n        /* \"#utility.yul\":16072:16076   */\n      0x20\n        /* \"#utility.yul\":16069:16070   */\n      0x00\n        /* \"#utility.yul\":16059:16077   */\n      keccak256\n        /* \"#utility.yul\":16051:16077   */\n      swap1\n      pop\n        /* \"#utility.yul\":15943:16084   */\n      swap2\n      swap1\n      pop\n      jump\t// out\n        /* \"#utility.yul\":16090:16183   */\n    tag_212:\n        /* \"#utility.yul\":16127:16133   */\n      0x00\n        /* \"#utility.yul\":16174:16176   */\n      0x20\n        /* \"#utility.yul\":16169:16171   */\n      0x1f\n        /* \"#utility.yul\":16162:16167   */\n      dup4\n        /* \"#utility.yul\":16158:16172   */\n      add\n        /* \"#utility.yul\":16154:16177   */\n      div\n        /* \"#utility.yul\":16144:16177   */\n      swap1\n      pop\n        /* \"#utility.yul\":16090:16183   */\n      swap2\n      swap1\n      pop\n      jump\t// out\n        /* \"#utility.yul\":16189:16296   */\n    tag_213:\n        /* \"#utility.yul\":16233:16241   */\n      0x00\n        /* \"#utility.yul\":16283:16288   */\n      dup3\n        /* \"#utility.yul\":16277:16281   */\n      dup3\n        /* \"#utility.yul\":16273:16289   */\n      shl\n        /* \"#utility.yul\":16252:16289   */\n      swap1\n      pop\n        /* \"#utility.yul\":16189:16296   */\n      swap3\n      swap2\n      pop\n      pop\n      jump\t// out\n        /* \"#utility.yul\":16302:16695   */\n    tag_214:\n        /* \"#utility.yul\":16371:16377   */\n      0x00\n        /* \"#utility.yul\":16421:16422   */\n      0x08\n        /* \"#utility.yul\":16409:16419   */\n      dup4\n        /* \"#utility.yul\":16405:16423   */\n      mul\n        /* \"#utility.yul\":16444:16541   */\n      tag_395\n        /* \"#utility.yul\":16474:16540   */\n      0xffffffffffffffffffffffffffffffffffffffffffffffffffffffffffffffff\n        /* \"#utility.yul\":16463:16472   */\n      dup3\n        /* \"#utility.yul\":16444:16541   */\n      tag_213\n      jump\t// in\n    tag_395:\n        /* \"#utility.yul\":16562:16601   */\n      tag_396\n        /* \"#utility.yul\":16592:16600   */\n      dup7\n        /* \"#utility.yul\":16581:16590   */\n      dup4\n        /* \"#utility.yul\":16562:16601   */\n      tag_213\n      jump\t// in\n    tag_396:\n        /* \"#utility.yul\":16550:16601   */\n      swap6\n      pop\n        /* \"#utility.yul\":16634:16638   */\n      dup1\n        /* \"#utility.yul\":16630:16639   */\n      not\n        /* \"#utility.yul\":16623:16628   */\n      dup5\n        /* \"#utility.yul\":16619:16640   */\n      and\n        /* \"#utility.yul\":16610:16640   */\n      swap4\n      pop\n        /* \"#utility.yul\":16683:16687   */\n      dup1\n        /* \"#utility.yul\":16673:16681   */\n      dup7\n        /* \"#utility.yul\":16669:16688   */\n      and\n        /* \"#utility.yul\":16662:16667   */\n      dup5\n        /* \"#utility.yul\":16659:16689   */\n      or\n        /* \"#utility.yul\":16649:16689   */\n      swap3\n      pop\n        /* \"#utility.yul\":16378:16695   */\n      pop\n      pop\n        /* \"#utility.yul\":16302:16695   */\n      swap4\n      swap3\n      pop\n      pop\n      pop\n      jump\t// out\n        /* \"#utility.yul\":16701:16761   */\n    tag_215:\n        /* \"#utility.yul\":16729:16732   */\n      0x00\n        /* \"#utility.yul\":16750:16755   */\n      dup2\n        /* \"#utility.yul\":16743:16755   */\n      swap1\n      pop\n        /* \"#utility.yul\":16701:16761   */\n      swap2\n      swap1\n      pop\n      jump\t// out\n        /* \"#utility.yul\":16767:16909   */\n    tag_216:\n        /* \"#utility.yul\":16817:16826   */\n      0x00\n        /* \"#utility.yul\":16850:16903   */\n      tag_399\n        /* \"#utility.yul\":16868:16902   */\n      tag_400\n        /* \"#utility.yul\":16877:16901   */\n      tag_401\n        /* \"#utility.yul\":16895:16900   */\n      dup5\n        /* \"#utility.yul\":16877:16901   */\n      tag_162\n      jump\t// in\n    tag_401:\n        /* \"#utility.yul\":16868:16902   */\n      tag_215\n      jump\t// in\n    tag_400:\n        /* \"#utility.yul\":16850:16903   */\n      tag_162\n      jump\t// in\n    tag_399:\n        /* \"#utility.yul\":16837:16903   */\n      swap1\n      pop\n        /* \"#utility.yul\":16767:16909   */\n      swap2\n      swap1\n      pop\n      jump\t// out\n        /* \"#utility.yul\":16915:16990   */\n    tag_217:\n        /* \"#utility.yul\":16958:16961   */\n      0x00\n        /* \"#utility.yul\":16979:16984   */\n      dup2\n        /* \"#utility.yul\":16972:16984   */\n      swap1\n      pop\n        /* \"#utility.yul\":16915:16990   */\n      swap2\n      swap1\n      pop\n      jump\t// out\n        /* \"#utility.yul\":16996:17265   */\n    tag_218:\n        /* \"#utility.yul\":17106:17145   */\n      tag_404\n        /* \"#utility.yul\":17137:17144   */\n      dup4\n        /* \"#utility.yul\":17106:17145   */\n      tag_216\n      jump\t// in\n    tag_404:\n        /* \"#utility.yul\":17167:17258   */\n      tag_405\n        /* \"#utility.yul\":17216:17257   */\n      tag_406\n        /* \"#utility.yul\":17240:17256   */\n      dup3\n        /* \"#utility.yul\":17216:17257   */\n      tag_217\n      jump\t// in\n    tag_406:\n        /* \"#utility.yul\":17208:17214   */\n      dup5\n        /* \"#utility.yul\":17201:17205   */\n      dup5\n        /* \"#utility.yul\":17195:17206   */\n      sload\n        /* \"#utility.yul\":17167:17258   */\n      tag_214\n      jump\t// in\n    tag_405:\n        /* \"#utility.yul\":17161:17165   */\n      dup3\n        /* \"#utility.yul\":17154:17259   */\n      sstore\n        /* \"#utility.yul\":17072:17265   */\n      pop\n        /* \"#utility.yul\":16996:17265   */\n      pop\n      pop\n      pop\n      jump\t// out\n        /* \"#utility.yul\":17271:17344   */\n    tag_219:\n        /* \"#utility.yul\":17316:17319   */\n      0x00\n        /* \"#utility.yul\":17271:17344   */\n      swap1\n      jump\t// out\n        /* \"#utility.yul\":17350:17539   */\n    tag_220:\n        /* \"#utility.yul\":17427:17459   */\n      tag_409\n      tag_219\n      jump\t// in\n    tag_409:\n        /* \"#utility.yul\":17468:17533   */\n      tag_410\n        /* \"#utility.yul\":17526:17532   */\n      dup2\n        /* \"#utility.yul\":17518:17524   */\n      dup5\n        /* \"#utility.yul\":17512:17516   */\n      dup5\n        /* \"#utility.yul\":17468:17533   */\n      tag_218\n      jump\t// in\n    tag_410:\n        /* \"#utility.yul\":17403:17539   */\n      pop\n        /* \"#utility.yul\":17350:17539   */\n      pop\n      pop\n      jump\t// out\n        /* \"#utility.yul\":17545:17731   */\n    tag_221:\n        /* \"#utility.yul\":17605:17725   */\n    tag_412:\n        /* \"#utility.yul\":17622:17625   */\n      dup2\n        /* \"#utility.yul\":17615:17620   */\n      dup2\n        /* \"#utility.yul\":17612:17626   */\n      lt\n        /* \"#utility.yul\":17605:17725   */\n      iszero\n      tag_414\n      jumpi\n        /* \"#utility.yul\":17676:17715   */\n      tag_415\n        /* \"#utility.yul\":17713:17714   */\n      0x00\n        /* \"#utility.yul\":17706:17711   */\n      dup3\n        /* \"#utility.yul\":17676:17715   */\n      tag_220\n      jump\t// in\n    tag_415:\n        /* \"#utility.yul\":17649:17650   */\n      0x01\n        /* \"#utility.yul\":17642:17647   */\n      dup2\n        /* \"#utility.yul\":17638:17651   */\n      add\n        /* \"#utility.yul\":17629:17651   */\n      swap1\n      pop\n        /* \"#utility.yul\":17605:17725   */\n      jump(tag_412)\n    tag_414:\n        /* \"#utility.yul\":17545:17731   */\n      pop\n      pop\n      jump\t// out\n        /* \"#utility.yul\":17737:18280   */\n    tag_222:\n        /* \"#utility.yul\":17838:17840   */\n      0x1f\n        /* \"#utility.yul\":17833:17836   */\n      dup3\n        /* \"#utility.yul\":17830:17841   */\n      gt\n        /* \"#utility.yul\":17827:18273   */\n      iszero\n      tag_417\n      jumpi\n        /* \"#utility.yul\":17872:17910   */\n      tag_418\n        /* \"#utility.yul\":17904:17909   */\n      dup2\n        /* \"#utility.yul\":17872:17910   */\n      tag_211\n      jump\t// in\n    tag_418:\n        /* \"#utility.yul\":17956:17985   */\n      tag_419\n        /* \"#utility.yul\":17974:17984   */\n      dup5\n        /* \"#utility.yul\":17956:17985   */\n      tag_212\n      jump\t// in\n    tag_419:\n        /* \"#utility.yul\":17946:17954   */\n      dup2\n        /* \"#utility.yul\":17942:17986   */\n      add\n        /* \"#utility.yul\":18139:18141   */\n      0x20\n        /* \"#utility.yul\":18127:18137   */\n      dup6\n        /* \"#utility.yul\":18124:18142   */\n      lt\n        /* \"#utility.yul\":18121:18170   */\n      iszero\n      tag_420\n      jumpi\n        /* \"#utility.yul\":18160:18168   */\n      dup2\n        /* \"#utility.yul\":18145:18168   */\n      swap1\n      pop\n        /* \"#utility.yul\":18121:18170   */\n    tag_420:\n        /* \"#utility.yul\":18183:18263   */\n      tag_421\n        /* \"#utility.yul\":18239:18261   */\n      tag_422\n        /* \"#utility.yul\":18257:18260   */\n      dup6\n        /* \"#utility.yul\":18239:18261   */\n      tag_212\n      jump\t// in\n    tag_422:\n        /* \"#utility.yul\":18229:18237   */\n      dup4\n        /* \"#utility.yul\":18225:18262   */\n      add\n        /* \"#utility.yul\":18212:18223   */\n      dup3\n        /* \"#utility.yul\":18183:18263   */\n      tag_221\n      jump\t// in\n    tag_421:\n        /* \"#utility.yul\":17842:18273   */\n      pop\n      pop\n        /* \"#utility.yul\":17827:18273   */\n    tag_417:\n        /* \"#utility.yul\":17737:18280   */\n      pop\n      pop\n      pop\n      jump\t// out\n        /* \"#utility.yul\":18286:18403   */\n    tag_223:\n        /* \"#utility.yul\":18340:18348   */\n      0x00\n        /* \"#utility.yul\":18390:18395   */\n      dup3\n        /* \"#utility.yul\":18384:18388   */\n      dup3\n        /* \"#utility.yul\":18380:18396   */\n      shr\n        /* \"#utility.yul\":18359:18396   */\n      swap1\n      pop\n        /* \"#utility.yul\":18286:18403   */\n      swap3\n      swap2\n      pop\n      pop\n      jump\t// out\n        /* \"#utility.yul\":18409:18578   */\n    tag_224:\n        /* \"#utility.yul\":18453:18459   */\n      0x00\n        /* \"#utility.yul\":18486:18537   */\n      tag_425\n        /* \"#utility.yul\":18534:18535   */\n      0x00\n        /* \"#utility.yul\":18530:18536   */\n      not\n        /* \"#utility.yul\":18522:18527   */\n      dup5\n        /* \"#utility.yul\":18519:18520   */\n      0x08\n        /* \"#utility.yul\":18515:18528   */\n      mul\n        /* \"#utility.yul\":18486:18537   */\n      tag_223\n      jump\t// in\n    tag_425:\n        /* \"#utility.yul\":18482:18538   */\n      not\n        /* \"#utility.yul\":18567:18571   */\n      dup1\n        /* \"#utility.yul\":18561:18565   */\n      dup4\n        /* \"#utility.yul\":18557:18572   */\n      and\n        /* \"#utility.yul\":18547:18572   */\n      swap2\n      pop\n        /* \"#utility.yul\":18460:18578   */\n      pop\n        /* \"#utility.yul\":18409:18578   */\n      swap3\n      swap2\n      pop\n      pop\n      jump\t// out\n        /* \"#utility.yul\":18583:18878   */\n    tag_225:\n        /* \"#utility.yul\":18659:18663   */\n      0x00\n        /* \"#utility.yul\":18805:18834   */\n      tag_427\n        /* \"#utility.yul\":18830:18833   */\n      dup4\n        /* \"#utility.yul\":18824:18828   */\n      dup4\n        /* \"#utility.yul\":18805:18834   */\n      tag_224\n      jump\t// in\n    tag_427:\n        /* \"#utility.yul\":18797:18834   */\n      swap2\n      pop\n        /* \"#utility.yul\":18867:18870   */\n      dup3\n        /* \"#utility.yul\":18864:18865   */\n      0x02\n        /* \"#utility.yul\":18860:18871   */\n      mul\n        /* \"#utility.yul\":18854:18858   */\n      dup3\n        /* \"#utility.yul\":18851:18872   */\n      or\n        /* \"#utility.yul\":18843:18872   */\n      swap1\n      pop\n        /* \"#utility.yul\":18583:18878   */\n      swap3\n      swap2\n      pop\n      pop\n      jump\t// out\n        /* \"#utility.yul\":18883:20278   */\n    tag_60:\n        /* \"#utility.yul\":19000:19037   */\n      tag_429\n        /* \"#utility.yul\":19033:19036   */\n      dup3\n        /* \"#utility.yul\":19000:19037   */\n      tag_186\n      jump\t// in\n    tag_429:\n        /* \"#utility.yul\":19102:19120   */\n      0xffffffffffffffff\n        /* \"#utility.yul\":19094:19100   */\n      dup2\n        /* \"#utility.yul\":19091:19121   */\n      gt\n        /* \"#utility.yul\":19088:19144   */\n      iszero\n      tag_430\n      jumpi\n        /* \"#utility.yul\":19124:19142   */\n      tag_431\n      tag_172\n      jump\t// in\n    tag_431:\n        /* \"#utility.yul\":19088:19144   */\n    tag_430:\n        /* \"#utility.yul\":19168:19206   */\n      tag_432\n        /* \"#utility.yul\":19200:19204   */\n      dup3\n        /* \"#utility.yul\":19194:19205   */\n      sload\n        /* \"#utility.yul\":19168:19206   */\n      tag_88\n      jump\t// in\n    tag_432:\n        /* \"#utility.yul\":19253:19320   */\n      tag_433\n        /* \"#utility.yul\":19313:19319   */\n      dup3\n        /* \"#utility.yul\":19305:19311   */\n      dup3\n        /* \"#utility.yul\":19299:19303   */\n      dup6\n        /* \"#utility.yul\":19253:19320   */\n      tag_222\n      jump\t// in\n    tag_433:\n        /* \"#utility.yul\":19347:19348   */\n      0x00\n        /* \"#utility.yul\":19371:19375   */\n      0x20\n        /* \"#utility.yul\":19358:19375   */\n      swap1\n      pop\n        /* \"#utility.yul\":19403:19405   */\n      0x1f\n        /* \"#utility.yul\":19395:19401   */\n      dup4\n        /* \"#utility.yul\":19392:19406   */\n      gt\n        /* \"#utility.yul\":19420:19421   */\n      0x01\n        /* \"#utility.yul\":19415:20033   */\n      dup2\n      eq\n      tag_435\n      jumpi\n        /* \"#utility.yul\":20077:20078   */\n      0x00\n        /* \"#utility.yul\":20094:20100   */\n      dup5\n        /* \"#utility.yul\":20091:20168   */\n      iszero\n      tag_436\n      jumpi\n        /* \"#utility.yul\":20143:20152   */\n      dup3\n        /* \"#utility.yul\":20138:20141   */\n      dup8\n        /* \"#utility.yul\":20134:20153   */\n      add\n        /* \"#utility.yul\":20128:20154   */\n      mload\n        /* \"#utility.yul\":20119:20154   */\n      swap1\n      pop\n        /* \"#utility.yul\":20091:20168   */\n    tag_436:\n        /* \"#utility.yul\":20194:20261   */\n      tag_437\n        /* \"#utility.yul\":20254:20260   */\n      dup6\n        /* \"#utility.yul\":20247:20252   */\n      dup3\n        /* \"#utility.yul\":20194:20261   */\n      tag_225\n      jump\t// in\n    tag_437:\n        /* \"#utility.yul\":20188:20192   */\n      dup7\n        /* \"#utility.yul\":20181:20262   */\n      sstore\n        /* \"#utility.yul\":20050:20272   */\n      pop\n        /* \"#utility.yul\":19385:20272   */\n      jump(tag_434)\n        /* \"#utility.yul\":19415:20033   */\n    tag_435:\n        /* \"#utility.yul\":19467:19471   */\n      0x1f\n        /* \"#utility.yul\":19463:19472   */\n      not\n        /* \"#utility.yul\":19455:19461   */\n      dup5\n        /* \"#utility.yul\":19451:19473   */\n      and\n        /* \"#utility.yul\":19501:19538   */\n      tag_438\n        /* \"#utility.yul\":19533:19537   */\n      dup7\n        /* \"#utility.yul\":19501:19538   */\n      tag_211\n      jump\t// in\n    tag_438:\n        /* \"#utility.yul\":19560:19561   */\n      0x00\n        /* \"#utility.yul\":19574:19782   */\n    tag_439:\n        /* \"#utility.yul\":19588:19595   */\n      dup3\n        /* \"#utility.yul\":19585:19586   */\n      dup2\n        /* \"#utility.yul\":19582:19596   */\n      lt\n        /* \"#utility.yul\":19574:19782   */\n      iszero\n      tag_441\n      jumpi\n        /* \"#utility.yul\":19667:19676   */\n      dup5\n        /* \"#utility.yul\":19662:19665   */\n      dup10\n        /* \"#utility.yul\":19658:19677   */\n      add\n        /* \"#utility.yul\":19652:19678   */\n      mload\n        /* \"#utility.yul\":19644:19650   */\n      dup3\n        /* \"#utility.yul\":19637:19679   */\n      sstore\n        /* \"#utility.yul\":19718:19719   */\n      0x01\n        /* \"#utility.yul\":19710:19716   */\n      dup3\n        /* \"#utility.yul\":19706:19720   */\n      add\n        /* \"#utility.yul\":19696:19720   */\n      swap2\n      pop\n        /* \"#utility.yul\":19765:19767   */\n      0x20\n        /* \"#utility.yul\":19754:19763   */\n      dup6\n        /* \"#utility.yul\":19750:19768   */\n      add\n        /* \"#utility.yul\":19737:19768   */\n      swap5\n      pop\n        /* \"#utility.yul\":19611:19615   */\n      0x20\n        /* \"#utility.yul\":19608:19609   */\n      dup2\n        /* \"#utility.yul\":19604:19616   */\n      add\n        /* \"#utility.yul\":19599:19616   */\n      swap1\n      pop\n        /* \"#utility.yul\":19574:19782   */\n      jump(tag_439)\n    tag_441:\n        /* \"#utility.yul\":19810:19816   */\n      dup7\n        /* \"#utility.yul\":19801:19808   */\n      dup4\n        /* \"#utility.yul\":19798:19817   */\n      lt\n        /* \"#utility.yul\":19795:19974   */\n      iszero\n      tag_442\n      jumpi\n        /* \"#utility.yul\":19868:19877   */\n      dup5\n        /* \"#utility.yul\":19863:19866   */\n      dup10\n        /* \"#utility.yul\":19859:19878   */\n      add\n        /* \"#utility.yul\":19853:19879   */\n      mload\n        /* \"#utility.yul\":19911:19959   */\n      tag_443\n        /* \"#utility.yul\":19953:19957   */\n      0x1f\n        /* \"#utility.yul\":19945:19951   */\n      dup10\n        /* \"#utility.yul\":19941:19958   */\n      and\n        /* \"#utility.yul\":19930:19939   */\n      dup3\n        /* \"#utility.yul\":19911:19959   */\n      tag_224\n      jump\t// in\n    tag_443:\n        /* \"#utility.yul\":19903:19909   */\n      dup4\n        /* \"#utility.yul\":19896:19960   */\n      sstore\n        /* \"#utility.yul\":19818:19974   */\n      pop\n        /* \"#utility.yul\":19795:19974   */\n    tag_442:\n        /* \"#utility.yul\":20020:20021   */\n      0x01\n        /* \"#utility.yul\":20016:20017   */\n      0x02\n        /* \"#utility.yul\":20008:20014   */\n      dup9\n        /* \"#utility.yul\":20004:20018   */\n      mul\n        /* \"#utility.yul\":20000:20022   */\n      add\n        /* \"#utility.yul\":19994:19998   */\n      dup9\n        /* \"#utility.yul\":19987:20023   */\n      sstore\n        /* \"#utility.yul\":19422:20033   */\n      pop\n      pop\n      pop\n        /* \"#utility.yul\":19385:20272   */\n    tag_434:\n      pop\n        /* \"#utility.yul\":18975:20278   */\n      pop\n      pop\n      pop\n        /* \"#utility.yul\":18883:20278   */\n      pop\n      pop\n      jump\t// out\n        /* \"#utility.yul\":20284:20464   */\n    tag_226:\n        /* \"#utility.yul\":20332:20409   */\n      0x4e487b7100000000000000000000000000000000000000000000000000000000\n        /* \"#utility.yul\":20329:20330   */\n      0x00\n        /* \"#utility.yul\":20322:20410   */\n      mstore\n        /* \"#utility.yul\":20429:20433   */\n      0x11\n        /* \"#utility.yul\":20426:20427   */\n      0x04\n        /* \"#utility.yul\":20419:20434   */\n      mstore\n        /* \"#utility.yul\":20453:20457   */\n      0x24\n        /* \"#utility.yul\":20450:20451   */\n      0x00\n        /* \"#utility.yul\":20443:20458   */\n      revert\n        /* \"#utility.yul\":20470:20703   */\n    tag_62:\n        /* \"#utility.yul\":20509:20512   */\n      0x00\n        /* \"#utility.yul\":20532:20556   */\n      tag_446\n        /* \"#utility.yul\":20550:20555   */\n      dup3\n        /* \"#utility.yul\":20532:20556   */\n      tag_162\n      jump\t// in\n    tag_446:\n        /* \"#utility.yul\":20523:20556   */\n      swap2\n      pop\n        /* \"#utility.yul\":20578:20644   */\n      0xffffffffffffffffffffffffffffffffffffffffffffffffffffffffffffffff\n        /* \"#utility.yul\":20571:20576   */\n      dup3\n        /* \"#utility.yul\":20568:20645   */\n      sub\n        /* \"#utility.yul\":20565:20668   */\n      tag_447\n      jumpi\n        /* \"#utility.yul\":20648:20666   */\n      tag_448\n      tag_226\n      jump\t// in\n    tag_448:\n        /* \"#utility.yul\":20565:20668   */\n    tag_447:\n        /* \"#utility.yul\":20695:20696   */\n      0x01\n        /* \"#utility.yul\":20688:20693   */\n      dup3\n        /* \"#utility.yul\":20684:20697   */\n      add\n        /* \"#utility.yul\":20677:20697   */\n      swap1\n      pop\n        /* \"#utility.yul\":20470:20703   */\n      swap2\n      swap1\n      pop\n      jump\t// out\n        /* \"#utility.yul\":20709:20871   */\n    tag_227:\n        /* \"#utility.yul\":20849:20863   */\n      0x4e6f2070726f64756374732e0000000000000000000000000000000000000000\n        /* \"#utility.yul\":20845:20846   */\n      0x00\n        /* \"#utility.yul\":20837:20843   */\n      dup3\n        /* \"#utility.yul\":20833:20847   */\n      add\n        /* \"#utility.yul\":20826:20864   */\n      mstore\n        /* \"#utility.yul\":20709:20871   */\n      pop\n      jump\t// out\n        /* \"#utility.yul\":20877:21243   */\n    tag_228:\n        /* \"#utility.yul\":21019:21022   */\n      0x00\n        /* \"#utility.yul\":21040:21107   */\n      tag_451\n        /* \"#utility.yul\":21104:21106   */\n      0x0c\n        /* \"#utility.yul\":21099:21102   */\n      dup4\n        /* \"#utility.yul\":21040:21107   */\n      tag_187\n      jump\t// in\n    tag_451:\n        /* \"#utility.yul\":21033:21107   */\n      swap2\n      pop\n        /* \"#utility.yul\":21116:21209   */\n      tag_452\n        /* \"#utility.yul\":21205:21208   */\n      dup3\n        /* \"#utility.yul\":21116:21209   */\n      tag_227\n      jump\t// in\n    tag_452:\n        /* \"#utility.yul\":21234:21236   */\n      0x20\n        /* \"#utility.yul\":21229:21232   */\n      dup3\n        /* \"#utility.yul\":21225:21237   */\n      add\n        /* \"#utility.yul\":21218:21237   */\n      swap1\n      pop\n        /* \"#utility.yul\":20877:21243   */\n      swap2\n      swap1\n      pop\n      jump\t// out\n        /* \"#utility.yul\":21249:21668   */\n    tag_67:\n        /* \"#utility.yul\":21415:21419   */\n      0x00\n        /* \"#utility.yul\":21453:21455   */\n      0x20\n        /* \"#utility.yul\":21442:21451   */\n      dup3\n        /* \"#utility.yul\":21438:21456   */\n      add\n        /* \"#utility.yul\":21430:21456   */\n      swap1\n      pop\n        /* \"#utility.yul\":21502:21511   */\n      dup2\n        /* \"#utility.yul\":21496:21500   */\n      dup2\n        /* \"#utility.yul\":21492:21512   */\n      sub\n        /* \"#utility.yul\":21488:21489   */\n      0x00\n        /* \"#utility.yul\":21477:21486   */\n      dup4\n        /* \"#utility.yul\":21473:21490   */\n      add\n        /* \"#utility.yul\":21466:21513   */\n      mstore\n        /* \"#utility.yul\":21530:21661   */\n      tag_454\n        /* \"#utility.yul\":21656:21660   */\n      dup2\n        /* \"#utility.yul\":21530:21661   */\n      tag_228\n      jump\t// in\n    tag_454:\n        /* \"#utility.yul\":21522:21661   */\n      swap1\n      pop\n        /* \"#utility.yul\":21249:21668   */\n      swap2\n      swap1\n      pop\n      jump\t// out\n        /* \"#utility.yul\":21674:21868   */\n    tag_83:\n        /* \"#utility.yul\":21714:21718   */\n      0x00\n        /* \"#utility.yul\":21734:21754   */\n      tag_456\n        /* \"#utility.yul\":21752:21753   */\n      dup3\n        /* \"#utility.yul\":21734:21754   */\n      tag_162\n      jump\t// in\n    tag_456:\n        /* \"#utility.yul\":21729:21754   */\n      swap2\n      pop\n        /* \"#utility.yul\":21768:21788   */\n      tag_457\n        /* \"#utility.yul\":21786:21787   */\n      dup4\n        /* \"#utility.yul\":21768:21788   */\n      tag_162\n      jump\t// in\n    tag_457:\n        /* \"#utility.yul\":21763:21788   */\n      swap3\n      pop\n        /* \"#utility.yul\":21812:21813   */\n      dup3\n        /* \"#utility.yul\":21809:21810   */\n      dup3\n        /* \"#utility.yul\":21805:21814   */\n      sub\n        /* \"#utility.yul\":21797:21814   */\n      swap1\n      pop\n        /* \"#utility.yul\":21836:21837   */\n      dup2\n        /* \"#utility.yul\":21830:21834   */\n      dup2\n        /* \"#utility.yul\":21827:21838   */\n      gt\n        /* \"#utility.yul\":21824:21861   */\n      iszero\n      tag_458\n      jumpi\n        /* \"#utility.yul\":21841:21859   */\n      tag_459\n      tag_226\n      jump\t// in\n    tag_459:\n        /* \"#utility.yul\":21824:21861   */\n    tag_458:\n        /* \"#utility.yul\":21674:21868   */\n      swap3\n      swap2\n      pop\n      pop\n      jump\t// out\n        /* \"#utility.yul\":21874:22047   */\n    tag_229:\n        /* \"#utility.yul\":22014:22039   */\n      0x596f7520617265206e6f7420617574686f72697a65642e000000000000000000\n        /* \"#utility.yul\":22010:22011   */\n      0x00\n        /* \"#utility.yul\":22002:22008   */\n      dup3\n        /* \"#utility.yul\":21998:22012   */\n      add\n        /* \"#utility.yul\":21991:22040   */\n      mstore\n        /* \"#utility.yul\":21874:22047   */\n      pop\n      jump\t// out\n        /* \"#utility.yul\":22053:22419   */\n    tag_230:\n        /* \"#utility.yul\":22195:22198   */\n      0x00\n        /* \"#utility.yul\":22216:22283   */\n      tag_462\n        /* \"#utility.yul\":22280:22282   */\n      0x17\n        /* \"#utility.yul\":22275:22278   */\n      dup4\n        /* \"#utility.yul\":22216:22283   */\n      tag_187\n      jump\t// in\n    tag_462:\n        /* \"#utility.yul\":22209:22283   */\n      swap2\n      pop\n        /* \"#utility.yul\":22292:22385   */\n      tag_463\n        /* \"#utility.yul\":22381:22384   */\n      dup3\n        /* \"#utility.yul\":22292:22385   */\n      tag_229\n      jump\t// in\n    tag_463:\n        /* \"#utility.yul\":22410:22412   */\n      0x20\n        /* \"#utility.yul\":22405:22408   */\n      dup3\n        /* \"#utility.yul\":22401:22413   */\n      add\n        /* \"#utility.yul\":22394:22413   */\n      swap1\n      pop\n        /* \"#utility.yul\":22053:22419   */\n      swap2\n      swap1\n      pop\n      jump\t// out\n        /* \"#utility.yul\":22425:22844   */\n    tag_99:\n        /* \"#utility.yul\":22591:22595   */\n      0x00\n        /* \"#utility.yul\":22629:22631   */\n      0x20\n        /* \"#utility.yul\":22618:22627   */\n      dup3\n        /* \"#utility.yul\":22614:22632   */\n      add\n        /* \"#utility.yul\":22606:22632   */\n      swap1\n      pop\n        /* \"#utility.yul\":22678:22687   */\n      dup2\n        /* \"#utility.yul\":22672:22676   */\n      dup2\n        /* \"#utility.yul\":22668:22688   */\n      sub\n        /* \"#utility.yul\":22664:22665   */\n      0x00\n        /* \"#utility.yul\":22653:22662   */\n      dup4\n        /* \"#utility.yul\":22649:22666   */\n      add\n        /* \"#utility.yul\":22642:22689   */\n      mstore\n        /* \"#utility.yul\":22706:22837   */\n      tag_465\n        /* \"#utility.yul\":22832:22836   */\n      dup2\n        /* \"#utility.yul\":22706:22837   */\n      tag_230\n      jump\t// in\n    tag_465:\n        /* \"#utility.yul\":22698:22837   */\n      swap1\n      pop\n        /* \"#utility.yul\":22425:22844   */\n      swap2\n      swap1\n      pop\n      jump\t// out\n        /* \"#utility.yul\":22850:23025   */\n    tag_231:\n        /* \"#utility.yul\":22990:23017   */\n      0x4f7264657220697320616c726561647920736869707065642e00000000000000\n        /* \"#utility.yul\":22986:22987   */\n      0x00\n        /* \"#utility.yul\":22978:22984   */\n      dup3\n        /* \"#utility.yul\":22974:22988   */\n      add\n        /* \"#utility.yul\":22967:23018   */\n      mstore\n        /* \"#utility.yul\":22850:23025   */\n      pop\n      jump\t// out\n        /* \"#utility.yul\":23031:23397   */\n    tag_232:\n        /* \"#utility.yul\":23173:23176   */\n      0x00\n        /* \"#utility.yul\":23194:23261   */\n      tag_468\n        /* \"#utility.yul\":23258:23260   */\n      0x19\n        /* \"#utility.yul\":23253:23256   */\n      dup4\n        /* \"#utility.yul\":23194:23261   */\n      tag_187\n      jump\t// in\n    tag_468:\n        /* \"#utility.yul\":23187:23261   */\n      swap2\n      pop\n        /* \"#utility.yul\":23270:23363   */\n      tag_469\n        /* \"#utility.yul\":23359:23362   */\n      dup3\n        /* \"#utility.yul\":23270:23363   */\n      tag_231\n      jump\t// in\n    tag_469:\n        /* \"#utility.yul\":23388:23390   */\n      0x20\n        /* \"#utility.yul\":23383:23386   */\n      dup3\n        /* \"#utility.yul\":23379:23391   */\n      add\n        /* \"#utility.yul\":23372:23391   */\n      swap1\n      pop\n        /* \"#utility.yul\":23031:23397   */\n      swap2\n      swap1\n      pop\n      jump\t// out\n        /* \"#utility.yul\":23403:23822   */\n    tag_110:\n        /* \"#utility.yul\":23569:23573   */\n      0x00\n        /* \"#utility.yul\":23607:23609   */\n      0x20\n        /* \"#utility.yul\":23596:23605   */\n      dup3\n        /* \"#utility.yul\":23592:23610   */\n      add\n        /* \"#utility.yul\":23584:23610   */\n      swap1\n      pop\n        /* \"#utility.yul\":23656:23665   */\n      dup2\n        /* \"#utility.yul\":23650:23654   */\n      dup2\n        /* \"#utility.yul\":23646:23666   */\n      sub\n        /* \"#utility.yul\":23642:23643   */\n      0x00\n        /* \"#utility.yul\":23631:23640   */\n      dup4\n        /* \"#utility.yul\":23627:23644   */\n      add\n        /* \"#utility.yul\":23620:23667   */\n      mstore\n        /* \"#utility.yul\":23684:23815   */\n      tag_471\n        /* \"#utility.yul\":23810:23814   */\n      dup2\n        /* \"#utility.yul\":23684:23815   */\n      tag_232\n      jump\t// in\n    tag_471:\n        /* \"#utility.yul\":23676:23815   */\n      swap1\n      pop\n        /* \"#utility.yul\":23403:23822   */\n      swap2\n      swap1\n      pop\n      jump\t// out\n\n    auxdata: 0xa2646970667358221220de7f903b4b7776c160f9ca6b3e809439737c71c6970418e571bdd91601c3c60b64736f6c634300081a0033\n}\n",
				"bytecode": {
					"linkReferences": {},
					"object": "6080604052348015600e575f80fd5b503360015f6101000a81548173ffffffffffffffffffffffffffffffffffffffff021916908373ffffffffffffffffffffffffffffffffffffffff1602179055506117788061005c5f395ff3fe608060405234801561000f575f80fd5b506004361061007b575f3560e01c80638da5cb5b116100595780638da5cb5b146100e9578063a85c38ef14610107578063afe13a6214610139578063d09ef241146101555761007b565b80633c5406871461007f578063577dc0a01461009d5780636d9a65d8146100b9575b5f80fd5b610087610185565b6040516100949190610b1d565b60405180910390f35b6100b760048036038101906100b29190610cad565b61018b565b005b6100d360048036038101906100ce9190610dcb565b6102d3565b6040516100e09190610b1d565b60405180910390f35b6100f161049b565b6040516100fe9190610e80565b60405180910390f35b610121600480360381019061011c9190610e99565b6104c0565b60405161013093929190610f97565b60405180910390f35b610153600480360381019061014e9190610e99565b6105a5565b005b61016f600480360381019061016a9190610e99565b61085c565b60405161017c9190611157565b60405180910390f35b60025481565b813373ffffffffffffffffffffffffffffffffffffffff165f82815481106101b6576101b5611177565b5b905f5260205f2090600402015f015f9054906101000a900473ffffffffffffffffffffffffffffffffffffffff1673ffffffffffffffffffffffffffffffffffffffff161461023a576040517f08c379a000000000000000000000000000000000000000000000000000000000815260040161023190611214565b60405180910390fd5b825f805490508110610281576040517f08c379a00000000000000000000000000000000000000000000000000000000081526004016102789061127c565b60405180910390fd5b5f80858154811061029557610294611177565b5b905f5260205f2090600402019050838160010190816102b49190611494565b50505060025f8154809291906102c990611590565b9190505550505050565b5f815f815111610318576040517f08c379a000000000000000000000000000000000000000000000000000000000815260040161030f90611621565b60405180910390fd5b610320610a51565b33815f019073ffffffffffffffffffffffffffffffffffffffff16908173ffffffffffffffffffffffffffffffffffffffff16815250508481602001819052508381604001819052505f8160600190600381111561038157610380610f24565b5b9081600381111561039557610394610f24565b5b815250505f81908060018154018082558091505060019003905f5260205f2090600402015f909190919091505f820151815f015f6101000a81548173ffffffffffffffffffffffffffffffffffffffff021916908373ffffffffffffffffffffffffffffffffffffffff160217905550602082015181600101908161041a9190611494565b506040820151816002019080519060200190610437929190610a9f565b506060820151816003015f6101000a81548160ff0219169083600381111561046257610461610f24565b5b0217905550505060015f8054905061047a919061163f565b9250505060025f81548092919061049090611590565b919050555092915050565b60015f9054906101000a900473ffffffffffffffffffffffffffffffffffffffff1681565b5f81815481106104ce575f80fd5b905f5260205f2090600402015f91509050805f015f9054906101000a900473ffffffffffffffffffffffffffffffffffffffff1690806001018054610512906112c7565b80601f016020809104026020016040519081016040528092919081815260200182805461053e906112c7565b80156105895780601f1061056057610100808354040283529160200191610589565b820191905f5260205f20905b81548152906001019060200180831161056c57829003601f168201915b505050505090806003015f9054906101000a900460ff16905083565b805f8054905081106105ec576040517f08c379a00000000000000000000000000000000000000000000000000000000081526004016105e39061127c565b60405180910390fd5b60015f9054906101000a900473ffffffffffffffffffffffffffffffffffffffff1673ffffffffffffffffffffffffffffffffffffffff163373ffffffffffffffffffffffffffffffffffffffff161461067b576040517f08c379a0000000000000000000000000000000000000000000000000000000008152600401610672906116bc565b60405180910390fd5b5f80838154811061068f5761068e611177565b5b905f5260205f20906004020190506003808111156106b0576106af610f24565b5b816003015f9054906101000a900460ff1660038111156106d3576106d2610f24565b5b03610713576040517f08c379a000000000000000000000000000000000000000000000000000000000815260040161070a90611724565b60405180910390fd5b5f600381111561072657610725610f24565b5b816003015f9054906101000a900460ff16600381111561074957610748610f24565b5b0361077f576001816003015f6101000a81548160ff0219169083600381111561077557610774610f24565b5b0217905550610857565b6001600381111561079357610792610f24565b5b816003015f9054906101000a900460ff1660038111156107b6576107b5610f24565b5b036107ec576002816003015f6101000a81548160ff021916908360038111156107e2576107e1610f24565b5b0217905550610856565b60026003811115610800576107ff610f24565b5b816003015f9054906101000a900460ff16600381111561082357610822610f24565b5b03610855576003816003015f6101000a81548160ff0219169083600381111561084f5761084e610f24565b5b02179055505b5b5b505050565b610864610a51565b815f8054905081106108ab576040517f08c379a00000000000000000000000000000000000000000000000000000000081526004016108a29061127c565b60405180910390fd5b5f83815481106108be576108bd611177565b5b905f5260205f2090600402016040518060800160405290815f82015f9054906101000a900473ffffffffffffffffffffffffffffffffffffffff1673ffffffffffffffffffffffffffffffffffffffff1673ffffffffffffffffffffffffffffffffffffffff168152602001600182018054610939906112c7565b80601f0160208091040260200160405190810160405280929190818152602001828054610965906112c7565b80156109b05780601f10610987576101008083540402835291602001916109b0565b820191905f5260205f20905b81548152906001019060200180831161099357829003601f168201915b5050505050815260200160028201805480602002602001604051908101604052809291908181526020018280548015610a0657602002820191905f5260205f20905b8154815260200190600101908083116109f2575b50505050508152602001600382015f9054906101000a900460ff166003811115610a3357610a32610f24565b5b6003811115610a4557610a44610f24565b5b81525050915050919050565b60405180608001604052805f73ffffffffffffffffffffffffffffffffffffffff16815260200160608152602001606081526020015f6003811115610a9957610a98610f24565b5b81525090565b828054828255905f5260205f20908101928215610ad9579160200282015b82811115610ad8578251825591602001919060010190610abd565b5b509050610ae69190610aea565b5090565b5b80821115610b01575f815f905550600101610aeb565b5090565b5f819050919050565b610b1781610b05565b82525050565b5f602082019050610b305f830184610b0e565b92915050565b5f604051905090565b5f80fd5b5f80fd5b610b5081610b05565b8114610b5a575f80fd5b50565b5f81359050610b6b81610b47565b92915050565b5f80fd5b5f80fd5b5f601f19601f8301169050919050565b7f4e487b71000000000000000000000000000000000000000000000000000000005f52604160045260245ffd5b610bbf82610b79565b810181811067ffffffffffffffff82111715610bde57610bdd610b89565b5b80604052505050565b5f610bf0610b36565b9050610bfc8282610bb6565b919050565b5f67ffffffffffffffff821115610c1b57610c1a610b89565b5b610c2482610b79565b9050602081019050919050565b828183375f83830152505050565b5f610c51610c4c84610c01565b610be7565b905082815260208101848484011115610c6d57610c6c610b75565b5b610c78848285610c31565b509392505050565b5f82601f830112610c9457610c93610b71565b5b8135610ca4848260208601610c3f565b91505092915050565b5f8060408385031215610cc357610cc2610b3f565b5b5f610cd085828601610b5d565b925050602083013567ffffffffffffffff811115610cf157610cf0610b43565b5b610cfd85828601610c80565b9150509250929050565b5f67ffffffffffffffff821115610d2157610d20610b89565b5b602082029050602081019050919050565b5f80fd5b5f610d48610d4384610d07565b610be7565b90508083825260208201905060208402830185811115610d6b57610d6a610d32565b5b835b81811015610d945780610d808882610b5d565b845260208401935050602081019050610d6d565b5050509392505050565b5f82601f830112610db257610db1610b71565b5b8135610dc2848260208601610d36565b91505092915050565b5f8060408385031215610de157610de0610b3f565b5b5f83013567ffffffffffffffff811115610dfe57610dfd610b43565b5b610e0a85828601610c80565b925050602083013567ffffffffffffffff811115610e2b57610e2a610b43565b5b610e3785828601610d9e565b9150509250929050565b5f73ffffffffffffffffffffffffffffffffffffffff82169050919050565b5f610e6a82610e41565b9050919050565b610e7a81610e60565b82525050565b5f602082019050610e935f830184610e71565b92915050565b5f60208284031215610eae57610ead610b3f565b5b5f610ebb84828501610b5d565b91505092915050565b5f81519050919050565b5f82825260208201905092915050565b8281835e5f83830152505050565b5f610ef682610ec4565b610f008185610ece565b9350610f10818560208601610ede565b610f1981610b79565b840191505092915050565b7f4e487b71000000000000000000000000000000000000000000000000000000005f52602160045260245ffd5b60048110610f6257610f61610f24565b5b50565b5f819050610f7282610f51565b919050565b5f610f8182610f65565b9050919050565b610f9181610f77565b82525050565b5f606082019050610faa5f830186610e71565b8181036020830152610fbc8185610eec565b9050610fcb6040830184610f88565b949350505050565b610fdc81610e60565b82525050565b5f82825260208201905092915050565b5f610ffc82610ec4565b6110068185610fe2565b9350611016818560208601610ede565b61101f81610b79565b840191505092915050565b5f81519050919050565b5f82825260208201905092915050565b5f819050602082019050919050565b61105c81610b05565b82525050565b5f61106d8383611053565b60208301905092915050565b5f602082019050919050565b5f61108f8261102a565b6110998185611034565b93506110a483611044565b805f5b838110156110d45781516110bb8882611062565b97506110c683611079565b9250506001810190506110a7565b5085935050505092915050565b6110ea81610f77565b82525050565b5f608083015f8301516111055f860182610fd3565b506020830151848203602086015261111d8282610ff2565b915050604083015184820360408601526111378282611085565b915050606083015161114c60608601826110e1565b508091505092915050565b5f6020820190508181035f83015261116f81846110f0565b905092915050565b7f4e487b71000000000000000000000000000000000000000000000000000000005f52603260045260245ffd5b7f596f7520617265206e6f7420746865206f776e6572206f6620746865206f72645f8201527f6572000000000000000000000000000000000000000000000000000000000000602082015250565b5f6111fe602283610ece565b9150611209826111a4565b604082019050919050565b5f6020820190508181035f83015261122b816111f2565b9050919050565b7f4e6f7420612076616c6964206f726465722069642e00000000000000000000005f82015250565b5f611266601583610ece565b915061127182611232565b602082019050919050565b5f6020820190508181035f8301526112938161125a565b9050919050565b7f4e487b71000000000000000000000000000000000000000000000000000000005f52602260045260245ffd5b5f60028204905060018216806112de57607f821691505b6020821081036112f1576112f061129a565b5b50919050565b5f819050815f5260205f209050919050565b5f6020601f8301049050919050565b5f82821b905092915050565b5f600883026113537fffffffffffffffffffffffffffffffffffffffffffffffffffffffffffffffff82611318565b61135d8683611318565b95508019841693508086168417925050509392505050565b5f819050919050565b5f61139861139361138e84610b05565b611375565b610b05565b9050919050565b5f819050919050565b6113b18361137e565b6113c56113bd8261139f565b848454611324565b825550505050565b5f90565b6113d96113cd565b6113e48184846113a8565b505050565b5b81811015611407576113fc5f826113d1565b6001810190506113ea565b5050565b601f82111561144c5761141d816112f7565b61142684611309565b81016020851015611435578190505b61144961144185611309565b8301826113e9565b50505b505050565b5f82821c905092915050565b5f61146c5f1984600802611451565b1980831691505092915050565b5f611484838361145d565b9150826002028217905092915050565b61149d82610ec4565b67ffffffffffffffff8111156114b6576114b5610b89565b5b6114c082546112c7565b6114cb82828561140b565b5f60209050601f8311600181146114fc575f84156114ea578287015190505b6114f48582611479565b86555061155b565b601f19841661150a866112f7565b5f5b828110156115315784890151825560018201915060208501945060208101905061150c565b8683101561154e578489015161154a601f89168261145d565b8355505b6001600288020188555050505b505050505050565b7f4e487b71000000000000000000000000000000000000000000000000000000005f52601160045260245ffd5b5f61159a82610b05565b91507fffffffffffffffffffffffffffffffffffffffffffffffffffffffffffffffff82036115cc576115cb611563565b5b600182019050919050565b7f4e6f2070726f64756374732e00000000000000000000000000000000000000005f82015250565b5f61160b600c83610ece565b9150611616826115d7565b602082019050919050565b5f6020820190508181035f830152611638816115ff565b9050919050565b5f61164982610b05565b915061165483610b05565b925082820390508181111561166c5761166b611563565b5b92915050565b7f596f7520617265206e6f7420617574686f72697a65642e0000000000000000005f82015250565b5f6116a6601783610ece565b91506116b182611672565b602082019050919050565b5f6020820190508181035f8301526116d38161169a565b9050919050565b7f4f7264657220697320616c726561647920736869707065642e000000000000005f82015250565b5f61170e601983610ece565b9150611719826116da565b602082019050919050565b5f6020820190508181035f83015261173b81611702565b905091905056fea2646970667358221220de7f903b4b7776c160f9ca6b3e809439737c71c6970418e571bdd91601c3c60b64736f6c634300081a0033",
					"opcodes": "PUSH1 0x80 PUSH1 0x40 MSTORE CALLVALUE DUP1 ISZERO PUSH1 0xE JUMPI PUSH0 DUP1 REVERT JUMPDEST POP CALLER PUSH1 0x1 PUSH0 PUSH2 0x100 EXP DUP2 SLOAD DUP2 PUSH20 0xFFFFFFFFFFFFFFFFFFFFFFFFFFFFFFFFFFFFFFFF MUL NOT AND SWAP1 DUP4 PUSH20 0xFFFFFFFFFFFFFFFFFFFFFFFFFFFFFFFFFFFFFFFF AND MUL OR SWAP1 SSTORE POP PUSH2 0x1778 DUP1 PUSH2 0x5C PUSH0 CODECOPY PUSH0 RETURN INVALID PUSH1 0x80 PUSH1 0x40 MSTORE CALLVALUE DUP1 ISZERO PUSH2 0xF JUMPI PUSH0 DUP1 REVERT JUMPDEST POP PUSH1 0x4 CALLDATASIZE LT PUSH2 0x7B JUMPI PUSH0 CALLDATALOAD PUSH1 0xE0 SHR DUP1 PUSH4 0x8DA5CB5B GT PUSH2 0x59 JUMPI DUP1 PUSH4 0x8DA5CB5B EQ PUSH2 0xE9 JUMPI DUP1 PUSH4 0xA85C38EF EQ PUSH2 0x107 JUMPI DUP1 PUSH4 0xAFE13A62 EQ PUSH2 0x139 JUMPI DUP1 PUSH4 0xD09EF241 EQ PUSH2 0x155 JUMPI PUSH2 0x7B JUMP JUMPDEST DUP1 PUSH4 0x3C540687 EQ PUSH2 0x7F JUMPI DUP1 PUSH4 0x577DC0A0 EQ PUSH2 0x9D JUMPI DUP1 PUSH4 0x6D9A65D8 EQ PUSH2 0xB9 JUMPI JUMPDEST PUSH0 DUP1 REVERT JUMPDEST PUSH2 0x87 PUSH2 0x185 JUMP JUMPDEST PUSH1 0x40 MLOAD PUSH2 0x94 SWAP2 SWAP1 PUSH2 0xB1D JUMP JUMPDEST PUSH1 0x40 MLOAD DUP1 SWAP2 SUB SWAP1 RETURN JUMPDEST PUSH2 0xB7 PUSH1 0x4 DUP1 CALLDATASIZE SUB DUP2 ADD SWAP1 PUSH2 0xB2 SWAP2 SWAP1 PUSH2 0xCAD JUMP JUMPDEST PUSH2 0x18B JUMP JUMPDEST STOP JUMPDEST PUSH2 0xD3 PUSH1 0x4 DUP1 CALLDATASIZE SUB DUP2 ADD SWAP1 PUSH2 0xCE SWAP2 SWAP1 PUSH2 0xDCB JUMP JUMPDEST PUSH2 0x2D3 JUMP JUMPDEST PUSH1 0x40 MLOAD PUSH2 0xE0 SWAP2 SWAP1 PUSH2 0xB1D JUMP JUMPDEST PUSH1 0x40 MLOAD DUP1 SWAP2 SUB SWAP1 RETURN JUMPDEST PUSH2 0xF1 PUSH2 0x49B JUMP JUMPDEST PUSH1 0x40 MLOAD PUSH2 0xFE SWAP2 SWAP1 PUSH2 0xE80 JUMP JUMPDEST PUSH1 0x40 MLOAD DUP1 SWAP2 SUB SWAP1 RETURN JUMPDEST PUSH2 0x121 PUSH1 0x4 DUP1 CALLDATASIZE SUB DUP2 ADD SWAP1 PUSH2 0x11C SWAP2 SWAP1 PUSH2 0xE99 JUMP JUMPDEST PUSH2 0x4C0 JUMP JUMPDEST PUSH1 0x40 MLOAD PUSH2 0x130 SWAP4 SWAP3 SWAP2 SWAP1 PUSH2 0xF97 JUMP JUMPDEST PUSH1 0x40 MLOAD DUP1 SWAP2 SUB SWAP1 RETURN JUMPDEST PUSH2 0x153 PUSH1 0x4 DUP1 CALLDATASIZE SUB DUP2 ADD SWAP1 PUSH2 0x14E SWAP2 SWAP1 PUSH2 0xE99 JUMP JUMPDEST PUSH2 0x5A5 JUMP JUMPDEST STOP JUMPDEST PUSH2 0x16F PUSH1 0x4 DUP1 CALLDATASIZE SUB DUP2 ADD SWAP1 PUSH2 0x16A SWAP2 SWAP1 PUSH2 0xE99 JUMP JUMPDEST PUSH2 0x85C JUMP JUMPDEST PUSH1 0x40 MLOAD PUSH2 0x17C SWAP2 SWAP1 PUSH2 0x1157 JUMP JUMPDEST PUSH1 0x40 MLOAD DUP1 SWAP2 SUB SWAP1 RETURN JUMPDEST PUSH1 0x2 SLOAD DUP2 JUMP JUMPDEST DUP2 CALLER PUSH20 0xFFFFFFFFFFFFFFFFFFFFFFFFFFFFFFFFFFFFFFFF AND PUSH0 DUP3 DUP2 SLOAD DUP2 LT PUSH2 0x1B6 JUMPI PUSH2 0x1B5 PUSH2 0x1177 JUMP JUMPDEST JUMPDEST SWAP1 PUSH0 MSTORE PUSH1 0x20 PUSH0 KECCAK256 SWAP1 PUSH1 0x4 MUL ADD PUSH0 ADD PUSH0 SWAP1 SLOAD SWAP1 PUSH2 0x100 EXP SWAP1 DIV PUSH20 0xFFFFFFFFFFFFFFFFFFFFFFFFFFFFFFFFFFFFFFFF AND PUSH20 0xFFFFFFFFFFFFFFFFFFFFFFFFFFFFFFFFFFFFFFFF AND EQ PUSH2 0x23A JUMPI PUSH1 0x40 MLOAD PUSH32 0x8C379A000000000000000000000000000000000000000000000000000000000 DUP2 MSTORE PUSH1 0x4 ADD PUSH2 0x231 SWAP1 PUSH2 0x1214 JUMP JUMPDEST PUSH1 0x40 MLOAD DUP1 SWAP2 SUB SWAP1 REVERT JUMPDEST DUP3 PUSH0 DUP1 SLOAD SWAP1 POP DUP2 LT PUSH2 0x281 JUMPI PUSH1 0x40 MLOAD PUSH32 0x8C379A000000000000000000000000000000000000000000000000000000000 DUP2 MSTORE PUSH1 0x4 ADD PUSH2 0x278 SWAP1 PUSH2 0x127C JUMP JUMPDEST PUSH1 0x40 MLOAD DUP1 SWAP2 SUB SWAP1 REVERT JUMPDEST PUSH0 DUP1 DUP6 DUP2 SLOAD DUP2 LT PUSH2 0x295 JUMPI PUSH2 0x294 PUSH2 0x1177 JUMP JUMPDEST JUMPDEST SWAP1 PUSH0 MSTORE PUSH1 0x20 PUSH0 KECCAK256 SWAP1 PUSH1 0x4 MUL ADD SWAP1 POP DUP4 DUP2 PUSH1 0x1 ADD SWAP1 DUP2 PUSH2 0x2B4 SWAP2 SWAP1 PUSH2 0x1494 JUMP JUMPDEST POP POP POP PUSH1 0x2 PUSH0 DUP2 SLOAD DUP1 SWAP3 SWAP2 SWAP1 PUSH2 0x2C9 SWAP1 PUSH2 0x1590 JUMP JUMPDEST SWAP2 SWAP1 POP SSTORE POP POP POP POP JUMP JUMPDEST PUSH0 DUP2 PUSH0 DUP2 MLOAD GT PUSH2 0x318 JUMPI PUSH1 0x40 MLOAD PUSH32 0x8C379A000000000000000000000000000000000000000000000000000000000 DUP2 MSTORE PUSH1 0x4 ADD PUSH2 0x30F SWAP1 PUSH2 0x1621 JUMP JUMPDEST PUSH1 0x40 MLOAD DUP1 SWAP2 SUB SWAP1 REVERT JUMPDEST PUSH2 0x320 PUSH2 0xA51 JUMP JUMPDEST CALLER DUP2 PUSH0 ADD SWAP1 PUSH20 0xFFFFFFFFFFFFFFFFFFFFFFFFFFFFFFFFFFFFFFFF AND SWAP1 DUP2 PUSH20 0xFFFFFFFFFFFFFFFFFFFFFFFFFFFFFFFFFFFFFFFF AND DUP2 MSTORE POP POP DUP5 DUP2 PUSH1 0x20 ADD DUP2 SWAP1 MSTORE POP DUP4 DUP2 PUSH1 0x40 ADD DUP2 SWAP1 MSTORE POP PUSH0 DUP2 PUSH1 0x60 ADD SWAP1 PUSH1 0x3 DUP2 GT ISZERO PUSH2 0x381 JUMPI PUSH2 0x380 PUSH2 0xF24 JUMP JUMPDEST JUMPDEST SWAP1 DUP2 PUSH1 0x3 DUP2 GT ISZERO PUSH2 0x395 JUMPI PUSH2 0x394 PUSH2 0xF24 JUMP JUMPDEST JUMPDEST DUP2 MSTORE POP POP PUSH0 DUP2 SWAP1 DUP1 PUSH1 0x1 DUP2 SLOAD ADD DUP1 DUP3 SSTORE DUP1 SWAP2 POP POP PUSH1 0x1 SWAP1 SUB SWAP1 PUSH0 MSTORE PUSH1 0x20 PUSH0 KECCAK256 SWAP1 PUSH1 0x4 MUL ADD PUSH0 SWAP1 SWAP2 SWAP1 SWAP2 SWAP1 SWAP2 POP PUSH0 DUP3 ADD MLOAD DUP2 PUSH0 ADD PUSH0 PUSH2 0x100 EXP DUP2 SLOAD DUP2 PUSH20 0xFFFFFFFFFFFFFFFFFFFFFFFFFFFFFFFFFFFFFFFF MUL NOT AND SWAP1 DUP4 PUSH20 0xFFFFFFFFFFFFFFFFFFFFFFFFFFFFFFFFFFFFFFFF AND MUL OR SWAP1 SSTORE POP PUSH1 0x20 DUP3 ADD MLOAD DUP2 PUSH1 0x1 ADD SWAP1 DUP2 PUSH2 0x41A SWAP2 SWAP1 PUSH2 0x1494 JUMP JUMPDEST POP PUSH1 0x40 DUP3 ADD MLOAD DUP2 PUSH1 0x2 ADD SWAP1 DUP1 MLOAD SWAP1 PUSH1 0x20 ADD SWAP1 PUSH2 0x437 SWAP3 SWAP2 SWAP1 PUSH2 0xA9F JUMP JUMPDEST POP PUSH1 0x60 DUP3 ADD MLOAD DUP2 PUSH1 0x3 ADD PUSH0 PUSH2 0x100 EXP DUP2 SLOAD DUP2 PUSH1 0xFF MUL NOT AND SWAP1 DUP4 PUSH1 0x3 DUP2 GT ISZERO PUSH2 0x462 JUMPI PUSH2 0x461 PUSH2 0xF24 JUMP JUMPDEST JUMPDEST MUL OR SWAP1 SSTORE POP POP POP PUSH1 0x1 PUSH0 DUP1 SLOAD SWAP1 POP PUSH2 0x47A SWAP2 SWAP1 PUSH2 0x163F JUMP JUMPDEST SWAP3 POP POP POP PUSH1 0x2 PUSH0 DUP2 SLOAD DUP1 SWAP3 SWAP2 SWAP1 PUSH2 0x490 SWAP1 PUSH2 0x1590 JUMP JUMPDEST SWAP2 SWAP1 POP SSTORE POP SWAP3 SWAP2 POP POP JUMP JUMPDEST PUSH1 0x1 PUSH0 SWAP1 SLOAD SWAP1 PUSH2 0x100 EXP SWAP1 DIV PUSH20 0xFFFFFFFFFFFFFFFFFFFFFFFFFFFFFFFFFFFFFFFF AND DUP2 JUMP JUMPDEST PUSH0 DUP2 DUP2 SLOAD DUP2 LT PUSH2 0x4CE JUMPI PUSH0 DUP1 REVERT JUMPDEST SWAP1 PUSH0 MSTORE PUSH1 0x20 PUSH0 KECCAK256 SWAP1 PUSH1 0x4 MUL ADD PUSH0 SWAP2 POP SWAP1 POP DUP1 PUSH0 ADD PUSH0 SWAP1 SLOAD SWAP1 PUSH2 0x100 EXP SWAP1 DIV PUSH20 0xFFFFFFFFFFFFFFFFFFFFFFFFFFFFFFFFFFFFFFFF AND SWAP1 DUP1 PUSH1 0x1 ADD DUP1 SLOAD PUSH2 0x512 SWAP1 PUSH2 0x12C7 JUMP JUMPDEST DUP1 PUSH1 0x1F ADD PUSH1 0x20 DUP1 SWAP2 DIV MUL PUSH1 0x20 ADD PUSH1 0x40 MLOAD SWAP1 DUP2 ADD PUSH1 0x40 MSTORE DUP1 SWAP3 SWAP2 SWAP1 DUP2 DUP2 MSTORE PUSH1 0x20 ADD DUP3 DUP1 SLOAD PUSH2 0x53E SWAP1 PUSH2 0x12C7 JUMP JUMPDEST DUP1 ISZERO PUSH2 0x589 JUMPI DUP1 PUSH1 0x1F LT PUSH2 0x560 JUMPI PUSH2 0x100 DUP1 DUP4 SLOAD DIV MUL DUP4 MSTORE SWAP2 PUSH1 0x20 ADD SWAP2 PUSH2 0x589 JUMP JUMPDEST DUP3 ADD SWAP2 SWAP1 PUSH0 MSTORE PUSH1 0x20 PUSH0 KECCAK256 SWAP1 JUMPDEST DUP2 SLOAD DUP2 MSTORE SWAP1 PUSH1 0x1 ADD SWAP1 PUSH1 0x20 ADD DUP1 DUP4 GT PUSH2 0x56C JUMPI DUP3 SWAP1 SUB PUSH1 0x1F AND DUP3 ADD SWAP2 JUMPDEST POP POP POP POP POP SWAP1 DUP1 PUSH1 0x3 ADD PUSH0 SWAP1 SLOAD SWAP1 PUSH2 0x100 EXP SWAP1 DIV PUSH1 0xFF AND SWAP1 POP DUP4 JUMP JUMPDEST DUP1 PUSH0 DUP1 SLOAD SWAP1 POP DUP2 LT PUSH2 0x5EC JUMPI PUSH1 0x40 MLOAD PUSH32 0x8C379A000000000000000000000000000000000000000000000000000000000 DUP2 MSTORE PUSH1 0x4 ADD PUSH2 0x5E3 SWAP1 PUSH2 0x127C JUMP JUMPDEST PUSH1 0x40 MLOAD DUP1 SWAP2 SUB SWAP1 REVERT JUMPDEST PUSH1 0x1 PUSH0 SWAP1 SLOAD SWAP1 PUSH2 0x100 EXP SWAP1 DIV PUSH20 0xFFFFFFFFFFFFFFFFFFFFFFFFFFFFFFFFFFFFFFFF AND PUSH20 0xFFFFFFFFFFFFFFFFFFFFFFFFFFFFFFFFFFFFFFFF AND CALLER PUSH20 0xFFFFFFFFFFFFFFFFFFFFFFFFFFFFFFFFFFFFFFFF AND EQ PUSH2 0x67B JUMPI PUSH1 0x40 MLOAD PUSH32 0x8C379A000000000000000000000000000000000000000000000000000000000 DUP2 MSTORE PUSH1 0x4 ADD PUSH2 0x672 SWAP1 PUSH2 0x16BC JUMP JUMPDEST PUSH1 0x40 MLOAD DUP1 SWAP2 SUB SWAP1 REVERT JUMPDEST PUSH0 DUP1 DUP4 DUP2 SLOAD DUP2 LT PUSH2 0x68F JUMPI PUSH2 0x68E PUSH2 0x1177 JUMP JUMPDEST JUMPDEST SWAP1 PUSH0 MSTORE PUSH1 0x20 PUSH0 KECCAK256 SWAP1 PUSH1 0x4 MUL ADD SWAP1 POP PUSH1 0x3 DUP1 DUP2 GT ISZERO PUSH2 0x6B0 JUMPI PUSH2 0x6AF PUSH2 0xF24 JUMP JUMPDEST JUMPDEST DUP2 PUSH1 0x3 ADD PUSH0 SWAP1 SLOAD SWAP1 PUSH2 0x100 EXP SWAP1 DIV PUSH1 0xFF AND PUSH1 0x3 DUP2 GT ISZERO PUSH2 0x6D3 JUMPI PUSH2 0x6D2 PUSH2 0xF24 JUMP JUMPDEST JUMPDEST SUB PUSH2 0x713 JUMPI PUSH1 0x40 MLOAD PUSH32 0x8C379A000000000000000000000000000000000000000000000000000000000 DUP2 MSTORE PUSH1 0x4 ADD PUSH2 0x70A SWAP1 PUSH2 0x1724 JUMP JUMPDEST PUSH1 0x40 MLOAD DUP1 SWAP2 SUB SWAP1 REVERT JUMPDEST PUSH0 PUSH1 0x3 DUP2 GT ISZERO PUSH2 0x726 JUMPI PUSH2 0x725 PUSH2 0xF24 JUMP JUMPDEST JUMPDEST DUP2 PUSH1 0x3 ADD PUSH0 SWAP1 SLOAD SWAP1 PUSH2 0x100 EXP SWAP1 DIV PUSH1 0xFF AND PUSH1 0x3 DUP2 GT ISZERO PUSH2 0x749 JUMPI PUSH2 0x748 PUSH2 0xF24 JUMP JUMPDEST JUMPDEST SUB PUSH2 0x77F JUMPI PUSH1 0x1 DUP2 PUSH1 0x3 ADD PUSH0 PUSH2 0x100 EXP DUP2 SLOAD DUP2 PUSH1 0xFF MUL NOT AND SWAP1 DUP4 PUSH1 0x3 DUP2 GT ISZERO PUSH2 0x775 JUMPI PUSH2 0x774 PUSH2 0xF24 JUMP JUMPDEST JUMPDEST MUL OR SWAP1 SSTORE POP PUSH2 0x857 JUMP JUMPDEST PUSH1 0x1 PUSH1 0x3 DUP2 GT ISZERO PUSH2 0x793 JUMPI PUSH2 0x792 PUSH2 0xF24 JUMP JUMPDEST JUMPDEST DUP2 PUSH1 0x3 ADD PUSH0 SWAP1 SLOAD SWAP1 PUSH2 0x100 EXP SWAP1 DIV PUSH1 0xFF AND PUSH1 0x3 DUP2 GT ISZERO PUSH2 0x7B6 JUMPI PUSH2 0x7B5 PUSH2 0xF24 JUMP JUMPDEST JUMPDEST SUB PUSH2 0x7EC JUMPI PUSH1 0x2 DUP2 PUSH1 0x3 ADD PUSH0 PUSH2 0x100 EXP DUP2 SLOAD DUP2 PUSH1 0xFF MUL NOT AND SWAP1 DUP4 PUSH1 0x3 DUP2 GT ISZERO PUSH2 0x7E2 JUMPI PUSH2 0x7E1 PUSH2 0xF24 JUMP JUMPDEST JUMPDEST MUL OR SWAP1 SSTORE POP PUSH2 0x856 JUMP JUMPDEST PUSH1 0x2 PUSH1 0x3 DUP2 GT ISZERO PUSH2 0x800 JUMPI PUSH2 0x7FF PUSH2 0xF24 JUMP JUMPDEST JUMPDEST DUP2 PUSH1 0x3 ADD PUSH0 SWAP1 SLOAD SWAP1 PUSH2 0x100 EXP SWAP1 DIV PUSH1 0xFF AND PUSH1 0x3 DUP2 GT ISZERO PUSH2 0x823 JUMPI PUSH2 0x822 PUSH2 0xF24 JUMP JUMPDEST JUMPDEST SUB PUSH2 0x855 JUMPI PUSH1 0x3 DUP2 PUSH1 0x3 ADD PUSH0 PUSH2 0x100 EXP DUP2 SLOAD DUP2 PUSH1 0xFF MUL NOT AND SWAP1 DUP4 PUSH1 0x3 DUP2 GT ISZERO PUSH2 0x84F JUMPI PUSH2 0x84E PUSH2 0xF24 JUMP JUMPDEST JUMPDEST MUL OR SWAP1 SSTORE POP JUMPDEST JUMPDEST JUMPDEST POP POP POP JUMP JUMPDEST PUSH2 0x864 PUSH2 0xA51 JUMP JUMPDEST DUP2 PUSH0 DUP1 SLOAD SWAP1 POP DUP2 LT PUSH2 0x8AB JUMPI PUSH1 0x40 MLOAD PUSH32 0x8C379A000000000000000000000000000000000000000000000000000000000 DUP2 MSTORE PUSH1 0x4 ADD PUSH2 0x8A2 SWAP1 PUSH2 0x127C JUMP JUMPDEST PUSH1 0x40 MLOAD DUP1 SWAP2 SUB SWAP1 REVERT JUMPDEST PUSH0 DUP4 DUP2 SLOAD DUP2 LT PUSH2 0x8BE JUMPI PUSH2 0x8BD PUSH2 0x1177 JUMP JUMPDEST JUMPDEST SWAP1 PUSH0 MSTORE PUSH1 0x20 PUSH0 KECCAK256 SWAP1 PUSH1 0x4 MUL ADD PUSH1 0x40 MLOAD DUP1 PUSH1 0x80 ADD PUSH1 0x40 MSTORE SWAP1 DUP2 PUSH0 DUP3 ADD PUSH0 SWAP1 SLOAD SWAP1 PUSH2 0x100 EXP SWAP1 DIV PUSH20 0xFFFFFFFFFFFFFFFFFFFFFFFFFFFFFFFFFFFFFFFF AND PUSH20 0xFFFFFFFFFFFFFFFFFFFFFFFFFFFFFFFFFFFFFFFF AND PUSH20 0xFFFFFFFFFFFFFFFFFFFFFFFFFFFFFFFFFFFFFFFF AND DUP2 MSTORE PUSH1 0x20 ADD PUSH1 0x1 DUP3 ADD DUP1 SLOAD PUSH2 0x939 SWAP1 PUSH2 0x12C7 JUMP JUMPDEST DUP1 PUSH1 0x1F ADD PUSH1 0x20 DUP1 SWAP2 DIV MUL PUSH1 0x20 ADD PUSH1 0x40 MLOAD SWAP1 DUP2 ADD PUSH1 0x40 MSTORE DUP1 SWAP3 SWAP2 SWAP1 DUP2 DUP2 MSTORE PUSH1 0x20 ADD DUP3 DUP1 SLOAD PUSH2 0x965 SWAP1 PUSH2 0x12C7 JUMP JUMPDEST DUP1 ISZERO PUSH2 0x9B0 JUMPI DUP1 PUSH1 0x1F LT PUSH2 0x987 JUMPI PUSH2 0x100 DUP1 DUP4 SLOAD DIV MUL DUP4 MSTORE SWAP2 PUSH1 0x20 ADD SWAP2 PUSH2 0x9B0 JUMP JUMPDEST DUP3 ADD SWAP2 SWAP1 PUSH0 MSTORE PUSH1 0x20 PUSH0 KECCAK256 SWAP1 JUMPDEST DUP2 SLOAD DUP2 MSTORE SWAP1 PUSH1 0x1 ADD SWAP1 PUSH1 0x20 ADD DUP1 DUP4 GT PUSH2 0x993 JUMPI DUP3 SWAP1 SUB PUSH1 0x1F AND DUP3 ADD SWAP2 JUMPDEST POP POP POP POP POP DUP2 MSTORE PUSH1 0x20 ADD PUSH1 0x2 DUP3 ADD DUP1 SLOAD DUP1 PUSH1 0x20 MUL PUSH1 0x20 ADD PUSH1 0x40 MLOAD SWAP1 DUP2 ADD PUSH1 0x40 MSTORE DUP1 SWAP3 SWAP2 SWAP1 DUP2 DUP2 MSTORE PUSH1 0x20 ADD DUP3 DUP1 SLOAD DUP1 ISZERO PUSH2 0xA06 JUMPI PUSH1 0x20 MUL DUP3 ADD SWAP2 SWAP1 PUSH0 MSTORE PUSH1 0x20 PUSH0 KECCAK256 SWAP1 JUMPDEST DUP2 SLOAD DUP2 MSTORE PUSH1 0x20 ADD SWAP1 PUSH1 0x1 ADD SWAP1 DUP1 DUP4 GT PUSH2 0x9F2 JUMPI JUMPDEST POP POP POP POP POP DUP2 MSTORE PUSH1 0x20 ADD PUSH1 0x3 DUP3 ADD PUSH0 SWAP1 SLOAD SWAP1 PUSH2 0x100 EXP SWAP1 DIV PUSH1 0xFF AND PUSH1 0x3 DUP2 GT ISZERO PUSH2 0xA33 JUMPI PUSH2 0xA32 PUSH2 0xF24 JUMP JUMPDEST JUMPDEST PUSH1 0x3 DUP2 GT ISZERO PUSH2 0xA45 JUMPI PUSH2 0xA44 PUSH2 0xF24 JUMP JUMPDEST JUMPDEST DUP2 MSTORE POP POP SWAP2 POP POP SWAP2 SWAP1 POP JUMP JUMPDEST PUSH1 0x40 MLOAD DUP1 PUSH1 0x80 ADD PUSH1 0x40 MSTORE DUP1 PUSH0 PUSH20 0xFFFFFFFFFFFFFFFFFFFFFFFFFFFFFFFFFFFFFFFF AND DUP2 MSTORE PUSH1 0x20 ADD PUSH1 0x60 DUP2 MSTORE PUSH1 0x20 ADD PUSH1 0x60 DUP2 MSTORE PUSH1 0x20 ADD PUSH0 PUSH1 0x3 DUP2 GT ISZERO PUSH2 0xA99 JUMPI PUSH2 0xA98 PUSH2 0xF24 JUMP JUMPDEST JUMPDEST DUP2 MSTORE POP SWAP1 JUMP JUMPDEST DUP3 DUP1 SLOAD DUP3 DUP3 SSTORE SWAP1 PUSH0 MSTORE PUSH1 0x20 PUSH0 KECCAK256 SWAP1 DUP2 ADD SWAP3 DUP3 ISZERO PUSH2 0xAD9 JUMPI SWAP2 PUSH1 0x20 MUL DUP3 ADD JUMPDEST DUP3 DUP2 GT ISZERO PUSH2 0xAD8 JUMPI DUP3 MLOAD DUP3 SSTORE SWAP2 PUSH1 0x20 ADD SWAP2 SWAP1 PUSH1 0x1 ADD SWAP1 PUSH2 0xABD JUMP JUMPDEST JUMPDEST POP SWAP1 POP PUSH2 0xAE6 SWAP2 SWAP1 PUSH2 0xAEA JUMP JUMPDEST POP SWAP1 JUMP JUMPDEST JUMPDEST DUP1 DUP3 GT ISZERO PUSH2 0xB01 JUMPI PUSH0 DUP2 PUSH0 SWAP1 SSTORE POP PUSH1 0x1 ADD PUSH2 0xAEB JUMP JUMPDEST POP SWAP1 JUMP JUMPDEST PUSH0 DUP2 SWAP1 POP SWAP2 SWAP1 POP JUMP JUMPDEST PUSH2 0xB17 DUP2 PUSH2 0xB05 JUMP JUMPDEST DUP3 MSTORE POP POP JUMP JUMPDEST PUSH0 PUSH1 0x20 DUP3 ADD SWAP1 POP PUSH2 0xB30 PUSH0 DUP4 ADD DUP5 PUSH2 0xB0E JUMP JUMPDEST SWAP3 SWAP2 POP POP JUMP JUMPDEST PUSH0 PUSH1 0x40 MLOAD SWAP1 POP SWAP1 JUMP JUMPDEST PUSH0 DUP1 REVERT JUMPDEST PUSH0 DUP1 REVERT JUMPDEST PUSH2 0xB50 DUP2 PUSH2 0xB05 JUMP JUMPDEST DUP2 EQ PUSH2 0xB5A JUMPI PUSH0 DUP1 REVERT JUMPDEST POP JUMP JUMPDEST PUSH0 DUP2 CALLDATALOAD SWAP1 POP PUSH2 0xB6B DUP2 PUSH2 0xB47 JUMP JUMPDEST SWAP3 SWAP2 POP POP JUMP JUMPDEST PUSH0 DUP1 REVERT JUMPDEST PUSH0 DUP1 REVERT JUMPDEST PUSH0 PUSH1 0x1F NOT PUSH1 0x1F DUP4 ADD AND SWAP1 POP SWAP2 SWAP1 POP JUMP JUMPDEST PUSH32 0x4E487B7100000000000000000000000000000000000000000000000000000000 PUSH0 MSTORE PUSH1 0x41 PUSH1 0x4 MSTORE PUSH1 0x24 PUSH0 REVERT JUMPDEST PUSH2 0xBBF DUP3 PUSH2 0xB79 JUMP JUMPDEST DUP2 ADD DUP2 DUP2 LT PUSH8 0xFFFFFFFFFFFFFFFF DUP3 GT OR ISZERO PUSH2 0xBDE JUMPI PUSH2 0xBDD PUSH2 0xB89 JUMP JUMPDEST JUMPDEST DUP1 PUSH1 0x40 MSTORE POP POP POP JUMP JUMPDEST PUSH0 PUSH2 0xBF0 PUSH2 0xB36 JUMP JUMPDEST SWAP1 POP PUSH2 0xBFC DUP3 DUP3 PUSH2 0xBB6 JUMP JUMPDEST SWAP2 SWAP1 POP JUMP JUMPDEST PUSH0 PUSH8 0xFFFFFFFFFFFFFFFF DUP3 GT ISZERO PUSH2 0xC1B JUMPI PUSH2 0xC1A PUSH2 0xB89 JUMP JUMPDEST JUMPDEST PUSH2 0xC24 DUP3 PUSH2 0xB79 JUMP JUMPDEST SWAP1 POP PUSH1 0x20 DUP2 ADD SWAP1 POP SWAP2 SWAP1 POP JUMP JUMPDEST DUP3 DUP2 DUP4 CALLDATACOPY PUSH0 DUP4 DUP4 ADD MSTORE POP POP POP JUMP JUMPDEST PUSH0 PUSH2 0xC51 PUSH2 0xC4C DUP5 PUSH2 0xC01 JUMP JUMPDEST PUSH2 0xBE7 JUMP JUMPDEST SWAP1 POP DUP3 DUP2 MSTORE PUSH1 0x20 DUP2 ADD DUP5 DUP5 DUP5 ADD GT ISZERO PUSH2 0xC6D JUMPI PUSH2 0xC6C PUSH2 0xB75 JUMP JUMPDEST JUMPDEST PUSH2 0xC78 DUP5 DUP3 DUP6 PUSH2 0xC31 JUMP JUMPDEST POP SWAP4 SWAP3 POP POP POP JUMP JUMPDEST PUSH0 DUP3 PUSH1 0x1F DUP4 ADD SLT PUSH2 0xC94 JUMPI PUSH2 0xC93 PUSH2 0xB71 JUMP JUMPDEST JUMPDEST DUP2 CALLDATALOAD PUSH2 0xCA4 DUP5 DUP3 PUSH1 0x20 DUP7 ADD PUSH2 0xC3F JUMP JUMPDEST SWAP2 POP POP SWAP3 SWAP2 POP POP JUMP JUMPDEST PUSH0 DUP1 PUSH1 0x40 DUP4 DUP6 SUB SLT ISZERO PUSH2 0xCC3 JUMPI PUSH2 0xCC2 PUSH2 0xB3F JUMP JUMPDEST JUMPDEST PUSH0 PUSH2 0xCD0 DUP6 DUP3 DUP7 ADD PUSH2 0xB5D JUMP JUMPDEST SWAP3 POP POP PUSH1 0x20 DUP4 ADD CALLDATALOAD PUSH8 0xFFFFFFFFFFFFFFFF DUP2 GT ISZERO PUSH2 0xCF1 JUMPI PUSH2 0xCF0 PUSH2 0xB43 JUMP JUMPDEST JUMPDEST PUSH2 0xCFD DUP6 DUP3 DUP7 ADD PUSH2 0xC80 JUMP JUMPDEST SWAP2 POP POP SWAP3 POP SWAP3 SWAP1 POP JUMP JUMPDEST PUSH0 PUSH8 0xFFFFFFFFFFFFFFFF DUP3 GT ISZERO PUSH2 0xD21 JUMPI PUSH2 0xD20 PUSH2 0xB89 JUMP JUMPDEST JUMPDEST PUSH1 0x20 DUP3 MUL SWAP1 POP PUSH1 0x20 DUP2 ADD SWAP1 POP SWAP2 SWAP1 POP JUMP JUMPDEST PUSH0 DUP1 REVERT JUMPDEST PUSH0 PUSH2 0xD48 PUSH2 0xD43 DUP5 PUSH2 0xD07 JUMP JUMPDEST PUSH2 0xBE7 JUMP JUMPDEST SWAP1 POP DUP1 DUP4 DUP3 MSTORE PUSH1 0x20 DUP3 ADD SWAP1 POP PUSH1 0x20 DUP5 MUL DUP4 ADD DUP6 DUP2 GT ISZERO PUSH2 0xD6B JUMPI PUSH2 0xD6A PUSH2 0xD32 JUMP JUMPDEST JUMPDEST DUP4 JUMPDEST DUP2 DUP2 LT ISZERO PUSH2 0xD94 JUMPI DUP1 PUSH2 0xD80 DUP9 DUP3 PUSH2 0xB5D JUMP JUMPDEST DUP5 MSTORE PUSH1 0x20 DUP5 ADD SWAP4 POP POP PUSH1 0x20 DUP2 ADD SWAP1 POP PUSH2 0xD6D JUMP JUMPDEST POP POP POP SWAP4 SWAP3 POP POP POP JUMP JUMPDEST PUSH0 DUP3 PUSH1 0x1F DUP4 ADD SLT PUSH2 0xDB2 JUMPI PUSH2 0xDB1 PUSH2 0xB71 JUMP JUMPDEST JUMPDEST DUP2 CALLDATALOAD PUSH2 0xDC2 DUP5 DUP3 PUSH1 0x20 DUP7 ADD PUSH2 0xD36 JUMP JUMPDEST SWAP2 POP POP SWAP3 SWAP2 POP POP JUMP JUMPDEST PUSH0 DUP1 PUSH1 0x40 DUP4 DUP6 SUB SLT ISZERO PUSH2 0xDE1 JUMPI PUSH2 0xDE0 PUSH2 0xB3F JUMP JUMPDEST JUMPDEST PUSH0 DUP4 ADD CALLDATALOAD PUSH8 0xFFFFFFFFFFFFFFFF DUP2 GT ISZERO PUSH2 0xDFE JUMPI PUSH2 0xDFD PUSH2 0xB43 JUMP JUMPDEST JUMPDEST PUSH2 0xE0A DUP6 DUP3 DUP7 ADD PUSH2 0xC80 JUMP JUMPDEST SWAP3 POP POP PUSH1 0x20 DUP4 ADD CALLDATALOAD PUSH8 0xFFFFFFFFFFFFFFFF DUP2 GT ISZERO PUSH2 0xE2B JUMPI PUSH2 0xE2A PUSH2 0xB43 JUMP JUMPDEST JUMPDEST PUSH2 0xE37 DUP6 DUP3 DUP7 ADD PUSH2 0xD9E JUMP JUMPDEST SWAP2 POP POP SWAP3 POP SWAP3 SWAP1 POP JUMP JUMPDEST PUSH0 PUSH20 0xFFFFFFFFFFFFFFFFFFFFFFFFFFFFFFFFFFFFFFFF DUP3 AND SWAP1 POP SWAP2 SWAP1 POP JUMP JUMPDEST PUSH0 PUSH2 0xE6A DUP3 PUSH2 0xE41 JUMP JUMPDEST SWAP1 POP SWAP2 SWAP1 POP JUMP JUMPDEST PUSH2 0xE7A DUP2 PUSH2 0xE60 JUMP JUMPDEST DUP3 MSTORE POP POP JUMP JUMPDEST PUSH0 PUSH1 0x20 DUP3 ADD SWAP1 POP PUSH2 0xE93 PUSH0 DUP4 ADD DUP5 PUSH2 0xE71 JUMP JUMPDEST SWAP3 SWAP2 POP POP JUMP JUMPDEST PUSH0 PUSH1 0x20 DUP3 DUP5 SUB SLT ISZERO PUSH2 0xEAE JUMPI PUSH2 0xEAD PUSH2 0xB3F JUMP JUMPDEST JUMPDEST PUSH0 PUSH2 0xEBB DUP5 DUP3 DUP6 ADD PUSH2 0xB5D JUMP JUMPDEST SWAP2 POP POP SWAP3 SWAP2 POP POP JUMP JUMPDEST PUSH0 DUP2 MLOAD SWAP1 POP SWAP2 SWAP1 POP JUMP JUMPDEST PUSH0 DUP3 DUP3 MSTORE PUSH1 0x20 DUP3 ADD SWAP1 POP SWAP3 SWAP2 POP POP JUMP JUMPDEST DUP3 DUP2 DUP4 MCOPY PUSH0 DUP4 DUP4 ADD MSTORE POP POP POP JUMP JUMPDEST PUSH0 PUSH2 0xEF6 DUP3 PUSH2 0xEC4 JUMP JUMPDEST PUSH2 0xF00 DUP2 DUP6 PUSH2 0xECE JUMP JUMPDEST SWAP4 POP PUSH2 0xF10 DUP2 DUP6 PUSH1 0x20 DUP7 ADD PUSH2 0xEDE JUMP JUMPDEST PUSH2 0xF19 DUP2 PUSH2 0xB79 JUMP JUMPDEST DUP5 ADD SWAP2 POP POP SWAP3 SWAP2 POP POP JUMP JUMPDEST PUSH32 0x4E487B7100000000000000000000000000000000000000000000000000000000 PUSH0 MSTORE PUSH1 0x21 PUSH1 0x4 MSTORE PUSH1 0x24 PUSH0 REVERT JUMPDEST PUSH1 0x4 DUP2 LT PUSH2 0xF62 JUMPI PUSH2 0xF61 PUSH2 0xF24 JUMP JUMPDEST JUMPDEST POP JUMP JUMPDEST PUSH0 DUP2 SWAP1 POP PUSH2 0xF72 DUP3 PUSH2 0xF51 JUMP JUMPDEST SWAP2 SWAP1 POP JUMP JUMPDEST PUSH0 PUSH2 0xF81 DUP3 PUSH2 0xF65 JUMP JUMPDEST SWAP1 POP SWAP2 SWAP1 POP JUMP JUMPDEST PUSH2 0xF91 DUP2 PUSH2 0xF77 JUMP JUMPDEST DUP3 MSTORE POP POP JUMP JUMPDEST PUSH0 PUSH1 0x60 DUP3 ADD SWAP1 POP PUSH2 0xFAA PUSH0 DUP4 ADD DUP7 PUSH2 0xE71 JUMP JUMPDEST DUP2 DUP2 SUB PUSH1 0x20 DUP4 ADD MSTORE PUSH2 0xFBC DUP2 DUP6 PUSH2 0xEEC JUMP JUMPDEST SWAP1 POP PUSH2 0xFCB PUSH1 0x40 DUP4 ADD DUP5 PUSH2 0xF88 JUMP JUMPDEST SWAP5 SWAP4 POP POP POP POP JUMP JUMPDEST PUSH2 0xFDC DUP2 PUSH2 0xE60 JUMP JUMPDEST DUP3 MSTORE POP POP JUMP JUMPDEST PUSH0 DUP3 DUP3 MSTORE PUSH1 0x20 DUP3 ADD SWAP1 POP SWAP3 SWAP2 POP POP JUMP JUMPDEST PUSH0 PUSH2 0xFFC DUP3 PUSH2 0xEC4 JUMP JUMPDEST PUSH2 0x1006 DUP2 DUP6 PUSH2 0xFE2 JUMP JUMPDEST SWAP4 POP PUSH2 0x1016 DUP2 DUP6 PUSH1 0x20 DUP7 ADD PUSH2 0xEDE JUMP JUMPDEST PUSH2 0x101F DUP2 PUSH2 0xB79 JUMP JUMPDEST DUP5 ADD SWAP2 POP POP SWAP3 SWAP2 POP POP JUMP JUMPDEST PUSH0 DUP2 MLOAD SWAP1 POP SWAP2 SWAP1 POP JUMP JUMPDEST PUSH0 DUP3 DUP3 MSTORE PUSH1 0x20 DUP3 ADD SWAP1 POP SWAP3 SWAP2 POP POP JUMP JUMPDEST PUSH0 DUP2 SWAP1 POP PUSH1 0x20 DUP3 ADD SWAP1 POP SWAP2 SWAP1 POP JUMP JUMPDEST PUSH2 0x105C DUP2 PUSH2 0xB05 JUMP JUMPDEST DUP3 MSTORE POP POP JUMP JUMPDEST PUSH0 PUSH2 0x106D DUP4 DUP4 PUSH2 0x1053 JUMP JUMPDEST PUSH1 0x20 DUP4 ADD SWAP1 POP SWAP3 SWAP2 POP POP JUMP JUMPDEST PUSH0 PUSH1 0x20 DUP3 ADD SWAP1 POP SWAP2 SWAP1 POP JUMP JUMPDEST PUSH0 PUSH2 0x108F DUP3 PUSH2 0x102A JUMP JUMPDEST PUSH2 0x1099 DUP2 DUP6 PUSH2 0x1034 JUMP JUMPDEST SWAP4 POP PUSH2 0x10A4 DUP4 PUSH2 0x1044 JUMP JUMPDEST DUP1 PUSH0 JUMPDEST DUP4 DUP2 LT ISZERO PUSH2 0x10D4 JUMPI DUP2 MLOAD PUSH2 0x10BB DUP9 DUP3 PUSH2 0x1062 JUMP JUMPDEST SWAP8 POP PUSH2 0x10C6 DUP4 PUSH2 0x1079 JUMP JUMPDEST SWAP3 POP POP PUSH1 0x1 DUP2 ADD SWAP1 POP PUSH2 0x10A7 JUMP JUMPDEST POP DUP6 SWAP4 POP POP POP POP SWAP3 SWAP2 POP POP JUMP JUMPDEST PUSH2 0x10EA DUP2 PUSH2 0xF77 JUMP JUMPDEST DUP3 MSTORE POP POP JUMP JUMPDEST PUSH0 PUSH1 0x80 DUP4 ADD PUSH0 DUP4 ADD MLOAD PUSH2 0x1105 PUSH0 DUP7 ADD DUP3 PUSH2 0xFD3 JUMP JUMPDEST POP PUSH1 0x20 DUP4 ADD MLOAD DUP5 DUP3 SUB PUSH1 0x20 DUP7 ADD MSTORE PUSH2 0x111D DUP3 DUP3 PUSH2 0xFF2 JUMP JUMPDEST SWAP2 POP POP PUSH1 0x40 DUP4 ADD MLOAD DUP5 DUP3 SUB PUSH1 0x40 DUP7 ADD MSTORE PUSH2 0x1137 DUP3 DUP3 PUSH2 0x1085 JUMP JUMPDEST SWAP2 POP POP PUSH1 0x60 DUP4 ADD MLOAD PUSH2 0x114C PUSH1 0x60 DUP7 ADD DUP3 PUSH2 0x10E1 JUMP JUMPDEST POP DUP1 SWAP2 POP POP SWAP3 SWAP2 POP POP JUMP JUMPDEST PUSH0 PUSH1 0x20 DUP3 ADD SWAP1 POP DUP2 DUP2 SUB PUSH0 DUP4 ADD MSTORE PUSH2 0x116F DUP2 DUP5 PUSH2 0x10F0 JUMP JUMPDEST SWAP1 POP SWAP3 SWAP2 POP POP JUMP JUMPDEST PUSH32 0x4E487B7100000000000000000000000000000000000000000000000000000000 PUSH0 MSTORE PUSH1 0x32 PUSH1 0x4 MSTORE PUSH1 0x24 PUSH0 REVERT JUMPDEST PUSH32 0x596F7520617265206E6F7420746865206F776E6572206F6620746865206F7264 PUSH0 DUP3 ADD MSTORE PUSH32 0x6572000000000000000000000000000000000000000000000000000000000000 PUSH1 0x20 DUP3 ADD MSTORE POP JUMP JUMPDEST PUSH0 PUSH2 0x11FE PUSH1 0x22 DUP4 PUSH2 0xECE JUMP JUMPDEST SWAP2 POP PUSH2 0x1209 DUP3 PUSH2 0x11A4 JUMP JUMPDEST PUSH1 0x40 DUP3 ADD SWAP1 POP SWAP2 SWAP1 POP JUMP JUMPDEST PUSH0 PUSH1 0x20 DUP3 ADD SWAP1 POP DUP2 DUP2 SUB PUSH0 DUP4 ADD MSTORE PUSH2 0x122B DUP2 PUSH2 0x11F2 JUMP JUMPDEST SWAP1 POP SWAP2 SWAP1 POP JUMP JUMPDEST PUSH32 0x4E6F7420612076616C6964206F726465722069642E0000000000000000000000 PUSH0 DUP3 ADD MSTORE POP JUMP JUMPDEST PUSH0 PUSH2 0x1266 PUSH1 0x15 DUP4 PUSH2 0xECE JUMP JUMPDEST SWAP2 POP PUSH2 0x1271 DUP3 PUSH2 0x1232 JUMP JUMPDEST PUSH1 0x20 DUP3 ADD SWAP1 POP SWAP2 SWAP1 POP JUMP JUMPDEST PUSH0 PUSH1 0x20 DUP3 ADD SWAP1 POP DUP2 DUP2 SUB PUSH0 DUP4 ADD MSTORE PUSH2 0x1293 DUP2 PUSH2 0x125A JUMP JUMPDEST SWAP1 POP SWAP2 SWAP1 POP JUMP JUMPDEST PUSH32 0x4E487B7100000000000000000000000000000000000000000000000000000000 PUSH0 MSTORE PUSH1 0x22 PUSH1 0x4 MSTORE PUSH1 0x24 PUSH0 REVERT JUMPDEST PUSH0 PUSH1 0x2 DUP3 DIV SWAP1 POP PUSH1 0x1 DUP3 AND DUP1 PUSH2 0x12DE JUMPI PUSH1 0x7F DUP3 AND SWAP2 POP JUMPDEST PUSH1 0x20 DUP3 LT DUP2 SUB PUSH2 0x12F1 JUMPI PUSH2 0x12F0 PUSH2 0x129A JUMP JUMPDEST JUMPDEST POP SWAP2 SWAP1 POP JUMP JUMPDEST PUSH0 DUP2 SWAP1 POP DUP2 PUSH0 MSTORE PUSH1 0x20 PUSH0 KECCAK256 SWAP1 POP SWAP2 SWAP1 POP JUMP JUMPDEST PUSH0 PUSH1 0x20 PUSH1 0x1F DUP4 ADD DIV SWAP1 POP SWAP2 SWAP1 POP JUMP JUMPDEST PUSH0 DUP3 DUP3 SHL SWAP1 POP SWAP3 SWAP2 POP POP JUMP JUMPDEST PUSH0 PUSH1 0x8 DUP4 MUL PUSH2 0x1353 PUSH32 0xFFFFFFFFFFFFFFFFFFFFFFFFFFFFFFFFFFFFFFFFFFFFFFFFFFFFFFFFFFFFFFFF DUP3 PUSH2 0x1318 JUMP JUMPDEST PUSH2 0x135D DUP7 DUP4 PUSH2 0x1318 JUMP JUMPDEST SWAP6 POP DUP1 NOT DUP5 AND SWAP4 POP DUP1 DUP7 AND DUP5 OR SWAP3 POP POP POP SWAP4 SWAP3 POP POP POP JUMP JUMPDEST PUSH0 DUP2 SWAP1 POP SWAP2 SWAP1 POP JUMP JUMPDEST PUSH0 PUSH2 0x1398 PUSH2 0x1393 PUSH2 0x138E DUP5 PUSH2 0xB05 JUMP JUMPDEST PUSH2 0x1375 JUMP JUMPDEST PUSH2 0xB05 JUMP JUMPDEST SWAP1 POP SWAP2 SWAP1 POP JUMP JUMPDEST PUSH0 DUP2 SWAP1 POP SWAP2 SWAP1 POP JUMP JUMPDEST PUSH2 0x13B1 DUP4 PUSH2 0x137E JUMP JUMPDEST PUSH2 0x13C5 PUSH2 0x13BD DUP3 PUSH2 0x139F JUMP JUMPDEST DUP5 DUP5 SLOAD PUSH2 0x1324 JUMP JUMPDEST DUP3 SSTORE POP POP POP POP JUMP JUMPDEST PUSH0 SWAP1 JUMP JUMPDEST PUSH2 0x13D9 PUSH2 0x13CD JUMP JUMPDEST PUSH2 0x13E4 DUP2 DUP5 DUP5 PUSH2 0x13A8 JUMP JUMPDEST POP POP POP JUMP JUMPDEST JUMPDEST DUP2 DUP2 LT ISZERO PUSH2 0x1407 JUMPI PUSH2 0x13FC PUSH0 DUP3 PUSH2 0x13D1 JUMP JUMPDEST PUSH1 0x1 DUP2 ADD SWAP1 POP PUSH2 0x13EA JUMP JUMPDEST POP POP JUMP JUMPDEST PUSH1 0x1F DUP3 GT ISZERO PUSH2 0x144C JUMPI PUSH2 0x141D DUP2 PUSH2 0x12F7 JUMP JUMPDEST PUSH2 0x1426 DUP5 PUSH2 0x1309 JUMP JUMPDEST DUP2 ADD PUSH1 0x20 DUP6 LT ISZERO PUSH2 0x1435 JUMPI DUP2 SWAP1 POP JUMPDEST PUSH2 0x1449 PUSH2 0x1441 DUP6 PUSH2 0x1309 JUMP JUMPDEST DUP4 ADD DUP3 PUSH2 0x13E9 JUMP JUMPDEST POP POP JUMPDEST POP POP POP JUMP JUMPDEST PUSH0 DUP3 DUP3 SHR SWAP1 POP SWAP3 SWAP2 POP POP JUMP JUMPDEST PUSH0 PUSH2 0x146C PUSH0 NOT DUP5 PUSH1 0x8 MUL PUSH2 0x1451 JUMP JUMPDEST NOT DUP1 DUP4 AND SWAP2 POP POP SWAP3 SWAP2 POP POP JUMP JUMPDEST PUSH0 PUSH2 0x1484 DUP4 DUP4 PUSH2 0x145D JUMP JUMPDEST SWAP2 POP DUP3 PUSH1 0x2 MUL DUP3 OR SWAP1 POP SWAP3 SWAP2 POP POP JUMP JUMPDEST PUSH2 0x149D DUP3 PUSH2 0xEC4 JUMP JUMPDEST PUSH8 0xFFFFFFFFFFFFFFFF DUP2 GT ISZERO PUSH2 0x14B6 JUMPI PUSH2 0x14B5 PUSH2 0xB89 JUMP JUMPDEST JUMPDEST PUSH2 0x14C0 DUP3 SLOAD PUSH2 0x12C7 JUMP JUMPDEST PUSH2 0x14CB DUP3 DUP3 DUP6 PUSH2 0x140B JUMP JUMPDEST PUSH0 PUSH1 0x20 SWAP1 POP PUSH1 0x1F DUP4 GT PUSH1 0x1 DUP2 EQ PUSH2 0x14FC JUMPI PUSH0 DUP5 ISZERO PUSH2 0x14EA JUMPI DUP3 DUP8 ADD MLOAD SWAP1 POP JUMPDEST PUSH2 0x14F4 DUP6 DUP3 PUSH2 0x1479 JUMP JUMPDEST DUP7 SSTORE POP PUSH2 0x155B JUMP JUMPDEST PUSH1 0x1F NOT DUP5 AND PUSH2 0x150A DUP7 PUSH2 0x12F7 JUMP JUMPDEST PUSH0 JUMPDEST DUP3 DUP2 LT ISZERO PUSH2 0x1531 JUMPI DUP5 DUP10 ADD MLOAD DUP3 SSTORE PUSH1 0x1 DUP3 ADD SWAP2 POP PUSH1 0x20 DUP6 ADD SWAP5 POP PUSH1 0x20 DUP2 ADD SWAP1 POP PUSH2 0x150C JUMP JUMPDEST DUP7 DUP4 LT ISZERO PUSH2 0x154E JUMPI DUP5 DUP10 ADD MLOAD PUSH2 0x154A PUSH1 0x1F DUP10 AND DUP3 PUSH2 0x145D JUMP JUMPDEST DUP4 SSTORE POP JUMPDEST PUSH1 0x1 PUSH1 0x2 DUP9 MUL ADD DUP9 SSTORE POP POP POP JUMPDEST POP POP POP POP POP POP JUMP JUMPDEST PUSH32 0x4E487B7100000000000000000000000000000000000000000000000000000000 PUSH0 MSTORE PUSH1 0x11 PUSH1 0x4 MSTORE PUSH1 0x24 PUSH0 REVERT JUMPDEST PUSH0 PUSH2 0x159A DUP3 PUSH2 0xB05 JUMP JUMPDEST SWAP2 POP PUSH32 0xFFFFFFFFFFFFFFFFFFFFFFFFFFFFFFFFFFFFFFFFFFFFFFFFFFFFFFFFFFFFFFFF DUP3 SUB PUSH2 0x15CC JUMPI PUSH2 0x15CB PUSH2 0x1563 JUMP JUMPDEST JUMPDEST PUSH1 0x1 DUP3 ADD SWAP1 POP SWAP2 SWAP1 POP JUMP JUMPDEST PUSH32 0x4E6F2070726F64756374732E0000000000000000000000000000000000000000 PUSH0 DUP3 ADD MSTORE POP JUMP JUMPDEST PUSH0 PUSH2 0x160B PUSH1 0xC DUP4 PUSH2 0xECE JUMP JUMPDEST SWAP2 POP PUSH2 0x1616 DUP3 PUSH2 0x15D7 JUMP JUMPDEST PUSH1 0x20 DUP3 ADD SWAP1 POP SWAP2 SWAP1 POP JUMP JUMPDEST PUSH0 PUSH1 0x20 DUP3 ADD SWAP1 POP DUP2 DUP2 SUB PUSH0 DUP4 ADD MSTORE PUSH2 0x1638 DUP2 PUSH2 0x15FF JUMP JUMPDEST SWAP1 POP SWAP2 SWAP1 POP JUMP JUMPDEST PUSH0 PUSH2 0x1649 DUP3 PUSH2 0xB05 JUMP JUMPDEST SWAP2 POP PUSH2 0x1654 DUP4 PUSH2 0xB05 JUMP JUMPDEST SWAP3 POP DUP3 DUP3 SUB SWAP1 POP DUP2 DUP2 GT ISZERO PUSH2 0x166C JUMPI PUSH2 0x166B PUSH2 0x1563 JUMP JUMPDEST JUMPDEST SWAP3 SWAP2 POP POP JUMP JUMPDEST PUSH32 0x596F7520617265206E6F7420617574686F72697A65642E000000000000000000 PUSH0 DUP3 ADD MSTORE POP JUMP JUMPDEST PUSH0 PUSH2 0x16A6 PUSH1 0x17 DUP4 PUSH2 0xECE JUMP JUMPDEST SWAP2 POP PUSH2 0x16B1 DUP3 PUSH2 0x1672 JUMP JUMPDEST PUSH1 0x20 DUP3 ADD SWAP1 POP SWAP2 SWAP1 POP JUMP JUMPDEST PUSH0 PUSH1 0x20 DUP3 ADD SWAP1 POP DUP2 DUP2 SUB PUSH0 DUP4 ADD MSTORE PUSH2 0x16D3 DUP2 PUSH2 0x169A JUMP JUMPDEST SWAP1 POP SWAP2 SWAP1 POP JUMP JUMPDEST PUSH32 0x4F7264657220697320616C726561647920736869707065642E00000000000000 PUSH0 DUP3 ADD MSTORE POP JUMP JUMPDEST PUSH0 PUSH2 0x170E PUSH1 0x19 DUP4 PUSH2 0xECE JUMP JUMPDEST SWAP2 POP PUSH2 0x1719 DUP3 PUSH2 0x16DA JUMP JUMPDEST PUSH1 0x20 DUP3 ADD SWAP1 POP SWAP2 SWAP1 POP JUMP JUMPDEST PUSH0 PUSH1 0x20 DUP3 ADD SWAP1 POP DUP2 DUP2 SUB PUSH0 DUP4 ADD MSTORE PUSH2 0x173B DUP2 PUSH2 0x1702 JUMP JUMPDEST SWAP1 POP SWAP2 SWAP1 POP JUMP INVALID LOG2 PUSH5 0x6970667358 0x22 SLT KECCAK256 0xDE PUSH32 0x903B4B7776C160F9CA6B3E809439737C71C6970418E571BDD91601C3C60B6473 PUSH16 0x6C634300081A00330000000000000000 "
				},
				"gasEstimates": {
					"creation": {
						"codeDepositCost": "1201600",
						"executionCost": "25511",
						"totalCost": "1227111"
					},
					"external": {
						"advanceOrder(uint256)": "40107",
						"createOrder(string,uint256[])": "infinite",
						"getOrder(uint256)": "infinite",
						"orders(uint256)": "infinite",
						"owner()": "2508",
						"txCount()": "2426",
						"updateZip(uint256,string)": "infinite"
					}
				},
				"methodIdentifiers": {
					"advanceOrder(uint256)": "afe13a62",
					"createOrder(string,uint256[])": "6d9a65d8",
					"getOrder(uint256)": "d09ef241",
					"orders(uint256)": "a85c38ef",
					"owner()": "8da5cb5b",
					"txCount()": "3c540687",
					"updateZip(uint256,string)": "577dc0a0"
				}
			},
			"storageLayout": {
				"storage": [
					{
						"astId": 21,
						"contract": "contracts/Modifiers.sol:StructsAndEnums",
						"label": "orders",
						"offset": 0,
						"slot": "0",
						"type": "t_array(t_struct(Order)17_storage)dyn_storage"
					},
					{
						"astId": 23,
						"contract": "contracts/Modifiers.sol:StructsAndEnums",
						"label": "owner",
						"offset": 0,
						"slot": "1",
						"type": "t_address"
					},
					{
						"astId": 25,
						"contract": "contracts/Modifiers.sol:StructsAndEnums",
						"label": "txCount",
						"offset": 0,
						"slot": "2",
						"type": "t_uint256"
					}
				],
				"types": {
					"t_address": {
						"encoding": "inplace",
						"label": "address",
						"numberOfBytes": "20"
					},
					"t_array(t_struct(Order)17_storage)dyn_storage": {
						"base": "t_struct(Order)17_storage",
						"encoding": "dynamic_array",
						"label": "struct StructsAndEnums.Order[]",
						"numberOfBytes": "32"
					},
					"t_array(t_uint256)dyn_storage": {
						"base": "t_uint256",
						"encoding": "dynamic_array",
						"label": "uint256[]",
						"numberOfBytes": "32"
					},
					"t_enum(Status)6": {
						"encoding": "inplace",
						"label": "enum StructsAndEnums.Status",
						"numberOfBytes": "1"
					},
					"t_string_storage": {
						"encoding": "bytes",
						"label": "string",
						"numberOfBytes": "32"
					},
					"t_struct(Order)17_storage": {
						"encoding": "inplace",
						"label": "struct StructsAndEnums.Order",
						"members": [
							{
								"astId": 8,
								"contract": "contracts/Modifiers.sol:StructsAndEnums",
								"label": "customer",
								"offset": 0,
								"slot": "0",
								"type": "t_address"
							},
							{
								"astId": 10,
								"contract": "contracts/Modifiers.sol:StructsAndEnums",
								"label": "zipCode",
								"offset": 0,
								"slot": "1",
								"type": "t_string_storage"
							},
							{
								"astId": 13,
								"contract": "contracts/Modifiers.sol:StructsAndEnums",
								"label": "products",
								"offset": 0,
								"slot": "2",
								"type": "t_array(t_uint256)dyn_storage"
							},
							{
								"astId": 16,
								"contract": "contracts/Modifiers.sol:StructsAndEnums",
								"label": "status",
								"offset": 0,
								"slot": "3",
								"type": "t_enum(Status)6"
							}
						],
						"numberOfBytes": "128"
					},
					"t_uint256": {
						"encoding": "inplace",
						"label": "uint256",
						"numberOfBytes": "32"
					}
				}
			},
			"userdoc": {
				"kind": "user",
				"methods": {},
				"version": 1
			}
		}
	}
}