{
	"contracts/Transfer.sol": {
		"Bank": {
			"abi": [
				{
					"stateMutability": "payable",
					"type": "fallback"
				},
				{
					"inputs": [],
					"name": "fallbackCount",
					"outputs": [
						{
							"internalType": "uint256",
							"name": "",
							"type": "uint256"
						}
					],
					"stateMutability": "view",
					"type": "function"
				},
				{
					"inputs": [],
					"name": "receiveCount",
					"outputs": [
						{
							"internalType": "uint256",
							"name": "",
							"type": "uint256"
						}
					],
					"stateMutability": "view",
					"type": "function"
				},
				{
					"inputs": [],
					"name": "sendEtherToContract",
					"outputs": [],
					"stateMutability": "payable",
					"type": "function"
				},
				{
					"inputs": [],
					"name": "showBalance",
					"outputs": [
						{
							"internalType": "uint256",
							"name": "",
							"type": "uint256"
						}
					],
					"stateMutability": "view",
					"type": "function"
				},
				{
					"inputs": [
						{
							"internalType": "address payable",
							"name": "_to",
							"type": "address"
						},
						{
							"internalType": "uint256",
							"name": "amount",
							"type": "uint256"
						}
					],
					"name": "withdraw",
					"outputs": [],
					"stateMutability": "nonpayable",
					"type": "function"
				},
				{
					"inputs": [
						{
							"internalType": "address payable",
							"name": "_to",
							"type": "address"
						},
						{
							"internalType": "uint256",
							"name": "amount",
							"type": "uint256"
						}
					],
					"name": "withdraw2",
					"outputs": [],
					"stateMutability": "nonpayable",
					"type": "function"
				},
				{
					"inputs": [
						{
							"internalType": "address payable",
							"name": "_to",
							"type": "address"
						},
						{
							"internalType": "uint256",
							"name": "amount",
							"type": "uint256"
						}
					],
					"name": "withdraw3",
					"outputs": [
						{
							"internalType": "bool",
							"name": "",
							"type": "bool"
						}
					],
					"stateMutability": "nonpayable",
					"type": "function"
				},
				{
					"inputs": [
						{
							"internalType": "address payable",
							"name": "_to",
							"type": "address"
						},
						{
							"internalType": "uint256",
							"name": "amount",
							"type": "uint256"
						}
					],
					"name": "withdraw4",
					"outputs": [
						{
							"internalType": "bool",
							"name": "",
							"type": "bool"
						}
					],
					"stateMutability": "nonpayable",
					"type": "function"
				},
				{
					"stateMutability": "payable",
					"type": "receive"
				}
			],
			"devdoc": {
				"kind": "dev",
				"methods": {},
				"version": 1
			},
			"evm": {
				"assembly": "    /* \"contracts/Transfer.sol\":67:1426  contract Bank {\r... */\n  mstore(0x40, 0x80)\n    /* \"contracts/Transfer.sol\":1240:1241  0 */\n  0x00\n    /* \"contracts/Transfer.sol\":1213:1241  uint public receiveCount = 0 */\n  0x01\n  sstore\n    /* \"contracts/Transfer.sol\":1276:1277  0 */\n  0x00\n    /* \"contracts/Transfer.sol\":1248:1277  uint public fallbackCount = 0 */\n  0x02\n  sstore\n    /* \"contracts/Transfer.sol\":67:1426  contract Bank {\r... */\n  callvalue\n  dup1\n  iszero\n  tag_1\n  jumpi\n  0x00\n  dup1\n  revert\ntag_1:\n  pop\n  dataSize(sub_0)\n  dup1\n  dataOffset(sub_0)\n  0x00\n  codecopy\n  0x00\n  return\nstop\n\nsub_0: assembly {\n        /* \"contracts/Transfer.sol\":67:1426  contract Bank {\r... */\n      mstore(0x40, 0x80)\n      jumpi(tag_1, lt(calldatasize, 0x04))\n      shr(0xe0, calldataload(0x00))\n      dup1\n      0xdb13b24f\n      gt\n      tag_11\n      jumpi\n      dup1\n      0xdb13b24f\n      eq\n      tag_7\n      jumpi\n      dup1\n      0xf25a3738\n      eq\n      tag_8\n      jumpi\n      dup1\n      0xf3fef3a3\n      eq\n      tag_9\n      jumpi\n      dup1\n      0xf776bd06\n      eq\n      tag_10\n      jumpi\n      jump(tag_2)\n    tag_11:\n      dup1\n      0x325ec768\n      eq\n      tag_3\n      jumpi\n      dup1\n      0x7ba85592\n      eq\n      tag_4\n      jumpi\n      dup1\n      0x81b2d07b\n      eq\n      tag_5\n      jumpi\n      dup1\n      0x8fd8927e\n      eq\n      tag_6\n      jumpi\n      jump(tag_2)\n    tag_1:\n      jumpi(tag_2, calldatasize)\n        /* \"contracts/Transfer.sol\":1340:1341  1 */\n      0x01\n        /* \"contracts/Transfer.sol\":1324:1336  receiveCount */\n      dup1\n      0x00\n        /* \"contracts/Transfer.sol\":1324:1341  receiveCount += 1 */\n      dup3\n      dup3\n      sload\n      tag_14\n      swap2\n      swap1\n      tag_15\n      jump\t// in\n    tag_14:\n      swap3\n      pop\n      pop\n      dup2\n      swap1\n      sstore\n      pop\n        /* \"contracts/Transfer.sol\":67:1426  contract Bank {\r... */\n      stop\n    tag_2:\n        /* \"contracts/Transfer.sol\":1414:1415  1 */\n      0x01\n        /* \"contracts/Transfer.sol\":1397:1410  fallbackCount */\n      0x02\n      0x00\n        /* \"contracts/Transfer.sol\":1397:1415  fallbackCount += 1 */\n      dup3\n      dup3\n      sload\n      tag_18\n      swap2\n      swap1\n      tag_15\n      jump\t// in\n    tag_18:\n      swap3\n      pop\n      pop\n      dup2\n      swap1\n      sstore\n      pop\n        /* \"contracts/Transfer.sol\":67:1426  contract Bank {\r... */\n      stop\n        /* \"contracts/Transfer.sol\":133:232  function sendEtherToContract() payable external {\r... */\n    tag_3:\n      tag_19\n      tag_20\n      jump\t// in\n    tag_19:\n      stop\n        /* \"contracts/Transfer.sol\":1213:1241  uint public receiveCount = 0 */\n    tag_4:\n      callvalue\n      dup1\n      iszero\n      tag_21\n      jumpi\n      0x00\n      dup1\n      revert\n    tag_21:\n      pop\n      tag_22\n      tag_23\n      jump\t// in\n    tag_22:\n      mload(0x40)\n      tag_24\n      swap2\n      swap1\n      tag_25\n      jump\t// in\n    tag_24:\n      mload(0x40)\n      dup1\n      swap2\n      sub\n      swap1\n      return\n        /* \"contracts/Transfer.sol\":240:337  function showBalance() external view returns(uint) {\r... */\n    tag_5:\n      callvalue\n      dup1\n      iszero\n      tag_26\n      jumpi\n      0x00\n      dup1\n      revert\n    tag_26:\n      pop\n      tag_27\n      tag_28\n      jump\t// in\n    tag_27:\n      mload(0x40)\n      tag_29\n      swap2\n      swap1\n      tag_25\n      jump\t// in\n    tag_29:\n      mload(0x40)\n      dup1\n      swap2\n      sub\n      swap1\n      return\n        /* \"contracts/Transfer.sol\":716:905  function withdraw3(address payable _to, uint amount) external returns(bool) {\r... */\n    tag_6:\n      callvalue\n      dup1\n      iszero\n      tag_30\n      jumpi\n      0x00\n      dup1\n      revert\n    tag_30:\n      pop\n      tag_31\n      0x04\n      dup1\n      calldatasize\n      sub\n      dup2\n      add\n      swap1\n      tag_32\n      swap2\n      swap1\n      tag_33\n      jump\t// in\n    tag_32:\n      tag_34\n      jump\t// in\n    tag_31:\n      mload(0x40)\n      tag_35\n      swap2\n      swap1\n      tag_36\n      jump\t// in\n    tag_35:\n      mload(0x40)\n      dup1\n      swap2\n      sub\n      swap1\n      return\n        /* \"contracts/Transfer.sol\":568:708  function withdraw2(address payable _to, uint amount) external {\r... */\n    tag_7:\n      callvalue\n      dup1\n      iszero\n      tag_37\n      jumpi\n      0x00\n      dup1\n      revert\n    tag_37:\n      pop\n      tag_38\n      0x04\n      dup1\n      calldatasize\n      sub\n      dup2\n      add\n      swap1\n      tag_39\n      swap2\n      swap1\n      tag_33\n      jump\t// in\n    tag_39:\n      tag_40\n      jump\t// in\n    tag_38:\n      stop\n        /* \"contracts/Transfer.sol\":913:1112  function withdraw4(address payable _to, uint amount) external returns(bool) {\r... */\n    tag_8:\n      callvalue\n      dup1\n      iszero\n      tag_41\n      jumpi\n      0x00\n      dup1\n      revert\n    tag_41:\n      pop\n      tag_42\n      0x04\n      dup1\n      calldatasize\n      sub\n      dup2\n      add\n      swap1\n      tag_43\n      swap2\n      swap1\n      tag_33\n      jump\t// in\n    tag_43:\n      tag_44\n      jump\t// in\n    tag_42:\n      mload(0x40)\n      tag_45\n      swap2\n      swap1\n      tag_36\n      jump\t// in\n    tag_45:\n      mload(0x40)\n      dup1\n      swap2\n      sub\n      swap1\n      return\n        /* \"contracts/Transfer.sol\":345:560  function withdraw(address payable _to, uint amount) external {\r... */\n    tag_9:\n      callvalue\n      dup1\n      iszero\n      tag_46\n      jumpi\n      0x00\n      dup1\n      revert\n    tag_46:\n      pop\n      tag_47\n      0x04\n      dup1\n      calldatasize\n      sub\n      dup2\n      add\n      swap1\n      tag_48\n      swap2\n      swap1\n      tag_33\n      jump\t// in\n    tag_48:\n      tag_49\n      jump\t// in\n    tag_47:\n      stop\n        /* \"contracts/Transfer.sol\":1248:1277  uint public fallbackCount = 0 */\n    tag_10:\n      callvalue\n      dup1\n      iszero\n      tag_50\n      jumpi\n      0x00\n      dup1\n      revert\n    tag_50:\n      pop\n      tag_51\n      tag_52\n      jump\t// in\n    tag_51:\n      mload(0x40)\n      tag_53\n      swap2\n      swap1\n      tag_25\n      jump\t// in\n    tag_53:\n      mload(0x40)\n      dup1\n      swap2\n      sub\n      swap1\n      return\n        /* \"contracts/Transfer.sol\":133:232  function sendEtherToContract() payable external {\r... */\n    tag_20:\n        /* \"contracts/Transfer.sol\":215:224  msg.value */\n      callvalue\n        /* \"contracts/Transfer.sol\":192:200  balances */\n      0x00\n        /* \"contracts/Transfer.sol\":192:212  balances[msg.sender] */\n      dup1\n        /* \"contracts/Transfer.sol\":201:211  msg.sender */\n      caller\n        /* \"contracts/Transfer.sol\":192:212  balances[msg.sender] */\n      0xffffffffffffffffffffffffffffffffffffffff\n      and\n      0xffffffffffffffffffffffffffffffffffffffff\n      and\n      dup2\n      mstore\n      0x20\n      add\n      swap1\n      dup2\n      mstore\n      0x20\n      add\n      0x00\n      keccak256\n        /* \"contracts/Transfer.sol\":192:224  balances[msg.sender] = msg.value */\n      dup2\n      swap1\n      sstore\n      pop\n        /* \"contracts/Transfer.sol\":133:232  function sendEtherToContract() payable external {\r... */\n      jump\t// out\n        /* \"contracts/Transfer.sol\":1213:1241  uint public receiveCount = 0 */\n    tag_23:\n      sload(0x01)\n      dup2\n      jump\t// out\n        /* \"contracts/Transfer.sol\":240:337  function showBalance() external view returns(uint) {\r... */\n    tag_28:\n        /* \"contracts/Transfer.sol\":285:289  uint */\n      0x00\n        /* \"contracts/Transfer.sol\":309:317  balances */\n      dup1\n        /* \"contracts/Transfer.sol\":309:329  balances[msg.sender] */\n      0x00\n        /* \"contracts/Transfer.sol\":318:328  msg.sender */\n      caller\n        /* \"contracts/Transfer.sol\":309:329  balances[msg.sender] */\n      0xffffffffffffffffffffffffffffffffffffffff\n      and\n      0xffffffffffffffffffffffffffffffffffffffff\n      and\n      dup2\n      mstore\n      0x20\n      add\n      swap1\n      dup2\n      mstore\n      0x20\n      add\n      0x00\n      keccak256\n      sload\n        /* \"contracts/Transfer.sol\":302:329  return balances[msg.sender] */\n      swap1\n      pop\n        /* \"contracts/Transfer.sol\":240:337  function showBalance() external view returns(uint) {\r... */\n      swap1\n      jump\t// out\n        /* \"contracts/Transfer.sol\":716:905  function withdraw3(address payable _to, uint amount) external returns(bool) {\r... */\n    tag_34:\n        /* \"contracts/Transfer.sol\":786:790  bool */\n      0x00\n        /* \"contracts/Transfer.sol\":802:813  bool result */\n      dup1\n        /* \"contracts/Transfer.sol\":816:819  _to */\n      dup4\n        /* \"contracts/Transfer.sol\":816:824  _to.send */\n      0xffffffffffffffffffffffffffffffffffffffff\n      and\n        /* \"contracts/Transfer.sol\":816:832  _to.send(amount) */\n      0x08fc\n        /* \"contracts/Transfer.sol\":825:831  amount */\n      dup5\n        /* \"contracts/Transfer.sol\":816:832  _to.send(amount) */\n      swap1\n      dup2\n      iszero\n      mul\n      swap1\n      mload(0x40)\n      0x00\n      mload(0x40)\n      dup1\n      dup4\n      sub\n      dup2\n      dup6\n      dup9\n      dup9\n      call\n      swap4\n      pop\n      pop\n      pop\n      pop\n        /* \"contracts/Transfer.sol\":802:832  bool result = _to.send(amount) */\n      swap1\n      pop\n        /* \"contracts/Transfer.sol\":866:872  amount */\n      dup3\n        /* \"contracts/Transfer.sol\":842:850  balances */\n      0x00\n        /* \"contracts/Transfer.sol\":842:862  balances[msg.sender] */\n      dup1\n        /* \"contracts/Transfer.sol\":851:861  msg.sender */\n      caller\n        /* \"contracts/Transfer.sol\":842:862  balances[msg.sender] */\n      0xffffffffffffffffffffffffffffffffffffffff\n      and\n      0xffffffffffffffffffffffffffffffffffffffff\n      and\n      dup2\n      mstore\n      0x20\n      add\n      swap1\n      dup2\n      mstore\n      0x20\n      add\n      0x00\n      keccak256\n      0x00\n        /* \"contracts/Transfer.sol\":842:872  balances[msg.sender] -= amount */\n      dup3\n      dup3\n      sload\n      tag_58\n      swap2\n      swap1\n      tag_59\n      jump\t// in\n    tag_58:\n      swap3\n      pop\n      pop\n      dup2\n      swap1\n      sstore\n      pop\n        /* \"contracts/Transfer.sol\":891:897  result */\n      dup1\n        /* \"contracts/Transfer.sol\":884:897  return result */\n      swap2\n      pop\n      pop\n        /* \"contracts/Transfer.sol\":716:905  function withdraw3(address payable _to, uint amount) external returns(bool) {\r... */\n      swap3\n      swap2\n      pop\n      pop\n      jump\t// out\n        /* \"contracts/Transfer.sol\":568:708  function withdraw2(address payable _to, uint amount) external {\r... */\n    tag_40:\n        /* \"contracts/Transfer.sol\":640:643  _to */\n      dup2\n        /* \"contracts/Transfer.sol\":640:652  _to.transfer */\n      0xffffffffffffffffffffffffffffffffffffffff\n      and\n        /* \"contracts/Transfer.sol\":640:660  _to.transfer(amount) */\n      0x08fc\n        /* \"contracts/Transfer.sol\":653:659  amount */\n      dup3\n        /* \"contracts/Transfer.sol\":640:660  _to.transfer(amount) */\n      swap1\n      dup2\n      iszero\n      mul\n      swap1\n      mload(0x40)\n      0x00\n      mload(0x40)\n      dup1\n      dup4\n      sub\n      dup2\n      dup6\n      dup9\n      dup9\n      call\n      swap4\n      pop\n      pop\n      pop\n      pop\n      iszero\n      dup1\n      iszero\n      tag_62\n      jumpi\n      returndatasize\n      0x00\n      dup1\n      returndatacopy\n      revert(0x00, returndatasize)\n    tag_62:\n      pop\n        /* \"contracts/Transfer.sol\":694:700  amount */\n      dup1\n        /* \"contracts/Transfer.sol\":670:678  balances */\n      0x00\n        /* \"contracts/Transfer.sol\":670:690  balances[msg.sender] */\n      dup1\n        /* \"contracts/Transfer.sol\":679:689  msg.sender */\n      caller\n        /* \"contracts/Transfer.sol\":670:690  balances[msg.sender] */\n      0xffffffffffffffffffffffffffffffffffffffff\n      and\n      0xffffffffffffffffffffffffffffffffffffffff\n      and\n      dup2\n      mstore\n      0x20\n      add\n      swap1\n      dup2\n      mstore\n      0x20\n      add\n      0x00\n      keccak256\n      0x00\n        /* \"contracts/Transfer.sol\":670:700  balances[msg.sender] -= amount */\n      dup3\n      dup3\n      sload\n      tag_63\n      swap2\n      swap1\n      tag_59\n      jump\t// in\n    tag_63:\n      swap3\n      pop\n      pop\n      dup2\n      swap1\n      sstore\n      pop\n        /* \"contracts/Transfer.sol\":568:708  function withdraw2(address payable _to, uint amount) external {\r... */\n      pop\n      pop\n      jump\t// out\n        /* \"contracts/Transfer.sol\":913:1112  function withdraw4(address payable _to, uint amount) external returns(bool) {\r... */\n    tag_44:\n        /* \"contracts/Transfer.sol\":983:987  bool */\n      0x00\n        /* \"contracts/Transfer.sol\":1000:1009  bool sent */\n      dup1\n        /* \"contracts/Transfer.sol\":1014:1017  _to */\n      dup4\n        /* \"contracts/Transfer.sol\":1014:1022  _to.call */\n      0xffffffffffffffffffffffffffffffffffffffff\n      and\n        /* \"contracts/Transfer.sol\":1030:1036  amount */\n      dup4\n        /* \"contracts/Transfer.sol\":1014:1041  _to.call{value: amount}(\"\") */\n      mload(0x40)\n      tag_65\n      swap1\n      tag_66\n      jump\t// in\n    tag_65:\n      0x00\n      mload(0x40)\n      dup1\n      dup4\n      sub\n      dup2\n      dup6\n      dup8\n      gas\n      call\n      swap3\n      pop\n      pop\n      pop\n      returndatasize\n      dup1\n      0x00\n      dup2\n      eq\n      tag_69\n      jumpi\n      mload(0x40)\n      swap2\n      pop\n      and(add(returndatasize, 0x3f), not(0x1f))\n      dup3\n      add\n      0x40\n      mstore\n      returndatasize\n      dup3\n      mstore\n      returndatasize\n      0x00\n      0x20\n      dup5\n      add\n      returndatacopy\n      jump(tag_68)\n    tag_69:\n      0x60\n      swap2\n      pop\n    tag_68:\n      pop\n        /* \"contracts/Transfer.sol\":999:1041  (bool sent,) = _to.call{value: amount}(\"\") */\n      pop\n      swap1\n      pop\n        /* \"contracts/Transfer.sol\":1075:1081  amount */\n      dup3\n        /* \"contracts/Transfer.sol\":1051:1059  balances */\n      0x00\n        /* \"contracts/Transfer.sol\":1051:1071  balances[msg.sender] */\n      dup1\n        /* \"contracts/Transfer.sol\":1060:1070  msg.sender */\n      caller\n        /* \"contracts/Transfer.sol\":1051:1071  balances[msg.sender] */\n      0xffffffffffffffffffffffffffffffffffffffff\n      and\n      0xffffffffffffffffffffffffffffffffffffffff\n      and\n      dup2\n      mstore\n      0x20\n      add\n      swap1\n      dup2\n      mstore\n      0x20\n      add\n      0x00\n      keccak256\n      0x00\n        /* \"contracts/Transfer.sol\":1051:1081  balances[msg.sender] -= amount */\n      dup3\n      dup3\n      sload\n      tag_70\n      swap2\n      swap1\n      tag_59\n      jump\t// in\n    tag_70:\n      swap3\n      pop\n      pop\n      dup2\n      swap1\n      sstore\n      pop\n        /* \"contracts/Transfer.sol\":1100:1104  sent */\n      dup1\n        /* \"contracts/Transfer.sol\":1093:1104  return sent */\n      swap2\n      pop\n      pop\n        /* \"contracts/Transfer.sol\":913:1112  function withdraw4(address payable _to, uint amount) external returns(bool) {\r... */\n      swap3\n      swap2\n      pop\n      pop\n      jump\t// out\n        /* \"contracts/Transfer.sol\":345:560  function withdraw(address payable _to, uint amount) external {\r... */\n    tag_49:\n        /* \"contracts/Transfer.sol\":448:454  amount */\n      dup1\n        /* \"contracts/Transfer.sol\":424:432  balances */\n      0x00\n        /* \"contracts/Transfer.sol\":424:444  balances[msg.sender] */\n      dup1\n        /* \"contracts/Transfer.sol\":433:443  msg.sender */\n      caller\n        /* \"contracts/Transfer.sol\":424:444  balances[msg.sender] */\n      0xffffffffffffffffffffffffffffffffffffffff\n      and\n      0xffffffffffffffffffffffffffffffffffffffff\n      and\n      dup2\n      mstore\n      0x20\n      add\n      swap1\n      dup2\n      mstore\n      0x20\n      add\n      0x00\n      keccak256\n      sload\n        /* \"contracts/Transfer.sol\":424:454  balances[msg.sender] >= amount */\n      lt\n      iszero\n        /* \"contracts/Transfer.sol\":416:480  require(balances[msg.sender] >= amount, \"Insufficient balance.\") */\n      tag_72\n      jumpi\n      mload(0x40)\n      0x08c379a000000000000000000000000000000000000000000000000000000000\n      dup2\n      mstore\n      0x04\n      add\n      tag_73\n      swap1\n      tag_74\n      jump\t// in\n    tag_73:\n      mload(0x40)\n      dup1\n      swap2\n      sub\n      swap1\n      revert\n    tag_72:\n        /* \"contracts/Transfer.sol\":492:495  _to */\n      dup2\n        /* \"contracts/Transfer.sol\":492:504  _to.transfer */\n      0xffffffffffffffffffffffffffffffffffffffff\n      and\n        /* \"contracts/Transfer.sol\":492:512  _to.transfer(amount) */\n      0x08fc\n        /* \"contracts/Transfer.sol\":505:511  amount */\n      dup3\n        /* \"contracts/Transfer.sol\":492:512  _to.transfer(amount) */\n      swap1\n      dup2\n      iszero\n      mul\n      swap1\n      mload(0x40)\n      0x00\n      mload(0x40)\n      dup1\n      dup4\n      sub\n      dup2\n      dup6\n      dup9\n      dup9\n      call\n      swap4\n      pop\n      pop\n      pop\n      pop\n      iszero\n      dup1\n      iszero\n      tag_76\n      jumpi\n      returndatasize\n      0x00\n      dup1\n      returndatacopy\n      revert(0x00, returndatasize)\n    tag_76:\n      pop\n        /* \"contracts/Transfer.sol\":546:552  amount */\n      dup1\n        /* \"contracts/Transfer.sol\":522:530  balances */\n      0x00\n        /* \"contracts/Transfer.sol\":522:542  balances[msg.sender] */\n      dup1\n        /* \"contracts/Transfer.sol\":531:541  msg.sender */\n      caller\n        /* \"contracts/Transfer.sol\":522:542  balances[msg.sender] */\n      0xffffffffffffffffffffffffffffffffffffffff\n      and\n      0xffffffffffffffffffffffffffffffffffffffff\n      and\n      dup2\n      mstore\n      0x20\n      add\n      swap1\n      dup2\n      mstore\n      0x20\n      add\n      0x00\n      keccak256\n      0x00\n        /* \"contracts/Transfer.sol\":522:552  balances[msg.sender] -= amount */\n      dup3\n      dup3\n      sload\n      tag_77\n      swap2\n      swap1\n      tag_59\n      jump\t// in\n    tag_77:\n      swap3\n      pop\n      pop\n      dup2\n      swap1\n      sstore\n      pop\n        /* \"contracts/Transfer.sol\":345:560  function withdraw(address payable _to, uint amount) external {\r... */\n      pop\n      pop\n      jump\t// out\n        /* \"contracts/Transfer.sol\":1248:1277  uint public fallbackCount = 0 */\n    tag_52:\n      sload(0x02)\n      dup2\n      jump\t// out\n        /* \"#utility.yul\":7:162   */\n    tag_79:\n      0x00\n        /* \"#utility.yul\":99:105   */\n      dup2\n        /* \"#utility.yul\":86:106   */\n      calldataload\n        /* \"#utility.yul\":77:106   */\n      swap1\n      pop\n        /* \"#utility.yul\":115:156   */\n      tag_81\n        /* \"#utility.yul\":150:155   */\n      dup2\n        /* \"#utility.yul\":115:156   */\n      tag_82\n      jump\t// in\n    tag_81:\n        /* \"#utility.yul\":67:162   */\n      swap3\n      swap2\n      pop\n      pop\n      jump\t// out\n        /* \"#utility.yul\":168:307   */\n    tag_83:\n      0x00\n        /* \"#utility.yul\":252:258   */\n      dup2\n        /* \"#utility.yul\":239:259   */\n      calldataload\n        /* \"#utility.yul\":230:259   */\n      swap1\n      pop\n        /* \"#utility.yul\":268:301   */\n      tag_85\n        /* \"#utility.yul\":295:300   */\n      dup2\n        /* \"#utility.yul\":268:301   */\n      tag_86\n      jump\t// in\n    tag_85:\n        /* \"#utility.yul\":220:307   */\n      swap3\n      swap2\n      pop\n      pop\n      jump\t// out\n        /* \"#utility.yul\":313:736   */\n    tag_33:\n      0x00\n      dup1\n        /* \"#utility.yul\":446:448   */\n      0x40\n        /* \"#utility.yul\":434:443   */\n      dup4\n        /* \"#utility.yul\":425:432   */\n      dup6\n        /* \"#utility.yul\":421:444   */\n      sub\n        /* \"#utility.yul\":417:449   */\n      slt\n        /* \"#utility.yul\":414:416   */\n      iszero\n      tag_88\n      jumpi\n        /* \"#utility.yul\":462:463   */\n      0x00\n        /* \"#utility.yul\":459:460   */\n      dup1\n        /* \"#utility.yul\":452:464   */\n      revert\n        /* \"#utility.yul\":414:416   */\n    tag_88:\n        /* \"#utility.yul\":505:506   */\n      0x00\n        /* \"#utility.yul\":530:591   */\n      tag_89\n        /* \"#utility.yul\":583:590   */\n      dup6\n        /* \"#utility.yul\":574:580   */\n      dup3\n        /* \"#utility.yul\":563:572   */\n      dup7\n        /* \"#utility.yul\":559:581   */\n      add\n        /* \"#utility.yul\":530:591   */\n      tag_79\n      jump\t// in\n    tag_89:\n        /* \"#utility.yul\":520:591   */\n      swap3\n      pop\n        /* \"#utility.yul\":476:601   */\n      pop\n        /* \"#utility.yul\":640:642   */\n      0x20\n        /* \"#utility.yul\":666:719   */\n      tag_90\n        /* \"#utility.yul\":711:718   */\n      dup6\n        /* \"#utility.yul\":702:708   */\n      dup3\n        /* \"#utility.yul\":691:700   */\n      dup7\n        /* \"#utility.yul\":687:709   */\n      add\n        /* \"#utility.yul\":666:719   */\n      tag_83\n      jump\t// in\n    tag_90:\n        /* \"#utility.yul\":656:719   */\n      swap2\n      pop\n        /* \"#utility.yul\":611:729   */\n      pop\n        /* \"#utility.yul\":404:736   */\n      swap3\n      pop\n      swap3\n      swap1\n      pop\n      jump\t// out\n        /* \"#utility.yul\":742:851   */\n    tag_91:\n        /* \"#utility.yul\":823:844   */\n      tag_93\n        /* \"#utility.yul\":838:843   */\n      dup2\n        /* \"#utility.yul\":823:844   */\n      tag_94\n      jump\t// in\n    tag_93:\n        /* \"#utility.yul\":818:821   */\n      dup3\n        /* \"#utility.yul\":811:845   */\n      mstore\n        /* \"#utility.yul\":801:851   */\n      pop\n      pop\n      jump\t// out\n        /* \"#utility.yul\":857:1176   */\n    tag_95:\n      0x00\n        /* \"#utility.yul\":1020:1087   */\n      tag_97\n        /* \"#utility.yul\":1084:1086   */\n      0x15\n        /* \"#utility.yul\":1079:1082   */\n      dup4\n        /* \"#utility.yul\":1020:1087   */\n      tag_98\n      jump\t// in\n    tag_97:\n        /* \"#utility.yul\":1013:1087   */\n      swap2\n      pop\n        /* \"#utility.yul\":1117:1140   */\n      0x496e73756666696369656e742062616c616e63652e0000000000000000000000\n        /* \"#utility.yul\":1113:1114   */\n      0x00\n        /* \"#utility.yul\":1108:1111   */\n      dup4\n        /* \"#utility.yul\":1104:1115   */\n      add\n        /* \"#utility.yul\":1097:1141   */\n      mstore\n        /* \"#utility.yul\":1167:1169   */\n      0x20\n        /* \"#utility.yul\":1162:1165   */\n      dup3\n        /* \"#utility.yul\":1158:1170   */\n      add\n        /* \"#utility.yul\":1151:1170   */\n      swap1\n      pop\n        /* \"#utility.yul\":1003:1176   */\n      swap2\n      swap1\n      pop\n      jump\t// out\n        /* \"#utility.yul\":1182:1479   */\n    tag_99:\n      0x00\n        /* \"#utility.yul\":1362:1445   */\n      tag_101\n        /* \"#utility.yul\":1443:1444   */\n      0x00\n        /* \"#utility.yul\":1438:1441   */\n      dup4\n        /* \"#utility.yul\":1362:1445   */\n      tag_102\n      jump\t// in\n    tag_101:\n        /* \"#utility.yul\":1355:1445   */\n      swap2\n      pop\n        /* \"#utility.yul\":1471:1472   */\n      0x00\n        /* \"#utility.yul\":1466:1469   */\n      dup3\n        /* \"#utility.yul\":1462:1473   */\n      add\n        /* \"#utility.yul\":1455:1473   */\n      swap1\n      pop\n        /* \"#utility.yul\":1345:1479   */\n      swap2\n      swap1\n      pop\n      jump\t// out\n        /* \"#utility.yul\":1485:1603   */\n    tag_103:\n        /* \"#utility.yul\":1572:1596   */\n      tag_105\n        /* \"#utility.yul\":1590:1595   */\n      dup2\n        /* \"#utility.yul\":1572:1596   */\n      tag_106\n      jump\t// in\n    tag_105:\n        /* \"#utility.yul\":1567:1570   */\n      dup3\n        /* \"#utility.yul\":1560:1597   */\n      mstore\n        /* \"#utility.yul\":1550:1603   */\n      pop\n      pop\n      jump\t// out\n        /* \"#utility.yul\":1609:1988   */\n    tag_66:\n      0x00\n        /* \"#utility.yul\":1815:1962   */\n      tag_108\n        /* \"#utility.yul\":1958:1961   */\n      dup3\n        /* \"#utility.yul\":1815:1962   */\n      tag_99\n      jump\t// in\n    tag_108:\n        /* \"#utility.yul\":1808:1962   */\n      swap2\n      pop\n        /* \"#utility.yul\":1979:1982   */\n      dup2\n        /* \"#utility.yul\":1972:1982   */\n      swap1\n      pop\n        /* \"#utility.yul\":1797:1988   */\n      swap2\n      swap1\n      pop\n      jump\t// out\n        /* \"#utility.yul\":1994:2204   */\n    tag_36:\n      0x00\n        /* \"#utility.yul\":2119:2121   */\n      0x20\n        /* \"#utility.yul\":2108:2117   */\n      dup3\n        /* \"#utility.yul\":2104:2122   */\n      add\n        /* \"#utility.yul\":2096:2122   */\n      swap1\n      pop\n        /* \"#utility.yul\":2132:2197   */\n      tag_110\n        /* \"#utility.yul\":2194:2195   */\n      0x00\n        /* \"#utility.yul\":2183:2192   */\n      dup4\n        /* \"#utility.yul\":2179:2196   */\n      add\n        /* \"#utility.yul\":2170:2176   */\n      dup5\n        /* \"#utility.yul\":2132:2197   */\n      tag_91\n      jump\t// in\n    tag_110:\n        /* \"#utility.yul\":2086:2204   */\n      swap3\n      swap2\n      pop\n      pop\n      jump\t// out\n        /* \"#utility.yul\":2210:2629   */\n    tag_74:\n      0x00\n        /* \"#utility.yul\":2414:2416   */\n      0x20\n        /* \"#utility.yul\":2403:2412   */\n      dup3\n        /* \"#utility.yul\":2399:2417   */\n      add\n        /* \"#utility.yul\":2391:2417   */\n      swap1\n      pop\n        /* \"#utility.yul\":2463:2472   */\n      dup2\n        /* \"#utility.yul\":2457:2461   */\n      dup2\n        /* \"#utility.yul\":2453:2473   */\n      sub\n        /* \"#utility.yul\":2449:2450   */\n      0x00\n        /* \"#utility.yul\":2438:2447   */\n      dup4\n        /* \"#utility.yul\":2434:2451   */\n      add\n        /* \"#utility.yul\":2427:2474   */\n      mstore\n        /* \"#utility.yul\":2491:2622   */\n      tag_112\n        /* \"#utility.yul\":2617:2621   */\n      dup2\n        /* \"#utility.yul\":2491:2622   */\n      tag_95\n      jump\t// in\n    tag_112:\n        /* \"#utility.yul\":2483:2622   */\n      swap1\n      pop\n        /* \"#utility.yul\":2381:2629   */\n      swap2\n      swap1\n      pop\n      jump\t// out\n        /* \"#utility.yul\":2635:2857   */\n    tag_25:\n      0x00\n        /* \"#utility.yul\":2766:2768   */\n      0x20\n        /* \"#utility.yul\":2755:2764   */\n      dup3\n        /* \"#utility.yul\":2751:2769   */\n      add\n        /* \"#utility.yul\":2743:2769   */\n      swap1\n      pop\n        /* \"#utility.yul\":2779:2850   */\n      tag_114\n        /* \"#utility.yul\":2847:2848   */\n      0x00\n        /* \"#utility.yul\":2836:2845   */\n      dup4\n        /* \"#utility.yul\":2832:2849   */\n      add\n        /* \"#utility.yul\":2823:2829   */\n      dup5\n        /* \"#utility.yul\":2779:2850   */\n      tag_103\n      jump\t// in\n    tag_114:\n        /* \"#utility.yul\":2733:2857   */\n      swap3\n      swap2\n      pop\n      pop\n      jump\t// out\n        /* \"#utility.yul\":2863:3010   */\n    tag_102:\n      0x00\n        /* \"#utility.yul\":3001:3004   */\n      dup2\n        /* \"#utility.yul\":2986:3004   */\n      swap1\n      pop\n        /* \"#utility.yul\":2976:3010   */\n      swap3\n      swap2\n      pop\n      pop\n      jump\t// out\n        /* \"#utility.yul\":3016:3185   */\n    tag_98:\n      0x00\n        /* \"#utility.yul\":3134:3140   */\n      dup3\n        /* \"#utility.yul\":3129:3132   */\n      dup3\n        /* \"#utility.yul\":3122:3141   */\n      mstore\n        /* \"#utility.yul\":3174:3178   */\n      0x20\n        /* \"#utility.yul\":3169:3172   */\n      dup3\n        /* \"#utility.yul\":3165:3179   */\n      add\n        /* \"#utility.yul\":3150:3179   */\n      swap1\n      pop\n        /* \"#utility.yul\":3112:3185   */\n      swap3\n      swap2\n      pop\n      pop\n      jump\t// out\n        /* \"#utility.yul\":3191:3496   */\n    tag_15:\n      0x00\n        /* \"#utility.yul\":3250:3270   */\n      tag_118\n        /* \"#utility.yul\":3268:3269   */\n      dup3\n        /* \"#utility.yul\":3250:3270   */\n      tag_106\n      jump\t// in\n    tag_118:\n        /* \"#utility.yul\":3245:3270   */\n      swap2\n      pop\n        /* \"#utility.yul\":3284:3304   */\n      tag_119\n        /* \"#utility.yul\":3302:3303   */\n      dup4\n        /* \"#utility.yul\":3284:3304   */\n      tag_106\n      jump\t// in\n    tag_119:\n        /* \"#utility.yul\":3279:3304   */\n      swap3\n      pop\n        /* \"#utility.yul\":3438:3439   */\n      dup3\n        /* \"#utility.yul\":3370:3436   */\n      0xffffffffffffffffffffffffffffffffffffffffffffffffffffffffffffffff\n        /* \"#utility.yul\":3366:3440   */\n      sub\n        /* \"#utility.yul\":3363:3364   */\n      dup3\n        /* \"#utility.yul\":3360:3441   */\n      gt\n        /* \"#utility.yul\":3357:3359   */\n      iszero\n      tag_120\n      jumpi\n        /* \"#utility.yul\":3444:3462   */\n      tag_121\n      tag_122\n      jump\t// in\n    tag_121:\n        /* \"#utility.yul\":3357:3359   */\n    tag_120:\n        /* \"#utility.yul\":3488:3489   */\n      dup3\n        /* \"#utility.yul\":3485:3486   */\n      dup3\n        /* \"#utility.yul\":3481:3490   */\n      add\n        /* \"#utility.yul\":3474:3490   */\n      swap1\n      pop\n        /* \"#utility.yul\":3235:3496   */\n      swap3\n      swap2\n      pop\n      pop\n      jump\t// out\n        /* \"#utility.yul\":3502:3693   */\n    tag_59:\n      0x00\n        /* \"#utility.yul\":3562:3582   */\n      tag_124\n        /* \"#utility.yul\":3580:3581   */\n      dup3\n        /* \"#utility.yul\":3562:3582   */\n      tag_106\n      jump\t// in\n    tag_124:\n        /* \"#utility.yul\":3557:3582   */\n      swap2\n      pop\n        /* \"#utility.yul\":3596:3616   */\n      tag_125\n        /* \"#utility.yul\":3614:3615   */\n      dup4\n        /* \"#utility.yul\":3596:3616   */\n      tag_106\n      jump\t// in\n    tag_125:\n        /* \"#utility.yul\":3591:3616   */\n      swap3\n      pop\n        /* \"#utility.yul\":3635:3636   */\n      dup3\n        /* \"#utility.yul\":3632:3633   */\n      dup3\n        /* \"#utility.yul\":3629:3637   */\n      lt\n        /* \"#utility.yul\":3626:3628   */\n      iszero\n      tag_126\n      jumpi\n        /* \"#utility.yul\":3640:3658   */\n      tag_127\n      tag_122\n      jump\t// in\n    tag_127:\n        /* \"#utility.yul\":3626:3628   */\n    tag_126:\n        /* \"#utility.yul\":3685:3686   */\n      dup3\n        /* \"#utility.yul\":3682:3683   */\n      dup3\n        /* \"#utility.yul\":3678:3687   */\n      sub\n        /* \"#utility.yul\":3670:3687   */\n      swap1\n      pop\n        /* \"#utility.yul\":3547:3693   */\n      swap3\n      swap2\n      pop\n      pop\n      jump\t// out\n        /* \"#utility.yul\":3699:3803   */\n    tag_128:\n      0x00\n        /* \"#utility.yul\":3773:3797   */\n      tag_130\n        /* \"#utility.yul\":3791:3796   */\n      dup3\n        /* \"#utility.yul\":3773:3797   */\n      tag_131\n      jump\t// in\n    tag_130:\n        /* \"#utility.yul\":3762:3797   */\n      swap1\n      pop\n        /* \"#utility.yul\":3752:3803   */\n      swap2\n      swap1\n      pop\n      jump\t// out\n        /* \"#utility.yul\":3809:3899   */\n    tag_94:\n      0x00\n        /* \"#utility.yul\":3886:3891   */\n      dup2\n        /* \"#utility.yul\":3879:3892   */\n      iszero\n        /* \"#utility.yul\":3872:3893   */\n      iszero\n        /* \"#utility.yul\":3861:3893   */\n      swap1\n      pop\n        /* \"#utility.yul\":3851:3899   */\n      swap2\n      swap1\n      pop\n      jump\t// out\n        /* \"#utility.yul\":3905:4031   */\n    tag_131:\n      0x00\n        /* \"#utility.yul\":3982:4024   */\n      0xffffffffffffffffffffffffffffffffffffffff\n        /* \"#utility.yul\":3975:3980   */\n      dup3\n        /* \"#utility.yul\":3971:4025   */\n      and\n        /* \"#utility.yul\":3960:4025   */\n      swap1\n      pop\n        /* \"#utility.yul\":3950:4031   */\n      swap2\n      swap1\n      pop\n      jump\t// out\n        /* \"#utility.yul\":4037:4114   */\n    tag_106:\n      0x00\n        /* \"#utility.yul\":4103:4108   */\n      dup2\n        /* \"#utility.yul\":4092:4108   */\n      swap1\n      pop\n        /* \"#utility.yul\":4082:4114   */\n      swap2\n      swap1\n      pop\n      jump\t// out\n        /* \"#utility.yul\":4120:4300   */\n    tag_122:\n        /* \"#utility.yul\":4168:4245   */\n      0x4e487b7100000000000000000000000000000000000000000000000000000000\n        /* \"#utility.yul\":4165:4166   */\n      0x00\n        /* \"#utility.yul\":4158:4246   */\n      mstore\n        /* \"#utility.yul\":4265:4269   */\n      0x11\n        /* \"#utility.yul\":4262:4263   */\n      0x04\n        /* \"#utility.yul\":4255:4270   */\n      mstore\n        /* \"#utility.yul\":4289:4293   */\n      0x24\n        /* \"#utility.yul\":4286:4287   */\n      0x00\n        /* \"#utility.yul\":4279:4294   */\n      revert\n        /* \"#utility.yul\":4306:4444   */\n    tag_82:\n        /* \"#utility.yul\":4387:4419   */\n      tag_137\n        /* \"#utility.yul\":4413:4418   */\n      dup2\n        /* \"#utility.yul\":4387:4419   */\n      tag_128\n      jump\t// in\n    tag_137:\n        /* \"#utility.yul\":4380:4385   */\n      dup2\n        /* \"#utility.yul\":4377:4420   */\n      eq\n        /* \"#utility.yul\":4367:4369   */\n      tag_138\n      jumpi\n        /* \"#utility.yul\":4434:4435   */\n      0x00\n        /* \"#utility.yul\":4431:4432   */\n      dup1\n        /* \"#utility.yul\":4424:4436   */\n      revert\n        /* \"#utility.yul\":4367:4369   */\n    tag_138:\n        /* \"#utility.yul\":4357:4444   */\n      pop\n      jump\t// out\n        /* \"#utility.yul\":4450:4572   */\n    tag_86:\n        /* \"#utility.yul\":4523:4547   */\n      tag_140\n        /* \"#utility.yul\":4541:4546   */\n      dup2\n        /* \"#utility.yul\":4523:4547   */\n      tag_106\n      jump\t// in\n    tag_140:\n        /* \"#utility.yul\":4516:4521   */\n      dup2\n        /* \"#utility.yul\":4513:4548   */\n      eq\n        /* \"#utility.yul\":4503:4505   */\n      tag_141\n      jumpi\n        /* \"#utility.yul\":4562:4563   */\n      0x00\n        /* \"#utility.yul\":4559:4560   */\n      dup1\n        /* \"#utility.yul\":4552:4564   */\n      revert\n        /* \"#utility.yul\":4503:4505   */\n    tag_141:\n        /* \"#utility.yul\":4493:4572   */\n      pop\n      jump\t// out\n\n    auxdata: 0xa2646970667358221220af85ac4fa77963a448eb4849e930ce47d235ae1fe3861003bac7a16e2f17e37864736f6c63430008000033\n}\n",
				"bytecode": {
					"linkReferences": {},
					"object": "60806040526000600155600060025534801561001a57600080fd5b506108998061002a6000396000f3fe60806040526004361061007f5760003560e01c8063db13b24f1161004e578063db13b24f14610158578063f25a373814610181578063f3fef3a3146101be578063f776bd06146101e75761009f565b8063325ec768146100bb5780637ba85592146100c557806381b2d07b146100f05780638fd8927e1461011b5761009f565b3661009f5760018060008282546100969190610734565b92505081905550005b6001600260008282546100b29190610734565b92505081905550005b6100c3610212565b005b3480156100d157600080fd5b506100da610257565b6040516100e791906106fd565b60405180910390f35b3480156100fc57600080fd5b5061010561025d565b60405161011291906106fd565b60405180910390f35b34801561012757600080fd5b50610142600480360381019061013d91906105f9565b6102a3565b60405161014f91906106c2565b60405180910390f35b34801561016457600080fd5b5061017f600480360381019061017a91906105f9565b61033c565b005b34801561018d57600080fd5b506101a860048036038101906101a391906105f9565b6103dc565b6040516101b591906106c2565b60405180910390f35b3480156101ca57600080fd5b506101e560048036038101906101e091906105f9565b6104a8565b005b3480156101f357600080fd5b506101fc6105c9565b60405161020991906106fd565b60405180910390f35b346000803373ffffffffffffffffffffffffffffffffffffffff1673ffffffffffffffffffffffffffffffffffffffff16815260200190815260200160002081905550565b60015481565b60008060003373ffffffffffffffffffffffffffffffffffffffff1673ffffffffffffffffffffffffffffffffffffffff16815260200190815260200160002054905090565b6000808373ffffffffffffffffffffffffffffffffffffffff166108fc849081150290604051600060405180830381858888f193505050509050826000803373ffffffffffffffffffffffffffffffffffffffff1673ffffffffffffffffffffffffffffffffffffffff168152602001908152602001600020600082825461032b919061078a565b925050819055508091505092915050565b8173ffffffffffffffffffffffffffffffffffffffff166108fc829081150290604051600060405180830381858888f19350505050158015610382573d6000803e3d6000fd5b50806000803373ffffffffffffffffffffffffffffffffffffffff1673ffffffffffffffffffffffffffffffffffffffff16815260200190815260200160002060008282546103d1919061078a565b925050819055505050565b6000808373ffffffffffffffffffffffffffffffffffffffff1683604051610403906106ad565b60006040518083038185875af1925050503d8060008114610440576040519150601f19603f3d011682016040523d82523d6000602084013e610445565b606091505b50509050826000803373ffffffffffffffffffffffffffffffffffffffff1673ffffffffffffffffffffffffffffffffffffffff1681526020019081526020016000206000828254610497919061078a565b925050819055508091505092915050565b806000803373ffffffffffffffffffffffffffffffffffffffff1673ffffffffffffffffffffffffffffffffffffffff168152602001908152602001600020541015610529576040517f08c379a0000000000000000000000000000000000000000000000000000000008152600401610520906106dd565b60405180910390fd5b8173ffffffffffffffffffffffffffffffffffffffff166108fc829081150290604051600060405180830381858888f1935050505015801561056f573d6000803e3d6000fd5b50806000803373ffffffffffffffffffffffffffffffffffffffff1673ffffffffffffffffffffffffffffffffffffffff16815260200190815260200160002060008282546105be919061078a565b925050819055505050565b60025481565b6000813590506105de81610835565b92915050565b6000813590506105f38161084c565b92915050565b6000806040838503121561060c57600080fd5b600061061a858286016105cf565b925050602061062b858286016105e4565b9150509250929050565b61063e816107d0565b82525050565b6000610651601583610723565b91507f496e73756666696369656e742062616c616e63652e00000000000000000000006000830152602082019050919050565b6000610691600083610718565b9150600082019050919050565b6106a7816107fc565b82525050565b60006106b882610684565b9150819050919050565b60006020820190506106d76000830184610635565b92915050565b600060208201905081810360008301526106f681610644565b9050919050565b6000602082019050610712600083018461069e565b92915050565b600081905092915050565b600082825260208201905092915050565b600061073f826107fc565b915061074a836107fc565b9250827fffffffffffffffffffffffffffffffffffffffffffffffffffffffffffffffff0382111561077f5761077e610806565b5b828201905092915050565b6000610795826107fc565b91506107a0836107fc565b9250828210156107b3576107b2610806565b5b828203905092915050565b60006107c9826107dc565b9050919050565b60008115159050919050565b600073ffffffffffffffffffffffffffffffffffffffff82169050919050565b6000819050919050565b7f4e487b7100000000000000000000000000000000000000000000000000000000600052601160045260246000fd5b61083e816107be565b811461084957600080fd5b50565b610855816107fc565b811461086057600080fd5b5056fea2646970667358221220af85ac4fa77963a448eb4849e930ce47d235ae1fe3861003bac7a16e2f17e37864736f6c63430008000033",
					"opcodes": "PUSH1 0x80 PUSH1 0x40 MSTORE PUSH1 0x0 PUSH1 0x1 SSTORE PUSH1 0x0 PUSH1 0x2 SSTORE CALLVALUE DUP1 ISZERO PUSH2 0x1A JUMPI PUSH1 0x0 DUP1 REVERT JUMPDEST POP PUSH2 0x899 DUP1 PUSH2 0x2A PUSH1 0x0 CODECOPY PUSH1 0x0 RETURN INVALID PUSH1 0x80 PUSH1 0x40 MSTORE PUSH1 0x4 CALLDATASIZE LT PUSH2 0x7F JUMPI PUSH1 0x0 CALLDATALOAD PUSH1 0xE0 SHR DUP1 PUSH4 0xDB13B24F GT PUSH2 0x4E JUMPI DUP1 PUSH4 0xDB13B24F EQ PUSH2 0x158 JUMPI DUP1 PUSH4 0xF25A3738 EQ PUSH2 0x181 JUMPI DUP1 PUSH4 0xF3FEF3A3 EQ PUSH2 0x1BE JUMPI DUP1 PUSH4 0xF776BD06 EQ PUSH2 0x1E7 JUMPI PUSH2 0x9F JUMP JUMPDEST DUP1 PUSH4 0x325EC768 EQ PUSH2 0xBB JUMPI DUP1 PUSH4 0x7BA85592 EQ PUSH2 0xC5 JUMPI DUP1 PUSH4 0x81B2D07B EQ PUSH2 0xF0 JUMPI DUP1 PUSH4 0x8FD8927E EQ PUSH2 0x11B JUMPI PUSH2 0x9F JUMP JUMPDEST CALLDATASIZE PUSH2 0x9F JUMPI PUSH1 0x1 DUP1 PUSH1 0x0 DUP3 DUP3 SLOAD PUSH2 0x96 SWAP2 SWAP1 PUSH2 0x734 JUMP JUMPDEST SWAP3 POP POP DUP2 SWAP1 SSTORE POP STOP JUMPDEST PUSH1 0x1 PUSH1 0x2 PUSH1 0x0 DUP3 DUP3 SLOAD PUSH2 0xB2 SWAP2 SWAP1 PUSH2 0x734 JUMP JUMPDEST SWAP3 POP POP DUP2 SWAP1 SSTORE POP STOP JUMPDEST PUSH2 0xC3 PUSH2 0x212 JUMP JUMPDEST STOP JUMPDEST CALLVALUE DUP1 ISZERO PUSH2 0xD1 JUMPI PUSH1 0x0 DUP1 REVERT JUMPDEST POP PUSH2 0xDA PUSH2 0x257 JUMP JUMPDEST PUSH1 0x40 MLOAD PUSH2 0xE7 SWAP2 SWAP1 PUSH2 0x6FD JUMP JUMPDEST PUSH1 0x40 MLOAD DUP1 SWAP2 SUB SWAP1 RETURN JUMPDEST CALLVALUE DUP1 ISZERO PUSH2 0xFC JUMPI PUSH1 0x0 DUP1 REVERT JUMPDEST POP PUSH2 0x105 PUSH2 0x25D JUMP JUMPDEST PUSH1 0x40 MLOAD PUSH2 0x112 SWAP2 SWAP1 PUSH2 0x6FD JUMP JUMPDEST PUSH1 0x40 MLOAD DUP1 SWAP2 SUB SWAP1 RETURN JUMPDEST CALLVALUE DUP1 ISZERO PUSH2 0x127 JUMPI PUSH1 0x0 DUP1 REVERT JUMPDEST POP PUSH2 0x142 PUSH1 0x4 DUP1 CALLDATASIZE SUB DUP2 ADD SWAP1 PUSH2 0x13D SWAP2 SWAP1 PUSH2 0x5F9 JUMP JUMPDEST PUSH2 0x2A3 JUMP JUMPDEST PUSH1 0x40 MLOAD PUSH2 0x14F SWAP2 SWAP1 PUSH2 0x6C2 JUMP JUMPDEST PUSH1 0x40 MLOAD DUP1 SWAP2 SUB SWAP1 RETURN JUMPDEST CALLVALUE DUP1 ISZERO PUSH2 0x164 JUMPI PUSH1 0x0 DUP1 REVERT JUMPDEST POP PUSH2 0x17F PUSH1 0x4 DUP1 CALLDATASIZE SUB DUP2 ADD SWAP1 PUSH2 0x17A SWAP2 SWAP1 PUSH2 0x5F9 JUMP JUMPDEST PUSH2 0x33C JUMP JUMPDEST STOP JUMPDEST CALLVALUE DUP1 ISZERO PUSH2 0x18D JUMPI PUSH1 0x0 DUP1 REVERT JUMPDEST POP PUSH2 0x1A8 PUSH1 0x4 DUP1 CALLDATASIZE SUB DUP2 ADD SWAP1 PUSH2 0x1A3 SWAP2 SWAP1 PUSH2 0x5F9 JUMP JUMPDEST PUSH2 0x3DC JUMP JUMPDEST PUSH1 0x40 MLOAD PUSH2 0x1B5 SWAP2 SWAP1 PUSH2 0x6C2 JUMP JUMPDEST PUSH1 0x40 MLOAD DUP1 SWAP2 SUB SWAP1 RETURN JUMPDEST CALLVALUE DUP1 ISZERO PUSH2 0x1CA JUMPI PUSH1 0x0 DUP1 REVERT JUMPDEST POP PUSH2 0x1E5 PUSH1 0x4 DUP1 CALLDATASIZE SUB DUP2 ADD SWAP1 PUSH2 0x1E0 SWAP2 SWAP1 PUSH2 0x5F9 JUMP JUMPDEST PUSH2 0x4A8 JUMP JUMPDEST STOP JUMPDEST CALLVALUE DUP1 ISZERO PUSH2 0x1F3 JUMPI PUSH1 0x0 DUP1 REVERT JUMPDEST POP PUSH2 0x1FC PUSH2 0x5C9 JUMP JUMPDEST PUSH1 0x40 MLOAD PUSH2 0x209 SWAP2 SWAP1 PUSH2 0x6FD JUMP JUMPDEST PUSH1 0x40 MLOAD DUP1 SWAP2 SUB SWAP1 RETURN JUMPDEST CALLVALUE PUSH1 0x0 DUP1 CALLER PUSH20 0xFFFFFFFFFFFFFFFFFFFFFFFFFFFFFFFFFFFFFFFF AND PUSH20 0xFFFFFFFFFFFFFFFFFFFFFFFFFFFFFFFFFFFFFFFF AND DUP2 MSTORE PUSH1 0x20 ADD SWAP1 DUP2 MSTORE PUSH1 0x20 ADD PUSH1 0x0 KECCAK256 DUP2 SWAP1 SSTORE POP JUMP JUMPDEST PUSH1 0x1 SLOAD DUP2 JUMP JUMPDEST PUSH1 0x0 DUP1 PUSH1 0x0 CALLER PUSH20 0xFFFFFFFFFFFFFFFFFFFFFFFFFFFFFFFFFFFFFFFF AND PUSH20 0xFFFFFFFFFFFFFFFFFFFFFFFFFFFFFFFFFFFFFFFF AND DUP2 MSTORE PUSH1 0x20 ADD SWAP1 DUP2 MSTORE PUSH1 0x20 ADD PUSH1 0x0 KECCAK256 SLOAD SWAP1 POP SWAP1 JUMP JUMPDEST PUSH1 0x0 DUP1 DUP4 PUSH20 0xFFFFFFFFFFFFFFFFFFFFFFFFFFFFFFFFFFFFFFFF AND PUSH2 0x8FC DUP5 SWAP1 DUP2 ISZERO MUL SWAP1 PUSH1 0x40 MLOAD PUSH1 0x0 PUSH1 0x40 MLOAD DUP1 DUP4 SUB DUP2 DUP6 DUP9 DUP9 CALL SWAP4 POP POP POP POP SWAP1 POP DUP3 PUSH1 0x0 DUP1 CALLER PUSH20 0xFFFFFFFFFFFFFFFFFFFFFFFFFFFFFFFFFFFFFFFF AND PUSH20 0xFFFFFFFFFFFFFFFFFFFFFFFFFFFFFFFFFFFFFFFF AND DUP2 MSTORE PUSH1 0x20 ADD SWAP1 DUP2 MSTORE PUSH1 0x20 ADD PUSH1 0x0 KECCAK256 PUSH1 0x0 DUP3 DUP3 SLOAD PUSH2 0x32B SWAP2 SWAP1 PUSH2 0x78A JUMP JUMPDEST SWAP3 POP POP DUP2 SWAP1 SSTORE POP DUP1 SWAP2 POP POP SWAP3 SWAP2 POP POP JUMP JUMPDEST DUP2 PUSH20 0xFFFFFFFFFFFFFFFFFFFFFFFFFFFFFFFFFFFFFFFF AND PUSH2 0x8FC DUP3 SWAP1 DUP2 ISZERO MUL SWAP1 PUSH1 0x40 MLOAD PUSH1 0x0 PUSH1 0x40 MLOAD DUP1 DUP4 SUB DUP2 DUP6 DUP9 DUP9 CALL SWAP4 POP POP POP POP ISZERO DUP1 ISZERO PUSH2 0x382 JUMPI RETURNDATASIZE PUSH1 0x0 DUP1 RETURNDATACOPY RETURNDATASIZE PUSH1 0x0 REVERT JUMPDEST POP DUP1 PUSH1 0x0 DUP1 CALLER PUSH20 0xFFFFFFFFFFFFFFFFFFFFFFFFFFFFFFFFFFFFFFFF AND PUSH20 0xFFFFFFFFFFFFFFFFFFFFFFFFFFFFFFFFFFFFFFFF AND DUP2 MSTORE PUSH1 0x20 ADD SWAP1 DUP2 MSTORE PUSH1 0x20 ADD PUSH1 0x0 KECCAK256 PUSH1 0x0 DUP3 DUP3 SLOAD PUSH2 0x3D1 SWAP2 SWAP1 PUSH2 0x78A JUMP JUMPDEST SWAP3 POP POP DUP2 SWAP1 SSTORE POP POP POP JUMP JUMPDEST PUSH1 0x0 DUP1 DUP4 PUSH20 0xFFFFFFFFFFFFFFFFFFFFFFFFFFFFFFFFFFFFFFFF AND DUP4 PUSH1 0x40 MLOAD PUSH2 0x403 SWAP1 PUSH2 0x6AD JUMP JUMPDEST PUSH1 0x0 PUSH1 0x40 MLOAD DUP1 DUP4 SUB DUP2 DUP6 DUP8 GAS CALL SWAP3 POP POP POP RETURNDATASIZE DUP1 PUSH1 0x0 DUP2 EQ PUSH2 0x440 JUMPI PUSH1 0x40 MLOAD SWAP2 POP PUSH1 0x1F NOT PUSH1 0x3F RETURNDATASIZE ADD AND DUP3 ADD PUSH1 0x40 MSTORE RETURNDATASIZE DUP3 MSTORE RETURNDATASIZE PUSH1 0x0 PUSH1 0x20 DUP5 ADD RETURNDATACOPY PUSH2 0x445 JUMP JUMPDEST PUSH1 0x60 SWAP2 POP JUMPDEST POP POP SWAP1 POP DUP3 PUSH1 0x0 DUP1 CALLER PUSH20 0xFFFFFFFFFFFFFFFFFFFFFFFFFFFFFFFFFFFFFFFF AND PUSH20 0xFFFFFFFFFFFFFFFFFFFFFFFFFFFFFFFFFFFFFFFF AND DUP2 MSTORE PUSH1 0x20 ADD SWAP1 DUP2 MSTORE PUSH1 0x20 ADD PUSH1 0x0 KECCAK256 PUSH1 0x0 DUP3 DUP3 SLOAD PUSH2 0x497 SWAP2 SWAP1 PUSH2 0x78A JUMP JUMPDEST SWAP3 POP POP DUP2 SWAP1 SSTORE POP DUP1 SWAP2 POP POP SWAP3 SWAP2 POP POP JUMP JUMPDEST DUP1 PUSH1 0x0 DUP1 CALLER PUSH20 0xFFFFFFFFFFFFFFFFFFFFFFFFFFFFFFFFFFFFFFFF AND PUSH20 0xFFFFFFFFFFFFFFFFFFFFFFFFFFFFFFFFFFFFFFFF AND DUP2 MSTORE PUSH1 0x20 ADD SWAP1 DUP2 MSTORE PUSH1 0x20 ADD PUSH1 0x0 KECCAK256 SLOAD LT ISZERO PUSH2 0x529 JUMPI PUSH1 0x40 MLOAD PUSH32 0x8C379A000000000000000000000000000000000000000000000000000000000 DUP2 MSTORE PUSH1 0x4 ADD PUSH2 0x520 SWAP1 PUSH2 0x6DD JUMP JUMPDEST PUSH1 0x40 MLOAD DUP1 SWAP2 SUB SWAP1 REVERT JUMPDEST DUP2 PUSH20 0xFFFFFFFFFFFFFFFFFFFFFFFFFFFFFFFFFFFFFFFF AND PUSH2 0x8FC DUP3 SWAP1 DUP2 ISZERO MUL SWAP1 PUSH1 0x40 MLOAD PUSH1 0x0 PUSH1 0x40 MLOAD DUP1 DUP4 SUB DUP2 DUP6 DUP9 DUP9 CALL SWAP4 POP POP POP POP ISZERO DUP1 ISZERO PUSH2 0x56F JUMPI RETURNDATASIZE PUSH1 0x0 DUP1 RETURNDATACOPY RETURNDATASIZE PUSH1 0x0 REVERT JUMPDEST POP DUP1 PUSH1 0x0 DUP1 CALLER PUSH20 0xFFFFFFFFFFFFFFFFFFFFFFFFFFFFFFFFFFFFFFFF AND PUSH20 0xFFFFFFFFFFFFFFFFFFFFFFFFFFFFFFFFFFFFFFFF AND DUP2 MSTORE PUSH1 0x20 ADD SWAP1 DUP2 MSTORE PUSH1 0x20 ADD PUSH1 0x0 KECCAK256 PUSH1 0x0 DUP3 DUP3 SLOAD PUSH2 0x5BE SWAP2 SWAP1 PUSH2 0x78A JUMP JUMPDEST SWAP3 POP POP DUP2 SWAP1 SSTORE POP POP POP JUMP JUMPDEST PUSH1 0x2 SLOAD DUP2 JUMP JUMPDEST PUSH1 0x0 DUP2 CALLDATALOAD SWAP1 POP PUSH2 0x5DE DUP2 PUSH2 0x835 JUMP JUMPDEST SWAP3 SWAP2 POP POP JUMP JUMPDEST PUSH1 0x0 DUP2 CALLDATALOAD SWAP1 POP PUSH2 0x5F3 DUP2 PUSH2 0x84C JUMP JUMPDEST SWAP3 SWAP2 POP POP JUMP JUMPDEST PUSH1 0x0 DUP1 PUSH1 0x40 DUP4 DUP6 SUB SLT ISZERO PUSH2 0x60C JUMPI PUSH1 0x0 DUP1 REVERT JUMPDEST PUSH1 0x0 PUSH2 0x61A DUP6 DUP3 DUP7 ADD PUSH2 0x5CF JUMP JUMPDEST SWAP3 POP POP PUSH1 0x20 PUSH2 0x62B DUP6 DUP3 DUP7 ADD PUSH2 0x5E4 JUMP JUMPDEST SWAP2 POP POP SWAP3 POP SWAP3 SWAP1 POP JUMP JUMPDEST PUSH2 0x63E DUP2 PUSH2 0x7D0 JUMP JUMPDEST DUP3 MSTORE POP POP JUMP JUMPDEST PUSH1 0x0 PUSH2 0x651 PUSH1 0x15 DUP4 PUSH2 0x723 JUMP JUMPDEST SWAP2 POP PUSH32 0x496E73756666696369656E742062616C616E63652E0000000000000000000000 PUSH1 0x0 DUP4 ADD MSTORE PUSH1 0x20 DUP3 ADD SWAP1 POP SWAP2 SWAP1 POP JUMP JUMPDEST PUSH1 0x0 PUSH2 0x691 PUSH1 0x0 DUP4 PUSH2 0x718 JUMP JUMPDEST SWAP2 POP PUSH1 0x0 DUP3 ADD SWAP1 POP SWAP2 SWAP1 POP JUMP JUMPDEST PUSH2 0x6A7 DUP2 PUSH2 0x7FC JUMP JUMPDEST DUP3 MSTORE POP POP JUMP JUMPDEST PUSH1 0x0 PUSH2 0x6B8 DUP3 PUSH2 0x684 JUMP JUMPDEST SWAP2 POP DUP2 SWAP1 POP SWAP2 SWAP1 POP JUMP JUMPDEST PUSH1 0x0 PUSH1 0x20 DUP3 ADD SWAP1 POP PUSH2 0x6D7 PUSH1 0x0 DUP4 ADD DUP5 PUSH2 0x635 JUMP JUMPDEST SWAP3 SWAP2 POP POP JUMP JUMPDEST PUSH1 0x0 PUSH1 0x20 DUP3 ADD SWAP1 POP DUP2 DUP2 SUB PUSH1 0x0 DUP4 ADD MSTORE PUSH2 0x6F6 DUP2 PUSH2 0x644 JUMP JUMPDEST SWAP1 POP SWAP2 SWAP1 POP JUMP JUMPDEST PUSH1 0x0 PUSH1 0x20 DUP3 ADD SWAP1 POP PUSH2 0x712 PUSH1 0x0 DUP4 ADD DUP5 PUSH2 0x69E JUMP JUMPDEST SWAP3 SWAP2 POP POP JUMP JUMPDEST PUSH1 0x0 DUP2 SWAP1 POP SWAP3 SWAP2 POP POP JUMP JUMPDEST PUSH1 0x0 DUP3 DUP3 MSTORE PUSH1 0x20 DUP3 ADD SWAP1 POP SWAP3 SWAP2 POP POP JUMP JUMPDEST PUSH1 0x0 PUSH2 0x73F DUP3 PUSH2 0x7FC JUMP JUMPDEST SWAP2 POP PUSH2 0x74A DUP4 PUSH2 0x7FC JUMP JUMPDEST SWAP3 POP DUP3 PUSH32 0xFFFFFFFFFFFFFFFFFFFFFFFFFFFFFFFFFFFFFFFFFFFFFFFFFFFFFFFFFFFFFFFF SUB DUP3 GT ISZERO PUSH2 0x77F JUMPI PUSH2 0x77E PUSH2 0x806 JUMP JUMPDEST JUMPDEST DUP3 DUP3 ADD SWAP1 POP SWAP3 SWAP2 POP POP JUMP JUMPDEST PUSH1 0x0 PUSH2 0x795 DUP3 PUSH2 0x7FC JUMP JUMPDEST SWAP2 POP PUSH2 0x7A0 DUP4 PUSH2 0x7FC JUMP JUMPDEST SWAP3 POP DUP3 DUP3 LT ISZERO PUSH2 0x7B3 JUMPI PUSH2 0x7B2 PUSH2 0x806 JUMP JUMPDEST JUMPDEST DUP3 DUP3 SUB SWAP1 POP SWAP3 SWAP2 POP POP JUMP JUMPDEST PUSH1 0x0 PUSH2 0x7C9 DUP3 PUSH2 0x7DC JUMP JUMPDEST SWAP1 POP SWAP2 SWAP1 POP JUMP JUMPDEST PUSH1 0x0 DUP2 ISZERO ISZERO SWAP1 POP SWAP2 SWAP1 POP JUMP JUMPDEST PUSH1 0x0 PUSH20 0xFFFFFFFFFFFFFFFFFFFFFFFFFFFFFFFFFFFFFFFF DUP3 AND SWAP1 POP SWAP2 SWAP1 POP JUMP JUMPDEST PUSH1 0x0 DUP2 SWAP1 POP SWAP2 SWAP1 POP JUMP JUMPDEST PUSH32 0x4E487B7100000000000000000000000000000000000000000000000000000000 PUSH1 0x0 MSTORE PUSH1 0x11 PUSH1 0x4 MSTORE PUSH1 0x24 PUSH1 0x0 REVERT JUMPDEST PUSH2 0x83E DUP2 PUSH2 0x7BE JUMP JUMPDEST DUP2 EQ PUSH2 0x849 JUMPI PUSH1 0x0 DUP1 REVERT JUMPDEST POP JUMP JUMPDEST PUSH2 0x855 DUP2 PUSH2 0x7FC JUMP JUMPDEST DUP2 EQ PUSH2 0x860 JUMPI PUSH1 0x0 DUP1 REVERT JUMPDEST POP JUMP INVALID LOG2 PUSH5 0x6970667358 0x22 SLT KECCAK256 0xAF DUP6 0xAC 0x4F 0xA7 PUSH26 0x63A448EB4849E930CE47D235AE1FE3861003BAC7A16E2F17E378 PUSH5 0x736F6C6343 STOP ADDMOD STOP STOP CALLER "
				},
				"gasEstimates": {
					"creation": {
						"codeDepositCost": "440200",
						"executionCost": "10486",
						"totalCost": "450686"
					},
					"external": {
						"": "infinite",
						"fallbackCount()": "1195",
						"receiveCount()": "1152",
						"sendEtherToContract()": "20223",
						"showBalance()": "1271",
						"withdraw(address,uint256)": "infinite",
						"withdraw2(address,uint256)": "infinite",
						"withdraw3(address,uint256)": "infinite",
						"withdraw4(address,uint256)": "infinite"
					}
				},
				"methodIdentifiers": {
					"fallbackCount()": "f776bd06",
					"receiveCount()": "7ba85592",
					"sendEtherToContract()": "325ec768",
					"showBalance()": "81b2d07b",
					"withdraw(address,uint256)": "f3fef3a3",
					"withdraw2(address,uint256)": "db13b24f",
					"withdraw3(address,uint256)": "8fd8927e",
					"withdraw4(address,uint256)": "f25a3738"
				}
			},
			"storageLayout": {
				"storage": [
					{
						"astId": 5,
						"contract": "contracts/Transfer.sol:Bank",
						"label": "balances",
						"offset": 0,
						"slot": "0",
						"type": "t_mapping(t_address,t_uint256)"
					},
					{
						"astId": 137,
						"contract": "contracts/Transfer.sol:Bank",
						"label": "receiveCount",
						"offset": 0,
						"slot": "1",
						"type": "t_uint256"
					},
					{
						"astId": 140,
						"contract": "contracts/Transfer.sol:Bank",
						"label": "fallbackCount",
						"offset": 0,
						"slot": "2",
						"type": "t_uint256"
					}
				],
				"types": {
					"t_address": {
						"encoding": "inplace",
						"label": "address",
						"numberOfBytes": "20"
					},
					"t_mapping(t_address,t_uint256)": {
						"encoding": "mapping",
						"key": "t_address",
						"label": "mapping(address => uint256)",
						"numberOfBytes": "32",
						"value": "t_uint256"
					},
					"t_uint256": {
						"encoding": "inplace",
						"label": "uint256",
						"numberOfBytes": "32"
					}
				}
			},
			"userdoc": {
				"kind": "user",
				"methods": {},
				"version": 1
			}
		}
	}
}