{
	"contracts/Functions.sol": {
		"Functions": {
			"abi": [
				{
					"inputs": [
						{
							"internalType": "uint256",
							"name": "a",
							"type": "uint256"
						},
						{
							"internalType": "uint256",
							"name": "b",
							"type": "uint256"
						}
					],
					"name": "add",
					"outputs": [
						{
							"internalType": "uint256",
							"name": "",
							"type": "uint256"
						}
					],
					"stateMutability": "view",
					"type": "function"
				},
				{
					"inputs": [
						{
							"internalType": "uint256",
							"name": "a",
							"type": "uint256"
						},
						{
							"internalType": "uint256",
							"name": "b",
							"type": "uint256"
						}
					],
					"name": "add2",
					"outputs": [
						{
							"internalType": "uint256",
							"name": "",
							"type": "uint256"
						}
					],
					"stateMutability": "pure",
					"type": "function"
				},
				{
					"inputs": [
						{
							"internalType": "uint256",
							"name": "a",
							"type": "uint256"
						},
						{
							"internalType": "uint256",
							"name": "b",
							"type": "uint256"
						}
					],
					"name": "addButCallAnotherFunction",
					"outputs": [
						{
							"internalType": "uint256",
							"name": "",
							"type": "uint256"
						}
					],
					"stateMutability": "pure",
					"type": "function"
				},
				{
					"inputs": [],
					"name": "callInternalKeyword",
					"outputs": [
						{
							"internalType": "string",
							"name": "",
							"type": "string"
						}
					],
					"stateMutability": "pure",
					"type": "function"
				},
				{
					"inputs": [],
					"name": "callPrivateKeyword",
					"outputs": [
						{
							"internalType": "string",
							"name": "",
							"type": "string"
						}
					],
					"stateMutability": "pure",
					"type": "function"
				},
				{
					"inputs": [],
					"name": "callPublicKeyword",
					"outputs": [
						{
							"internalType": "string",
							"name": "",
							"type": "string"
						}
					],
					"stateMutability": "pure",
					"type": "function"
				},
				{
					"inputs": [],
					"name": "externalKeyword",
					"outputs": [
						{
							"internalType": "string",
							"name": "",
							"type": "string"
						}
					],
					"stateMutability": "pure",
					"type": "function"
				},
				{
					"inputs": [],
					"name": "luckyNumber2",
					"outputs": [
						{
							"internalType": "uint256",
							"name": "",
							"type": "uint256"
						}
					],
					"stateMutability": "view",
					"type": "function"
				},
				{
					"inputs": [],
					"name": "n",
					"outputs": [
						{
							"internalType": "uint256",
							"name": "",
							"type": "uint256"
						}
					],
					"stateMutability": "view",
					"type": "function"
				},
				{
					"inputs": [],
					"name": "nothing",
					"outputs": [
						{
							"internalType": "uint256",
							"name": "",
							"type": "uint256"
						},
						{
							"internalType": "bool",
							"name": "",
							"type": "bool"
						},
						{
							"internalType": "bool",
							"name": "",
							"type": "bool"
						}
					],
					"stateMutability": "pure",
					"type": "function"
				},
				{
					"inputs": [],
					"name": "nothing2",
					"outputs": [
						{
							"internalType": "uint256",
							"name": "x",
							"type": "uint256"
						},
						{
							"internalType": "bool",
							"name": "y",
							"type": "bool"
						},
						{
							"internalType": "bool",
							"name": "z",
							"type": "bool"
						}
					],
					"stateMutability": "pure",
					"type": "function"
				},
				{
					"inputs": [],
					"name": "publicKeyword",
					"outputs": [
						{
							"internalType": "string",
							"name": "",
							"type": "string"
						}
					],
					"stateMutability": "pure",
					"type": "function"
				},
				{
					"inputs": [
						{
							"internalType": "uint256",
							"name": "newLuckyNumber",
							"type": "uint256"
						}
					],
					"name": "setLuckyNumber",
					"outputs": [],
					"stateMutability": "nonpayable",
					"type": "function"
				},
				{
					"inputs": [
						{
							"internalType": "uint256",
							"name": "newN",
							"type": "uint256"
						}
					],
					"name": "setN",
					"outputs": [],
					"stateMutability": "nonpayable",
					"type": "function"
				},
				{
					"inputs": [
						{
							"internalType": "uint256",
							"name": "number",
							"type": "uint256"
						}
					],
					"name": "showAddToM",
					"outputs": [
						{
							"internalType": "uint256",
							"name": "",
							"type": "uint256"
						}
					],
					"stateMutability": "view",
					"type": "function"
				},
				{
					"inputs": [],
					"name": "showLuckyNumber",
					"outputs": [
						{
							"internalType": "uint256",
							"name": "",
							"type": "uint256"
						}
					],
					"stateMutability": "view",
					"type": "function"
				},
				{
					"inputs": [],
					"name": "showM",
					"outputs": [
						{
							"internalType": "uint256",
							"name": "",
							"type": "uint256"
						}
					],
					"stateMutability": "view",
					"type": "function"
				}
			],
			"devdoc": {
				"kind": "dev",
				"methods": {},
				"version": 1
			},
			"evm": {
				"assembly": "    /* \"contracts/Functions.sol\":65:2565  contract Functions {\r... */\n  mstore(0x40, 0x80)\n    /* \"contracts/Functions.sol\":113:114  7 */\n  0x07\n    /* \"contracts/Functions.sol\":93:114  uint  luckyNumber = 7 */\n  0x00\n  sstore\n    /* \"contracts/Functions.sol\":249:250  8 */\n  0x08\n    /* \"contracts/Functions.sol\":222:250  uint public luckyNumber2 = 8 */\n  0x01\n  sstore\n    /* \"contracts/Functions.sol\":621:622  3 */\n  0x03\n    /* \"contracts/Functions.sol\":605:622  uint public n = 3 */\n  0x02\n  sstore\n    /* \"contracts/Functions.sol\":707:708  4 */\n  0x04\n    /* \"contracts/Functions.sol\":698:708  uint m = 4 */\n  0x03\n  sstore\n    /* \"contracts/Functions.sol\":65:2565  contract Functions {\r... */\n  callvalue\n  dup1\n  iszero\n  tag_1\n  jumpi\n  0x00\n  dup1\n  revert\ntag_1:\n  pop\n  dataSize(sub_0)\n  dup1\n  dataOffset(sub_0)\n  0x00\n  codecopy\n  0x00\n  return\nstop\n\nsub_0: assembly {\n        /* \"contracts/Functions.sol\":65:2565  contract Functions {\r... */\n      mstore(0x40, 0x80)\n      callvalue\n      dup1\n      iszero\n      tag_1\n      jumpi\n      0x00\n      dup1\n      revert\n    tag_1:\n      pop\n      jumpi(tag_2, lt(calldatasize, 0x04))\n      shr(0xe0, calldataload(0x00))\n      dup1\n      0x448f30a3\n      gt\n      tag_20\n      jumpi\n      dup1\n      0x6c45a79c\n      gt\n      tag_21\n      jumpi\n      dup1\n      0x6c45a79c\n      eq\n      tag_15\n      jumpi\n      dup1\n      0x6f034cd9\n      eq\n      tag_16\n      jumpi\n      dup1\n      0x771602f7\n      eq\n      tag_17\n      jumpi\n      dup1\n      0x79697ecc\n      eq\n      tag_18\n      jumpi\n      dup1\n      0xb2dcf57c\n      eq\n      tag_19\n      jumpi\n      jump(tag_2)\n    tag_21:\n      dup1\n      0x448f30a3\n      eq\n      tag_11\n      jumpi\n      dup1\n      0x4f293734\n      eq\n      tag_12\n      jumpi\n      dup1\n      0x513e18ce\n      eq\n      tag_13\n      jumpi\n      dup1\n      0x56a32be9\n      eq\n      tag_14\n      jumpi\n      jump(tag_2)\n    tag_20:\n      dup1\n      0x29fcda33\n      gt\n      tag_22\n      jumpi\n      dup1\n      0x29fcda33\n      eq\n      tag_7\n      jumpi\n      dup1\n      0x2e52d606\n      eq\n      tag_8\n      jumpi\n      dup1\n      0x3f7a0270\n      eq\n      tag_9\n      jumpi\n      dup1\n      0x40133a10\n      eq\n      tag_10\n      jumpi\n      jump(tag_2)\n    tag_22:\n      dup1\n      0x0104590e\n      eq\n      tag_3\n      jumpi\n      dup1\n      0x0af0fe6e\n      eq\n      tag_4\n      jumpi\n      dup1\n      0x148bc9e2\n      eq\n      tag_5\n      jumpi\n      dup1\n      0x20d6e703\n      eq\n      tag_6\n      jumpi\n    tag_2:\n      0x00\n      dup1\n      revert\n        /* \"contracts/Functions.sol\":2442:2562  function externalKeyword() external  pure returns (string memory) {\r... */\n    tag_3:\n      tag_23\n      tag_24\n      jump\t// in\n    tag_23:\n      mload(0x40)\n      tag_25\n      swap2\n      swap1\n      tag_26\n      jump\t// in\n    tag_25:\n      mload(0x40)\n      dup1\n      swap2\n      sub\n      swap1\n      return\n        /* \"contracts/Functions.sol\":794:888  function showAddToM(uint number) public view returns(uint){\r... */\n    tag_4:\n      tag_27\n      0x04\n      dup1\n      calldatasize\n      sub\n      dup2\n      add\n      swap1\n      tag_28\n      swap2\n      swap1\n      tag_29\n      jump\t// in\n    tag_28:\n      tag_30\n      jump\t// in\n    tag_27:\n      mload(0x40)\n      tag_31\n      swap2\n      swap1\n      tag_32\n      jump\t// in\n    tag_31:\n      mload(0x40)\n      dup1\n      swap2\n      sub\n      swap1\n      return\n        /* \"contracts/Functions.sol\":1849:1953  function callPublicKeyword() public pure returns(string memory){\r... */\n    tag_5:\n      tag_33\n      tag_34\n      jump\t// in\n    tag_33:\n      mload(0x40)\n      tag_35\n      swap2\n      swap1\n      tag_26\n      jump\t// in\n    tag_35:\n      mload(0x40)\n      dup1\n      swap2\n      sub\n      swap1\n      return\n        /* \"contracts/Functions.sol\":2325:2434  function callInternalKeyword() public pure returns(string memory) {\r... */\n    tag_6:\n      tag_36\n      tag_37\n      jump\t// in\n    tag_36:\n      mload(0x40)\n      tag_38\n      swap2\n      swap1\n      tag_26\n      jump\t// in\n    tag_38:\n      mload(0x40)\n      dup1\n      swap2\n      sub\n      swap1\n      return\n        /* \"contracts/Functions.sol\":1007:1093  function add2(uint a, uint b) public pure returns(uint){\r... */\n    tag_7:\n      tag_39\n      0x04\n      dup1\n      calldatasize\n      sub\n      dup2\n      add\n      swap1\n      tag_40\n      swap2\n      swap1\n      tag_41\n      jump\t// in\n    tag_40:\n      tag_42\n      jump\t// in\n    tag_39:\n      mload(0x40)\n      tag_43\n      swap2\n      swap1\n      tag_32\n      jump\t// in\n    tag_43:\n      mload(0x40)\n      dup1\n      swap2\n      sub\n      swap1\n      return\n        /* \"contracts/Functions.sol\":605:622  uint public n = 3 */\n    tag_8:\n      tag_44\n      tag_45\n      jump\t// in\n    tag_44:\n      mload(0x40)\n      tag_46\n      swap2\n      swap1\n      tag_32\n      jump\t// in\n    tag_46:\n      mload(0x40)\n      dup1\n      swap2\n      sub\n      swap1\n      return\n        /* \"contracts/Functions.sol\":631:690  function setN(uint newN) public {\r... */\n    tag_9:\n      tag_47\n      0x04\n      dup1\n      calldatasize\n      sub\n      dup2\n      add\n      swap1\n      tag_48\n      swap2\n      swap1\n      tag_29\n      jump\t// in\n    tag_48:\n      tag_49\n      jump\t// in\n    tag_47:\n      stop\n        /* \"contracts/Functions.sol\":123:214  function showLuckyNumber () public view returns(uint) {\r... */\n    tag_10:\n      tag_50\n      tag_51\n      jump\t// in\n    tag_50:\n      mload(0x40)\n      tag_52\n      swap2\n      swap1\n      tag_32\n      jump\t// in\n    tag_52:\n      mload(0x40)\n      dup1\n      swap2\n      sub\n      swap1\n      return\n        /* \"contracts/Functions.sol\":366:465  function nothing() public pure returns(uint, bool, bool) {\r... */\n    tag_11:\n      tag_53\n      tag_54\n      jump\t// in\n    tag_53:\n      mload(0x40)\n      tag_55\n      swap4\n      swap3\n      swap2\n      swap1\n      tag_56\n      jump\t// in\n    tag_55:\n      mload(0x40)\n      dup1\n      swap2\n      sub\n      swap1\n      return\n        /* \"contracts/Functions.sol\":259:358  function setLuckyNumber(uint newLuckyNumber) public {\r... */\n    tag_12:\n      tag_57\n      0x04\n      dup1\n      calldatasize\n      sub\n      dup2\n      add\n      swap1\n      tag_58\n      swap2\n      swap1\n      tag_29\n      jump\t// in\n    tag_58:\n      tag_59\n      jump\t// in\n    tag_57:\n      stop\n        /* \"contracts/Functions.sol\":2084:2191  function callPrivateKeyword() public pure returns(string memory) {\r... */\n    tag_13:\n      tag_60\n      tag_61\n      jump\t// in\n    tag_60:\n      mload(0x40)\n      tag_62\n      swap2\n      swap1\n      tag_26\n      jump\t// in\n    tag_62:\n      mload(0x40)\n      dup1\n      swap2\n      sub\n      swap1\n      return\n        /* \"contracts/Functions.sol\":222:250  uint public luckyNumber2 = 8 */\n    tag_14:\n      tag_63\n      tag_64\n      jump\t// in\n    tag_63:\n      mload(0x40)\n      tag_65\n      swap2\n      swap1\n      tag_32\n      jump\t// in\n    tag_65:\n      mload(0x40)\n      dup1\n      swap2\n      sub\n      swap1\n      return\n        /* \"contracts/Functions.sol\":473:597  function nothing2() public pure returns(uint x, bool y, bool z) {\r... */\n    tag_15:\n      tag_66\n      tag_67\n      jump\t// in\n    tag_66:\n      mload(0x40)\n      tag_68\n      swap4\n      swap3\n      swap2\n      swap1\n      tag_56\n      jump\t// in\n    tag_68:\n      mload(0x40)\n      dup1\n      swap2\n      sub\n      swap1\n      return\n        /* \"contracts/Functions.sol\":717:786  function showM() public view returns(uint){\r... */\n    tag_16:\n      tag_69\n      tag_70\n      jump\t// in\n    tag_69:\n      mload(0x40)\n      tag_71\n      swap2\n      swap1\n      tag_32\n      jump\t// in\n    tag_71:\n      mload(0x40)\n      dup1\n      swap2\n      sub\n      swap1\n      return\n        /* \"contracts/Functions.sol\":896:999  function add(uint a, uint b) public view returns(uint){\r... */\n    tag_17:\n      tag_72\n      0x04\n      dup1\n      calldatasize\n      sub\n      dup2\n      add\n      swap1\n      tag_73\n      swap2\n      swap1\n      tag_41\n      jump\t// in\n    tag_73:\n      tag_74\n      jump\t// in\n    tag_72:\n      mload(0x40)\n      tag_75\n      swap2\n      swap1\n      tag_32\n      jump\t// in\n    tag_75:\n      mload(0x40)\n      dup1\n      swap2\n      sub\n      swap1\n      return\n        /* \"contracts/Functions.sol\":1729:1841  function publicKeyword() public pure returns(string memory) {\r... */\n    tag_18:\n      tag_76\n      tag_77\n      jump\t// in\n    tag_76:\n      mload(0x40)\n      tag_78\n      swap2\n      swap1\n      tag_26\n      jump\t// in\n    tag_78:\n      mload(0x40)\n      dup1\n      swap2\n      sub\n      swap1\n      return\n        /* \"contracts/Functions.sol\":1608:1721  function addButCallAnotherFunction(uint a, uint b) public pure  returns(uint){\r... */\n    tag_19:\n      tag_79\n      0x04\n      dup1\n      calldatasize\n      sub\n      dup2\n      add\n      swap1\n      tag_80\n      swap2\n      swap1\n      tag_41\n      jump\t// in\n    tag_80:\n      tag_81\n      jump\t// in\n    tag_79:\n      mload(0x40)\n      tag_82\n      swap2\n      swap1\n      tag_32\n      jump\t// in\n    tag_82:\n      mload(0x40)\n      dup1\n      swap2\n      sub\n      swap1\n      return\n        /* \"contracts/Functions.sol\":2442:2562  function externalKeyword() external  pure returns (string memory) {\r... */\n    tag_24:\n        /* \"contracts/Functions.sol\":2493:2506  string memory */\n      0x60\n        /* \"contracts/Functions.sol\":2519:2554  return \"It is a external function.\" */\n      mload(0x40)\n      dup1\n      0x40\n      add\n      0x40\n      mstore\n      dup1\n      0x1a\n      dup2\n      mstore\n      0x20\n      add\n      0x497420697320612065787465726e616c2066756e6374696f6e2e000000000000\n      dup2\n      mstore\n      pop\n      swap1\n      pop\n        /* \"contracts/Functions.sol\":2442:2562  function externalKeyword() external  pure returns (string memory) {\r... */\n      swap1\n      jump\t// out\n        /* \"contracts/Functions.sol\":794:888  function showAddToM(uint number) public view returns(uint){\r... */\n    tag_30:\n        /* \"contracts/Functions.sol\":847:851  uint */\n      0x00\n        /* \"contracts/Functions.sol\":874:880  number */\n      dup2\n        /* \"contracts/Functions.sol\":870:871  m */\n      sload(0x03)\n        /* \"contracts/Functions.sol\":870:880  m + number */\n      tag_85\n      swap2\n      swap1\n      tag_86\n      jump\t// in\n    tag_85:\n        /* \"contracts/Functions.sol\":863:880  return m + number */\n      swap1\n      pop\n        /* \"contracts/Functions.sol\":794:888  function showAddToM(uint number) public view returns(uint){\r... */\n      swap2\n      swap1\n      pop\n      jump\t// out\n        /* \"contracts/Functions.sol\":1849:1953  function callPublicKeyword() public pure returns(string memory){\r... */\n    tag_34:\n        /* \"contracts/Functions.sol\":1898:1911  string memory */\n      0x60\n        /* \"contracts/Functions.sol\":1930:1945  publicKeyword() */\n      tag_88\n        /* \"contracts/Functions.sol\":1930:1943  publicKeyword */\n      tag_77\n        /* \"contracts/Functions.sol\":1930:1945  publicKeyword() */\n      jump\t// in\n    tag_88:\n        /* \"contracts/Functions.sol\":1923:1945  return publicKeyword() */\n      swap1\n      pop\n        /* \"contracts/Functions.sol\":1849:1953  function callPublicKeyword() public pure returns(string memory){\r... */\n      swap1\n      jump\t// out\n        /* \"contracts/Functions.sol\":2325:2434  function callInternalKeyword() public pure returns(string memory) {\r... */\n    tag_37:\n        /* \"contracts/Functions.sol\":2376:2389  string memory */\n      0x60\n        /* \"contracts/Functions.sol\":2409:2426  internalKeyword() */\n      tag_90\n        /* \"contracts/Functions.sol\":2409:2424  internalKeyword */\n      tag_91\n        /* \"contracts/Functions.sol\":2409:2426  internalKeyword() */\n      jump\t// in\n    tag_90:\n        /* \"contracts/Functions.sol\":2402:2426  return internalKeyword() */\n      swap1\n      pop\n        /* \"contracts/Functions.sol\":2325:2434  function callInternalKeyword() public pure returns(string memory) {\r... */\n      swap1\n      jump\t// out\n        /* \"contracts/Functions.sol\":1007:1093  function add2(uint a, uint b) public pure returns(uint){\r... */\n    tag_42:\n        /* \"contracts/Functions.sol\":1057:1061  uint */\n      0x00\n        /* \"contracts/Functions.sol\":1084:1085  b */\n      dup2\n        /* \"contracts/Functions.sol\":1080:1081  a */\n      dup4\n        /* \"contracts/Functions.sol\":1080:1085  a + b */\n      tag_93\n      swap2\n      swap1\n      tag_86\n      jump\t// in\n    tag_93:\n        /* \"contracts/Functions.sol\":1073:1085  return a + b */\n      swap1\n      pop\n        /* \"contracts/Functions.sol\":1007:1093  function add2(uint a, uint b) public pure returns(uint){\r... */\n      swap3\n      swap2\n      pop\n      pop\n      jump\t// out\n        /* \"contracts/Functions.sol\":605:622  uint public n = 3 */\n    tag_45:\n      sload(0x02)\n      dup2\n      jump\t// out\n        /* \"contracts/Functions.sol\":631:690  function setN(uint newN) public {\r... */\n    tag_49:\n        /* \"contracts/Functions.sol\":678:682  newN */\n      dup1\n        /* \"contracts/Functions.sol\":674:675  n */\n      0x02\n        /* \"contracts/Functions.sol\":674:682  n = newN */\n      dup2\n      swap1\n      sstore\n      pop\n        /* \"contracts/Functions.sol\":631:690  function setN(uint newN) public {\r... */\n      pop\n      jump\t// out\n        /* \"contracts/Functions.sol\":123:214  function showLuckyNumber () public view returns(uint) {\r... */\n    tag_51:\n        /* \"contracts/Functions.sol\":171:175  uint */\n      0x00\n        /* \"contracts/Functions.sol\":195:206  luckyNumber */\n      dup1\n      sload\n        /* \"contracts/Functions.sol\":188:206  return luckyNumber */\n      swap1\n      pop\n        /* \"contracts/Functions.sol\":123:214  function showLuckyNumber () public view returns(uint) {\r... */\n      swap1\n      jump\t// out\n        /* \"contracts/Functions.sol\":366:465  function nothing() public pure returns(uint, bool, bool) {\r... */\n    tag_54:\n        /* \"contracts/Functions.sol\":405:409  uint */\n      0x00\n        /* \"contracts/Functions.sol\":411:415  bool */\n      dup1\n        /* \"contracts/Functions.sol\":417:421  bool */\n      0x00\n        /* \"contracts/Functions.sol\":442:443  5 */\n      0x05\n        /* \"contracts/Functions.sol\":445:449  true */\n      0x01\n        /* \"contracts/Functions.sol\":451:456  false */\n      0x00\n        /* \"contracts/Functions.sol\":434:457  return (5, true, false) */\n      swap3\n      pop\n      swap3\n      pop\n      swap3\n      pop\n        /* \"contracts/Functions.sol\":366:465  function nothing() public pure returns(uint, bool, bool) {\r... */\n      swap1\n      swap2\n      swap3\n      jump\t// out\n        /* \"contracts/Functions.sol\":259:358  function setLuckyNumber(uint newLuckyNumber) public {\r... */\n    tag_59:\n        /* \"contracts/Functions.sol\":336:350  newLuckyNumber */\n      dup1\n        /* \"contracts/Functions.sol\":322:333  luckyNumber */\n      0x00\n        /* \"contracts/Functions.sol\":322:350  luckyNumber = newLuckyNumber */\n      dup2\n      swap1\n      sstore\n      pop\n        /* \"contracts/Functions.sol\":259:358  function setLuckyNumber(uint newLuckyNumber) public {\r... */\n      pop\n      jump\t// out\n        /* \"contracts/Functions.sol\":2084:2191  function callPrivateKeyword() public pure returns(string memory) {\r... */\n    tag_61:\n        /* \"contracts/Functions.sol\":2134:2147  string memory */\n      0x60\n        /* \"contracts/Functions.sol\":2167:2183  privateKeyword() */\n      tag_99\n        /* \"contracts/Functions.sol\":2167:2181  privateKeyword */\n      tag_100\n        /* \"contracts/Functions.sol\":2167:2183  privateKeyword() */\n      jump\t// in\n    tag_99:\n        /* \"contracts/Functions.sol\":2160:2183  return privateKeyword() */\n      swap1\n      pop\n        /* \"contracts/Functions.sol\":2084:2191  function callPrivateKeyword() public pure returns(string memory) {\r... */\n      swap1\n      jump\t// out\n        /* \"contracts/Functions.sol\":222:250  uint public luckyNumber2 = 8 */\n    tag_64:\n      sload(0x01)\n      dup2\n      jump\t// out\n        /* \"contracts/Functions.sol\":473:597  function nothing2() public pure returns(uint x, bool y, bool z) {\r... */\n    tag_67:\n        /* \"contracts/Functions.sol\":513:519  uint x */\n      0x00\n        /* \"contracts/Functions.sol\":521:527  bool y */\n      dup1\n        /* \"contracts/Functions.sol\":529:535  bool z */\n      0x00\n        /* \"contracts/Functions.sol\":551:552  6 */\n      0x06\n        /* \"contracts/Functions.sol\":547:552  x = 6 */\n      swap3\n      pop\n        /* \"contracts/Functions.sol\":566:571  false */\n      0x00\n        /* \"contracts/Functions.sol\":562:571  y = false */\n      swap2\n      pop\n        /* \"contracts/Functions.sol\":585:589  true */\n      0x01\n        /* \"contracts/Functions.sol\":581:589  z = true */\n      swap1\n      pop\n        /* \"contracts/Functions.sol\":473:597  function nothing2() public pure returns(uint x, bool y, bool z) {\r... */\n      swap1\n      swap2\n      swap3\n      jump\t// out\n        /* \"contracts/Functions.sol\":717:786  function showM() public view returns(uint){\r... */\n    tag_70:\n        /* \"contracts/Functions.sol\":754:758  uint */\n      0x00\n        /* \"contracts/Functions.sol\":777:778  m */\n      sload(0x03)\n        /* \"contracts/Functions.sol\":770:778  return m */\n      swap1\n      pop\n        /* \"contracts/Functions.sol\":717:786  function showM() public view returns(uint){\r... */\n      swap1\n      jump\t// out\n        /* \"contracts/Functions.sol\":896:999  function add(uint a, uint b) public view returns(uint){\r... */\n    tag_74:\n        /* \"contracts/Functions.sol\":945:949  uint */\n      0x00\n        /* \"contracts/Functions.sol\":976:991  block.timestamp */\n      timestamp\n        /* \"contracts/Functions.sol\":972:973  b */\n      dup3\n        /* \"contracts/Functions.sol\":968:969  a */\n      dup5\n        /* \"contracts/Functions.sol\":968:973  a + b */\n      tag_104\n      swap2\n      swap1\n      tag_86\n      jump\t// in\n    tag_104:\n        /* \"contracts/Functions.sol\":968:991  a + b + block.timestamp */\n      tag_105\n      swap2\n      swap1\n      tag_86\n      jump\t// in\n    tag_105:\n        /* \"contracts/Functions.sol\":961:991  return a + b + block.timestamp */\n      swap1\n      pop\n        /* \"contracts/Functions.sol\":896:999  function add(uint a, uint b) public view returns(uint){\r... */\n      swap3\n      swap2\n      pop\n      pop\n      jump\t// out\n        /* \"contracts/Functions.sol\":1729:1841  function publicKeyword() public pure returns(string memory) {\r... */\n    tag_77:\n        /* \"contracts/Functions.sol\":1774:1787  string memory */\n      0x60\n        /* \"contracts/Functions.sol\":1800:1833  return \"It is a puplic function.\" */\n      mload(0x40)\n      dup1\n      0x40\n      add\n      0x40\n      mstore\n      dup1\n      0x18\n      dup2\n      mstore\n      0x20\n      add\n      0x49742069732061207075706c69632066756e6374696f6e2e0000000000000000\n      dup2\n      mstore\n      pop\n      swap1\n      pop\n        /* \"contracts/Functions.sol\":1729:1841  function publicKeyword() public pure returns(string memory) {\r... */\n      swap1\n      jump\t// out\n        /* \"contracts/Functions.sol\":1608:1721  function addButCallAnotherFunction(uint a, uint b) public pure  returns(uint){\r... */\n    tag_81:\n        /* \"contracts/Functions.sol\":1680:1684  uint */\n      0x00\n        /* \"contracts/Functions.sol\":1704:1713  add2(a,b) */\n      tag_108\n        /* \"contracts/Functions.sol\":1709:1710  a */\n      dup4\n        /* \"contracts/Functions.sol\":1711:1712  b */\n      dup4\n        /* \"contracts/Functions.sol\":1704:1708  add2 */\n      tag_42\n        /* \"contracts/Functions.sol\":1704:1713  add2(a,b) */\n      jump\t// in\n    tag_108:\n        /* \"contracts/Functions.sol\":1696:1713  return  add2(a,b) */\n      swap1\n      pop\n        /* \"contracts/Functions.sol\":1608:1721  function addButCallAnotherFunction(uint a, uint b) public pure  returns(uint){\r... */\n      swap3\n      swap2\n      pop\n      pop\n      jump\t// out\n        /* \"contracts/Functions.sol\":2199:2317  function internalKeyword() internal pure returns(string memory) {\r... */\n    tag_91:\n        /* \"contracts/Functions.sol\":2248:2261  string memory */\n      0x60\n        /* \"contracts/Functions.sol\":2274:2309  return \"It is a internal function.\" */\n      mload(0x40)\n      dup1\n      0x40\n      add\n      0x40\n      mstore\n      dup1\n      0x1a\n      dup2\n      mstore\n      0x20\n      add\n      0x4974206973206120696e7465726e616c2066756e6374696f6e2e000000000000\n      dup2\n      mstore\n      pop\n      swap1\n      pop\n        /* \"contracts/Functions.sol\":2199:2317  function internalKeyword() internal pure returns(string memory) {\r... */\n      swap1\n      jump\t// out\n        /* \"contracts/Functions.sol\":1961:2076  function privateKeyword() private pure returns(string memory) {\r... */\n    tag_100:\n        /* \"contracts/Functions.sol\":2008:2021  string memory */\n      0x60\n        /* \"contracts/Functions.sol\":2034:2068  return \"It is a private function.\" */\n      mload(0x40)\n      dup1\n      0x40\n      add\n      0x40\n      mstore\n      dup1\n      0x19\n      dup2\n      mstore\n      0x20\n      add\n      0x4974206973206120707269766174652066756e6374696f6e2e00000000000000\n      dup2\n      mstore\n      pop\n      swap1\n      pop\n        /* \"contracts/Functions.sol\":1961:2076  function privateKeyword() private pure returns(string memory) {\r... */\n      swap1\n      jump\t// out\n        /* \"#utility.yul\":7:146   */\n    tag_112:\n      0x00\n        /* \"#utility.yul\":91:97   */\n      dup2\n        /* \"#utility.yul\":78:98   */\n      calldataload\n        /* \"#utility.yul\":69:98   */\n      swap1\n      pop\n        /* \"#utility.yul\":107:140   */\n      tag_114\n        /* \"#utility.yul\":134:139   */\n      dup2\n        /* \"#utility.yul\":107:140   */\n      tag_115\n      jump\t// in\n    tag_114:\n        /* \"#utility.yul\":59:146   */\n      swap3\n      swap2\n      pop\n      pop\n      jump\t// out\n        /* \"#utility.yul\":152:414   */\n    tag_29:\n      0x00\n        /* \"#utility.yul\":260:262   */\n      0x20\n        /* \"#utility.yul\":248:257   */\n      dup3\n        /* \"#utility.yul\":239:246   */\n      dup5\n        /* \"#utility.yul\":235:258   */\n      sub\n        /* \"#utility.yul\":231:263   */\n      slt\n        /* \"#utility.yul\":228:230   */\n      iszero\n      tag_117\n      jumpi\n        /* \"#utility.yul\":276:277   */\n      0x00\n        /* \"#utility.yul\":273:274   */\n      dup1\n        /* \"#utility.yul\":266:278   */\n      revert\n        /* \"#utility.yul\":228:230   */\n    tag_117:\n        /* \"#utility.yul\":319:320   */\n      0x00\n        /* \"#utility.yul\":344:397   */\n      tag_118\n        /* \"#utility.yul\":389:396   */\n      dup5\n        /* \"#utility.yul\":380:386   */\n      dup3\n        /* \"#utility.yul\":369:378   */\n      dup6\n        /* \"#utility.yul\":365:387   */\n      add\n        /* \"#utility.yul\":344:397   */\n      tag_112\n      jump\t// in\n    tag_118:\n        /* \"#utility.yul\":334:397   */\n      swap2\n      pop\n        /* \"#utility.yul\":290:407   */\n      pop\n        /* \"#utility.yul\":218:414   */\n      swap3\n      swap2\n      pop\n      pop\n      jump\t// out\n        /* \"#utility.yul\":420:827   */\n    tag_41:\n      0x00\n      dup1\n        /* \"#utility.yul\":545:547   */\n      0x40\n        /* \"#utility.yul\":533:542   */\n      dup4\n        /* \"#utility.yul\":524:531   */\n      dup6\n        /* \"#utility.yul\":520:543   */\n      sub\n        /* \"#utility.yul\":516:548   */\n      slt\n        /* \"#utility.yul\":513:515   */\n      iszero\n      tag_120\n      jumpi\n        /* \"#utility.yul\":561:562   */\n      0x00\n        /* \"#utility.yul\":558:559   */\n      dup1\n        /* \"#utility.yul\":551:563   */\n      revert\n        /* \"#utility.yul\":513:515   */\n    tag_120:\n        /* \"#utility.yul\":604:605   */\n      0x00\n        /* \"#utility.yul\":629:682   */\n      tag_121\n        /* \"#utility.yul\":674:681   */\n      dup6\n        /* \"#utility.yul\":665:671   */\n      dup3\n        /* \"#utility.yul\":654:663   */\n      dup7\n        /* \"#utility.yul\":650:672   */\n      add\n        /* \"#utility.yul\":629:682   */\n      tag_112\n      jump\t// in\n    tag_121:\n        /* \"#utility.yul\":619:682   */\n      swap3\n      pop\n        /* \"#utility.yul\":575:692   */\n      pop\n        /* \"#utility.yul\":731:733   */\n      0x20\n        /* \"#utility.yul\":757:810   */\n      tag_122\n        /* \"#utility.yul\":802:809   */\n      dup6\n        /* \"#utility.yul\":793:799   */\n      dup3\n        /* \"#utility.yul\":782:791   */\n      dup7\n        /* \"#utility.yul\":778:800   */\n      add\n        /* \"#utility.yul\":757:810   */\n      tag_112\n      jump\t// in\n    tag_122:\n        /* \"#utility.yul\":747:810   */\n      swap2\n      pop\n        /* \"#utility.yul\":702:820   */\n      pop\n        /* \"#utility.yul\":503:827   */\n      swap3\n      pop\n      swap3\n      swap1\n      pop\n      jump\t// out\n        /* \"#utility.yul\":833:942   */\n    tag_123:\n        /* \"#utility.yul\":914:935   */\n      tag_125\n        /* \"#utility.yul\":929:934   */\n      dup2\n        /* \"#utility.yul\":914:935   */\n      tag_126\n      jump\t// in\n    tag_125:\n        /* \"#utility.yul\":909:912   */\n      dup3\n        /* \"#utility.yul\":902:936   */\n      mstore\n        /* \"#utility.yul\":892:942   */\n      pop\n      pop\n      jump\t// out\n        /* \"#utility.yul\":948:1312   */\n    tag_127:\n      0x00\n        /* \"#utility.yul\":1064:1103   */\n      tag_129\n        /* \"#utility.yul\":1097:1102   */\n      dup3\n        /* \"#utility.yul\":1064:1103   */\n      tag_130\n      jump\t// in\n    tag_129:\n        /* \"#utility.yul\":1119:1190   */\n      tag_131\n        /* \"#utility.yul\":1183:1189   */\n      dup2\n        /* \"#utility.yul\":1178:1181   */\n      dup6\n        /* \"#utility.yul\":1119:1190   */\n      tag_132\n      jump\t// in\n    tag_131:\n        /* \"#utility.yul\":1112:1190   */\n      swap4\n      pop\n        /* \"#utility.yul\":1199:1251   */\n      tag_133\n        /* \"#utility.yul\":1244:1250   */\n      dup2\n        /* \"#utility.yul\":1239:1242   */\n      dup6\n        /* \"#utility.yul\":1232:1236   */\n      0x20\n        /* \"#utility.yul\":1225:1230   */\n      dup7\n        /* \"#utility.yul\":1221:1237   */\n      add\n        /* \"#utility.yul\":1199:1251   */\n      tag_134\n      jump\t// in\n    tag_133:\n        /* \"#utility.yul\":1276:1305   */\n      tag_135\n        /* \"#utility.yul\":1298:1304   */\n      dup2\n        /* \"#utility.yul\":1276:1305   */\n      tag_136\n      jump\t// in\n    tag_135:\n        /* \"#utility.yul\":1271:1274   */\n      dup5\n        /* \"#utility.yul\":1267:1306   */\n      add\n        /* \"#utility.yul\":1260:1306   */\n      swap2\n      pop\n        /* \"#utility.yul\":1040:1312   */\n      pop\n      swap3\n      swap2\n      pop\n      pop\n      jump\t// out\n        /* \"#utility.yul\":1318:1436   */\n    tag_137:\n        /* \"#utility.yul\":1405:1429   */\n      tag_139\n        /* \"#utility.yul\":1423:1428   */\n      dup2\n        /* \"#utility.yul\":1405:1429   */\n      tag_140\n      jump\t// in\n    tag_139:\n        /* \"#utility.yul\":1400:1403   */\n      dup3\n        /* \"#utility.yul\":1393:1430   */\n      mstore\n        /* \"#utility.yul\":1383:1436   */\n      pop\n      pop\n      jump\t// out\n        /* \"#utility.yul\":1442:1755   */\n    tag_26:\n      0x00\n        /* \"#utility.yul\":1593:1595   */\n      0x20\n        /* \"#utility.yul\":1582:1591   */\n      dup3\n        /* \"#utility.yul\":1578:1596   */\n      add\n        /* \"#utility.yul\":1570:1596   */\n      swap1\n      pop\n        /* \"#utility.yul\":1642:1651   */\n      dup2\n        /* \"#utility.yul\":1636:1640   */\n      dup2\n        /* \"#utility.yul\":1632:1652   */\n      sub\n        /* \"#utility.yul\":1628:1629   */\n      0x00\n        /* \"#utility.yul\":1617:1626   */\n      dup4\n        /* \"#utility.yul\":1613:1630   */\n      add\n        /* \"#utility.yul\":1606:1653   */\n      mstore\n        /* \"#utility.yul\":1670:1748   */\n      tag_142\n        /* \"#utility.yul\":1743:1747   */\n      dup2\n        /* \"#utility.yul\":1734:1740   */\n      dup5\n        /* \"#utility.yul\":1670:1748   */\n      tag_127\n      jump\t// in\n    tag_142:\n        /* \"#utility.yul\":1662:1748   */\n      swap1\n      pop\n        /* \"#utility.yul\":1560:1755   */\n      swap3\n      swap2\n      pop\n      pop\n      jump\t// out\n        /* \"#utility.yul\":1761:1983   */\n    tag_32:\n      0x00\n        /* \"#utility.yul\":1892:1894   */\n      0x20\n        /* \"#utility.yul\":1881:1890   */\n      dup3\n        /* \"#utility.yul\":1877:1895   */\n      add\n        /* \"#utility.yul\":1869:1895   */\n      swap1\n      pop\n        /* \"#utility.yul\":1905:1976   */\n      tag_144\n        /* \"#utility.yul\":1973:1974   */\n      0x00\n        /* \"#utility.yul\":1962:1971   */\n      dup4\n        /* \"#utility.yul\":1958:1975   */\n      add\n        /* \"#utility.yul\":1949:1955   */\n      dup5\n        /* \"#utility.yul\":1905:1976   */\n      tag_137\n      jump\t// in\n    tag_144:\n        /* \"#utility.yul\":1859:1983   */\n      swap3\n      swap2\n      pop\n      pop\n      jump\t// out\n        /* \"#utility.yul\":1989:2407   */\n    tag_56:\n      0x00\n        /* \"#utility.yul\":2164:2166   */\n      0x60\n        /* \"#utility.yul\":2153:2162   */\n      dup3\n        /* \"#utility.yul\":2149:2167   */\n      add\n        /* \"#utility.yul\":2141:2167   */\n      swap1\n      pop\n        /* \"#utility.yul\":2177:2248   */\n      tag_146\n        /* \"#utility.yul\":2245:2246   */\n      0x00\n        /* \"#utility.yul\":2234:2243   */\n      dup4\n        /* \"#utility.yul\":2230:2247   */\n      add\n        /* \"#utility.yul\":2221:2227   */\n      dup7\n        /* \"#utility.yul\":2177:2248   */\n      tag_137\n      jump\t// in\n    tag_146:\n        /* \"#utility.yul\":2258:2324   */\n      tag_147\n        /* \"#utility.yul\":2320:2322   */\n      0x20\n        /* \"#utility.yul\":2309:2318   */\n      dup4\n        /* \"#utility.yul\":2305:2323   */\n      add\n        /* \"#utility.yul\":2296:2302   */\n      dup6\n        /* \"#utility.yul\":2258:2324   */\n      tag_123\n      jump\t// in\n    tag_147:\n        /* \"#utility.yul\":2334:2400   */\n      tag_148\n        /* \"#utility.yul\":2396:2398   */\n      0x40\n        /* \"#utility.yul\":2385:2394   */\n      dup4\n        /* \"#utility.yul\":2381:2399   */\n      add\n        /* \"#utility.yul\":2372:2378   */\n      dup5\n        /* \"#utility.yul\":2334:2400   */\n      tag_123\n      jump\t// in\n    tag_148:\n        /* \"#utility.yul\":2131:2407   */\n      swap5\n      swap4\n      pop\n      pop\n      pop\n      pop\n      jump\t// out\n        /* \"#utility.yul\":2413:2512   */\n    tag_130:\n      0x00\n        /* \"#utility.yul\":2499:2504   */\n      dup2\n        /* \"#utility.yul\":2493:2505   */\n      mload\n        /* \"#utility.yul\":2483:2505   */\n      swap1\n      pop\n        /* \"#utility.yul\":2472:2512   */\n      swap2\n      swap1\n      pop\n      jump\t// out\n        /* \"#utility.yul\":2518:2687   */\n    tag_132:\n      0x00\n        /* \"#utility.yul\":2636:2642   */\n      dup3\n        /* \"#utility.yul\":2631:2634   */\n      dup3\n        /* \"#utility.yul\":2624:2643   */\n      mstore\n        /* \"#utility.yul\":2676:2680   */\n      0x20\n        /* \"#utility.yul\":2671:2674   */\n      dup3\n        /* \"#utility.yul\":2667:2681   */\n      add\n        /* \"#utility.yul\":2652:2681   */\n      swap1\n      pop\n        /* \"#utility.yul\":2614:2687   */\n      swap3\n      swap2\n      pop\n      pop\n      jump\t// out\n        /* \"#utility.yul\":2693:2998   */\n    tag_86:\n      0x00\n        /* \"#utility.yul\":2752:2772   */\n      tag_152\n        /* \"#utility.yul\":2770:2771   */\n      dup3\n        /* \"#utility.yul\":2752:2772   */\n      tag_140\n      jump\t// in\n    tag_152:\n        /* \"#utility.yul\":2747:2772   */\n      swap2\n      pop\n        /* \"#utility.yul\":2786:2806   */\n      tag_153\n        /* \"#utility.yul\":2804:2805   */\n      dup4\n        /* \"#utility.yul\":2786:2806   */\n      tag_140\n      jump\t// in\n    tag_153:\n        /* \"#utility.yul\":2781:2806   */\n      swap3\n      pop\n        /* \"#utility.yul\":2940:2941   */\n      dup3\n        /* \"#utility.yul\":2872:2938   */\n      0xffffffffffffffffffffffffffffffffffffffffffffffffffffffffffffffff\n        /* \"#utility.yul\":2868:2942   */\n      sub\n        /* \"#utility.yul\":2865:2866   */\n      dup3\n        /* \"#utility.yul\":2862:2943   */\n      gt\n        /* \"#utility.yul\":2859:2861   */\n      iszero\n      tag_154\n      jumpi\n        /* \"#utility.yul\":2946:2964   */\n      tag_155\n      tag_156\n      jump\t// in\n    tag_155:\n        /* \"#utility.yul\":2859:2861   */\n    tag_154:\n        /* \"#utility.yul\":2990:2991   */\n      dup3\n        /* \"#utility.yul\":2987:2988   */\n      dup3\n        /* \"#utility.yul\":2983:2992   */\n      add\n        /* \"#utility.yul\":2976:2992   */\n      swap1\n      pop\n        /* \"#utility.yul\":2737:2998   */\n      swap3\n      swap2\n      pop\n      pop\n      jump\t// out\n        /* \"#utility.yul\":3004:3094   */\n    tag_126:\n      0x00\n        /* \"#utility.yul\":3081:3086   */\n      dup2\n        /* \"#utility.yul\":3074:3087   */\n      iszero\n        /* \"#utility.yul\":3067:3088   */\n      iszero\n        /* \"#utility.yul\":3056:3088   */\n      swap1\n      pop\n        /* \"#utility.yul\":3046:3094   */\n      swap2\n      swap1\n      pop\n      jump\t// out\n        /* \"#utility.yul\":3100:3177   */\n    tag_140:\n      0x00\n        /* \"#utility.yul\":3166:3171   */\n      dup2\n        /* \"#utility.yul\":3155:3171   */\n      swap1\n      pop\n        /* \"#utility.yul\":3145:3177   */\n      swap2\n      swap1\n      pop\n      jump\t// out\n        /* \"#utility.yul\":3183:3490   */\n    tag_134:\n        /* \"#utility.yul\":3251:3252   */\n      0x00\n        /* \"#utility.yul\":3261:3374   */\n    tag_160:\n        /* \"#utility.yul\":3275:3281   */\n      dup4\n        /* \"#utility.yul\":3272:3273   */\n      dup2\n        /* \"#utility.yul\":3269:3282   */\n      lt\n        /* \"#utility.yul\":3261:3374   */\n      iszero\n      tag_162\n      jumpi\n        /* \"#utility.yul\":3360:3361   */\n      dup1\n        /* \"#utility.yul\":3355:3358   */\n      dup3\n        /* \"#utility.yul\":3351:3362   */\n      add\n        /* \"#utility.yul\":3345:3363   */\n      mload\n        /* \"#utility.yul\":3341:3342   */\n      dup2\n        /* \"#utility.yul\":3336:3339   */\n      dup5\n        /* \"#utility.yul\":3332:3343   */\n      add\n        /* \"#utility.yul\":3325:3364   */\n      mstore\n        /* \"#utility.yul\":3297:3299   */\n      0x20\n        /* \"#utility.yul\":3294:3295   */\n      dup2\n        /* \"#utility.yul\":3290:3300   */\n      add\n        /* \"#utility.yul\":3285:3300   */\n      swap1\n      pop\n        /* \"#utility.yul\":3261:3374   */\n      jump(tag_160)\n    tag_162:\n        /* \"#utility.yul\":3392:3398   */\n      dup4\n        /* \"#utility.yul\":3389:3390   */\n      dup2\n        /* \"#utility.yul\":3386:3399   */\n      gt\n        /* \"#utility.yul\":3383:3385   */\n      iszero\n      tag_163\n      jumpi\n        /* \"#utility.yul\":3472:3473   */\n      0x00\n        /* \"#utility.yul\":3463:3469   */\n      dup5\n        /* \"#utility.yul\":3458:3461   */\n      dup5\n        /* \"#utility.yul\":3454:3470   */\n      add\n        /* \"#utility.yul\":3447:3474   */\n      mstore\n        /* \"#utility.yul\":3383:3385   */\n    tag_163:\n        /* \"#utility.yul\":3232:3490   */\n      pop\n      pop\n      pop\n      pop\n      jump\t// out\n        /* \"#utility.yul\":3496:3676   */\n    tag_156:\n        /* \"#utility.yul\":3544:3621   */\n      0x4e487b7100000000000000000000000000000000000000000000000000000000\n        /* \"#utility.yul\":3541:3542   */\n      0x00\n        /* \"#utility.yul\":3534:3622   */\n      mstore\n        /* \"#utility.yul\":3641:3645   */\n      0x11\n        /* \"#utility.yul\":3638:3639   */\n      0x04\n        /* \"#utility.yul\":3631:3646   */\n      mstore\n        /* \"#utility.yul\":3665:3669   */\n      0x24\n        /* \"#utility.yul\":3662:3663   */\n      0x00\n        /* \"#utility.yul\":3655:3670   */\n      revert\n        /* \"#utility.yul\":3682:3784   */\n    tag_136:\n      0x00\n        /* \"#utility.yul\":3774:3776   */\n      0x1f\n        /* \"#utility.yul\":3770:3777   */\n      not\n        /* \"#utility.yul\":3765:3767   */\n      0x1f\n        /* \"#utility.yul\":3758:3763   */\n      dup4\n        /* \"#utility.yul\":3754:3768   */\n      add\n        /* \"#utility.yul\":3750:3778   */\n      and\n        /* \"#utility.yul\":3740:3778   */\n      swap1\n      pop\n        /* \"#utility.yul\":3730:3784   */\n      swap2\n      swap1\n      pop\n      jump\t// out\n        /* \"#utility.yul\":3790:3912   */\n    tag_115:\n        /* \"#utility.yul\":3863:3887   */\n      tag_167\n        /* \"#utility.yul\":3881:3886   */\n      dup2\n        /* \"#utility.yul\":3863:3887   */\n      tag_140\n      jump\t// in\n    tag_167:\n        /* \"#utility.yul\":3856:3861   */\n      dup2\n        /* \"#utility.yul\":3853:3888   */\n      eq\n        /* \"#utility.yul\":3843:3845   */\n      tag_168\n      jumpi\n        /* \"#utility.yul\":3902:3903   */\n      0x00\n        /* \"#utility.yul\":3899:3900   */\n      dup1\n        /* \"#utility.yul\":3892:3904   */\n      revert\n        /* \"#utility.yul\":3843:3845   */\n    tag_168:\n        /* \"#utility.yul\":3833:3912   */\n      pop\n      jump\t// out\n\n    auxdata: 0xa264697066735822122040508737604f7b13077613888a70cfc890d158d8ef6a189ff68f21670524980164736f6c63430008000033\n}\n",
				"bytecode": {
					"linkReferences": {},
					"object": "6080604052600760005560086001556003600255600460035534801561002457600080fd5b506107c5806100346000396000f3fe608060405234801561001057600080fd5b506004361061010b5760003560e01c8063448f30a3116100a25780636c45a79c116100715780636c45a79c1461029a5780636f034cd9146102ba578063771602f7146102d857806379697ecc14610308578063b2dcf57c146103265761010b565b8063448f30a3146102225780634f29373414610242578063513e18ce1461025e57806356a32be91461027c5761010b565b806329fcda33116100de57806329fcda331461019a5780632e52d606146101ca5780633f7a0270146101e857806340133a10146102045761010b565b80630104590e146101105780630af0fe6e1461012e578063148bc9e21461015e57806320d6e7031461017c575b600080fd5b610118610356565b6040516101259190610609565b60405180910390f35b6101486004803603810190610143919061054d565b610393565b604051610155919061062b565b60405180910390f35b6101666103aa565b6040516101739190610609565b60405180910390f35b6101846103b9565b6040516101919190610609565b60405180910390f35b6101b460048036038101906101af9190610576565b6103c8565b6040516101c1919061062b565b60405180910390f35b6101d26103de565b6040516101df919061062b565b60405180910390f35b61020260048036038101906101fd919061054d565b6103e4565b005b61020c6103ee565b604051610219919061062b565b60405180910390f35b61022a6103f7565b60405161023993929190610646565b60405180910390f35b61025c6004803603810190610257919061054d565b61040d565b005b610266610417565b6040516102739190610609565b60405180910390f35b610284610426565b604051610291919061062b565b60405180910390f35b6102a261042c565b6040516102b193929190610646565b60405180910390f35b6102c2610442565b6040516102cf919061062b565b60405180910390f35b6102f260048036038101906102ed9190610576565b61044c565b6040516102ff919061062b565b60405180910390f35b61031061046d565b60405161031d9190610609565b60405180910390f35b610340600480360381019061033b9190610576565b6104aa565b60405161034d919061062b565b60405180910390f35b60606040518060400160405280601a81526020017f497420697320612065787465726e616c2066756e6374696f6e2e000000000000815250905090565b6000816003546103a39190610699565b9050919050565b60606103b461046d565b905090565b60606103c36104be565b905090565b600081836103d69190610699565b905092915050565b60025481565b8060028190555050565b60008054905090565b6000806000600560016000925092509250909192565b8060008190555050565b60606104216104fb565b905090565b60015481565b6000806000600692506000915060019050909192565b6000600354905090565b600042828461045b9190610699565b6104659190610699565b905092915050565b60606040518060400160405280601881526020017f49742069732061207075706c69632066756e6374696f6e2e0000000000000000815250905090565b60006104b683836103c8565b905092915050565b60606040518060400160405280601a81526020017f4974206973206120696e7465726e616c2066756e6374696f6e2e000000000000815250905090565b60606040518060400160405280601981526020017f4974206973206120707269766174652066756e6374696f6e2e00000000000000815250905090565b60008135905061054781610778565b92915050565b60006020828403121561055f57600080fd5b600061056d84828501610538565b91505092915050565b6000806040838503121561058957600080fd5b600061059785828601610538565b92505060206105a885828601610538565b9150509250929050565b6105bb816106ef565b82525050565b60006105cc8261067d565b6105d68185610688565b93506105e6818560208601610705565b6105ef81610767565b840191505092915050565b610603816106fb565b82525050565b6000602082019050818103600083015261062381846105c1565b905092915050565b600060208201905061064060008301846105fa565b92915050565b600060608201905061065b60008301866105fa565b61066860208301856105b2565b61067560408301846105b2565b949350505050565b600081519050919050565b600082825260208201905092915050565b60006106a4826106fb565b91506106af836106fb565b9250827fffffffffffffffffffffffffffffffffffffffffffffffffffffffffffffffff038211156106e4576106e3610738565b5b828201905092915050565b60008115159050919050565b6000819050919050565b60005b83811015610723578082015181840152602081019050610708565b83811115610732576000848401525b50505050565b7f4e487b7100000000000000000000000000000000000000000000000000000000600052601160045260246000fd5b6000601f19601f8301169050919050565b610781816106fb565b811461078c57600080fd5b5056fea264697066735822122040508737604f7b13077613888a70cfc890d158d8ef6a189ff68f21670524980164736f6c63430008000033",
					"opcodes": "PUSH1 0x80 PUSH1 0x40 MSTORE PUSH1 0x7 PUSH1 0x0 SSTORE PUSH1 0x8 PUSH1 0x1 SSTORE PUSH1 0x3 PUSH1 0x2 SSTORE PUSH1 0x4 PUSH1 0x3 SSTORE CALLVALUE DUP1 ISZERO PUSH2 0x24 JUMPI PUSH1 0x0 DUP1 REVERT JUMPDEST POP PUSH2 0x7C5 DUP1 PUSH2 0x34 PUSH1 0x0 CODECOPY PUSH1 0x0 RETURN INVALID PUSH1 0x80 PUSH1 0x40 MSTORE CALLVALUE DUP1 ISZERO PUSH2 0x10 JUMPI PUSH1 0x0 DUP1 REVERT JUMPDEST POP PUSH1 0x4 CALLDATASIZE LT PUSH2 0x10B JUMPI PUSH1 0x0 CALLDATALOAD PUSH1 0xE0 SHR DUP1 PUSH4 0x448F30A3 GT PUSH2 0xA2 JUMPI DUP1 PUSH4 0x6C45A79C GT PUSH2 0x71 JUMPI DUP1 PUSH4 0x6C45A79C EQ PUSH2 0x29A JUMPI DUP1 PUSH4 0x6F034CD9 EQ PUSH2 0x2BA JUMPI DUP1 PUSH4 0x771602F7 EQ PUSH2 0x2D8 JUMPI DUP1 PUSH4 0x79697ECC EQ PUSH2 0x308 JUMPI DUP1 PUSH4 0xB2DCF57C EQ PUSH2 0x326 JUMPI PUSH2 0x10B JUMP JUMPDEST DUP1 PUSH4 0x448F30A3 EQ PUSH2 0x222 JUMPI DUP1 PUSH4 0x4F293734 EQ PUSH2 0x242 JUMPI DUP1 PUSH4 0x513E18CE EQ PUSH2 0x25E JUMPI DUP1 PUSH4 0x56A32BE9 EQ PUSH2 0x27C JUMPI PUSH2 0x10B JUMP JUMPDEST DUP1 PUSH4 0x29FCDA33 GT PUSH2 0xDE JUMPI DUP1 PUSH4 0x29FCDA33 EQ PUSH2 0x19A JUMPI DUP1 PUSH4 0x2E52D606 EQ PUSH2 0x1CA JUMPI DUP1 PUSH4 0x3F7A0270 EQ PUSH2 0x1E8 JUMPI DUP1 PUSH4 0x40133A10 EQ PUSH2 0x204 JUMPI PUSH2 0x10B JUMP JUMPDEST DUP1 PUSH4 0x104590E EQ PUSH2 0x110 JUMPI DUP1 PUSH4 0xAF0FE6E EQ PUSH2 0x12E JUMPI DUP1 PUSH4 0x148BC9E2 EQ PUSH2 0x15E JUMPI DUP1 PUSH4 0x20D6E703 EQ PUSH2 0x17C JUMPI JUMPDEST PUSH1 0x0 DUP1 REVERT JUMPDEST PUSH2 0x118 PUSH2 0x356 JUMP JUMPDEST PUSH1 0x40 MLOAD PUSH2 0x125 SWAP2 SWAP1 PUSH2 0x609 JUMP JUMPDEST PUSH1 0x40 MLOAD DUP1 SWAP2 SUB SWAP1 RETURN JUMPDEST PUSH2 0x148 PUSH1 0x4 DUP1 CALLDATASIZE SUB DUP2 ADD SWAP1 PUSH2 0x143 SWAP2 SWAP1 PUSH2 0x54D JUMP JUMPDEST PUSH2 0x393 JUMP JUMPDEST PUSH1 0x40 MLOAD PUSH2 0x155 SWAP2 SWAP1 PUSH2 0x62B JUMP JUMPDEST PUSH1 0x40 MLOAD DUP1 SWAP2 SUB SWAP1 RETURN JUMPDEST PUSH2 0x166 PUSH2 0x3AA JUMP JUMPDEST PUSH1 0x40 MLOAD PUSH2 0x173 SWAP2 SWAP1 PUSH2 0x609 JUMP JUMPDEST PUSH1 0x40 MLOAD DUP1 SWAP2 SUB SWAP1 RETURN JUMPDEST PUSH2 0x184 PUSH2 0x3B9 JUMP JUMPDEST PUSH1 0x40 MLOAD PUSH2 0x191 SWAP2 SWAP1 PUSH2 0x609 JUMP JUMPDEST PUSH1 0x40 MLOAD DUP1 SWAP2 SUB SWAP1 RETURN JUMPDEST PUSH2 0x1B4 PUSH1 0x4 DUP1 CALLDATASIZE SUB DUP2 ADD SWAP1 PUSH2 0x1AF SWAP2 SWAP1 PUSH2 0x576 JUMP JUMPDEST PUSH2 0x3C8 JUMP JUMPDEST PUSH1 0x40 MLOAD PUSH2 0x1C1 SWAP2 SWAP1 PUSH2 0x62B JUMP JUMPDEST PUSH1 0x40 MLOAD DUP1 SWAP2 SUB SWAP1 RETURN JUMPDEST PUSH2 0x1D2 PUSH2 0x3DE JUMP JUMPDEST PUSH1 0x40 MLOAD PUSH2 0x1DF SWAP2 SWAP1 PUSH2 0x62B JUMP JUMPDEST PUSH1 0x40 MLOAD DUP1 SWAP2 SUB SWAP1 RETURN JUMPDEST PUSH2 0x202 PUSH1 0x4 DUP1 CALLDATASIZE SUB DUP2 ADD SWAP1 PUSH2 0x1FD SWAP2 SWAP1 PUSH2 0x54D JUMP JUMPDEST PUSH2 0x3E4 JUMP JUMPDEST STOP JUMPDEST PUSH2 0x20C PUSH2 0x3EE JUMP JUMPDEST PUSH1 0x40 MLOAD PUSH2 0x219 SWAP2 SWAP1 PUSH2 0x62B JUMP JUMPDEST PUSH1 0x40 MLOAD DUP1 SWAP2 SUB SWAP1 RETURN JUMPDEST PUSH2 0x22A PUSH2 0x3F7 JUMP JUMPDEST PUSH1 0x40 MLOAD PUSH2 0x239 SWAP4 SWAP3 SWAP2 SWAP1 PUSH2 0x646 JUMP JUMPDEST PUSH1 0x40 MLOAD DUP1 SWAP2 SUB SWAP1 RETURN JUMPDEST PUSH2 0x25C PUSH1 0x4 DUP1 CALLDATASIZE SUB DUP2 ADD SWAP1 PUSH2 0x257 SWAP2 SWAP1 PUSH2 0x54D JUMP JUMPDEST PUSH2 0x40D JUMP JUMPDEST STOP JUMPDEST PUSH2 0x266 PUSH2 0x417 JUMP JUMPDEST PUSH1 0x40 MLOAD PUSH2 0x273 SWAP2 SWAP1 PUSH2 0x609 JUMP JUMPDEST PUSH1 0x40 MLOAD DUP1 SWAP2 SUB SWAP1 RETURN JUMPDEST PUSH2 0x284 PUSH2 0x426 JUMP JUMPDEST PUSH1 0x40 MLOAD PUSH2 0x291 SWAP2 SWAP1 PUSH2 0x62B JUMP JUMPDEST PUSH1 0x40 MLOAD DUP1 SWAP2 SUB SWAP1 RETURN JUMPDEST PUSH2 0x2A2 PUSH2 0x42C JUMP JUMPDEST PUSH1 0x40 MLOAD PUSH2 0x2B1 SWAP4 SWAP3 SWAP2 SWAP1 PUSH2 0x646 JUMP JUMPDEST PUSH1 0x40 MLOAD DUP1 SWAP2 SUB SWAP1 RETURN JUMPDEST PUSH2 0x2C2 PUSH2 0x442 JUMP JUMPDEST PUSH1 0x40 MLOAD PUSH2 0x2CF SWAP2 SWAP1 PUSH2 0x62B JUMP JUMPDEST PUSH1 0x40 MLOAD DUP1 SWAP2 SUB SWAP1 RETURN JUMPDEST PUSH2 0x2F2 PUSH1 0x4 DUP1 CALLDATASIZE SUB DUP2 ADD SWAP1 PUSH2 0x2ED SWAP2 SWAP1 PUSH2 0x576 JUMP JUMPDEST PUSH2 0x44C JUMP JUMPDEST PUSH1 0x40 MLOAD PUSH2 0x2FF SWAP2 SWAP1 PUSH2 0x62B JUMP JUMPDEST PUSH1 0x40 MLOAD DUP1 SWAP2 SUB SWAP1 RETURN JUMPDEST PUSH2 0x310 PUSH2 0x46D JUMP JUMPDEST PUSH1 0x40 MLOAD PUSH2 0x31D SWAP2 SWAP1 PUSH2 0x609 JUMP JUMPDEST PUSH1 0x40 MLOAD DUP1 SWAP2 SUB SWAP1 RETURN JUMPDEST PUSH2 0x340 PUSH1 0x4 DUP1 CALLDATASIZE SUB DUP2 ADD SWAP1 PUSH2 0x33B SWAP2 SWAP1 PUSH2 0x576 JUMP JUMPDEST PUSH2 0x4AA JUMP JUMPDEST PUSH1 0x40 MLOAD PUSH2 0x34D SWAP2 SWAP1 PUSH2 0x62B JUMP JUMPDEST PUSH1 0x40 MLOAD DUP1 SWAP2 SUB SWAP1 RETURN JUMPDEST PUSH1 0x60 PUSH1 0x40 MLOAD DUP1 PUSH1 0x40 ADD PUSH1 0x40 MSTORE DUP1 PUSH1 0x1A DUP2 MSTORE PUSH1 0x20 ADD PUSH32 0x497420697320612065787465726E616C2066756E6374696F6E2E000000000000 DUP2 MSTORE POP SWAP1 POP SWAP1 JUMP JUMPDEST PUSH1 0x0 DUP2 PUSH1 0x3 SLOAD PUSH2 0x3A3 SWAP2 SWAP1 PUSH2 0x699 JUMP JUMPDEST SWAP1 POP SWAP2 SWAP1 POP JUMP JUMPDEST PUSH1 0x60 PUSH2 0x3B4 PUSH2 0x46D JUMP JUMPDEST SWAP1 POP SWAP1 JUMP JUMPDEST PUSH1 0x60 PUSH2 0x3C3 PUSH2 0x4BE JUMP JUMPDEST SWAP1 POP SWAP1 JUMP JUMPDEST PUSH1 0x0 DUP2 DUP4 PUSH2 0x3D6 SWAP2 SWAP1 PUSH2 0x699 JUMP JUMPDEST SWAP1 POP SWAP3 SWAP2 POP POP JUMP JUMPDEST PUSH1 0x2 SLOAD DUP2 JUMP JUMPDEST DUP1 PUSH1 0x2 DUP2 SWAP1 SSTORE POP POP JUMP JUMPDEST PUSH1 0x0 DUP1 SLOAD SWAP1 POP SWAP1 JUMP JUMPDEST PUSH1 0x0 DUP1 PUSH1 0x0 PUSH1 0x5 PUSH1 0x1 PUSH1 0x0 SWAP3 POP SWAP3 POP SWAP3 POP SWAP1 SWAP2 SWAP3 JUMP JUMPDEST DUP1 PUSH1 0x0 DUP2 SWAP1 SSTORE POP POP JUMP JUMPDEST PUSH1 0x60 PUSH2 0x421 PUSH2 0x4FB JUMP JUMPDEST SWAP1 POP SWAP1 JUMP JUMPDEST PUSH1 0x1 SLOAD DUP2 JUMP JUMPDEST PUSH1 0x0 DUP1 PUSH1 0x0 PUSH1 0x6 SWAP3 POP PUSH1 0x0 SWAP2 POP PUSH1 0x1 SWAP1 POP SWAP1 SWAP2 SWAP3 JUMP JUMPDEST PUSH1 0x0 PUSH1 0x3 SLOAD SWAP1 POP SWAP1 JUMP JUMPDEST PUSH1 0x0 TIMESTAMP DUP3 DUP5 PUSH2 0x45B SWAP2 SWAP1 PUSH2 0x699 JUMP JUMPDEST PUSH2 0x465 SWAP2 SWAP1 PUSH2 0x699 JUMP JUMPDEST SWAP1 POP SWAP3 SWAP2 POP POP JUMP JUMPDEST PUSH1 0x60 PUSH1 0x40 MLOAD DUP1 PUSH1 0x40 ADD PUSH1 0x40 MSTORE DUP1 PUSH1 0x18 DUP2 MSTORE PUSH1 0x20 ADD PUSH32 0x49742069732061207075706C69632066756E6374696F6E2E0000000000000000 DUP2 MSTORE POP SWAP1 POP SWAP1 JUMP JUMPDEST PUSH1 0x0 PUSH2 0x4B6 DUP4 DUP4 PUSH2 0x3C8 JUMP JUMPDEST SWAP1 POP SWAP3 SWAP2 POP POP JUMP JUMPDEST PUSH1 0x60 PUSH1 0x40 MLOAD DUP1 PUSH1 0x40 ADD PUSH1 0x40 MSTORE DUP1 PUSH1 0x1A DUP2 MSTORE PUSH1 0x20 ADD PUSH32 0x4974206973206120696E7465726E616C2066756E6374696F6E2E000000000000 DUP2 MSTORE POP SWAP1 POP SWAP1 JUMP JUMPDEST PUSH1 0x60 PUSH1 0x40 MLOAD DUP1 PUSH1 0x40 ADD PUSH1 0x40 MSTORE DUP1 PUSH1 0x19 DUP2 MSTORE PUSH1 0x20 ADD PUSH32 0x4974206973206120707269766174652066756E6374696F6E2E00000000000000 DUP2 MSTORE POP SWAP1 POP SWAP1 JUMP JUMPDEST PUSH1 0x0 DUP2 CALLDATALOAD SWAP1 POP PUSH2 0x547 DUP2 PUSH2 0x778 JUMP JUMPDEST SWAP3 SWAP2 POP POP JUMP JUMPDEST PUSH1 0x0 PUSH1 0x20 DUP3 DUP5 SUB SLT ISZERO PUSH2 0x55F JUMPI PUSH1 0x0 DUP1 REVERT JUMPDEST PUSH1 0x0 PUSH2 0x56D DUP5 DUP3 DUP6 ADD PUSH2 0x538 JUMP JUMPDEST SWAP2 POP POP SWAP3 SWAP2 POP POP JUMP JUMPDEST PUSH1 0x0 DUP1 PUSH1 0x40 DUP4 DUP6 SUB SLT ISZERO PUSH2 0x589 JUMPI PUSH1 0x0 DUP1 REVERT JUMPDEST PUSH1 0x0 PUSH2 0x597 DUP6 DUP3 DUP7 ADD PUSH2 0x538 JUMP JUMPDEST SWAP3 POP POP PUSH1 0x20 PUSH2 0x5A8 DUP6 DUP3 DUP7 ADD PUSH2 0x538 JUMP JUMPDEST SWAP2 POP POP SWAP3 POP SWAP3 SWAP1 POP JUMP JUMPDEST PUSH2 0x5BB DUP2 PUSH2 0x6EF JUMP JUMPDEST DUP3 MSTORE POP POP JUMP JUMPDEST PUSH1 0x0 PUSH2 0x5CC DUP3 PUSH2 0x67D JUMP JUMPDEST PUSH2 0x5D6 DUP2 DUP6 PUSH2 0x688 JUMP JUMPDEST SWAP4 POP PUSH2 0x5E6 DUP2 DUP6 PUSH1 0x20 DUP7 ADD PUSH2 0x705 JUMP JUMPDEST PUSH2 0x5EF DUP2 PUSH2 0x767 JUMP JUMPDEST DUP5 ADD SWAP2 POP POP SWAP3 SWAP2 POP POP JUMP JUMPDEST PUSH2 0x603 DUP2 PUSH2 0x6FB JUMP JUMPDEST DUP3 MSTORE POP POP JUMP JUMPDEST PUSH1 0x0 PUSH1 0x20 DUP3 ADD SWAP1 POP DUP2 DUP2 SUB PUSH1 0x0 DUP4 ADD MSTORE PUSH2 0x623 DUP2 DUP5 PUSH2 0x5C1 JUMP JUMPDEST SWAP1 POP SWAP3 SWAP2 POP POP JUMP JUMPDEST PUSH1 0x0 PUSH1 0x20 DUP3 ADD SWAP1 POP PUSH2 0x640 PUSH1 0x0 DUP4 ADD DUP5 PUSH2 0x5FA JUMP JUMPDEST SWAP3 SWAP2 POP POP JUMP JUMPDEST PUSH1 0x0 PUSH1 0x60 DUP3 ADD SWAP1 POP PUSH2 0x65B PUSH1 0x0 DUP4 ADD DUP7 PUSH2 0x5FA JUMP JUMPDEST PUSH2 0x668 PUSH1 0x20 DUP4 ADD DUP6 PUSH2 0x5B2 JUMP JUMPDEST PUSH2 0x675 PUSH1 0x40 DUP4 ADD DUP5 PUSH2 0x5B2 JUMP JUMPDEST SWAP5 SWAP4 POP POP POP POP JUMP JUMPDEST PUSH1 0x0 DUP2 MLOAD SWAP1 POP SWAP2 SWAP1 POP JUMP JUMPDEST PUSH1 0x0 DUP3 DUP3 MSTORE PUSH1 0x20 DUP3 ADD SWAP1 POP SWAP3 SWAP2 POP POP JUMP JUMPDEST PUSH1 0x0 PUSH2 0x6A4 DUP3 PUSH2 0x6FB JUMP JUMPDEST SWAP2 POP PUSH2 0x6AF DUP4 PUSH2 0x6FB JUMP JUMPDEST SWAP3 POP DUP3 PUSH32 0xFFFFFFFFFFFFFFFFFFFFFFFFFFFFFFFFFFFFFFFFFFFFFFFFFFFFFFFFFFFFFFFF SUB DUP3 GT ISZERO PUSH2 0x6E4 JUMPI PUSH2 0x6E3 PUSH2 0x738 JUMP JUMPDEST JUMPDEST DUP3 DUP3 ADD SWAP1 POP SWAP3 SWAP2 POP POP JUMP JUMPDEST PUSH1 0x0 DUP2 ISZERO ISZERO SWAP1 POP SWAP2 SWAP1 POP JUMP JUMPDEST PUSH1 0x0 DUP2 SWAP1 POP SWAP2 SWAP1 POP JUMP JUMPDEST PUSH1 0x0 JUMPDEST DUP4 DUP2 LT ISZERO PUSH2 0x723 JUMPI DUP1 DUP3 ADD MLOAD DUP2 DUP5 ADD MSTORE PUSH1 0x20 DUP2 ADD SWAP1 POP PUSH2 0x708 JUMP JUMPDEST DUP4 DUP2 GT ISZERO PUSH2 0x732 JUMPI PUSH1 0x0 DUP5 DUP5 ADD MSTORE JUMPDEST POP POP POP POP JUMP JUMPDEST PUSH32 0x4E487B7100000000000000000000000000000000000000000000000000000000 PUSH1 0x0 MSTORE PUSH1 0x11 PUSH1 0x4 MSTORE PUSH1 0x24 PUSH1 0x0 REVERT JUMPDEST PUSH1 0x0 PUSH1 0x1F NOT PUSH1 0x1F DUP4 ADD AND SWAP1 POP SWAP2 SWAP1 POP JUMP JUMPDEST PUSH2 0x781 DUP2 PUSH2 0x6FB JUMP JUMPDEST DUP2 EQ PUSH2 0x78C JUMPI PUSH1 0x0 DUP1 REVERT JUMPDEST POP JUMP INVALID LOG2 PUSH5 0x6970667358 0x22 SLT KECCAK256 BLOCKHASH POP DUP8 CALLDATACOPY PUSH1 0x4F PUSH28 0x13077613888A70CFC890D158D8EF6A189FF68F21670524980164736F PUSH13 0x63430008000033000000000000 "
				},
				"gasEstimates": {
					"creation": {
						"codeDepositCost": "397800",
						"executionCost": "80460",
						"totalCost": "478260"
					},
					"external": {
						"add(uint256,uint256)": "infinite",
						"add2(uint256,uint256)": "infinite",
						"addButCallAnotherFunction(uint256,uint256)": "infinite",
						"callInternalKeyword()": "infinite",
						"callPrivateKeyword()": "infinite",
						"callPublicKeyword()": "infinite",
						"externalKeyword()": "infinite",
						"luckyNumber2()": "1218",
						"n()": "1174",
						"nothing()": "infinite",
						"nothing2()": "infinite",
						"publicKeyword()": "infinite",
						"setLuckyNumber(uint256)": "20465",
						"setN(uint256)": "20487",
						"showAddToM(uint256)": "infinite",
						"showLuckyNumber()": "1226",
						"showM()": "1181"
					},
					"internal": {
						"internalKeyword()": "infinite",
						"privateKeyword()": "infinite"
					}
				},
				"methodIdentifiers": {
					"add(uint256,uint256)": "771602f7",
					"add2(uint256,uint256)": "29fcda33",
					"addButCallAnotherFunction(uint256,uint256)": "b2dcf57c",
					"callInternalKeyword()": "20d6e703",
					"callPrivateKeyword()": "513e18ce",
					"callPublicKeyword()": "148bc9e2",
					"externalKeyword()": "0104590e",
					"luckyNumber2()": "56a32be9",
					"n()": "2e52d606",
					"nothing()": "448f30a3",
					"nothing2()": "6c45a79c",
					"publicKeyword()": "79697ecc",
					"setLuckyNumber(uint256)": "4f293734",
					"setN(uint256)": "3f7a0270",
					"showAddToM(uint256)": "0af0fe6e",
					"showLuckyNumber()": "40133a10",
					"showM()": "6f034cd9"
				}
			},
			"storageLayout": {
				"storage": [
					{
						"astId": 4,
						"contract": "contracts/Functions.sol:Functions",
						"label": "luckyNumber",
						"offset": 0,
						"slot": "0",
						"type": "t_uint256"
					},
					{
						"astId": 15,
						"contract": "contracts/Functions.sol:Functions",
						"label": "luckyNumber2",
						"offset": 0,
						"slot": "1",
						"type": "t_uint256"
					},
					{
						"astId": 65,
						"contract": "contracts/Functions.sol:Functions",
						"label": "n",
						"offset": 0,
						"slot": "2",
						"type": "t_uint256"
					},
					{
						"astId": 78,
						"contract": "contracts/Functions.sol:Functions",
						"label": "m",
						"offset": 0,
						"slot": "3",
						"type": "t_uint256"
					}
				],
				"types": {
					"t_uint256": {
						"encoding": "inplace",
						"label": "uint256",
						"numberOfBytes": "32"
					}
				}
			},
			"userdoc": {
				"kind": "user",
				"methods": {},
				"version": 1
			}
		}
	}
}