{
	"contracts/Data_Locations.sol": {
		"School": {
			"abi": [
				{
					"inputs": [
						{
							"internalType": "string",
							"name": "_name",
							"type": "string"
						},
						{
							"internalType": "uint8",
							"name": "_age",
							"type": "uint8"
						},
						{
							"internalType": "uint16",
							"name": "_score",
							"type": "uint16"
						}
					],
					"name": "addStudent",
					"outputs": [],
					"stateMutability": "nonpayable",
					"type": "function"
				},
				{
					"inputs": [
						{
							"internalType": "uint256",
							"name": "_id",
							"type": "uint256"
						},
						{
							"internalType": "string",
							"name": "_newName",
							"type": "string"
						},
						{
							"internalType": "uint8",
							"name": "_newAge",
							"type": "uint8"
						},
						{
							"internalType": "uint16",
							"name": "_newScore",
							"type": "uint16"
						}
					],
					"name": "changeStudentInfoMemory",
					"outputs": [],
					"stateMutability": "view",
					"type": "function"
				},
				{
					"inputs": [
						{
							"internalType": "uint256",
							"name": "_id",
							"type": "uint256"
						},
						{
							"internalType": "string",
							"name": "_newName",
							"type": "string"
						},
						{
							"internalType": "uint8",
							"name": "_newAge",
							"type": "uint8"
						},
						{
							"internalType": "uint16",
							"name": "_newScore",
							"type": "uint16"
						}
					],
					"name": "changeStudentInfoStorage",
					"outputs": [],
					"stateMutability": "nonpayable",
					"type": "function"
				},
				{
					"inputs": [
						{
							"internalType": "uint256",
							"name": "_id",
							"type": "uint256"
						}
					],
					"name": "getStundentName",
					"outputs": [
						{
							"internalType": "string",
							"name": "",
							"type": "string"
						}
					],
					"stateMutability": "view",
					"type": "function"
				}
			],
			"devdoc": {
				"kind": "dev",
				"methods": {},
				"version": 1
			},
			"evm": {
				"assembly": "    /* \"contracts/Data_Locations.sol\":567:1791  contract School {... */\n  mstore(0x40, 0x80)\n    /* \"contracts/Data_Locations.sol\":616:617  0 */\n  0x00\n    /* \"contracts/Data_Locations.sol\":592:617  uint256 totalStudents = 0 */\n  dup1\n  sstore\n    /* \"contracts/Data_Locations.sol\":567:1791  contract School {... */\n  callvalue\n  dup1\n  iszero\n  tag_1\n  jumpi\n  0x00\n  dup1\n  revert\ntag_1:\n  pop\n  dataSize(sub_0)\n  dup1\n  dataOffset(sub_0)\n  0x00\n  codecopy\n  0x00\n  return\nstop\n\nsub_0: assembly {\n        /* \"contracts/Data_Locations.sol\":567:1791  contract School {... */\n      mstore(0x40, 0x80)\n      callvalue\n      dup1\n      iszero\n      tag_1\n      jumpi\n      0x00\n      dup1\n      revert\n    tag_1:\n      pop\n      jumpi(tag_2, lt(calldatasize, 0x04))\n      shr(0xe0, calldataload(0x00))\n      dup1\n      0x1bc3115e\n      eq\n      tag_3\n      jumpi\n      dup1\n      0x3b5625b6\n      eq\n      tag_4\n      jumpi\n      dup1\n      0xadb62cc9\n      eq\n      tag_5\n      jumpi\n      dup1\n      0xdfc64a4a\n      eq\n      tag_6\n      jumpi\n    tag_2:\n      0x00\n      dup1\n      revert\n        /* \"contracts/Data_Locations.sol\":692:886  function addStudent(string calldata _name, uint8 _age, uint16 _score) external {... */\n    tag_3:\n      tag_7\n      0x04\n      dup1\n      calldatasize\n      sub\n      dup2\n      add\n      swap1\n      tag_8\n      swap2\n      swap1\n      tag_9\n      jump\t// in\n    tag_8:\n      tag_10\n      jump\t// in\n    tag_7:\n      stop\n        /* \"contracts/Data_Locations.sol\":1231:1659  function changeStudentInfoMemory(uint256 _id, ... */\n    tag_4:\n      tag_11\n      0x04\n      dup1\n      calldatasize\n      sub\n      dup2\n      add\n      swap1\n      tag_12\n      swap2\n      swap1\n      tag_13\n      jump\t// in\n    tag_12:\n      tag_14\n      jump\t// in\n    tag_11:\n      stop\n        /* \"contracts/Data_Locations.sol\":1667:1788  function getStundentName(uint256 _id) external view  returns (string memory) {... */\n    tag_5:\n      tag_15\n      0x04\n      dup1\n      calldatasize\n      sub\n      dup2\n      add\n      swap1\n      tag_16\n      swap2\n      swap1\n      tag_17\n      jump\t// in\n    tag_16:\n      tag_18\n      jump\t// in\n    tag_15:\n      mload(0x40)\n      tag_19\n      swap2\n      swap1\n      tag_20\n      jump\t// in\n    tag_19:\n      mload(0x40)\n      dup1\n      swap2\n      sub\n      swap1\n      return\n        /* \"contracts/Data_Locations.sol\":894:1223  function changeStudentInfoStorage(uint256 _id, ... */\n    tag_6:\n      tag_21\n      0x04\n      dup1\n      calldatasize\n      sub\n      dup2\n      add\n      swap1\n      tag_22\n      swap2\n      swap1\n      tag_13\n      jump\t// in\n    tag_22:\n      tag_23\n      jump\t// in\n    tag_21:\n      stop\n        /* \"contracts/Data_Locations.sol\":692:886  function addStudent(string calldata _name, uint8 _age, uint16 _score) external {... */\n    tag_10:\n        /* \"contracts/Data_Locations.sol\":782:799  uint256 currentID */\n      0x00\n        /* \"contracts/Data_Locations.sol\":802:815  totalStudents */\n      dup1\n      0x00\n        /* \"contracts/Data_Locations.sol\":802:817  totalStudents++ */\n      dup2\n      sload\n      dup1\n      swap3\n      swap2\n      swap1\n      tag_25\n      swap1\n      tag_26\n      jump\t// in\n    tag_25:\n      swap2\n      swap1\n      pop\n      sstore\n        /* \"contracts/Data_Locations.sol\":782:817  uint256 currentID = totalStudents++ */\n      swap1\n      pop\n        /* \"contracts/Data_Locations.sol\":850:878  Student(_age, _score, _name) */\n      mload(0x40)\n      dup1\n      0x60\n      add\n      0x40\n      mstore\n      dup1\n        /* \"contracts/Data_Locations.sol\":858:862  _age */\n      dup5\n        /* \"contracts/Data_Locations.sol\":850:878  Student(_age, _score, _name) */\n      0xff\n      and\n      dup2\n      mstore\n      0x20\n      add\n        /* \"contracts/Data_Locations.sol\":864:870  _score */\n      dup4\n        /* \"contracts/Data_Locations.sol\":850:878  Student(_age, _score, _name) */\n      0xffff\n      and\n      dup2\n      mstore\n      0x20\n      add\n        /* \"contracts/Data_Locations.sol\":872:877  _name */\n      dup7\n      dup7\n        /* \"contracts/Data_Locations.sol\":850:878  Student(_age, _score, _name) */\n      dup1\n      dup1\n      0x1f\n      add\n      0x20\n      dup1\n      swap2\n      div\n      mul\n      0x20\n      add\n      mload(0x40)\n      swap1\n      dup2\n      add\n      0x40\n      mstore\n      dup1\n      swap4\n      swap3\n      swap2\n      swap1\n      dup2\n      dup2\n      mstore\n      0x20\n      add\n      dup4\n      dup4\n      dup1\n      dup3\n      dup5\n      calldatacopy\n      0x00\n      dup2\n      dup5\n      add\n      mstore\n      not(0x1f)\n      0x1f\n      dup3\n      add\n      and\n      swap1\n      pop\n      dup1\n      dup4\n      add\n      swap3\n      pop\n      pop\n      pop\n      pop\n      pop\n      pop\n      pop\n      dup2\n      mstore\n      pop\n        /* \"contracts/Data_Locations.sol\":828:836  students */\n      0x01\n        /* \"contracts/Data_Locations.sol\":828:847  students[currentID] */\n      0x00\n        /* \"contracts/Data_Locations.sol\":837:846  currentID */\n      dup4\n        /* \"contracts/Data_Locations.sol\":828:847  students[currentID] */\n      dup2\n      mstore\n      0x20\n      add\n      swap1\n      dup2\n      mstore\n      0x20\n      add\n      0x00\n      keccak256\n        /* \"contracts/Data_Locations.sol\":828:878  students[currentID] = Student(_age, _score, _name) */\n      0x00\n      dup3\n      add\n      mload\n      dup2\n      0x00\n      add\n      exp(0x0100, 0x00)\n      dup2\n      sload\n      dup2\n      0xff\n      mul\n      not\n      and\n      swap1\n      dup4\n      0xff\n      and\n      mul\n      or\n      swap1\n      sstore\n      pop\n      0x20\n      dup3\n      add\n      mload\n      dup2\n      0x00\n      add\n      exp(0x0100, 0x01)\n      dup2\n      sload\n      dup2\n      0xffff\n      mul\n      not\n      and\n      swap1\n      dup4\n      0xffff\n      and\n      mul\n      or\n      swap1\n      sstore\n      pop\n      0x40\n      dup3\n      add\n      mload\n      dup2\n      0x01\n      add\n      swap1\n      dup1\n      mload\n      swap1\n      0x20\n      add\n      swap1\n      tag_27\n      swap3\n      swap2\n      swap1\n      tag_28\n      jump\t// in\n    tag_27:\n      pop\n      swap1\n      pop\n      pop\n        /* \"contracts/Data_Locations.sol\":771:886  {... */\n      pop\n        /* \"contracts/Data_Locations.sol\":692:886  function addStudent(string calldata _name, uint8 _age, uint16 _score) external {... */\n      pop\n      pop\n      pop\n      pop\n      jump\t// out\n        /* \"contracts/Data_Locations.sol\":1231:1659  function changeStudentInfoMemory(uint256 _id, ... */\n    tag_14:\n        /* \"contracts/Data_Locations.sol\":1481:1510  Student memory currentStudent */\n      0x00\n        /* \"contracts/Data_Locations.sol\":1513:1521  students */\n      0x01\n        /* \"contracts/Data_Locations.sol\":1513:1526  students[_id] */\n      0x00\n        /* \"contracts/Data_Locations.sol\":1522:1525  _id */\n      dup8\n        /* \"contracts/Data_Locations.sol\":1513:1526  students[_id] */\n      dup2\n      mstore\n      0x20\n      add\n      swap1\n      dup2\n      mstore\n      0x20\n      add\n      0x00\n      keccak256\n        /* \"contracts/Data_Locations.sol\":1481:1526  Student memory currentStudent = students[_id] */\n      mload(0x40)\n      dup1\n      0x60\n      add\n      0x40\n      mstore\n      swap1\n      dup2\n      0x00\n      dup3\n      add\n      0x00\n      swap1\n      sload\n      swap1\n      0x0100\n      exp\n      swap1\n      div\n      0xff\n      and\n      0xff\n      and\n      0xff\n      and\n      dup2\n      mstore\n      0x20\n      add\n      0x00\n      dup3\n      add\n      0x01\n      swap1\n      sload\n      swap1\n      0x0100\n      exp\n      swap1\n      div\n      0xffff\n      and\n      0xffff\n      and\n      0xffff\n      and\n      dup2\n      mstore\n      0x20\n      add\n      0x01\n      dup3\n      add\n      dup1\n      sload\n      tag_30\n      swap1\n      tag_31\n      jump\t// in\n    tag_30:\n      dup1\n      0x1f\n      add\n      0x20\n      dup1\n      swap2\n      div\n      mul\n      0x20\n      add\n      mload(0x40)\n      swap1\n      dup2\n      add\n      0x40\n      mstore\n      dup1\n      swap3\n      swap2\n      swap1\n      dup2\n      dup2\n      mstore\n      0x20\n      add\n      dup3\n      dup1\n      sload\n      tag_32\n      swap1\n      tag_31\n      jump\t// in\n    tag_32:\n      dup1\n      iszero\n      tag_33\n      jumpi\n      dup1\n      0x1f\n      lt\n      tag_34\n      jumpi\n      0x0100\n      dup1\n      dup4\n      sload\n      div\n      mul\n      dup4\n      mstore\n      swap2\n      0x20\n      add\n      swap2\n      jump(tag_33)\n    tag_34:\n      dup3\n      add\n      swap2\n      swap1\n      0x00\n      mstore\n      keccak256(0x00, 0x20)\n      swap1\n    tag_35:\n      dup2\n      sload\n      dup2\n      mstore\n      swap1\n      0x01\n      add\n      swap1\n      0x20\n      add\n      dup1\n      dup4\n      gt\n      tag_35\n      jumpi\n      dup3\n      swap1\n      sub\n      0x1f\n      and\n      dup3\n      add\n      swap2\n    tag_33:\n      pop\n      pop\n      pop\n      pop\n      pop\n      dup2\n      mstore\n      pop\n      pop\n      swap1\n      pop\n        /* \"contracts/Data_Locations.sol\":1561:1569  _newName */\n      dup5\n      dup5\n        /* \"contracts/Data_Locations.sol\":1539:1569  currentStudent.name = _newName */\n      dup1\n      dup1\n      0x1f\n      add\n      0x20\n      dup1\n      swap2\n      div\n      mul\n      0x20\n      add\n      mload(0x40)\n      swap1\n      dup2\n      add\n      0x40\n      mstore\n      dup1\n      swap4\n      swap3\n      swap2\n      swap1\n      dup2\n      dup2\n      mstore\n      0x20\n      add\n      dup4\n      dup4\n      dup1\n      dup3\n      dup5\n      calldatacopy\n      0x00\n      dup2\n      dup5\n      add\n      mstore\n      not(0x1f)\n      0x1f\n      dup3\n      add\n      and\n      swap1\n      pop\n      dup1\n      dup4\n      add\n      swap3\n      pop\n      pop\n      pop\n      pop\n      pop\n      pop\n      pop\n        /* \"contracts/Data_Locations.sol\":1539:1553  currentStudent */\n      dup2\n        /* \"contracts/Data_Locations.sol\":1539:1558  currentStudent.name */\n      0x40\n      add\n        /* \"contracts/Data_Locations.sol\":1539:1569  currentStudent.name = _newName */\n      dup2\n      swap1\n      mstore\n      pop\n        /* \"contracts/Data_Locations.sol\":1601:1608  _newAge */\n      dup3\n        /* \"contracts/Data_Locations.sol\":1580:1594  currentStudent */\n      dup2\n        /* \"contracts/Data_Locations.sol\":1580:1598  currentStudent.age */\n      0x00\n      add\n        /* \"contracts/Data_Locations.sol\":1580:1608  currentStudent.age = _newAge */\n      swap1\n      0xff\n      and\n      swap1\n      dup2\n      0xff\n      and\n      dup2\n      mstore\n      pop\n      pop\n        /* \"contracts/Data_Locations.sol\":1642:1651  _newScore */\n      dup2\n        /* \"contracts/Data_Locations.sol\":1619:1633  currentStudent */\n      dup2\n        /* \"contracts/Data_Locations.sol\":1619:1639  currentStudent.score */\n      0x20\n      add\n        /* \"contracts/Data_Locations.sol\":1619:1651  currentStudent.score = _newScore */\n      swap1\n      0xffff\n      and\n      swap1\n      dup2\n      0xffff\n      and\n      dup2\n      mstore\n      pop\n      pop\n        /* \"contracts/Data_Locations.sol\":1374:1659  { // It wants \"view\" because there will be no changes due to the fact that we are using \"memory\".... */\n      pop\n        /* \"contracts/Data_Locations.sol\":1231:1659  function changeStudentInfoMemory(uint256 _id, ... */\n      pop\n      pop\n      pop\n      pop\n      pop\n      jump\t// out\n        /* \"contracts/Data_Locations.sol\":1667:1788  function getStundentName(uint256 _id) external view  returns (string memory) {... */\n    tag_18:\n        /* \"contracts/Data_Locations.sol\":1729:1742  string memory */\n      0x60\n        /* \"contracts/Data_Locations.sol\":1762:1770  students */\n      0x01\n        /* \"contracts/Data_Locations.sol\":1762:1775  students[_id] */\n      0x00\n        /* \"contracts/Data_Locations.sol\":1771:1774  _id */\n      dup4\n        /* \"contracts/Data_Locations.sol\":1762:1775  students[_id] */\n      dup2\n      mstore\n      0x20\n      add\n      swap1\n      dup2\n      mstore\n      0x20\n      add\n      0x00\n      keccak256\n        /* \"contracts/Data_Locations.sol\":1762:1780  students[_id].name */\n      0x01\n      add\n        /* \"contracts/Data_Locations.sol\":1755:1780  return students[_id].name */\n      dup1\n      sload\n      tag_37\n      swap1\n      tag_31\n      jump\t// in\n    tag_37:\n      dup1\n      0x1f\n      add\n      0x20\n      dup1\n      swap2\n      div\n      mul\n      0x20\n      add\n      mload(0x40)\n      swap1\n      dup2\n      add\n      0x40\n      mstore\n      dup1\n      swap3\n      swap2\n      swap1\n      dup2\n      dup2\n      mstore\n      0x20\n      add\n      dup3\n      dup1\n      sload\n      tag_38\n      swap1\n      tag_31\n      jump\t// in\n    tag_38:\n      dup1\n      iszero\n      tag_39\n      jumpi\n      dup1\n      0x1f\n      lt\n      tag_40\n      jumpi\n      0x0100\n      dup1\n      dup4\n      sload\n      div\n      mul\n      dup4\n      mstore\n      swap2\n      0x20\n      add\n      swap2\n      jump(tag_39)\n    tag_40:\n      dup3\n      add\n      swap2\n      swap1\n      0x00\n      mstore\n      keccak256(0x00, 0x20)\n      swap1\n    tag_41:\n      dup2\n      sload\n      dup2\n      mstore\n      swap1\n      0x01\n      add\n      swap1\n      0x20\n      add\n      dup1\n      dup4\n      gt\n      tag_41\n      jumpi\n      dup3\n      swap1\n      sub\n      0x1f\n      and\n      dup3\n      add\n      swap2\n    tag_39:\n      pop\n      pop\n      pop\n      pop\n      pop\n      swap1\n      pop\n        /* \"contracts/Data_Locations.sol\":1667:1788  function getStundentName(uint256 _id) external view  returns (string memory) {... */\n      swap2\n      swap1\n      pop\n      jump\t// out\n        /* \"contracts/Data_Locations.sol\":894:1223  function changeStudentInfoStorage(uint256 _id, ... */\n    tag_23:\n        /* \"contracts/Data_Locations.sol\":1044:1074  Student storage currentStudent */\n      0x00\n        /* \"contracts/Data_Locations.sol\":1077:1085  students */\n      0x01\n        /* \"contracts/Data_Locations.sol\":1077:1090  students[_id] */\n      0x00\n        /* \"contracts/Data_Locations.sol\":1086:1089  _id */\n      dup8\n        /* \"contracts/Data_Locations.sol\":1077:1090  students[_id] */\n      dup2\n      mstore\n      0x20\n      add\n      swap1\n      dup2\n      mstore\n      0x20\n      add\n      0x00\n      keccak256\n        /* \"contracts/Data_Locations.sol\":1044:1090  Student storage currentStudent = students[_id] */\n      swap1\n      pop\n        /* \"contracts/Data_Locations.sol\":1125:1133  _newName */\n      dup5\n      dup5\n        /* \"contracts/Data_Locations.sol\":1103:1117  currentStudent */\n      dup3\n        /* \"contracts/Data_Locations.sol\":1103:1122  currentStudent.name */\n      0x01\n      add\n        /* \"contracts/Data_Locations.sol\":1103:1133  currentStudent.name = _newName */\n      swap2\n      swap1\n      tag_43\n      swap3\n      swap2\n      swap1\n      tag_44\n      jump\t// in\n    tag_43:\n      pop\n        /* \"contracts/Data_Locations.sol\":1165:1172  _newAge */\n      dup3\n        /* \"contracts/Data_Locations.sol\":1144:1158  currentStudent */\n      dup2\n        /* \"contracts/Data_Locations.sol\":1144:1162  currentStudent.age */\n      0x00\n      add\n      0x00\n        /* \"contracts/Data_Locations.sol\":1144:1172  currentStudent.age = _newAge */\n      0x0100\n      exp\n      dup2\n      sload\n      dup2\n      0xff\n      mul\n      not\n      and\n      swap1\n      dup4\n      0xff\n      and\n      mul\n      or\n      swap1\n      sstore\n      pop\n        /* \"contracts/Data_Locations.sol\":1206:1215  _newScore */\n      dup2\n        /* \"contracts/Data_Locations.sol\":1183:1197  currentStudent */\n      dup2\n        /* \"contracts/Data_Locations.sol\":1183:1203  currentStudent.score */\n      0x00\n      add\n      0x01\n        /* \"contracts/Data_Locations.sol\":1183:1215  currentStudent.score = _newScore */\n      0x0100\n      exp\n      dup2\n      sload\n      dup2\n      0xffff\n      mul\n      not\n      and\n      swap1\n      dup4\n      0xffff\n      and\n      mul\n      or\n      swap1\n      sstore\n      pop\n        /* \"contracts/Data_Locations.sol\":1033:1223  {... */\n      pop\n        /* \"contracts/Data_Locations.sol\":894:1223  function changeStudentInfoStorage(uint256 _id, ... */\n      pop\n      pop\n      pop\n      pop\n      pop\n      jump\t// out\n    tag_28:\n      dup3\n      dup1\n      sload\n      tag_45\n      swap1\n      tag_31\n      jump\t// in\n    tag_45:\n      swap1\n      0x00\n      mstore\n      keccak256(0x00, 0x20)\n      swap1\n      0x1f\n      add\n      0x20\n      swap1\n      div\n      dup2\n      add\n      swap3\n      dup3\n      tag_47\n      jumpi\n      0x00\n      dup6\n      sstore\n      jump(tag_46)\n    tag_47:\n      dup3\n      0x1f\n      lt\n      tag_48\n      jumpi\n      dup1\n      mload\n      not(0xff)\n      and\n      dup4\n      dup1\n      add\n      or\n      dup6\n      sstore\n      jump(tag_46)\n    tag_48:\n      dup3\n      dup1\n      add\n      0x01\n      add\n      dup6\n      sstore\n      dup3\n      iszero\n      tag_46\n      jumpi\n      swap2\n      dup3\n      add\n    tag_49:\n      dup3\n      dup2\n      gt\n      iszero\n      tag_50\n      jumpi\n      dup3\n      mload\n      dup3\n      sstore\n      swap2\n      0x20\n      add\n      swap2\n      swap1\n      0x01\n      add\n      swap1\n      jump(tag_49)\n    tag_50:\n    tag_46:\n      pop\n      swap1\n      pop\n      tag_51\n      swap2\n      swap1\n      tag_52\n      jump\t// in\n    tag_51:\n      pop\n      swap1\n      jump\t// out\n    tag_44:\n      dup3\n      dup1\n      sload\n      tag_53\n      swap1\n      tag_31\n      jump\t// in\n    tag_53:\n      swap1\n      0x00\n      mstore\n      keccak256(0x00, 0x20)\n      swap1\n      0x1f\n      add\n      0x20\n      swap1\n      div\n      dup2\n      add\n      swap3\n      dup3\n      tag_55\n      jumpi\n      0x00\n      dup6\n      sstore\n      jump(tag_54)\n    tag_55:\n      dup3\n      0x1f\n      lt\n      tag_56\n      jumpi\n      dup1\n      calldataload\n      not(0xff)\n      and\n      dup4\n      dup1\n      add\n      or\n      dup6\n      sstore\n      jump(tag_54)\n    tag_56:\n      dup3\n      dup1\n      add\n      0x01\n      add\n      dup6\n      sstore\n      dup3\n      iszero\n      tag_54\n      jumpi\n      swap2\n      dup3\n      add\n    tag_57:\n      dup3\n      dup2\n      gt\n      iszero\n      tag_58\n      jumpi\n      dup3\n      calldataload\n      dup3\n      sstore\n      swap2\n      0x20\n      add\n      swap2\n      swap1\n      0x01\n      add\n      swap1\n      jump(tag_57)\n    tag_58:\n    tag_54:\n      pop\n      swap1\n      pop\n      tag_59\n      swap2\n      swap1\n      tag_52\n      jump\t// in\n    tag_59:\n      pop\n      swap1\n      jump\t// out\n    tag_52:\n    tag_60:\n      dup1\n      dup3\n      gt\n      iszero\n      tag_61\n      jumpi\n      0x00\n      dup2\n      0x00\n      swap1\n      sstore\n      pop\n      0x01\n      add\n      jump(tag_60)\n    tag_61:\n      pop\n      swap1\n      jump\t// out\n        /* \"#utility.yul\":88:205   */\n    tag_63:\n        /* \"#utility.yul\":197:198   */\n      0x00\n        /* \"#utility.yul\":194:195   */\n      dup1\n        /* \"#utility.yul\":187:199   */\n      revert\n        /* \"#utility.yul\":211:328   */\n    tag_64:\n        /* \"#utility.yul\":320:321   */\n      0x00\n        /* \"#utility.yul\":317:318   */\n      dup1\n        /* \"#utility.yul\":310:322   */\n      revert\n        /* \"#utility.yul\":334:451   */\n    tag_65:\n        /* \"#utility.yul\":443:444   */\n      0x00\n        /* \"#utility.yul\":440:441   */\n      dup1\n        /* \"#utility.yul\":433:445   */\n      revert\n        /* \"#utility.yul\":457:574   */\n    tag_66:\n        /* \"#utility.yul\":566:567   */\n      0x00\n        /* \"#utility.yul\":563:564   */\n      dup1\n        /* \"#utility.yul\":556:568   */\n      revert\n        /* \"#utility.yul\":580:697   */\n    tag_67:\n        /* \"#utility.yul\":689:690   */\n      0x00\n        /* \"#utility.yul\":686:687   */\n      dup1\n        /* \"#utility.yul\":679:691   */\n      revert\n        /* \"#utility.yul\":717:1270   */\n    tag_68:\n        /* \"#utility.yul\":775:783   */\n      0x00\n        /* \"#utility.yul\":785:791   */\n      dup1\n        /* \"#utility.yul\":835:838   */\n      dup4\n        /* \"#utility.yul\":828:832   */\n      0x1f\n        /* \"#utility.yul\":820:826   */\n      dup5\n        /* \"#utility.yul\":816:833   */\n      add\n        /* \"#utility.yul\":812:839   */\n      slt\n        /* \"#utility.yul\":802:924   */\n      tag_93\n      jumpi\n        /* \"#utility.yul\":843:922   */\n      tag_94\n      tag_65\n      jump\t// in\n    tag_94:\n        /* \"#utility.yul\":802:924   */\n    tag_93:\n        /* \"#utility.yul\":956:962   */\n      dup3\n        /* \"#utility.yul\":943:963   */\n      calldataload\n        /* \"#utility.yul\":933:963   */\n      swap1\n      pop\n        /* \"#utility.yul\":986:1004   */\n      0xffffffffffffffff\n        /* \"#utility.yul\":978:984   */\n      dup2\n        /* \"#utility.yul\":975:1005   */\n      gt\n        /* \"#utility.yul\":972:1089   */\n      iszero\n      tag_95\n      jumpi\n        /* \"#utility.yul\":1008:1087   */\n      tag_96\n      tag_66\n      jump\t// in\n    tag_96:\n        /* \"#utility.yul\":972:1089   */\n    tag_95:\n        /* \"#utility.yul\":1122:1126   */\n      0x20\n        /* \"#utility.yul\":1114:1120   */\n      dup4\n        /* \"#utility.yul\":1110:1127   */\n      add\n        /* \"#utility.yul\":1098:1127   */\n      swap2\n      pop\n        /* \"#utility.yul\":1176:1179   */\n      dup4\n        /* \"#utility.yul\":1168:1172   */\n      0x01\n        /* \"#utility.yul\":1160:1166   */\n      dup3\n        /* \"#utility.yul\":1156:1173   */\n      mul\n        /* \"#utility.yul\":1146:1154   */\n      dup4\n        /* \"#utility.yul\":1142:1174   */\n      add\n        /* \"#utility.yul\":1139:1180   */\n      gt\n        /* \"#utility.yul\":1136:1264   */\n      iszero\n      tag_97\n      jumpi\n        /* \"#utility.yul\":1183:1262   */\n      tag_98\n      tag_67\n      jump\t// in\n    tag_98:\n        /* \"#utility.yul\":1136:1264   */\n    tag_97:\n        /* \"#utility.yul\":717:1270   */\n      swap3\n      pop\n      swap3\n      swap1\n      pop\n      jump\t// out\n        /* \"#utility.yul\":1276:1362   */\n    tag_69:\n        /* \"#utility.yul\":1311:1318   */\n      0x00\n        /* \"#utility.yul\":1351:1355   */\n      0xff\n        /* \"#utility.yul\":1344:1349   */\n      dup3\n        /* \"#utility.yul\":1340:1356   */\n      and\n        /* \"#utility.yul\":1329:1356   */\n      swap1\n      pop\n        /* \"#utility.yul\":1276:1362   */\n      swap2\n      swap1\n      pop\n      jump\t// out\n        /* \"#utility.yul\":1368:1486   */\n    tag_70:\n        /* \"#utility.yul\":1439:1461   */\n      tag_101\n        /* \"#utility.yul\":1455:1460   */\n      dup2\n        /* \"#utility.yul\":1439:1461   */\n      tag_69\n      jump\t// in\n    tag_101:\n        /* \"#utility.yul\":1432:1437   */\n      dup2\n        /* \"#utility.yul\":1429:1462   */\n      eq\n        /* \"#utility.yul\":1419:1480   */\n      tag_102\n      jumpi\n        /* \"#utility.yul\":1476:1477   */\n      0x00\n        /* \"#utility.yul\":1473:1474   */\n      dup1\n        /* \"#utility.yul\":1466:1478   */\n      revert\n        /* \"#utility.yul\":1419:1480   */\n    tag_102:\n        /* \"#utility.yul\":1368:1486   */\n      pop\n      jump\t// out\n        /* \"#utility.yul\":1492:1627   */\n    tag_71:\n        /* \"#utility.yul\":1536:1541   */\n      0x00\n        /* \"#utility.yul\":1574:1580   */\n      dup2\n        /* \"#utility.yul\":1561:1581   */\n      calldataload\n        /* \"#utility.yul\":1552:1581   */\n      swap1\n      pop\n        /* \"#utility.yul\":1590:1621   */\n      tag_104\n        /* \"#utility.yul\":1615:1620   */\n      dup2\n        /* \"#utility.yul\":1590:1621   */\n      tag_70\n      jump\t// in\n    tag_104:\n        /* \"#utility.yul\":1492:1627   */\n      swap3\n      swap2\n      pop\n      pop\n      jump\t// out\n        /* \"#utility.yul\":1633:1722   */\n    tag_72:\n        /* \"#utility.yul\":1669:1676   */\n      0x00\n        /* \"#utility.yul\":1709:1715   */\n      0xffff\n        /* \"#utility.yul\":1702:1707   */\n      dup3\n        /* \"#utility.yul\":1698:1716   */\n      and\n        /* \"#utility.yul\":1687:1716   */\n      swap1\n      pop\n        /* \"#utility.yul\":1633:1722   */\n      swap2\n      swap1\n      pop\n      jump\t// out\n        /* \"#utility.yul\":1728:1848   */\n    tag_73:\n        /* \"#utility.yul\":1800:1823   */\n      tag_107\n        /* \"#utility.yul\":1817:1822   */\n      dup2\n        /* \"#utility.yul\":1800:1823   */\n      tag_72\n      jump\t// in\n    tag_107:\n        /* \"#utility.yul\":1793:1798   */\n      dup2\n        /* \"#utility.yul\":1790:1824   */\n      eq\n        /* \"#utility.yul\":1780:1842   */\n      tag_108\n      jumpi\n        /* \"#utility.yul\":1838:1839   */\n      0x00\n        /* \"#utility.yul\":1835:1836   */\n      dup1\n        /* \"#utility.yul\":1828:1840   */\n      revert\n        /* \"#utility.yul\":1780:1842   */\n    tag_108:\n        /* \"#utility.yul\":1728:1848   */\n      pop\n      jump\t// out\n        /* \"#utility.yul\":1854:1991   */\n    tag_74:\n        /* \"#utility.yul\":1899:1904   */\n      0x00\n        /* \"#utility.yul\":1937:1943   */\n      dup2\n        /* \"#utility.yul\":1924:1944   */\n      calldataload\n        /* \"#utility.yul\":1915:1944   */\n      swap1\n      pop\n        /* \"#utility.yul\":1953:1985   */\n      tag_110\n        /* \"#utility.yul\":1979:1984   */\n      dup2\n        /* \"#utility.yul\":1953:1985   */\n      tag_73\n      jump\t// in\n    tag_110:\n        /* \"#utility.yul\":1854:1991   */\n      swap3\n      swap2\n      pop\n      pop\n      jump\t// out\n        /* \"#utility.yul\":1997:2810   */\n    tag_9:\n        /* \"#utility.yul\":2083:2089   */\n      0x00\n        /* \"#utility.yul\":2091:2097   */\n      dup1\n        /* \"#utility.yul\":2099:2105   */\n      0x00\n        /* \"#utility.yul\":2107:2113   */\n      dup1\n        /* \"#utility.yul\":2156:2158   */\n      0x60\n        /* \"#utility.yul\":2144:2153   */\n      dup6\n        /* \"#utility.yul\":2135:2142   */\n      dup8\n        /* \"#utility.yul\":2131:2154   */\n      sub\n        /* \"#utility.yul\":2127:2159   */\n      slt\n        /* \"#utility.yul\":2124:2243   */\n      iszero\n      tag_112\n      jumpi\n        /* \"#utility.yul\":2162:2241   */\n      tag_113\n      tag_63\n      jump\t// in\n    tag_113:\n        /* \"#utility.yul\":2124:2243   */\n    tag_112:\n        /* \"#utility.yul\":2310:2311   */\n      0x00\n        /* \"#utility.yul\":2299:2308   */\n      dup6\n        /* \"#utility.yul\":2295:2312   */\n      add\n        /* \"#utility.yul\":2282:2313   */\n      calldataload\n        /* \"#utility.yul\":2340:2358   */\n      0xffffffffffffffff\n        /* \"#utility.yul\":2332:2338   */\n      dup2\n        /* \"#utility.yul\":2329:2359   */\n      gt\n        /* \"#utility.yul\":2326:2443   */\n      iszero\n      tag_114\n      jumpi\n        /* \"#utility.yul\":2362:2441   */\n      tag_115\n      tag_64\n      jump\t// in\n    tag_115:\n        /* \"#utility.yul\":2326:2443   */\n    tag_114:\n        /* \"#utility.yul\":2475:2540   */\n      tag_116\n        /* \"#utility.yul\":2532:2539   */\n      dup8\n        /* \"#utility.yul\":2523:2529   */\n      dup3\n        /* \"#utility.yul\":2512:2521   */\n      dup9\n        /* \"#utility.yul\":2508:2530   */\n      add\n        /* \"#utility.yul\":2475:2540   */\n      tag_68\n      jump\t// in\n    tag_116:\n        /* \"#utility.yul\":2457:2540   */\n      swap5\n      pop\n      swap5\n      pop\n        /* \"#utility.yul\":2253:2550   */\n      pop\n        /* \"#utility.yul\":2589:2591   */\n      0x20\n        /* \"#utility.yul\":2615:2666   */\n      tag_117\n        /* \"#utility.yul\":2658:2665   */\n      dup8\n        /* \"#utility.yul\":2649:2655   */\n      dup3\n        /* \"#utility.yul\":2638:2647   */\n      dup9\n        /* \"#utility.yul\":2634:2656   */\n      add\n        /* \"#utility.yul\":2615:2666   */\n      tag_71\n      jump\t// in\n    tag_117:\n        /* \"#utility.yul\":2605:2666   */\n      swap3\n      pop\n        /* \"#utility.yul\":2560:2676   */\n      pop\n        /* \"#utility.yul\":2715:2717   */\n      0x40\n        /* \"#utility.yul\":2741:2793   */\n      tag_118\n        /* \"#utility.yul\":2785:2792   */\n      dup8\n        /* \"#utility.yul\":2776:2782   */\n      dup3\n        /* \"#utility.yul\":2765:2774   */\n      dup9\n        /* \"#utility.yul\":2761:2783   */\n      add\n        /* \"#utility.yul\":2741:2793   */\n      tag_74\n      jump\t// in\n    tag_118:\n        /* \"#utility.yul\":2731:2793   */\n      swap2\n      pop\n        /* \"#utility.yul\":2686:2803   */\n      pop\n        /* \"#utility.yul\":1997:2810   */\n      swap3\n      swap6\n      swap2\n      swap5\n      pop\n      swap3\n      pop\n      jump\t// out\n        /* \"#utility.yul\":2816:2893   */\n    tag_75:\n        /* \"#utility.yul\":2853:2860   */\n      0x00\n        /* \"#utility.yul\":2882:2887   */\n      dup2\n        /* \"#utility.yul\":2871:2887   */\n      swap1\n      pop\n        /* \"#utility.yul\":2816:2893   */\n      swap2\n      swap1\n      pop\n      jump\t// out\n        /* \"#utility.yul\":2899:3021   */\n    tag_76:\n        /* \"#utility.yul\":2972:2996   */\n      tag_121\n        /* \"#utility.yul\":2990:2995   */\n      dup2\n        /* \"#utility.yul\":2972:2996   */\n      tag_75\n      jump\t// in\n    tag_121:\n        /* \"#utility.yul\":2965:2970   */\n      dup2\n        /* \"#utility.yul\":2962:2997   */\n      eq\n        /* \"#utility.yul\":2952:3015   */\n      tag_122\n      jumpi\n        /* \"#utility.yul\":3011:3012   */\n      0x00\n        /* \"#utility.yul\":3008:3009   */\n      dup1\n        /* \"#utility.yul\":3001:3013   */\n      revert\n        /* \"#utility.yul\":2952:3015   */\n    tag_122:\n        /* \"#utility.yul\":2899:3021   */\n      pop\n      jump\t// out\n        /* \"#utility.yul\":3027:3166   */\n    tag_77:\n        /* \"#utility.yul\":3073:3078   */\n      0x00\n        /* \"#utility.yul\":3111:3117   */\n      dup2\n        /* \"#utility.yul\":3098:3118   */\n      calldataload\n        /* \"#utility.yul\":3089:3118   */\n      swap1\n      pop\n        /* \"#utility.yul\":3127:3160   */\n      tag_124\n        /* \"#utility.yul\":3154:3159   */\n      dup2\n        /* \"#utility.yul\":3127:3160   */\n      tag_76\n      jump\t// in\n    tag_124:\n        /* \"#utility.yul\":3027:3166   */\n      swap3\n      swap2\n      pop\n      pop\n      jump\t// out\n        /* \"#utility.yul\":3172:4131   */\n    tag_13:\n        /* \"#utility.yul\":3267:3273   */\n      0x00\n        /* \"#utility.yul\":3275:3281   */\n      dup1\n        /* \"#utility.yul\":3283:3289   */\n      0x00\n        /* \"#utility.yul\":3291:3297   */\n      dup1\n        /* \"#utility.yul\":3299:3305   */\n      0x00\n        /* \"#utility.yul\":3348:3351   */\n      0x80\n        /* \"#utility.yul\":3336:3345   */\n      dup7\n        /* \"#utility.yul\":3327:3334   */\n      dup9\n        /* \"#utility.yul\":3323:3346   */\n      sub\n        /* \"#utility.yul\":3319:3352   */\n      slt\n        /* \"#utility.yul\":3316:3436   */\n      iszero\n      tag_126\n      jumpi\n        /* \"#utility.yul\":3355:3434   */\n      tag_127\n      tag_63\n      jump\t// in\n    tag_127:\n        /* \"#utility.yul\":3316:3436   */\n    tag_126:\n        /* \"#utility.yul\":3475:3476   */\n      0x00\n        /* \"#utility.yul\":3500:3553   */\n      tag_128\n        /* \"#utility.yul\":3545:3552   */\n      dup9\n        /* \"#utility.yul\":3536:3542   */\n      dup3\n        /* \"#utility.yul\":3525:3534   */\n      dup10\n        /* \"#utility.yul\":3521:3543   */\n      add\n        /* \"#utility.yul\":3500:3553   */\n      tag_77\n      jump\t// in\n    tag_128:\n        /* \"#utility.yul\":3490:3553   */\n      swap6\n      pop\n        /* \"#utility.yul\":3446:3563   */\n      pop\n        /* \"#utility.yul\":3630:3632   */\n      0x20\n        /* \"#utility.yul\":3619:3628   */\n      dup7\n        /* \"#utility.yul\":3615:3633   */\n      add\n        /* \"#utility.yul\":3602:3634   */\n      calldataload\n        /* \"#utility.yul\":3661:3679   */\n      0xffffffffffffffff\n        /* \"#utility.yul\":3653:3659   */\n      dup2\n        /* \"#utility.yul\":3650:3680   */\n      gt\n        /* \"#utility.yul\":3647:3764   */\n      iszero\n      tag_129\n      jumpi\n        /* \"#utility.yul\":3683:3762   */\n      tag_130\n      tag_64\n      jump\t// in\n    tag_130:\n        /* \"#utility.yul\":3647:3764   */\n    tag_129:\n        /* \"#utility.yul\":3796:3861   */\n      tag_131\n        /* \"#utility.yul\":3853:3860   */\n      dup9\n        /* \"#utility.yul\":3844:3850   */\n      dup3\n        /* \"#utility.yul\":3833:3842   */\n      dup10\n        /* \"#utility.yul\":3829:3851   */\n      add\n        /* \"#utility.yul\":3796:3861   */\n      tag_68\n      jump\t// in\n    tag_131:\n        /* \"#utility.yul\":3778:3861   */\n      swap5\n      pop\n      swap5\n      pop\n        /* \"#utility.yul\":3573:3871   */\n      pop\n        /* \"#utility.yul\":3910:3912   */\n      0x40\n        /* \"#utility.yul\":3936:3987   */\n      tag_132\n        /* \"#utility.yul\":3979:3986   */\n      dup9\n        /* \"#utility.yul\":3970:3976   */\n      dup3\n        /* \"#utility.yul\":3959:3968   */\n      dup10\n        /* \"#utility.yul\":3955:3977   */\n      add\n        /* \"#utility.yul\":3936:3987   */\n      tag_71\n      jump\t// in\n    tag_132:\n        /* \"#utility.yul\":3926:3987   */\n      swap3\n      pop\n        /* \"#utility.yul\":3881:3997   */\n      pop\n        /* \"#utility.yul\":4036:4038   */\n      0x60\n        /* \"#utility.yul\":4062:4114   */\n      tag_133\n        /* \"#utility.yul\":4106:4113   */\n      dup9\n        /* \"#utility.yul\":4097:4103   */\n      dup3\n        /* \"#utility.yul\":4086:4095   */\n      dup10\n        /* \"#utility.yul\":4082:4104   */\n      add\n        /* \"#utility.yul\":4062:4114   */\n      tag_74\n      jump\t// in\n    tag_133:\n        /* \"#utility.yul\":4052:4114   */\n      swap2\n      pop\n        /* \"#utility.yul\":4007:4124   */\n      pop\n        /* \"#utility.yul\":3172:4131   */\n      swap3\n      swap6\n      pop\n      swap3\n      swap6\n      swap1\n      swap4\n      pop\n      jump\t// out\n        /* \"#utility.yul\":4137:4466   */\n    tag_17:\n        /* \"#utility.yul\":4196:4202   */\n      0x00\n        /* \"#utility.yul\":4245:4247   */\n      0x20\n        /* \"#utility.yul\":4233:4242   */\n      dup3\n        /* \"#utility.yul\":4224:4231   */\n      dup5\n        /* \"#utility.yul\":4220:4243   */\n      sub\n        /* \"#utility.yul\":4216:4248   */\n      slt\n        /* \"#utility.yul\":4213:4332   */\n      iszero\n      tag_135\n      jumpi\n        /* \"#utility.yul\":4251:4330   */\n      tag_136\n      tag_63\n      jump\t// in\n    tag_136:\n        /* \"#utility.yul\":4213:4332   */\n    tag_135:\n        /* \"#utility.yul\":4371:4372   */\n      0x00\n        /* \"#utility.yul\":4396:4449   */\n      tag_137\n        /* \"#utility.yul\":4441:4448   */\n      dup5\n        /* \"#utility.yul\":4432:4438   */\n      dup3\n        /* \"#utility.yul\":4421:4430   */\n      dup6\n        /* \"#utility.yul\":4417:4439   */\n      add\n        /* \"#utility.yul\":4396:4449   */\n      tag_77\n      jump\t// in\n    tag_137:\n        /* \"#utility.yul\":4386:4449   */\n      swap2\n      pop\n        /* \"#utility.yul\":4342:4459   */\n      pop\n        /* \"#utility.yul\":4137:4466   */\n      swap3\n      swap2\n      pop\n      pop\n      jump\t// out\n        /* \"#utility.yul\":4472:4571   */\n    tag_78:\n        /* \"#utility.yul\":4524:4530   */\n      0x00\n        /* \"#utility.yul\":4558:4563   */\n      dup2\n        /* \"#utility.yul\":4552:4564   */\n      mload\n        /* \"#utility.yul\":4542:4564   */\n      swap1\n      pop\n        /* \"#utility.yul\":4472:4571   */\n      swap2\n      swap1\n      pop\n      jump\t// out\n        /* \"#utility.yul\":4577:4746   */\n    tag_79:\n        /* \"#utility.yul\":4661:4672   */\n      0x00\n        /* \"#utility.yul\":4695:4701   */\n      dup3\n        /* \"#utility.yul\":4690:4693   */\n      dup3\n        /* \"#utility.yul\":4683:4702   */\n      mstore\n        /* \"#utility.yul\":4735:4739   */\n      0x20\n        /* \"#utility.yul\":4730:4733   */\n      dup3\n        /* \"#utility.yul\":4726:4740   */\n      add\n        /* \"#utility.yul\":4711:4740   */\n      swap1\n      pop\n        /* \"#utility.yul\":4577:4746   */\n      swap3\n      swap2\n      pop\n      pop\n      jump\t// out\n        /* \"#utility.yul\":4752:5059   */\n    tag_80:\n        /* \"#utility.yul\":4820:4821   */\n      0x00\n        /* \"#utility.yul\":4830:4943   */\n    tag_141:\n        /* \"#utility.yul\":4844:4850   */\n      dup4\n        /* \"#utility.yul\":4841:4842   */\n      dup2\n        /* \"#utility.yul\":4838:4851   */\n      lt\n        /* \"#utility.yul\":4830:4943   */\n      iszero\n      tag_143\n      jumpi\n        /* \"#utility.yul\":4929:4930   */\n      dup1\n        /* \"#utility.yul\":4924:4927   */\n      dup3\n        /* \"#utility.yul\":4920:4931   */\n      add\n        /* \"#utility.yul\":4914:4932   */\n      mload\n        /* \"#utility.yul\":4910:4911   */\n      dup2\n        /* \"#utility.yul\":4905:4908   */\n      dup5\n        /* \"#utility.yul\":4901:4912   */\n      add\n        /* \"#utility.yul\":4894:4933   */\n      mstore\n        /* \"#utility.yul\":4866:4868   */\n      0x20\n        /* \"#utility.yul\":4863:4864   */\n      dup2\n        /* \"#utility.yul\":4859:4869   */\n      add\n        /* \"#utility.yul\":4854:4869   */\n      swap1\n      pop\n        /* \"#utility.yul\":4830:4943   */\n      jump(tag_141)\n    tag_143:\n        /* \"#utility.yul\":4961:4967   */\n      dup4\n        /* \"#utility.yul\":4958:4959   */\n      dup2\n        /* \"#utility.yul\":4955:4968   */\n      gt\n        /* \"#utility.yul\":4952:5053   */\n      iszero\n      tag_144\n      jumpi\n        /* \"#utility.yul\":5041:5042   */\n      0x00\n        /* \"#utility.yul\":5032:5038   */\n      dup5\n        /* \"#utility.yul\":5027:5030   */\n      dup5\n        /* \"#utility.yul\":5023:5039   */\n      add\n        /* \"#utility.yul\":5016:5043   */\n      mstore\n        /* \"#utility.yul\":4952:5053   */\n    tag_144:\n        /* \"#utility.yul\":4801:5059   */\n      pop\n        /* \"#utility.yul\":4752:5059   */\n      pop\n      pop\n      pop\n      jump\t// out\n        /* \"#utility.yul\":5065:5167   */\n    tag_81:\n        /* \"#utility.yul\":5106:5112   */\n      0x00\n        /* \"#utility.yul\":5157:5159   */\n      0x1f\n        /* \"#utility.yul\":5153:5160   */\n      not\n        /* \"#utility.yul\":5148:5150   */\n      0x1f\n        /* \"#utility.yul\":5141:5146   */\n      dup4\n        /* \"#utility.yul\":5137:5151   */\n      add\n        /* \"#utility.yul\":5133:5161   */\n      and\n        /* \"#utility.yul\":5123:5161   */\n      swap1\n      pop\n        /* \"#utility.yul\":5065:5167   */\n      swap2\n      swap1\n      pop\n      jump\t// out\n        /* \"#utility.yul\":5173:5537   */\n    tag_82:\n        /* \"#utility.yul\":5261:5264   */\n      0x00\n        /* \"#utility.yul\":5289:5328   */\n      tag_147\n        /* \"#utility.yul\":5322:5327   */\n      dup3\n        /* \"#utility.yul\":5289:5328   */\n      tag_78\n      jump\t// in\n    tag_147:\n        /* \"#utility.yul\":5344:5415   */\n      tag_148\n        /* \"#utility.yul\":5408:5414   */\n      dup2\n        /* \"#utility.yul\":5403:5406   */\n      dup6\n        /* \"#utility.yul\":5344:5415   */\n      tag_79\n      jump\t// in\n    tag_148:\n        /* \"#utility.yul\":5337:5415   */\n      swap4\n      pop\n        /* \"#utility.yul\":5424:5476   */\n      tag_149\n        /* \"#utility.yul\":5469:5475   */\n      dup2\n        /* \"#utility.yul\":5464:5467   */\n      dup6\n        /* \"#utility.yul\":5457:5461   */\n      0x20\n        /* \"#utility.yul\":5450:5455   */\n      dup7\n        /* \"#utility.yul\":5446:5462   */\n      add\n        /* \"#utility.yul\":5424:5476   */\n      tag_80\n      jump\t// in\n    tag_149:\n        /* \"#utility.yul\":5501:5530   */\n      tag_150\n        /* \"#utility.yul\":5523:5529   */\n      dup2\n        /* \"#utility.yul\":5501:5530   */\n      tag_81\n      jump\t// in\n    tag_150:\n        /* \"#utility.yul\":5496:5499   */\n      dup5\n        /* \"#utility.yul\":5492:5531   */\n      add\n        /* \"#utility.yul\":5485:5531   */\n      swap2\n      pop\n        /* \"#utility.yul\":5265:5537   */\n      pop\n        /* \"#utility.yul\":5173:5537   */\n      swap3\n      swap2\n      pop\n      pop\n      jump\t// out\n        /* \"#utility.yul\":5543:5856   */\n    tag_20:\n        /* \"#utility.yul\":5656:5660   */\n      0x00\n        /* \"#utility.yul\":5694:5696   */\n      0x20\n        /* \"#utility.yul\":5683:5692   */\n      dup3\n        /* \"#utility.yul\":5679:5697   */\n      add\n        /* \"#utility.yul\":5671:5697   */\n      swap1\n      pop\n        /* \"#utility.yul\":5743:5752   */\n      dup2\n        /* \"#utility.yul\":5737:5741   */\n      dup2\n        /* \"#utility.yul\":5733:5753   */\n      sub\n        /* \"#utility.yul\":5729:5730   */\n      0x00\n        /* \"#utility.yul\":5718:5727   */\n      dup4\n        /* \"#utility.yul\":5714:5731   */\n      add\n        /* \"#utility.yul\":5707:5754   */\n      mstore\n        /* \"#utility.yul\":5771:5849   */\n      tag_152\n        /* \"#utility.yul\":5844:5848   */\n      dup2\n        /* \"#utility.yul\":5835:5841   */\n      dup5\n        /* \"#utility.yul\":5771:5849   */\n      tag_82\n      jump\t// in\n    tag_152:\n        /* \"#utility.yul\":5763:5849   */\n      swap1\n      pop\n        /* \"#utility.yul\":5543:5856   */\n      swap3\n      swap2\n      pop\n      pop\n      jump\t// out\n        /* \"#utility.yul\":5862:6042   */\n    tag_83:\n        /* \"#utility.yul\":5910:5987   */\n      0x4e487b7100000000000000000000000000000000000000000000000000000000\n        /* \"#utility.yul\":5907:5908   */\n      0x00\n        /* \"#utility.yul\":5900:5988   */\n      mstore\n        /* \"#utility.yul\":6007:6011   */\n      0x11\n        /* \"#utility.yul\":6004:6005   */\n      0x04\n        /* \"#utility.yul\":5997:6012   */\n      mstore\n        /* \"#utility.yul\":6031:6035   */\n      0x24\n        /* \"#utility.yul\":6028:6029   */\n      0x00\n        /* \"#utility.yul\":6021:6036   */\n      revert\n        /* \"#utility.yul\":6048:6281   */\n    tag_26:\n        /* \"#utility.yul\":6087:6090   */\n      0x00\n        /* \"#utility.yul\":6110:6134   */\n      tag_155\n        /* \"#utility.yul\":6128:6133   */\n      dup3\n        /* \"#utility.yul\":6110:6134   */\n      tag_75\n      jump\t// in\n    tag_155:\n        /* \"#utility.yul\":6101:6134   */\n      swap2\n      pop\n        /* \"#utility.yul\":6156:6222   */\n      0xffffffffffffffffffffffffffffffffffffffffffffffffffffffffffffffff\n        /* \"#utility.yul\":6149:6154   */\n      dup3\n        /* \"#utility.yul\":6146:6223   */\n      eq\n        /* \"#utility.yul\":6143:6246   */\n      iszero\n      tag_156\n      jumpi\n        /* \"#utility.yul\":6226:6244   */\n      tag_157\n      tag_83\n      jump\t// in\n    tag_157:\n        /* \"#utility.yul\":6143:6246   */\n    tag_156:\n        /* \"#utility.yul\":6273:6274   */\n      0x01\n        /* \"#utility.yul\":6266:6271   */\n      dup3\n        /* \"#utility.yul\":6262:6275   */\n      add\n        /* \"#utility.yul\":6255:6275   */\n      swap1\n      pop\n        /* \"#utility.yul\":6048:6281   */\n      swap2\n      swap1\n      pop\n      jump\t// out\n        /* \"#utility.yul\":6287:6467   */\n    tag_84:\n        /* \"#utility.yul\":6335:6412   */\n      0x4e487b7100000000000000000000000000000000000000000000000000000000\n        /* \"#utility.yul\":6332:6333   */\n      0x00\n        /* \"#utility.yul\":6325:6413   */\n      mstore\n        /* \"#utility.yul\":6432:6436   */\n      0x22\n        /* \"#utility.yul\":6429:6430   */\n      0x04\n        /* \"#utility.yul\":6422:6437   */\n      mstore\n        /* \"#utility.yul\":6456:6460   */\n      0x24\n        /* \"#utility.yul\":6453:6454   */\n      0x00\n        /* \"#utility.yul\":6446:6461   */\n      revert\n        /* \"#utility.yul\":6473:6793   */\n    tag_31:\n        /* \"#utility.yul\":6517:6523   */\n      0x00\n        /* \"#utility.yul\":6554:6555   */\n      0x02\n        /* \"#utility.yul\":6548:6552   */\n      dup3\n        /* \"#utility.yul\":6544:6556   */\n      div\n        /* \"#utility.yul\":6534:6556   */\n      swap1\n      pop\n        /* \"#utility.yul\":6601:6602   */\n      0x01\n        /* \"#utility.yul\":6595:6599   */\n      dup3\n        /* \"#utility.yul\":6591:6603   */\n      and\n        /* \"#utility.yul\":6622:6640   */\n      dup1\n        /* \"#utility.yul\":6612:6693   */\n      tag_160\n      jumpi\n        /* \"#utility.yul\":6678:6682   */\n      0x7f\n        /* \"#utility.yul\":6670:6676   */\n      dup3\n        /* \"#utility.yul\":6666:6683   */\n      and\n        /* \"#utility.yul\":6656:6683   */\n      swap2\n      pop\n        /* \"#utility.yul\":6612:6693   */\n    tag_160:\n        /* \"#utility.yul\":6740:6742   */\n      0x20\n        /* \"#utility.yul\":6732:6738   */\n      dup3\n        /* \"#utility.yul\":6729:6743   */\n      lt\n        /* \"#utility.yul\":6709:6727   */\n      dup2\n        /* \"#utility.yul\":6706:6744   */\n      eq\n        /* \"#utility.yul\":6703:6787   */\n      iszero\n      tag_161\n      jumpi\n        /* \"#utility.yul\":6759:6777   */\n      tag_162\n      tag_84\n      jump\t// in\n    tag_162:\n        /* \"#utility.yul\":6703:6787   */\n    tag_161:\n        /* \"#utility.yul\":6524:6793   */\n      pop\n        /* \"#utility.yul\":6473:6793   */\n      swap2\n      swap1\n      pop\n      jump\t// out\n\n    auxdata: 0xa264697066735822122035da7adc67386e1f002d4d3eb8d09872d775d54a4644784ffce671973a52da1564736f6c634300080b0033\n}\n",
				"bytecode": {
					"linkReferences": {},
					"object": "60806040526000805534801561001457600080fd5b5061098a806100246000396000f3fe608060405234801561001057600080fd5b506004361061004c5760003560e01c80631bc3115e146100515780633b5625b61461006d578063adb62cc914610089578063dfc64a4a146100b9575b600080fd5b61006b60048036038101906100669190610661565b6100d5565b005b6100876004803603810190610082919061070b565b6101d3565b005b6100a3600480360381019061009e9190610793565b61033f565b6040516100b09190610859565b60405180910390f35b6100d360048036038101906100ce919061070b565b6103e7565b005b60008060008154809291906100e9906108aa565b91905055905060405180606001604052808460ff1681526020018361ffff16815260200186868080601f016020809104026020016040519081016040528093929190818152602001838380828437600081840152601f19601f820116905080830192505050505050508152506001600083815260200190815260200160002060008201518160000160006101000a81548160ff021916908360ff16021790555060208201518160000160016101000a81548161ffff021916908361ffff16021790555060408201518160010190805190602001906101c8929190610456565b509050505050505050565b6000600160008781526020019081526020016000206040518060600160405290816000820160009054906101000a900460ff1660ff1660ff1681526020016000820160019054906101000a900461ffff1661ffff1661ffff16815260200160018201805461024090610922565b80601f016020809104026020016040519081016040528092919081815260200182805461026c90610922565b80156102b95780601f1061028e576101008083540402835291602001916102b9565b820191906000526020600020905b81548152906001019060200180831161029c57829003601f168201915b505050505081525050905084848080601f016020809104026020016040519081016040528093929190818152602001838380828437600081840152601f19601f82011690508083019250505050505050816040018190525082816000019060ff16908160ff168152505081816020019061ffff16908161ffff1681525050505050505050565b606060016000838152602001908152602001600020600101805461036290610922565b80601f016020809104026020016040519081016040528092919081815260200182805461038e90610922565b80156103db5780601f106103b0576101008083540402835291602001916103db565b820191906000526020600020905b8154815290600101906020018083116103be57829003601f168201915b50505050509050919050565b600060016000878152602001908152602001600020905084848260010191906104119291906104dc565b50828160000160006101000a81548160ff021916908360ff160217905550818160000160016101000a81548161ffff021916908361ffff160217905550505050505050565b82805461046290610922565b90600052602060002090601f01602090048101928261048457600085556104cb565b82601f1061049d57805160ff19168380011785556104cb565b828001600101855582156104cb579182015b828111156104ca5782518255916020019190600101906104af565b5b5090506104d89190610562565b5090565b8280546104e890610922565b90600052602060002090601f01602090048101928261050a5760008555610551565b82601f1061052357803560ff1916838001178555610551565b82800160010185558215610551579182015b82811115610550578235825591602001919060010190610535565b5b50905061055e9190610562565b5090565b5b8082111561057b576000816000905550600101610563565b5090565b600080fd5b600080fd5b600080fd5b600080fd5b600080fd5b60008083601f8401126105ae576105ad610589565b5b8235905067ffffffffffffffff8111156105cb576105ca61058e565b5b6020830191508360018202830111156105e7576105e6610593565b5b9250929050565b600060ff82169050919050565b610604816105ee565b811461060f57600080fd5b50565b600081359050610621816105fb565b92915050565b600061ffff82169050919050565b61063e81610627565b811461064957600080fd5b50565b60008135905061065b81610635565b92915050565b6000806000806060858703121561067b5761067a61057f565b5b600085013567ffffffffffffffff81111561069957610698610584565b5b6106a587828801610598565b945094505060206106b887828801610612565b92505060406106c98782880161064c565b91505092959194509250565b6000819050919050565b6106e8816106d5565b81146106f357600080fd5b50565b600081359050610705816106df565b92915050565b6000806000806000608086880312156107275761072661057f565b5b6000610735888289016106f6565b955050602086013567ffffffffffffffff81111561075657610755610584565b5b61076288828901610598565b9450945050604061077588828901610612565b92505060606107868882890161064c565b9150509295509295909350565b6000602082840312156107a9576107a861057f565b5b60006107b7848285016106f6565b91505092915050565b600081519050919050565b600082825260208201905092915050565b60005b838110156107fa5780820151818401526020810190506107df565b83811115610809576000848401525b50505050565b6000601f19601f8301169050919050565b600061082b826107c0565b61083581856107cb565b93506108458185602086016107dc565b61084e8161080f565b840191505092915050565b600060208201905081810360008301526108738184610820565b905092915050565b7f4e487b7100000000000000000000000000000000000000000000000000000000600052601160045260246000fd5b60006108b5826106d5565b91507fffffffffffffffffffffffffffffffffffffffffffffffffffffffffffffffff8214156108e8576108e761087b565b5b600182019050919050565b7f4e487b7100000000000000000000000000000000000000000000000000000000600052602260045260246000fd5b6000600282049050600182168061093a57607f821691505b6020821081141561094e5761094d6108f3565b5b5091905056fea264697066735822122035da7adc67386e1f002d4d3eb8d09872d775d54a4644784ffce671973a52da1564736f6c634300080b0033",
					"opcodes": "PUSH1 0x80 PUSH1 0x40 MSTORE PUSH1 0x0 DUP1 SSTORE CALLVALUE DUP1 ISZERO PUSH2 0x14 JUMPI PUSH1 0x0 DUP1 REVERT JUMPDEST POP PUSH2 0x98A DUP1 PUSH2 0x24 PUSH1 0x0 CODECOPY PUSH1 0x0 RETURN INVALID PUSH1 0x80 PUSH1 0x40 MSTORE CALLVALUE DUP1 ISZERO PUSH2 0x10 JUMPI PUSH1 0x0 DUP1 REVERT JUMPDEST POP PUSH1 0x4 CALLDATASIZE LT PUSH2 0x4C JUMPI PUSH1 0x0 CALLDATALOAD PUSH1 0xE0 SHR DUP1 PUSH4 0x1BC3115E EQ PUSH2 0x51 JUMPI DUP1 PUSH4 0x3B5625B6 EQ PUSH2 0x6D JUMPI DUP1 PUSH4 0xADB62CC9 EQ PUSH2 0x89 JUMPI DUP1 PUSH4 0xDFC64A4A EQ PUSH2 0xB9 JUMPI JUMPDEST PUSH1 0x0 DUP1 REVERT JUMPDEST PUSH2 0x6B PUSH1 0x4 DUP1 CALLDATASIZE SUB DUP2 ADD SWAP1 PUSH2 0x66 SWAP2 SWAP1 PUSH2 0x661 JUMP JUMPDEST PUSH2 0xD5 JUMP JUMPDEST STOP JUMPDEST PUSH2 0x87 PUSH1 0x4 DUP1 CALLDATASIZE SUB DUP2 ADD SWAP1 PUSH2 0x82 SWAP2 SWAP1 PUSH2 0x70B JUMP JUMPDEST PUSH2 0x1D3 JUMP JUMPDEST STOP JUMPDEST PUSH2 0xA3 PUSH1 0x4 DUP1 CALLDATASIZE SUB DUP2 ADD SWAP1 PUSH2 0x9E SWAP2 SWAP1 PUSH2 0x793 JUMP JUMPDEST PUSH2 0x33F JUMP JUMPDEST PUSH1 0x40 MLOAD PUSH2 0xB0 SWAP2 SWAP1 PUSH2 0x859 JUMP JUMPDEST PUSH1 0x40 MLOAD DUP1 SWAP2 SUB SWAP1 RETURN JUMPDEST PUSH2 0xD3 PUSH1 0x4 DUP1 CALLDATASIZE SUB DUP2 ADD SWAP1 PUSH2 0xCE SWAP2 SWAP1 PUSH2 0x70B JUMP JUMPDEST PUSH2 0x3E7 JUMP JUMPDEST STOP JUMPDEST PUSH1 0x0 DUP1 PUSH1 0x0 DUP2 SLOAD DUP1 SWAP3 SWAP2 SWAP1 PUSH2 0xE9 SWAP1 PUSH2 0x8AA JUMP JUMPDEST SWAP2 SWAP1 POP SSTORE SWAP1 POP PUSH1 0x40 MLOAD DUP1 PUSH1 0x60 ADD PUSH1 0x40 MSTORE DUP1 DUP5 PUSH1 0xFF AND DUP2 MSTORE PUSH1 0x20 ADD DUP4 PUSH2 0xFFFF AND DUP2 MSTORE PUSH1 0x20 ADD DUP7 DUP7 DUP1 DUP1 PUSH1 0x1F ADD PUSH1 0x20 DUP1 SWAP2 DIV MUL PUSH1 0x20 ADD PUSH1 0x40 MLOAD SWAP1 DUP2 ADD PUSH1 0x40 MSTORE DUP1 SWAP4 SWAP3 SWAP2 SWAP1 DUP2 DUP2 MSTORE PUSH1 0x20 ADD DUP4 DUP4 DUP1 DUP3 DUP5 CALLDATACOPY PUSH1 0x0 DUP2 DUP5 ADD MSTORE PUSH1 0x1F NOT PUSH1 0x1F DUP3 ADD AND SWAP1 POP DUP1 DUP4 ADD SWAP3 POP POP POP POP POP POP POP DUP2 MSTORE POP PUSH1 0x1 PUSH1 0x0 DUP4 DUP2 MSTORE PUSH1 0x20 ADD SWAP1 DUP2 MSTORE PUSH1 0x20 ADD PUSH1 0x0 KECCAK256 PUSH1 0x0 DUP3 ADD MLOAD DUP2 PUSH1 0x0 ADD PUSH1 0x0 PUSH2 0x100 EXP DUP2 SLOAD DUP2 PUSH1 0xFF MUL NOT AND SWAP1 DUP4 PUSH1 0xFF AND MUL OR SWAP1 SSTORE POP PUSH1 0x20 DUP3 ADD MLOAD DUP2 PUSH1 0x0 ADD PUSH1 0x1 PUSH2 0x100 EXP DUP2 SLOAD DUP2 PUSH2 0xFFFF MUL NOT AND SWAP1 DUP4 PUSH2 0xFFFF AND MUL OR SWAP1 SSTORE POP PUSH1 0x40 DUP3 ADD MLOAD DUP2 PUSH1 0x1 ADD SWAP1 DUP1 MLOAD SWAP1 PUSH1 0x20 ADD SWAP1 PUSH2 0x1C8 SWAP3 SWAP2 SWAP1 PUSH2 0x456 JUMP JUMPDEST POP SWAP1 POP POP POP POP POP POP POP JUMP JUMPDEST PUSH1 0x0 PUSH1 0x1 PUSH1 0x0 DUP8 DUP2 MSTORE PUSH1 0x20 ADD SWAP1 DUP2 MSTORE PUSH1 0x20 ADD PUSH1 0x0 KECCAK256 PUSH1 0x40 MLOAD DUP1 PUSH1 0x60 ADD PUSH1 0x40 MSTORE SWAP1 DUP2 PUSH1 0x0 DUP3 ADD PUSH1 0x0 SWAP1 SLOAD SWAP1 PUSH2 0x100 EXP SWAP1 DIV PUSH1 0xFF AND PUSH1 0xFF AND PUSH1 0xFF AND DUP2 MSTORE PUSH1 0x20 ADD PUSH1 0x0 DUP3 ADD PUSH1 0x1 SWAP1 SLOAD SWAP1 PUSH2 0x100 EXP SWAP1 DIV PUSH2 0xFFFF AND PUSH2 0xFFFF AND PUSH2 0xFFFF AND DUP2 MSTORE PUSH1 0x20 ADD PUSH1 0x1 DUP3 ADD DUP1 SLOAD PUSH2 0x240 SWAP1 PUSH2 0x922 JUMP JUMPDEST DUP1 PUSH1 0x1F ADD PUSH1 0x20 DUP1 SWAP2 DIV MUL PUSH1 0x20 ADD PUSH1 0x40 MLOAD SWAP1 DUP2 ADD PUSH1 0x40 MSTORE DUP1 SWAP3 SWAP2 SWAP1 DUP2 DUP2 MSTORE PUSH1 0x20 ADD DUP3 DUP1 SLOAD PUSH2 0x26C SWAP1 PUSH2 0x922 JUMP JUMPDEST DUP1 ISZERO PUSH2 0x2B9 JUMPI DUP1 PUSH1 0x1F LT PUSH2 0x28E JUMPI PUSH2 0x100 DUP1 DUP4 SLOAD DIV MUL DUP4 MSTORE SWAP2 PUSH1 0x20 ADD SWAP2 PUSH2 0x2B9 JUMP JUMPDEST DUP3 ADD SWAP2 SWAP1 PUSH1 0x0 MSTORE PUSH1 0x20 PUSH1 0x0 KECCAK256 SWAP1 JUMPDEST DUP2 SLOAD DUP2 MSTORE SWAP1 PUSH1 0x1 ADD SWAP1 PUSH1 0x20 ADD DUP1 DUP4 GT PUSH2 0x29C JUMPI DUP3 SWAP1 SUB PUSH1 0x1F AND DUP3 ADD SWAP2 JUMPDEST POP POP POP POP POP DUP2 MSTORE POP POP SWAP1 POP DUP5 DUP5 DUP1 DUP1 PUSH1 0x1F ADD PUSH1 0x20 DUP1 SWAP2 DIV MUL PUSH1 0x20 ADD PUSH1 0x40 MLOAD SWAP1 DUP2 ADD PUSH1 0x40 MSTORE DUP1 SWAP4 SWAP3 SWAP2 SWAP1 DUP2 DUP2 MSTORE PUSH1 0x20 ADD DUP4 DUP4 DUP1 DUP3 DUP5 CALLDATACOPY PUSH1 0x0 DUP2 DUP5 ADD MSTORE PUSH1 0x1F NOT PUSH1 0x1F DUP3 ADD AND SWAP1 POP DUP1 DUP4 ADD SWAP3 POP POP POP POP POP POP POP DUP2 PUSH1 0x40 ADD DUP2 SWAP1 MSTORE POP DUP3 DUP2 PUSH1 0x0 ADD SWAP1 PUSH1 0xFF AND SWAP1 DUP2 PUSH1 0xFF AND DUP2 MSTORE POP POP DUP2 DUP2 PUSH1 0x20 ADD SWAP1 PUSH2 0xFFFF AND SWAP1 DUP2 PUSH2 0xFFFF AND DUP2 MSTORE POP POP POP POP POP POP POP POP JUMP JUMPDEST PUSH1 0x60 PUSH1 0x1 PUSH1 0x0 DUP4 DUP2 MSTORE PUSH1 0x20 ADD SWAP1 DUP2 MSTORE PUSH1 0x20 ADD PUSH1 0x0 KECCAK256 PUSH1 0x1 ADD DUP1 SLOAD PUSH2 0x362 SWAP1 PUSH2 0x922 JUMP JUMPDEST DUP1 PUSH1 0x1F ADD PUSH1 0x20 DUP1 SWAP2 DIV MUL PUSH1 0x20 ADD PUSH1 0x40 MLOAD SWAP1 DUP2 ADD PUSH1 0x40 MSTORE DUP1 SWAP3 SWAP2 SWAP1 DUP2 DUP2 MSTORE PUSH1 0x20 ADD DUP3 DUP1 SLOAD PUSH2 0x38E SWAP1 PUSH2 0x922 JUMP JUMPDEST DUP1 ISZERO PUSH2 0x3DB JUMPI DUP1 PUSH1 0x1F LT PUSH2 0x3B0 JUMPI PUSH2 0x100 DUP1 DUP4 SLOAD DIV MUL DUP4 MSTORE SWAP2 PUSH1 0x20 ADD SWAP2 PUSH2 0x3DB JUMP JUMPDEST DUP3 ADD SWAP2 SWAP1 PUSH1 0x0 MSTORE PUSH1 0x20 PUSH1 0x0 KECCAK256 SWAP1 JUMPDEST DUP2 SLOAD DUP2 MSTORE SWAP1 PUSH1 0x1 ADD SWAP1 PUSH1 0x20 ADD DUP1 DUP4 GT PUSH2 0x3BE JUMPI DUP3 SWAP1 SUB PUSH1 0x1F AND DUP3 ADD SWAP2 JUMPDEST POP POP POP POP POP SWAP1 POP SWAP2 SWAP1 POP JUMP JUMPDEST PUSH1 0x0 PUSH1 0x1 PUSH1 0x0 DUP8 DUP2 MSTORE PUSH1 0x20 ADD SWAP1 DUP2 MSTORE PUSH1 0x20 ADD PUSH1 0x0 KECCAK256 SWAP1 POP DUP5 DUP5 DUP3 PUSH1 0x1 ADD SWAP2 SWAP1 PUSH2 0x411 SWAP3 SWAP2 SWAP1 PUSH2 0x4DC JUMP JUMPDEST POP DUP3 DUP2 PUSH1 0x0 ADD PUSH1 0x0 PUSH2 0x100 EXP DUP2 SLOAD DUP2 PUSH1 0xFF MUL NOT AND SWAP1 DUP4 PUSH1 0xFF AND MUL OR SWAP1 SSTORE POP DUP2 DUP2 PUSH1 0x0 ADD PUSH1 0x1 PUSH2 0x100 EXP DUP2 SLOAD DUP2 PUSH2 0xFFFF MUL NOT AND SWAP1 DUP4 PUSH2 0xFFFF AND MUL OR SWAP1 SSTORE POP POP POP POP POP POP POP JUMP JUMPDEST DUP3 DUP1 SLOAD PUSH2 0x462 SWAP1 PUSH2 0x922 JUMP JUMPDEST SWAP1 PUSH1 0x0 MSTORE PUSH1 0x20 PUSH1 0x0 KECCAK256 SWAP1 PUSH1 0x1F ADD PUSH1 0x20 SWAP1 DIV DUP2 ADD SWAP3 DUP3 PUSH2 0x484 JUMPI PUSH1 0x0 DUP6 SSTORE PUSH2 0x4CB JUMP JUMPDEST DUP3 PUSH1 0x1F LT PUSH2 0x49D JUMPI DUP1 MLOAD PUSH1 0xFF NOT AND DUP4 DUP1 ADD OR DUP6 SSTORE PUSH2 0x4CB JUMP JUMPDEST DUP3 DUP1 ADD PUSH1 0x1 ADD DUP6 SSTORE DUP3 ISZERO PUSH2 0x4CB JUMPI SWAP2 DUP3 ADD JUMPDEST DUP3 DUP2 GT ISZERO PUSH2 0x4CA JUMPI DUP3 MLOAD DUP3 SSTORE SWAP2 PUSH1 0x20 ADD SWAP2 SWAP1 PUSH1 0x1 ADD SWAP1 PUSH2 0x4AF JUMP JUMPDEST JUMPDEST POP SWAP1 POP PUSH2 0x4D8 SWAP2 SWAP1 PUSH2 0x562 JUMP JUMPDEST POP SWAP1 JUMP JUMPDEST DUP3 DUP1 SLOAD PUSH2 0x4E8 SWAP1 PUSH2 0x922 JUMP JUMPDEST SWAP1 PUSH1 0x0 MSTORE PUSH1 0x20 PUSH1 0x0 KECCAK256 SWAP1 PUSH1 0x1F ADD PUSH1 0x20 SWAP1 DIV DUP2 ADD SWAP3 DUP3 PUSH2 0x50A JUMPI PUSH1 0x0 DUP6 SSTORE PUSH2 0x551 JUMP JUMPDEST DUP3 PUSH1 0x1F LT PUSH2 0x523 JUMPI DUP1 CALLDATALOAD PUSH1 0xFF NOT AND DUP4 DUP1 ADD OR DUP6 SSTORE PUSH2 0x551 JUMP JUMPDEST DUP3 DUP1 ADD PUSH1 0x1 ADD DUP6 SSTORE DUP3 ISZERO PUSH2 0x551 JUMPI SWAP2 DUP3 ADD JUMPDEST DUP3 DUP2 GT ISZERO PUSH2 0x550 JUMPI DUP3 CALLDATALOAD DUP3 SSTORE SWAP2 PUSH1 0x20 ADD SWAP2 SWAP1 PUSH1 0x1 ADD SWAP1 PUSH2 0x535 JUMP JUMPDEST JUMPDEST POP SWAP1 POP PUSH2 0x55E SWAP2 SWAP1 PUSH2 0x562 JUMP JUMPDEST POP SWAP1 JUMP JUMPDEST JUMPDEST DUP1 DUP3 GT ISZERO PUSH2 0x57B JUMPI PUSH1 0x0 DUP2 PUSH1 0x0 SWAP1 SSTORE POP PUSH1 0x1 ADD PUSH2 0x563 JUMP JUMPDEST POP SWAP1 JUMP JUMPDEST PUSH1 0x0 DUP1 REVERT JUMPDEST PUSH1 0x0 DUP1 REVERT JUMPDEST PUSH1 0x0 DUP1 REVERT JUMPDEST PUSH1 0x0 DUP1 REVERT JUMPDEST PUSH1 0x0 DUP1 REVERT JUMPDEST PUSH1 0x0 DUP1 DUP4 PUSH1 0x1F DUP5 ADD SLT PUSH2 0x5AE JUMPI PUSH2 0x5AD PUSH2 0x589 JUMP JUMPDEST JUMPDEST DUP3 CALLDATALOAD SWAP1 POP PUSH8 0xFFFFFFFFFFFFFFFF DUP2 GT ISZERO PUSH2 0x5CB JUMPI PUSH2 0x5CA PUSH2 0x58E JUMP JUMPDEST JUMPDEST PUSH1 0x20 DUP4 ADD SWAP2 POP DUP4 PUSH1 0x1 DUP3 MUL DUP4 ADD GT ISZERO PUSH2 0x5E7 JUMPI PUSH2 0x5E6 PUSH2 0x593 JUMP JUMPDEST JUMPDEST SWAP3 POP SWAP3 SWAP1 POP JUMP JUMPDEST PUSH1 0x0 PUSH1 0xFF DUP3 AND SWAP1 POP SWAP2 SWAP1 POP JUMP JUMPDEST PUSH2 0x604 DUP2 PUSH2 0x5EE JUMP JUMPDEST DUP2 EQ PUSH2 0x60F JUMPI PUSH1 0x0 DUP1 REVERT JUMPDEST POP JUMP JUMPDEST PUSH1 0x0 DUP2 CALLDATALOAD SWAP1 POP PUSH2 0x621 DUP2 PUSH2 0x5FB JUMP JUMPDEST SWAP3 SWAP2 POP POP JUMP JUMPDEST PUSH1 0x0 PUSH2 0xFFFF DUP3 AND SWAP1 POP SWAP2 SWAP1 POP JUMP JUMPDEST PUSH2 0x63E DUP2 PUSH2 0x627 JUMP JUMPDEST DUP2 EQ PUSH2 0x649 JUMPI PUSH1 0x0 DUP1 REVERT JUMPDEST POP JUMP JUMPDEST PUSH1 0x0 DUP2 CALLDATALOAD SWAP1 POP PUSH2 0x65B DUP2 PUSH2 0x635 JUMP JUMPDEST SWAP3 SWAP2 POP POP JUMP JUMPDEST PUSH1 0x0 DUP1 PUSH1 0x0 DUP1 PUSH1 0x60 DUP6 DUP8 SUB SLT ISZERO PUSH2 0x67B JUMPI PUSH2 0x67A PUSH2 0x57F JUMP JUMPDEST JUMPDEST PUSH1 0x0 DUP6 ADD CALLDATALOAD PUSH8 0xFFFFFFFFFFFFFFFF DUP2 GT ISZERO PUSH2 0x699 JUMPI PUSH2 0x698 PUSH2 0x584 JUMP JUMPDEST JUMPDEST PUSH2 0x6A5 DUP8 DUP3 DUP9 ADD PUSH2 0x598 JUMP JUMPDEST SWAP5 POP SWAP5 POP POP PUSH1 0x20 PUSH2 0x6B8 DUP8 DUP3 DUP9 ADD PUSH2 0x612 JUMP JUMPDEST SWAP3 POP POP PUSH1 0x40 PUSH2 0x6C9 DUP8 DUP3 DUP9 ADD PUSH2 0x64C JUMP JUMPDEST SWAP2 POP POP SWAP3 SWAP6 SWAP2 SWAP5 POP SWAP3 POP JUMP JUMPDEST PUSH1 0x0 DUP2 SWAP1 POP SWAP2 SWAP1 POP JUMP JUMPDEST PUSH2 0x6E8 DUP2 PUSH2 0x6D5 JUMP JUMPDEST DUP2 EQ PUSH2 0x6F3 JUMPI PUSH1 0x0 DUP1 REVERT JUMPDEST POP JUMP JUMPDEST PUSH1 0x0 DUP2 CALLDATALOAD SWAP1 POP PUSH2 0x705 DUP2 PUSH2 0x6DF JUMP JUMPDEST SWAP3 SWAP2 POP POP JUMP JUMPDEST PUSH1 0x0 DUP1 PUSH1 0x0 DUP1 PUSH1 0x0 PUSH1 0x80 DUP7 DUP9 SUB SLT ISZERO PUSH2 0x727 JUMPI PUSH2 0x726 PUSH2 0x57F JUMP JUMPDEST JUMPDEST PUSH1 0x0 PUSH2 0x735 DUP9 DUP3 DUP10 ADD PUSH2 0x6F6 JUMP JUMPDEST SWAP6 POP POP PUSH1 0x20 DUP7 ADD CALLDATALOAD PUSH8 0xFFFFFFFFFFFFFFFF DUP2 GT ISZERO PUSH2 0x756 JUMPI PUSH2 0x755 PUSH2 0x584 JUMP JUMPDEST JUMPDEST PUSH2 0x762 DUP9 DUP3 DUP10 ADD PUSH2 0x598 JUMP JUMPDEST SWAP5 POP SWAP5 POP POP PUSH1 0x40 PUSH2 0x775 DUP9 DUP3 DUP10 ADD PUSH2 0x612 JUMP JUMPDEST SWAP3 POP POP PUSH1 0x60 PUSH2 0x786 DUP9 DUP3 DUP10 ADD PUSH2 0x64C JUMP JUMPDEST SWAP2 POP POP SWAP3 SWAP6 POP SWAP3 SWAP6 SWAP1 SWAP4 POP JUMP JUMPDEST PUSH1 0x0 PUSH1 0x20 DUP3 DUP5 SUB SLT ISZERO PUSH2 0x7A9 JUMPI PUSH2 0x7A8 PUSH2 0x57F JUMP JUMPDEST JUMPDEST PUSH1 0x0 PUSH2 0x7B7 DUP5 DUP3 DUP6 ADD PUSH2 0x6F6 JUMP JUMPDEST SWAP2 POP POP SWAP3 SWAP2 POP POP JUMP JUMPDEST PUSH1 0x0 DUP2 MLOAD SWAP1 POP SWAP2 SWAP1 POP JUMP JUMPDEST PUSH1 0x0 DUP3 DUP3 MSTORE PUSH1 0x20 DUP3 ADD SWAP1 POP SWAP3 SWAP2 POP POP JUMP JUMPDEST PUSH1 0x0 JUMPDEST DUP4 DUP2 LT ISZERO PUSH2 0x7FA JUMPI DUP1 DUP3 ADD MLOAD DUP2 DUP5 ADD MSTORE PUSH1 0x20 DUP2 ADD SWAP1 POP PUSH2 0x7DF JUMP JUMPDEST DUP4 DUP2 GT ISZERO PUSH2 0x809 JUMPI PUSH1 0x0 DUP5 DUP5 ADD MSTORE JUMPDEST POP POP POP POP JUMP JUMPDEST PUSH1 0x0 PUSH1 0x1F NOT PUSH1 0x1F DUP4 ADD AND SWAP1 POP SWAP2 SWAP1 POP JUMP JUMPDEST PUSH1 0x0 PUSH2 0x82B DUP3 PUSH2 0x7C0 JUMP JUMPDEST PUSH2 0x835 DUP2 DUP6 PUSH2 0x7CB JUMP JUMPDEST SWAP4 POP PUSH2 0x845 DUP2 DUP6 PUSH1 0x20 DUP7 ADD PUSH2 0x7DC JUMP JUMPDEST PUSH2 0x84E DUP2 PUSH2 0x80F JUMP JUMPDEST DUP5 ADD SWAP2 POP POP SWAP3 SWAP2 POP POP JUMP JUMPDEST PUSH1 0x0 PUSH1 0x20 DUP3 ADD SWAP1 POP DUP2 DUP2 SUB PUSH1 0x0 DUP4 ADD MSTORE PUSH2 0x873 DUP2 DUP5 PUSH2 0x820 JUMP JUMPDEST SWAP1 POP SWAP3 SWAP2 POP POP JUMP JUMPDEST PUSH32 0x4E487B7100000000000000000000000000000000000000000000000000000000 PUSH1 0x0 MSTORE PUSH1 0x11 PUSH1 0x4 MSTORE PUSH1 0x24 PUSH1 0x0 REVERT JUMPDEST PUSH1 0x0 PUSH2 0x8B5 DUP3 PUSH2 0x6D5 JUMP JUMPDEST SWAP2 POP PUSH32 0xFFFFFFFFFFFFFFFFFFFFFFFFFFFFFFFFFFFFFFFFFFFFFFFFFFFFFFFFFFFFFFFF DUP3 EQ ISZERO PUSH2 0x8E8 JUMPI PUSH2 0x8E7 PUSH2 0x87B JUMP JUMPDEST JUMPDEST PUSH1 0x1 DUP3 ADD SWAP1 POP SWAP2 SWAP1 POP JUMP JUMPDEST PUSH32 0x4E487B7100000000000000000000000000000000000000000000000000000000 PUSH1 0x0 MSTORE PUSH1 0x22 PUSH1 0x4 MSTORE PUSH1 0x24 PUSH1 0x0 REVERT JUMPDEST PUSH1 0x0 PUSH1 0x2 DUP3 DIV SWAP1 POP PUSH1 0x1 DUP3 AND DUP1 PUSH2 0x93A JUMPI PUSH1 0x7F DUP3 AND SWAP2 POP JUMPDEST PUSH1 0x20 DUP3 LT DUP2 EQ ISZERO PUSH2 0x94E JUMPI PUSH2 0x94D PUSH2 0x8F3 JUMP JUMPDEST JUMPDEST POP SWAP2 SWAP1 POP JUMP INVALID LOG2 PUSH5 0x6970667358 0x22 SLT KECCAK256 CALLDATALOAD 0xDA PUSH27 0xDC67386E1F002D4D3EB8D09872D775D54A4644784FFCE671973A52 0xDA ISZERO PUSH5 0x736F6C6343 STOP ADDMOD SIGNEXTEND STOP CALLER "
				},
				"gasEstimates": {
					"creation": {
						"codeDepositCost": "488400",
						"executionCost": "5530",
						"totalCost": "493930"
					},
					"external": {
						"addStudent(string,uint8,uint16)": "infinite",
						"changeStudentInfoMemory(uint256,string,uint8,uint16)": "infinite",
						"changeStudentInfoStorage(uint256,string,uint8,uint16)": "infinite",
						"getStundentName(uint256)": "infinite"
					}
				},
				"methodIdentifiers": {
					"addStudent(string,uint8,uint16)": "1bc3115e",
					"changeStudentInfoMemory(uint256,string,uint8,uint16)": "3b5625b6",
					"changeStudentInfoStorage(uint256,string,uint8,uint16)": "dfc64a4a",
					"getStundentName(uint256)": "adb62cc9"
				}
			},
			"storageLayout": {
				"storage": [
					{
						"astId": 37,
						"contract": "contracts/Data_Locations.sol:School",
						"label": "totalStudents",
						"offset": 0,
						"slot": "0",
						"type": "t_uint256"
					},
					{
						"astId": 42,
						"contract": "contracts/Data_Locations.sol:School",
						"label": "students",
						"offset": 0,
						"slot": "1",
						"type": "t_mapping(t_uint256,t_struct(Student)34_storage)"
					}
				],
				"types": {
					"t_mapping(t_uint256,t_struct(Student)34_storage)": {
						"encoding": "mapping",
						"key": "t_uint256",
						"label": "mapping(uint256 => struct Student)",
						"numberOfBytes": "32",
						"value": "t_struct(Student)34_storage"
					},
					"t_string_storage": {
						"encoding": "bytes",
						"label": "string",
						"numberOfBytes": "32"
					},
					"t_struct(Student)34_storage": {
						"encoding": "inplace",
						"label": "struct Student",
						"members": [
							{
								"astId": 29,
								"contract": "contracts/Data_Locations.sol:School",
								"label": "age",
								"offset": 0,
								"slot": "0",
								"type": "t_uint8"
							},
							{
								"astId": 31,
								"contract": "contracts/Data_Locations.sol:School",
								"label": "score",
								"offset": 1,
								"slot": "0",
								"type": "t_uint16"
							},
							{
								"astId": 33,
								"contract": "contracts/Data_Locations.sol:School",
								"label": "name",
								"offset": 0,
								"slot": "1",
								"type": "t_string_storage"
							}
						],
						"numberOfBytes": "64"
					},
					"t_uint16": {
						"encoding": "inplace",
						"label": "uint16",
						"numberOfBytes": "2"
					},
					"t_uint256": {
						"encoding": "inplace",
						"label": "uint256",
						"numberOfBytes": "32"
					},
					"t_uint8": {
						"encoding": "inplace",
						"label": "uint8",
						"numberOfBytes": "1"
					}
				}
			},
			"userdoc": {
				"kind": "user",
				"methods": {},
				"version": 1
			}
		}
	}
}