{
	"contracts/Data_Locations.sol": {
		"DataLocations": {
			"abi": [
				{
					"inputs": [
						{
							"internalType": "uint256",
							"name": "paramUInt",
							"type": "uint256"
						},
						{
							"internalType": "string",
							"name": "paramString",
							"type": "string"
						}
					],
					"name": "func",
					"outputs": [],
					"stateMutability": "pure",
					"type": "function"
				}
			],
			"devdoc": {
				"kind": "dev",
				"methods": {},
				"version": 1
			},
			"evm": {
				"assembly": "    /* \"contracts/Data_Locations.sol\":62:487  contract DataLocations {... */\n  mstore(0x40, 0x80)\n    /* \"contracts/Data_Locations.sol\":181:203  string myName = \"Emre\" */\n  mload(0x40)\n  dup1\n  0x40\n  add\n  0x40\n  mstore\n  dup1\n  0x04\n  dup2\n  mstore\n  0x20\n  add\n  0x456d726500000000000000000000000000000000000000000000000000000000\n  dup2\n  mstore\n  pop\n  0x02\n  swap1\n  dup1\n  mload\n  swap1\n  0x20\n  add\n  swap1\n  tag_1\n  swap3\n  swap2\n  swap1\n  tag_2\n  jump\t// in\ntag_1:\n  pop\n    /* \"contracts/Data_Locations.sol\":62:487  contract DataLocations {... */\n  callvalue\n  dup1\n  iszero\n  tag_3\n  jumpi\n  0x00\n  dup1\n  revert\ntag_3:\n  pop\n  jump(tag_4)\ntag_2:\n  dup3\n  dup1\n  sload\n  tag_5\n  swap1\n  tag_6\n  jump\t// in\ntag_5:\n  swap1\n  0x00\n  mstore\n  keccak256(0x00, 0x20)\n  swap1\n  0x1f\n  add\n  0x20\n  swap1\n  div\n  dup2\n  add\n  swap3\n  dup3\n  tag_8\n  jumpi\n  0x00\n  dup6\n  sstore\n  jump(tag_7)\ntag_8:\n  dup3\n  0x1f\n  lt\n  tag_9\n  jumpi\n  dup1\n  mload\n  not(0xff)\n  and\n  dup4\n  dup1\n  add\n  or\n  dup6\n  sstore\n  jump(tag_7)\ntag_9:\n  dup3\n  dup1\n  add\n  0x01\n  add\n  dup6\n  sstore\n  dup3\n  iszero\n  tag_7\n  jumpi\n  swap2\n  dup3\n  add\ntag_10:\n  dup3\n  dup2\n  gt\n  iszero\n  tag_11\n  jumpi\n  dup3\n  mload\n  dup3\n  sstore\n  swap2\n  0x20\n  add\n  swap2\n  swap1\n  0x01\n  add\n  swap1\n  jump(tag_10)\ntag_11:\ntag_7:\n  pop\n  swap1\n  pop\n  tag_12\n  swap2\n  swap1\n  tag_13\n  jump\t// in\ntag_12:\n  pop\n  swap1\n  jump\t// out\ntag_13:\ntag_14:\n  dup1\n  dup3\n  gt\n  iszero\n  tag_15\n  jumpi\n  0x00\n  dup2\n  0x00\n  swap1\n  sstore\n  pop\n  0x01\n  add\n  jump(tag_14)\ntag_15:\n  pop\n  swap1\n  jump\t// out\n    /* \"#utility.yul\":7:187   */\ntag_16:\n    /* \"#utility.yul\":55:132   */\n  0x4e487b7100000000000000000000000000000000000000000000000000000000\n    /* \"#utility.yul\":52:53   */\n  0x00\n    /* \"#utility.yul\":45:133   */\n  mstore\n    /* \"#utility.yul\":152:156   */\n  0x22\n    /* \"#utility.yul\":149:150   */\n  0x04\n    /* \"#utility.yul\":142:157   */\n  mstore\n    /* \"#utility.yul\":176:180   */\n  0x24\n    /* \"#utility.yul\":173:174   */\n  0x00\n    /* \"#utility.yul\":166:181   */\n  revert\n    /* \"#utility.yul\":193:513   */\ntag_6:\n    /* \"#utility.yul\":237:243   */\n  0x00\n    /* \"#utility.yul\":274:275   */\n  0x02\n    /* \"#utility.yul\":268:272   */\n  dup3\n    /* \"#utility.yul\":264:276   */\n  div\n    /* \"#utility.yul\":254:276   */\n  swap1\n  pop\n    /* \"#utility.yul\":321:322   */\n  0x01\n    /* \"#utility.yul\":315:319   */\n  dup3\n    /* \"#utility.yul\":311:323   */\n  and\n    /* \"#utility.yul\":342:360   */\n  dup1\n    /* \"#utility.yul\":332:413   */\n  tag_20\n  jumpi\n    /* \"#utility.yul\":398:402   */\n  0x7f\n    /* \"#utility.yul\":390:396   */\n  dup3\n    /* \"#utility.yul\":386:403   */\n  and\n    /* \"#utility.yul\":376:403   */\n  swap2\n  pop\n    /* \"#utility.yul\":332:413   */\ntag_20:\n    /* \"#utility.yul\":460:462   */\n  0x20\n    /* \"#utility.yul\":452:458   */\n  dup3\n    /* \"#utility.yul\":449:463   */\n  lt\n    /* \"#utility.yul\":429:447   */\n  dup2\n    /* \"#utility.yul\":426:464   */\n  eq\n    /* \"#utility.yul\":423:507   */\n  iszero\n  tag_21\n  jumpi\n    /* \"#utility.yul\":479:497   */\n  tag_22\n  tag_16\n  jump\t// in\ntag_22:\n    /* \"#utility.yul\":423:507   */\ntag_21:\n    /* \"#utility.yul\":244:513   */\n  pop\n    /* \"#utility.yul\":193:513   */\n  swap2\n  swap1\n  pop\n  jump\t// out\n    /* \"contracts/Data_Locations.sol\":62:487  contract DataLocations {... */\ntag_4:\n  dataSize(sub_0)\n  dup1\n  dataOffset(sub_0)\n  0x00\n  codecopy\n  0x00\n  return\nstop\n\nsub_0: assembly {\n        /* \"contracts/Data_Locations.sol\":62:487  contract DataLocations {... */\n      mstore(0x40, 0x80)\n      callvalue\n      dup1\n      iszero\n      tag_1\n      jumpi\n      0x00\n      dup1\n      revert\n    tag_1:\n      pop\n      jumpi(tag_2, lt(calldatasize, 0x04))\n      shr(0xe0, calldataload(0x00))\n      dup1\n      0x1c0138e8\n      eq\n      tag_3\n      jumpi\n    tag_2:\n      0x00\n      dup1\n      revert\n        /* \"contracts/Data_Locations.sol\":223:484  function func(... */\n    tag_3:\n      tag_4\n      0x04\n      dup1\n      calldatasize\n      sub\n      dup2\n      add\n      swap1\n      tag_5\n      swap2\n      swap1\n      tag_6\n      jump\t// in\n    tag_5:\n      tag_7\n      jump\t// in\n    tag_4:\n      stop\n    tag_7:\n        /* \"contracts/Data_Locations.sol\":436:452  paramString = \"\" */\n      mload(0x40)\n      dup1\n      0x20\n      add\n      0x40\n      mstore\n      dup1\n      0x00\n      dup2\n      mstore\n      pop\n      swap1\n      pop\n        /* \"contracts/Data_Locations.sol\":475:476  0 */\n      0x00\n        /* \"contracts/Data_Locations.sol\":463:476  paramUInt = 0 */\n      swap2\n      pop\n        /* \"contracts/Data_Locations.sol\":223:484  function func(... */\n      pop\n      pop\n      jump\t// out\n        /* \"#utility.yul\":7:82   */\n    tag_9:\n        /* \"#utility.yul\":40:46   */\n      0x00\n        /* \"#utility.yul\":73:75   */\n      0x40\n        /* \"#utility.yul\":67:76   */\n      mload\n        /* \"#utility.yul\":57:76   */\n      swap1\n      pop\n        /* \"#utility.yul\":7:82   */\n      swap1\n      jump\t// out\n        /* \"#utility.yul\":88:205   */\n    tag_10:\n        /* \"#utility.yul\":197:198   */\n      0x00\n        /* \"#utility.yul\":194:195   */\n      dup1\n        /* \"#utility.yul\":187:199   */\n      revert\n        /* \"#utility.yul\":211:328   */\n    tag_11:\n        /* \"#utility.yul\":320:321   */\n      0x00\n        /* \"#utility.yul\":317:318   */\n      dup1\n        /* \"#utility.yul\":310:322   */\n      revert\n        /* \"#utility.yul\":334:411   */\n    tag_12:\n        /* \"#utility.yul\":371:378   */\n      0x00\n        /* \"#utility.yul\":400:405   */\n      dup2\n        /* \"#utility.yul\":389:405   */\n      swap1\n      pop\n        /* \"#utility.yul\":334:411   */\n      swap2\n      swap1\n      pop\n      jump\t// out\n        /* \"#utility.yul\":417:539   */\n    tag_13:\n        /* \"#utility.yul\":490:514   */\n      tag_31\n        /* \"#utility.yul\":508:513   */\n      dup2\n        /* \"#utility.yul\":490:514   */\n      tag_12\n      jump\t// in\n    tag_31:\n        /* \"#utility.yul\":483:488   */\n      dup2\n        /* \"#utility.yul\":480:515   */\n      eq\n        /* \"#utility.yul\":470:533   */\n      tag_32\n      jumpi\n        /* \"#utility.yul\":529:530   */\n      0x00\n        /* \"#utility.yul\":526:527   */\n      dup1\n        /* \"#utility.yul\":519:531   */\n      revert\n        /* \"#utility.yul\":470:533   */\n    tag_32:\n        /* \"#utility.yul\":417:539   */\n      pop\n      jump\t// out\n        /* \"#utility.yul\":545:684   */\n    tag_14:\n        /* \"#utility.yul\":591:596   */\n      0x00\n        /* \"#utility.yul\":629:635   */\n      dup2\n        /* \"#utility.yul\":616:636   */\n      calldataload\n        /* \"#utility.yul\":607:636   */\n      swap1\n      pop\n        /* \"#utility.yul\":645:678   */\n      tag_34\n        /* \"#utility.yul\":672:677   */\n      dup2\n        /* \"#utility.yul\":645:678   */\n      tag_13\n      jump\t// in\n    tag_34:\n        /* \"#utility.yul\":545:684   */\n      swap3\n      swap2\n      pop\n      pop\n      jump\t// out\n        /* \"#utility.yul\":690:807   */\n    tag_15:\n        /* \"#utility.yul\":799:800   */\n      0x00\n        /* \"#utility.yul\":796:797   */\n      dup1\n        /* \"#utility.yul\":789:801   */\n      revert\n        /* \"#utility.yul\":813:930   */\n    tag_16:\n        /* \"#utility.yul\":922:923   */\n      0x00\n        /* \"#utility.yul\":919:920   */\n      dup1\n        /* \"#utility.yul\":912:924   */\n      revert\n        /* \"#utility.yul\":936:1038   */\n    tag_17:\n        /* \"#utility.yul\":977:983   */\n      0x00\n        /* \"#utility.yul\":1028:1030   */\n      0x1f\n        /* \"#utility.yul\":1024:1031   */\n      not\n        /* \"#utility.yul\":1019:1021   */\n      0x1f\n        /* \"#utility.yul\":1012:1017   */\n      dup4\n        /* \"#utility.yul\":1008:1022   */\n      add\n        /* \"#utility.yul\":1004:1032   */\n      and\n        /* \"#utility.yul\":994:1032   */\n      swap1\n      pop\n        /* \"#utility.yul\":936:1038   */\n      swap2\n      swap1\n      pop\n      jump\t// out\n        /* \"#utility.yul\":1044:1224   */\n    tag_18:\n        /* \"#utility.yul\":1092:1169   */\n      0x4e487b7100000000000000000000000000000000000000000000000000000000\n        /* \"#utility.yul\":1089:1090   */\n      0x00\n        /* \"#utility.yul\":1082:1170   */\n      mstore\n        /* \"#utility.yul\":1189:1193   */\n      0x41\n        /* \"#utility.yul\":1186:1187   */\n      0x04\n        /* \"#utility.yul\":1179:1194   */\n      mstore\n        /* \"#utility.yul\":1213:1217   */\n      0x24\n        /* \"#utility.yul\":1210:1211   */\n      0x00\n        /* \"#utility.yul\":1203:1218   */\n      revert\n        /* \"#utility.yul\":1230:1511   */\n    tag_19:\n        /* \"#utility.yul\":1313:1340   */\n      tag_40\n        /* \"#utility.yul\":1335:1339   */\n      dup3\n        /* \"#utility.yul\":1313:1340   */\n      tag_17\n      jump\t// in\n    tag_40:\n        /* \"#utility.yul\":1305:1311   */\n      dup2\n        /* \"#utility.yul\":1301:1341   */\n      add\n        /* \"#utility.yul\":1443:1449   */\n      dup2\n        /* \"#utility.yul\":1431:1441   */\n      dup2\n        /* \"#utility.yul\":1428:1450   */\n      lt\n        /* \"#utility.yul\":1407:1425   */\n      0xffffffffffffffff\n        /* \"#utility.yul\":1395:1405   */\n      dup3\n        /* \"#utility.yul\":1392:1426   */\n      gt\n        /* \"#utility.yul\":1389:1451   */\n      or\n        /* \"#utility.yul\":1386:1474   */\n      iszero\n      tag_41\n      jumpi\n        /* \"#utility.yul\":1454:1472   */\n      tag_42\n      tag_18\n      jump\t// in\n    tag_42:\n        /* \"#utility.yul\":1386:1474   */\n    tag_41:\n        /* \"#utility.yul\":1494:1504   */\n      dup1\n        /* \"#utility.yul\":1490:1492   */\n      0x40\n        /* \"#utility.yul\":1483:1505   */\n      mstore\n        /* \"#utility.yul\":1273:1511   */\n      pop\n        /* \"#utility.yul\":1230:1511   */\n      pop\n      pop\n      jump\t// out\n        /* \"#utility.yul\":1517:1646   */\n    tag_20:\n        /* \"#utility.yul\":1551:1557   */\n      0x00\n        /* \"#utility.yul\":1578:1598   */\n      tag_44\n      tag_9\n      jump\t// in\n    tag_44:\n        /* \"#utility.yul\":1568:1598   */\n      swap1\n      pop\n        /* \"#utility.yul\":1607:1640   */\n      tag_45\n        /* \"#utility.yul\":1635:1639   */\n      dup3\n        /* \"#utility.yul\":1627:1633   */\n      dup3\n        /* \"#utility.yul\":1607:1640   */\n      tag_19\n      jump\t// in\n    tag_45:\n        /* \"#utility.yul\":1517:1646   */\n      swap2\n      swap1\n      pop\n      jump\t// out\n        /* \"#utility.yul\":1652:1960   */\n    tag_21:\n        /* \"#utility.yul\":1714:1718   */\n      0x00\n        /* \"#utility.yul\":1804:1822   */\n      0xffffffffffffffff\n        /* \"#utility.yul\":1796:1802   */\n      dup3\n        /* \"#utility.yul\":1793:1823   */\n      gt\n        /* \"#utility.yul\":1790:1846   */\n      iszero\n      tag_47\n      jumpi\n        /* \"#utility.yul\":1826:1844   */\n      tag_48\n      tag_18\n      jump\t// in\n    tag_48:\n        /* \"#utility.yul\":1790:1846   */\n    tag_47:\n        /* \"#utility.yul\":1864:1893   */\n      tag_49\n        /* \"#utility.yul\":1886:1892   */\n      dup3\n        /* \"#utility.yul\":1864:1893   */\n      tag_17\n      jump\t// in\n    tag_49:\n        /* \"#utility.yul\":1856:1893   */\n      swap1\n      pop\n        /* \"#utility.yul\":1948:1952   */\n      0x20\n        /* \"#utility.yul\":1942:1946   */\n      dup2\n        /* \"#utility.yul\":1938:1953   */\n      add\n        /* \"#utility.yul\":1930:1953   */\n      swap1\n      pop\n        /* \"#utility.yul\":1652:1960   */\n      swap2\n      swap1\n      pop\n      jump\t// out\n        /* \"#utility.yul\":1966:2120   */\n    tag_22:\n        /* \"#utility.yul\":2050:2056   */\n      dup3\n        /* \"#utility.yul\":2045:2048   */\n      dup2\n        /* \"#utility.yul\":2040:2043   */\n      dup4\n        /* \"#utility.yul\":2027:2057   */\n      calldatacopy\n        /* \"#utility.yul\":2112:2113   */\n      0x00\n        /* \"#utility.yul\":2103:2109   */\n      dup4\n        /* \"#utility.yul\":2098:2101   */\n      dup4\n        /* \"#utility.yul\":2094:2110   */\n      add\n        /* \"#utility.yul\":2087:2114   */\n      mstore\n        /* \"#utility.yul\":1966:2120   */\n      pop\n      pop\n      pop\n      jump\t// out\n        /* \"#utility.yul\":2126:2538   */\n    tag_23:\n        /* \"#utility.yul\":2204:2209   */\n      0x00\n        /* \"#utility.yul\":2229:2295   */\n      tag_52\n        /* \"#utility.yul\":2245:2294   */\n      tag_53\n        /* \"#utility.yul\":2287:2293   */\n      dup5\n        /* \"#utility.yul\":2245:2294   */\n      tag_21\n      jump\t// in\n    tag_53:\n        /* \"#utility.yul\":2229:2295   */\n      tag_20\n      jump\t// in\n    tag_52:\n        /* \"#utility.yul\":2220:2295   */\n      swap1\n      pop\n        /* \"#utility.yul\":2318:2324   */\n      dup3\n        /* \"#utility.yul\":2311:2316   */\n      dup2\n        /* \"#utility.yul\":2304:2325   */\n      mstore\n        /* \"#utility.yul\":2356:2360   */\n      0x20\n        /* \"#utility.yul\":2349:2354   */\n      dup2\n        /* \"#utility.yul\":2345:2361   */\n      add\n        /* \"#utility.yul\":2394:2397   */\n      dup5\n        /* \"#utility.yul\":2385:2391   */\n      dup5\n        /* \"#utility.yul\":2380:2383   */\n      dup5\n        /* \"#utility.yul\":2376:2392   */\n      add\n        /* \"#utility.yul\":2373:2398   */\n      gt\n        /* \"#utility.yul\":2370:2482   */\n      iszero\n      tag_54\n      jumpi\n        /* \"#utility.yul\":2401:2480   */\n      tag_55\n      tag_16\n      jump\t// in\n    tag_55:\n        /* \"#utility.yul\":2370:2482   */\n    tag_54:\n        /* \"#utility.yul\":2491:2532   */\n      tag_56\n        /* \"#utility.yul\":2525:2531   */\n      dup5\n        /* \"#utility.yul\":2520:2523   */\n      dup3\n        /* \"#utility.yul\":2515:2518   */\n      dup6\n        /* \"#utility.yul\":2491:2532   */\n      tag_22\n      jump\t// in\n    tag_56:\n        /* \"#utility.yul\":2210:2538   */\n      pop\n        /* \"#utility.yul\":2126:2538   */\n      swap4\n      swap3\n      pop\n      pop\n      pop\n      jump\t// out\n        /* \"#utility.yul\":2558:2898   */\n    tag_24:\n        /* \"#utility.yul\":2614:2619   */\n      0x00\n        /* \"#utility.yul\":2663:2666   */\n      dup3\n        /* \"#utility.yul\":2656:2660   */\n      0x1f\n        /* \"#utility.yul\":2648:2654   */\n      dup4\n        /* \"#utility.yul\":2644:2661   */\n      add\n        /* \"#utility.yul\":2640:2667   */\n      slt\n        /* \"#utility.yul\":2630:2752   */\n      tag_58\n      jumpi\n        /* \"#utility.yul\":2671:2750   */\n      tag_59\n      tag_15\n      jump\t// in\n    tag_59:\n        /* \"#utility.yul\":2630:2752   */\n    tag_58:\n        /* \"#utility.yul\":2788:2794   */\n      dup2\n        /* \"#utility.yul\":2775:2795   */\n      calldataload\n        /* \"#utility.yul\":2813:2892   */\n      tag_60\n        /* \"#utility.yul\":2888:2891   */\n      dup5\n        /* \"#utility.yul\":2880:2886   */\n      dup3\n        /* \"#utility.yul\":2873:2877   */\n      0x20\n        /* \"#utility.yul\":2865:2871   */\n      dup7\n        /* \"#utility.yul\":2861:2878   */\n      add\n        /* \"#utility.yul\":2813:2892   */\n      tag_23\n      jump\t// in\n    tag_60:\n        /* \"#utility.yul\":2804:2892   */\n      swap2\n      pop\n        /* \"#utility.yul\":2620:2898   */\n      pop\n        /* \"#utility.yul\":2558:2898   */\n      swap3\n      swap2\n      pop\n      pop\n      jump\t// out\n        /* \"#utility.yul\":2904:3558   */\n    tag_6:\n        /* \"#utility.yul\":2982:2988   */\n      0x00\n        /* \"#utility.yul\":2990:2996   */\n      dup1\n        /* \"#utility.yul\":3039:3041   */\n      0x40\n        /* \"#utility.yul\":3027:3036   */\n      dup4\n        /* \"#utility.yul\":3018:3025   */\n      dup6\n        /* \"#utility.yul\":3014:3037   */\n      sub\n        /* \"#utility.yul\":3010:3042   */\n      slt\n        /* \"#utility.yul\":3007:3126   */\n      iszero\n      tag_62\n      jumpi\n        /* \"#utility.yul\":3045:3124   */\n      tag_63\n      tag_10\n      jump\t// in\n    tag_63:\n        /* \"#utility.yul\":3007:3126   */\n    tag_62:\n        /* \"#utility.yul\":3165:3166   */\n      0x00\n        /* \"#utility.yul\":3190:3243   */\n      tag_64\n        /* \"#utility.yul\":3235:3242   */\n      dup6\n        /* \"#utility.yul\":3226:3232   */\n      dup3\n        /* \"#utility.yul\":3215:3224   */\n      dup7\n        /* \"#utility.yul\":3211:3233   */\n      add\n        /* \"#utility.yul\":3190:3243   */\n      tag_14\n      jump\t// in\n    tag_64:\n        /* \"#utility.yul\":3180:3243   */\n      swap3\n      pop\n        /* \"#utility.yul\":3136:3253   */\n      pop\n        /* \"#utility.yul\":3320:3322   */\n      0x20\n        /* \"#utility.yul\":3309:3318   */\n      dup4\n        /* \"#utility.yul\":3305:3323   */\n      add\n        /* \"#utility.yul\":3292:3324   */\n      calldataload\n        /* \"#utility.yul\":3351:3369   */\n      0xffffffffffffffff\n        /* \"#utility.yul\":3343:3349   */\n      dup2\n        /* \"#utility.yul\":3340:3370   */\n      gt\n        /* \"#utility.yul\":3337:3454   */\n      iszero\n      tag_65\n      jumpi\n        /* \"#utility.yul\":3373:3452   */\n      tag_66\n      tag_11\n      jump\t// in\n    tag_66:\n        /* \"#utility.yul\":3337:3454   */\n    tag_65:\n        /* \"#utility.yul\":3478:3541   */\n      tag_67\n        /* \"#utility.yul\":3533:3540   */\n      dup6\n        /* \"#utility.yul\":3524:3530   */\n      dup3\n        /* \"#utility.yul\":3513:3522   */\n      dup7\n        /* \"#utility.yul\":3509:3531   */\n      add\n        /* \"#utility.yul\":3478:3541   */\n      tag_24\n      jump\t// in\n    tag_67:\n        /* \"#utility.yul\":3468:3541   */\n      swap2\n      pop\n        /* \"#utility.yul\":3263:3551   */\n      pop\n        /* \"#utility.yul\":2904:3558   */\n      swap3\n      pop\n      swap3\n      swap1\n      pop\n      jump\t// out\n\n    auxdata: 0xa2646970667358221220cf4c91403de276e2a9c654b933c6e5025ec836997acffd62a7047ca9d93ed8c064736f6c634300080b0033\n}\n",
				"bytecode": {
					"linkReferences": {},
					"object": "60806040526040518060400160405280600481526020017f456d7265000000000000000000000000000000000000000000000000000000008152506002908051906020019061004f929190610062565b5034801561005c57600080fd5b50610166565b82805461006e90610134565b90600052602060002090601f01602090048101928261009057600085556100d7565b82601f106100a957805160ff19168380011785556100d7565b828001600101855582156100d7579182015b828111156100d65782518255916020019190600101906100bb565b5b5090506100e491906100e8565b5090565b5b808211156101015760008160009055506001016100e9565b5090565b7f4e487b7100000000000000000000000000000000000000000000000000000000600052602260045260246000fd5b6000600282049050600182168061014c57607f821691505b602082108114156101605761015f610105565b5b50919050565b610288806101756000396000f3fe608060405234801561001057600080fd5b506004361061002b5760003560e01c80631c0138e814610030575b600080fd5b61004a600480360381019061004591906101f6565b61004c565b005b604051806020016040528060008152509050600091505050565b6000604051905090565b600080fd5b600080fd5b6000819050919050565b61008d8161007a565b811461009857600080fd5b50565b6000813590506100aa81610084565b92915050565b600080fd5b600080fd5b6000601f19601f8301169050919050565b7f4e487b7100000000000000000000000000000000000000000000000000000000600052604160045260246000fd5b610103826100ba565b810181811067ffffffffffffffff82111715610122576101216100cb565b5b80604052505050565b6000610135610066565b905061014182826100fa565b919050565b600067ffffffffffffffff821115610161576101606100cb565b5b61016a826100ba565b9050602081019050919050565b82818337600083830152505050565b600061019961019484610146565b61012b565b9050828152602081018484840111156101b5576101b46100b5565b5b6101c0848285610177565b509392505050565b600082601f8301126101dd576101dc6100b0565b5b81356101ed848260208601610186565b91505092915050565b6000806040838503121561020d5761020c610070565b5b600061021b8582860161009b565b925050602083013567ffffffffffffffff81111561023c5761023b610075565b5b610248858286016101c8565b915050925092905056fea2646970667358221220cf4c91403de276e2a9c654b933c6e5025ec836997acffd62a7047ca9d93ed8c064736f6c634300080b0033",
					"opcodes": "PUSH1 0x80 PUSH1 0x40 MSTORE PUSH1 0x40 MLOAD DUP1 PUSH1 0x40 ADD PUSH1 0x40 MSTORE DUP1 PUSH1 0x4 DUP2 MSTORE PUSH1 0x20 ADD PUSH32 0x456D726500000000000000000000000000000000000000000000000000000000 DUP2 MSTORE POP PUSH1 0x2 SWAP1 DUP1 MLOAD SWAP1 PUSH1 0x20 ADD SWAP1 PUSH2 0x4F SWAP3 SWAP2 SWAP1 PUSH2 0x62 JUMP JUMPDEST POP CALLVALUE DUP1 ISZERO PUSH2 0x5C JUMPI PUSH1 0x0 DUP1 REVERT JUMPDEST POP PUSH2 0x166 JUMP JUMPDEST DUP3 DUP1 SLOAD PUSH2 0x6E SWAP1 PUSH2 0x134 JUMP JUMPDEST SWAP1 PUSH1 0x0 MSTORE PUSH1 0x20 PUSH1 0x0 KECCAK256 SWAP1 PUSH1 0x1F ADD PUSH1 0x20 SWAP1 DIV DUP2 ADD SWAP3 DUP3 PUSH2 0x90 JUMPI PUSH1 0x0 DUP6 SSTORE PUSH2 0xD7 JUMP JUMPDEST DUP3 PUSH1 0x1F LT PUSH2 0xA9 JUMPI DUP1 MLOAD PUSH1 0xFF NOT AND DUP4 DUP1 ADD OR DUP6 SSTORE PUSH2 0xD7 JUMP JUMPDEST DUP3 DUP1 ADD PUSH1 0x1 ADD DUP6 SSTORE DUP3 ISZERO PUSH2 0xD7 JUMPI SWAP2 DUP3 ADD JUMPDEST DUP3 DUP2 GT ISZERO PUSH2 0xD6 JUMPI DUP3 MLOAD DUP3 SSTORE SWAP2 PUSH1 0x20 ADD SWAP2 SWAP1 PUSH1 0x1 ADD SWAP1 PUSH2 0xBB JUMP JUMPDEST JUMPDEST POP SWAP1 POP PUSH2 0xE4 SWAP2 SWAP1 PUSH2 0xE8 JUMP JUMPDEST POP SWAP1 JUMP JUMPDEST JUMPDEST DUP1 DUP3 GT ISZERO PUSH2 0x101 JUMPI PUSH1 0x0 DUP2 PUSH1 0x0 SWAP1 SSTORE POP PUSH1 0x1 ADD PUSH2 0xE9 JUMP JUMPDEST POP SWAP1 JUMP JUMPDEST PUSH32 0x4E487B7100000000000000000000000000000000000000000000000000000000 PUSH1 0x0 MSTORE PUSH1 0x22 PUSH1 0x4 MSTORE PUSH1 0x24 PUSH1 0x0 REVERT JUMPDEST PUSH1 0x0 PUSH1 0x2 DUP3 DIV SWAP1 POP PUSH1 0x1 DUP3 AND DUP1 PUSH2 0x14C JUMPI PUSH1 0x7F DUP3 AND SWAP2 POP JUMPDEST PUSH1 0x20 DUP3 LT DUP2 EQ ISZERO PUSH2 0x160 JUMPI PUSH2 0x15F PUSH2 0x105 JUMP JUMPDEST JUMPDEST POP SWAP2 SWAP1 POP JUMP JUMPDEST PUSH2 0x288 DUP1 PUSH2 0x175 PUSH1 0x0 CODECOPY PUSH1 0x0 RETURN INVALID PUSH1 0x80 PUSH1 0x40 MSTORE CALLVALUE DUP1 ISZERO PUSH2 0x10 JUMPI PUSH1 0x0 DUP1 REVERT JUMPDEST POP PUSH1 0x4 CALLDATASIZE LT PUSH2 0x2B JUMPI PUSH1 0x0 CALLDATALOAD PUSH1 0xE0 SHR DUP1 PUSH4 0x1C0138E8 EQ PUSH2 0x30 JUMPI JUMPDEST PUSH1 0x0 DUP1 REVERT JUMPDEST PUSH2 0x4A PUSH1 0x4 DUP1 CALLDATASIZE SUB DUP2 ADD SWAP1 PUSH2 0x45 SWAP2 SWAP1 PUSH2 0x1F6 JUMP JUMPDEST PUSH2 0x4C JUMP JUMPDEST STOP JUMPDEST PUSH1 0x40 MLOAD DUP1 PUSH1 0x20 ADD PUSH1 0x40 MSTORE DUP1 PUSH1 0x0 DUP2 MSTORE POP SWAP1 POP PUSH1 0x0 SWAP2 POP POP POP JUMP JUMPDEST PUSH1 0x0 PUSH1 0x40 MLOAD SWAP1 POP SWAP1 JUMP JUMPDEST PUSH1 0x0 DUP1 REVERT JUMPDEST PUSH1 0x0 DUP1 REVERT JUMPDEST PUSH1 0x0 DUP2 SWAP1 POP SWAP2 SWAP1 POP JUMP JUMPDEST PUSH2 0x8D DUP2 PUSH2 0x7A JUMP JUMPDEST DUP2 EQ PUSH2 0x98 JUMPI PUSH1 0x0 DUP1 REVERT JUMPDEST POP JUMP JUMPDEST PUSH1 0x0 DUP2 CALLDATALOAD SWAP1 POP PUSH2 0xAA DUP2 PUSH2 0x84 JUMP JUMPDEST SWAP3 SWAP2 POP POP JUMP JUMPDEST PUSH1 0x0 DUP1 REVERT JUMPDEST PUSH1 0x0 DUP1 REVERT JUMPDEST PUSH1 0x0 PUSH1 0x1F NOT PUSH1 0x1F DUP4 ADD AND SWAP1 POP SWAP2 SWAP1 POP JUMP JUMPDEST PUSH32 0x4E487B7100000000000000000000000000000000000000000000000000000000 PUSH1 0x0 MSTORE PUSH1 0x41 PUSH1 0x4 MSTORE PUSH1 0x24 PUSH1 0x0 REVERT JUMPDEST PUSH2 0x103 DUP3 PUSH2 0xBA JUMP JUMPDEST DUP2 ADD DUP2 DUP2 LT PUSH8 0xFFFFFFFFFFFFFFFF DUP3 GT OR ISZERO PUSH2 0x122 JUMPI PUSH2 0x121 PUSH2 0xCB JUMP JUMPDEST JUMPDEST DUP1 PUSH1 0x40 MSTORE POP POP POP JUMP JUMPDEST PUSH1 0x0 PUSH2 0x135 PUSH2 0x66 JUMP JUMPDEST SWAP1 POP PUSH2 0x141 DUP3 DUP3 PUSH2 0xFA JUMP JUMPDEST SWAP2 SWAP1 POP JUMP JUMPDEST PUSH1 0x0 PUSH8 0xFFFFFFFFFFFFFFFF DUP3 GT ISZERO PUSH2 0x161 JUMPI PUSH2 0x160 PUSH2 0xCB JUMP JUMPDEST JUMPDEST PUSH2 0x16A DUP3 PUSH2 0xBA JUMP JUMPDEST SWAP1 POP PUSH1 0x20 DUP2 ADD SWAP1 POP SWAP2 SWAP1 POP JUMP JUMPDEST DUP3 DUP2 DUP4 CALLDATACOPY PUSH1 0x0 DUP4 DUP4 ADD MSTORE POP POP POP JUMP JUMPDEST PUSH1 0x0 PUSH2 0x199 PUSH2 0x194 DUP5 PUSH2 0x146 JUMP JUMPDEST PUSH2 0x12B JUMP JUMPDEST SWAP1 POP DUP3 DUP2 MSTORE PUSH1 0x20 DUP2 ADD DUP5 DUP5 DUP5 ADD GT ISZERO PUSH2 0x1B5 JUMPI PUSH2 0x1B4 PUSH2 0xB5 JUMP JUMPDEST JUMPDEST PUSH2 0x1C0 DUP5 DUP3 DUP6 PUSH2 0x177 JUMP JUMPDEST POP SWAP4 SWAP3 POP POP POP JUMP JUMPDEST PUSH1 0x0 DUP3 PUSH1 0x1F DUP4 ADD SLT PUSH2 0x1DD JUMPI PUSH2 0x1DC PUSH2 0xB0 JUMP JUMPDEST JUMPDEST DUP2 CALLDATALOAD PUSH2 0x1ED DUP5 DUP3 PUSH1 0x20 DUP7 ADD PUSH2 0x186 JUMP JUMPDEST SWAP2 POP POP SWAP3 SWAP2 POP POP JUMP JUMPDEST PUSH1 0x0 DUP1 PUSH1 0x40 DUP4 DUP6 SUB SLT ISZERO PUSH2 0x20D JUMPI PUSH2 0x20C PUSH2 0x70 JUMP JUMPDEST JUMPDEST PUSH1 0x0 PUSH2 0x21B DUP6 DUP3 DUP7 ADD PUSH2 0x9B JUMP JUMPDEST SWAP3 POP POP PUSH1 0x20 DUP4 ADD CALLDATALOAD PUSH8 0xFFFFFFFFFFFFFFFF DUP2 GT ISZERO PUSH2 0x23C JUMPI PUSH2 0x23B PUSH2 0x75 JUMP JUMPDEST JUMPDEST PUSH2 0x248 DUP6 DUP3 DUP7 ADD PUSH2 0x1C8 JUMP JUMPDEST SWAP2 POP POP SWAP3 POP SWAP3 SWAP1 POP JUMP INVALID LOG2 PUSH5 0x6970667358 0x22 SLT KECCAK256 0xCF 0x4C SWAP2 BLOCKHASH RETURNDATASIZE 0xE2 PUSH23 0xE2A9C654B933C6E5025EC836997ACFFD62A7047CA9D93E 0xD8 0xC0 PUSH5 0x736F6C6343 STOP ADDMOD SIGNEXTEND STOP CALLER "
				},
				"gasEstimates": {
					"creation": {
						"codeDepositCost": "129600",
						"executionCost": "infinite",
						"totalCost": "infinite"
					},
					"external": {
						"func(uint256,string)": "infinite"
					}
				},
				"methodIdentifiers": {
					"func(uint256,string)": "1c0138e8"
				}
			},
			"storageLayout": {
				"storage": [
					{
						"astId": 3,
						"contract": "contracts/Data_Locations.sol:DataLocations",
						"label": "myVal",
						"offset": 0,
						"slot": "0",
						"type": "t_uint256"
					},
					{
						"astId": 7,
						"contract": "contracts/Data_Locations.sol:DataLocations",
						"label": "balances",
						"offset": 0,
						"slot": "1",
						"type": "t_mapping(t_address,t_uint256)"
					},
					{
						"astId": 10,
						"contract": "contracts/Data_Locations.sol:DataLocations",
						"label": "myName",
						"offset": 0,
						"slot": "2",
						"type": "t_string_storage"
					}
				],
				"types": {
					"t_address": {
						"encoding": "inplace",
						"label": "address",
						"numberOfBytes": "20"
					},
					"t_mapping(t_address,t_uint256)": {
						"encoding": "mapping",
						"key": "t_address",
						"label": "mapping(address => uint256)",
						"numberOfBytes": "32",
						"value": "t_uint256"
					},
					"t_string_storage": {
						"encoding": "bytes",
						"label": "string",
						"numberOfBytes": "32"
					},
					"t_uint256": {
						"encoding": "inplace",
						"label": "uint256",
						"numberOfBytes": "32"
					}
				}
			},
			"userdoc": {
				"kind": "user",
				"methods": {},
				"version": 1
			}
		}
	}
}