{
	"contracts/Call.sol": {
		"Caller": {
			"abi": [
				{
					"inputs": [
						{
							"internalType": "address",
							"name": "_contract",
							"type": "address"
						}
					],
					"name": "payToReceive",
					"outputs": [],
					"stateMutability": "payable",
					"type": "function"
				},
				{
					"inputs": [
						{
							"internalType": "address",
							"name": "_contract",
							"type": "address"
						},
						{
							"internalType": "uint256",
							"name": "_amount",
							"type": "uint256"
						},
						{
							"internalType": "string",
							"name": "_incrementer",
							"type": "string"
						}
					],
					"name": "testCall",
					"outputs": [
						{
							"internalType": "bool",
							"name": "",
							"type": "bool"
						},
						{
							"internalType": "uint256",
							"name": "",
							"type": "uint256"
						}
					],
					"stateMutability": "nonpayable",
					"type": "function"
				}
			],
			"devdoc": {
				"kind": "dev",
				"methods": {},
				"version": 1
			},
			"evm": {
				"assembly": "    /* \"contracts/Call.sol\":495:1171  contract Caller {\r... */\n  mstore(0x40, 0x80)\n  callvalue\n  dup1\n  iszero\n  tag_1\n  jumpi\n  0x00\n  dup1\n  revert\ntag_1:\n  pop\n  dataSize(sub_0)\n  dup1\n  dataOffset(sub_0)\n  0x00\n  codecopy\n  0x00\n  return\nstop\n\nsub_0: assembly {\n        /* \"contracts/Call.sol\":495:1171  contract Caller {\r... */\n      mstore(0x40, 0x80)\n      jumpi(tag_1, lt(calldatasize, 0x04))\n      shr(0xe0, calldataload(0x00))\n      dup1\n      0x13dcb81b\n      eq\n      tag_2\n      jumpi\n      dup1\n      0x6aceb071\n      eq\n      tag_3\n      jumpi\n    tag_1:\n      0x00\n      dup1\n      revert\n        /* \"contracts/Call.sol\":524:994  function testCall(address _contract, uint256 _amount, string memory _incrementer) external returns(bool, uint256) {\r... */\n    tag_2:\n      callvalue\n      dup1\n      iszero\n      tag_4\n      jumpi\n      0x00\n      dup1\n      revert\n    tag_4:\n      pop\n      tag_5\n      0x04\n      dup1\n      calldatasize\n      sub\n      dup2\n      add\n      swap1\n      tag_6\n      swap2\n      swap1\n      tag_7\n      jump\t// in\n    tag_6:\n      tag_8\n      jump\t// in\n    tag_5:\n      mload(0x40)\n      tag_9\n      swap3\n      swap2\n      swap1\n      tag_10\n      jump\t// in\n    tag_9:\n      mload(0x40)\n      dup1\n      swap2\n      sub\n      swap1\n      return\n        /* \"contracts/Call.sol\":1002:1168  function payToReceive (address _contract) external payable {\r... */\n    tag_3:\n      tag_11\n      0x04\n      dup1\n      calldatasize\n      sub\n      dup2\n      add\n      swap1\n      tag_12\n      swap2\n      swap1\n      tag_13\n      jump\t// in\n    tag_12:\n      tag_14\n      jump\t// in\n    tag_11:\n      stop\n        /* \"contracts/Call.sol\":524:994  function testCall(address _contract, uint256 _amount, string memory _incrementer) external returns(bool, uint256) {\r... */\n    tag_8:\n        /* \"contracts/Call.sol\":623:627  bool */\n      0x00\n        /* \"contracts/Call.sol\":629:636  uint256 */\n      dup1\n        /* \"contracts/Call.sol\":650:662  bool success */\n      0x00\n        /* \"contracts/Call.sol\":664:680  bytes memory res */\n      dup1\n        /* \"contracts/Call.sol\":684:693  _contract */\n      dup7\n        /* \"contracts/Call.sol\":684:698  _contract.call */\n      0xffffffffffffffffffffffffffffffffffffffff\n      and\n        /* \"contracts/Call.sol\":752:759  _amount */\n      dup7\n        /* \"contracts/Call.sol\":761:773  _incrementer */\n      dup7\n        /* \"contracts/Call.sol\":699:774  abi.encodeWithSignature(\"increment(uint256,string)\", _amount, _incrementer) */\n      add(0x24, mload(0x40))\n      tag_16\n      swap3\n      swap2\n      swap1\n      tag_17\n      jump\t// in\n    tag_16:\n      mload(0x40)\n      0x20\n      dup2\n      dup4\n      sub\n      sub\n      dup2\n      mstore\n      swap1\n      0x40\n      mstore\n      and(not(0xffffffffffffffffffffffffffffffffffffffffffffffffffffffff), 0xc87b285a00000000000000000000000000000000000000000000000000000000)\n      0x20\n      dup3\n      add\n      dup1\n      mload\n      0xffffffffffffffffffffffffffffffffffffffffffffffffffffffff\n      dup4\n      dup2\n      dup4\n      and\n      or\n      dup4\n      mstore\n      pop\n      pop\n      pop\n      pop\n        /* \"contracts/Call.sol\":684:775  _contract.call(abi.encodeWithSignature(\"increment(uint256,string)\", _amount, _incrementer)) */\n      mload(0x40)\n      tag_18\n      swap2\n      swap1\n      tag_19\n      jump\t// in\n    tag_18:\n      0x00\n      mload(0x40)\n      dup1\n      dup4\n      sub\n      dup2\n      0x00\n      dup7\n      gas\n      call\n      swap2\n      pop\n      pop\n      returndatasize\n      dup1\n      0x00\n      dup2\n      eq\n      tag_22\n      jumpi\n      mload(0x40)\n      swap2\n      pop\n      and(add(returndatasize, 0x3f), not(0x1f))\n      dup3\n      add\n      0x40\n      mstore\n      returndatasize\n      dup3\n      mstore\n      returndatasize\n      0x00\n      0x20\n      dup5\n      add\n      returndatacopy\n      jump(tag_21)\n    tag_22:\n      0x60\n      swap2\n      pop\n    tag_21:\n      pop\n        /* \"contracts/Call.sol\":649:775  (bool success, bytes memory res) = _contract.call(abi.encodeWithSignature(\"increment(uint256,string)\", _amount, _incrementer)) */\n      swap2\n      pop\n      swap2\n      pop\n        /* \"contracts/Call.sol\":852:859  success */\n      dup2\n        /* \"contracts/Call.sol\":844:884  require(success, \"Function call failed\") */\n      tag_23\n      jumpi\n      mload(0x40)\n      0x08c379a000000000000000000000000000000000000000000000000000000000\n      dup2\n      mstore\n      0x04\n      add\n      tag_24\n      swap1\n      tag_25\n      jump\t// in\n    tag_24:\n      mload(0x40)\n      dup1\n      swap2\n      sub\n      swap1\n      revert\n    tag_23:\n        /* \"contracts/Call.sol\":905:919  uint256 _total */\n      0x00\n        /* \"contracts/Call.sol\":933:936  res */\n      dup2\n        /* \"contracts/Call.sol\":922:948  abi.decode(res, (uint256)) */\n      dup1\n      0x20\n      add\n      swap1\n      mload\n      dup2\n      add\n      swap1\n      tag_26\n      swap2\n      swap1\n      tag_27\n      jump\t// in\n    tag_26:\n        /* \"contracts/Call.sol\":905:948  uint256 _total = abi.decode(res, (uint256)) */\n      swap1\n      pop\n        /* \"contracts/Call.sol\":970:977  success */\n      dup3\n        /* \"contracts/Call.sol\":979:985  _total */\n      dup2\n        /* \"contracts/Call.sol\":962:986  return (success, _total) */\n      swap5\n      pop\n      swap5\n      pop\n      pop\n      pop\n      pop\n        /* \"contracts/Call.sol\":524:994  function testCall(address _contract, uint256 _amount, string memory _incrementer) external returns(bool, uint256) {\r... */\n      swap4\n      pop\n      swap4\n      swap2\n      pop\n      pop\n      jump\t// out\n        /* \"contracts/Call.sol\":1002:1168  function payToReceive (address _contract) external payable {\r... */\n    tag_14:\n        /* \"contracts/Call.sol\":1073:1085  bool success */\n      0x00\n        /* \"contracts/Call.sol\":1090:1099  _contract */\n      dup2\n        /* \"contracts/Call.sol\":1090:1104  _contract.call */\n      0xffffffffffffffffffffffffffffffffffffffff\n      and\n        /* \"contracts/Call.sol\":1112:1121  msg.value */\n      callvalue\n        /* \"contracts/Call.sol\":1090:1126  _contract.call{value: msg.value}(\"\") */\n      mload(0x40)\n      tag_29\n      swap1\n      tag_30\n      jump\t// in\n    tag_29:\n      0x00\n      mload(0x40)\n      dup1\n      dup4\n      sub\n      dup2\n      dup6\n      dup8\n      gas\n      call\n      swap3\n      pop\n      pop\n      pop\n      returndatasize\n      dup1\n      0x00\n      dup2\n      eq\n      tag_33\n      jumpi\n      mload(0x40)\n      swap2\n      pop\n      and(add(returndatasize, 0x3f), not(0x1f))\n      dup3\n      add\n      0x40\n      mstore\n      returndatasize\n      dup3\n      mstore\n      returndatasize\n      0x00\n      0x20\n      dup5\n      add\n      returndatacopy\n      jump(tag_32)\n    tag_33:\n      0x60\n      swap2\n      pop\n    tag_32:\n      pop\n        /* \"contracts/Call.sol\":1072:1126  (bool success,) = _contract.call{value: msg.value}(\"\") */\n      pop\n      swap1\n      pop\n        /* \"contracts/Call.sol\":1143:1150  success */\n      dup1\n        /* \"contracts/Call.sol\":1139:1160  if(!success) revert() */\n      tag_34\n      jumpi\n        /* \"contracts/Call.sol\":1152:1160  revert() */\n      0x00\n      dup1\n      revert\n        /* \"contracts/Call.sol\":1139:1160  if(!success) revert() */\n    tag_34:\n        /* \"contracts/Call.sol\":1002:1168  function payToReceive (address _contract) external payable {\r... */\n      pop\n      pop\n      jump\t// out\n        /* \"#utility.yul\":7:351   */\n    tag_36:\n      0x00\n        /* \"#utility.yul\":110:175   */\n      tag_38\n        /* \"#utility.yul\":125:174   */\n      tag_39\n        /* \"#utility.yul\":167:173   */\n      dup5\n        /* \"#utility.yul\":125:174   */\n      tag_40\n      jump\t// in\n    tag_39:\n        /* \"#utility.yul\":110:175   */\n      tag_41\n      jump\t// in\n    tag_38:\n        /* \"#utility.yul\":101:175   */\n      swap1\n      pop\n        /* \"#utility.yul\":198:204   */\n      dup3\n        /* \"#utility.yul\":191:196   */\n      dup2\n        /* \"#utility.yul\":184:205   */\n      mstore\n        /* \"#utility.yul\":236:240   */\n      0x20\n        /* \"#utility.yul\":229:234   */\n      dup2\n        /* \"#utility.yul\":225:241   */\n      add\n        /* \"#utility.yul\":274:277   */\n      dup5\n        /* \"#utility.yul\":265:271   */\n      dup5\n        /* \"#utility.yul\":260:263   */\n      dup5\n        /* \"#utility.yul\":256:272   */\n      add\n        /* \"#utility.yul\":253:278   */\n      gt\n        /* \"#utility.yul\":250:252   */\n      iszero\n      tag_42\n      jumpi\n        /* \"#utility.yul\":291:292   */\n      0x00\n        /* \"#utility.yul\":288:289   */\n      dup1\n        /* \"#utility.yul\":281:293   */\n      revert\n        /* \"#utility.yul\":250:252   */\n    tag_42:\n        /* \"#utility.yul\":304:345   */\n      tag_43\n        /* \"#utility.yul\":338:344   */\n      dup5\n        /* \"#utility.yul\":333:336   */\n      dup3\n        /* \"#utility.yul\":328:331   */\n      dup6\n        /* \"#utility.yul\":304:345   */\n      tag_44\n      jump\t// in\n    tag_43:\n        /* \"#utility.yul\":91:351   */\n      pop\n      swap4\n      swap3\n      pop\n      pop\n      pop\n      jump\t// out\n        /* \"#utility.yul\":357:496   */\n    tag_45:\n      0x00\n        /* \"#utility.yul\":441:447   */\n      dup2\n        /* \"#utility.yul\":428:448   */\n      calldataload\n        /* \"#utility.yul\":419:448   */\n      swap1\n      pop\n        /* \"#utility.yul\":457:490   */\n      tag_47\n        /* \"#utility.yul\":484:489   */\n      dup2\n        /* \"#utility.yul\":457:490   */\n      tag_48\n      jump\t// in\n    tag_47:\n        /* \"#utility.yul\":409:496   */\n      swap3\n      swap2\n      pop\n      pop\n      jump\t// out\n        /* \"#utility.yul\":516:789   */\n    tag_49:\n      0x00\n        /* \"#utility.yul\":621:624   */\n      dup3\n        /* \"#utility.yul\":614:618   */\n      0x1f\n        /* \"#utility.yul\":606:612   */\n      dup4\n        /* \"#utility.yul\":602:619   */\n      add\n        /* \"#utility.yul\":598:625   */\n      slt\n        /* \"#utility.yul\":588:590   */\n      tag_51\n      jumpi\n        /* \"#utility.yul\":639:640   */\n      0x00\n        /* \"#utility.yul\":636:637   */\n      dup1\n        /* \"#utility.yul\":629:641   */\n      revert\n        /* \"#utility.yul\":588:590   */\n    tag_51:\n        /* \"#utility.yul\":679:685   */\n      dup2\n        /* \"#utility.yul\":666:686   */\n      calldataload\n        /* \"#utility.yul\":704:783   */\n      tag_52\n        /* \"#utility.yul\":779:782   */\n      dup5\n        /* \"#utility.yul\":771:777   */\n      dup3\n        /* \"#utility.yul\":764:768   */\n      0x20\n        /* \"#utility.yul\":756:762   */\n      dup7\n        /* \"#utility.yul\":752:769   */\n      add\n        /* \"#utility.yul\":704:783   */\n      tag_36\n      jump\t// in\n    tag_52:\n        /* \"#utility.yul\":695:783   */\n      swap2\n      pop\n        /* \"#utility.yul\":578:789   */\n      pop\n      swap3\n      swap2\n      pop\n      pop\n      jump\t// out\n        /* \"#utility.yul\":795:934   */\n    tag_53:\n      0x00\n        /* \"#utility.yul\":879:885   */\n      dup2\n        /* \"#utility.yul\":866:886   */\n      calldataload\n        /* \"#utility.yul\":857:886   */\n      swap1\n      pop\n        /* \"#utility.yul\":895:928   */\n      tag_55\n        /* \"#utility.yul\":922:927   */\n      dup2\n        /* \"#utility.yul\":895:928   */\n      tag_56\n      jump\t// in\n    tag_55:\n        /* \"#utility.yul\":847:934   */\n      swap3\n      swap2\n      pop\n      pop\n      jump\t// out\n        /* \"#utility.yul\":940:1083   */\n    tag_57:\n      0x00\n        /* \"#utility.yul\":1028:1034   */\n      dup2\n        /* \"#utility.yul\":1022:1035   */\n      mload\n        /* \"#utility.yul\":1013:1035   */\n      swap1\n      pop\n        /* \"#utility.yul\":1044:1077   */\n      tag_59\n        /* \"#utility.yul\":1071:1076   */\n      dup2\n        /* \"#utility.yul\":1044:1077   */\n      tag_56\n      jump\t// in\n    tag_59:\n        /* \"#utility.yul\":1003:1083   */\n      swap3\n      swap2\n      pop\n      pop\n      jump\t// out\n        /* \"#utility.yul\":1089:1351   */\n    tag_13:\n      0x00\n        /* \"#utility.yul\":1197:1199   */\n      0x20\n        /* \"#utility.yul\":1185:1194   */\n      dup3\n        /* \"#utility.yul\":1176:1183   */\n      dup5\n        /* \"#utility.yul\":1172:1195   */\n      sub\n        /* \"#utility.yul\":1168:1200   */\n      slt\n        /* \"#utility.yul\":1165:1167   */\n      iszero\n      tag_61\n      jumpi\n        /* \"#utility.yul\":1213:1214   */\n      0x00\n        /* \"#utility.yul\":1210:1211   */\n      dup1\n        /* \"#utility.yul\":1203:1215   */\n      revert\n        /* \"#utility.yul\":1165:1167   */\n    tag_61:\n        /* \"#utility.yul\":1256:1257   */\n      0x00\n        /* \"#utility.yul\":1281:1334   */\n      tag_62\n        /* \"#utility.yul\":1326:1333   */\n      dup5\n        /* \"#utility.yul\":1317:1323   */\n      dup3\n        /* \"#utility.yul\":1306:1315   */\n      dup6\n        /* \"#utility.yul\":1302:1324   */\n      add\n        /* \"#utility.yul\":1281:1334   */\n      tag_45\n      jump\t// in\n    tag_62:\n        /* \"#utility.yul\":1271:1334   */\n      swap2\n      pop\n        /* \"#utility.yul\":1227:1344   */\n      pop\n        /* \"#utility.yul\":1155:1351   */\n      swap3\n      swap2\n      pop\n      pop\n      jump\t// out\n        /* \"#utility.yul\":1357:2022   */\n    tag_7:\n      0x00\n      dup1\n      0x00\n        /* \"#utility.yul\":1509:1511   */\n      0x60\n        /* \"#utility.yul\":1497:1506   */\n      dup5\n        /* \"#utility.yul\":1488:1495   */\n      dup7\n        /* \"#utility.yul\":1484:1507   */\n      sub\n        /* \"#utility.yul\":1480:1512   */\n      slt\n        /* \"#utility.yul\":1477:1479   */\n      iszero\n      tag_64\n      jumpi\n        /* \"#utility.yul\":1525:1526   */\n      0x00\n        /* \"#utility.yul\":1522:1523   */\n      dup1\n        /* \"#utility.yul\":1515:1527   */\n      revert\n        /* \"#utility.yul\":1477:1479   */\n    tag_64:\n        /* \"#utility.yul\":1568:1569   */\n      0x00\n        /* \"#utility.yul\":1593:1646   */\n      tag_65\n        /* \"#utility.yul\":1638:1645   */\n      dup7\n        /* \"#utility.yul\":1629:1635   */\n      dup3\n        /* \"#utility.yul\":1618:1627   */\n      dup8\n        /* \"#utility.yul\":1614:1636   */\n      add\n        /* \"#utility.yul\":1593:1646   */\n      tag_45\n      jump\t// in\n    tag_65:\n        /* \"#utility.yul\":1583:1646   */\n      swap4\n      pop\n        /* \"#utility.yul\":1539:1656   */\n      pop\n        /* \"#utility.yul\":1695:1697   */\n      0x20\n        /* \"#utility.yul\":1721:1774   */\n      tag_66\n        /* \"#utility.yul\":1766:1773   */\n      dup7\n        /* \"#utility.yul\":1757:1763   */\n      dup3\n        /* \"#utility.yul\":1746:1755   */\n      dup8\n        /* \"#utility.yul\":1742:1764   */\n      add\n        /* \"#utility.yul\":1721:1774   */\n      tag_53\n      jump\t// in\n    tag_66:\n        /* \"#utility.yul\":1711:1774   */\n      swap3\n      pop\n        /* \"#utility.yul\":1666:1784   */\n      pop\n        /* \"#utility.yul\":1851:1853   */\n      0x40\n        /* \"#utility.yul\":1840:1849   */\n      dup5\n        /* \"#utility.yul\":1836:1854   */\n      add\n        /* \"#utility.yul\":1823:1855   */\n      calldataload\n        /* \"#utility.yul\":1882:1900   */\n      0xffffffffffffffff\n        /* \"#utility.yul\":1874:1880   */\n      dup2\n        /* \"#utility.yul\":1871:1901   */\n      gt\n        /* \"#utility.yul\":1868:1870   */\n      iszero\n      tag_67\n      jumpi\n        /* \"#utility.yul\":1914:1915   */\n      0x00\n        /* \"#utility.yul\":1911:1912   */\n      dup1\n        /* \"#utility.yul\":1904:1916   */\n      revert\n        /* \"#utility.yul\":1868:1870   */\n    tag_67:\n        /* \"#utility.yul\":1942:2005   */\n      tag_68\n        /* \"#utility.yul\":1997:2004   */\n      dup7\n        /* \"#utility.yul\":1988:1994   */\n      dup3\n        /* \"#utility.yul\":1977:1986   */\n      dup8\n        /* \"#utility.yul\":1973:1995   */\n      add\n        /* \"#utility.yul\":1942:2005   */\n      tag_49\n      jump\t// in\n    tag_68:\n        /* \"#utility.yul\":1932:2005   */\n      swap2\n      pop\n        /* \"#utility.yul\":1794:2015   */\n      pop\n        /* \"#utility.yul\":1467:2022   */\n      swap3\n      pop\n      swap3\n      pop\n      swap3\n      jump\t// out\n        /* \"#utility.yul\":2028:2312   */\n    tag_27:\n      0x00\n        /* \"#utility.yul\":2147:2149   */\n      0x20\n        /* \"#utility.yul\":2135:2144   */\n      dup3\n        /* \"#utility.yul\":2126:2133   */\n      dup5\n        /* \"#utility.yul\":2122:2145   */\n      sub\n        /* \"#utility.yul\":2118:2150   */\n      slt\n        /* \"#utility.yul\":2115:2117   */\n      iszero\n      tag_70\n      jumpi\n        /* \"#utility.yul\":2163:2164   */\n      0x00\n        /* \"#utility.yul\":2160:2161   */\n      dup1\n        /* \"#utility.yul\":2153:2165   */\n      revert\n        /* \"#utility.yul\":2115:2117   */\n    tag_70:\n        /* \"#utility.yul\":2206:2207   */\n      0x00\n        /* \"#utility.yul\":2231:2295   */\n      tag_71\n        /* \"#utility.yul\":2287:2294   */\n      dup5\n        /* \"#utility.yul\":2278:2284   */\n      dup3\n        /* \"#utility.yul\":2267:2276   */\n      dup6\n        /* \"#utility.yul\":2263:2285   */\n      add\n        /* \"#utility.yul\":2231:2295   */\n      tag_57\n      jump\t// in\n    tag_71:\n        /* \"#utility.yul\":2221:2295   */\n      swap2\n      pop\n        /* \"#utility.yul\":2177:2305   */\n      pop\n        /* \"#utility.yul\":2105:2312   */\n      swap3\n      swap2\n      pop\n      pop\n      jump\t// out\n        /* \"#utility.yul\":2318:2427   */\n    tag_72:\n        /* \"#utility.yul\":2399:2420   */\n      tag_74\n        /* \"#utility.yul\":2414:2419   */\n      dup2\n        /* \"#utility.yul\":2399:2420   */\n      tag_75\n      jump\t// in\n    tag_74:\n        /* \"#utility.yul\":2394:2397   */\n      dup3\n        /* \"#utility.yul\":2387:2421   */\n      mstore\n        /* \"#utility.yul\":2377:2427   */\n      pop\n      pop\n      jump\t// out\n        /* \"#utility.yul\":2433:2806   */\n    tag_76:\n      0x00\n        /* \"#utility.yul\":2565:2603   */\n      tag_78\n        /* \"#utility.yul\":2597:2602   */\n      dup3\n        /* \"#utility.yul\":2565:2603   */\n      tag_79\n      jump\t// in\n    tag_78:\n        /* \"#utility.yul\":2619:2707   */\n      tag_80\n        /* \"#utility.yul\":2700:2706   */\n      dup2\n        /* \"#utility.yul\":2695:2698   */\n      dup6\n        /* \"#utility.yul\":2619:2707   */\n      tag_81\n      jump\t// in\n    tag_80:\n        /* \"#utility.yul\":2612:2707   */\n      swap4\n      pop\n        /* \"#utility.yul\":2716:2768   */\n      tag_82\n        /* \"#utility.yul\":2761:2767   */\n      dup2\n        /* \"#utility.yul\":2756:2759   */\n      dup6\n        /* \"#utility.yul\":2749:2753   */\n      0x20\n        /* \"#utility.yul\":2742:2747   */\n      dup7\n        /* \"#utility.yul\":2738:2754   */\n      add\n        /* \"#utility.yul\":2716:2768   */\n      tag_83\n      jump\t// in\n    tag_82:\n        /* \"#utility.yul\":2793:2799   */\n      dup1\n        /* \"#utility.yul\":2788:2791   */\n      dup5\n        /* \"#utility.yul\":2784:2800   */\n      add\n        /* \"#utility.yul\":2777:2800   */\n      swap2\n      pop\n        /* \"#utility.yul\":2541:2806   */\n      pop\n      swap3\n      swap2\n      pop\n      pop\n      jump\t// out\n        /* \"#utility.yul\":2812:3176   */\n    tag_84:\n      0x00\n        /* \"#utility.yul\":2928:2967   */\n      tag_86\n        /* \"#utility.yul\":2961:2966   */\n      dup3\n        /* \"#utility.yul\":2928:2967   */\n      tag_87\n      jump\t// in\n    tag_86:\n        /* \"#utility.yul\":2983:3054   */\n      tag_88\n        /* \"#utility.yul\":3047:3053   */\n      dup2\n        /* \"#utility.yul\":3042:3045   */\n      dup6\n        /* \"#utility.yul\":2983:3054   */\n      tag_89\n      jump\t// in\n    tag_88:\n        /* \"#utility.yul\":2976:3054   */\n      swap4\n      pop\n        /* \"#utility.yul\":3063:3115   */\n      tag_90\n        /* \"#utility.yul\":3108:3114   */\n      dup2\n        /* \"#utility.yul\":3103:3106   */\n      dup6\n        /* \"#utility.yul\":3096:3100   */\n      0x20\n        /* \"#utility.yul\":3089:3094   */\n      dup7\n        /* \"#utility.yul\":3085:3101   */\n      add\n        /* \"#utility.yul\":3063:3115   */\n      tag_83\n      jump\t// in\n    tag_90:\n        /* \"#utility.yul\":3140:3169   */\n      tag_91\n        /* \"#utility.yul\":3162:3168   */\n      dup2\n        /* \"#utility.yul\":3140:3169   */\n      tag_92\n      jump\t// in\n    tag_91:\n        /* \"#utility.yul\":3135:3138   */\n      dup5\n        /* \"#utility.yul\":3131:3170   */\n      add\n        /* \"#utility.yul\":3124:3170   */\n      swap2\n      pop\n        /* \"#utility.yul\":2904:3176   */\n      pop\n      swap3\n      swap2\n      pop\n      pop\n      jump\t// out\n        /* \"#utility.yul\":3182:3500   */\n    tag_93:\n      0x00\n        /* \"#utility.yul\":3345:3412   */\n      tag_95\n        /* \"#utility.yul\":3409:3411   */\n      0x14\n        /* \"#utility.yul\":3404:3407   */\n      dup4\n        /* \"#utility.yul\":3345:3412   */\n      tag_89\n      jump\t// in\n    tag_95:\n        /* \"#utility.yul\":3338:3412   */\n      swap2\n      pop\n        /* \"#utility.yul\":3442:3464   */\n      0x46756e6374696f6e2063616c6c206661696c6564000000000000000000000000\n        /* \"#utility.yul\":3438:3439   */\n      0x00\n        /* \"#utility.yul\":3433:3436   */\n      dup4\n        /* \"#utility.yul\":3429:3440   */\n      add\n        /* \"#utility.yul\":3422:3465   */\n      mstore\n        /* \"#utility.yul\":3491:3493   */\n      0x20\n        /* \"#utility.yul\":3486:3489   */\n      dup3\n        /* \"#utility.yul\":3482:3494   */\n      add\n        /* \"#utility.yul\":3475:3494   */\n      swap1\n      pop\n        /* \"#utility.yul\":3328:3500   */\n      swap2\n      swap1\n      pop\n      jump\t// out\n        /* \"#utility.yul\":3506:3803   */\n    tag_96:\n      0x00\n        /* \"#utility.yul\":3686:3769   */\n      tag_98\n        /* \"#utility.yul\":3767:3768   */\n      0x00\n        /* \"#utility.yul\":3762:3765   */\n      dup4\n        /* \"#utility.yul\":3686:3769   */\n      tag_81\n      jump\t// in\n    tag_98:\n        /* \"#utility.yul\":3679:3769   */\n      swap2\n      pop\n        /* \"#utility.yul\":3795:3796   */\n      0x00\n        /* \"#utility.yul\":3790:3793   */\n      dup3\n        /* \"#utility.yul\":3786:3797   */\n      add\n        /* \"#utility.yul\":3779:3797   */\n      swap1\n      pop\n        /* \"#utility.yul\":3669:3803   */\n      swap2\n      swap1\n      pop\n      jump\t// out\n        /* \"#utility.yul\":3809:3927   */\n    tag_99:\n        /* \"#utility.yul\":3896:3920   */\n      tag_101\n        /* \"#utility.yul\":3914:3919   */\n      dup2\n        /* \"#utility.yul\":3896:3920   */\n      tag_102\n      jump\t// in\n    tag_101:\n        /* \"#utility.yul\":3891:3894   */\n      dup3\n        /* \"#utility.yul\":3884:3921   */\n      mstore\n        /* \"#utility.yul\":3874:3927   */\n      pop\n      pop\n      jump\t// out\n        /* \"#utility.yul\":3933:4204   */\n    tag_19:\n      0x00\n        /* \"#utility.yul\":4085:4178   */\n      tag_104\n        /* \"#utility.yul\":4174:4177   */\n      dup3\n        /* \"#utility.yul\":4165:4171   */\n      dup5\n        /* \"#utility.yul\":4085:4178   */\n      tag_76\n      jump\t// in\n    tag_104:\n        /* \"#utility.yul\":4078:4178   */\n      swap2\n      pop\n        /* \"#utility.yul\":4195:4198   */\n      dup2\n        /* \"#utility.yul\":4188:4198   */\n      swap1\n      pop\n        /* \"#utility.yul\":4067:4204   */\n      swap3\n      swap2\n      pop\n      pop\n      jump\t// out\n        /* \"#utility.yul\":4210:4589   */\n    tag_30:\n      0x00\n        /* \"#utility.yul\":4416:4563   */\n      tag_106\n        /* \"#utility.yul\":4559:4562   */\n      dup3\n        /* \"#utility.yul\":4416:4563   */\n      tag_96\n      jump\t// in\n    tag_106:\n        /* \"#utility.yul\":4409:4563   */\n      swap2\n      pop\n        /* \"#utility.yul\":4580:4583   */\n      dup2\n        /* \"#utility.yul\":4573:4583   */\n      swap1\n      pop\n        /* \"#utility.yul\":4398:4589   */\n      swap2\n      swap1\n      pop\n      jump\t// out\n        /* \"#utility.yul\":4595:4915   */\n    tag_10:\n      0x00\n        /* \"#utility.yul\":4748:4750   */\n      0x40\n        /* \"#utility.yul\":4737:4746   */\n      dup3\n        /* \"#utility.yul\":4733:4751   */\n      add\n        /* \"#utility.yul\":4725:4751   */\n      swap1\n      pop\n        /* \"#utility.yul\":4761:4826   */\n      tag_108\n        /* \"#utility.yul\":4823:4824   */\n      0x00\n        /* \"#utility.yul\":4812:4821   */\n      dup4\n        /* \"#utility.yul\":4808:4825   */\n      add\n        /* \"#utility.yul\":4799:4805   */\n      dup6\n        /* \"#utility.yul\":4761:4826   */\n      tag_72\n      jump\t// in\n    tag_108:\n        /* \"#utility.yul\":4836:4908   */\n      tag_109\n        /* \"#utility.yul\":4904:4906   */\n      0x20\n        /* \"#utility.yul\":4893:4902   */\n      dup4\n        /* \"#utility.yul\":4889:4907   */\n      add\n        /* \"#utility.yul\":4880:4886   */\n      dup5\n        /* \"#utility.yul\":4836:4908   */\n      tag_99\n      jump\t// in\n    tag_109:\n        /* \"#utility.yul\":4715:4915   */\n      swap4\n      swap3\n      pop\n      pop\n      pop\n      jump\t// out\n        /* \"#utility.yul\":4921:5340   */\n    tag_25:\n      0x00\n        /* \"#utility.yul\":5125:5127   */\n      0x20\n        /* \"#utility.yul\":5114:5123   */\n      dup3\n        /* \"#utility.yul\":5110:5128   */\n      add\n        /* \"#utility.yul\":5102:5128   */\n      swap1\n      pop\n        /* \"#utility.yul\":5174:5183   */\n      dup2\n        /* \"#utility.yul\":5168:5172   */\n      dup2\n        /* \"#utility.yul\":5164:5184   */\n      sub\n        /* \"#utility.yul\":5160:5161   */\n      0x00\n        /* \"#utility.yul\":5149:5158   */\n      dup4\n        /* \"#utility.yul\":5145:5162   */\n      add\n        /* \"#utility.yul\":5138:5185   */\n      mstore\n        /* \"#utility.yul\":5202:5333   */\n      tag_111\n        /* \"#utility.yul\":5328:5332   */\n      dup2\n        /* \"#utility.yul\":5202:5333   */\n      tag_93\n      jump\t// in\n    tag_111:\n        /* \"#utility.yul\":5194:5333   */\n      swap1\n      pop\n        /* \"#utility.yul\":5092:5340   */\n      swap2\n      swap1\n      pop\n      jump\t// out\n        /* \"#utility.yul\":5346:5769   */\n    tag_17:\n      0x00\n        /* \"#utility.yul\":5525:5527   */\n      0x40\n        /* \"#utility.yul\":5514:5523   */\n      dup3\n        /* \"#utility.yul\":5510:5528   */\n      add\n        /* \"#utility.yul\":5502:5528   */\n      swap1\n      pop\n        /* \"#utility.yul\":5538:5609   */\n      tag_113\n        /* \"#utility.yul\":5606:5607   */\n      0x00\n        /* \"#utility.yul\":5595:5604   */\n      dup4\n        /* \"#utility.yul\":5591:5608   */\n      add\n        /* \"#utility.yul\":5582:5588   */\n      dup6\n        /* \"#utility.yul\":5538:5609   */\n      tag_99\n      jump\t// in\n    tag_113:\n        /* \"#utility.yul\":5656:5665   */\n      dup2\n        /* \"#utility.yul\":5650:5654   */\n      dup2\n        /* \"#utility.yul\":5646:5666   */\n      sub\n        /* \"#utility.yul\":5641:5643   */\n      0x20\n        /* \"#utility.yul\":5630:5639   */\n      dup4\n        /* \"#utility.yul\":5626:5644   */\n      add\n        /* \"#utility.yul\":5619:5667   */\n      mstore\n        /* \"#utility.yul\":5684:5762   */\n      tag_114\n        /* \"#utility.yul\":5757:5761   */\n      dup2\n        /* \"#utility.yul\":5748:5754   */\n      dup5\n        /* \"#utility.yul\":5684:5762   */\n      tag_84\n      jump\t// in\n    tag_114:\n        /* \"#utility.yul\":5676:5762   */\n      swap1\n      pop\n        /* \"#utility.yul\":5492:5769   */\n      swap4\n      swap3\n      pop\n      pop\n      pop\n      jump\t// out\n        /* \"#utility.yul\":5775:6058   */\n    tag_41:\n      0x00\n        /* \"#utility.yul\":5841:5843   */\n      0x40\n        /* \"#utility.yul\":5835:5844   */\n      mload\n        /* \"#utility.yul\":5825:5844   */\n      swap1\n      pop\n        /* \"#utility.yul\":5883:5887   */\n      dup2\n        /* \"#utility.yul\":5875:5881   */\n      dup2\n        /* \"#utility.yul\":5871:5888   */\n      add\n        /* \"#utility.yul\":5990:5996   */\n      dup2\n        /* \"#utility.yul\":5978:5988   */\n      dup2\n        /* \"#utility.yul\":5975:5997   */\n      lt\n        /* \"#utility.yul\":5954:5972   */\n      0xffffffffffffffff\n        /* \"#utility.yul\":5942:5952   */\n      dup3\n        /* \"#utility.yul\":5939:5973   */\n      gt\n        /* \"#utility.yul\":5936:5998   */\n      or\n        /* \"#utility.yul\":5933:5935   */\n      iszero\n      tag_116\n      jumpi\n        /* \"#utility.yul\":6001:6019   */\n      tag_117\n      tag_118\n      jump\t// in\n    tag_117:\n        /* \"#utility.yul\":5933:5935   */\n    tag_116:\n        /* \"#utility.yul\":6041:6051   */\n      dup1\n        /* \"#utility.yul\":6037:6039   */\n      0x40\n        /* \"#utility.yul\":6030:6052   */\n      mstore\n        /* \"#utility.yul\":5815:6058   */\n      pop\n      swap2\n      swap1\n      pop\n      jump\t// out\n        /* \"#utility.yul\":6064:6396   */\n    tag_40:\n      0x00\n        /* \"#utility.yul\":6216:6234   */\n      0xffffffffffffffff\n        /* \"#utility.yul\":6208:6214   */\n      dup3\n        /* \"#utility.yul\":6205:6235   */\n      gt\n        /* \"#utility.yul\":6202:6204   */\n      iszero\n      tag_120\n      jumpi\n        /* \"#utility.yul\":6238:6256   */\n      tag_121\n      tag_118\n      jump\t// in\n    tag_121:\n        /* \"#utility.yul\":6202:6204   */\n    tag_120:\n        /* \"#utility.yul\":6323:6327   */\n      0x1f\n        /* \"#utility.yul\":6319:6328   */\n      not\n        /* \"#utility.yul\":6312:6316   */\n      0x1f\n        /* \"#utility.yul\":6304:6310   */\n      dup4\n        /* \"#utility.yul\":6300:6317   */\n      add\n        /* \"#utility.yul\":6296:6329   */\n      and\n        /* \"#utility.yul\":6288:6329   */\n      swap1\n      pop\n        /* \"#utility.yul\":6384:6388   */\n      0x20\n        /* \"#utility.yul\":6378:6382   */\n      dup2\n        /* \"#utility.yul\":6374:6389   */\n      add\n        /* \"#utility.yul\":6366:6389   */\n      swap1\n      pop\n        /* \"#utility.yul\":6131:6396   */\n      swap2\n      swap1\n      pop\n      jump\t// out\n        /* \"#utility.yul\":6402:6500   */\n    tag_79:\n      0x00\n        /* \"#utility.yul\":6487:6492   */\n      dup2\n        /* \"#utility.yul\":6481:6493   */\n      mload\n        /* \"#utility.yul\":6471:6493   */\n      swap1\n      pop\n        /* \"#utility.yul\":6460:6500   */\n      swap2\n      swap1\n      pop\n      jump\t// out\n        /* \"#utility.yul\":6506:6605   */\n    tag_87:\n      0x00\n        /* \"#utility.yul\":6592:6597   */\n      dup2\n        /* \"#utility.yul\":6586:6598   */\n      mload\n        /* \"#utility.yul\":6576:6598   */\n      swap1\n      pop\n        /* \"#utility.yul\":6565:6605   */\n      swap2\n      swap1\n      pop\n      jump\t// out\n        /* \"#utility.yul\":6611:6758   */\n    tag_81:\n      0x00\n        /* \"#utility.yul\":6749:6752   */\n      dup2\n        /* \"#utility.yul\":6734:6752   */\n      swap1\n      pop\n        /* \"#utility.yul\":6724:6758   */\n      swap3\n      swap2\n      pop\n      pop\n      jump\t// out\n        /* \"#utility.yul\":6764:6933   */\n    tag_89:\n      0x00\n        /* \"#utility.yul\":6882:6888   */\n      dup3\n        /* \"#utility.yul\":6877:6880   */\n      dup3\n        /* \"#utility.yul\":6870:6889   */\n      mstore\n        /* \"#utility.yul\":6922:6926   */\n      0x20\n        /* \"#utility.yul\":6917:6920   */\n      dup3\n        /* \"#utility.yul\":6913:6927   */\n      add\n        /* \"#utility.yul\":6898:6927   */\n      swap1\n      pop\n        /* \"#utility.yul\":6860:6933   */\n      swap3\n      swap2\n      pop\n      pop\n      jump\t// out\n        /* \"#utility.yul\":6939:7035   */\n    tag_126:\n      0x00\n        /* \"#utility.yul\":7005:7029   */\n      tag_128\n        /* \"#utility.yul\":7023:7028   */\n      dup3\n        /* \"#utility.yul\":7005:7029   */\n      tag_129\n      jump\t// in\n    tag_128:\n        /* \"#utility.yul\":6994:7029   */\n      swap1\n      pop\n        /* \"#utility.yul\":6984:7035   */\n      swap2\n      swap1\n      pop\n      jump\t// out\n        /* \"#utility.yul\":7041:7131   */\n    tag_75:\n      0x00\n        /* \"#utility.yul\":7118:7123   */\n      dup2\n        /* \"#utility.yul\":7111:7124   */\n      iszero\n        /* \"#utility.yul\":7104:7125   */\n      iszero\n        /* \"#utility.yul\":7093:7125   */\n      swap1\n      pop\n        /* \"#utility.yul\":7083:7131   */\n      swap2\n      swap1\n      pop\n      jump\t// out\n        /* \"#utility.yul\":7137:7263   */\n    tag_129:\n      0x00\n        /* \"#utility.yul\":7214:7256   */\n      0xffffffffffffffffffffffffffffffffffffffff\n        /* \"#utility.yul\":7207:7212   */\n      dup3\n        /* \"#utility.yul\":7203:7257   */\n      and\n        /* \"#utility.yul\":7192:7257   */\n      swap1\n      pop\n        /* \"#utility.yul\":7182:7263   */\n      swap2\n      swap1\n      pop\n      jump\t// out\n        /* \"#utility.yul\":7269:7346   */\n    tag_102:\n      0x00\n        /* \"#utility.yul\":7335:7340   */\n      dup2\n        /* \"#utility.yul\":7324:7340   */\n      swap1\n      pop\n        /* \"#utility.yul\":7314:7346   */\n      swap2\n      swap1\n      pop\n      jump\t// out\n        /* \"#utility.yul\":7352:7506   */\n    tag_44:\n        /* \"#utility.yul\":7436:7442   */\n      dup3\n        /* \"#utility.yul\":7431:7434   */\n      dup2\n        /* \"#utility.yul\":7426:7429   */\n      dup4\n        /* \"#utility.yul\":7413:7443   */\n      calldatacopy\n        /* \"#utility.yul\":7498:7499   */\n      0x00\n        /* \"#utility.yul\":7489:7495   */\n      dup4\n        /* \"#utility.yul\":7484:7487   */\n      dup4\n        /* \"#utility.yul\":7480:7496   */\n      add\n        /* \"#utility.yul\":7473:7500   */\n      mstore\n        /* \"#utility.yul\":7403:7506   */\n      pop\n      pop\n      pop\n      jump\t// out\n        /* \"#utility.yul\":7512:7819   */\n    tag_83:\n        /* \"#utility.yul\":7580:7581   */\n      0x00\n        /* \"#utility.yul\":7590:7703   */\n    tag_135:\n        /* \"#utility.yul\":7604:7610   */\n      dup4\n        /* \"#utility.yul\":7601:7602   */\n      dup2\n        /* \"#utility.yul\":7598:7611   */\n      lt\n        /* \"#utility.yul\":7590:7703   */\n      iszero\n      tag_137\n      jumpi\n        /* \"#utility.yul\":7689:7690   */\n      dup1\n        /* \"#utility.yul\":7684:7687   */\n      dup3\n        /* \"#utility.yul\":7680:7691   */\n      add\n        /* \"#utility.yul\":7674:7692   */\n      mload\n        /* \"#utility.yul\":7670:7671   */\n      dup2\n        /* \"#utility.yul\":7665:7668   */\n      dup5\n        /* \"#utility.yul\":7661:7672   */\n      add\n        /* \"#utility.yul\":7654:7693   */\n      mstore\n        /* \"#utility.yul\":7626:7628   */\n      0x20\n        /* \"#utility.yul\":7623:7624   */\n      dup2\n        /* \"#utility.yul\":7619:7629   */\n      add\n        /* \"#utility.yul\":7614:7629   */\n      swap1\n      pop\n        /* \"#utility.yul\":7590:7703   */\n      jump(tag_135)\n    tag_137:\n        /* \"#utility.yul\":7721:7727   */\n      dup4\n        /* \"#utility.yul\":7718:7719   */\n      dup2\n        /* \"#utility.yul\":7715:7728   */\n      gt\n        /* \"#utility.yul\":7712:7714   */\n      iszero\n      tag_138\n      jumpi\n        /* \"#utility.yul\":7801:7802   */\n      0x00\n        /* \"#utility.yul\":7792:7798   */\n      dup5\n        /* \"#utility.yul\":7787:7790   */\n      dup5\n        /* \"#utility.yul\":7783:7799   */\n      add\n        /* \"#utility.yul\":7776:7803   */\n      mstore\n        /* \"#utility.yul\":7712:7714   */\n    tag_138:\n        /* \"#utility.yul\":7561:7819   */\n      pop\n      pop\n      pop\n      pop\n      jump\t// out\n        /* \"#utility.yul\":7825:8005   */\n    tag_118:\n        /* \"#utility.yul\":7873:7950   */\n      0x4e487b7100000000000000000000000000000000000000000000000000000000\n        /* \"#utility.yul\":7870:7871   */\n      0x00\n        /* \"#utility.yul\":7863:7951   */\n      mstore\n        /* \"#utility.yul\":7970:7974   */\n      0x41\n        /* \"#utility.yul\":7967:7968   */\n      0x04\n        /* \"#utility.yul\":7960:7975   */\n      mstore\n        /* \"#utility.yul\":7994:7998   */\n      0x24\n        /* \"#utility.yul\":7991:7992   */\n      0x00\n        /* \"#utility.yul\":7984:7999   */\n      revert\n        /* \"#utility.yul\":8011:8113   */\n    tag_92:\n      0x00\n        /* \"#utility.yul\":8103:8105   */\n      0x1f\n        /* \"#utility.yul\":8099:8106   */\n      not\n        /* \"#utility.yul\":8094:8096   */\n      0x1f\n        /* \"#utility.yul\":8087:8092   */\n      dup4\n        /* \"#utility.yul\":8083:8097   */\n      add\n        /* \"#utility.yul\":8079:8107   */\n      and\n        /* \"#utility.yul\":8069:8107   */\n      swap1\n      pop\n        /* \"#utility.yul\":8059:8113   */\n      swap2\n      swap1\n      pop\n      jump\t// out\n        /* \"#utility.yul\":8119:8241   */\n    tag_48:\n        /* \"#utility.yul\":8192:8216   */\n      tag_142\n        /* \"#utility.yul\":8210:8215   */\n      dup2\n        /* \"#utility.yul\":8192:8216   */\n      tag_126\n      jump\t// in\n    tag_142:\n        /* \"#utility.yul\":8185:8190   */\n      dup2\n        /* \"#utility.yul\":8182:8217   */\n      eq\n        /* \"#utility.yul\":8172:8174   */\n      tag_143\n      jumpi\n        /* \"#utility.yul\":8231:8232   */\n      0x00\n        /* \"#utility.yul\":8228:8229   */\n      dup1\n        /* \"#utility.yul\":8221:8233   */\n      revert\n        /* \"#utility.yul\":8172:8174   */\n    tag_143:\n        /* \"#utility.yul\":8162:8241   */\n      pop\n      jump\t// out\n        /* \"#utility.yul\":8247:8369   */\n    tag_56:\n        /* \"#utility.yul\":8320:8344   */\n      tag_145\n        /* \"#utility.yul\":8338:8343   */\n      dup2\n        /* \"#utility.yul\":8320:8344   */\n      tag_102\n      jump\t// in\n    tag_145:\n        /* \"#utility.yul\":8313:8318   */\n      dup2\n        /* \"#utility.yul\":8310:8345   */\n      eq\n        /* \"#utility.yul\":8300:8302   */\n      tag_146\n      jumpi\n        /* \"#utility.yul\":8359:8360   */\n      0x00\n        /* \"#utility.yul\":8356:8357   */\n      dup1\n        /* \"#utility.yul\":8349:8361   */\n      revert\n        /* \"#utility.yul\":8300:8302   */\n    tag_146:\n        /* \"#utility.yul\":8290:8369   */\n      pop\n      jump\t// out\n\n    auxdata: 0xa2646970667358221220f7ec683db699dc25bce35932225f37a0c2de0e4e5d3fde52cadb33d56830586c64736f6c63430008000033\n}\n",
				"bytecode": {
					"linkReferences": {},
					"object": "608060405234801561001057600080fd5b50610714806100206000396000f3fe6080604052600436106100295760003560e01c806313dcb81b1461002e5780636aceb0711461006c575b600080fd5b34801561003a57600080fd5b506100556004803603810190610050919061033c565b610088565b6040516100639291906104da565b60405180910390f35b61008660048036038101906100819190610313565b6101f2565b005b6000806000808673ffffffffffffffffffffffffffffffffffffffff1686866040516024016100b8929190610523565b6040516020818303038152906040527fc87b285a000000000000000000000000000000000000000000000000000000007bffffffffffffffffffffffffffffffffffffffffffffffffffffffff19166020820180517bffffffffffffffffffffffffffffffffffffffffffffffffffffffff838183161783525050505060405161014291906104ae565b6000604051808303816000865af19150503d806000811461017f576040519150601f19603f3d011682016040523d82523d6000602084013e610184565b606091505b5091509150816101c9576040517f08c379a00000000000000000000000000000000000000000000000000000000081526004016101c090610503565b60405180910390fd5b6000818060200190518101906101df91906103a3565b9050828194509450505050935093915050565b60008173ffffffffffffffffffffffffffffffffffffffff1634604051610218906104c5565b60006040518083038185875af1925050503d8060008114610255576040519150601f19603f3d011682016040523d82523d6000602084013e61025a565b606091505b505090508061026857600080fd5b5050565b600061027f61027a84610584565b610553565b90508281526020810184848401111561029757600080fd5b6102a284828561062e565b509392505050565b6000813590506102b9816106b0565b92915050565b600082601f8301126102d057600080fd5b81356102e084826020860161026c565b91505092915050565b6000813590506102f8816106c7565b92915050565b60008151905061030d816106c7565b92915050565b60006020828403121561032557600080fd5b6000610333848285016102aa565b91505092915050565b60008060006060848603121561035157600080fd5b600061035f868287016102aa565b9350506020610370868287016102e9565b925050604084013567ffffffffffffffff81111561038d57600080fd5b610399868287016102bf565b9150509250925092565b6000602082840312156103b557600080fd5b60006103c3848285016102fe565b91505092915050565b6103d5816105f8565b82525050565b60006103e6826105b4565b6103f081856105ca565b935061040081856020860161063d565b80840191505092915050565b6000610417826105bf565b61042181856105d5565b935061043181856020860161063d565b61043a8161069f565b840191505092915050565b60006104526014836105d5565b91507f46756e6374696f6e2063616c6c206661696c65640000000000000000000000006000830152602082019050919050565b60006104926000836105ca565b9150600082019050919050565b6104a881610624565b82525050565b60006104ba82846103db565b915081905092915050565b60006104d082610485565b9150819050919050565b60006040820190506104ef60008301856103cc565b6104fc602083018461049f565b9392505050565b6000602082019050818103600083015261051c81610445565b9050919050565b6000604082019050610538600083018561049f565b818103602083015261054a818461040c565b90509392505050565b6000604051905081810181811067ffffffffffffffff8211171561057a57610579610670565b5b8060405250919050565b600067ffffffffffffffff82111561059f5761059e610670565b5b601f19601f8301169050602081019050919050565b600081519050919050565b600081519050919050565b600081905092915050565b600082825260208201905092915050565b60006105f182610604565b9050919050565b60008115159050919050565b600073ffffffffffffffffffffffffffffffffffffffff82169050919050565b6000819050919050565b82818337600083830152505050565b60005b8381101561065b578082015181840152602081019050610640565b8381111561066a576000848401525b50505050565b7f4e487b7100000000000000000000000000000000000000000000000000000000600052604160045260246000fd5b6000601f19601f8301169050919050565b6106b9816105e6565b81146106c457600080fd5b50565b6106d081610624565b81146106db57600080fd5b5056fea2646970667358221220f7ec683db699dc25bce35932225f37a0c2de0e4e5d3fde52cadb33d56830586c64736f6c63430008000033",
					"opcodes": "PUSH1 0x80 PUSH1 0x40 MSTORE CALLVALUE DUP1 ISZERO PUSH2 0x10 JUMPI PUSH1 0x0 DUP1 REVERT JUMPDEST POP PUSH2 0x714 DUP1 PUSH2 0x20 PUSH1 0x0 CODECOPY PUSH1 0x0 RETURN INVALID PUSH1 0x80 PUSH1 0x40 MSTORE PUSH1 0x4 CALLDATASIZE LT PUSH2 0x29 JUMPI PUSH1 0x0 CALLDATALOAD PUSH1 0xE0 SHR DUP1 PUSH4 0x13DCB81B EQ PUSH2 0x2E JUMPI DUP1 PUSH4 0x6ACEB071 EQ PUSH2 0x6C JUMPI JUMPDEST PUSH1 0x0 DUP1 REVERT JUMPDEST CALLVALUE DUP1 ISZERO PUSH2 0x3A JUMPI PUSH1 0x0 DUP1 REVERT JUMPDEST POP PUSH2 0x55 PUSH1 0x4 DUP1 CALLDATASIZE SUB DUP2 ADD SWAP1 PUSH2 0x50 SWAP2 SWAP1 PUSH2 0x33C JUMP JUMPDEST PUSH2 0x88 JUMP JUMPDEST PUSH1 0x40 MLOAD PUSH2 0x63 SWAP3 SWAP2 SWAP1 PUSH2 0x4DA JUMP JUMPDEST PUSH1 0x40 MLOAD DUP1 SWAP2 SUB SWAP1 RETURN JUMPDEST PUSH2 0x86 PUSH1 0x4 DUP1 CALLDATASIZE SUB DUP2 ADD SWAP1 PUSH2 0x81 SWAP2 SWAP1 PUSH2 0x313 JUMP JUMPDEST PUSH2 0x1F2 JUMP JUMPDEST STOP JUMPDEST PUSH1 0x0 DUP1 PUSH1 0x0 DUP1 DUP7 PUSH20 0xFFFFFFFFFFFFFFFFFFFFFFFFFFFFFFFFFFFFFFFF AND DUP7 DUP7 PUSH1 0x40 MLOAD PUSH1 0x24 ADD PUSH2 0xB8 SWAP3 SWAP2 SWAP1 PUSH2 0x523 JUMP JUMPDEST PUSH1 0x40 MLOAD PUSH1 0x20 DUP2 DUP4 SUB SUB DUP2 MSTORE SWAP1 PUSH1 0x40 MSTORE PUSH32 0xC87B285A00000000000000000000000000000000000000000000000000000000 PUSH28 0xFFFFFFFFFFFFFFFFFFFFFFFFFFFFFFFFFFFFFFFFFFFFFFFFFFFFFFFF NOT AND PUSH1 0x20 DUP3 ADD DUP1 MLOAD PUSH28 0xFFFFFFFFFFFFFFFFFFFFFFFFFFFFFFFFFFFFFFFFFFFFFFFFFFFFFFFF DUP4 DUP2 DUP4 AND OR DUP4 MSTORE POP POP POP POP PUSH1 0x40 MLOAD PUSH2 0x142 SWAP2 SWAP1 PUSH2 0x4AE JUMP JUMPDEST PUSH1 0x0 PUSH1 0x40 MLOAD DUP1 DUP4 SUB DUP2 PUSH1 0x0 DUP7 GAS CALL SWAP2 POP POP RETURNDATASIZE DUP1 PUSH1 0x0 DUP2 EQ PUSH2 0x17F JUMPI PUSH1 0x40 MLOAD SWAP2 POP PUSH1 0x1F NOT PUSH1 0x3F RETURNDATASIZE ADD AND DUP3 ADD PUSH1 0x40 MSTORE RETURNDATASIZE DUP3 MSTORE RETURNDATASIZE PUSH1 0x0 PUSH1 0x20 DUP5 ADD RETURNDATACOPY PUSH2 0x184 JUMP JUMPDEST PUSH1 0x60 SWAP2 POP JUMPDEST POP SWAP2 POP SWAP2 POP DUP2 PUSH2 0x1C9 JUMPI PUSH1 0x40 MLOAD PUSH32 0x8C379A000000000000000000000000000000000000000000000000000000000 DUP2 MSTORE PUSH1 0x4 ADD PUSH2 0x1C0 SWAP1 PUSH2 0x503 JUMP JUMPDEST PUSH1 0x40 MLOAD DUP1 SWAP2 SUB SWAP1 REVERT JUMPDEST PUSH1 0x0 DUP2 DUP1 PUSH1 0x20 ADD SWAP1 MLOAD DUP2 ADD SWAP1 PUSH2 0x1DF SWAP2 SWAP1 PUSH2 0x3A3 JUMP JUMPDEST SWAP1 POP DUP3 DUP2 SWAP5 POP SWAP5 POP POP POP POP SWAP4 POP SWAP4 SWAP2 POP POP JUMP JUMPDEST PUSH1 0x0 DUP2 PUSH20 0xFFFFFFFFFFFFFFFFFFFFFFFFFFFFFFFFFFFFFFFF AND CALLVALUE PUSH1 0x40 MLOAD PUSH2 0x218 SWAP1 PUSH2 0x4C5 JUMP JUMPDEST PUSH1 0x0 PUSH1 0x40 MLOAD DUP1 DUP4 SUB DUP2 DUP6 DUP8 GAS CALL SWAP3 POP POP POP RETURNDATASIZE DUP1 PUSH1 0x0 DUP2 EQ PUSH2 0x255 JUMPI PUSH1 0x40 MLOAD SWAP2 POP PUSH1 0x1F NOT PUSH1 0x3F RETURNDATASIZE ADD AND DUP3 ADD PUSH1 0x40 MSTORE RETURNDATASIZE DUP3 MSTORE RETURNDATASIZE PUSH1 0x0 PUSH1 0x20 DUP5 ADD RETURNDATACOPY PUSH2 0x25A JUMP JUMPDEST PUSH1 0x60 SWAP2 POP JUMPDEST POP POP SWAP1 POP DUP1 PUSH2 0x268 JUMPI PUSH1 0x0 DUP1 REVERT JUMPDEST POP POP JUMP JUMPDEST PUSH1 0x0 PUSH2 0x27F PUSH2 0x27A DUP5 PUSH2 0x584 JUMP JUMPDEST PUSH2 0x553 JUMP JUMPDEST SWAP1 POP DUP3 DUP2 MSTORE PUSH1 0x20 DUP2 ADD DUP5 DUP5 DUP5 ADD GT ISZERO PUSH2 0x297 JUMPI PUSH1 0x0 DUP1 REVERT JUMPDEST PUSH2 0x2A2 DUP5 DUP3 DUP6 PUSH2 0x62E JUMP JUMPDEST POP SWAP4 SWAP3 POP POP POP JUMP JUMPDEST PUSH1 0x0 DUP2 CALLDATALOAD SWAP1 POP PUSH2 0x2B9 DUP2 PUSH2 0x6B0 JUMP JUMPDEST SWAP3 SWAP2 POP POP JUMP JUMPDEST PUSH1 0x0 DUP3 PUSH1 0x1F DUP4 ADD SLT PUSH2 0x2D0 JUMPI PUSH1 0x0 DUP1 REVERT JUMPDEST DUP2 CALLDATALOAD PUSH2 0x2E0 DUP5 DUP3 PUSH1 0x20 DUP7 ADD PUSH2 0x26C JUMP JUMPDEST SWAP2 POP POP SWAP3 SWAP2 POP POP JUMP JUMPDEST PUSH1 0x0 DUP2 CALLDATALOAD SWAP1 POP PUSH2 0x2F8 DUP2 PUSH2 0x6C7 JUMP JUMPDEST SWAP3 SWAP2 POP POP JUMP JUMPDEST PUSH1 0x0 DUP2 MLOAD SWAP1 POP PUSH2 0x30D DUP2 PUSH2 0x6C7 JUMP JUMPDEST SWAP3 SWAP2 POP POP JUMP JUMPDEST PUSH1 0x0 PUSH1 0x20 DUP3 DUP5 SUB SLT ISZERO PUSH2 0x325 JUMPI PUSH1 0x0 DUP1 REVERT JUMPDEST PUSH1 0x0 PUSH2 0x333 DUP5 DUP3 DUP6 ADD PUSH2 0x2AA JUMP JUMPDEST SWAP2 POP POP SWAP3 SWAP2 POP POP JUMP JUMPDEST PUSH1 0x0 DUP1 PUSH1 0x0 PUSH1 0x60 DUP5 DUP7 SUB SLT ISZERO PUSH2 0x351 JUMPI PUSH1 0x0 DUP1 REVERT JUMPDEST PUSH1 0x0 PUSH2 0x35F DUP7 DUP3 DUP8 ADD PUSH2 0x2AA JUMP JUMPDEST SWAP4 POP POP PUSH1 0x20 PUSH2 0x370 DUP7 DUP3 DUP8 ADD PUSH2 0x2E9 JUMP JUMPDEST SWAP3 POP POP PUSH1 0x40 DUP5 ADD CALLDATALOAD PUSH8 0xFFFFFFFFFFFFFFFF DUP2 GT ISZERO PUSH2 0x38D JUMPI PUSH1 0x0 DUP1 REVERT JUMPDEST PUSH2 0x399 DUP7 DUP3 DUP8 ADD PUSH2 0x2BF JUMP JUMPDEST SWAP2 POP POP SWAP3 POP SWAP3 POP SWAP3 JUMP JUMPDEST PUSH1 0x0 PUSH1 0x20 DUP3 DUP5 SUB SLT ISZERO PUSH2 0x3B5 JUMPI PUSH1 0x0 DUP1 REVERT JUMPDEST PUSH1 0x0 PUSH2 0x3C3 DUP5 DUP3 DUP6 ADD PUSH2 0x2FE JUMP JUMPDEST SWAP2 POP POP SWAP3 SWAP2 POP POP JUMP JUMPDEST PUSH2 0x3D5 DUP2 PUSH2 0x5F8 JUMP JUMPDEST DUP3 MSTORE POP POP JUMP JUMPDEST PUSH1 0x0 PUSH2 0x3E6 DUP3 PUSH2 0x5B4 JUMP JUMPDEST PUSH2 0x3F0 DUP2 DUP6 PUSH2 0x5CA JUMP JUMPDEST SWAP4 POP PUSH2 0x400 DUP2 DUP6 PUSH1 0x20 DUP7 ADD PUSH2 0x63D JUMP JUMPDEST DUP1 DUP5 ADD SWAP2 POP POP SWAP3 SWAP2 POP POP JUMP JUMPDEST PUSH1 0x0 PUSH2 0x417 DUP3 PUSH2 0x5BF JUMP JUMPDEST PUSH2 0x421 DUP2 DUP6 PUSH2 0x5D5 JUMP JUMPDEST SWAP4 POP PUSH2 0x431 DUP2 DUP6 PUSH1 0x20 DUP7 ADD PUSH2 0x63D JUMP JUMPDEST PUSH2 0x43A DUP2 PUSH2 0x69F JUMP JUMPDEST DUP5 ADD SWAP2 POP POP SWAP3 SWAP2 POP POP JUMP JUMPDEST PUSH1 0x0 PUSH2 0x452 PUSH1 0x14 DUP4 PUSH2 0x5D5 JUMP JUMPDEST SWAP2 POP PUSH32 0x46756E6374696F6E2063616C6C206661696C6564000000000000000000000000 PUSH1 0x0 DUP4 ADD MSTORE PUSH1 0x20 DUP3 ADD SWAP1 POP SWAP2 SWAP1 POP JUMP JUMPDEST PUSH1 0x0 PUSH2 0x492 PUSH1 0x0 DUP4 PUSH2 0x5CA JUMP JUMPDEST SWAP2 POP PUSH1 0x0 DUP3 ADD SWAP1 POP SWAP2 SWAP1 POP JUMP JUMPDEST PUSH2 0x4A8 DUP2 PUSH2 0x624 JUMP JUMPDEST DUP3 MSTORE POP POP JUMP JUMPDEST PUSH1 0x0 PUSH2 0x4BA DUP3 DUP5 PUSH2 0x3DB JUMP JUMPDEST SWAP2 POP DUP2 SWAP1 POP SWAP3 SWAP2 POP POP JUMP JUMPDEST PUSH1 0x0 PUSH2 0x4D0 DUP3 PUSH2 0x485 JUMP JUMPDEST SWAP2 POP DUP2 SWAP1 POP SWAP2 SWAP1 POP JUMP JUMPDEST PUSH1 0x0 PUSH1 0x40 DUP3 ADD SWAP1 POP PUSH2 0x4EF PUSH1 0x0 DUP4 ADD DUP6 PUSH2 0x3CC JUMP JUMPDEST PUSH2 0x4FC PUSH1 0x20 DUP4 ADD DUP5 PUSH2 0x49F JUMP JUMPDEST SWAP4 SWAP3 POP POP POP JUMP JUMPDEST PUSH1 0x0 PUSH1 0x20 DUP3 ADD SWAP1 POP DUP2 DUP2 SUB PUSH1 0x0 DUP4 ADD MSTORE PUSH2 0x51C DUP2 PUSH2 0x445 JUMP JUMPDEST SWAP1 POP SWAP2 SWAP1 POP JUMP JUMPDEST PUSH1 0x0 PUSH1 0x40 DUP3 ADD SWAP1 POP PUSH2 0x538 PUSH1 0x0 DUP4 ADD DUP6 PUSH2 0x49F JUMP JUMPDEST DUP2 DUP2 SUB PUSH1 0x20 DUP4 ADD MSTORE PUSH2 0x54A DUP2 DUP5 PUSH2 0x40C JUMP JUMPDEST SWAP1 POP SWAP4 SWAP3 POP POP POP JUMP JUMPDEST PUSH1 0x0 PUSH1 0x40 MLOAD SWAP1 POP DUP2 DUP2 ADD DUP2 DUP2 LT PUSH8 0xFFFFFFFFFFFFFFFF DUP3 GT OR ISZERO PUSH2 0x57A JUMPI PUSH2 0x579 PUSH2 0x670 JUMP JUMPDEST JUMPDEST DUP1 PUSH1 0x40 MSTORE POP SWAP2 SWAP1 POP JUMP JUMPDEST PUSH1 0x0 PUSH8 0xFFFFFFFFFFFFFFFF DUP3 GT ISZERO PUSH2 0x59F JUMPI PUSH2 0x59E PUSH2 0x670 JUMP JUMPDEST JUMPDEST PUSH1 0x1F NOT PUSH1 0x1F DUP4 ADD AND SWAP1 POP PUSH1 0x20 DUP2 ADD SWAP1 POP SWAP2 SWAP1 POP JUMP JUMPDEST PUSH1 0x0 DUP2 MLOAD SWAP1 POP SWAP2 SWAP1 POP JUMP JUMPDEST PUSH1 0x0 DUP2 MLOAD SWAP1 POP SWAP2 SWAP1 POP JUMP JUMPDEST PUSH1 0x0 DUP2 SWAP1 POP SWAP3 SWAP2 POP POP JUMP JUMPDEST PUSH1 0x0 DUP3 DUP3 MSTORE PUSH1 0x20 DUP3 ADD SWAP1 POP SWAP3 SWAP2 POP POP JUMP JUMPDEST PUSH1 0x0 PUSH2 0x5F1 DUP3 PUSH2 0x604 JUMP JUMPDEST SWAP1 POP SWAP2 SWAP1 POP JUMP JUMPDEST PUSH1 0x0 DUP2 ISZERO ISZERO SWAP1 POP SWAP2 SWAP1 POP JUMP JUMPDEST PUSH1 0x0 PUSH20 0xFFFFFFFFFFFFFFFFFFFFFFFFFFFFFFFFFFFFFFFF DUP3 AND SWAP1 POP SWAP2 SWAP1 POP JUMP JUMPDEST PUSH1 0x0 DUP2 SWAP1 POP SWAP2 SWAP1 POP JUMP JUMPDEST DUP3 DUP2 DUP4 CALLDATACOPY PUSH1 0x0 DUP4 DUP4 ADD MSTORE POP POP POP JUMP JUMPDEST PUSH1 0x0 JUMPDEST DUP4 DUP2 LT ISZERO PUSH2 0x65B JUMPI DUP1 DUP3 ADD MLOAD DUP2 DUP5 ADD MSTORE PUSH1 0x20 DUP2 ADD SWAP1 POP PUSH2 0x640 JUMP JUMPDEST DUP4 DUP2 GT ISZERO PUSH2 0x66A JUMPI PUSH1 0x0 DUP5 DUP5 ADD MSTORE JUMPDEST POP POP POP POP JUMP JUMPDEST PUSH32 0x4E487B7100000000000000000000000000000000000000000000000000000000 PUSH1 0x0 MSTORE PUSH1 0x41 PUSH1 0x4 MSTORE PUSH1 0x24 PUSH1 0x0 REVERT JUMPDEST PUSH1 0x0 PUSH1 0x1F NOT PUSH1 0x1F DUP4 ADD AND SWAP1 POP SWAP2 SWAP1 POP JUMP JUMPDEST PUSH2 0x6B9 DUP2 PUSH2 0x5E6 JUMP JUMPDEST DUP2 EQ PUSH2 0x6C4 JUMPI PUSH1 0x0 DUP1 REVERT JUMPDEST POP JUMP JUMPDEST PUSH2 0x6D0 DUP2 PUSH2 0x624 JUMP JUMPDEST DUP2 EQ PUSH2 0x6DB JUMPI PUSH1 0x0 DUP1 REVERT JUMPDEST POP JUMP INVALID LOG2 PUSH5 0x6970667358 0x22 SLT KECCAK256 0xF7 0xEC PUSH9 0x3DB699DC25BCE35932 0x22 0x5F CALLDATACOPY LOG0 0xC2 0xDE 0xE 0x4E 0x5D EXTCODEHASH 0xDE MSTORE 0xCA 0xDB CALLER 0xD5 PUSH9 0x30586C64736F6C6343 STOP ADDMOD STOP STOP CALLER "
				},
				"gasEstimates": {
					"creation": {
						"codeDepositCost": "362400",
						"executionCost": "399",
						"totalCost": "362799"
					},
					"external": {
						"payToReceive(address)": "infinite",
						"testCall(address,uint256,string)": "infinite"
					}
				},
				"methodIdentifiers": {
					"payToReceive(address)": "6aceb071",
					"testCall(address,uint256,string)": "13dcb81b"
				}
			},
			"storageLayout": {
				"storage": [],
				"types": null
			},
			"userdoc": {
				"kind": "user",
				"methods": {},
				"version": 1
			}
		}
	}
}