{
	"contracts/Call2.sol": {
		"Test": {
			"abi": [
				{
					"stateMutability": "payable",
					"type": "fallback"
				},
				{
					"inputs": [],
					"name": "fallbackCalled",
					"outputs": [
						{
							"internalType": "uint256",
							"name": "",
							"type": "uint256"
						}
					],
					"stateMutability": "view",
					"type": "function"
				},
				{
					"inputs": [
						{
							"internalType": "uint256",
							"name": "_amount",
							"type": "uint256"
						},
						{
							"internalType": "string",
							"name": "_incrementer",
							"type": "string"
						}
					],
					"name": "inc",
					"outputs": [
						{
							"internalType": "uint256",
							"name": "",
							"type": "uint256"
						}
					],
					"stateMutability": "nonpayable",
					"type": "function"
				},
				{
					"inputs": [],
					"name": "incrementer",
					"outputs": [
						{
							"internalType": "string",
							"name": "",
							"type": "string"
						}
					],
					"stateMutability": "view",
					"type": "function"
				},
				{
					"inputs": [],
					"name": "total",
					"outputs": [
						{
							"internalType": "uint256",
							"name": "",
							"type": "uint256"
						}
					],
					"stateMutability": "view",
					"type": "function"
				}
			],
			"devdoc": {
				"kind": "dev",
				"methods": {},
				"version": 1
			},
			"evm": {
				"assembly": "    /* \"contracts/Call2.sol\":60:447  contract Test {\r... */\n  mstore(0x40, 0x80)\n    /* \"contracts/Call2.sol\":106:107  0 */\n  0x00\n    /* \"contracts/Call2.sol\":83:107  uint256 public total = 0 */\n  dup1\n  sstore\n    /* \"contracts/Call2.sol\":146:147  0 */\n  0x00\n    /* \"contracts/Call2.sol\":114:147  uint256 public fallbackCalled = 0 */\n  0x01\n  sstore\n    /* \"contracts/Call2.sol\":60:447  contract Test {\r... */\n  callvalue\n  dup1\n  iszero\n  tag_1\n  jumpi\n  0x00\n  dup1\n  revert\ntag_1:\n  pop\n  dataSize(sub_0)\n  dup1\n  dataOffset(sub_0)\n  0x00\n  codecopy\n  0x00\n  return\nstop\n\nsub_0: assembly {\n        /* \"contracts/Call2.sol\":60:447  contract Test {\r... */\n      mstore(0x40, 0x80)\n      jumpi(tag_1, lt(calldatasize, 0x04))\n      shr(0xe0, calldataload(0x00))\n      dup1\n      0x1da5772d\n      eq\n      tag_3\n      jumpi\n      dup1\n      0x2ddbd13a\n      eq\n      tag_4\n      jumpi\n      dup1\n      0xaa2c4b02\n      eq\n      tag_5\n      jumpi\n      dup1\n      0xb418380d\n      eq\n      tag_6\n      jumpi\n      jump(tag_2)\n    tag_1:\n    tag_2:\n        /* \"contracts/Call2.sol\":245:246  1 */\n      0x01\n        /* \"contracts/Call2.sol\":227:241  fallbackCalled */\n      dup1\n      0x00\n        /* \"contracts/Call2.sol\":227:246  fallbackCalled += 1 */\n      dup3\n      dup3\n      sload\n      tag_9\n      swap2\n      swap1\n      tag_10\n      jump\t// in\n    tag_9:\n      swap3\n      pop\n      pop\n      dup2\n      swap1\n      sstore\n      pop\n        /* \"contracts/Call2.sol\":60:447  contract Test {\r... */\n      stop\n        /* \"contracts/Call2.sol\":154:179  string public incrementer */\n    tag_3:\n      callvalue\n      dup1\n      iszero\n      tag_11\n      jumpi\n      0x00\n      dup1\n      revert\n    tag_11:\n      pop\n      tag_12\n      tag_13\n      jump\t// in\n    tag_12:\n      mload(0x40)\n      tag_14\n      swap2\n      swap1\n      tag_15\n      jump\t// in\n    tag_14:\n      mload(0x40)\n      dup1\n      swap2\n      sub\n      swap1\n      return\n        /* \"contracts/Call2.sol\":83:107  uint256 public total = 0 */\n    tag_4:\n      callvalue\n      dup1\n      iszero\n      tag_16\n      jumpi\n      0x00\n      dup1\n      revert\n    tag_16:\n      pop\n      tag_17\n      tag_18\n      jump\t// in\n    tag_17:\n      mload(0x40)\n      tag_19\n      swap2\n      swap1\n      tag_20\n      jump\t// in\n    tag_19:\n      mload(0x40)\n      dup1\n      swap2\n      sub\n      swap1\n      return\n        /* \"contracts/Call2.sol\":114:147  uint256 public fallbackCalled = 0 */\n    tag_5:\n      callvalue\n      dup1\n      iszero\n      tag_21\n      jumpi\n      0x00\n      dup1\n      revert\n    tag_21:\n      pop\n      tag_22\n      tag_23\n      jump\t// in\n    tag_22:\n      mload(0x40)\n      tag_24\n      swap2\n      swap1\n      tag_20\n      jump\t// in\n    tag_24:\n      mload(0x40)\n      dup1\n      swap2\n      sub\n      swap1\n      return\n        /* \"contracts/Call2.sol\":262:444  function inc(uint256 _amount, string memory _incrementer) external returns (uint256) {\r... */\n    tag_6:\n      callvalue\n      dup1\n      iszero\n      tag_25\n      jumpi\n      0x00\n      dup1\n      revert\n    tag_25:\n      pop\n      tag_26\n      0x04\n      dup1\n      calldatasize\n      sub\n      dup2\n      add\n      swap1\n      tag_27\n      swap2\n      swap1\n      tag_28\n      jump\t// in\n    tag_27:\n      tag_29\n      jump\t// in\n    tag_26:\n      mload(0x40)\n      tag_30\n      swap2\n      swap1\n      tag_20\n      jump\t// in\n    tag_30:\n      mload(0x40)\n      dup1\n      swap2\n      sub\n      swap1\n      return\n        /* \"contracts/Call2.sol\":154:179  string public incrementer */\n    tag_13:\n      0x02\n      dup1\n      sload\n      tag_31\n      swap1\n      tag_32\n      jump\t// in\n    tag_31:\n      dup1\n      0x1f\n      add\n      0x20\n      dup1\n      swap2\n      div\n      mul\n      0x20\n      add\n      mload(0x40)\n      swap1\n      dup2\n      add\n      0x40\n      mstore\n      dup1\n      swap3\n      swap2\n      swap1\n      dup2\n      dup2\n      mstore\n      0x20\n      add\n      dup3\n      dup1\n      sload\n      tag_33\n      swap1\n      tag_32\n      jump\t// in\n    tag_33:\n      dup1\n      iszero\n      tag_34\n      jumpi\n      dup1\n      0x1f\n      lt\n      tag_35\n      jumpi\n      0x0100\n      dup1\n      dup4\n      sload\n      div\n      mul\n      dup4\n      mstore\n      swap2\n      0x20\n      add\n      swap2\n      jump(tag_34)\n    tag_35:\n      dup3\n      add\n      swap2\n      swap1\n      0x00\n      mstore\n      keccak256(0x00, 0x20)\n      swap1\n    tag_36:\n      dup2\n      sload\n      dup2\n      mstore\n      swap1\n      0x01\n      add\n      swap1\n      0x20\n      add\n      dup1\n      dup4\n      gt\n      tag_36\n      jumpi\n      dup3\n      swap1\n      sub\n      0x1f\n      and\n      dup3\n      add\n      swap2\n    tag_34:\n      pop\n      pop\n      pop\n      pop\n      pop\n      dup2\n      jump\t// out\n        /* \"contracts/Call2.sol\":83:107  uint256 public total = 0 */\n    tag_18:\n      sload(0x00)\n      dup2\n      jump\t// out\n        /* \"contracts/Call2.sol\":114:147  uint256 public fallbackCalled = 0 */\n    tag_23:\n      sload(0x01)\n      dup2\n      jump\t// out\n        /* \"contracts/Call2.sol\":262:444  function inc(uint256 _amount, string memory _incrementer) external returns (uint256) {\r... */\n    tag_29:\n        /* \"contracts/Call2.sol\":338:345  uint256 */\n      0x00\n        /* \"contracts/Call2.sol\":367:374  _amount */\n      dup3\n        /* \"contracts/Call2.sol\":358:363  total */\n      0x00\n      dup1\n        /* \"contracts/Call2.sol\":358:374  total += _amount */\n      dup3\n      dup3\n      sload\n      tag_38\n      swap2\n      swap1\n      tag_10\n      jump\t// in\n    tag_38:\n      swap3\n      pop\n      pop\n      dup2\n      swap1\n      sstore\n      pop\n        /* \"contracts/Call2.sol\":399:411  _incrementer */\n      dup2\n        /* \"contracts/Call2.sol\":385:396  incrementer */\n      0x02\n        /* \"contracts/Call2.sol\":385:411  incrementer = _incrementer */\n      swap1\n      dup1\n      mload\n      swap1\n      0x20\n      add\n      swap1\n      tag_39\n      swap3\n      swap2\n      swap1\n      tag_40\n      jump\t// in\n    tag_39:\n      pop\n        /* \"contracts/Call2.sol\":431:436  total */\n      sload(0x00)\n        /* \"contracts/Call2.sol\":424:436  return total */\n      swap1\n      pop\n        /* \"contracts/Call2.sol\":262:444  function inc(uint256 _amount, string memory _incrementer) external returns (uint256) {\r... */\n      swap3\n      swap2\n      pop\n      pop\n      jump\t// out\n    tag_40:\n      dup3\n      dup1\n      sload\n      tag_41\n      swap1\n      tag_32\n      jump\t// in\n    tag_41:\n      swap1\n      0x00\n      mstore\n      keccak256(0x00, 0x20)\n      swap1\n      0x1f\n      add\n      0x20\n      swap1\n      div\n      dup2\n      add\n      swap3\n      dup3\n      tag_43\n      jumpi\n      0x00\n      dup6\n      sstore\n      jump(tag_42)\n    tag_43:\n      dup3\n      0x1f\n      lt\n      tag_44\n      jumpi\n      dup1\n      mload\n      not(0xff)\n      and\n      dup4\n      dup1\n      add\n      or\n      dup6\n      sstore\n      jump(tag_42)\n    tag_44:\n      dup3\n      dup1\n      add\n      0x01\n      add\n      dup6\n      sstore\n      dup3\n      iszero\n      tag_42\n      jumpi\n      swap2\n      dup3\n      add\n    tag_45:\n      dup3\n      dup2\n      gt\n      iszero\n      tag_46\n      jumpi\n      dup3\n      mload\n      dup3\n      sstore\n      swap2\n      0x20\n      add\n      swap2\n      swap1\n      0x01\n      add\n      swap1\n      jump(tag_45)\n    tag_46:\n    tag_42:\n      pop\n      swap1\n      pop\n      tag_47\n      swap2\n      swap1\n      tag_48\n      jump\t// in\n    tag_47:\n      pop\n      swap1\n      jump\t// out\n    tag_48:\n    tag_49:\n      dup1\n      dup3\n      gt\n      iszero\n      tag_50\n      jumpi\n      0x00\n      dup2\n      0x00\n      swap1\n      sstore\n      pop\n      0x01\n      add\n      jump(tag_49)\n    tag_50:\n      pop\n      swap1\n      jump\t// out\n        /* \"#utility.yul\":7:351   */\n    tag_52:\n      0x00\n        /* \"#utility.yul\":110:175   */\n      tag_54\n        /* \"#utility.yul\":125:174   */\n      tag_55\n        /* \"#utility.yul\":167:173   */\n      dup5\n        /* \"#utility.yul\":125:174   */\n      tag_56\n      jump\t// in\n    tag_55:\n        /* \"#utility.yul\":110:175   */\n      tag_57\n      jump\t// in\n    tag_54:\n        /* \"#utility.yul\":101:175   */\n      swap1\n      pop\n        /* \"#utility.yul\":198:204   */\n      dup3\n        /* \"#utility.yul\":191:196   */\n      dup2\n        /* \"#utility.yul\":184:205   */\n      mstore\n        /* \"#utility.yul\":236:240   */\n      0x20\n        /* \"#utility.yul\":229:234   */\n      dup2\n        /* \"#utility.yul\":225:241   */\n      add\n        /* \"#utility.yul\":274:277   */\n      dup5\n        /* \"#utility.yul\":265:271   */\n      dup5\n        /* \"#utility.yul\":260:263   */\n      dup5\n        /* \"#utility.yul\":256:272   */\n      add\n        /* \"#utility.yul\":253:278   */\n      gt\n        /* \"#utility.yul\":250:252   */\n      iszero\n      tag_58\n      jumpi\n        /* \"#utility.yul\":291:292   */\n      0x00\n        /* \"#utility.yul\":288:289   */\n      dup1\n        /* \"#utility.yul\":281:293   */\n      revert\n        /* \"#utility.yul\":250:252   */\n    tag_58:\n        /* \"#utility.yul\":304:345   */\n      tag_59\n        /* \"#utility.yul\":338:344   */\n      dup5\n        /* \"#utility.yul\":333:336   */\n      dup3\n        /* \"#utility.yul\":328:331   */\n      dup6\n        /* \"#utility.yul\":304:345   */\n      tag_60\n      jump\t// in\n    tag_59:\n        /* \"#utility.yul\":91:351   */\n      pop\n      swap4\n      swap3\n      pop\n      pop\n      pop\n      jump\t// out\n        /* \"#utility.yul\":371:644   */\n    tag_61:\n      0x00\n        /* \"#utility.yul\":476:479   */\n      dup3\n        /* \"#utility.yul\":469:473   */\n      0x1f\n        /* \"#utility.yul\":461:467   */\n      dup4\n        /* \"#utility.yul\":457:474   */\n      add\n        /* \"#utility.yul\":453:480   */\n      slt\n        /* \"#utility.yul\":443:445   */\n      tag_63\n      jumpi\n        /* \"#utility.yul\":494:495   */\n      0x00\n        /* \"#utility.yul\":491:492   */\n      dup1\n        /* \"#utility.yul\":484:496   */\n      revert\n        /* \"#utility.yul\":443:445   */\n    tag_63:\n        /* \"#utility.yul\":534:540   */\n      dup2\n        /* \"#utility.yul\":521:541   */\n      calldataload\n        /* \"#utility.yul\":559:638   */\n      tag_64\n        /* \"#utility.yul\":634:637   */\n      dup5\n        /* \"#utility.yul\":626:632   */\n      dup3\n        /* \"#utility.yul\":619:623   */\n      0x20\n        /* \"#utility.yul\":611:617   */\n      dup7\n        /* \"#utility.yul\":607:624   */\n      add\n        /* \"#utility.yul\":559:638   */\n      tag_52\n      jump\t// in\n    tag_64:\n        /* \"#utility.yul\":550:638   */\n      swap2\n      pop\n        /* \"#utility.yul\":433:644   */\n      pop\n      swap3\n      swap2\n      pop\n      pop\n      jump\t// out\n        /* \"#utility.yul\":650:789   */\n    tag_65:\n      0x00\n        /* \"#utility.yul\":734:740   */\n      dup2\n        /* \"#utility.yul\":721:741   */\n      calldataload\n        /* \"#utility.yul\":712:741   */\n      swap1\n      pop\n        /* \"#utility.yul\":750:783   */\n      tag_67\n        /* \"#utility.yul\":777:782   */\n      dup2\n        /* \"#utility.yul\":750:783   */\n      tag_68\n      jump\t// in\n    tag_67:\n        /* \"#utility.yul\":702:789   */\n      swap3\n      swap2\n      pop\n      pop\n      jump\t// out\n        /* \"#utility.yul\":795:1315   */\n    tag_28:\n      0x00\n      dup1\n        /* \"#utility.yul\":930:932   */\n      0x40\n        /* \"#utility.yul\":918:927   */\n      dup4\n        /* \"#utility.yul\":909:916   */\n      dup6\n        /* \"#utility.yul\":905:928   */\n      sub\n        /* \"#utility.yul\":901:933   */\n      slt\n        /* \"#utility.yul\":898:900   */\n      iszero\n      tag_70\n      jumpi\n        /* \"#utility.yul\":946:947   */\n      0x00\n        /* \"#utility.yul\":943:944   */\n      dup1\n        /* \"#utility.yul\":936:948   */\n      revert\n        /* \"#utility.yul\":898:900   */\n    tag_70:\n        /* \"#utility.yul\":989:990   */\n      0x00\n        /* \"#utility.yul\":1014:1067   */\n      tag_71\n        /* \"#utility.yul\":1059:1066   */\n      dup6\n        /* \"#utility.yul\":1050:1056   */\n      dup3\n        /* \"#utility.yul\":1039:1048   */\n      dup7\n        /* \"#utility.yul\":1035:1057   */\n      add\n        /* \"#utility.yul\":1014:1067   */\n      tag_65\n      jump\t// in\n    tag_71:\n        /* \"#utility.yul\":1004:1067   */\n      swap3\n      pop\n        /* \"#utility.yul\":960:1077   */\n      pop\n        /* \"#utility.yul\":1144:1146   */\n      0x20\n        /* \"#utility.yul\":1133:1142   */\n      dup4\n        /* \"#utility.yul\":1129:1147   */\n      add\n        /* \"#utility.yul\":1116:1148   */\n      calldataload\n        /* \"#utility.yul\":1175:1193   */\n      0xffffffffffffffff\n        /* \"#utility.yul\":1167:1173   */\n      dup2\n        /* \"#utility.yul\":1164:1194   */\n      gt\n        /* \"#utility.yul\":1161:1163   */\n      iszero\n      tag_72\n      jumpi\n        /* \"#utility.yul\":1207:1208   */\n      0x00\n        /* \"#utility.yul\":1204:1205   */\n      dup1\n        /* \"#utility.yul\":1197:1209   */\n      revert\n        /* \"#utility.yul\":1161:1163   */\n    tag_72:\n        /* \"#utility.yul\":1235:1298   */\n      tag_73\n        /* \"#utility.yul\":1290:1297   */\n      dup6\n        /* \"#utility.yul\":1281:1287   */\n      dup3\n        /* \"#utility.yul\":1270:1279   */\n      dup7\n        /* \"#utility.yul\":1266:1288   */\n      add\n        /* \"#utility.yul\":1235:1298   */\n      tag_61\n      jump\t// in\n    tag_73:\n        /* \"#utility.yul\":1225:1298   */\n      swap2\n      pop\n        /* \"#utility.yul\":1087:1308   */\n      pop\n        /* \"#utility.yul\":888:1315   */\n      swap3\n      pop\n      swap3\n      swap1\n      pop\n      jump\t// out\n        /* \"#utility.yul\":1321:1685   */\n    tag_74:\n      0x00\n        /* \"#utility.yul\":1437:1476   */\n      tag_76\n        /* \"#utility.yul\":1470:1475   */\n      dup3\n        /* \"#utility.yul\":1437:1476   */\n      tag_77\n      jump\t// in\n    tag_76:\n        /* \"#utility.yul\":1492:1563   */\n      tag_78\n        /* \"#utility.yul\":1556:1562   */\n      dup2\n        /* \"#utility.yul\":1551:1554   */\n      dup6\n        /* \"#utility.yul\":1492:1563   */\n      tag_79\n      jump\t// in\n    tag_78:\n        /* \"#utility.yul\":1485:1563   */\n      swap4\n      pop\n        /* \"#utility.yul\":1572:1624   */\n      tag_80\n        /* \"#utility.yul\":1617:1623   */\n      dup2\n        /* \"#utility.yul\":1612:1615   */\n      dup6\n        /* \"#utility.yul\":1605:1609   */\n      0x20\n        /* \"#utility.yul\":1598:1603   */\n      dup7\n        /* \"#utility.yul\":1594:1610   */\n      add\n        /* \"#utility.yul\":1572:1624   */\n      tag_81\n      jump\t// in\n    tag_80:\n        /* \"#utility.yul\":1649:1678   */\n      tag_82\n        /* \"#utility.yul\":1671:1677   */\n      dup2\n        /* \"#utility.yul\":1649:1678   */\n      tag_83\n      jump\t// in\n    tag_82:\n        /* \"#utility.yul\":1644:1647   */\n      dup5\n        /* \"#utility.yul\":1640:1679   */\n      add\n        /* \"#utility.yul\":1633:1679   */\n      swap2\n      pop\n        /* \"#utility.yul\":1413:1685   */\n      pop\n      swap3\n      swap2\n      pop\n      pop\n      jump\t// out\n        /* \"#utility.yul\":1691:1809   */\n    tag_84:\n        /* \"#utility.yul\":1778:1802   */\n      tag_86\n        /* \"#utility.yul\":1796:1801   */\n      dup2\n        /* \"#utility.yul\":1778:1802   */\n      tag_87\n      jump\t// in\n    tag_86:\n        /* \"#utility.yul\":1773:1776   */\n      dup3\n        /* \"#utility.yul\":1766:1803   */\n      mstore\n        /* \"#utility.yul\":1756:1809   */\n      pop\n      pop\n      jump\t// out\n        /* \"#utility.yul\":1815:2128   */\n    tag_15:\n      0x00\n        /* \"#utility.yul\":1966:1968   */\n      0x20\n        /* \"#utility.yul\":1955:1964   */\n      dup3\n        /* \"#utility.yul\":1951:1969   */\n      add\n        /* \"#utility.yul\":1943:1969   */\n      swap1\n      pop\n        /* \"#utility.yul\":2015:2024   */\n      dup2\n        /* \"#utility.yul\":2009:2013   */\n      dup2\n        /* \"#utility.yul\":2005:2025   */\n      sub\n        /* \"#utility.yul\":2001:2002   */\n      0x00\n        /* \"#utility.yul\":1990:1999   */\n      dup4\n        /* \"#utility.yul\":1986:2003   */\n      add\n        /* \"#utility.yul\":1979:2026   */\n      mstore\n        /* \"#utility.yul\":2043:2121   */\n      tag_89\n        /* \"#utility.yul\":2116:2120   */\n      dup2\n        /* \"#utility.yul\":2107:2113   */\n      dup5\n        /* \"#utility.yul\":2043:2121   */\n      tag_74\n      jump\t// in\n    tag_89:\n        /* \"#utility.yul\":2035:2121   */\n      swap1\n      pop\n        /* \"#utility.yul\":1933:2128   */\n      swap3\n      swap2\n      pop\n      pop\n      jump\t// out\n        /* \"#utility.yul\":2134:2356   */\n    tag_20:\n      0x00\n        /* \"#utility.yul\":2265:2267   */\n      0x20\n        /* \"#utility.yul\":2254:2263   */\n      dup3\n        /* \"#utility.yul\":2250:2268   */\n      add\n        /* \"#utility.yul\":2242:2268   */\n      swap1\n      pop\n        /* \"#utility.yul\":2278:2349   */\n      tag_91\n        /* \"#utility.yul\":2346:2347   */\n      0x00\n        /* \"#utility.yul\":2335:2344   */\n      dup4\n        /* \"#utility.yul\":2331:2348   */\n      add\n        /* \"#utility.yul\":2322:2328   */\n      dup5\n        /* \"#utility.yul\":2278:2349   */\n      tag_84\n      jump\t// in\n    tag_91:\n        /* \"#utility.yul\":2232:2356   */\n      swap3\n      swap2\n      pop\n      pop\n      jump\t// out\n        /* \"#utility.yul\":2362:2645   */\n    tag_57:\n      0x00\n        /* \"#utility.yul\":2428:2430   */\n      0x40\n        /* \"#utility.yul\":2422:2431   */\n      mload\n        /* \"#utility.yul\":2412:2431   */\n      swap1\n      pop\n        /* \"#utility.yul\":2470:2474   */\n      dup2\n        /* \"#utility.yul\":2462:2468   */\n      dup2\n        /* \"#utility.yul\":2458:2475   */\n      add\n        /* \"#utility.yul\":2577:2583   */\n      dup2\n        /* \"#utility.yul\":2565:2575   */\n      dup2\n        /* \"#utility.yul\":2562:2584   */\n      lt\n        /* \"#utility.yul\":2541:2559   */\n      0xffffffffffffffff\n        /* \"#utility.yul\":2529:2539   */\n      dup3\n        /* \"#utility.yul\":2526:2560   */\n      gt\n        /* \"#utility.yul\":2523:2585   */\n      or\n        /* \"#utility.yul\":2520:2522   */\n      iszero\n      tag_93\n      jumpi\n        /* \"#utility.yul\":2588:2606   */\n      tag_94\n      tag_95\n      jump\t// in\n    tag_94:\n        /* \"#utility.yul\":2520:2522   */\n    tag_93:\n        /* \"#utility.yul\":2628:2638   */\n      dup1\n        /* \"#utility.yul\":2624:2626   */\n      0x40\n        /* \"#utility.yul\":2617:2639   */\n      mstore\n        /* \"#utility.yul\":2402:2645   */\n      pop\n      swap2\n      swap1\n      pop\n      jump\t// out\n        /* \"#utility.yul\":2651:2983   */\n    tag_56:\n      0x00\n        /* \"#utility.yul\":2803:2821   */\n      0xffffffffffffffff\n        /* \"#utility.yul\":2795:2801   */\n      dup3\n        /* \"#utility.yul\":2792:2822   */\n      gt\n        /* \"#utility.yul\":2789:2791   */\n      iszero\n      tag_97\n      jumpi\n        /* \"#utility.yul\":2825:2843   */\n      tag_98\n      tag_95\n      jump\t// in\n    tag_98:\n        /* \"#utility.yul\":2789:2791   */\n    tag_97:\n        /* \"#utility.yul\":2910:2914   */\n      0x1f\n        /* \"#utility.yul\":2906:2915   */\n      not\n        /* \"#utility.yul\":2899:2903   */\n      0x1f\n        /* \"#utility.yul\":2891:2897   */\n      dup4\n        /* \"#utility.yul\":2887:2904   */\n      add\n        /* \"#utility.yul\":2883:2916   */\n      and\n        /* \"#utility.yul\":2875:2916   */\n      swap1\n      pop\n        /* \"#utility.yul\":2971:2975   */\n      0x20\n        /* \"#utility.yul\":2965:2969   */\n      dup2\n        /* \"#utility.yul\":2961:2976   */\n      add\n        /* \"#utility.yul\":2953:2976   */\n      swap1\n      pop\n        /* \"#utility.yul\":2718:2983   */\n      swap2\n      swap1\n      pop\n      jump\t// out\n        /* \"#utility.yul\":2989:3088   */\n    tag_77:\n      0x00\n        /* \"#utility.yul\":3075:3080   */\n      dup2\n        /* \"#utility.yul\":3069:3081   */\n      mload\n        /* \"#utility.yul\":3059:3081   */\n      swap1\n      pop\n        /* \"#utility.yul\":3048:3088   */\n      swap2\n      swap1\n      pop\n      jump\t// out\n        /* \"#utility.yul\":3094:3263   */\n    tag_79:\n      0x00\n        /* \"#utility.yul\":3212:3218   */\n      dup3\n        /* \"#utility.yul\":3207:3210   */\n      dup3\n        /* \"#utility.yul\":3200:3219   */\n      mstore\n        /* \"#utility.yul\":3252:3256   */\n      0x20\n        /* \"#utility.yul\":3247:3250   */\n      dup3\n        /* \"#utility.yul\":3243:3257   */\n      add\n        /* \"#utility.yul\":3228:3257   */\n      swap1\n      pop\n        /* \"#utility.yul\":3190:3263   */\n      swap3\n      swap2\n      pop\n      pop\n      jump\t// out\n        /* \"#utility.yul\":3269:3574   */\n    tag_10:\n      0x00\n        /* \"#utility.yul\":3328:3348   */\n      tag_102\n        /* \"#utility.yul\":3346:3347   */\n      dup3\n        /* \"#utility.yul\":3328:3348   */\n      tag_87\n      jump\t// in\n    tag_102:\n        /* \"#utility.yul\":3323:3348   */\n      swap2\n      pop\n        /* \"#utility.yul\":3362:3382   */\n      tag_103\n        /* \"#utility.yul\":3380:3381   */\n      dup4\n        /* \"#utility.yul\":3362:3382   */\n      tag_87\n      jump\t// in\n    tag_103:\n        /* \"#utility.yul\":3357:3382   */\n      swap3\n      pop\n        /* \"#utility.yul\":3516:3517   */\n      dup3\n        /* \"#utility.yul\":3448:3514   */\n      0xffffffffffffffffffffffffffffffffffffffffffffffffffffffffffffffff\n        /* \"#utility.yul\":3444:3518   */\n      sub\n        /* \"#utility.yul\":3441:3442   */\n      dup3\n        /* \"#utility.yul\":3438:3519   */\n      gt\n        /* \"#utility.yul\":3435:3437   */\n      iszero\n      tag_104\n      jumpi\n        /* \"#utility.yul\":3522:3540   */\n      tag_105\n      tag_106\n      jump\t// in\n    tag_105:\n        /* \"#utility.yul\":3435:3437   */\n    tag_104:\n        /* \"#utility.yul\":3566:3567   */\n      dup3\n        /* \"#utility.yul\":3563:3564   */\n      dup3\n        /* \"#utility.yul\":3559:3568   */\n      add\n        /* \"#utility.yul\":3552:3568   */\n      swap1\n      pop\n        /* \"#utility.yul\":3313:3574   */\n      swap3\n      swap2\n      pop\n      pop\n      jump\t// out\n        /* \"#utility.yul\":3580:3657   */\n    tag_87:\n      0x00\n        /* \"#utility.yul\":3646:3651   */\n      dup2\n        /* \"#utility.yul\":3635:3651   */\n      swap1\n      pop\n        /* \"#utility.yul\":3625:3657   */\n      swap2\n      swap1\n      pop\n      jump\t// out\n        /* \"#utility.yul\":3663:3817   */\n    tag_60:\n        /* \"#utility.yul\":3747:3753   */\n      dup3\n        /* \"#utility.yul\":3742:3745   */\n      dup2\n        /* \"#utility.yul\":3737:3740   */\n      dup4\n        /* \"#utility.yul\":3724:3754   */\n      calldatacopy\n        /* \"#utility.yul\":3809:3810   */\n      0x00\n        /* \"#utility.yul\":3800:3806   */\n      dup4\n        /* \"#utility.yul\":3795:3798   */\n      dup4\n        /* \"#utility.yul\":3791:3807   */\n      add\n        /* \"#utility.yul\":3784:3811   */\n      mstore\n        /* \"#utility.yul\":3714:3817   */\n      pop\n      pop\n      pop\n      jump\t// out\n        /* \"#utility.yul\":3823:4130   */\n    tag_81:\n        /* \"#utility.yul\":3891:3892   */\n      0x00\n        /* \"#utility.yul\":3901:4014   */\n    tag_110:\n        /* \"#utility.yul\":3915:3921   */\n      dup4\n        /* \"#utility.yul\":3912:3913   */\n      dup2\n        /* \"#utility.yul\":3909:3922   */\n      lt\n        /* \"#utility.yul\":3901:4014   */\n      iszero\n      tag_112\n      jumpi\n        /* \"#utility.yul\":4000:4001   */\n      dup1\n        /* \"#utility.yul\":3995:3998   */\n      dup3\n        /* \"#utility.yul\":3991:4002   */\n      add\n        /* \"#utility.yul\":3985:4003   */\n      mload\n        /* \"#utility.yul\":3981:3982   */\n      dup2\n        /* \"#utility.yul\":3976:3979   */\n      dup5\n        /* \"#utility.yul\":3972:3983   */\n      add\n        /* \"#utility.yul\":3965:4004   */\n      mstore\n        /* \"#utility.yul\":3937:3939   */\n      0x20\n        /* \"#utility.yul\":3934:3935   */\n      dup2\n        /* \"#utility.yul\":3930:3940   */\n      add\n        /* \"#utility.yul\":3925:3940   */\n      swap1\n      pop\n        /* \"#utility.yul\":3901:4014   */\n      jump(tag_110)\n    tag_112:\n        /* \"#utility.yul\":4032:4038   */\n      dup4\n        /* \"#utility.yul\":4029:4030   */\n      dup2\n        /* \"#utility.yul\":4026:4039   */\n      gt\n        /* \"#utility.yul\":4023:4025   */\n      iszero\n      tag_113\n      jumpi\n        /* \"#utility.yul\":4112:4113   */\n      0x00\n        /* \"#utility.yul\":4103:4109   */\n      dup5\n        /* \"#utility.yul\":4098:4101   */\n      dup5\n        /* \"#utility.yul\":4094:4110   */\n      add\n        /* \"#utility.yul\":4087:4114   */\n      mstore\n        /* \"#utility.yul\":4023:4025   */\n    tag_113:\n        /* \"#utility.yul\":3872:4130   */\n      pop\n      pop\n      pop\n      pop\n      jump\t// out\n        /* \"#utility.yul\":4136:4456   */\n    tag_32:\n      0x00\n        /* \"#utility.yul\":4217:4218   */\n      0x02\n        /* \"#utility.yul\":4211:4215   */\n      dup3\n        /* \"#utility.yul\":4207:4219   */\n      div\n        /* \"#utility.yul\":4197:4219   */\n      swap1\n      pop\n        /* \"#utility.yul\":4264:4265   */\n      0x01\n        /* \"#utility.yul\":4258:4262   */\n      dup3\n        /* \"#utility.yul\":4254:4266   */\n      and\n        /* \"#utility.yul\":4285:4303   */\n      dup1\n        /* \"#utility.yul\":4275:4277   */\n      tag_115\n      jumpi\n        /* \"#utility.yul\":4341:4345   */\n      0x7f\n        /* \"#utility.yul\":4333:4339   */\n      dup3\n        /* \"#utility.yul\":4329:4346   */\n      and\n        /* \"#utility.yul\":4319:4346   */\n      swap2\n      pop\n        /* \"#utility.yul\":4275:4277   */\n    tag_115:\n        /* \"#utility.yul\":4403:4405   */\n      0x20\n        /* \"#utility.yul\":4395:4401   */\n      dup3\n        /* \"#utility.yul\":4392:4406   */\n      lt\n        /* \"#utility.yul\":4372:4390   */\n      dup2\n        /* \"#utility.yul\":4369:4407   */\n      eq\n        /* \"#utility.yul\":4366:4368   */\n      iszero\n      tag_116\n      jumpi\n        /* \"#utility.yul\":4422:4440   */\n      tag_117\n      tag_118\n      jump\t// in\n    tag_117:\n        /* \"#utility.yul\":4366:4368   */\n    tag_116:\n        /* \"#utility.yul\":4187:4456   */\n      pop\n      swap2\n      swap1\n      pop\n      jump\t// out\n        /* \"#utility.yul\":4462:4642   */\n    tag_106:\n        /* \"#utility.yul\":4510:4587   */\n      0x4e487b7100000000000000000000000000000000000000000000000000000000\n        /* \"#utility.yul\":4507:4508   */\n      0x00\n        /* \"#utility.yul\":4500:4588   */\n      mstore\n        /* \"#utility.yul\":4607:4611   */\n      0x11\n        /* \"#utility.yul\":4604:4605   */\n      0x04\n        /* \"#utility.yul\":4597:4612   */\n      mstore\n        /* \"#utility.yul\":4631:4635   */\n      0x24\n        /* \"#utility.yul\":4628:4629   */\n      0x00\n        /* \"#utility.yul\":4621:4636   */\n      revert\n        /* \"#utility.yul\":4648:4828   */\n    tag_118:\n        /* \"#utility.yul\":4696:4773   */\n      0x4e487b7100000000000000000000000000000000000000000000000000000000\n        /* \"#utility.yul\":4693:4694   */\n      0x00\n        /* \"#utility.yul\":4686:4774   */\n      mstore\n        /* \"#utility.yul\":4793:4797   */\n      0x22\n        /* \"#utility.yul\":4790:4791   */\n      0x04\n        /* \"#utility.yul\":4783:4798   */\n      mstore\n        /* \"#utility.yul\":4817:4821   */\n      0x24\n        /* \"#utility.yul\":4814:4815   */\n      0x00\n        /* \"#utility.yul\":4807:4822   */\n      revert\n        /* \"#utility.yul\":4834:5014   */\n    tag_95:\n        /* \"#utility.yul\":4882:4959   */\n      0x4e487b7100000000000000000000000000000000000000000000000000000000\n        /* \"#utility.yul\":4879:4880   */\n      0x00\n        /* \"#utility.yul\":4872:4960   */\n      mstore\n        /* \"#utility.yul\":4979:4983   */\n      0x41\n        /* \"#utility.yul\":4976:4977   */\n      0x04\n        /* \"#utility.yul\":4969:4984   */\n      mstore\n        /* \"#utility.yul\":5003:5007   */\n      0x24\n        /* \"#utility.yul\":5000:5001   */\n      0x00\n        /* \"#utility.yul\":4993:5008   */\n      revert\n        /* \"#utility.yul\":5020:5122   */\n    tag_83:\n      0x00\n        /* \"#utility.yul\":5112:5114   */\n      0x1f\n        /* \"#utility.yul\":5108:5115   */\n      not\n        /* \"#utility.yul\":5103:5105   */\n      0x1f\n        /* \"#utility.yul\":5096:5101   */\n      dup4\n        /* \"#utility.yul\":5092:5106   */\n      add\n        /* \"#utility.yul\":5088:5116   */\n      and\n        /* \"#utility.yul\":5078:5116   */\n      swap1\n      pop\n        /* \"#utility.yul\":5068:5122   */\n      swap2\n      swap1\n      pop\n      jump\t// out\n        /* \"#utility.yul\":5128:5250   */\n    tag_68:\n        /* \"#utility.yul\":5201:5225   */\n      tag_124\n        /* \"#utility.yul\":5219:5224   */\n      dup2\n        /* \"#utility.yul\":5201:5225   */\n      tag_87\n      jump\t// in\n    tag_124:\n        /* \"#utility.yul\":5194:5199   */\n      dup2\n        /* \"#utility.yul\":5191:5226   */\n      eq\n        /* \"#utility.yul\":5181:5183   */\n      tag_125\n      jumpi\n        /* \"#utility.yul\":5240:5241   */\n      0x00\n        /* \"#utility.yul\":5237:5238   */\n      dup1\n        /* \"#utility.yul\":5230:5242   */\n      revert\n        /* \"#utility.yul\":5181:5183   */\n    tag_125:\n        /* \"#utility.yul\":5171:5250   */\n      pop\n      jump\t// out\n\n    auxdata: 0xa264697066735822122076d7d14113d1ce4a9aa5a9b9e89d1c0021efe43cf90a88f0c5a8448ed1ecc74264736f6c63430008000033\n}\n",
				"bytecode": {
					"linkReferences": {},
					"object": "608060405260008055600060015534801561001957600080fd5b50610628806100296000396000f3fe6080604052600436106100435760003560e01c80631da5772d1461005f5780632ddbd13a1461008a578063aa2c4b02146100b5578063b418380d146100e057610044565b5b60018060008282546100569190610469565b92505081905550005b34801561006b57600080fd5b5061007461011d565b60405161008191906103af565b60405180910390f35b34801561009657600080fd5b5061009f6101ab565b6040516100ac91906103d1565b60405180910390f35b3480156100c157600080fd5b506100ca6101b1565b6040516100d791906103d1565b60405180910390f35b3480156100ec57600080fd5b5061010760048036038101906101029190610313565b6101b7565b60405161011491906103d1565b60405180910390f35b6002805461012a9061050b565b80601f01602080910402602001604051908101604052809291908181526020018280546101569061050b565b80156101a35780601f10610178576101008083540402835291602001916101a3565b820191906000526020600020905b81548152906001019060200180831161018657829003601f168201915b505050505081565b60005481565b60015481565b6000826000808282546101ca9190610469565b9250508190555081600290805190602001906101e79291906101f3565b50600054905092915050565b8280546101ff9061050b565b90600052602060002090601f0160209004810192826102215760008555610268565b82601f1061023a57805160ff1916838001178555610268565b82800160010185558215610268579182015b8281111561026757825182559160200191906001019061024c565b5b5090506102759190610279565b5090565b5b8082111561029257600081600090555060010161027a565b5090565b60006102a96102a48461041d565b6103ec565b9050828152602081018484840111156102c157600080fd5b6102cc8482856104c9565b509392505050565b600082601f8301126102e557600080fd5b81356102f5848260208601610296565b91505092915050565b60008135905061030d816105db565b92915050565b6000806040838503121561032657600080fd5b6000610334858286016102fe565b925050602083013567ffffffffffffffff81111561035157600080fd5b61035d858286016102d4565b9150509250929050565b60006103728261044d565b61037c8185610458565b935061038c8185602086016104d8565b610395816105ca565b840191505092915050565b6103a9816104bf565b82525050565b600060208201905081810360008301526103c98184610367565b905092915050565b60006020820190506103e660008301846103a0565b92915050565b6000604051905081810181811067ffffffffffffffff821117156104135761041261059b565b5b8060405250919050565b600067ffffffffffffffff8211156104385761043761059b565b5b601f19601f8301169050602081019050919050565b600081519050919050565b600082825260208201905092915050565b6000610474826104bf565b915061047f836104bf565b9250827fffffffffffffffffffffffffffffffffffffffffffffffffffffffffffffffff038211156104b4576104b361053d565b5b828201905092915050565b6000819050919050565b82818337600083830152505050565b60005b838110156104f65780820151818401526020810190506104db565b83811115610505576000848401525b50505050565b6000600282049050600182168061052357607f821691505b602082108114156105375761053661056c565b5b50919050565b7f4e487b7100000000000000000000000000000000000000000000000000000000600052601160045260246000fd5b7f4e487b7100000000000000000000000000000000000000000000000000000000600052602260045260246000fd5b7f4e487b7100000000000000000000000000000000000000000000000000000000600052604160045260246000fd5b6000601f19601f8301169050919050565b6105e4816104bf565b81146105ef57600080fd5b5056fea264697066735822122076d7d14113d1ce4a9aa5a9b9e89d1c0021efe43cf90a88f0c5a8448ed1ecc74264736f6c63430008000033",
					"opcodes": "PUSH1 0x80 PUSH1 0x40 MSTORE PUSH1 0x0 DUP1 SSTORE PUSH1 0x0 PUSH1 0x1 SSTORE CALLVALUE DUP1 ISZERO PUSH2 0x19 JUMPI PUSH1 0x0 DUP1 REVERT JUMPDEST POP PUSH2 0x628 DUP1 PUSH2 0x29 PUSH1 0x0 CODECOPY PUSH1 0x0 RETURN INVALID PUSH1 0x80 PUSH1 0x40 MSTORE PUSH1 0x4 CALLDATASIZE LT PUSH2 0x43 JUMPI PUSH1 0x0 CALLDATALOAD PUSH1 0xE0 SHR DUP1 PUSH4 0x1DA5772D EQ PUSH2 0x5F JUMPI DUP1 PUSH4 0x2DDBD13A EQ PUSH2 0x8A JUMPI DUP1 PUSH4 0xAA2C4B02 EQ PUSH2 0xB5 JUMPI DUP1 PUSH4 0xB418380D EQ PUSH2 0xE0 JUMPI PUSH2 0x44 JUMP JUMPDEST JUMPDEST PUSH1 0x1 DUP1 PUSH1 0x0 DUP3 DUP3 SLOAD PUSH2 0x56 SWAP2 SWAP1 PUSH2 0x469 JUMP JUMPDEST SWAP3 POP POP DUP2 SWAP1 SSTORE POP STOP JUMPDEST CALLVALUE DUP1 ISZERO PUSH2 0x6B JUMPI PUSH1 0x0 DUP1 REVERT JUMPDEST POP PUSH2 0x74 PUSH2 0x11D JUMP JUMPDEST PUSH1 0x40 MLOAD PUSH2 0x81 SWAP2 SWAP1 PUSH2 0x3AF JUMP JUMPDEST PUSH1 0x40 MLOAD DUP1 SWAP2 SUB SWAP1 RETURN JUMPDEST CALLVALUE DUP1 ISZERO PUSH2 0x96 JUMPI PUSH1 0x0 DUP1 REVERT JUMPDEST POP PUSH2 0x9F PUSH2 0x1AB JUMP JUMPDEST PUSH1 0x40 MLOAD PUSH2 0xAC SWAP2 SWAP1 PUSH2 0x3D1 JUMP JUMPDEST PUSH1 0x40 MLOAD DUP1 SWAP2 SUB SWAP1 RETURN JUMPDEST CALLVALUE DUP1 ISZERO PUSH2 0xC1 JUMPI PUSH1 0x0 DUP1 REVERT JUMPDEST POP PUSH2 0xCA PUSH2 0x1B1 JUMP JUMPDEST PUSH1 0x40 MLOAD PUSH2 0xD7 SWAP2 SWAP1 PUSH2 0x3D1 JUMP JUMPDEST PUSH1 0x40 MLOAD DUP1 SWAP2 SUB SWAP1 RETURN JUMPDEST CALLVALUE DUP1 ISZERO PUSH2 0xEC JUMPI PUSH1 0x0 DUP1 REVERT JUMPDEST POP PUSH2 0x107 PUSH1 0x4 DUP1 CALLDATASIZE SUB DUP2 ADD SWAP1 PUSH2 0x102 SWAP2 SWAP1 PUSH2 0x313 JUMP JUMPDEST PUSH2 0x1B7 JUMP JUMPDEST PUSH1 0x40 MLOAD PUSH2 0x114 SWAP2 SWAP1 PUSH2 0x3D1 JUMP JUMPDEST PUSH1 0x40 MLOAD DUP1 SWAP2 SUB SWAP1 RETURN JUMPDEST PUSH1 0x2 DUP1 SLOAD PUSH2 0x12A SWAP1 PUSH2 0x50B JUMP JUMPDEST DUP1 PUSH1 0x1F ADD PUSH1 0x20 DUP1 SWAP2 DIV MUL PUSH1 0x20 ADD PUSH1 0x40 MLOAD SWAP1 DUP2 ADD PUSH1 0x40 MSTORE DUP1 SWAP3 SWAP2 SWAP1 DUP2 DUP2 MSTORE PUSH1 0x20 ADD DUP3 DUP1 SLOAD PUSH2 0x156 SWAP1 PUSH2 0x50B JUMP JUMPDEST DUP1 ISZERO PUSH2 0x1A3 JUMPI DUP1 PUSH1 0x1F LT PUSH2 0x178 JUMPI PUSH2 0x100 DUP1 DUP4 SLOAD DIV MUL DUP4 MSTORE SWAP2 PUSH1 0x20 ADD SWAP2 PUSH2 0x1A3 JUMP JUMPDEST DUP3 ADD SWAP2 SWAP1 PUSH1 0x0 MSTORE PUSH1 0x20 PUSH1 0x0 KECCAK256 SWAP1 JUMPDEST DUP2 SLOAD DUP2 MSTORE SWAP1 PUSH1 0x1 ADD SWAP1 PUSH1 0x20 ADD DUP1 DUP4 GT PUSH2 0x186 JUMPI DUP3 SWAP1 SUB PUSH1 0x1F AND DUP3 ADD SWAP2 JUMPDEST POP POP POP POP POP DUP2 JUMP JUMPDEST PUSH1 0x0 SLOAD DUP2 JUMP JUMPDEST PUSH1 0x1 SLOAD DUP2 JUMP JUMPDEST PUSH1 0x0 DUP3 PUSH1 0x0 DUP1 DUP3 DUP3 SLOAD PUSH2 0x1CA SWAP2 SWAP1 PUSH2 0x469 JUMP JUMPDEST SWAP3 POP POP DUP2 SWAP1 SSTORE POP DUP2 PUSH1 0x2 SWAP1 DUP1 MLOAD SWAP1 PUSH1 0x20 ADD SWAP1 PUSH2 0x1E7 SWAP3 SWAP2 SWAP1 PUSH2 0x1F3 JUMP JUMPDEST POP PUSH1 0x0 SLOAD SWAP1 POP SWAP3 SWAP2 POP POP JUMP JUMPDEST DUP3 DUP1 SLOAD PUSH2 0x1FF SWAP1 PUSH2 0x50B JUMP JUMPDEST SWAP1 PUSH1 0x0 MSTORE PUSH1 0x20 PUSH1 0x0 KECCAK256 SWAP1 PUSH1 0x1F ADD PUSH1 0x20 SWAP1 DIV DUP2 ADD SWAP3 DUP3 PUSH2 0x221 JUMPI PUSH1 0x0 DUP6 SSTORE PUSH2 0x268 JUMP JUMPDEST DUP3 PUSH1 0x1F LT PUSH2 0x23A JUMPI DUP1 MLOAD PUSH1 0xFF NOT AND DUP4 DUP1 ADD OR DUP6 SSTORE PUSH2 0x268 JUMP JUMPDEST DUP3 DUP1 ADD PUSH1 0x1 ADD DUP6 SSTORE DUP3 ISZERO PUSH2 0x268 JUMPI SWAP2 DUP3 ADD JUMPDEST DUP3 DUP2 GT ISZERO PUSH2 0x267 JUMPI DUP3 MLOAD DUP3 SSTORE SWAP2 PUSH1 0x20 ADD SWAP2 SWAP1 PUSH1 0x1 ADD SWAP1 PUSH2 0x24C JUMP JUMPDEST JUMPDEST POP SWAP1 POP PUSH2 0x275 SWAP2 SWAP1 PUSH2 0x279 JUMP JUMPDEST POP SWAP1 JUMP JUMPDEST JUMPDEST DUP1 DUP3 GT ISZERO PUSH2 0x292 JUMPI PUSH1 0x0 DUP2 PUSH1 0x0 SWAP1 SSTORE POP PUSH1 0x1 ADD PUSH2 0x27A JUMP JUMPDEST POP SWAP1 JUMP JUMPDEST PUSH1 0x0 PUSH2 0x2A9 PUSH2 0x2A4 DUP5 PUSH2 0x41D JUMP JUMPDEST PUSH2 0x3EC JUMP JUMPDEST SWAP1 POP DUP3 DUP2 MSTORE PUSH1 0x20 DUP2 ADD DUP5 DUP5 DUP5 ADD GT ISZERO PUSH2 0x2C1 JUMPI PUSH1 0x0 DUP1 REVERT JUMPDEST PUSH2 0x2CC DUP5 DUP3 DUP6 PUSH2 0x4C9 JUMP JUMPDEST POP SWAP4 SWAP3 POP POP POP JUMP JUMPDEST PUSH1 0x0 DUP3 PUSH1 0x1F DUP4 ADD SLT PUSH2 0x2E5 JUMPI PUSH1 0x0 DUP1 REVERT JUMPDEST DUP2 CALLDATALOAD PUSH2 0x2F5 DUP5 DUP3 PUSH1 0x20 DUP7 ADD PUSH2 0x296 JUMP JUMPDEST SWAP2 POP POP SWAP3 SWAP2 POP POP JUMP JUMPDEST PUSH1 0x0 DUP2 CALLDATALOAD SWAP1 POP PUSH2 0x30D DUP2 PUSH2 0x5DB JUMP JUMPDEST SWAP3 SWAP2 POP POP JUMP JUMPDEST PUSH1 0x0 DUP1 PUSH1 0x40 DUP4 DUP6 SUB SLT ISZERO PUSH2 0x326 JUMPI PUSH1 0x0 DUP1 REVERT JUMPDEST PUSH1 0x0 PUSH2 0x334 DUP6 DUP3 DUP7 ADD PUSH2 0x2FE JUMP JUMPDEST SWAP3 POP POP PUSH1 0x20 DUP4 ADD CALLDATALOAD PUSH8 0xFFFFFFFFFFFFFFFF DUP2 GT ISZERO PUSH2 0x351 JUMPI PUSH1 0x0 DUP1 REVERT JUMPDEST PUSH2 0x35D DUP6 DUP3 DUP7 ADD PUSH2 0x2D4 JUMP JUMPDEST SWAP2 POP POP SWAP3 POP SWAP3 SWAP1 POP JUMP JUMPDEST PUSH1 0x0 PUSH2 0x372 DUP3 PUSH2 0x44D JUMP JUMPDEST PUSH2 0x37C DUP2 DUP6 PUSH2 0x458 JUMP JUMPDEST SWAP4 POP PUSH2 0x38C DUP2 DUP6 PUSH1 0x20 DUP7 ADD PUSH2 0x4D8 JUMP JUMPDEST PUSH2 0x395 DUP2 PUSH2 0x5CA JUMP JUMPDEST DUP5 ADD SWAP2 POP POP SWAP3 SWAP2 POP POP JUMP JUMPDEST PUSH2 0x3A9 DUP2 PUSH2 0x4BF JUMP JUMPDEST DUP3 MSTORE POP POP JUMP JUMPDEST PUSH1 0x0 PUSH1 0x20 DUP3 ADD SWAP1 POP DUP2 DUP2 SUB PUSH1 0x0 DUP4 ADD MSTORE PUSH2 0x3C9 DUP2 DUP5 PUSH2 0x367 JUMP JUMPDEST SWAP1 POP SWAP3 SWAP2 POP POP JUMP JUMPDEST PUSH1 0x0 PUSH1 0x20 DUP3 ADD SWAP1 POP PUSH2 0x3E6 PUSH1 0x0 DUP4 ADD DUP5 PUSH2 0x3A0 JUMP JUMPDEST SWAP3 SWAP2 POP POP JUMP JUMPDEST PUSH1 0x0 PUSH1 0x40 MLOAD SWAP1 POP DUP2 DUP2 ADD DUP2 DUP2 LT PUSH8 0xFFFFFFFFFFFFFFFF DUP3 GT OR ISZERO PUSH2 0x413 JUMPI PUSH2 0x412 PUSH2 0x59B JUMP JUMPDEST JUMPDEST DUP1 PUSH1 0x40 MSTORE POP SWAP2 SWAP1 POP JUMP JUMPDEST PUSH1 0x0 PUSH8 0xFFFFFFFFFFFFFFFF DUP3 GT ISZERO PUSH2 0x438 JUMPI PUSH2 0x437 PUSH2 0x59B JUMP JUMPDEST JUMPDEST PUSH1 0x1F NOT PUSH1 0x1F DUP4 ADD AND SWAP1 POP PUSH1 0x20 DUP2 ADD SWAP1 POP SWAP2 SWAP1 POP JUMP JUMPDEST PUSH1 0x0 DUP2 MLOAD SWAP1 POP SWAP2 SWAP1 POP JUMP JUMPDEST PUSH1 0x0 DUP3 DUP3 MSTORE PUSH1 0x20 DUP3 ADD SWAP1 POP SWAP3 SWAP2 POP POP JUMP JUMPDEST PUSH1 0x0 PUSH2 0x474 DUP3 PUSH2 0x4BF JUMP JUMPDEST SWAP2 POP PUSH2 0x47F DUP4 PUSH2 0x4BF JUMP JUMPDEST SWAP3 POP DUP3 PUSH32 0xFFFFFFFFFFFFFFFFFFFFFFFFFFFFFFFFFFFFFFFFFFFFFFFFFFFFFFFFFFFFFFFF SUB DUP3 GT ISZERO PUSH2 0x4B4 JUMPI PUSH2 0x4B3 PUSH2 0x53D JUMP JUMPDEST JUMPDEST DUP3 DUP3 ADD SWAP1 POP SWAP3 SWAP2 POP POP JUMP JUMPDEST PUSH1 0x0 DUP2 SWAP1 POP SWAP2 SWAP1 POP JUMP JUMPDEST DUP3 DUP2 DUP4 CALLDATACOPY PUSH1 0x0 DUP4 DUP4 ADD MSTORE POP POP POP JUMP JUMPDEST PUSH1 0x0 JUMPDEST DUP4 DUP2 LT ISZERO PUSH2 0x4F6 JUMPI DUP1 DUP3 ADD MLOAD DUP2 DUP5 ADD MSTORE PUSH1 0x20 DUP2 ADD SWAP1 POP PUSH2 0x4DB JUMP JUMPDEST DUP4 DUP2 GT ISZERO PUSH2 0x505 JUMPI PUSH1 0x0 DUP5 DUP5 ADD MSTORE JUMPDEST POP POP POP POP JUMP JUMPDEST PUSH1 0x0 PUSH1 0x2 DUP3 DIV SWAP1 POP PUSH1 0x1 DUP3 AND DUP1 PUSH2 0x523 JUMPI PUSH1 0x7F DUP3 AND SWAP2 POP JUMPDEST PUSH1 0x20 DUP3 LT DUP2 EQ ISZERO PUSH2 0x537 JUMPI PUSH2 0x536 PUSH2 0x56C JUMP JUMPDEST JUMPDEST POP SWAP2 SWAP1 POP JUMP JUMPDEST PUSH32 0x4E487B7100000000000000000000000000000000000000000000000000000000 PUSH1 0x0 MSTORE PUSH1 0x11 PUSH1 0x4 MSTORE PUSH1 0x24 PUSH1 0x0 REVERT JUMPDEST PUSH32 0x4E487B7100000000000000000000000000000000000000000000000000000000 PUSH1 0x0 MSTORE PUSH1 0x22 PUSH1 0x4 MSTORE PUSH1 0x24 PUSH1 0x0 REVERT JUMPDEST PUSH32 0x4E487B7100000000000000000000000000000000000000000000000000000000 PUSH1 0x0 MSTORE PUSH1 0x41 PUSH1 0x4 MSTORE PUSH1 0x24 PUSH1 0x0 REVERT JUMPDEST PUSH1 0x0 PUSH1 0x1F NOT PUSH1 0x1F DUP4 ADD AND SWAP1 POP SWAP2 SWAP1 POP JUMP JUMPDEST PUSH2 0x5E4 DUP2 PUSH2 0x4BF JUMP JUMPDEST DUP2 EQ PUSH2 0x5EF JUMPI PUSH1 0x0 DUP1 REVERT JUMPDEST POP JUMP INVALID LOG2 PUSH5 0x6970667358 0x22 SLT KECCAK256 PUSH23 0xD7D14113D1CE4A9AA5A9B9E89D1C0021EFE43CF90A88F0 0xC5 0xA8 DIFFICULTY DUP15 0xD1 0xEC 0xC7 TIMESTAMP PUSH5 0x736F6C6343 STOP ADDMOD STOP STOP CALLER "
				},
				"gasEstimates": {
					"creation": {
						"codeDepositCost": "315200",
						"executionCost": "10367",
						"totalCost": "325567"
					},
					"external": {
						"": "infinite",
						"fallbackCalled()": "1151",
						"inc(uint256,string)": "infinite",
						"incrementer()": "infinite",
						"total()": "1129"
					}
				},
				"methodIdentifiers": {
					"fallbackCalled()": "aa2c4b02",
					"inc(uint256,string)": "b418380d",
					"incrementer()": "1da5772d",
					"total()": "2ddbd13a"
				}
			},
			"storageLayout": {
				"storage": [
					{
						"astId": 4,
						"contract": "contracts/Call2.sol:Test",
						"label": "total",
						"offset": 0,
						"slot": "0",
						"type": "t_uint256"
					},
					{
						"astId": 7,
						"contract": "contracts/Call2.sol:Test",
						"label": "fallbackCalled",
						"offset": 0,
						"slot": "1",
						"type": "t_uint256"
					},
					{
						"astId": 9,
						"contract": "contracts/Call2.sol:Test",
						"label": "incrementer",
						"offset": 0,
						"slot": "2",
						"type": "t_string_storage"
					}
				],
				"types": {
					"t_string_storage": {
						"encoding": "bytes",
						"label": "string",
						"numberOfBytes": "32"
					},
					"t_uint256": {
						"encoding": "inplace",
						"label": "uint256",
						"numberOfBytes": "32"
					}
				}
			},
			"userdoc": {
				"kind": "user",
				"methods": {},
				"version": 1
			}
		}
	}
}