{
	"contracts/Call2.sol": {
		"Caller": {
			"abi": [
				{
					"inputs": [
						{
							"internalType": "address",
							"name": "_contract",
							"type": "address"
						}
					],
					"name": "payToFallback",
					"outputs": [],
					"stateMutability": "payable",
					"type": "function"
				},
				{
					"inputs": [
						{
							"internalType": "address",
							"name": "_contract",
							"type": "address"
						},
						{
							"internalType": "uint256",
							"name": "_amount",
							"type": "uint256"
						},
						{
							"internalType": "string",
							"name": "_incrementer",
							"type": "string"
						}
					],
					"name": "testCall",
					"outputs": [
						{
							"internalType": "bool",
							"name": "",
							"type": "bool"
						},
						{
							"internalType": "uint256",
							"name": "",
							"type": "uint256"
						}
					],
					"stateMutability": "nonpayable",
					"type": "function"
				}
			],
			"devdoc": {
				"kind": "dev",
				"methods": {},
				"version": 1
			},
			"evm": {
				"assembly": "    /* \"contracts/Call2.sol\":451:1073  contract Caller {\r... */\n  mstore(0x40, 0x80)\n  callvalue\n  dup1\n  iszero\n  tag_1\n  jumpi\n  0x00\n  dup1\n  revert\ntag_1:\n  pop\n  dataSize(sub_0)\n  dup1\n  dataOffset(sub_0)\n  0x00\n  codecopy\n  0x00\n  return\nstop\n\nsub_0: assembly {\n        /* \"contracts/Call2.sol\":451:1073  contract Caller {\r... */\n      mstore(0x40, 0x80)\n      jumpi(tag_1, lt(calldatasize, 0x04))\n      shr(0xe0, calldataload(0x00))\n      dup1\n      0x13dcb81b\n      eq\n      tag_2\n      jumpi\n      dup1\n      0x9e4c4905\n      eq\n      tag_3\n      jumpi\n    tag_1:\n      0x00\n      dup1\n      revert\n        /* \"contracts/Call2.sol\":476:876  function testCall(address _contract, uint256 _amount, string memory _incrementer) external returns (bool, uint256) {\r... */\n    tag_2:\n      callvalue\n      dup1\n      iszero\n      tag_4\n      jumpi\n      0x00\n      dup1\n      revert\n    tag_4:\n      pop\n      tag_5\n      0x04\n      dup1\n      calldatasize\n      sub\n      dup2\n      add\n      swap1\n      tag_6\n      swap2\n      swap1\n      tag_7\n      jump\t// in\n    tag_6:\n      tag_8\n      jump\t// in\n    tag_5:\n      mload(0x40)\n      tag_9\n      swap3\n      swap2\n      swap1\n      tag_10\n      jump\t// in\n    tag_9:\n      mload(0x40)\n      dup1\n      swap2\n      sub\n      swap1\n      return\n        /* \"contracts/Call2.sol\":884:1070  function payToFallback(address _contract) external payable {\r... */\n    tag_3:\n      tag_11\n      0x04\n      dup1\n      calldatasize\n      sub\n      dup2\n      add\n      swap1\n      tag_12\n      swap2\n      swap1\n      tag_13\n      jump\t// in\n    tag_12:\n      tag_14\n      jump\t// in\n    tag_11:\n      stop\n        /* \"contracts/Call2.sol\":476:876  function testCall(address _contract, uint256 _amount, string memory _incrementer) external returns (bool, uint256) {\r... */\n    tag_8:\n        /* \"contracts/Call2.sol\":576:580  bool */\n      0x00\n        /* \"contracts/Call2.sol\":582:589  uint256 */\n      dup1\n        /* \"contracts/Call2.sol\":603:615  bool success */\n      0x00\n        /* \"contracts/Call2.sol\":617:633  bytes memory res */\n      dup1\n        /* \"contracts/Call2.sol\":637:646  _contract */\n      dup7\n        /* \"contracts/Call2.sol\":637:651  _contract.call */\n      0xffffffffffffffffffffffffffffffffffffffff\n      and\n        /* \"contracts/Call2.sol\":699:706  _amount */\n      dup7\n        /* \"contracts/Call2.sol\":708:720  _incrementer */\n      dup7\n        /* \"contracts/Call2.sol\":652:721  abi.encodeWithSignature(\"inc(uint256,string)\", _amount, _incrementer) */\n      add(0x24, mload(0x40))\n      tag_16\n      swap3\n      swap2\n      swap1\n      tag_17\n      jump\t// in\n    tag_16:\n      mload(0x40)\n      0x20\n      dup2\n      dup4\n      sub\n      sub\n      dup2\n      mstore\n      swap1\n      0x40\n      mstore\n      and(not(0xffffffffffffffffffffffffffffffffffffffffffffffffffffffff), 0xb418380d00000000000000000000000000000000000000000000000000000000)\n      0x20\n      dup3\n      add\n      dup1\n      mload\n      0xffffffffffffffffffffffffffffffffffffffffffffffffffffffff\n      dup4\n      dup2\n      dup4\n      and\n      or\n      dup4\n      mstore\n      pop\n      pop\n      pop\n      pop\n        /* \"contracts/Call2.sol\":637:722  _contract.call(abi.encodeWithSignature(\"inc(uint256,string)\", _amount, _incrementer)) */\n      mload(0x40)\n      tag_18\n      swap2\n      swap1\n      tag_19\n      jump\t// in\n    tag_18:\n      0x00\n      mload(0x40)\n      dup1\n      dup4\n      sub\n      dup2\n      0x00\n      dup7\n      gas\n      call\n      swap2\n      pop\n      pop\n      returndatasize\n      dup1\n      0x00\n      dup2\n      eq\n      tag_22\n      jumpi\n      mload(0x40)\n      swap2\n      pop\n      and(add(returndatasize, 0x3f), not(0x1f))\n      dup3\n      add\n      0x40\n      mstore\n      returndatasize\n      dup3\n      mstore\n      returndatasize\n      0x00\n      0x20\n      dup5\n      add\n      returndatacopy\n      jump(tag_21)\n    tag_22:\n      0x60\n      swap2\n      pop\n    tag_21:\n      pop\n        /* \"contracts/Call2.sol\":602:722  (bool success, bytes memory res) = _contract.call(abi.encodeWithSignature(\"inc(uint256,string)\", _amount, _incrementer)) */\n      swap2\n      pop\n      swap2\n      pop\n        /* \"contracts/Call2.sol\":743:750  success */\n      dup2\n        /* \"contracts/Call2.sol\":735:775  require(success, \"Function call failed\") */\n      tag_23\n      jumpi\n      mload(0x40)\n      0x08c379a000000000000000000000000000000000000000000000000000000000\n      dup2\n      mstore\n      0x04\n      add\n      tag_24\n      swap1\n      tag_25\n      jump\t// in\n    tag_24:\n      mload(0x40)\n      dup1\n      swap2\n      sub\n      swap1\n      revert\n    tag_23:\n        /* \"contracts/Call2.sol\":788:802  uint256 _total */\n      0x00\n        /* \"contracts/Call2.sol\":816:819  res */\n      dup2\n        /* \"contracts/Call2.sol\":805:831  abi.decode(res, (uint256)) */\n      dup1\n      0x20\n      add\n      swap1\n      mload\n      dup2\n      add\n      swap1\n      tag_26\n      swap2\n      swap1\n      tag_27\n      jump\t// in\n    tag_26:\n        /* \"contracts/Call2.sol\":788:831  uint256 _total = abi.decode(res, (uint256)) */\n      swap1\n      pop\n        /* \"contracts/Call2.sol\":852:859  success */\n      dup3\n        /* \"contracts/Call2.sol\":861:867  _total */\n      dup2\n        /* \"contracts/Call2.sol\":844:868  return (success, _total) */\n      swap5\n      pop\n      swap5\n      pop\n      pop\n      pop\n      pop\n        /* \"contracts/Call2.sol\":476:876  function testCall(address _contract, uint256 _amount, string memory _incrementer) external returns (bool, uint256) {\r... */\n      swap4\n      pop\n      swap4\n      swap2\n      pop\n      pop\n      jump\t// out\n        /* \"contracts/Call2.sol\":884:1070  function payToFallback(address _contract) external payable {\r... */\n    tag_14:\n        /* \"contracts/Call2.sol\":955:967  bool success */\n      0x00\n        /* \"contracts/Call2.sol\":973:982  _contract */\n      dup2\n        /* \"contracts/Call2.sol\":973:987  _contract.call */\n      0xffffffffffffffffffffffffffffffffffffffff\n      and\n        /* \"contracts/Call2.sol\":995:1004  msg.value */\n      callvalue\n        /* \"contracts/Call2.sol\":973:1009  _contract.call{value: msg.value}(\"\") */\n      mload(0x40)\n      tag_29\n      swap1\n      tag_30\n      jump\t// in\n    tag_29:\n      0x00\n      mload(0x40)\n      dup1\n      dup4\n      sub\n      dup2\n      dup6\n      dup8\n      gas\n      call\n      swap3\n      pop\n      pop\n      pop\n      returndatasize\n      dup1\n      0x00\n      dup2\n      eq\n      tag_33\n      jumpi\n      mload(0x40)\n      swap2\n      pop\n      and(add(returndatasize, 0x3f), not(0x1f))\n      dup3\n      add\n      0x40\n      mstore\n      returndatasize\n      dup3\n      mstore\n      returndatasize\n      0x00\n      0x20\n      dup5\n      add\n      returndatacopy\n      jump(tag_32)\n    tag_33:\n      0x60\n      swap2\n      pop\n    tag_32:\n      pop\n        /* \"contracts/Call2.sol\":954:1009  (bool success, ) = _contract.call{value: msg.value}(\"\") */\n      pop\n      swap1\n      pop\n        /* \"contracts/Call2.sol\":1030:1037  success */\n      dup1\n        /* \"contracts/Call2.sol\":1022:1062  require(success, \"Fallback call failed\") */\n      tag_34\n      jumpi\n      mload(0x40)\n      0x08c379a000000000000000000000000000000000000000000000000000000000\n      dup2\n      mstore\n      0x04\n      add\n      tag_35\n      swap1\n      tag_36\n      jump\t// in\n    tag_35:\n      mload(0x40)\n      dup1\n      swap2\n      sub\n      swap1\n      revert\n    tag_34:\n        /* \"contracts/Call2.sol\":884:1070  function payToFallback(address _contract) external payable {\r... */\n      pop\n      pop\n      jump\t// out\n        /* \"#utility.yul\":7:351   */\n    tag_38:\n      0x00\n        /* \"#utility.yul\":110:175   */\n      tag_40\n        /* \"#utility.yul\":125:174   */\n      tag_41\n        /* \"#utility.yul\":167:173   */\n      dup5\n        /* \"#utility.yul\":125:174   */\n      tag_42\n      jump\t// in\n    tag_41:\n        /* \"#utility.yul\":110:175   */\n      tag_43\n      jump\t// in\n    tag_40:\n        /* \"#utility.yul\":101:175   */\n      swap1\n      pop\n        /* \"#utility.yul\":198:204   */\n      dup3\n        /* \"#utility.yul\":191:196   */\n      dup2\n        /* \"#utility.yul\":184:205   */\n      mstore\n        /* \"#utility.yul\":236:240   */\n      0x20\n        /* \"#utility.yul\":229:234   */\n      dup2\n        /* \"#utility.yul\":225:241   */\n      add\n        /* \"#utility.yul\":274:277   */\n      dup5\n        /* \"#utility.yul\":265:271   */\n      dup5\n        /* \"#utility.yul\":260:263   */\n      dup5\n        /* \"#utility.yul\":256:272   */\n      add\n        /* \"#utility.yul\":253:278   */\n      gt\n        /* \"#utility.yul\":250:252   */\n      iszero\n      tag_44\n      jumpi\n        /* \"#utility.yul\":291:292   */\n      0x00\n        /* \"#utility.yul\":288:289   */\n      dup1\n        /* \"#utility.yul\":281:293   */\n      revert\n        /* \"#utility.yul\":250:252   */\n    tag_44:\n        /* \"#utility.yul\":304:345   */\n      tag_45\n        /* \"#utility.yul\":338:344   */\n      dup5\n        /* \"#utility.yul\":333:336   */\n      dup3\n        /* \"#utility.yul\":328:331   */\n      dup6\n        /* \"#utility.yul\":304:345   */\n      tag_46\n      jump\t// in\n    tag_45:\n        /* \"#utility.yul\":91:351   */\n      pop\n      swap4\n      swap3\n      pop\n      pop\n      pop\n      jump\t// out\n        /* \"#utility.yul\":357:496   */\n    tag_47:\n      0x00\n        /* \"#utility.yul\":441:447   */\n      dup2\n        /* \"#utility.yul\":428:448   */\n      calldataload\n        /* \"#utility.yul\":419:448   */\n      swap1\n      pop\n        /* \"#utility.yul\":457:490   */\n      tag_49\n        /* \"#utility.yul\":484:489   */\n      dup2\n        /* \"#utility.yul\":457:490   */\n      tag_50\n      jump\t// in\n    tag_49:\n        /* \"#utility.yul\":409:496   */\n      swap3\n      swap2\n      pop\n      pop\n      jump\t// out\n        /* \"#utility.yul\":516:789   */\n    tag_51:\n      0x00\n        /* \"#utility.yul\":621:624   */\n      dup3\n        /* \"#utility.yul\":614:618   */\n      0x1f\n        /* \"#utility.yul\":606:612   */\n      dup4\n        /* \"#utility.yul\":602:619   */\n      add\n        /* \"#utility.yul\":598:625   */\n      slt\n        /* \"#utility.yul\":588:590   */\n      tag_53\n      jumpi\n        /* \"#utility.yul\":639:640   */\n      0x00\n        /* \"#utility.yul\":636:637   */\n      dup1\n        /* \"#utility.yul\":629:641   */\n      revert\n        /* \"#utility.yul\":588:590   */\n    tag_53:\n        /* \"#utility.yul\":679:685   */\n      dup2\n        /* \"#utility.yul\":666:686   */\n      calldataload\n        /* \"#utility.yul\":704:783   */\n      tag_54\n        /* \"#utility.yul\":779:782   */\n      dup5\n        /* \"#utility.yul\":771:777   */\n      dup3\n        /* \"#utility.yul\":764:768   */\n      0x20\n        /* \"#utility.yul\":756:762   */\n      dup7\n        /* \"#utility.yul\":752:769   */\n      add\n        /* \"#utility.yul\":704:783   */\n      tag_38\n      jump\t// in\n    tag_54:\n        /* \"#utility.yul\":695:783   */\n      swap2\n      pop\n        /* \"#utility.yul\":578:789   */\n      pop\n      swap3\n      swap2\n      pop\n      pop\n      jump\t// out\n        /* \"#utility.yul\":795:934   */\n    tag_55:\n      0x00\n        /* \"#utility.yul\":879:885   */\n      dup2\n        /* \"#utility.yul\":866:886   */\n      calldataload\n        /* \"#utility.yul\":857:886   */\n      swap1\n      pop\n        /* \"#utility.yul\":895:928   */\n      tag_57\n        /* \"#utility.yul\":922:927   */\n      dup2\n        /* \"#utility.yul\":895:928   */\n      tag_58\n      jump\t// in\n    tag_57:\n        /* \"#utility.yul\":847:934   */\n      swap3\n      swap2\n      pop\n      pop\n      jump\t// out\n        /* \"#utility.yul\":940:1083   */\n    tag_59:\n      0x00\n        /* \"#utility.yul\":1028:1034   */\n      dup2\n        /* \"#utility.yul\":1022:1035   */\n      mload\n        /* \"#utility.yul\":1013:1035   */\n      swap1\n      pop\n        /* \"#utility.yul\":1044:1077   */\n      tag_61\n        /* \"#utility.yul\":1071:1076   */\n      dup2\n        /* \"#utility.yul\":1044:1077   */\n      tag_58\n      jump\t// in\n    tag_61:\n        /* \"#utility.yul\":1003:1083   */\n      swap3\n      swap2\n      pop\n      pop\n      jump\t// out\n        /* \"#utility.yul\":1089:1351   */\n    tag_13:\n      0x00\n        /* \"#utility.yul\":1197:1199   */\n      0x20\n        /* \"#utility.yul\":1185:1194   */\n      dup3\n        /* \"#utility.yul\":1176:1183   */\n      dup5\n        /* \"#utility.yul\":1172:1195   */\n      sub\n        /* \"#utility.yul\":1168:1200   */\n      slt\n        /* \"#utility.yul\":1165:1167   */\n      iszero\n      tag_63\n      jumpi\n        /* \"#utility.yul\":1213:1214   */\n      0x00\n        /* \"#utility.yul\":1210:1211   */\n      dup1\n        /* \"#utility.yul\":1203:1215   */\n      revert\n        /* \"#utility.yul\":1165:1167   */\n    tag_63:\n        /* \"#utility.yul\":1256:1257   */\n      0x00\n        /* \"#utility.yul\":1281:1334   */\n      tag_64\n        /* \"#utility.yul\":1326:1333   */\n      dup5\n        /* \"#utility.yul\":1317:1323   */\n      dup3\n        /* \"#utility.yul\":1306:1315   */\n      dup6\n        /* \"#utility.yul\":1302:1324   */\n      add\n        /* \"#utility.yul\":1281:1334   */\n      tag_47\n      jump\t// in\n    tag_64:\n        /* \"#utility.yul\":1271:1334   */\n      swap2\n      pop\n        /* \"#utility.yul\":1227:1344   */\n      pop\n        /* \"#utility.yul\":1155:1351   */\n      swap3\n      swap2\n      pop\n      pop\n      jump\t// out\n        /* \"#utility.yul\":1357:2022   */\n    tag_7:\n      0x00\n      dup1\n      0x00\n        /* \"#utility.yul\":1509:1511   */\n      0x60\n        /* \"#utility.yul\":1497:1506   */\n      dup5\n        /* \"#utility.yul\":1488:1495   */\n      dup7\n        /* \"#utility.yul\":1484:1507   */\n      sub\n        /* \"#utility.yul\":1480:1512   */\n      slt\n        /* \"#utility.yul\":1477:1479   */\n      iszero\n      tag_66\n      jumpi\n        /* \"#utility.yul\":1525:1526   */\n      0x00\n        /* \"#utility.yul\":1522:1523   */\n      dup1\n        /* \"#utility.yul\":1515:1527   */\n      revert\n        /* \"#utility.yul\":1477:1479   */\n    tag_66:\n        /* \"#utility.yul\":1568:1569   */\n      0x00\n        /* \"#utility.yul\":1593:1646   */\n      tag_67\n        /* \"#utility.yul\":1638:1645   */\n      dup7\n        /* \"#utility.yul\":1629:1635   */\n      dup3\n        /* \"#utility.yul\":1618:1627   */\n      dup8\n        /* \"#utility.yul\":1614:1636   */\n      add\n        /* \"#utility.yul\":1593:1646   */\n      tag_47\n      jump\t// in\n    tag_67:\n        /* \"#utility.yul\":1583:1646   */\n      swap4\n      pop\n        /* \"#utility.yul\":1539:1656   */\n      pop\n        /* \"#utility.yul\":1695:1697   */\n      0x20\n        /* \"#utility.yul\":1721:1774   */\n      tag_68\n        /* \"#utility.yul\":1766:1773   */\n      dup7\n        /* \"#utility.yul\":1757:1763   */\n      dup3\n        /* \"#utility.yul\":1746:1755   */\n      dup8\n        /* \"#utility.yul\":1742:1764   */\n      add\n        /* \"#utility.yul\":1721:1774   */\n      tag_55\n      jump\t// in\n    tag_68:\n        /* \"#utility.yul\":1711:1774   */\n      swap3\n      pop\n        /* \"#utility.yul\":1666:1784   */\n      pop\n        /* \"#utility.yul\":1851:1853   */\n      0x40\n        /* \"#utility.yul\":1840:1849   */\n      dup5\n        /* \"#utility.yul\":1836:1854   */\n      add\n        /* \"#utility.yul\":1823:1855   */\n      calldataload\n        /* \"#utility.yul\":1882:1900   */\n      0xffffffffffffffff\n        /* \"#utility.yul\":1874:1880   */\n      dup2\n        /* \"#utility.yul\":1871:1901   */\n      gt\n        /* \"#utility.yul\":1868:1870   */\n      iszero\n      tag_69\n      jumpi\n        /* \"#utility.yul\":1914:1915   */\n      0x00\n        /* \"#utility.yul\":1911:1912   */\n      dup1\n        /* \"#utility.yul\":1904:1916   */\n      revert\n        /* \"#utility.yul\":1868:1870   */\n    tag_69:\n        /* \"#utility.yul\":1942:2005   */\n      tag_70\n        /* \"#utility.yul\":1997:2004   */\n      dup7\n        /* \"#utility.yul\":1988:1994   */\n      dup3\n        /* \"#utility.yul\":1977:1986   */\n      dup8\n        /* \"#utility.yul\":1973:1995   */\n      add\n        /* \"#utility.yul\":1942:2005   */\n      tag_51\n      jump\t// in\n    tag_70:\n        /* \"#utility.yul\":1932:2005   */\n      swap2\n      pop\n        /* \"#utility.yul\":1794:2015   */\n      pop\n        /* \"#utility.yul\":1467:2022   */\n      swap3\n      pop\n      swap3\n      pop\n      swap3\n      jump\t// out\n        /* \"#utility.yul\":2028:2312   */\n    tag_27:\n      0x00\n        /* \"#utility.yul\":2147:2149   */\n      0x20\n        /* \"#utility.yul\":2135:2144   */\n      dup3\n        /* \"#utility.yul\":2126:2133   */\n      dup5\n        /* \"#utility.yul\":2122:2145   */\n      sub\n        /* \"#utility.yul\":2118:2150   */\n      slt\n        /* \"#utility.yul\":2115:2117   */\n      iszero\n      tag_72\n      jumpi\n        /* \"#utility.yul\":2163:2164   */\n      0x00\n        /* \"#utility.yul\":2160:2161   */\n      dup1\n        /* \"#utility.yul\":2153:2165   */\n      revert\n        /* \"#utility.yul\":2115:2117   */\n    tag_72:\n        /* \"#utility.yul\":2206:2207   */\n      0x00\n        /* \"#utility.yul\":2231:2295   */\n      tag_73\n        /* \"#utility.yul\":2287:2294   */\n      dup5\n        /* \"#utility.yul\":2278:2284   */\n      dup3\n        /* \"#utility.yul\":2267:2276   */\n      dup6\n        /* \"#utility.yul\":2263:2285   */\n      add\n        /* \"#utility.yul\":2231:2295   */\n      tag_59\n      jump\t// in\n    tag_73:\n        /* \"#utility.yul\":2221:2295   */\n      swap2\n      pop\n        /* \"#utility.yul\":2177:2305   */\n      pop\n        /* \"#utility.yul\":2105:2312   */\n      swap3\n      swap2\n      pop\n      pop\n      jump\t// out\n        /* \"#utility.yul\":2318:2427   */\n    tag_74:\n        /* \"#utility.yul\":2399:2420   */\n      tag_76\n        /* \"#utility.yul\":2414:2419   */\n      dup2\n        /* \"#utility.yul\":2399:2420   */\n      tag_77\n      jump\t// in\n    tag_76:\n        /* \"#utility.yul\":2394:2397   */\n      dup3\n        /* \"#utility.yul\":2387:2421   */\n      mstore\n        /* \"#utility.yul\":2377:2427   */\n      pop\n      pop\n      jump\t// out\n        /* \"#utility.yul\":2433:2806   */\n    tag_78:\n      0x00\n        /* \"#utility.yul\":2565:2603   */\n      tag_80\n        /* \"#utility.yul\":2597:2602   */\n      dup3\n        /* \"#utility.yul\":2565:2603   */\n      tag_81\n      jump\t// in\n    tag_80:\n        /* \"#utility.yul\":2619:2707   */\n      tag_82\n        /* \"#utility.yul\":2700:2706   */\n      dup2\n        /* \"#utility.yul\":2695:2698   */\n      dup6\n        /* \"#utility.yul\":2619:2707   */\n      tag_83\n      jump\t// in\n    tag_82:\n        /* \"#utility.yul\":2612:2707   */\n      swap4\n      pop\n        /* \"#utility.yul\":2716:2768   */\n      tag_84\n        /* \"#utility.yul\":2761:2767   */\n      dup2\n        /* \"#utility.yul\":2756:2759   */\n      dup6\n        /* \"#utility.yul\":2749:2753   */\n      0x20\n        /* \"#utility.yul\":2742:2747   */\n      dup7\n        /* \"#utility.yul\":2738:2754   */\n      add\n        /* \"#utility.yul\":2716:2768   */\n      tag_85\n      jump\t// in\n    tag_84:\n        /* \"#utility.yul\":2793:2799   */\n      dup1\n        /* \"#utility.yul\":2788:2791   */\n      dup5\n        /* \"#utility.yul\":2784:2800   */\n      add\n        /* \"#utility.yul\":2777:2800   */\n      swap2\n      pop\n        /* \"#utility.yul\":2541:2806   */\n      pop\n      swap3\n      swap2\n      pop\n      pop\n      jump\t// out\n        /* \"#utility.yul\":2812:3176   */\n    tag_86:\n      0x00\n        /* \"#utility.yul\":2928:2967   */\n      tag_88\n        /* \"#utility.yul\":2961:2966   */\n      dup3\n        /* \"#utility.yul\":2928:2967   */\n      tag_89\n      jump\t// in\n    tag_88:\n        /* \"#utility.yul\":2983:3054   */\n      tag_90\n        /* \"#utility.yul\":3047:3053   */\n      dup2\n        /* \"#utility.yul\":3042:3045   */\n      dup6\n        /* \"#utility.yul\":2983:3054   */\n      tag_91\n      jump\t// in\n    tag_90:\n        /* \"#utility.yul\":2976:3054   */\n      swap4\n      pop\n        /* \"#utility.yul\":3063:3115   */\n      tag_92\n        /* \"#utility.yul\":3108:3114   */\n      dup2\n        /* \"#utility.yul\":3103:3106   */\n      dup6\n        /* \"#utility.yul\":3096:3100   */\n      0x20\n        /* \"#utility.yul\":3089:3094   */\n      dup7\n        /* \"#utility.yul\":3085:3101   */\n      add\n        /* \"#utility.yul\":3063:3115   */\n      tag_85\n      jump\t// in\n    tag_92:\n        /* \"#utility.yul\":3140:3169   */\n      tag_93\n        /* \"#utility.yul\":3162:3168   */\n      dup2\n        /* \"#utility.yul\":3140:3169   */\n      tag_94\n      jump\t// in\n    tag_93:\n        /* \"#utility.yul\":3135:3138   */\n      dup5\n        /* \"#utility.yul\":3131:3170   */\n      add\n        /* \"#utility.yul\":3124:3170   */\n      swap2\n      pop\n        /* \"#utility.yul\":2904:3176   */\n      pop\n      swap3\n      swap2\n      pop\n      pop\n      jump\t// out\n        /* \"#utility.yul\":3182:3500   */\n    tag_95:\n      0x00\n        /* \"#utility.yul\":3345:3412   */\n      tag_97\n        /* \"#utility.yul\":3409:3411   */\n      0x14\n        /* \"#utility.yul\":3404:3407   */\n      dup4\n        /* \"#utility.yul\":3345:3412   */\n      tag_91\n      jump\t// in\n    tag_97:\n        /* \"#utility.yul\":3338:3412   */\n      swap2\n      pop\n        /* \"#utility.yul\":3442:3464   */\n      0x46756e6374696f6e2063616c6c206661696c6564000000000000000000000000\n        /* \"#utility.yul\":3438:3439   */\n      0x00\n        /* \"#utility.yul\":3433:3436   */\n      dup4\n        /* \"#utility.yul\":3429:3440   */\n      add\n        /* \"#utility.yul\":3422:3465   */\n      mstore\n        /* \"#utility.yul\":3491:3493   */\n      0x20\n        /* \"#utility.yul\":3486:3489   */\n      dup3\n        /* \"#utility.yul\":3482:3494   */\n      add\n        /* \"#utility.yul\":3475:3494   */\n      swap1\n      pop\n        /* \"#utility.yul\":3328:3500   */\n      swap2\n      swap1\n      pop\n      jump\t// out\n        /* \"#utility.yul\":3506:3824   */\n    tag_98:\n      0x00\n        /* \"#utility.yul\":3669:3736   */\n      tag_100\n        /* \"#utility.yul\":3733:3735   */\n      0x14\n        /* \"#utility.yul\":3728:3731   */\n      dup4\n        /* \"#utility.yul\":3669:3736   */\n      tag_91\n      jump\t// in\n    tag_100:\n        /* \"#utility.yul\":3662:3736   */\n      swap2\n      pop\n        /* \"#utility.yul\":3766:3788   */\n      0x46616c6c6261636b2063616c6c206661696c6564000000000000000000000000\n        /* \"#utility.yul\":3762:3763   */\n      0x00\n        /* \"#utility.yul\":3757:3760   */\n      dup4\n        /* \"#utility.yul\":3753:3764   */\n      add\n        /* \"#utility.yul\":3746:3789   */\n      mstore\n        /* \"#utility.yul\":3815:3817   */\n      0x20\n        /* \"#utility.yul\":3810:3813   */\n      dup3\n        /* \"#utility.yul\":3806:3818   */\n      add\n        /* \"#utility.yul\":3799:3818   */\n      swap1\n      pop\n        /* \"#utility.yul\":3652:3824   */\n      swap2\n      swap1\n      pop\n      jump\t// out\n        /* \"#utility.yul\":3830:4127   */\n    tag_101:\n      0x00\n        /* \"#utility.yul\":4010:4093   */\n      tag_103\n        /* \"#utility.yul\":4091:4092   */\n      0x00\n        /* \"#utility.yul\":4086:4089   */\n      dup4\n        /* \"#utility.yul\":4010:4093   */\n      tag_83\n      jump\t// in\n    tag_103:\n        /* \"#utility.yul\":4003:4093   */\n      swap2\n      pop\n        /* \"#utility.yul\":4119:4120   */\n      0x00\n        /* \"#utility.yul\":4114:4117   */\n      dup3\n        /* \"#utility.yul\":4110:4121   */\n      add\n        /* \"#utility.yul\":4103:4121   */\n      swap1\n      pop\n        /* \"#utility.yul\":3993:4127   */\n      swap2\n      swap1\n      pop\n      jump\t// out\n        /* \"#utility.yul\":4133:4251   */\n    tag_104:\n        /* \"#utility.yul\":4220:4244   */\n      tag_106\n        /* \"#utility.yul\":4238:4243   */\n      dup2\n        /* \"#utility.yul\":4220:4244   */\n      tag_107\n      jump\t// in\n    tag_106:\n        /* \"#utility.yul\":4215:4218   */\n      dup3\n        /* \"#utility.yul\":4208:4245   */\n      mstore\n        /* \"#utility.yul\":4198:4251   */\n      pop\n      pop\n      jump\t// out\n        /* \"#utility.yul\":4257:4528   */\n    tag_19:\n      0x00\n        /* \"#utility.yul\":4409:4502   */\n      tag_109\n        /* \"#utility.yul\":4498:4501   */\n      dup3\n        /* \"#utility.yul\":4489:4495   */\n      dup5\n        /* \"#utility.yul\":4409:4502   */\n      tag_78\n      jump\t// in\n    tag_109:\n        /* \"#utility.yul\":4402:4502   */\n      swap2\n      pop\n        /* \"#utility.yul\":4519:4522   */\n      dup2\n        /* \"#utility.yul\":4512:4522   */\n      swap1\n      pop\n        /* \"#utility.yul\":4391:4528   */\n      swap3\n      swap2\n      pop\n      pop\n      jump\t// out\n        /* \"#utility.yul\":4534:4913   */\n    tag_30:\n      0x00\n        /* \"#utility.yul\":4740:4887   */\n      tag_111\n        /* \"#utility.yul\":4883:4886   */\n      dup3\n        /* \"#utility.yul\":4740:4887   */\n      tag_101\n      jump\t// in\n    tag_111:\n        /* \"#utility.yul\":4733:4887   */\n      swap2\n      pop\n        /* \"#utility.yul\":4904:4907   */\n      dup2\n        /* \"#utility.yul\":4897:4907   */\n      swap1\n      pop\n        /* \"#utility.yul\":4722:4913   */\n      swap2\n      swap1\n      pop\n      jump\t// out\n        /* \"#utility.yul\":4919:5239   */\n    tag_10:\n      0x00\n        /* \"#utility.yul\":5072:5074   */\n      0x40\n        /* \"#utility.yul\":5061:5070   */\n      dup3\n        /* \"#utility.yul\":5057:5075   */\n      add\n        /* \"#utility.yul\":5049:5075   */\n      swap1\n      pop\n        /* \"#utility.yul\":5085:5150   */\n      tag_113\n        /* \"#utility.yul\":5147:5148   */\n      0x00\n        /* \"#utility.yul\":5136:5145   */\n      dup4\n        /* \"#utility.yul\":5132:5149   */\n      add\n        /* \"#utility.yul\":5123:5129   */\n      dup6\n        /* \"#utility.yul\":5085:5150   */\n      tag_74\n      jump\t// in\n    tag_113:\n        /* \"#utility.yul\":5160:5232   */\n      tag_114\n        /* \"#utility.yul\":5228:5230   */\n      0x20\n        /* \"#utility.yul\":5217:5226   */\n      dup4\n        /* \"#utility.yul\":5213:5231   */\n      add\n        /* \"#utility.yul\":5204:5210   */\n      dup5\n        /* \"#utility.yul\":5160:5232   */\n      tag_104\n      jump\t// in\n    tag_114:\n        /* \"#utility.yul\":5039:5239   */\n      swap4\n      swap3\n      pop\n      pop\n      pop\n      jump\t// out\n        /* \"#utility.yul\":5245:5664   */\n    tag_25:\n      0x00\n        /* \"#utility.yul\":5449:5451   */\n      0x20\n        /* \"#utility.yul\":5438:5447   */\n      dup3\n        /* \"#utility.yul\":5434:5452   */\n      add\n        /* \"#utility.yul\":5426:5452   */\n      swap1\n      pop\n        /* \"#utility.yul\":5498:5507   */\n      dup2\n        /* \"#utility.yul\":5492:5496   */\n      dup2\n        /* \"#utility.yul\":5488:5508   */\n      sub\n        /* \"#utility.yul\":5484:5485   */\n      0x00\n        /* \"#utility.yul\":5473:5482   */\n      dup4\n        /* \"#utility.yul\":5469:5486   */\n      add\n        /* \"#utility.yul\":5462:5509   */\n      mstore\n        /* \"#utility.yul\":5526:5657   */\n      tag_116\n        /* \"#utility.yul\":5652:5656   */\n      dup2\n        /* \"#utility.yul\":5526:5657   */\n      tag_95\n      jump\t// in\n    tag_116:\n        /* \"#utility.yul\":5518:5657   */\n      swap1\n      pop\n        /* \"#utility.yul\":5416:5664   */\n      swap2\n      swap1\n      pop\n      jump\t// out\n        /* \"#utility.yul\":5670:6089   */\n    tag_36:\n      0x00\n        /* \"#utility.yul\":5874:5876   */\n      0x20\n        /* \"#utility.yul\":5863:5872   */\n      dup3\n        /* \"#utility.yul\":5859:5877   */\n      add\n        /* \"#utility.yul\":5851:5877   */\n      swap1\n      pop\n        /* \"#utility.yul\":5923:5932   */\n      dup2\n        /* \"#utility.yul\":5917:5921   */\n      dup2\n        /* \"#utility.yul\":5913:5933   */\n      sub\n        /* \"#utility.yul\":5909:5910   */\n      0x00\n        /* \"#utility.yul\":5898:5907   */\n      dup4\n        /* \"#utility.yul\":5894:5911   */\n      add\n        /* \"#utility.yul\":5887:5934   */\n      mstore\n        /* \"#utility.yul\":5951:6082   */\n      tag_118\n        /* \"#utility.yul\":6077:6081   */\n      dup2\n        /* \"#utility.yul\":5951:6082   */\n      tag_98\n      jump\t// in\n    tag_118:\n        /* \"#utility.yul\":5943:6082   */\n      swap1\n      pop\n        /* \"#utility.yul\":5841:6089   */\n      swap2\n      swap1\n      pop\n      jump\t// out\n        /* \"#utility.yul\":6095:6518   */\n    tag_17:\n      0x00\n        /* \"#utility.yul\":6274:6276   */\n      0x40\n        /* \"#utility.yul\":6263:6272   */\n      dup3\n        /* \"#utility.yul\":6259:6277   */\n      add\n        /* \"#utility.yul\":6251:6277   */\n      swap1\n      pop\n        /* \"#utility.yul\":6287:6358   */\n      tag_120\n        /* \"#utility.yul\":6355:6356   */\n      0x00\n        /* \"#utility.yul\":6344:6353   */\n      dup4\n        /* \"#utility.yul\":6340:6357   */\n      add\n        /* \"#utility.yul\":6331:6337   */\n      dup6\n        /* \"#utility.yul\":6287:6358   */\n      tag_104\n      jump\t// in\n    tag_120:\n        /* \"#utility.yul\":6405:6414   */\n      dup2\n        /* \"#utility.yul\":6399:6403   */\n      dup2\n        /* \"#utility.yul\":6395:6415   */\n      sub\n        /* \"#utility.yul\":6390:6392   */\n      0x20\n        /* \"#utility.yul\":6379:6388   */\n      dup4\n        /* \"#utility.yul\":6375:6393   */\n      add\n        /* \"#utility.yul\":6368:6416   */\n      mstore\n        /* \"#utility.yul\":6433:6511   */\n      tag_121\n        /* \"#utility.yul\":6506:6510   */\n      dup2\n        /* \"#utility.yul\":6497:6503   */\n      dup5\n        /* \"#utility.yul\":6433:6511   */\n      tag_86\n      jump\t// in\n    tag_121:\n        /* \"#utility.yul\":6425:6511   */\n      swap1\n      pop\n        /* \"#utility.yul\":6241:6518   */\n      swap4\n      swap3\n      pop\n      pop\n      pop\n      jump\t// out\n        /* \"#utility.yul\":6524:6807   */\n    tag_43:\n      0x00\n        /* \"#utility.yul\":6590:6592   */\n      0x40\n        /* \"#utility.yul\":6584:6593   */\n      mload\n        /* \"#utility.yul\":6574:6593   */\n      swap1\n      pop\n        /* \"#utility.yul\":6632:6636   */\n      dup2\n        /* \"#utility.yul\":6624:6630   */\n      dup2\n        /* \"#utility.yul\":6620:6637   */\n      add\n        /* \"#utility.yul\":6739:6745   */\n      dup2\n        /* \"#utility.yul\":6727:6737   */\n      dup2\n        /* \"#utility.yul\":6724:6746   */\n      lt\n        /* \"#utility.yul\":6703:6721   */\n      0xffffffffffffffff\n        /* \"#utility.yul\":6691:6701   */\n      dup3\n        /* \"#utility.yul\":6688:6722   */\n      gt\n        /* \"#utility.yul\":6685:6747   */\n      or\n        /* \"#utility.yul\":6682:6684   */\n      iszero\n      tag_123\n      jumpi\n        /* \"#utility.yul\":6750:6768   */\n      tag_124\n      tag_125\n      jump\t// in\n    tag_124:\n        /* \"#utility.yul\":6682:6684   */\n    tag_123:\n        /* \"#utility.yul\":6790:6800   */\n      dup1\n        /* \"#utility.yul\":6786:6788   */\n      0x40\n        /* \"#utility.yul\":6779:6801   */\n      mstore\n        /* \"#utility.yul\":6564:6807   */\n      pop\n      swap2\n      swap1\n      pop\n      jump\t// out\n        /* \"#utility.yul\":6813:7145   */\n    tag_42:\n      0x00\n        /* \"#utility.yul\":6965:6983   */\n      0xffffffffffffffff\n        /* \"#utility.yul\":6957:6963   */\n      dup3\n        /* \"#utility.yul\":6954:6984   */\n      gt\n        /* \"#utility.yul\":6951:6953   */\n      iszero\n      tag_127\n      jumpi\n        /* \"#utility.yul\":6987:7005   */\n      tag_128\n      tag_125\n      jump\t// in\n    tag_128:\n        /* \"#utility.yul\":6951:6953   */\n    tag_127:\n        /* \"#utility.yul\":7072:7076   */\n      0x1f\n        /* \"#utility.yul\":7068:7077   */\n      not\n        /* \"#utility.yul\":7061:7065   */\n      0x1f\n        /* \"#utility.yul\":7053:7059   */\n      dup4\n        /* \"#utility.yul\":7049:7066   */\n      add\n        /* \"#utility.yul\":7045:7078   */\n      and\n        /* \"#utility.yul\":7037:7078   */\n      swap1\n      pop\n        /* \"#utility.yul\":7133:7137   */\n      0x20\n        /* \"#utility.yul\":7127:7131   */\n      dup2\n        /* \"#utility.yul\":7123:7138   */\n      add\n        /* \"#utility.yul\":7115:7138   */\n      swap1\n      pop\n        /* \"#utility.yul\":6880:7145   */\n      swap2\n      swap1\n      pop\n      jump\t// out\n        /* \"#utility.yul\":7151:7249   */\n    tag_81:\n      0x00\n        /* \"#utility.yul\":7236:7241   */\n      dup2\n        /* \"#utility.yul\":7230:7242   */\n      mload\n        /* \"#utility.yul\":7220:7242   */\n      swap1\n      pop\n        /* \"#utility.yul\":7209:7249   */\n      swap2\n      swap1\n      pop\n      jump\t// out\n        /* \"#utility.yul\":7255:7354   */\n    tag_89:\n      0x00\n        /* \"#utility.yul\":7341:7346   */\n      dup2\n        /* \"#utility.yul\":7335:7347   */\n      mload\n        /* \"#utility.yul\":7325:7347   */\n      swap1\n      pop\n        /* \"#utility.yul\":7314:7354   */\n      swap2\n      swap1\n      pop\n      jump\t// out\n        /* \"#utility.yul\":7360:7507   */\n    tag_83:\n      0x00\n        /* \"#utility.yul\":7498:7501   */\n      dup2\n        /* \"#utility.yul\":7483:7501   */\n      swap1\n      pop\n        /* \"#utility.yul\":7473:7507   */\n      swap3\n      swap2\n      pop\n      pop\n      jump\t// out\n        /* \"#utility.yul\":7513:7682   */\n    tag_91:\n      0x00\n        /* \"#utility.yul\":7631:7637   */\n      dup3\n        /* \"#utility.yul\":7626:7629   */\n      dup3\n        /* \"#utility.yul\":7619:7638   */\n      mstore\n        /* \"#utility.yul\":7671:7675   */\n      0x20\n        /* \"#utility.yul\":7666:7669   */\n      dup3\n        /* \"#utility.yul\":7662:7676   */\n      add\n        /* \"#utility.yul\":7647:7676   */\n      swap1\n      pop\n        /* \"#utility.yul\":7609:7682   */\n      swap3\n      swap2\n      pop\n      pop\n      jump\t// out\n        /* \"#utility.yul\":7688:7784   */\n    tag_133:\n      0x00\n        /* \"#utility.yul\":7754:7778   */\n      tag_135\n        /* \"#utility.yul\":7772:7777   */\n      dup3\n        /* \"#utility.yul\":7754:7778   */\n      tag_136\n      jump\t// in\n    tag_135:\n        /* \"#utility.yul\":7743:7778   */\n      swap1\n      pop\n        /* \"#utility.yul\":7733:7784   */\n      swap2\n      swap1\n      pop\n      jump\t// out\n        /* \"#utility.yul\":7790:7880   */\n    tag_77:\n      0x00\n        /* \"#utility.yul\":7867:7872   */\n      dup2\n        /* \"#utility.yul\":7860:7873   */\n      iszero\n        /* \"#utility.yul\":7853:7874   */\n      iszero\n        /* \"#utility.yul\":7842:7874   */\n      swap1\n      pop\n        /* \"#utility.yul\":7832:7880   */\n      swap2\n      swap1\n      pop\n      jump\t// out\n        /* \"#utility.yul\":7886:8012   */\n    tag_136:\n      0x00\n        /* \"#utility.yul\":7963:8005   */\n      0xffffffffffffffffffffffffffffffffffffffff\n        /* \"#utility.yul\":7956:7961   */\n      dup3\n        /* \"#utility.yul\":7952:8006   */\n      and\n        /* \"#utility.yul\":7941:8006   */\n      swap1\n      pop\n        /* \"#utility.yul\":7931:8012   */\n      swap2\n      swap1\n      pop\n      jump\t// out\n        /* \"#utility.yul\":8018:8095   */\n    tag_107:\n      0x00\n        /* \"#utility.yul\":8084:8089   */\n      dup2\n        /* \"#utility.yul\":8073:8089   */\n      swap1\n      pop\n        /* \"#utility.yul\":8063:8095   */\n      swap2\n      swap1\n      pop\n      jump\t// out\n        /* \"#utility.yul\":8101:8255   */\n    tag_46:\n        /* \"#utility.yul\":8185:8191   */\n      dup3\n        /* \"#utility.yul\":8180:8183   */\n      dup2\n        /* \"#utility.yul\":8175:8178   */\n      dup4\n        /* \"#utility.yul\":8162:8192   */\n      calldatacopy\n        /* \"#utility.yul\":8247:8248   */\n      0x00\n        /* \"#utility.yul\":8238:8244   */\n      dup4\n        /* \"#utility.yul\":8233:8236   */\n      dup4\n        /* \"#utility.yul\":8229:8245   */\n      add\n        /* \"#utility.yul\":8222:8249   */\n      mstore\n        /* \"#utility.yul\":8152:8255   */\n      pop\n      pop\n      pop\n      jump\t// out\n        /* \"#utility.yul\":8261:8568   */\n    tag_85:\n        /* \"#utility.yul\":8329:8330   */\n      0x00\n        /* \"#utility.yul\":8339:8452   */\n    tag_142:\n        /* \"#utility.yul\":8353:8359   */\n      dup4\n        /* \"#utility.yul\":8350:8351   */\n      dup2\n        /* \"#utility.yul\":8347:8360   */\n      lt\n        /* \"#utility.yul\":8339:8452   */\n      iszero\n      tag_144\n      jumpi\n        /* \"#utility.yul\":8438:8439   */\n      dup1\n        /* \"#utility.yul\":8433:8436   */\n      dup3\n        /* \"#utility.yul\":8429:8440   */\n      add\n        /* \"#utility.yul\":8423:8441   */\n      mload\n        /* \"#utility.yul\":8419:8420   */\n      dup2\n        /* \"#utility.yul\":8414:8417   */\n      dup5\n        /* \"#utility.yul\":8410:8421   */\n      add\n        /* \"#utility.yul\":8403:8442   */\n      mstore\n        /* \"#utility.yul\":8375:8377   */\n      0x20\n        /* \"#utility.yul\":8372:8373   */\n      dup2\n        /* \"#utility.yul\":8368:8378   */\n      add\n        /* \"#utility.yul\":8363:8378   */\n      swap1\n      pop\n        /* \"#utility.yul\":8339:8452   */\n      jump(tag_142)\n    tag_144:\n        /* \"#utility.yul\":8470:8476   */\n      dup4\n        /* \"#utility.yul\":8467:8468   */\n      dup2\n        /* \"#utility.yul\":8464:8477   */\n      gt\n        /* \"#utility.yul\":8461:8463   */\n      iszero\n      tag_145\n      jumpi\n        /* \"#utility.yul\":8550:8551   */\n      0x00\n        /* \"#utility.yul\":8541:8547   */\n      dup5\n        /* \"#utility.yul\":8536:8539   */\n      dup5\n        /* \"#utility.yul\":8532:8548   */\n      add\n        /* \"#utility.yul\":8525:8552   */\n      mstore\n        /* \"#utility.yul\":8461:8463   */\n    tag_145:\n        /* \"#utility.yul\":8310:8568   */\n      pop\n      pop\n      pop\n      pop\n      jump\t// out\n        /* \"#utility.yul\":8574:8754   */\n    tag_125:\n        /* \"#utility.yul\":8622:8699   */\n      0x4e487b7100000000000000000000000000000000000000000000000000000000\n        /* \"#utility.yul\":8619:8620   */\n      0x00\n        /* \"#utility.yul\":8612:8700   */\n      mstore\n        /* \"#utility.yul\":8719:8723   */\n      0x41\n        /* \"#utility.yul\":8716:8717   */\n      0x04\n        /* \"#utility.yul\":8709:8724   */\n      mstore\n        /* \"#utility.yul\":8743:8747   */\n      0x24\n        /* \"#utility.yul\":8740:8741   */\n      0x00\n        /* \"#utility.yul\":8733:8748   */\n      revert\n        /* \"#utility.yul\":8760:8862   */\n    tag_94:\n      0x00\n        /* \"#utility.yul\":8852:8854   */\n      0x1f\n        /* \"#utility.yul\":8848:8855   */\n      not\n        /* \"#utility.yul\":8843:8845   */\n      0x1f\n        /* \"#utility.yul\":8836:8841   */\n      dup4\n        /* \"#utility.yul\":8832:8846   */\n      add\n        /* \"#utility.yul\":8828:8856   */\n      and\n        /* \"#utility.yul\":8818:8856   */\n      swap1\n      pop\n        /* \"#utility.yul\":8808:8862   */\n      swap2\n      swap1\n      pop\n      jump\t// out\n        /* \"#utility.yul\":8868:8990   */\n    tag_50:\n        /* \"#utility.yul\":8941:8965   */\n      tag_149\n        /* \"#utility.yul\":8959:8964   */\n      dup2\n        /* \"#utility.yul\":8941:8965   */\n      tag_133\n      jump\t// in\n    tag_149:\n        /* \"#utility.yul\":8934:8939   */\n      dup2\n        /* \"#utility.yul\":8931:8966   */\n      eq\n        /* \"#utility.yul\":8921:8923   */\n      tag_150\n      jumpi\n        /* \"#utility.yul\":8980:8981   */\n      0x00\n        /* \"#utility.yul\":8977:8978   */\n      dup1\n        /* \"#utility.yul\":8970:8982   */\n      revert\n        /* \"#utility.yul\":8921:8923   */\n    tag_150:\n        /* \"#utility.yul\":8911:8990   */\n      pop\n      jump\t// out\n        /* \"#utility.yul\":8996:9118   */\n    tag_58:\n        /* \"#utility.yul\":9069:9093   */\n      tag_152\n        /* \"#utility.yul\":9087:9092   */\n      dup2\n        /* \"#utility.yul\":9069:9093   */\n      tag_107\n      jump\t// in\n    tag_152:\n        /* \"#utility.yul\":9062:9067   */\n      dup2\n        /* \"#utility.yul\":9059:9094   */\n      eq\n        /* \"#utility.yul\":9049:9051   */\n      tag_153\n      jumpi\n        /* \"#utility.yul\":9108:9109   */\n      0x00\n        /* \"#utility.yul\":9105:9106   */\n      dup1\n        /* \"#utility.yul\":9098:9110   */\n      revert\n        /* \"#utility.yul\":9049:9051   */\n    tag_153:\n        /* \"#utility.yul\":9039:9118   */\n      pop\n      jump\t// out\n\n    auxdata: 0xa2646970667358221220e10f167a05da3a6df37b4a89dc42574add9c9d0c2be96a6eae4163c3a8e06ee964736f6c63430008000033\n}\n",
				"bytecode": {
					"linkReferences": {},
					"object": "608060405234801561001057600080fd5b506107aa806100206000396000f3fe6080604052600436106100295760003560e01c806313dcb81b1461002e5780639e4c49051461006c575b600080fd5b34801561003a57600080fd5b5061005560048036038101906100509190610372565b610088565b604051610063929190610550565b60405180910390f35b61008660048036038101906100819190610349565b6101f2565b005b6000806000808673ffffffffffffffffffffffffffffffffffffffff1686866040516024016100b89291906105b9565b6040516020818303038152906040527fb418380d000000000000000000000000000000000000000000000000000000007bffffffffffffffffffffffffffffffffffffffffffffffffffffffff19166020820180517bffffffffffffffffffffffffffffffffffffffffffffffffffffffff83818316178352505050506040516101429190610524565b6000604051808303816000865af19150503d806000811461017f576040519150601f19603f3d011682016040523d82523d6000602084013e610184565b606091505b5091509150816101c9576040517f08c379a00000000000000000000000000000000000000000000000000000000081526004016101c090610579565b60405180910390fd5b6000818060200190518101906101df91906103d9565b9050828194509450505050935093915050565b60008173ffffffffffffffffffffffffffffffffffffffff16346040516102189061053b565b60006040518083038185875af1925050503d8060008114610255576040519150601f19603f3d011682016040523d82523d6000602084013e61025a565b606091505b505090508061029e576040517f08c379a000000000000000000000000000000000000000000000000000000000815260040161029590610599565b60405180910390fd5b5050565b60006102b56102b08461061a565b6105e9565b9050828152602081018484840111156102cd57600080fd5b6102d88482856106c4565b509392505050565b6000813590506102ef81610746565b92915050565b600082601f83011261030657600080fd5b81356103168482602086016102a2565b91505092915050565b60008135905061032e8161075d565b92915050565b6000815190506103438161075d565b92915050565b60006020828403121561035b57600080fd5b6000610369848285016102e0565b91505092915050565b60008060006060848603121561038757600080fd5b6000610395868287016102e0565b93505060206103a68682870161031f565b925050604084013567ffffffffffffffff8111156103c357600080fd5b6103cf868287016102f5565b9150509250925092565b6000602082840312156103eb57600080fd5b60006103f984828501610334565b91505092915050565b61040b8161068e565b82525050565b600061041c8261064a565b6104268185610660565b93506104368185602086016106d3565b80840191505092915050565b600061044d82610655565b610457818561066b565b93506104678185602086016106d3565b61047081610735565b840191505092915050565b600061048860148361066b565b91507f46756e6374696f6e2063616c6c206661696c65640000000000000000000000006000830152602082019050919050565b60006104c860148361066b565b91507f46616c6c6261636b2063616c6c206661696c65640000000000000000000000006000830152602082019050919050565b6000610508600083610660565b9150600082019050919050565b61051e816106ba565b82525050565b60006105308284610411565b915081905092915050565b6000610546826104fb565b9150819050919050565b60006040820190506105656000830185610402565b6105726020830184610515565b9392505050565b600060208201905081810360008301526105928161047b565b9050919050565b600060208201905081810360008301526105b2816104bb565b9050919050565b60006040820190506105ce6000830185610515565b81810360208301526105e08184610442565b90509392505050565b6000604051905081810181811067ffffffffffffffff821117156106105761060f610706565b5b8060405250919050565b600067ffffffffffffffff82111561063557610634610706565b5b601f19601f8301169050602081019050919050565b600081519050919050565b600081519050919050565b600081905092915050565b600082825260208201905092915050565b60006106878261069a565b9050919050565b60008115159050919050565b600073ffffffffffffffffffffffffffffffffffffffff82169050919050565b6000819050919050565b82818337600083830152505050565b60005b838110156106f15780820151818401526020810190506106d6565b83811115610700576000848401525b50505050565b7f4e487b7100000000000000000000000000000000000000000000000000000000600052604160045260246000fd5b6000601f19601f8301169050919050565b61074f8161067c565b811461075a57600080fd5b50565b610766816106ba565b811461077157600080fd5b5056fea2646970667358221220e10f167a05da3a6df37b4a89dc42574add9c9d0c2be96a6eae4163c3a8e06ee964736f6c63430008000033",
					"opcodes": "PUSH1 0x80 PUSH1 0x40 MSTORE CALLVALUE DUP1 ISZERO PUSH2 0x10 JUMPI PUSH1 0x0 DUP1 REVERT JUMPDEST POP PUSH2 0x7AA DUP1 PUSH2 0x20 PUSH1 0x0 CODECOPY PUSH1 0x0 RETURN INVALID PUSH1 0x80 PUSH1 0x40 MSTORE PUSH1 0x4 CALLDATASIZE LT PUSH2 0x29 JUMPI PUSH1 0x0 CALLDATALOAD PUSH1 0xE0 SHR DUP1 PUSH4 0x13DCB81B EQ PUSH2 0x2E JUMPI DUP1 PUSH4 0x9E4C4905 EQ PUSH2 0x6C JUMPI JUMPDEST PUSH1 0x0 DUP1 REVERT JUMPDEST CALLVALUE DUP1 ISZERO PUSH2 0x3A JUMPI PUSH1 0x0 DUP1 REVERT JUMPDEST POP PUSH2 0x55 PUSH1 0x4 DUP1 CALLDATASIZE SUB DUP2 ADD SWAP1 PUSH2 0x50 SWAP2 SWAP1 PUSH2 0x372 JUMP JUMPDEST PUSH2 0x88 JUMP JUMPDEST PUSH1 0x40 MLOAD PUSH2 0x63 SWAP3 SWAP2 SWAP1 PUSH2 0x550 JUMP JUMPDEST PUSH1 0x40 MLOAD DUP1 SWAP2 SUB SWAP1 RETURN JUMPDEST PUSH2 0x86 PUSH1 0x4 DUP1 CALLDATASIZE SUB DUP2 ADD SWAP1 PUSH2 0x81 SWAP2 SWAP1 PUSH2 0x349 JUMP JUMPDEST PUSH2 0x1F2 JUMP JUMPDEST STOP JUMPDEST PUSH1 0x0 DUP1 PUSH1 0x0 DUP1 DUP7 PUSH20 0xFFFFFFFFFFFFFFFFFFFFFFFFFFFFFFFFFFFFFFFF AND DUP7 DUP7 PUSH1 0x40 MLOAD PUSH1 0x24 ADD PUSH2 0xB8 SWAP3 SWAP2 SWAP1 PUSH2 0x5B9 JUMP JUMPDEST PUSH1 0x40 MLOAD PUSH1 0x20 DUP2 DUP4 SUB SUB DUP2 MSTORE SWAP1 PUSH1 0x40 MSTORE PUSH32 0xB418380D00000000000000000000000000000000000000000000000000000000 PUSH28 0xFFFFFFFFFFFFFFFFFFFFFFFFFFFFFFFFFFFFFFFFFFFFFFFFFFFFFFFF NOT AND PUSH1 0x20 DUP3 ADD DUP1 MLOAD PUSH28 0xFFFFFFFFFFFFFFFFFFFFFFFFFFFFFFFFFFFFFFFFFFFFFFFFFFFFFFFF DUP4 DUP2 DUP4 AND OR DUP4 MSTORE POP POP POP POP PUSH1 0x40 MLOAD PUSH2 0x142 SWAP2 SWAP1 PUSH2 0x524 JUMP JUMPDEST PUSH1 0x0 PUSH1 0x40 MLOAD DUP1 DUP4 SUB DUP2 PUSH1 0x0 DUP7 GAS CALL SWAP2 POP POP RETURNDATASIZE DUP1 PUSH1 0x0 DUP2 EQ PUSH2 0x17F JUMPI PUSH1 0x40 MLOAD SWAP2 POP PUSH1 0x1F NOT PUSH1 0x3F RETURNDATASIZE ADD AND DUP3 ADD PUSH1 0x40 MSTORE RETURNDATASIZE DUP3 MSTORE RETURNDATASIZE PUSH1 0x0 PUSH1 0x20 DUP5 ADD RETURNDATACOPY PUSH2 0x184 JUMP JUMPDEST PUSH1 0x60 SWAP2 POP JUMPDEST POP SWAP2 POP SWAP2 POP DUP2 PUSH2 0x1C9 JUMPI PUSH1 0x40 MLOAD PUSH32 0x8C379A000000000000000000000000000000000000000000000000000000000 DUP2 MSTORE PUSH1 0x4 ADD PUSH2 0x1C0 SWAP1 PUSH2 0x579 JUMP JUMPDEST PUSH1 0x40 MLOAD DUP1 SWAP2 SUB SWAP1 REVERT JUMPDEST PUSH1 0x0 DUP2 DUP1 PUSH1 0x20 ADD SWAP1 MLOAD DUP2 ADD SWAP1 PUSH2 0x1DF SWAP2 SWAP1 PUSH2 0x3D9 JUMP JUMPDEST SWAP1 POP DUP3 DUP2 SWAP5 POP SWAP5 POP POP POP POP SWAP4 POP SWAP4 SWAP2 POP POP JUMP JUMPDEST PUSH1 0x0 DUP2 PUSH20 0xFFFFFFFFFFFFFFFFFFFFFFFFFFFFFFFFFFFFFFFF AND CALLVALUE PUSH1 0x40 MLOAD PUSH2 0x218 SWAP1 PUSH2 0x53B JUMP JUMPDEST PUSH1 0x0 PUSH1 0x40 MLOAD DUP1 DUP4 SUB DUP2 DUP6 DUP8 GAS CALL SWAP3 POP POP POP RETURNDATASIZE DUP1 PUSH1 0x0 DUP2 EQ PUSH2 0x255 JUMPI PUSH1 0x40 MLOAD SWAP2 POP PUSH1 0x1F NOT PUSH1 0x3F RETURNDATASIZE ADD AND DUP3 ADD PUSH1 0x40 MSTORE RETURNDATASIZE DUP3 MSTORE RETURNDATASIZE PUSH1 0x0 PUSH1 0x20 DUP5 ADD RETURNDATACOPY PUSH2 0x25A JUMP JUMPDEST PUSH1 0x60 SWAP2 POP JUMPDEST POP POP SWAP1 POP DUP1 PUSH2 0x29E JUMPI PUSH1 0x40 MLOAD PUSH32 0x8C379A000000000000000000000000000000000000000000000000000000000 DUP2 MSTORE PUSH1 0x4 ADD PUSH2 0x295 SWAP1 PUSH2 0x599 JUMP JUMPDEST PUSH1 0x40 MLOAD DUP1 SWAP2 SUB SWAP1 REVERT JUMPDEST POP POP JUMP JUMPDEST PUSH1 0x0 PUSH2 0x2B5 PUSH2 0x2B0 DUP5 PUSH2 0x61A JUMP JUMPDEST PUSH2 0x5E9 JUMP JUMPDEST SWAP1 POP DUP3 DUP2 MSTORE PUSH1 0x20 DUP2 ADD DUP5 DUP5 DUP5 ADD GT ISZERO PUSH2 0x2CD JUMPI PUSH1 0x0 DUP1 REVERT JUMPDEST PUSH2 0x2D8 DUP5 DUP3 DUP6 PUSH2 0x6C4 JUMP JUMPDEST POP SWAP4 SWAP3 POP POP POP JUMP JUMPDEST PUSH1 0x0 DUP2 CALLDATALOAD SWAP1 POP PUSH2 0x2EF DUP2 PUSH2 0x746 JUMP JUMPDEST SWAP3 SWAP2 POP POP JUMP JUMPDEST PUSH1 0x0 DUP3 PUSH1 0x1F DUP4 ADD SLT PUSH2 0x306 JUMPI PUSH1 0x0 DUP1 REVERT JUMPDEST DUP2 CALLDATALOAD PUSH2 0x316 DUP5 DUP3 PUSH1 0x20 DUP7 ADD PUSH2 0x2A2 JUMP JUMPDEST SWAP2 POP POP SWAP3 SWAP2 POP POP JUMP JUMPDEST PUSH1 0x0 DUP2 CALLDATALOAD SWAP1 POP PUSH2 0x32E DUP2 PUSH2 0x75D JUMP JUMPDEST SWAP3 SWAP2 POP POP JUMP JUMPDEST PUSH1 0x0 DUP2 MLOAD SWAP1 POP PUSH2 0x343 DUP2 PUSH2 0x75D JUMP JUMPDEST SWAP3 SWAP2 POP POP JUMP JUMPDEST PUSH1 0x0 PUSH1 0x20 DUP3 DUP5 SUB SLT ISZERO PUSH2 0x35B JUMPI PUSH1 0x0 DUP1 REVERT JUMPDEST PUSH1 0x0 PUSH2 0x369 DUP5 DUP3 DUP6 ADD PUSH2 0x2E0 JUMP JUMPDEST SWAP2 POP POP SWAP3 SWAP2 POP POP JUMP JUMPDEST PUSH1 0x0 DUP1 PUSH1 0x0 PUSH1 0x60 DUP5 DUP7 SUB SLT ISZERO PUSH2 0x387 JUMPI PUSH1 0x0 DUP1 REVERT JUMPDEST PUSH1 0x0 PUSH2 0x395 DUP7 DUP3 DUP8 ADD PUSH2 0x2E0 JUMP JUMPDEST SWAP4 POP POP PUSH1 0x20 PUSH2 0x3A6 DUP7 DUP3 DUP8 ADD PUSH2 0x31F JUMP JUMPDEST SWAP3 POP POP PUSH1 0x40 DUP5 ADD CALLDATALOAD PUSH8 0xFFFFFFFFFFFFFFFF DUP2 GT ISZERO PUSH2 0x3C3 JUMPI PUSH1 0x0 DUP1 REVERT JUMPDEST PUSH2 0x3CF DUP7 DUP3 DUP8 ADD PUSH2 0x2F5 JUMP JUMPDEST SWAP2 POP POP SWAP3 POP SWAP3 POP SWAP3 JUMP JUMPDEST PUSH1 0x0 PUSH1 0x20 DUP3 DUP5 SUB SLT ISZERO PUSH2 0x3EB JUMPI PUSH1 0x0 DUP1 REVERT JUMPDEST PUSH1 0x0 PUSH2 0x3F9 DUP5 DUP3 DUP6 ADD PUSH2 0x334 JUMP JUMPDEST SWAP2 POP POP SWAP3 SWAP2 POP POP JUMP JUMPDEST PUSH2 0x40B DUP2 PUSH2 0x68E JUMP JUMPDEST DUP3 MSTORE POP POP JUMP JUMPDEST PUSH1 0x0 PUSH2 0x41C DUP3 PUSH2 0x64A JUMP JUMPDEST PUSH2 0x426 DUP2 DUP6 PUSH2 0x660 JUMP JUMPDEST SWAP4 POP PUSH2 0x436 DUP2 DUP6 PUSH1 0x20 DUP7 ADD PUSH2 0x6D3 JUMP JUMPDEST DUP1 DUP5 ADD SWAP2 POP POP SWAP3 SWAP2 POP POP JUMP JUMPDEST PUSH1 0x0 PUSH2 0x44D DUP3 PUSH2 0x655 JUMP JUMPDEST PUSH2 0x457 DUP2 DUP6 PUSH2 0x66B JUMP JUMPDEST SWAP4 POP PUSH2 0x467 DUP2 DUP6 PUSH1 0x20 DUP7 ADD PUSH2 0x6D3 JUMP JUMPDEST PUSH2 0x470 DUP2 PUSH2 0x735 JUMP JUMPDEST DUP5 ADD SWAP2 POP POP SWAP3 SWAP2 POP POP JUMP JUMPDEST PUSH1 0x0 PUSH2 0x488 PUSH1 0x14 DUP4 PUSH2 0x66B JUMP JUMPDEST SWAP2 POP PUSH32 0x46756E6374696F6E2063616C6C206661696C6564000000000000000000000000 PUSH1 0x0 DUP4 ADD MSTORE PUSH1 0x20 DUP3 ADD SWAP1 POP SWAP2 SWAP1 POP JUMP JUMPDEST PUSH1 0x0 PUSH2 0x4C8 PUSH1 0x14 DUP4 PUSH2 0x66B JUMP JUMPDEST SWAP2 POP PUSH32 0x46616C6C6261636B2063616C6C206661696C6564000000000000000000000000 PUSH1 0x0 DUP4 ADD MSTORE PUSH1 0x20 DUP3 ADD SWAP1 POP SWAP2 SWAP1 POP JUMP JUMPDEST PUSH1 0x0 PUSH2 0x508 PUSH1 0x0 DUP4 PUSH2 0x660 JUMP JUMPDEST SWAP2 POP PUSH1 0x0 DUP3 ADD SWAP1 POP SWAP2 SWAP1 POP JUMP JUMPDEST PUSH2 0x51E DUP2 PUSH2 0x6BA JUMP JUMPDEST DUP3 MSTORE POP POP JUMP JUMPDEST PUSH1 0x0 PUSH2 0x530 DUP3 DUP5 PUSH2 0x411 JUMP JUMPDEST SWAP2 POP DUP2 SWAP1 POP SWAP3 SWAP2 POP POP JUMP JUMPDEST PUSH1 0x0 PUSH2 0x546 DUP3 PUSH2 0x4FB JUMP JUMPDEST SWAP2 POP DUP2 SWAP1 POP SWAP2 SWAP1 POP JUMP JUMPDEST PUSH1 0x0 PUSH1 0x40 DUP3 ADD SWAP1 POP PUSH2 0x565 PUSH1 0x0 DUP4 ADD DUP6 PUSH2 0x402 JUMP JUMPDEST PUSH2 0x572 PUSH1 0x20 DUP4 ADD DUP5 PUSH2 0x515 JUMP JUMPDEST SWAP4 SWAP3 POP POP POP JUMP JUMPDEST PUSH1 0x0 PUSH1 0x20 DUP3 ADD SWAP1 POP DUP2 DUP2 SUB PUSH1 0x0 DUP4 ADD MSTORE PUSH2 0x592 DUP2 PUSH2 0x47B JUMP JUMPDEST SWAP1 POP SWAP2 SWAP1 POP JUMP JUMPDEST PUSH1 0x0 PUSH1 0x20 DUP3 ADD SWAP1 POP DUP2 DUP2 SUB PUSH1 0x0 DUP4 ADD MSTORE PUSH2 0x5B2 DUP2 PUSH2 0x4BB JUMP JUMPDEST SWAP1 POP SWAP2 SWAP1 POP JUMP JUMPDEST PUSH1 0x0 PUSH1 0x40 DUP3 ADD SWAP1 POP PUSH2 0x5CE PUSH1 0x0 DUP4 ADD DUP6 PUSH2 0x515 JUMP JUMPDEST DUP2 DUP2 SUB PUSH1 0x20 DUP4 ADD MSTORE PUSH2 0x5E0 DUP2 DUP5 PUSH2 0x442 JUMP JUMPDEST SWAP1 POP SWAP4 SWAP3 POP POP POP JUMP JUMPDEST PUSH1 0x0 PUSH1 0x40 MLOAD SWAP1 POP DUP2 DUP2 ADD DUP2 DUP2 LT PUSH8 0xFFFFFFFFFFFFFFFF DUP3 GT OR ISZERO PUSH2 0x610 JUMPI PUSH2 0x60F PUSH2 0x706 JUMP JUMPDEST JUMPDEST DUP1 PUSH1 0x40 MSTORE POP SWAP2 SWAP1 POP JUMP JUMPDEST PUSH1 0x0 PUSH8 0xFFFFFFFFFFFFFFFF DUP3 GT ISZERO PUSH2 0x635 JUMPI PUSH2 0x634 PUSH2 0x706 JUMP JUMPDEST JUMPDEST PUSH1 0x1F NOT PUSH1 0x1F DUP4 ADD AND SWAP1 POP PUSH1 0x20 DUP2 ADD SWAP1 POP SWAP2 SWAP1 POP JUMP JUMPDEST PUSH1 0x0 DUP2 MLOAD SWAP1 POP SWAP2 SWAP1 POP JUMP JUMPDEST PUSH1 0x0 DUP2 MLOAD SWAP1 POP SWAP2 SWAP1 POP JUMP JUMPDEST PUSH1 0x0 DUP2 SWAP1 POP SWAP3 SWAP2 POP POP JUMP JUMPDEST PUSH1 0x0 DUP3 DUP3 MSTORE PUSH1 0x20 DUP3 ADD SWAP1 POP SWAP3 SWAP2 POP POP JUMP JUMPDEST PUSH1 0x0 PUSH2 0x687 DUP3 PUSH2 0x69A JUMP JUMPDEST SWAP1 POP SWAP2 SWAP1 POP JUMP JUMPDEST PUSH1 0x0 DUP2 ISZERO ISZERO SWAP1 POP SWAP2 SWAP1 POP JUMP JUMPDEST PUSH1 0x0 PUSH20 0xFFFFFFFFFFFFFFFFFFFFFFFFFFFFFFFFFFFFFFFF DUP3 AND SWAP1 POP SWAP2 SWAP1 POP JUMP JUMPDEST PUSH1 0x0 DUP2 SWAP1 POP SWAP2 SWAP1 POP JUMP JUMPDEST DUP3 DUP2 DUP4 CALLDATACOPY PUSH1 0x0 DUP4 DUP4 ADD MSTORE POP POP POP JUMP JUMPDEST PUSH1 0x0 JUMPDEST DUP4 DUP2 LT ISZERO PUSH2 0x6F1 JUMPI DUP1 DUP3 ADD MLOAD DUP2 DUP5 ADD MSTORE PUSH1 0x20 DUP2 ADD SWAP1 POP PUSH2 0x6D6 JUMP JUMPDEST DUP4 DUP2 GT ISZERO PUSH2 0x700 JUMPI PUSH1 0x0 DUP5 DUP5 ADD MSTORE JUMPDEST POP POP POP POP JUMP JUMPDEST PUSH32 0x4E487B7100000000000000000000000000000000000000000000000000000000 PUSH1 0x0 MSTORE PUSH1 0x41 PUSH1 0x4 MSTORE PUSH1 0x24 PUSH1 0x0 REVERT JUMPDEST PUSH1 0x0 PUSH1 0x1F NOT PUSH1 0x1F DUP4 ADD AND SWAP1 POP SWAP2 SWAP1 POP JUMP JUMPDEST PUSH2 0x74F DUP2 PUSH2 0x67C JUMP JUMPDEST DUP2 EQ PUSH2 0x75A JUMPI PUSH1 0x0 DUP1 REVERT JUMPDEST POP JUMP JUMPDEST PUSH2 0x766 DUP2 PUSH2 0x6BA JUMP JUMPDEST DUP2 EQ PUSH2 0x771 JUMPI PUSH1 0x0 DUP1 REVERT JUMPDEST POP JUMP INVALID LOG2 PUSH5 0x6970667358 0x22 SLT KECCAK256 0xE1 0xF AND PUSH27 0x5DA3A6DF37B4A89DC42574ADD9C9D0C2BE96A6EAE4163C3A8E06E 0xE9 PUSH5 0x736F6C6343 STOP ADDMOD STOP STOP CALLER "
				},
				"gasEstimates": {
					"creation": {
						"codeDepositCost": "392400",
						"executionCost": "430",
						"totalCost": "392830"
					},
					"external": {
						"payToFallback(address)": "infinite",
						"testCall(address,uint256,string)": "infinite"
					}
				},
				"methodIdentifiers": {
					"payToFallback(address)": "9e4c4905",
					"testCall(address,uint256,string)": "13dcb81b"
				}
			},
			"storageLayout": {
				"storage": [],
				"types": null
			},
			"userdoc": {
				"kind": "user",
				"methods": {},
				"version": 1
			}
		}
	}
}