{
	"data": {
		"bytecode": {
			"linkReferences": {
				"contracts/Libraries.sol": {
					"Human": [
						{
							"length": 20,
							"start": 1135
						},
						{
							"length": 20,
							"start": 1789
						}
					],
					"Math": [
						{
							"length": 20,
							"start": 615
						},
						{
							"length": 20,
							"start": 745
						},
						{
							"length": 20,
							"start": 875
						},
						{
							"length": 20,
							"start": 1403
						},
						{
							"length": 20,
							"start": 1532
						},
						{
							"length": 20,
							"start": 1661
						}
					],
					"Search": [
						{
							"length": 20,
							"start": 1005
						},
						{
							"length": 20,
							"start": 1274
						}
					]
				}
			},
			"object": "6080604052348015600e575f80fd5b50610b578061001c5f395ff3fe608060405234801561000f575f80fd5b506004361061009c575f3560e01c8063d5dde0aa11610064578063d5dde0aa1461017e578063df6b93ec146101ae578063e72e4d49146101de578063f34b178d1461020e578063fb0b22f71461023e5761009c565b806354b503b4146100a05780639aa2005f146100d0578063b96a0d5214610100578063cc4ea1d514610130578063cc80f6f314610160575b5f80fd5b6100ba60048036038101906100b59190610797565b610248565b6040516100c791906107e4565b60405180910390f35b6100ea60048036038101906100e59190610797565b6102c9565b6040516100f791906107e4565b60405180910390f35b61011a60048036038101906101159190610797565b61034c565b60405161012791906107e4565b60405180910390f35b61014a6004803603810190610145919061094d565b6103cd565b60405161015791906107e4565b60405180910390f35b610168610450565b60405161017591906107e4565b60405180910390f35b6101986004803603810190610193919061094d565b6104db565b6040516101a591906107e4565b60405180910390f35b6101c860048036038101906101c39190610797565b61055c565b6040516101d591906107e4565b60405180910390f35b6101f860048036038101906101f39190610797565b6105dd565b60405161020591906107e4565b60405180910390f35b61022860048036038101906102239190610797565b61065e565b60405161023591906107e4565b60405180910390f35b6102466106df565b005b5f73__$9d079034a0142b8ddbce7df8361c075de8$__635171762c84846040518363ffffffff1660e01b81526004016102829291906109b6565b602060405180830381865af415801561029d573d5f803e3d5ffd5b505050506040513d601f19601f820116820180604052508101906102c191906109f1565b905092915050565b5f8273__$9d079034a0142b8ddbce7df8361c075de8$__63f4f3bdc19091846040518363ffffffff1660e01b81526004016103059291906109b6565b602060405180830381865af4158015610320573d5f803e3d5ffd5b505050506040513d601f19601f8201168201806040525081019061034491906109f1565b905092915050565b5f73__$9d079034a0142b8ddbce7df8361c075de8$__6366098d4f84846040518363ffffffff1660e01b81526004016103869291906109b6565b602060405180830381865af41580156103a1573d5f803e3d5ffd5b505050506040513d601f19601f820116820180604052508101906103c591906109f1565b905092915050565b5f8273__$f1df6de2c341a331f25fb2b2acad8dfe03$__636457237b9091846040518363ffffffff1660e01b8152600401610409929190610ad3565b602060405180830381865af4158015610424573d5f803e3d5ffd5b505050506040513d601f19601f8201168201806040525081019061044891906109f1565b905092915050565b5f73__$ab0de3c9f2d6706eb8d2979831382b3434$__6390ba13bd5f808081526020019081526020015f206040518263ffffffff1660e01b81526004016104979190610b08565b602060405180830381865af41580156104b2573d5f803e3d5ffd5b505050506040513d601f19601f820116820180604052508101906104d691906109f1565b905090565b5f73__$f1df6de2c341a331f25fb2b2acad8dfe03$__636457237b84846040518363ffffffff1660e01b8152600401610515929190610ad3565b602060405180830381865af4158015610530573d5f803e3d5ffd5b505050506040513d601f19601f8201168201806040525081019061055491906109f1565b905092915050565b5f73__$9d079034a0142b8ddbce7df8361c075de8$__636d5433e684846040518363ffffffff1660e01b81526004016105969291906109b6565b602060405180830381865af41580156105b1573d5f803e3d5ffd5b505050506040513d601f19601f820116820180604052508101906105d591906109f1565b905092915050565b5f73__$9d079034a0142b8ddbce7df8361c075de8$__63f88e9fbf84846040518363ffffffff1660e01b81526004016106179291906109b6565b602060405180830381865af4158015610632573d5f803e3d5ffd5b505050506040513d601f19601f8201168201806040525081019061065691906109f1565b905092915050565b5f73__$9d079034a0142b8ddbce7df8361c075de8$__637ae2b5c784846040518363ffffffff1660e01b81526004016106989291906109b6565b602060405180830381865af41580156106b3573d5f803e3d5ffd5b505050506040513d601f19601f820116820180604052508101906106d791906109f1565b905092915050565b73__$ab0de3c9f2d6706eb8d2979831382b3434$__6316d76d215f808081526020019081526020015f206040518263ffffffff1660e01b81526004016107259190610b08565b5f6040518083038186803b15801561073b575f80fd5b505af415801561074d573d5f803e3d5ffd5b50505050565b5f604051905090565b5f80fd5b5f80fd5b5f819050919050565b61077681610764565b8114610780575f80fd5b50565b5f813590506107918161076d565b92915050565b5f80604083850312156107ad576107ac61075c565b5b5f6107ba85828601610783565b92505060206107cb85828601610783565b9150509250929050565b6107de81610764565b82525050565b5f6020820190506107f75f8301846107d5565b92915050565b5f80fd5b5f601f19601f8301169050919050565b7f4e487b71000000000000000000000000000000000000000000000000000000005f52604160045260245ffd5b61084782610801565b810181811067ffffffffffffffff8211171561086657610865610811565b5b80604052505050565b5f610878610753565b9050610884828261083e565b919050565b5f67ffffffffffffffff8211156108a3576108a2610811565b5b602082029050602081019050919050565b5f80fd5b5f6108ca6108c584610889565b61086f565b905080838252602082019050602084028301858111156108ed576108ec6108b4565b5b835b8181101561091657806109028882610783565b8452602084019350506020810190506108ef565b5050509392505050565b5f82601f830112610934576109336107fd565b5b81356109448482602086016108b8565b91505092915050565b5f80604083850312156109635761096261075c565b5b5f83013567ffffffffffffffff8111156109805761097f610760565b5b61098c85828601610920565b925050602061099d85828601610783565b9150509250929050565b6109b081610764565b82525050565b5f6040820190506109c95f8301856109a7565b6109d660208301846109a7565b9392505050565b5f815190506109eb8161076d565b92915050565b5f60208284031215610a0657610a0561075c565b5b5f610a13848285016109dd565b91505092915050565b5f81519050919050565b5f82825260208201905092915050565b5f819050602082019050919050565b610a4e81610764565b82525050565b5f610a5f8383610a45565b60208301905092915050565b5f602082019050919050565b5f610a8182610a1c565b610a8b8185610a26565b9350610a9683610a36565b805f5b83811015610ac6578151610aad8882610a54565b9750610ab883610a6b565b925050600181019050610a99565b5085935050505092915050565b5f6040820190508181035f830152610aeb8185610a77565b9050610afa60208301846109a7565b9392505050565b8082525050565b5f602082019050610b1b5f830184610b01565b9291505056fea26469706673582212203e20488231520b0b2bf3df70d6d4a02b3fbbd261bbbdb29fd836c1655da4fff864736f6c634300081a0033",
			"opcodes": "PUSH1 0x80 PUSH1 0x40 MSTORE CALLVALUE DUP1 ISZERO PUSH1 0xE JUMPI PUSH0 DUP1 REVERT JUMPDEST POP PUSH2 0xB57 DUP1 PUSH2 0x1C PUSH0 CODECOPY PUSH0 RETURN INVALID PUSH1 0x80 PUSH1 0x40 MSTORE CALLVALUE DUP1 ISZERO PUSH2 0xF JUMPI PUSH0 DUP1 REVERT JUMPDEST POP PUSH1 0x4 CALLDATASIZE LT PUSH2 0x9C JUMPI PUSH0 CALLDATALOAD PUSH1 0xE0 SHR DUP1 PUSH4 0xD5DDE0AA GT PUSH2 0x64 JUMPI DUP1 PUSH4 0xD5DDE0AA EQ PUSH2 0x17E JUMPI DUP1 PUSH4 0xDF6B93EC EQ PUSH2 0x1AE JUMPI DUP1 PUSH4 0xE72E4D49 EQ PUSH2 0x1DE JUMPI DUP1 PUSH4 0xF34B178D EQ PUSH2 0x20E JUMPI DUP1 PUSH4 0xFB0B22F7 EQ PUSH2 0x23E JUMPI PUSH2 0x9C JUMP JUMPDEST DUP1 PUSH4 0x54B503B4 EQ PUSH2 0xA0 JUMPI DUP1 PUSH4 0x9AA2005F EQ PUSH2 0xD0 JUMPI DUP1 PUSH4 0xB96A0D52 EQ PUSH2 0x100 JUMPI DUP1 PUSH4 0xCC4EA1D5 EQ PUSH2 0x130 JUMPI DUP1 PUSH4 0xCC80F6F3 EQ PUSH2 0x160 JUMPI JUMPDEST PUSH0 DUP1 REVERT JUMPDEST PUSH2 0xBA PUSH1 0x4 DUP1 CALLDATASIZE SUB DUP2 ADD SWAP1 PUSH2 0xB5 SWAP2 SWAP1 PUSH2 0x797 JUMP JUMPDEST PUSH2 0x248 JUMP JUMPDEST PUSH1 0x40 MLOAD PUSH2 0xC7 SWAP2 SWAP1 PUSH2 0x7E4 JUMP JUMPDEST PUSH1 0x40 MLOAD DUP1 SWAP2 SUB SWAP1 RETURN JUMPDEST PUSH2 0xEA PUSH1 0x4 DUP1 CALLDATASIZE SUB DUP2 ADD SWAP1 PUSH2 0xE5 SWAP2 SWAP1 PUSH2 0x797 JUMP JUMPDEST PUSH2 0x2C9 JUMP JUMPDEST PUSH1 0x40 MLOAD PUSH2 0xF7 SWAP2 SWAP1 PUSH2 0x7E4 JUMP JUMPDEST PUSH1 0x40 MLOAD DUP1 SWAP2 SUB SWAP1 RETURN JUMPDEST PUSH2 0x11A PUSH1 0x4 DUP1 CALLDATASIZE SUB DUP2 ADD SWAP1 PUSH2 0x115 SWAP2 SWAP1 PUSH2 0x797 JUMP JUMPDEST PUSH2 0x34C JUMP JUMPDEST PUSH1 0x40 MLOAD PUSH2 0x127 SWAP2 SWAP1 PUSH2 0x7E4 JUMP JUMPDEST PUSH1 0x40 MLOAD DUP1 SWAP2 SUB SWAP1 RETURN JUMPDEST PUSH2 0x14A PUSH1 0x4 DUP1 CALLDATASIZE SUB DUP2 ADD SWAP1 PUSH2 0x145 SWAP2 SWAP1 PUSH2 0x94D JUMP JUMPDEST PUSH2 0x3CD JUMP JUMPDEST PUSH1 0x40 MLOAD PUSH2 0x157 SWAP2 SWAP1 PUSH2 0x7E4 JUMP JUMPDEST PUSH1 0x40 MLOAD DUP1 SWAP2 SUB SWAP1 RETURN JUMPDEST PUSH2 0x168 PUSH2 0x450 JUMP JUMPDEST PUSH1 0x40 MLOAD PUSH2 0x175 SWAP2 SWAP1 PUSH2 0x7E4 JUMP JUMPDEST PUSH1 0x40 MLOAD DUP1 SWAP2 SUB SWAP1 RETURN JUMPDEST PUSH2 0x198 PUSH1 0x4 DUP1 CALLDATASIZE SUB DUP2 ADD SWAP1 PUSH2 0x193 SWAP2 SWAP1 PUSH2 0x94D JUMP JUMPDEST PUSH2 0x4DB JUMP JUMPDEST PUSH1 0x40 MLOAD PUSH2 0x1A5 SWAP2 SWAP1 PUSH2 0x7E4 JUMP JUMPDEST PUSH1 0x40 MLOAD DUP1 SWAP2 SUB SWAP1 RETURN JUMPDEST PUSH2 0x1C8 PUSH1 0x4 DUP1 CALLDATASIZE SUB DUP2 ADD SWAP1 PUSH2 0x1C3 SWAP2 SWAP1 PUSH2 0x797 JUMP JUMPDEST PUSH2 0x55C JUMP JUMPDEST PUSH1 0x40 MLOAD PUSH2 0x1D5 SWAP2 SWAP1 PUSH2 0x7E4 JUMP JUMPDEST PUSH1 0x40 MLOAD DUP1 SWAP2 SUB SWAP1 RETURN JUMPDEST PUSH2 0x1F8 PUSH1 0x4 DUP1 CALLDATASIZE SUB DUP2 ADD SWAP1 PUSH2 0x1F3 SWAP2 SWAP1 PUSH2 0x797 JUMP JUMPDEST PUSH2 0x5DD JUMP JUMPDEST PUSH1 0x40 MLOAD PUSH2 0x205 SWAP2 SWAP1 PUSH2 0x7E4 JUMP JUMPDEST PUSH1 0x40 MLOAD DUP1 SWAP2 SUB SWAP1 RETURN JUMPDEST PUSH2 0x228 PUSH1 0x4 DUP1 CALLDATASIZE SUB DUP2 ADD SWAP1 PUSH2 0x223 SWAP2 SWAP1 PUSH2 0x797 JUMP JUMPDEST PUSH2 0x65E JUMP JUMPDEST PUSH1 0x40 MLOAD PUSH2 0x235 SWAP2 SWAP1 PUSH2 0x7E4 JUMP JUMPDEST PUSH1 0x40 MLOAD DUP1 SWAP2 SUB SWAP1 RETURN JUMPDEST PUSH2 0x246 PUSH2 0x6DF JUMP JUMPDEST STOP JUMPDEST PUSH0 PUSH20 0x0 PUSH4 0x5171762C DUP5 DUP5 PUSH1 0x40 MLOAD DUP4 PUSH4 0xFFFFFFFF AND PUSH1 0xE0 SHL DUP2 MSTORE PUSH1 0x4 ADD PUSH2 0x282 SWAP3 SWAP2 SWAP1 PUSH2 0x9B6 JUMP JUMPDEST PUSH1 0x20 PUSH1 0x40 MLOAD DUP1 DUP4 SUB DUP2 DUP7 GAS DELEGATECALL ISZERO DUP1 ISZERO PUSH2 0x29D JUMPI RETURNDATASIZE PUSH0 DUP1 RETURNDATACOPY RETURNDATASIZE PUSH0 REVERT JUMPDEST POP POP POP POP PUSH1 0x40 MLOAD RETURNDATASIZE PUSH1 0x1F NOT PUSH1 0x1F DUP3 ADD AND DUP3 ADD DUP1 PUSH1 0x40 MSTORE POP DUP2 ADD SWAP1 PUSH2 0x2C1 SWAP2 SWAP1 PUSH2 0x9F1 JUMP JUMPDEST SWAP1 POP SWAP3 SWAP2 POP POP JUMP JUMPDEST PUSH0 DUP3 PUSH20 0x0 PUSH4 0xF4F3BDC1 SWAP1 SWAP2 DUP5 PUSH1 0x40 MLOAD DUP4 PUSH4 0xFFFFFFFF AND PUSH1 0xE0 SHL DUP2 MSTORE PUSH1 0x4 ADD PUSH2 0x305 SWAP3 SWAP2 SWAP1 PUSH2 0x9B6 JUMP JUMPDEST PUSH1 0x20 PUSH1 0x40 MLOAD DUP1 DUP4 SUB DUP2 DUP7 GAS DELEGATECALL ISZERO DUP1 ISZERO PUSH2 0x320 JUMPI RETURNDATASIZE PUSH0 DUP1 RETURNDATACOPY RETURNDATASIZE PUSH0 REVERT JUMPDEST POP POP POP POP PUSH1 0x40 MLOAD RETURNDATASIZE PUSH1 0x1F NOT PUSH1 0x1F DUP3 ADD AND DUP3 ADD DUP1 PUSH1 0x40 MSTORE POP DUP2 ADD SWAP1 PUSH2 0x344 SWAP2 SWAP1 PUSH2 0x9F1 JUMP JUMPDEST SWAP1 POP SWAP3 SWAP2 POP POP JUMP JUMPDEST PUSH0 PUSH20 0x0 PUSH4 0x66098D4F DUP5 DUP5 PUSH1 0x40 MLOAD DUP4 PUSH4 0xFFFFFFFF AND PUSH1 0xE0 SHL DUP2 MSTORE PUSH1 0x4 ADD PUSH2 0x386 SWAP3 SWAP2 SWAP1 PUSH2 0x9B6 JUMP JUMPDEST PUSH1 0x20 PUSH1 0x40 MLOAD DUP1 DUP4 SUB DUP2 DUP7 GAS DELEGATECALL ISZERO DUP1 ISZERO PUSH2 0x3A1 JUMPI RETURNDATASIZE PUSH0 DUP1 RETURNDATACOPY RETURNDATASIZE PUSH0 REVERT JUMPDEST POP POP POP POP PUSH1 0x40 MLOAD RETURNDATASIZE PUSH1 0x1F NOT PUSH1 0x1F DUP3 ADD AND DUP3 ADD DUP1 PUSH1 0x40 MSTORE POP DUP2 ADD SWAP1 PUSH2 0x3C5 SWAP2 SWAP1 PUSH2 0x9F1 JUMP JUMPDEST SWAP1 POP SWAP3 SWAP2 POP POP JUMP JUMPDEST PUSH0 DUP3 PUSH20 0x0 PUSH4 0x6457237B SWAP1 SWAP2 DUP5 PUSH1 0x40 MLOAD DUP4 PUSH4 0xFFFFFFFF AND PUSH1 0xE0 SHL DUP2 MSTORE PUSH1 0x4 ADD PUSH2 0x409 SWAP3 SWAP2 SWAP1 PUSH2 0xAD3 JUMP JUMPDEST PUSH1 0x20 PUSH1 0x40 MLOAD DUP1 DUP4 SUB DUP2 DUP7 GAS DELEGATECALL ISZERO DUP1 ISZERO PUSH2 0x424 JUMPI RETURNDATASIZE PUSH0 DUP1 RETURNDATACOPY RETURNDATASIZE PUSH0 REVERT JUMPDEST POP POP POP POP PUSH1 0x40 MLOAD RETURNDATASIZE PUSH1 0x1F NOT PUSH1 0x1F DUP3 ADD AND DUP3 ADD DUP1 PUSH1 0x40 MSTORE POP DUP2 ADD SWAP1 PUSH2 0x448 SWAP2 SWAP1 PUSH2 0x9F1 JUMP JUMPDEST SWAP1 POP SWAP3 SWAP2 POP POP JUMP JUMPDEST PUSH0 PUSH20 0x0 PUSH4 0x90BA13BD PUSH0 DUP1 DUP1 DUP2 MSTORE PUSH1 0x20 ADD SWAP1 DUP2 MSTORE PUSH1 0x20 ADD PUSH0 KECCAK256 PUSH1 0x40 MLOAD DUP3 PUSH4 0xFFFFFFFF AND PUSH1 0xE0 SHL DUP2 MSTORE PUSH1 0x4 ADD PUSH2 0x497 SWAP2 SWAP1 PUSH2 0xB08 JUMP JUMPDEST PUSH1 0x20 PUSH1 0x40 MLOAD DUP1 DUP4 SUB DUP2 DUP7 GAS DELEGATECALL ISZERO DUP1 ISZERO PUSH2 0x4B2 JUMPI RETURNDATASIZE PUSH0 DUP1 RETURNDATACOPY RETURNDATASIZE PUSH0 REVERT JUMPDEST POP POP POP POP PUSH1 0x40 MLOAD RETURNDATASIZE PUSH1 0x1F NOT PUSH1 0x1F DUP3 ADD AND DUP3 ADD DUP1 PUSH1 0x40 MSTORE POP DUP2 ADD SWAP1 PUSH2 0x4D6 SWAP2 SWAP1 PUSH2 0x9F1 JUMP JUMPDEST SWAP1 POP SWAP1 JUMP JUMPDEST PUSH0 PUSH20 0x0 PUSH4 0x6457237B DUP5 DUP5 PUSH1 0x40 MLOAD DUP4 PUSH4 0xFFFFFFFF AND PUSH1 0xE0 SHL DUP2 MSTORE PUSH1 0x4 ADD PUSH2 0x515 SWAP3 SWAP2 SWAP1 PUSH2 0xAD3 JUMP JUMPDEST PUSH1 0x20 PUSH1 0x40 MLOAD DUP1 DUP4 SUB DUP2 DUP7 GAS DELEGATECALL ISZERO DUP1 ISZERO PUSH2 0x530 JUMPI RETURNDATASIZE PUSH0 DUP1 RETURNDATACOPY RETURNDATASIZE PUSH0 REVERT JUMPDEST POP POP POP POP PUSH1 0x40 MLOAD RETURNDATASIZE PUSH1 0x1F NOT PUSH1 0x1F DUP3 ADD AND DUP3 ADD DUP1 PUSH1 0x40 MSTORE POP DUP2 ADD SWAP1 PUSH2 0x554 SWAP2 SWAP1 PUSH2 0x9F1 JUMP JUMPDEST SWAP1 POP SWAP3 SWAP2 POP POP JUMP JUMPDEST PUSH0 PUSH20 0x0 PUSH4 0x6D5433E6 DUP5 DUP5 PUSH1 0x40 MLOAD DUP4 PUSH4 0xFFFFFFFF AND PUSH1 0xE0 SHL DUP2 MSTORE PUSH1 0x4 ADD PUSH2 0x596 SWAP3 SWAP2 SWAP1 PUSH2 0x9B6 JUMP JUMPDEST PUSH1 0x20 PUSH1 0x40 MLOAD DUP1 DUP4 SUB DUP2 DUP7 GAS DELEGATECALL ISZERO DUP1 ISZERO PUSH2 0x5B1 JUMPI RETURNDATASIZE PUSH0 DUP1 RETURNDATACOPY RETURNDATASIZE PUSH0 REVERT JUMPDEST POP POP POP POP PUSH1 0x40 MLOAD RETURNDATASIZE PUSH1 0x1F NOT PUSH1 0x1F DUP3 ADD AND DUP3 ADD DUP1 PUSH1 0x40 MSTORE POP DUP2 ADD SWAP1 PUSH2 0x5D5 SWAP2 SWAP1 PUSH2 0x9F1 JUMP JUMPDEST SWAP1 POP SWAP3 SWAP2 POP POP JUMP JUMPDEST PUSH0 PUSH20 0x0 PUSH4 0xF88E9FBF DUP5 DUP5 PUSH1 0x40 MLOAD DUP4 PUSH4 0xFFFFFFFF AND PUSH1 0xE0 SHL DUP2 MSTORE PUSH1 0x4 ADD PUSH2 0x617 SWAP3 SWAP2 SWAP1 PUSH2 0x9B6 JUMP JUMPDEST PUSH1 0x20 PUSH1 0x40 MLOAD DUP1 DUP4 SUB DUP2 DUP7 GAS DELEGATECALL ISZERO DUP1 ISZERO PUSH2 0x632 JUMPI RETURNDATASIZE PUSH0 DUP1 RETURNDATACOPY RETURNDATASIZE PUSH0 REVERT JUMPDEST POP POP POP POP PUSH1 0x40 MLOAD RETURNDATASIZE PUSH1 0x1F NOT PUSH1 0x1F DUP3 ADD AND DUP3 ADD DUP1 PUSH1 0x40 MSTORE POP DUP2 ADD SWAP1 PUSH2 0x656 SWAP2 SWAP1 PUSH2 0x9F1 JUMP JUMPDEST SWAP1 POP SWAP3 SWAP2 POP POP JUMP JUMPDEST PUSH0 PUSH20 0x0 PUSH4 0x7AE2B5C7 DUP5 DUP5 PUSH1 0x40 MLOAD DUP4 PUSH4 0xFFFFFFFF AND PUSH1 0xE0 SHL DUP2 MSTORE PUSH1 0x4 ADD PUSH2 0x698 SWAP3 SWAP2 SWAP1 PUSH2 0x9B6 JUMP JUMPDEST PUSH1 0x20 PUSH1 0x40 MLOAD DUP1 DUP4 SUB DUP2 DUP7 GAS DELEGATECALL ISZERO DUP1 ISZERO PUSH2 0x6B3 JUMPI RETURNDATASIZE PUSH0 DUP1 RETURNDATACOPY RETURNDATASIZE PUSH0 REVERT JUMPDEST POP POP POP POP PUSH1 0x40 MLOAD RETURNDATASIZE PUSH1 0x1F NOT PUSH1 0x1F DUP3 ADD AND DUP3 ADD DUP1 PUSH1 0x40 MSTORE POP DUP2 ADD SWAP1 PUSH2 0x6D7 SWAP2 SWAP1 PUSH2 0x9F1 JUMP JUMPDEST SWAP1 POP SWAP3 SWAP2 POP POP JUMP JUMPDEST PUSH20 0x0 PUSH4 0x16D76D21 PUSH0 DUP1 DUP1 DUP2 MSTORE PUSH1 0x20 ADD SWAP1 DUP2 MSTORE PUSH1 0x20 ADD PUSH0 KECCAK256 PUSH1 0x40 MLOAD DUP3 PUSH4 0xFFFFFFFF AND PUSH1 0xE0 SHL DUP2 MSTORE PUSH1 0x4 ADD PUSH2 0x725 SWAP2 SWAP1 PUSH2 0xB08 JUMP JUMPDEST PUSH0 PUSH1 0x40 MLOAD DUP1 DUP4 SUB DUP2 DUP7 DUP1 EXTCODESIZE ISZERO DUP1 ISZERO PUSH2 0x73B JUMPI PUSH0 DUP1 REVERT JUMPDEST POP GAS DELEGATECALL ISZERO DUP1 ISZERO PUSH2 0x74D JUMPI RETURNDATASIZE PUSH0 DUP1 RETURNDATACOPY RETURNDATASIZE PUSH0 REVERT JUMPDEST POP POP POP POP JUMP JUMPDEST PUSH0 PUSH1 0x40 MLOAD SWAP1 POP SWAP1 JUMP JUMPDEST PUSH0 DUP1 REVERT JUMPDEST PUSH0 DUP1 REVERT JUMPDEST PUSH0 DUP2 SWAP1 POP SWAP2 SWAP1 POP JUMP JUMPDEST PUSH2 0x776 DUP2 PUSH2 0x764 JUMP JUMPDEST DUP2 EQ PUSH2 0x780 JUMPI PUSH0 DUP1 REVERT JUMPDEST POP JUMP JUMPDEST PUSH0 DUP2 CALLDATALOAD SWAP1 POP PUSH2 0x791 DUP2 PUSH2 0x76D JUMP JUMPDEST SWAP3 SWAP2 POP POP JUMP JUMPDEST PUSH0 DUP1 PUSH1 0x40 DUP4 DUP6 SUB SLT ISZERO PUSH2 0x7AD JUMPI PUSH2 0x7AC PUSH2 0x75C JUMP JUMPDEST JUMPDEST PUSH0 PUSH2 0x7BA DUP6 DUP3 DUP7 ADD PUSH2 0x783 JUMP JUMPDEST SWAP3 POP POP PUSH1 0x20 PUSH2 0x7CB DUP6 DUP3 DUP7 ADD PUSH2 0x783 JUMP JUMPDEST SWAP2 POP POP SWAP3 POP SWAP3 SWAP1 POP JUMP JUMPDEST PUSH2 0x7DE DUP2 PUSH2 0x764 JUMP JUMPDEST DUP3 MSTORE POP POP JUMP JUMPDEST PUSH0 PUSH1 0x20 DUP3 ADD SWAP1 POP PUSH2 0x7F7 PUSH0 DUP4 ADD DUP5 PUSH2 0x7D5 JUMP JUMPDEST SWAP3 SWAP2 POP POP JUMP JUMPDEST PUSH0 DUP1 REVERT JUMPDEST PUSH0 PUSH1 0x1F NOT PUSH1 0x1F DUP4 ADD AND SWAP1 POP SWAP2 SWAP1 POP JUMP JUMPDEST PUSH32 0x4E487B7100000000000000000000000000000000000000000000000000000000 PUSH0 MSTORE PUSH1 0x41 PUSH1 0x4 MSTORE PUSH1 0x24 PUSH0 REVERT JUMPDEST PUSH2 0x847 DUP3 PUSH2 0x801 JUMP JUMPDEST DUP2 ADD DUP2 DUP2 LT PUSH8 0xFFFFFFFFFFFFFFFF DUP3 GT OR ISZERO PUSH2 0x866 JUMPI PUSH2 0x865 PUSH2 0x811 JUMP JUMPDEST JUMPDEST DUP1 PUSH1 0x40 MSTORE POP POP POP JUMP JUMPDEST PUSH0 PUSH2 0x878 PUSH2 0x753 JUMP JUMPDEST SWAP1 POP PUSH2 0x884 DUP3 DUP3 PUSH2 0x83E JUMP JUMPDEST SWAP2 SWAP1 POP JUMP JUMPDEST PUSH0 PUSH8 0xFFFFFFFFFFFFFFFF DUP3 GT ISZERO PUSH2 0x8A3 JUMPI PUSH2 0x8A2 PUSH2 0x811 JUMP JUMPDEST JUMPDEST PUSH1 0x20 DUP3 MUL SWAP1 POP PUSH1 0x20 DUP2 ADD SWAP1 POP SWAP2 SWAP1 POP JUMP JUMPDEST PUSH0 DUP1 REVERT JUMPDEST PUSH0 PUSH2 0x8CA PUSH2 0x8C5 DUP5 PUSH2 0x889 JUMP JUMPDEST PUSH2 0x86F JUMP JUMPDEST SWAP1 POP DUP1 DUP4 DUP3 MSTORE PUSH1 0x20 DUP3 ADD SWAP1 POP PUSH1 0x20 DUP5 MUL DUP4 ADD DUP6 DUP2 GT ISZERO PUSH2 0x8ED JUMPI PUSH2 0x8EC PUSH2 0x8B4 JUMP JUMPDEST JUMPDEST DUP4 JUMPDEST DUP2 DUP2 LT ISZERO PUSH2 0x916 JUMPI DUP1 PUSH2 0x902 DUP9 DUP3 PUSH2 0x783 JUMP JUMPDEST DUP5 MSTORE PUSH1 0x20 DUP5 ADD SWAP4 POP POP PUSH1 0x20 DUP2 ADD SWAP1 POP PUSH2 0x8EF JUMP JUMPDEST POP POP POP SWAP4 SWAP3 POP POP POP JUMP JUMPDEST PUSH0 DUP3 PUSH1 0x1F DUP4 ADD SLT PUSH2 0x934 JUMPI PUSH2 0x933 PUSH2 0x7FD JUMP JUMPDEST JUMPDEST DUP2 CALLDATALOAD PUSH2 0x944 DUP5 DUP3 PUSH1 0x20 DUP7 ADD PUSH2 0x8B8 JUMP JUMPDEST SWAP2 POP POP SWAP3 SWAP2 POP POP JUMP JUMPDEST PUSH0 DUP1 PUSH1 0x40 DUP4 DUP6 SUB SLT ISZERO PUSH2 0x963 JUMPI PUSH2 0x962 PUSH2 0x75C JUMP JUMPDEST JUMPDEST PUSH0 DUP4 ADD CALLDATALOAD PUSH8 0xFFFFFFFFFFFFFFFF DUP2 GT ISZERO PUSH2 0x980 JUMPI PUSH2 0x97F PUSH2 0x760 JUMP JUMPDEST JUMPDEST PUSH2 0x98C DUP6 DUP3 DUP7 ADD PUSH2 0x920 JUMP JUMPDEST SWAP3 POP POP PUSH1 0x20 PUSH2 0x99D DUP6 DUP3 DUP7 ADD PUSH2 0x783 JUMP JUMPDEST SWAP2 POP POP SWAP3 POP SWAP3 SWAP1 POP JUMP JUMPDEST PUSH2 0x9B0 DUP2 PUSH2 0x764 JUMP JUMPDEST DUP3 MSTORE POP POP JUMP JUMPDEST PUSH0 PUSH1 0x40 DUP3 ADD SWAP1 POP PUSH2 0x9C9 PUSH0 DUP4 ADD DUP6 PUSH2 0x9A7 JUMP JUMPDEST PUSH2 0x9D6 PUSH1 0x20 DUP4 ADD DUP5 PUSH2 0x9A7 JUMP JUMPDEST SWAP4 SWAP3 POP POP POP JUMP JUMPDEST PUSH0 DUP2 MLOAD SWAP1 POP PUSH2 0x9EB DUP2 PUSH2 0x76D JUMP JUMPDEST SWAP3 SWAP2 POP POP JUMP JUMPDEST PUSH0 PUSH1 0x20 DUP3 DUP5 SUB SLT ISZERO PUSH2 0xA06 JUMPI PUSH2 0xA05 PUSH2 0x75C JUMP JUMPDEST JUMPDEST PUSH0 PUSH2 0xA13 DUP5 DUP3 DUP6 ADD PUSH2 0x9DD JUMP JUMPDEST SWAP2 POP POP SWAP3 SWAP2 POP POP JUMP JUMPDEST PUSH0 DUP2 MLOAD SWAP1 POP SWAP2 SWAP1 POP JUMP JUMPDEST PUSH0 DUP3 DUP3 MSTORE PUSH1 0x20 DUP3 ADD SWAP1 POP SWAP3 SWAP2 POP POP JUMP JUMPDEST PUSH0 DUP2 SWAP1 POP PUSH1 0x20 DUP3 ADD SWAP1 POP SWAP2 SWAP1 POP JUMP JUMPDEST PUSH2 0xA4E DUP2 PUSH2 0x764 JUMP JUMPDEST DUP3 MSTORE POP POP JUMP JUMPDEST PUSH0 PUSH2 0xA5F DUP4 DUP4 PUSH2 0xA45 JUMP JUMPDEST PUSH1 0x20 DUP4 ADD SWAP1 POP SWAP3 SWAP2 POP POP JUMP JUMPDEST PUSH0 PUSH1 0x20 DUP3 ADD SWAP1 POP SWAP2 SWAP1 POP JUMP JUMPDEST PUSH0 PUSH2 0xA81 DUP3 PUSH2 0xA1C JUMP JUMPDEST PUSH2 0xA8B DUP2 DUP6 PUSH2 0xA26 JUMP JUMPDEST SWAP4 POP PUSH2 0xA96 DUP4 PUSH2 0xA36 JUMP JUMPDEST DUP1 PUSH0 JUMPDEST DUP4 DUP2 LT ISZERO PUSH2 0xAC6 JUMPI DUP2 MLOAD PUSH2 0xAAD DUP9 DUP3 PUSH2 0xA54 JUMP JUMPDEST SWAP8 POP PUSH2 0xAB8 DUP4 PUSH2 0xA6B JUMP JUMPDEST SWAP3 POP POP PUSH1 0x1 DUP2 ADD SWAP1 POP PUSH2 0xA99 JUMP JUMPDEST POP DUP6 SWAP4 POP POP POP POP SWAP3 SWAP2 POP POP JUMP JUMPDEST PUSH0 PUSH1 0x40 DUP3 ADD SWAP1 POP DUP2 DUP2 SUB PUSH0 DUP4 ADD MSTORE PUSH2 0xAEB DUP2 DUP6 PUSH2 0xA77 JUMP JUMPDEST SWAP1 POP PUSH2 0xAFA PUSH1 0x20 DUP4 ADD DUP5 PUSH2 0x9A7 JUMP JUMPDEST SWAP4 SWAP3 POP POP POP JUMP JUMPDEST DUP1 DUP3 MSTORE POP POP JUMP JUMPDEST PUSH0 PUSH1 0x20 DUP3 ADD SWAP1 POP PUSH2 0xB1B PUSH0 DUP4 ADD DUP5 PUSH2 0xB01 JUMP JUMPDEST SWAP3 SWAP2 POP POP JUMP INVALID LOG2 PUSH5 0x6970667358 0x22 SLT KECCAK256 RETURNDATACOPY KECCAK256 BASEFEE DUP3 BALANCE MSTORE SIGNEXTEND SIGNEXTEND 0x2B RETURN 0xDF PUSH17 0xD6D4A02B3FBBD261BBBDB29FD836C1655D LOG4 SELFDESTRUCT 0xF8 PUSH5 0x736F6C6343 STOP ADDMOD BYTE STOP CALLER "
		},
		"gasEstimates": {
			"creation": {
				"codeDepositCost": "580600",
				"executionCost": "611",
				"totalCost": "581211"
			},
			"external": {
				"newYear()": "infinite",
				"show()": "infinite",
				"trial(uint256,uint256)": "infinite",
				"trial2(uint256,uint256)": "infinite",
				"trial3(uint256,uint256)": "infinite",
				"trial4(uint256,uint256)": "infinite",
				"trial5(uint256,uint256)": "infinite",
				"trial6(uint256,uint256)": "infinite",
				"trial7(uint256[],uint256)": "infinite",
				"trial8(uint256[],uint256)": "infinite"
			}
		},
		"methodIdentifiers": {
			"newYear()": "fb0b22f7",
			"show()": "cc80f6f3",
			"trial(uint256,uint256)": "b96a0d52",
			"trial2(uint256,uint256)": "9aa2005f",
			"trial3(uint256,uint256)": "54b503b4",
			"trial4(uint256,uint256)": "e72e4d49",
			"trial5(uint256,uint256)": "f34b178d",
			"trial6(uint256,uint256)": "df6b93ec",
			"trial7(uint256[],uint256)": "d5dde0aa",
			"trial8(uint256[],uint256)": "cc4ea1d5"
		}
	},
	"abi": [
		{
			"inputs": [],
			"name": "newYear",
			"outputs": [],
			"stateMutability": "nonpayable",
			"type": "function"
		},
		{
			"inputs": [],
			"name": "show",
			"outputs": [
				{
					"internalType": "uint256",
					"name": "",
					"type": "uint256"
				}
			],
			"stateMutability": "view",
			"type": "function"
		},
		{
			"inputs": [
				{
					"internalType": "uint256",
					"name": "x",
					"type": "uint256"
				},
				{
					"internalType": "uint256",
					"name": "y",
					"type": "uint256"
				}
			],
			"name": "trial",
			"outputs": [
				{
					"internalType": "uint256",
					"name": "",
					"type": "uint256"
				}
			],
			"stateMutability": "pure",
			"type": "function"
		},
		{
			"inputs": [
				{
					"internalType": "uint256",
					"name": "x",
					"type": "uint256"
				},
				{
					"internalType": "uint256",
					"name": "y",
					"type": "uint256"
				}
			],
			"name": "trial2",
			"outputs": [
				{
					"internalType": "uint256",
					"name": "",
					"type": "uint256"
				}
			],
			"stateMutability": "pure",
			"type": "function"
		},
		{
			"inputs": [
				{
					"internalType": "uint256",
					"name": "x",
					"type": "uint256"
				},
				{
					"internalType": "uint256",
					"name": "y",
					"type": "uint256"
				}
			],
			"name": "trial3",
			"outputs": [
				{
					"internalType": "uint256",
					"name": "",
					"type": "uint256"
				}
			],
			"stateMutability": "pure",
			"type": "function"
		},
		{
			"inputs": [
				{
					"internalType": "uint256",
					"name": "x",
					"type": "uint256"
				},
				{
					"internalType": "uint256",
					"name": "y",
					"type": "uint256"
				}
			],
			"name": "trial4",
			"outputs": [
				{
					"internalType": "uint256",
					"name": "",
					"type": "uint256"
				}
			],
			"stateMutability": "pure",
			"type": "function"
		},
		{
			"inputs": [
				{
					"internalType": "uint256",
					"name": "x",
					"type": "uint256"
				},
				{
					"internalType": "uint256",
					"name": "y",
					"type": "uint256"
				}
			],
			"name": "trial5",
			"outputs": [
				{
					"internalType": "uint256",
					"name": "",
					"type": "uint256"
				}
			],
			"stateMutability": "pure",
			"type": "function"
		},
		{
			"inputs": [
				{
					"internalType": "uint256",
					"name": "x",
					"type": "uint256"
				},
				{
					"internalType": "uint256",
					"name": "y",
					"type": "uint256"
				}
			],
			"name": "trial6",
			"outputs": [
				{
					"internalType": "uint256",
					"name": "",
					"type": "uint256"
				}
			],
			"stateMutability": "pure",
			"type": "function"
		},
		{
			"inputs": [
				{
					"internalType": "uint256[]",
					"name": "x",
					"type": "uint256[]"
				},
				{
					"internalType": "uint256",
					"name": "y",
					"type": "uint256"
				}
			],
			"name": "trial7",
			"outputs": [
				{
					"internalType": "uint256",
					"name": "",
					"type": "uint256"
				}
			],
			"stateMutability": "pure",
			"type": "function"
		},
		{
			"inputs": [
				{
					"internalType": "uint256[]",
					"name": "x",
					"type": "uint256[]"
				},
				{
					"internalType": "uint256",
					"name": "y",
					"type": "uint256"
				}
			],
			"name": "trial8",
			"outputs": [
				{
					"internalType": "uint256",
					"name": "",
					"type": "uint256"
				}
			],
			"stateMutability": "pure",
			"type": "function"
		}
	]
}