{
	"contracts/TokenB.sol": {
		"TokenB": {
			"abi": [
				{
					"inputs": [],
					"stateMutability": "nonpayable",
					"type": "constructor"
				},
				{
					"anonymous": false,
					"inputs": [
						{
							"indexed": true,
							"internalType": "address",
							"name": "_to",
							"type": "address"
						},
						{
							"indexed": false,
							"internalType": "uint256",
							"name": "_amount",
							"type": "uint256"
						}
					],
					"name": "TransferTo",
					"type": "event"
				},
				{
					"inputs": [
						{
							"internalType": "address",
							"name": "user",
							"type": "address"
						}
					],
					"name": "balanceOf",
					"outputs": [
						{
							"internalType": "uint256",
							"name": "",
							"type": "uint256"
						}
					],
					"stateMutability": "view",
					"type": "function"
				},
				{
					"inputs": [
						{
							"internalType": "address",
							"name": "_recipient",
							"type": "address"
						},
						{
							"internalType": "uint256",
							"name": "_amount",
							"type": "uint256"
						}
					],
					"name": "decreaseAllowance",
					"outputs": [],
					"stateMutability": "nonpayable",
					"type": "function"
				},
				{
					"inputs": [
						{
							"internalType": "address",
							"name": "_recipient",
							"type": "address"
						},
						{
							"internalType": "uint256",
							"name": "_amount",
							"type": "uint256"
						}
					],
					"name": "increaseAllowance",
					"outputs": [],
					"stateMutability": "nonpayable",
					"type": "function"
				},
				{
					"inputs": [
						{
							"internalType": "address",
							"name": "_recipient",
							"type": "address"
						},
						{
							"internalType": "uint256",
							"name": "_amount",
							"type": "uint256"
						}
					],
					"name": "transfer",
					"outputs": [],
					"stateMutability": "nonpayable",
					"type": "function"
				},
				{
					"inputs": [
						{
							"internalType": "address",
							"name": "_from",
							"type": "address"
						},
						{
							"internalType": "address",
							"name": "_to",
							"type": "address"
						},
						{
							"internalType": "uint256",
							"name": "_amount",
							"type": "uint256"
						}
					],
					"name": "transferFrom",
					"outputs": [],
					"stateMutability": "nonpayable",
					"type": "function"
				}
			],
			"devdoc": {
				"kind": "dev",
				"methods": {},
				"version": 1
			},
			"evm": {
				"assembly": "    /* \"contracts/TokenB.sol\":60:1746  contract TokenB {... */\n  mstore(0x40, 0x80)\n    /* \"contracts/TokenB.sol\":355:424  constructor() {... */\n  callvalue\n  dup1\n  iszero\n  tag_1\n  jumpi\n  0x00\n  dup1\n  revert\ntag_1:\n  pop\n    /* \"contracts/TokenB.sol\":126:141  1000 * 10 ** 18 */\n  0x3635c9adc5dea00000\n    /* \"contracts/TokenB.sol\":380:388  balances */\n  0x00\n    /* \"contracts/TokenB.sol\":380:400  balances[msg.sender] */\n  dup1\n    /* \"contracts/TokenB.sol\":389:399  msg.sender */\n  caller\n    /* \"contracts/TokenB.sol\":380:400  balances[msg.sender] */\n  0xffffffffffffffffffffffffffffffffffffffff\n  and\n  0xffffffffffffffffffffffffffffffffffffffff\n  and\n  dup2\n  mstore\n  0x20\n  add\n  swap1\n  dup2\n  mstore\n  0x20\n  add\n  0x00\n  keccak256\n    /* \"contracts/TokenB.sol\":380:416  balances[msg.sender] = OWNER_BALANCE */\n  dup2\n  swap1\n  sstore\n  pop\n    /* \"contracts/TokenB.sol\":60:1746  contract TokenB {... */\n  dataSize(sub_0)\n  dup1\n  dataOffset(sub_0)\n  0x00\n  codecopy\n  0x00\n  return\nstop\n\nsub_0: assembly {\n        /* \"contracts/TokenB.sol\":60:1746  contract TokenB {... */\n      mstore(0x40, 0x80)\n      callvalue\n      dup1\n      iszero\n      tag_1\n      jumpi\n      0x00\n      dup1\n      revert\n    tag_1:\n      pop\n      jumpi(tag_2, lt(calldatasize, 0x04))\n      shr(0xe0, calldataload(0x00))\n      dup1\n      0x23b872dd\n      eq\n      tag_3\n      jumpi\n      dup1\n      0x39509351\n      eq\n      tag_4\n      jumpi\n      dup1\n      0x70a08231\n      eq\n      tag_5\n      jumpi\n      dup1\n      0xa457c2d7\n      eq\n      tag_6\n      jumpi\n      dup1\n      0xa9059cbb\n      eq\n      tag_7\n      jumpi\n    tag_2:\n      0x00\n      dup1\n      revert\n        /* \"contracts/TokenB.sol\":785:1205  function transferFrom(address _from, address _to, uint256 _amount) external {... */\n    tag_3:\n      tag_8\n      0x04\n      dup1\n      calldatasize\n      sub\n      dup2\n      add\n      swap1\n      tag_9\n      swap2\n      swap1\n      tag_10\n      jump\t// in\n    tag_9:\n      tag_11\n      jump\t// in\n    tag_8:\n      stop\n        /* \"contracts/TokenB.sol\":1213:1417  function increaseAllowance(address _recipient, uint256 _amount) external {... */\n    tag_4:\n      tag_12\n      0x04\n      dup1\n      calldatasize\n      sub\n      dup2\n      add\n      swap1\n      tag_13\n      swap2\n      swap1\n      tag_14\n      jump\t// in\n    tag_13:\n      tag_15\n      jump\t// in\n    tag_12:\n      stop\n        /* \"contracts/TokenB.sol\":1637:1741  function balanceOf(address user) external view returns(uint256) {... */\n    tag_5:\n      tag_16\n      0x04\n      dup1\n      calldatasize\n      sub\n      dup2\n      add\n      swap1\n      tag_17\n      swap2\n      swap1\n      tag_18\n      jump\t// in\n    tag_17:\n      tag_19\n      jump\t// in\n    tag_16:\n      mload(0x40)\n      tag_20\n      swap2\n      swap1\n      tag_21\n      jump\t// in\n    tag_20:\n      mload(0x40)\n      dup1\n      swap2\n      sub\n      swap1\n      return\n        /* \"contracts/TokenB.sol\":1425:1629  function decreaseAllowance(address _recipient, uint256 _amount) external {... */\n    tag_6:\n      tag_22\n      0x04\n      dup1\n      calldatasize\n      sub\n      dup2\n      add\n      swap1\n      tag_23\n      swap2\n      swap1\n      tag_14\n      jump\t// in\n    tag_23:\n      tag_24\n      jump\t// in\n    tag_22:\n      stop\n        /* \"contracts/TokenB.sol\":432:777  function transfer(address _recipient, uint256 _amount) external {... */\n    tag_7:\n      tag_25\n      0x04\n      dup1\n      calldatasize\n      sub\n      dup2\n      add\n      swap1\n      tag_26\n      swap2\n      swap1\n      tag_14\n      jump\t// in\n    tag_26:\n      tag_27\n      jump\t// in\n    tag_25:\n      stop\n        /* \"contracts/TokenB.sol\":785:1205  function transferFrom(address _from, address _to, uint256 _amount) external {... */\n    tag_11:\n        /* \"contracts/TokenB.sol\":895:896  0 */\n      0x00\n        /* \"contracts/TokenB.sol\":880:897  _to != address(0) */\n      0xffffffffffffffffffffffffffffffffffffffff\n      and\n        /* \"contracts/TokenB.sol\":880:883  _to */\n      dup3\n        /* \"contracts/TokenB.sol\":880:897  _to != address(0) */\n      0xffffffffffffffffffffffffffffffffffffffff\n      and\n      sub\n        /* \"contracts/TokenB.sol\":872:918  require(_to != address(0), \"TRANSFER_TO_ZERO\") */\n      tag_29\n      jumpi\n      mload(0x40)\n      0x08c379a000000000000000000000000000000000000000000000000000000000\n      dup2\n      mstore\n      0x04\n      add\n      tag_30\n      swap1\n      tag_31\n      jump\t// in\n    tag_30:\n      mload(0x40)\n      dup1\n      swap2\n      sub\n      swap1\n      revert\n    tag_29:\n        /* \"contracts/TokenB.sol\":970:977  _amount */\n      dup1\n        /* \"contracts/TokenB.sol\":937:947  allowances */\n      0x01\n        /* \"contracts/TokenB.sol\":937:954  allowances[_from] */\n      0x00\n        /* \"contracts/TokenB.sol\":948:953  _from */\n      dup6\n        /* \"contracts/TokenB.sol\":937:954  allowances[_from] */\n      0xffffffffffffffffffffffffffffffffffffffff\n      and\n      0xffffffffffffffffffffffffffffffffffffffff\n      and\n      dup2\n      mstore\n      0x20\n      add\n      swap1\n      dup2\n      mstore\n      0x20\n      add\n      0x00\n      keccak256\n        /* \"contracts/TokenB.sol\":937:966  allowances[_from][msg.sender] */\n      0x00\n        /* \"contracts/TokenB.sol\":955:965  msg.sender */\n      caller\n        /* \"contracts/TokenB.sol\":937:966  allowances[_from][msg.sender] */\n      0xffffffffffffffffffffffffffffffffffffffff\n      and\n      0xffffffffffffffffffffffffffffffffffffffff\n      and\n      dup2\n      mstore\n      0x20\n      add\n      swap1\n      dup2\n      mstore\n      0x20\n      add\n      0x00\n      keccak256\n      sload\n        /* \"contracts/TokenB.sol\":937:977  allowances[_from][msg.sender] >= _amount */\n      lt\n      iszero\n        /* \"contracts/TokenB.sol\":929:1003  require(allowances[_from][msg.sender] >= _amount, \"INSUFFICENT_ALLOWANCE\") */\n      tag_32\n      jumpi\n      mload(0x40)\n      0x08c379a000000000000000000000000000000000000000000000000000000000\n      dup2\n      mstore\n      0x04\n      add\n      tag_33\n      swap1\n      tag_34\n      jump\t// in\n    tag_33:\n      mload(0x40)\n      dup1\n      swap2\n      sub\n      swap1\n      revert\n    tag_32:\n        /* \"contracts/TokenB.sol\":1041:1048  _amount */\n      dup1\n        /* \"contracts/TokenB.sol\":1022:1030  balances */\n      0x00\n        /* \"contracts/TokenB.sol\":1022:1037  balances[_from] */\n      dup1\n        /* \"contracts/TokenB.sol\":1031:1036  _from */\n      dup6\n        /* \"contracts/TokenB.sol\":1022:1037  balances[_from] */\n      0xffffffffffffffffffffffffffffffffffffffff\n      and\n      0xffffffffffffffffffffffffffffffffffffffff\n      and\n      dup2\n      mstore\n      0x20\n      add\n      swap1\n      dup2\n      mstore\n      0x20\n      add\n      0x00\n      keccak256\n      sload\n        /* \"contracts/TokenB.sol\":1022:1048  balances[_from] >= _amount */\n      lt\n      iszero\n        /* \"contracts/TokenB.sol\":1014:1072  require(balances[_from] >= _amount, \"INSUFFICENT_BALANCE\") */\n      tag_35\n      jumpi\n      mload(0x40)\n      0x08c379a000000000000000000000000000000000000000000000000000000000\n      dup2\n      mstore\n      0x04\n      add\n      tag_36\n      swap1\n      tag_37\n      jump\t// in\n    tag_36:\n      mload(0x40)\n      dup1\n      swap2\n      sub\n      swap1\n      revert\n    tag_35:\n        /* \"contracts/TokenB.sol\":1118:1125  _amount */\n      dup1\n        /* \"contracts/TokenB.sol\":1085:1095  allowances */\n      0x01\n        /* \"contracts/TokenB.sol\":1085:1102  allowances[_from] */\n      0x00\n        /* \"contracts/TokenB.sol\":1096:1101  _from */\n      dup6\n        /* \"contracts/TokenB.sol\":1085:1102  allowances[_from] */\n      0xffffffffffffffffffffffffffffffffffffffff\n      and\n      0xffffffffffffffffffffffffffffffffffffffff\n      and\n      dup2\n      mstore\n      0x20\n      add\n      swap1\n      dup2\n      mstore\n      0x20\n      add\n      0x00\n      keccak256\n        /* \"contracts/TokenB.sol\":1085:1114  allowances[_from][msg.sender] */\n      0x00\n        /* \"contracts/TokenB.sol\":1103:1113  msg.sender */\n      caller\n        /* \"contracts/TokenB.sol\":1085:1114  allowances[_from][msg.sender] */\n      0xffffffffffffffffffffffffffffffffffffffff\n      and\n      0xffffffffffffffffffffffffffffffffffffffff\n      and\n      dup2\n      mstore\n      0x20\n      add\n      swap1\n      dup2\n      mstore\n      0x20\n      add\n      0x00\n      keccak256\n      0x00\n        /* \"contracts/TokenB.sol\":1085:1125  allowances[_from][msg.sender] -= _amount */\n      dup3\n      dup3\n      sload\n      tag_38\n      swap2\n      swap1\n      tag_39\n      jump\t// in\n    tag_38:\n      swap3\n      pop\n      pop\n      dup2\n      swap1\n      sstore\n      pop\n        /* \"contracts/TokenB.sol\":1155:1162  _amount */\n      dup1\n        /* \"contracts/TokenB.sol\":1136:1144  balances */\n      0x00\n        /* \"contracts/TokenB.sol\":1136:1151  balances[_from] */\n      dup1\n        /* \"contracts/TokenB.sol\":1145:1150  _from */\n      dup6\n        /* \"contracts/TokenB.sol\":1136:1151  balances[_from] */\n      0xffffffffffffffffffffffffffffffffffffffff\n      and\n      0xffffffffffffffffffffffffffffffffffffffff\n      and\n      dup2\n      mstore\n      0x20\n      add\n      swap1\n      dup2\n      mstore\n      0x20\n      add\n      0x00\n      keccak256\n      0x00\n        /* \"contracts/TokenB.sol\":1136:1162  balances[_from] -= _amount */\n      dup3\n      dup3\n      sload\n      tag_40\n      swap2\n      swap1\n      tag_39\n      jump\t// in\n    tag_40:\n      swap3\n      pop\n      pop\n      dup2\n      swap1\n      sstore\n      pop\n        /* \"contracts/TokenB.sol\":1190:1197  _amount */\n      dup1\n        /* \"contracts/TokenB.sol\":1173:1181  balances */\n      0x00\n        /* \"contracts/TokenB.sol\":1173:1186  balances[_to] */\n      dup1\n        /* \"contracts/TokenB.sol\":1182:1185  _to */\n      dup5\n        /* \"contracts/TokenB.sol\":1173:1186  balances[_to] */\n      0xffffffffffffffffffffffffffffffffffffffff\n      and\n      0xffffffffffffffffffffffffffffffffffffffff\n      and\n      dup2\n      mstore\n      0x20\n      add\n      swap1\n      dup2\n      mstore\n      0x20\n      add\n      0x00\n      keccak256\n      0x00\n        /* \"contracts/TokenB.sol\":1173:1197  balances[_to] += _amount */\n      dup3\n      dup3\n      sload\n      tag_41\n      swap2\n      swap1\n      tag_42\n      jump\t// in\n    tag_41:\n      swap3\n      pop\n      pop\n      dup2\n      swap1\n      sstore\n      pop\n        /* \"contracts/TokenB.sol\":785:1205  function transferFrom(address _from, address _to, uint256 _amount) external {... */\n      pop\n      pop\n      pop\n      jump\t// out\n        /* \"contracts/TokenB.sol\":1213:1417  function increaseAllowance(address _recipient, uint256 _amount) external {... */\n    tag_15:\n        /* \"contracts/TokenB.sol\":1327:1328  0 */\n      0x00\n        /* \"contracts/TokenB.sol\":1305:1329  _recipient != address(0) */\n      0xffffffffffffffffffffffffffffffffffffffff\n      and\n        /* \"contracts/TokenB.sol\":1305:1315  _recipient */\n      dup3\n        /* \"contracts/TokenB.sol\":1305:1329  _recipient != address(0) */\n      0xffffffffffffffffffffffffffffffffffffffff\n      and\n      sub\n        /* \"contracts/TokenB.sol\":1297:1351  require(_recipient != address(0), \"AUTHORIZE_TO_ZERO\") */\n      tag_44\n      jumpi\n      mload(0x40)\n      0x08c379a000000000000000000000000000000000000000000000000000000000\n      dup2\n      mstore\n      0x04\n      add\n      tag_45\n      swap1\n      tag_46\n      jump\t// in\n    tag_45:\n      mload(0x40)\n      dup1\n      swap2\n      sub\n      swap1\n      revert\n    tag_44:\n        /* \"contracts/TokenB.sol\":1402:1409  _amount */\n      dup1\n        /* \"contracts/TokenB.sol\":1364:1374  allowances */\n      0x01\n        /* \"contracts/TokenB.sol\":1364:1386  allowances[msg.sender] */\n      0x00\n        /* \"contracts/TokenB.sol\":1375:1385  msg.sender */\n      caller\n        /* \"contracts/TokenB.sol\":1364:1386  allowances[msg.sender] */\n      0xffffffffffffffffffffffffffffffffffffffff\n      and\n      0xffffffffffffffffffffffffffffffffffffffff\n      and\n      dup2\n      mstore\n      0x20\n      add\n      swap1\n      dup2\n      mstore\n      0x20\n      add\n      0x00\n      keccak256\n        /* \"contracts/TokenB.sol\":1364:1398  allowances[msg.sender][_recipient] */\n      0x00\n        /* \"contracts/TokenB.sol\":1387:1397  _recipient */\n      dup5\n        /* \"contracts/TokenB.sol\":1364:1398  allowances[msg.sender][_recipient] */\n      0xffffffffffffffffffffffffffffffffffffffff\n      and\n      0xffffffffffffffffffffffffffffffffffffffff\n      and\n      dup2\n      mstore\n      0x20\n      add\n      swap1\n      dup2\n      mstore\n      0x20\n      add\n      0x00\n      keccak256\n      0x00\n        /* \"contracts/TokenB.sol\":1364:1409  allowances[msg.sender][_recipient] += _amount */\n      dup3\n      dup3\n      sload\n      tag_47\n      swap2\n      swap1\n      tag_42\n      jump\t// in\n    tag_47:\n      swap3\n      pop\n      pop\n      dup2\n      swap1\n      sstore\n      pop\n        /* \"contracts/TokenB.sol\":1213:1417  function increaseAllowance(address _recipient, uint256 _amount) external {... */\n      pop\n      pop\n      jump\t// out\n        /* \"contracts/TokenB.sol\":1637:1741  function balanceOf(address user) external view returns(uint256) {... */\n    tag_19:\n        /* \"contracts/TokenB.sol\":1692:1699  uint256 */\n      0x00\n        /* \"contracts/TokenB.sol\":1719:1727  balances */\n      dup1\n        /* \"contracts/TokenB.sol\":1719:1733  balances[user] */\n      0x00\n        /* \"contracts/TokenB.sol\":1728:1732  user */\n      dup4\n        /* \"contracts/TokenB.sol\":1719:1733  balances[user] */\n      0xffffffffffffffffffffffffffffffffffffffff\n      and\n      0xffffffffffffffffffffffffffffffffffffffff\n      and\n      dup2\n      mstore\n      0x20\n      add\n      swap1\n      dup2\n      mstore\n      0x20\n      add\n      0x00\n      keccak256\n      sload\n        /* \"contracts/TokenB.sol\":1712:1733  return balances[user] */\n      swap1\n      pop\n        /* \"contracts/TokenB.sol\":1637:1741  function balanceOf(address user) external view returns(uint256) {... */\n      swap2\n      swap1\n      pop\n      jump\t// out\n        /* \"contracts/TokenB.sol\":1425:1629  function decreaseAllowance(address _recipient, uint256 _amount) external {... */\n    tag_24:\n        /* \"contracts/TokenB.sol\":1539:1540  0 */\n      0x00\n        /* \"contracts/TokenB.sol\":1517:1541  _recipient != address(0) */\n      0xffffffffffffffffffffffffffffffffffffffff\n      and\n        /* \"contracts/TokenB.sol\":1517:1527  _recipient */\n      dup3\n        /* \"contracts/TokenB.sol\":1517:1541  _recipient != address(0) */\n      0xffffffffffffffffffffffffffffffffffffffff\n      and\n      sub\n        /* \"contracts/TokenB.sol\":1509:1563  require(_recipient != address(0), \"AUTHORIZE_TO_ZERO\") */\n      tag_50\n      jumpi\n      mload(0x40)\n      0x08c379a000000000000000000000000000000000000000000000000000000000\n      dup2\n      mstore\n      0x04\n      add\n      tag_51\n      swap1\n      tag_46\n      jump\t// in\n    tag_51:\n      mload(0x40)\n      dup1\n      swap2\n      sub\n      swap1\n      revert\n    tag_50:\n        /* \"contracts/TokenB.sol\":1614:1621  _amount */\n      dup1\n        /* \"contracts/TokenB.sol\":1576:1586  allowances */\n      0x01\n        /* \"contracts/TokenB.sol\":1576:1598  allowances[msg.sender] */\n      0x00\n        /* \"contracts/TokenB.sol\":1587:1597  msg.sender */\n      caller\n        /* \"contracts/TokenB.sol\":1576:1598  allowances[msg.sender] */\n      0xffffffffffffffffffffffffffffffffffffffff\n      and\n      0xffffffffffffffffffffffffffffffffffffffff\n      and\n      dup2\n      mstore\n      0x20\n      add\n      swap1\n      dup2\n      mstore\n      0x20\n      add\n      0x00\n      keccak256\n        /* \"contracts/TokenB.sol\":1576:1610  allowances[msg.sender][_recipient] */\n      0x00\n        /* \"contracts/TokenB.sol\":1599:1609  _recipient */\n      dup5\n        /* \"contracts/TokenB.sol\":1576:1610  allowances[msg.sender][_recipient] */\n      0xffffffffffffffffffffffffffffffffffffffff\n      and\n      0xffffffffffffffffffffffffffffffffffffffff\n      and\n      dup2\n      mstore\n      0x20\n      add\n      swap1\n      dup2\n      mstore\n      0x20\n      add\n      0x00\n      keccak256\n      0x00\n        /* \"contracts/TokenB.sol\":1576:1621  allowances[msg.sender][_recipient] -= _amount */\n      dup3\n      dup3\n      sload\n      tag_52\n      swap2\n      swap1\n      tag_39\n      jump\t// in\n    tag_52:\n      swap3\n      pop\n      pop\n      dup2\n      swap1\n      sstore\n      pop\n        /* \"contracts/TokenB.sol\":1425:1629  function decreaseAllowance(address _recipient, uint256 _amount) external {... */\n      pop\n      pop\n      jump\t// out\n        /* \"contracts/TokenB.sol\":432:777  function transfer(address _recipient, uint256 _amount) external {... */\n    tag_27:\n        /* \"contracts/TokenB.sol\":537:538  0 */\n      0x00\n        /* \"contracts/TokenB.sol\":515:539  _recipient != address(0) */\n      0xffffffffffffffffffffffffffffffffffffffff\n      and\n        /* \"contracts/TokenB.sol\":515:525  _recipient */\n      dup3\n        /* \"contracts/TokenB.sol\":515:539  _recipient != address(0) */\n      0xffffffffffffffffffffffffffffffffffffffff\n      and\n      sub\n        /* \"contracts/TokenB.sol\":507:560  require(_recipient != address(0), \"TRANSFER_TO_ZERO\") */\n      tag_54\n      jumpi\n      mload(0x40)\n      0x08c379a000000000000000000000000000000000000000000000000000000000\n      dup2\n      mstore\n      0x04\n      add\n      tag_55\n      swap1\n      tag_31\n      jump\t// in\n    tag_55:\n      mload(0x40)\n      dup1\n      swap2\n      sub\n      swap1\n      revert\n    tag_54:\n        /* \"contracts/TokenB.sol\":603:610  _amount */\n      dup1\n        /* \"contracts/TokenB.sol\":579:587  balances */\n      0x00\n        /* \"contracts/TokenB.sol\":579:599  balances[msg.sender] */\n      dup1\n        /* \"contracts/TokenB.sol\":588:598  msg.sender */\n      caller\n        /* \"contracts/TokenB.sol\":579:599  balances[msg.sender] */\n      0xffffffffffffffffffffffffffffffffffffffff\n      and\n      0xffffffffffffffffffffffffffffffffffffffff\n      and\n      dup2\n      mstore\n      0x20\n      add\n      swap1\n      dup2\n      mstore\n      0x20\n      add\n      0x00\n      keccak256\n      sload\n        /* \"contracts/TokenB.sol\":579:610  balances[msg.sender] >= _amount */\n      lt\n      iszero\n        /* \"contracts/TokenB.sol\":571:634  require(balances[msg.sender] >= _amount, \"INSUFFICENT_BALANCE\") */\n      tag_56\n      jumpi\n      mload(0x40)\n      0x08c379a000000000000000000000000000000000000000000000000000000000\n      dup2\n      mstore\n      0x04\n      add\n      tag_57\n      swap1\n      tag_37\n      jump\t// in\n    tag_57:\n      mload(0x40)\n      dup1\n      swap2\n      sub\n      swap1\n      revert\n    tag_56:\n        /* \"contracts/TokenB.sol\":671:678  _amount */\n      dup1\n        /* \"contracts/TokenB.sol\":647:655  balances */\n      0x00\n        /* \"contracts/TokenB.sol\":647:667  balances[msg.sender] */\n      dup1\n        /* \"contracts/TokenB.sol\":656:666  msg.sender */\n      caller\n        /* \"contracts/TokenB.sol\":647:667  balances[msg.sender] */\n      0xffffffffffffffffffffffffffffffffffffffff\n      and\n      0xffffffffffffffffffffffffffffffffffffffff\n      and\n      dup2\n      mstore\n      0x20\n      add\n      swap1\n      dup2\n      mstore\n      0x20\n      add\n      0x00\n      keccak256\n      0x00\n        /* \"contracts/TokenB.sol\":647:678  balances[msg.sender] -= _amount */\n      dup3\n      dup3\n      sload\n      tag_58\n      swap2\n      swap1\n      tag_39\n      jump\t// in\n    tag_58:\n      swap3\n      pop\n      pop\n      dup2\n      swap1\n      sstore\n      pop\n        /* \"contracts/TokenB.sol\":713:720  _amount */\n      dup1\n        /* \"contracts/TokenB.sol\":689:697  balances */\n      0x00\n        /* \"contracts/TokenB.sol\":689:709  balances[_recipient] */\n      dup1\n        /* \"contracts/TokenB.sol\":698:708  _recipient */\n      dup5\n        /* \"contracts/TokenB.sol\":689:709  balances[_recipient] */\n      0xffffffffffffffffffffffffffffffffffffffff\n      and\n      0xffffffffffffffffffffffffffffffffffffffff\n      and\n      dup2\n      mstore\n      0x20\n      add\n      swap1\n      dup2\n      mstore\n      0x20\n      add\n      0x00\n      keccak256\n      0x00\n        /* \"contracts/TokenB.sol\":689:720  balances[_recipient] += _amount */\n      dup3\n      dup3\n      sload\n      tag_59\n      swap2\n      swap1\n      tag_42\n      jump\t// in\n    tag_59:\n      swap3\n      pop\n      pop\n      dup2\n      swap1\n      sstore\n      pop\n        /* \"contracts/TokenB.sol\":749:759  _recipient */\n      dup2\n        /* \"contracts/TokenB.sol\":738:769  TransferTo(_recipient, _amount) */\n      0xffffffffffffffffffffffffffffffffffffffff\n      and\n      0x845850991963cc258a0464dadcae66e59e72e9883beb28e5ea89a547df58eaff\n        /* \"contracts/TokenB.sol\":761:768  _amount */\n      dup3\n        /* \"contracts/TokenB.sol\":738:769  TransferTo(_recipient, _amount) */\n      mload(0x40)\n      tag_60\n      swap2\n      swap1\n      tag_21\n      jump\t// in\n    tag_60:\n      mload(0x40)\n      dup1\n      swap2\n      sub\n      swap1\n      log2\n        /* \"contracts/TokenB.sol\":432:777  function transfer(address _recipient, uint256 _amount) external {... */\n      pop\n      pop\n      jump\t// out\n        /* \"#utility.yul\":88:205   */\n    tag_62:\n        /* \"#utility.yul\":197:198   */\n      0x00\n        /* \"#utility.yul\":194:195   */\n      dup1\n        /* \"#utility.yul\":187:199   */\n      revert\n        /* \"#utility.yul\":334:460   */\n    tag_64:\n        /* \"#utility.yul\":371:378   */\n      0x00\n        /* \"#utility.yul\":411:453   */\n      0xffffffffffffffffffffffffffffffffffffffff\n        /* \"#utility.yul\":404:409   */\n      dup3\n        /* \"#utility.yul\":400:454   */\n      and\n        /* \"#utility.yul\":389:454   */\n      swap1\n      pop\n        /* \"#utility.yul\":334:460   */\n      swap2\n      swap1\n      pop\n      jump\t// out\n        /* \"#utility.yul\":466:562   */\n    tag_65:\n        /* \"#utility.yul\":503:510   */\n      0x00\n        /* \"#utility.yul\":532:556   */\n      tag_88\n        /* \"#utility.yul\":550:555   */\n      dup3\n        /* \"#utility.yul\":532:556   */\n      tag_64\n      jump\t// in\n    tag_88:\n        /* \"#utility.yul\":521:556   */\n      swap1\n      pop\n        /* \"#utility.yul\":466:562   */\n      swap2\n      swap1\n      pop\n      jump\t// out\n        /* \"#utility.yul\":568:690   */\n    tag_66:\n        /* \"#utility.yul\":641:665   */\n      tag_90\n        /* \"#utility.yul\":659:664   */\n      dup2\n        /* \"#utility.yul\":641:665   */\n      tag_65\n      jump\t// in\n    tag_90:\n        /* \"#utility.yul\":634:639   */\n      dup2\n        /* \"#utility.yul\":631:666   */\n      eq\n        /* \"#utility.yul\":621:684   */\n      tag_91\n      jumpi\n        /* \"#utility.yul\":680:681   */\n      0x00\n        /* \"#utility.yul\":677:678   */\n      dup1\n        /* \"#utility.yul\":670:682   */\n      revert\n        /* \"#utility.yul\":621:684   */\n    tag_91:\n        /* \"#utility.yul\":568:690   */\n      pop\n      jump\t// out\n        /* \"#utility.yul\":696:835   */\n    tag_67:\n        /* \"#utility.yul\":742:747   */\n      0x00\n        /* \"#utility.yul\":780:786   */\n      dup2\n        /* \"#utility.yul\":767:787   */\n      calldataload\n        /* \"#utility.yul\":758:787   */\n      swap1\n      pop\n        /* \"#utility.yul\":796:829   */\n      tag_93\n        /* \"#utility.yul\":823:828   */\n      dup2\n        /* \"#utility.yul\":796:829   */\n      tag_66\n      jump\t// in\n    tag_93:\n        /* \"#utility.yul\":696:835   */\n      swap3\n      swap2\n      pop\n      pop\n      jump\t// out\n        /* \"#utility.yul\":841:918   */\n    tag_68:\n        /* \"#utility.yul\":878:885   */\n      0x00\n        /* \"#utility.yul\":907:912   */\n      dup2\n        /* \"#utility.yul\":896:912   */\n      swap1\n      pop\n        /* \"#utility.yul\":841:918   */\n      swap2\n      swap1\n      pop\n      jump\t// out\n        /* \"#utility.yul\":924:1046   */\n    tag_69:\n        /* \"#utility.yul\":997:1021   */\n      tag_96\n        /* \"#utility.yul\":1015:1020   */\n      dup2\n        /* \"#utility.yul\":997:1021   */\n      tag_68\n      jump\t// in\n    tag_96:\n        /* \"#utility.yul\":990:995   */\n      dup2\n        /* \"#utility.yul\":987:1022   */\n      eq\n        /* \"#utility.yul\":977:1040   */\n      tag_97\n      jumpi\n        /* \"#utility.yul\":1036:1037   */\n      0x00\n        /* \"#utility.yul\":1033:1034   */\n      dup1\n        /* \"#utility.yul\":1026:1038   */\n      revert\n        /* \"#utility.yul\":977:1040   */\n    tag_97:\n        /* \"#utility.yul\":924:1046   */\n      pop\n      jump\t// out\n        /* \"#utility.yul\":1052:1191   */\n    tag_70:\n        /* \"#utility.yul\":1098:1103   */\n      0x00\n        /* \"#utility.yul\":1136:1142   */\n      dup2\n        /* \"#utility.yul\":1123:1143   */\n      calldataload\n        /* \"#utility.yul\":1114:1143   */\n      swap1\n      pop\n        /* \"#utility.yul\":1152:1185   */\n      tag_99\n        /* \"#utility.yul\":1179:1184   */\n      dup2\n        /* \"#utility.yul\":1152:1185   */\n      tag_69\n      jump\t// in\n    tag_99:\n        /* \"#utility.yul\":1052:1191   */\n      swap3\n      swap2\n      pop\n      pop\n      jump\t// out\n        /* \"#utility.yul\":1197:1816   */\n    tag_10:\n        /* \"#utility.yul\":1274:1280   */\n      0x00\n        /* \"#utility.yul\":1282:1288   */\n      dup1\n        /* \"#utility.yul\":1290:1296   */\n      0x00\n        /* \"#utility.yul\":1339:1341   */\n      0x60\n        /* \"#utility.yul\":1327:1336   */\n      dup5\n        /* \"#utility.yul\":1318:1325   */\n      dup7\n        /* \"#utility.yul\":1314:1337   */\n      sub\n        /* \"#utility.yul\":1310:1342   */\n      slt\n        /* \"#utility.yul\":1307:1426   */\n      iszero\n      tag_101\n      jumpi\n        /* \"#utility.yul\":1345:1424   */\n      tag_102\n      tag_62\n      jump\t// in\n    tag_102:\n        /* \"#utility.yul\":1307:1426   */\n    tag_101:\n        /* \"#utility.yul\":1465:1466   */\n      0x00\n        /* \"#utility.yul\":1490:1543   */\n      tag_103\n        /* \"#utility.yul\":1535:1542   */\n      dup7\n        /* \"#utility.yul\":1526:1532   */\n      dup3\n        /* \"#utility.yul\":1515:1524   */\n      dup8\n        /* \"#utility.yul\":1511:1533   */\n      add\n        /* \"#utility.yul\":1490:1543   */\n      tag_67\n      jump\t// in\n    tag_103:\n        /* \"#utility.yul\":1480:1543   */\n      swap4\n      pop\n        /* \"#utility.yul\":1436:1553   */\n      pop\n        /* \"#utility.yul\":1592:1594   */\n      0x20\n        /* \"#utility.yul\":1618:1671   */\n      tag_104\n        /* \"#utility.yul\":1663:1670   */\n      dup7\n        /* \"#utility.yul\":1654:1660   */\n      dup3\n        /* \"#utility.yul\":1643:1652   */\n      dup8\n        /* \"#utility.yul\":1639:1661   */\n      add\n        /* \"#utility.yul\":1618:1671   */\n      tag_67\n      jump\t// in\n    tag_104:\n        /* \"#utility.yul\":1608:1671   */\n      swap3\n      pop\n        /* \"#utility.yul\":1563:1681   */\n      pop\n        /* \"#utility.yul\":1720:1722   */\n      0x40\n        /* \"#utility.yul\":1746:1799   */\n      tag_105\n        /* \"#utility.yul\":1791:1798   */\n      dup7\n        /* \"#utility.yul\":1782:1788   */\n      dup3\n        /* \"#utility.yul\":1771:1780   */\n      dup8\n        /* \"#utility.yul\":1767:1789   */\n      add\n        /* \"#utility.yul\":1746:1799   */\n      tag_70\n      jump\t// in\n    tag_105:\n        /* \"#utility.yul\":1736:1799   */\n      swap2\n      pop\n        /* \"#utility.yul\":1691:1809   */\n      pop\n        /* \"#utility.yul\":1197:1816   */\n      swap3\n      pop\n      swap3\n      pop\n      swap3\n      jump\t// out\n        /* \"#utility.yul\":1822:2296   */\n    tag_14:\n        /* \"#utility.yul\":1890:1896   */\n      0x00\n        /* \"#utility.yul\":1898:1904   */\n      dup1\n        /* \"#utility.yul\":1947:1949   */\n      0x40\n        /* \"#utility.yul\":1935:1944   */\n      dup4\n        /* \"#utility.yul\":1926:1933   */\n      dup6\n        /* \"#utility.yul\":1922:1945   */\n      sub\n        /* \"#utility.yul\":1918:1950   */\n      slt\n        /* \"#utility.yul\":1915:2034   */\n      iszero\n      tag_107\n      jumpi\n        /* \"#utility.yul\":1953:2032   */\n      tag_108\n      tag_62\n      jump\t// in\n    tag_108:\n        /* \"#utility.yul\":1915:2034   */\n    tag_107:\n        /* \"#utility.yul\":2073:2074   */\n      0x00\n        /* \"#utility.yul\":2098:2151   */\n      tag_109\n        /* \"#utility.yul\":2143:2150   */\n      dup6\n        /* \"#utility.yul\":2134:2140   */\n      dup3\n        /* \"#utility.yul\":2123:2132   */\n      dup7\n        /* \"#utility.yul\":2119:2141   */\n      add\n        /* \"#utility.yul\":2098:2151   */\n      tag_67\n      jump\t// in\n    tag_109:\n        /* \"#utility.yul\":2088:2151   */\n      swap3\n      pop\n        /* \"#utility.yul\":2044:2161   */\n      pop\n        /* \"#utility.yul\":2200:2202   */\n      0x20\n        /* \"#utility.yul\":2226:2279   */\n      tag_110\n        /* \"#utility.yul\":2271:2278   */\n      dup6\n        /* \"#utility.yul\":2262:2268   */\n      dup3\n        /* \"#utility.yul\":2251:2260   */\n      dup7\n        /* \"#utility.yul\":2247:2269   */\n      add\n        /* \"#utility.yul\":2226:2279   */\n      tag_70\n      jump\t// in\n    tag_110:\n        /* \"#utility.yul\":2216:2279   */\n      swap2\n      pop\n        /* \"#utility.yul\":2171:2289   */\n      pop\n        /* \"#utility.yul\":1822:2296   */\n      swap3\n      pop\n      swap3\n      swap1\n      pop\n      jump\t// out\n        /* \"#utility.yul\":2302:2631   */\n    tag_18:\n        /* \"#utility.yul\":2361:2367   */\n      0x00\n        /* \"#utility.yul\":2410:2412   */\n      0x20\n        /* \"#utility.yul\":2398:2407   */\n      dup3\n        /* \"#utility.yul\":2389:2396   */\n      dup5\n        /* \"#utility.yul\":2385:2408   */\n      sub\n        /* \"#utility.yul\":2381:2413   */\n      slt\n        /* \"#utility.yul\":2378:2497   */\n      iszero\n      tag_112\n      jumpi\n        /* \"#utility.yul\":2416:2495   */\n      tag_113\n      tag_62\n      jump\t// in\n    tag_113:\n        /* \"#utility.yul\":2378:2497   */\n    tag_112:\n        /* \"#utility.yul\":2536:2537   */\n      0x00\n        /* \"#utility.yul\":2561:2614   */\n      tag_114\n        /* \"#utility.yul\":2606:2613   */\n      dup5\n        /* \"#utility.yul\":2597:2603   */\n      dup3\n        /* \"#utility.yul\":2586:2595   */\n      dup6\n        /* \"#utility.yul\":2582:2604   */\n      add\n        /* \"#utility.yul\":2561:2614   */\n      tag_67\n      jump\t// in\n    tag_114:\n        /* \"#utility.yul\":2551:2614   */\n      swap2\n      pop\n        /* \"#utility.yul\":2507:2624   */\n      pop\n        /* \"#utility.yul\":2302:2631   */\n      swap3\n      swap2\n      pop\n      pop\n      jump\t// out\n        /* \"#utility.yul\":2637:2755   */\n    tag_71:\n        /* \"#utility.yul\":2724:2748   */\n      tag_116\n        /* \"#utility.yul\":2742:2747   */\n      dup2\n        /* \"#utility.yul\":2724:2748   */\n      tag_68\n      jump\t// in\n    tag_116:\n        /* \"#utility.yul\":2719:2722   */\n      dup3\n        /* \"#utility.yul\":2712:2749   */\n      mstore\n        /* \"#utility.yul\":2637:2755   */\n      pop\n      pop\n      jump\t// out\n        /* \"#utility.yul\":2761:2983   */\n    tag_21:\n        /* \"#utility.yul\":2854:2858   */\n      0x00\n        /* \"#utility.yul\":2892:2894   */\n      0x20\n        /* \"#utility.yul\":2881:2890   */\n      dup3\n        /* \"#utility.yul\":2877:2895   */\n      add\n        /* \"#utility.yul\":2869:2895   */\n      swap1\n      pop\n        /* \"#utility.yul\":2905:2976   */\n      tag_118\n        /* \"#utility.yul\":2973:2974   */\n      0x00\n        /* \"#utility.yul\":2962:2971   */\n      dup4\n        /* \"#utility.yul\":2958:2975   */\n      add\n        /* \"#utility.yul\":2949:2955   */\n      dup5\n        /* \"#utility.yul\":2905:2976   */\n      tag_71\n      jump\t// in\n    tag_118:\n        /* \"#utility.yul\":2761:2983   */\n      swap3\n      swap2\n      pop\n      pop\n      jump\t// out\n        /* \"#utility.yul\":2989:3158   */\n    tag_72:\n        /* \"#utility.yul\":3073:3084   */\n      0x00\n        /* \"#utility.yul\":3107:3113   */\n      dup3\n        /* \"#utility.yul\":3102:3105   */\n      dup3\n        /* \"#utility.yul\":3095:3114   */\n      mstore\n        /* \"#utility.yul\":3147:3151   */\n      0x20\n        /* \"#utility.yul\":3142:3145   */\n      dup3\n        /* \"#utility.yul\":3138:3152   */\n      add\n        /* \"#utility.yul\":3123:3152   */\n      swap1\n      pop\n        /* \"#utility.yul\":2989:3158   */\n      swap3\n      swap2\n      pop\n      pop\n      jump\t// out\n        /* \"#utility.yul\":3164:3330   */\n    tag_73:\n        /* \"#utility.yul\":3304:3322   */\n      0x5452414e534645525f544f5f5a45524f00000000000000000000000000000000\n        /* \"#utility.yul\":3300:3301   */\n      0x00\n        /* \"#utility.yul\":3292:3298   */\n      dup3\n        /* \"#utility.yul\":3288:3302   */\n      add\n        /* \"#utility.yul\":3281:3323   */\n      mstore\n        /* \"#utility.yul\":3164:3330   */\n      pop\n      jump\t// out\n        /* \"#utility.yul\":3336:3702   */\n    tag_74:\n        /* \"#utility.yul\":3478:3481   */\n      0x00\n        /* \"#utility.yul\":3499:3566   */\n      tag_122\n        /* \"#utility.yul\":3563:3565   */\n      0x10\n        /* \"#utility.yul\":3558:3561   */\n      dup4\n        /* \"#utility.yul\":3499:3566   */\n      tag_72\n      jump\t// in\n    tag_122:\n        /* \"#utility.yul\":3492:3566   */\n      swap2\n      pop\n        /* \"#utility.yul\":3575:3668   */\n      tag_123\n        /* \"#utility.yul\":3664:3667   */\n      dup3\n        /* \"#utility.yul\":3575:3668   */\n      tag_73\n      jump\t// in\n    tag_123:\n        /* \"#utility.yul\":3693:3695   */\n      0x20\n        /* \"#utility.yul\":3688:3691   */\n      dup3\n        /* \"#utility.yul\":3684:3696   */\n      add\n        /* \"#utility.yul\":3677:3696   */\n      swap1\n      pop\n        /* \"#utility.yul\":3336:3702   */\n      swap2\n      swap1\n      pop\n      jump\t// out\n        /* \"#utility.yul\":3708:4127   */\n    tag_31:\n        /* \"#utility.yul\":3874:3878   */\n      0x00\n        /* \"#utility.yul\":3912:3914   */\n      0x20\n        /* \"#utility.yul\":3901:3910   */\n      dup3\n        /* \"#utility.yul\":3897:3915   */\n      add\n        /* \"#utility.yul\":3889:3915   */\n      swap1\n      pop\n        /* \"#utility.yul\":3961:3970   */\n      dup2\n        /* \"#utility.yul\":3955:3959   */\n      dup2\n        /* \"#utility.yul\":3951:3971   */\n      sub\n        /* \"#utility.yul\":3947:3948   */\n      0x00\n        /* \"#utility.yul\":3936:3945   */\n      dup4\n        /* \"#utility.yul\":3932:3949   */\n      add\n        /* \"#utility.yul\":3925:3972   */\n      mstore\n        /* \"#utility.yul\":3989:4120   */\n      tag_125\n        /* \"#utility.yul\":4115:4119   */\n      dup2\n        /* \"#utility.yul\":3989:4120   */\n      tag_74\n      jump\t// in\n    tag_125:\n        /* \"#utility.yul\":3981:4120   */\n      swap1\n      pop\n        /* \"#utility.yul\":3708:4127   */\n      swap2\n      swap1\n      pop\n      jump\t// out\n        /* \"#utility.yul\":4133:4304   */\n    tag_75:\n        /* \"#utility.yul\":4273:4296   */\n      0x494e535546464943454e545f414c4c4f57414e43450000000000000000000000\n        /* \"#utility.yul\":4269:4270   */\n      0x00\n        /* \"#utility.yul\":4261:4267   */\n      dup3\n        /* \"#utility.yul\":4257:4271   */\n      add\n        /* \"#utility.yul\":4250:4297   */\n      mstore\n        /* \"#utility.yul\":4133:4304   */\n      pop\n      jump\t// out\n        /* \"#utility.yul\":4310:4676   */\n    tag_76:\n        /* \"#utility.yul\":4452:4455   */\n      0x00\n        /* \"#utility.yul\":4473:4540   */\n      tag_128\n        /* \"#utility.yul\":4537:4539   */\n      0x15\n        /* \"#utility.yul\":4532:4535   */\n      dup4\n        /* \"#utility.yul\":4473:4540   */\n      tag_72\n      jump\t// in\n    tag_128:\n        /* \"#utility.yul\":4466:4540   */\n      swap2\n      pop\n        /* \"#utility.yul\":4549:4642   */\n      tag_129\n        /* \"#utility.yul\":4638:4641   */\n      dup3\n        /* \"#utility.yul\":4549:4642   */\n      tag_75\n      jump\t// in\n    tag_129:\n        /* \"#utility.yul\":4667:4669   */\n      0x20\n        /* \"#utility.yul\":4662:4665   */\n      dup3\n        /* \"#utility.yul\":4658:4670   */\n      add\n        /* \"#utility.yul\":4651:4670   */\n      swap1\n      pop\n        /* \"#utility.yul\":4310:4676   */\n      swap2\n      swap1\n      pop\n      jump\t// out\n        /* \"#utility.yul\":4682:5101   */\n    tag_34:\n        /* \"#utility.yul\":4848:4852   */\n      0x00\n        /* \"#utility.yul\":4886:4888   */\n      0x20\n        /* \"#utility.yul\":4875:4884   */\n      dup3\n        /* \"#utility.yul\":4871:4889   */\n      add\n        /* \"#utility.yul\":4863:4889   */\n      swap1\n      pop\n        /* \"#utility.yul\":4935:4944   */\n      dup2\n        /* \"#utility.yul\":4929:4933   */\n      dup2\n        /* \"#utility.yul\":4925:4945   */\n      sub\n        /* \"#utility.yul\":4921:4922   */\n      0x00\n        /* \"#utility.yul\":4910:4919   */\n      dup4\n        /* \"#utility.yul\":4906:4923   */\n      add\n        /* \"#utility.yul\":4899:4946   */\n      mstore\n        /* \"#utility.yul\":4963:5094   */\n      tag_131\n        /* \"#utility.yul\":5089:5093   */\n      dup2\n        /* \"#utility.yul\":4963:5094   */\n      tag_76\n      jump\t// in\n    tag_131:\n        /* \"#utility.yul\":4955:5094   */\n      swap1\n      pop\n        /* \"#utility.yul\":4682:5101   */\n      swap2\n      swap1\n      pop\n      jump\t// out\n        /* \"#utility.yul\":5107:5276   */\n    tag_77:\n        /* \"#utility.yul\":5247:5268   */\n      0x494e535546464943454e545f42414c414e434500000000000000000000000000\n        /* \"#utility.yul\":5243:5244   */\n      0x00\n        /* \"#utility.yul\":5235:5241   */\n      dup3\n        /* \"#utility.yul\":5231:5245   */\n      add\n        /* \"#utility.yul\":5224:5269   */\n      mstore\n        /* \"#utility.yul\":5107:5276   */\n      pop\n      jump\t// out\n        /* \"#utility.yul\":5282:5648   */\n    tag_78:\n        /* \"#utility.yul\":5424:5427   */\n      0x00\n        /* \"#utility.yul\":5445:5512   */\n      tag_134\n        /* \"#utility.yul\":5509:5511   */\n      0x13\n        /* \"#utility.yul\":5504:5507   */\n      dup4\n        /* \"#utility.yul\":5445:5512   */\n      tag_72\n      jump\t// in\n    tag_134:\n        /* \"#utility.yul\":5438:5512   */\n      swap2\n      pop\n        /* \"#utility.yul\":5521:5614   */\n      tag_135\n        /* \"#utility.yul\":5610:5613   */\n      dup3\n        /* \"#utility.yul\":5521:5614   */\n      tag_77\n      jump\t// in\n    tag_135:\n        /* \"#utility.yul\":5639:5641   */\n      0x20\n        /* \"#utility.yul\":5634:5637   */\n      dup3\n        /* \"#utility.yul\":5630:5642   */\n      add\n        /* \"#utility.yul\":5623:5642   */\n      swap1\n      pop\n        /* \"#utility.yul\":5282:5648   */\n      swap2\n      swap1\n      pop\n      jump\t// out\n        /* \"#utility.yul\":5654:6073   */\n    tag_37:\n        /* \"#utility.yul\":5820:5824   */\n      0x00\n        /* \"#utility.yul\":5858:5860   */\n      0x20\n        /* \"#utility.yul\":5847:5856   */\n      dup3\n        /* \"#utility.yul\":5843:5861   */\n      add\n        /* \"#utility.yul\":5835:5861   */\n      swap1\n      pop\n        /* \"#utility.yul\":5907:5916   */\n      dup2\n        /* \"#utility.yul\":5901:5905   */\n      dup2\n        /* \"#utility.yul\":5897:5917   */\n      sub\n        /* \"#utility.yul\":5893:5894   */\n      0x00\n        /* \"#utility.yul\":5882:5891   */\n      dup4\n        /* \"#utility.yul\":5878:5895   */\n      add\n        /* \"#utility.yul\":5871:5918   */\n      mstore\n        /* \"#utility.yul\":5935:6066   */\n      tag_137\n        /* \"#utility.yul\":6061:6065   */\n      dup2\n        /* \"#utility.yul\":5935:6066   */\n      tag_78\n      jump\t// in\n    tag_137:\n        /* \"#utility.yul\":5927:6066   */\n      swap1\n      pop\n        /* \"#utility.yul\":5654:6073   */\n      swap2\n      swap1\n      pop\n      jump\t// out\n        /* \"#utility.yul\":6079:6259   */\n    tag_79:\n        /* \"#utility.yul\":6127:6204   */\n      0x4e487b7100000000000000000000000000000000000000000000000000000000\n        /* \"#utility.yul\":6124:6125   */\n      0x00\n        /* \"#utility.yul\":6117:6205   */\n      mstore\n        /* \"#utility.yul\":6224:6228   */\n      0x11\n        /* \"#utility.yul\":6221:6222   */\n      0x04\n        /* \"#utility.yul\":6214:6229   */\n      mstore\n        /* \"#utility.yul\":6248:6252   */\n      0x24\n        /* \"#utility.yul\":6245:6246   */\n      0x00\n        /* \"#utility.yul\":6238:6253   */\n      revert\n        /* \"#utility.yul\":6265:6459   */\n    tag_39:\n        /* \"#utility.yul\":6305:6309   */\n      0x00\n        /* \"#utility.yul\":6325:6345   */\n      tag_140\n        /* \"#utility.yul\":6343:6344   */\n      dup3\n        /* \"#utility.yul\":6325:6345   */\n      tag_68\n      jump\t// in\n    tag_140:\n        /* \"#utility.yul\":6320:6345   */\n      swap2\n      pop\n        /* \"#utility.yul\":6359:6379   */\n      tag_141\n        /* \"#utility.yul\":6377:6378   */\n      dup4\n        /* \"#utility.yul\":6359:6379   */\n      tag_68\n      jump\t// in\n    tag_141:\n        /* \"#utility.yul\":6354:6379   */\n      swap3\n      pop\n        /* \"#utility.yul\":6403:6404   */\n      dup3\n        /* \"#utility.yul\":6400:6401   */\n      dup3\n        /* \"#utility.yul\":6396:6405   */\n      sub\n        /* \"#utility.yul\":6388:6405   */\n      swap1\n      pop\n        /* \"#utility.yul\":6427:6428   */\n      dup2\n        /* \"#utility.yul\":6421:6425   */\n      dup2\n        /* \"#utility.yul\":6418:6429   */\n      gt\n        /* \"#utility.yul\":6415:6452   */\n      iszero\n      tag_142\n      jumpi\n        /* \"#utility.yul\":6432:6450   */\n      tag_143\n      tag_79\n      jump\t// in\n    tag_143:\n        /* \"#utility.yul\":6415:6452   */\n    tag_142:\n        /* \"#utility.yul\":6265:6459   */\n      swap3\n      swap2\n      pop\n      pop\n      jump\t// out\n        /* \"#utility.yul\":6465:6656   */\n    tag_42:\n        /* \"#utility.yul\":6505:6508   */\n      0x00\n        /* \"#utility.yul\":6524:6544   */\n      tag_145\n        /* \"#utility.yul\":6542:6543   */\n      dup3\n        /* \"#utility.yul\":6524:6544   */\n      tag_68\n      jump\t// in\n    tag_145:\n        /* \"#utility.yul\":6519:6544   */\n      swap2\n      pop\n        /* \"#utility.yul\":6558:6578   */\n      tag_146\n        /* \"#utility.yul\":6576:6577   */\n      dup4\n        /* \"#utility.yul\":6558:6578   */\n      tag_68\n      jump\t// in\n    tag_146:\n        /* \"#utility.yul\":6553:6578   */\n      swap3\n      pop\n        /* \"#utility.yul\":6601:6602   */\n      dup3\n        /* \"#utility.yul\":6598:6599   */\n      dup3\n        /* \"#utility.yul\":6594:6603   */\n      add\n        /* \"#utility.yul\":6587:6603   */\n      swap1\n      pop\n        /* \"#utility.yul\":6622:6625   */\n      dup1\n        /* \"#utility.yul\":6619:6620   */\n      dup3\n        /* \"#utility.yul\":6616:6626   */\n      gt\n        /* \"#utility.yul\":6613:6649   */\n      iszero\n      tag_147\n      jumpi\n        /* \"#utility.yul\":6629:6647   */\n      tag_148\n      tag_79\n      jump\t// in\n    tag_148:\n        /* \"#utility.yul\":6613:6649   */\n    tag_147:\n        /* \"#utility.yul\":6465:6656   */\n      swap3\n      swap2\n      pop\n      pop\n      jump\t// out\n        /* \"#utility.yul\":6662:6829   */\n    tag_80:\n        /* \"#utility.yul\":6802:6821   */\n      0x415554484f52495a455f544f5f5a45524f000000000000000000000000000000\n        /* \"#utility.yul\":6798:6799   */\n      0x00\n        /* \"#utility.yul\":6790:6796   */\n      dup3\n        /* \"#utility.yul\":6786:6800   */\n      add\n        /* \"#utility.yul\":6779:6822   */\n      mstore\n        /* \"#utility.yul\":6662:6829   */\n      pop\n      jump\t// out\n        /* \"#utility.yul\":6835:7201   */\n    tag_81:\n        /* \"#utility.yul\":6977:6980   */\n      0x00\n        /* \"#utility.yul\":6998:7065   */\n      tag_151\n        /* \"#utility.yul\":7062:7064   */\n      0x11\n        /* \"#utility.yul\":7057:7060   */\n      dup4\n        /* \"#utility.yul\":6998:7065   */\n      tag_72\n      jump\t// in\n    tag_151:\n        /* \"#utility.yul\":6991:7065   */\n      swap2\n      pop\n        /* \"#utility.yul\":7074:7167   */\n      tag_152\n        /* \"#utility.yul\":7163:7166   */\n      dup3\n        /* \"#utility.yul\":7074:7167   */\n      tag_80\n      jump\t// in\n    tag_152:\n        /* \"#utility.yul\":7192:7194   */\n      0x20\n        /* \"#utility.yul\":7187:7190   */\n      dup3\n        /* \"#utility.yul\":7183:7195   */\n      add\n        /* \"#utility.yul\":7176:7195   */\n      swap1\n      pop\n        /* \"#utility.yul\":6835:7201   */\n      swap2\n      swap1\n      pop\n      jump\t// out\n        /* \"#utility.yul\":7207:7626   */\n    tag_46:\n        /* \"#utility.yul\":7373:7377   */\n      0x00\n        /* \"#utility.yul\":7411:7413   */\n      0x20\n        /* \"#utility.yul\":7400:7409   */\n      dup3\n        /* \"#utility.yul\":7396:7414   */\n      add\n        /* \"#utility.yul\":7388:7414   */\n      swap1\n      pop\n        /* \"#utility.yul\":7460:7469   */\n      dup2\n        /* \"#utility.yul\":7454:7458   */\n      dup2\n        /* \"#utility.yul\":7450:7470   */\n      sub\n        /* \"#utility.yul\":7446:7447   */\n      0x00\n        /* \"#utility.yul\":7435:7444   */\n      dup4\n        /* \"#utility.yul\":7431:7448   */\n      add\n        /* \"#utility.yul\":7424:7471   */\n      mstore\n        /* \"#utility.yul\":7488:7619   */\n      tag_154\n        /* \"#utility.yul\":7614:7618   */\n      dup2\n        /* \"#utility.yul\":7488:7619   */\n      tag_81\n      jump\t// in\n    tag_154:\n        /* \"#utility.yul\":7480:7619   */\n      swap1\n      pop\n        /* \"#utility.yul\":7207:7626   */\n      swap2\n      swap1\n      pop\n      jump\t// out\n\n    auxdata: 0xa2646970667358221220539cec98c18ca18514e6297715045323daf03c187f258fedccc2ae2a7ef216ae64736f6c634300081a0033\n}\n",
				"bytecode": {
					"linkReferences": {},
					"object": "6080604052348015600e575f80fd5b50683635c9adc5dea000005f803373ffffffffffffffffffffffffffffffffffffffff1673ffffffffffffffffffffffffffffffffffffffff1681526020019081526020015f2081905550610beb806100665f395ff3fe608060405234801561000f575f80fd5b5060043610610055575f3560e01c806323b872dd14610059578063395093511461007557806370a0823114610091578063a457c2d7146100c1578063a9059cbb146100dd575b5f80fd5b610073600480360381019061006e9190610891565b6100f9565b005b61008f600480360381019061008a91906108e1565b6103d8565b005b6100ab60048036038101906100a6919061091f565b6104d8565b6040516100b89190610959565b60405180910390f35b6100db60048036038101906100d691906108e1565b61051d565b005b6100f760048036038101906100f291906108e1565b61061d565b005b5f73ffffffffffffffffffffffffffffffffffffffff168273ffffffffffffffffffffffffffffffffffffffff1603610167576040517f08c379a000000000000000000000000000000000000000000000000000000000815260040161015e906109cc565b60405180910390fd5b8060015f8573ffffffffffffffffffffffffffffffffffffffff1673ffffffffffffffffffffffffffffffffffffffff1681526020019081526020015f205f3373ffffffffffffffffffffffffffffffffffffffff1673ffffffffffffffffffffffffffffffffffffffff1681526020019081526020015f20541015610222576040517f08c379a000000000000000000000000000000000000000000000000000000000815260040161021990610a34565b60405180910390fd5b805f808573ffffffffffffffffffffffffffffffffffffffff1673ffffffffffffffffffffffffffffffffffffffff1681526020019081526020015f205410156102a1576040517f08c379a000000000000000000000000000000000000000000000000000000000815260040161029890610a9c565b60405180910390fd5b8060015f8573ffffffffffffffffffffffffffffffffffffffff1673ffffffffffffffffffffffffffffffffffffffff1681526020019081526020015f205f3373ffffffffffffffffffffffffffffffffffffffff1673ffffffffffffffffffffffffffffffffffffffff1681526020019081526020015f205f8282546103289190610ae7565b92505081905550805f808573ffffffffffffffffffffffffffffffffffffffff1673ffffffffffffffffffffffffffffffffffffffff1681526020019081526020015f205f82825461037a9190610ae7565b92505081905550805f808473ffffffffffffffffffffffffffffffffffffffff1673ffffffffffffffffffffffffffffffffffffffff1681526020019081526020015f205f8282546103cc9190610b1a565b92505081905550505050565b5f73ffffffffffffffffffffffffffffffffffffffff168273ffffffffffffffffffffffffffffffffffffffff1603610446576040517f08c379a000000000000000000000000000000000000000000000000000000000815260040161043d90610b97565b60405180910390fd5b8060015f3373ffffffffffffffffffffffffffffffffffffffff1673ffffffffffffffffffffffffffffffffffffffff1681526020019081526020015f205f8473ffffffffffffffffffffffffffffffffffffffff1673ffffffffffffffffffffffffffffffffffffffff1681526020019081526020015f205f8282546104cd9190610b1a565b925050819055505050565b5f805f8373ffffffffffffffffffffffffffffffffffffffff1673ffffffffffffffffffffffffffffffffffffffff1681526020019081526020015f20549050919050565b5f73ffffffffffffffffffffffffffffffffffffffff168273ffffffffffffffffffffffffffffffffffffffff160361058b576040517f08c379a000000000000000000000000000000000000000000000000000000000815260040161058290610b97565b60405180910390fd5b8060015f3373ffffffffffffffffffffffffffffffffffffffff1673ffffffffffffffffffffffffffffffffffffffff1681526020019081526020015f205f8473ffffffffffffffffffffffffffffffffffffffff1673ffffffffffffffffffffffffffffffffffffffff1681526020019081526020015f205f8282546106129190610ae7565b925050819055505050565b5f73ffffffffffffffffffffffffffffffffffffffff168273ffffffffffffffffffffffffffffffffffffffff160361068b576040517f08c379a0000000000000000000000000000000000000000000000000000000008152600401610682906109cc565b60405180910390fd5b805f803373ffffffffffffffffffffffffffffffffffffffff1673ffffffffffffffffffffffffffffffffffffffff1681526020019081526020015f2054101561070a576040517f08c379a000000000000000000000000000000000000000000000000000000000815260040161070190610a9c565b60405180910390fd5b805f803373ffffffffffffffffffffffffffffffffffffffff1673ffffffffffffffffffffffffffffffffffffffff1681526020019081526020015f205f8282546107559190610ae7565b92505081905550805f808473ffffffffffffffffffffffffffffffffffffffff1673ffffffffffffffffffffffffffffffffffffffff1681526020019081526020015f205f8282546107a79190610b1a565b925050819055508173ffffffffffffffffffffffffffffffffffffffff167f845850991963cc258a0464dadcae66e59e72e9883beb28e5ea89a547df58eaff826040516107f49190610959565b60405180910390a25050565b5f80fd5b5f73ffffffffffffffffffffffffffffffffffffffff82169050919050565b5f61082d82610804565b9050919050565b61083d81610823565b8114610847575f80fd5b50565b5f8135905061085881610834565b92915050565b5f819050919050565b6108708161085e565b811461087a575f80fd5b50565b5f8135905061088b81610867565b92915050565b5f805f606084860312156108a8576108a7610800565b5b5f6108b58682870161084a565b93505060206108c68682870161084a565b92505060406108d78682870161087d565b9150509250925092565b5f80604083850312156108f7576108f6610800565b5b5f6109048582860161084a565b92505060206109158582860161087d565b9150509250929050565b5f6020828403121561093457610933610800565b5b5f6109418482850161084a565b91505092915050565b6109538161085e565b82525050565b5f60208201905061096c5f83018461094a565b92915050565b5f82825260208201905092915050565b7f5452414e534645525f544f5f5a45524f000000000000000000000000000000005f82015250565b5f6109b6601083610972565b91506109c182610982565b602082019050919050565b5f6020820190508181035f8301526109e3816109aa565b9050919050565b7f494e535546464943454e545f414c4c4f57414e434500000000000000000000005f82015250565b5f610a1e601583610972565b9150610a29826109ea565b602082019050919050565b5f6020820190508181035f830152610a4b81610a12565b9050919050565b7f494e535546464943454e545f42414c414e4345000000000000000000000000005f82015250565b5f610a86601383610972565b9150610a9182610a52565b602082019050919050565b5f6020820190508181035f830152610ab381610a7a565b9050919050565b7f4e487b71000000000000000000000000000000000000000000000000000000005f52601160045260245ffd5b5f610af18261085e565b9150610afc8361085e565b9250828203905081811115610b1457610b13610aba565b5b92915050565b5f610b248261085e565b9150610b2f8361085e565b9250828201905080821115610b4757610b46610aba565b5b92915050565b7f415554484f52495a455f544f5f5a45524f0000000000000000000000000000005f82015250565b5f610b81601183610972565b9150610b8c82610b4d565b602082019050919050565b5f6020820190508181035f830152610bae81610b75565b905091905056fea2646970667358221220539cec98c18ca18514e6297715045323daf03c187f258fedccc2ae2a7ef216ae64736f6c634300081a0033",
					"opcodes": "PUSH1 0x80 PUSH1 0x40 MSTORE CALLVALUE DUP1 ISZERO PUSH1 0xE JUMPI PUSH0 DUP1 REVERT JUMPDEST POP PUSH9 0x3635C9ADC5DEA00000 PUSH0 DUP1 CALLER PUSH20 0xFFFFFFFFFFFFFFFFFFFFFFFFFFFFFFFFFFFFFFFF AND PUSH20 0xFFFFFFFFFFFFFFFFFFFFFFFFFFFFFFFFFFFFFFFF AND DUP2 MSTORE PUSH1 0x20 ADD SWAP1 DUP2 MSTORE PUSH1 0x20 ADD PUSH0 KECCAK256 DUP2 SWAP1 SSTORE POP PUSH2 0xBEB DUP1 PUSH2 0x66 PUSH0 CODECOPY PUSH0 RETURN INVALID PUSH1 0x80 PUSH1 0x40 MSTORE CALLVALUE DUP1 ISZERO PUSH2 0xF JUMPI PUSH0 DUP1 REVERT JUMPDEST POP PUSH1 0x4 CALLDATASIZE LT PUSH2 0x55 JUMPI PUSH0 CALLDATALOAD PUSH1 0xE0 SHR DUP1 PUSH4 0x23B872DD EQ PUSH2 0x59 JUMPI DUP1 PUSH4 0x39509351 EQ PUSH2 0x75 JUMPI DUP1 PUSH4 0x70A08231 EQ PUSH2 0x91 JUMPI DUP1 PUSH4 0xA457C2D7 EQ PUSH2 0xC1 JUMPI DUP1 PUSH4 0xA9059CBB EQ PUSH2 0xDD JUMPI JUMPDEST PUSH0 DUP1 REVERT JUMPDEST PUSH2 0x73 PUSH1 0x4 DUP1 CALLDATASIZE SUB DUP2 ADD SWAP1 PUSH2 0x6E SWAP2 SWAP1 PUSH2 0x891 JUMP JUMPDEST PUSH2 0xF9 JUMP JUMPDEST STOP JUMPDEST PUSH2 0x8F PUSH1 0x4 DUP1 CALLDATASIZE SUB DUP2 ADD SWAP1 PUSH2 0x8A SWAP2 SWAP1 PUSH2 0x8E1 JUMP JUMPDEST PUSH2 0x3D8 JUMP JUMPDEST STOP JUMPDEST PUSH2 0xAB PUSH1 0x4 DUP1 CALLDATASIZE SUB DUP2 ADD SWAP1 PUSH2 0xA6 SWAP2 SWAP1 PUSH2 0x91F JUMP JUMPDEST PUSH2 0x4D8 JUMP JUMPDEST PUSH1 0x40 MLOAD PUSH2 0xB8 SWAP2 SWAP1 PUSH2 0x959 JUMP JUMPDEST PUSH1 0x40 MLOAD DUP1 SWAP2 SUB SWAP1 RETURN JUMPDEST PUSH2 0xDB PUSH1 0x4 DUP1 CALLDATASIZE SUB DUP2 ADD SWAP1 PUSH2 0xD6 SWAP2 SWAP1 PUSH2 0x8E1 JUMP JUMPDEST PUSH2 0x51D JUMP JUMPDEST STOP JUMPDEST PUSH2 0xF7 PUSH1 0x4 DUP1 CALLDATASIZE SUB DUP2 ADD SWAP1 PUSH2 0xF2 SWAP2 SWAP1 PUSH2 0x8E1 JUMP JUMPDEST PUSH2 0x61D JUMP JUMPDEST STOP JUMPDEST PUSH0 PUSH20 0xFFFFFFFFFFFFFFFFFFFFFFFFFFFFFFFFFFFFFFFF AND DUP3 PUSH20 0xFFFFFFFFFFFFFFFFFFFFFFFFFFFFFFFFFFFFFFFF AND SUB PUSH2 0x167 JUMPI PUSH1 0x40 MLOAD PUSH32 0x8C379A000000000000000000000000000000000000000000000000000000000 DUP2 MSTORE PUSH1 0x4 ADD PUSH2 0x15E SWAP1 PUSH2 0x9CC JUMP JUMPDEST PUSH1 0x40 MLOAD DUP1 SWAP2 SUB SWAP1 REVERT JUMPDEST DUP1 PUSH1 0x1 PUSH0 DUP6 PUSH20 0xFFFFFFFFFFFFFFFFFFFFFFFFFFFFFFFFFFFFFFFF AND PUSH20 0xFFFFFFFFFFFFFFFFFFFFFFFFFFFFFFFFFFFFFFFF AND DUP2 MSTORE PUSH1 0x20 ADD SWAP1 DUP2 MSTORE PUSH1 0x20 ADD PUSH0 KECCAK256 PUSH0 CALLER PUSH20 0xFFFFFFFFFFFFFFFFFFFFFFFFFFFFFFFFFFFFFFFF AND PUSH20 0xFFFFFFFFFFFFFFFFFFFFFFFFFFFFFFFFFFFFFFFF AND DUP2 MSTORE PUSH1 0x20 ADD SWAP1 DUP2 MSTORE PUSH1 0x20 ADD PUSH0 KECCAK256 SLOAD LT ISZERO PUSH2 0x222 JUMPI PUSH1 0x40 MLOAD PUSH32 0x8C379A000000000000000000000000000000000000000000000000000000000 DUP2 MSTORE PUSH1 0x4 ADD PUSH2 0x219 SWAP1 PUSH2 0xA34 JUMP JUMPDEST PUSH1 0x40 MLOAD DUP1 SWAP2 SUB SWAP1 REVERT JUMPDEST DUP1 PUSH0 DUP1 DUP6 PUSH20 0xFFFFFFFFFFFFFFFFFFFFFFFFFFFFFFFFFFFFFFFF AND PUSH20 0xFFFFFFFFFFFFFFFFFFFFFFFFFFFFFFFFFFFFFFFF AND DUP2 MSTORE PUSH1 0x20 ADD SWAP1 DUP2 MSTORE PUSH1 0x20 ADD PUSH0 KECCAK256 SLOAD LT ISZERO PUSH2 0x2A1 JUMPI PUSH1 0x40 MLOAD PUSH32 0x8C379A000000000000000000000000000000000000000000000000000000000 DUP2 MSTORE PUSH1 0x4 ADD PUSH2 0x298 SWAP1 PUSH2 0xA9C JUMP JUMPDEST PUSH1 0x40 MLOAD DUP1 SWAP2 SUB SWAP1 REVERT JUMPDEST DUP1 PUSH1 0x1 PUSH0 DUP6 PUSH20 0xFFFFFFFFFFFFFFFFFFFFFFFFFFFFFFFFFFFFFFFF AND PUSH20 0xFFFFFFFFFFFFFFFFFFFFFFFFFFFFFFFFFFFFFFFF AND DUP2 MSTORE PUSH1 0x20 ADD SWAP1 DUP2 MSTORE PUSH1 0x20 ADD PUSH0 KECCAK256 PUSH0 CALLER PUSH20 0xFFFFFFFFFFFFFFFFFFFFFFFFFFFFFFFFFFFFFFFF AND PUSH20 0xFFFFFFFFFFFFFFFFFFFFFFFFFFFFFFFFFFFFFFFF AND DUP2 MSTORE PUSH1 0x20 ADD SWAP1 DUP2 MSTORE PUSH1 0x20 ADD PUSH0 KECCAK256 PUSH0 DUP3 DUP3 SLOAD PUSH2 0x328 SWAP2 SWAP1 PUSH2 0xAE7 JUMP JUMPDEST SWAP3 POP POP DUP2 SWAP1 SSTORE POP DUP1 PUSH0 DUP1 DUP6 PUSH20 0xFFFFFFFFFFFFFFFFFFFFFFFFFFFFFFFFFFFFFFFF AND PUSH20 0xFFFFFFFFFFFFFFFFFFFFFFFFFFFFFFFFFFFFFFFF AND DUP2 MSTORE PUSH1 0x20 ADD SWAP1 DUP2 MSTORE PUSH1 0x20 ADD PUSH0 KECCAK256 PUSH0 DUP3 DUP3 SLOAD PUSH2 0x37A SWAP2 SWAP1 PUSH2 0xAE7 JUMP JUMPDEST SWAP3 POP POP DUP2 SWAP1 SSTORE POP DUP1 PUSH0 DUP1 DUP5 PUSH20 0xFFFFFFFFFFFFFFFFFFFFFFFFFFFFFFFFFFFFFFFF AND PUSH20 0xFFFFFFFFFFFFFFFFFFFFFFFFFFFFFFFFFFFFFFFF AND DUP2 MSTORE PUSH1 0x20 ADD SWAP1 DUP2 MSTORE PUSH1 0x20 ADD PUSH0 KECCAK256 PUSH0 DUP3 DUP3 SLOAD PUSH2 0x3CC SWAP2 SWAP1 PUSH2 0xB1A JUMP JUMPDEST SWAP3 POP POP DUP2 SWAP1 SSTORE POP POP POP POP JUMP JUMPDEST PUSH0 PUSH20 0xFFFFFFFFFFFFFFFFFFFFFFFFFFFFFFFFFFFFFFFF AND DUP3 PUSH20 0xFFFFFFFFFFFFFFFFFFFFFFFFFFFFFFFFFFFFFFFF AND SUB PUSH2 0x446 JUMPI PUSH1 0x40 MLOAD PUSH32 0x8C379A000000000000000000000000000000000000000000000000000000000 DUP2 MSTORE PUSH1 0x4 ADD PUSH2 0x43D SWAP1 PUSH2 0xB97 JUMP JUMPDEST PUSH1 0x40 MLOAD DUP1 SWAP2 SUB SWAP1 REVERT JUMPDEST DUP1 PUSH1 0x1 PUSH0 CALLER PUSH20 0xFFFFFFFFFFFFFFFFFFFFFFFFFFFFFFFFFFFFFFFF AND PUSH20 0xFFFFFFFFFFFFFFFFFFFFFFFFFFFFFFFFFFFFFFFF AND DUP2 MSTORE PUSH1 0x20 ADD SWAP1 DUP2 MSTORE PUSH1 0x20 ADD PUSH0 KECCAK256 PUSH0 DUP5 PUSH20 0xFFFFFFFFFFFFFFFFFFFFFFFFFFFFFFFFFFFFFFFF AND PUSH20 0xFFFFFFFFFFFFFFFFFFFFFFFFFFFFFFFFFFFFFFFF AND DUP2 MSTORE PUSH1 0x20 ADD SWAP1 DUP2 MSTORE PUSH1 0x20 ADD PUSH0 KECCAK256 PUSH0 DUP3 DUP3 SLOAD PUSH2 0x4CD SWAP2 SWAP1 PUSH2 0xB1A JUMP JUMPDEST SWAP3 POP POP DUP2 SWAP1 SSTORE POP POP POP JUMP JUMPDEST PUSH0 DUP1 PUSH0 DUP4 PUSH20 0xFFFFFFFFFFFFFFFFFFFFFFFFFFFFFFFFFFFFFFFF AND PUSH20 0xFFFFFFFFFFFFFFFFFFFFFFFFFFFFFFFFFFFFFFFF AND DUP2 MSTORE PUSH1 0x20 ADD SWAP1 DUP2 MSTORE PUSH1 0x20 ADD PUSH0 KECCAK256 SLOAD SWAP1 POP SWAP2 SWAP1 POP JUMP JUMPDEST PUSH0 PUSH20 0xFFFFFFFFFFFFFFFFFFFFFFFFFFFFFFFFFFFFFFFF AND DUP3 PUSH20 0xFFFFFFFFFFFFFFFFFFFFFFFFFFFFFFFFFFFFFFFF AND SUB PUSH2 0x58B JUMPI PUSH1 0x40 MLOAD PUSH32 0x8C379A000000000000000000000000000000000000000000000000000000000 DUP2 MSTORE PUSH1 0x4 ADD PUSH2 0x582 SWAP1 PUSH2 0xB97 JUMP JUMPDEST PUSH1 0x40 MLOAD DUP1 SWAP2 SUB SWAP1 REVERT JUMPDEST DUP1 PUSH1 0x1 PUSH0 CALLER PUSH20 0xFFFFFFFFFFFFFFFFFFFFFFFFFFFFFFFFFFFFFFFF AND PUSH20 0xFFFFFFFFFFFFFFFFFFFFFFFFFFFFFFFFFFFFFFFF AND DUP2 MSTORE PUSH1 0x20 ADD SWAP1 DUP2 MSTORE PUSH1 0x20 ADD PUSH0 KECCAK256 PUSH0 DUP5 PUSH20 0xFFFFFFFFFFFFFFFFFFFFFFFFFFFFFFFFFFFFFFFF AND PUSH20 0xFFFFFFFFFFFFFFFFFFFFFFFFFFFFFFFFFFFFFFFF AND DUP2 MSTORE PUSH1 0x20 ADD SWAP1 DUP2 MSTORE PUSH1 0x20 ADD PUSH0 KECCAK256 PUSH0 DUP3 DUP3 SLOAD PUSH2 0x612 SWAP2 SWAP1 PUSH2 0xAE7 JUMP JUMPDEST SWAP3 POP POP DUP2 SWAP1 SSTORE POP POP POP JUMP JUMPDEST PUSH0 PUSH20 0xFFFFFFFFFFFFFFFFFFFFFFFFFFFFFFFFFFFFFFFF AND DUP3 PUSH20 0xFFFFFFFFFFFFFFFFFFFFFFFFFFFFFFFFFFFFFFFF AND SUB PUSH2 0x68B JUMPI PUSH1 0x40 MLOAD PUSH32 0x8C379A000000000000000000000000000000000000000000000000000000000 DUP2 MSTORE PUSH1 0x4 ADD PUSH2 0x682 SWAP1 PUSH2 0x9CC JUMP JUMPDEST PUSH1 0x40 MLOAD DUP1 SWAP2 SUB SWAP1 REVERT JUMPDEST DUP1 PUSH0 DUP1 CALLER PUSH20 0xFFFFFFFFFFFFFFFFFFFFFFFFFFFFFFFFFFFFFFFF AND PUSH20 0xFFFFFFFFFFFFFFFFFFFFFFFFFFFFFFFFFFFFFFFF AND DUP2 MSTORE PUSH1 0x20 ADD SWAP1 DUP2 MSTORE PUSH1 0x20 ADD PUSH0 KECCAK256 SLOAD LT ISZERO PUSH2 0x70A JUMPI PUSH1 0x40 MLOAD PUSH32 0x8C379A000000000000000000000000000000000000000000000000000000000 DUP2 MSTORE PUSH1 0x4 ADD PUSH2 0x701 SWAP1 PUSH2 0xA9C JUMP JUMPDEST PUSH1 0x40 MLOAD DUP1 SWAP2 SUB SWAP1 REVERT JUMPDEST DUP1 PUSH0 DUP1 CALLER PUSH20 0xFFFFFFFFFFFFFFFFFFFFFFFFFFFFFFFFFFFFFFFF AND PUSH20 0xFFFFFFFFFFFFFFFFFFFFFFFFFFFFFFFFFFFFFFFF AND DUP2 MSTORE PUSH1 0x20 ADD SWAP1 DUP2 MSTORE PUSH1 0x20 ADD PUSH0 KECCAK256 PUSH0 DUP3 DUP3 SLOAD PUSH2 0x755 SWAP2 SWAP1 PUSH2 0xAE7 JUMP JUMPDEST SWAP3 POP POP DUP2 SWAP1 SSTORE POP DUP1 PUSH0 DUP1 DUP5 PUSH20 0xFFFFFFFFFFFFFFFFFFFFFFFFFFFFFFFFFFFFFFFF AND PUSH20 0xFFFFFFFFFFFFFFFFFFFFFFFFFFFFFFFFFFFFFFFF AND DUP2 MSTORE PUSH1 0x20 ADD SWAP1 DUP2 MSTORE PUSH1 0x20 ADD PUSH0 KECCAK256 PUSH0 DUP3 DUP3 SLOAD PUSH2 0x7A7 SWAP2 SWAP1 PUSH2 0xB1A JUMP JUMPDEST SWAP3 POP POP DUP2 SWAP1 SSTORE POP DUP2 PUSH20 0xFFFFFFFFFFFFFFFFFFFFFFFFFFFFFFFFFFFFFFFF AND PUSH32 0x845850991963CC258A0464DADCAE66E59E72E9883BEB28E5EA89A547DF58EAFF DUP3 PUSH1 0x40 MLOAD PUSH2 0x7F4 SWAP2 SWAP1 PUSH2 0x959 JUMP JUMPDEST PUSH1 0x40 MLOAD DUP1 SWAP2 SUB SWAP1 LOG2 POP POP JUMP JUMPDEST PUSH0 DUP1 REVERT JUMPDEST PUSH0 PUSH20 0xFFFFFFFFFFFFFFFFFFFFFFFFFFFFFFFFFFFFFFFF DUP3 AND SWAP1 POP SWAP2 SWAP1 POP JUMP JUMPDEST PUSH0 PUSH2 0x82D DUP3 PUSH2 0x804 JUMP JUMPDEST SWAP1 POP SWAP2 SWAP1 POP JUMP JUMPDEST PUSH2 0x83D DUP2 PUSH2 0x823 JUMP JUMPDEST DUP2 EQ PUSH2 0x847 JUMPI PUSH0 DUP1 REVERT JUMPDEST POP JUMP JUMPDEST PUSH0 DUP2 CALLDATALOAD SWAP1 POP PUSH2 0x858 DUP2 PUSH2 0x834 JUMP JUMPDEST SWAP3 SWAP2 POP POP JUMP JUMPDEST PUSH0 DUP2 SWAP1 POP SWAP2 SWAP1 POP JUMP JUMPDEST PUSH2 0x870 DUP2 PUSH2 0x85E JUMP JUMPDEST DUP2 EQ PUSH2 0x87A JUMPI PUSH0 DUP1 REVERT JUMPDEST POP JUMP JUMPDEST PUSH0 DUP2 CALLDATALOAD SWAP1 POP PUSH2 0x88B DUP2 PUSH2 0x867 JUMP JUMPDEST SWAP3 SWAP2 POP POP JUMP JUMPDEST PUSH0 DUP1 PUSH0 PUSH1 0x60 DUP5 DUP7 SUB SLT ISZERO PUSH2 0x8A8 JUMPI PUSH2 0x8A7 PUSH2 0x800 JUMP JUMPDEST JUMPDEST PUSH0 PUSH2 0x8B5 DUP7 DUP3 DUP8 ADD PUSH2 0x84A JUMP JUMPDEST SWAP4 POP POP PUSH1 0x20 PUSH2 0x8C6 DUP7 DUP3 DUP8 ADD PUSH2 0x84A JUMP JUMPDEST SWAP3 POP POP PUSH1 0x40 PUSH2 0x8D7 DUP7 DUP3 DUP8 ADD PUSH2 0x87D JUMP JUMPDEST SWAP2 POP POP SWAP3 POP SWAP3 POP SWAP3 JUMP JUMPDEST PUSH0 DUP1 PUSH1 0x40 DUP4 DUP6 SUB SLT ISZERO PUSH2 0x8F7 JUMPI PUSH2 0x8F6 PUSH2 0x800 JUMP JUMPDEST JUMPDEST PUSH0 PUSH2 0x904 DUP6 DUP3 DUP7 ADD PUSH2 0x84A JUMP JUMPDEST SWAP3 POP POP PUSH1 0x20 PUSH2 0x915 DUP6 DUP3 DUP7 ADD PUSH2 0x87D JUMP JUMPDEST SWAP2 POP POP SWAP3 POP SWAP3 SWAP1 POP JUMP JUMPDEST PUSH0 PUSH1 0x20 DUP3 DUP5 SUB SLT ISZERO PUSH2 0x934 JUMPI PUSH2 0x933 PUSH2 0x800 JUMP JUMPDEST JUMPDEST PUSH0 PUSH2 0x941 DUP5 DUP3 DUP6 ADD PUSH2 0x84A JUMP JUMPDEST SWAP2 POP POP SWAP3 SWAP2 POP POP JUMP JUMPDEST PUSH2 0x953 DUP2 PUSH2 0x85E JUMP JUMPDEST DUP3 MSTORE POP POP JUMP JUMPDEST PUSH0 PUSH1 0x20 DUP3 ADD SWAP1 POP PUSH2 0x96C PUSH0 DUP4 ADD DUP5 PUSH2 0x94A JUMP JUMPDEST SWAP3 SWAP2 POP POP JUMP JUMPDEST PUSH0 DUP3 DUP3 MSTORE PUSH1 0x20 DUP3 ADD SWAP1 POP SWAP3 SWAP2 POP POP JUMP JUMPDEST PUSH32 0x5452414E534645525F544F5F5A45524F00000000000000000000000000000000 PUSH0 DUP3 ADD MSTORE POP JUMP JUMPDEST PUSH0 PUSH2 0x9B6 PUSH1 0x10 DUP4 PUSH2 0x972 JUMP JUMPDEST SWAP2 POP PUSH2 0x9C1 DUP3 PUSH2 0x982 JUMP JUMPDEST PUSH1 0x20 DUP3 ADD SWAP1 POP SWAP2 SWAP1 POP JUMP JUMPDEST PUSH0 PUSH1 0x20 DUP3 ADD SWAP1 POP DUP2 DUP2 SUB PUSH0 DUP4 ADD MSTORE PUSH2 0x9E3 DUP2 PUSH2 0x9AA JUMP JUMPDEST SWAP1 POP SWAP2 SWAP1 POP JUMP JUMPDEST PUSH32 0x494E535546464943454E545F414C4C4F57414E43450000000000000000000000 PUSH0 DUP3 ADD MSTORE POP JUMP JUMPDEST PUSH0 PUSH2 0xA1E PUSH1 0x15 DUP4 PUSH2 0x972 JUMP JUMPDEST SWAP2 POP PUSH2 0xA29 DUP3 PUSH2 0x9EA JUMP JUMPDEST PUSH1 0x20 DUP3 ADD SWAP1 POP SWAP2 SWAP1 POP JUMP JUMPDEST PUSH0 PUSH1 0x20 DUP3 ADD SWAP1 POP DUP2 DUP2 SUB PUSH0 DUP4 ADD MSTORE PUSH2 0xA4B DUP2 PUSH2 0xA12 JUMP JUMPDEST SWAP1 POP SWAP2 SWAP1 POP JUMP JUMPDEST PUSH32 0x494E535546464943454E545F42414C414E434500000000000000000000000000 PUSH0 DUP3 ADD MSTORE POP JUMP JUMPDEST PUSH0 PUSH2 0xA86 PUSH1 0x13 DUP4 PUSH2 0x972 JUMP JUMPDEST SWAP2 POP PUSH2 0xA91 DUP3 PUSH2 0xA52 JUMP JUMPDEST PUSH1 0x20 DUP3 ADD SWAP1 POP SWAP2 SWAP1 POP JUMP JUMPDEST PUSH0 PUSH1 0x20 DUP3 ADD SWAP1 POP DUP2 DUP2 SUB PUSH0 DUP4 ADD MSTORE PUSH2 0xAB3 DUP2 PUSH2 0xA7A JUMP JUMPDEST SWAP1 POP SWAP2 SWAP1 POP JUMP JUMPDEST PUSH32 0x4E487B7100000000000000000000000000000000000000000000000000000000 PUSH0 MSTORE PUSH1 0x11 PUSH1 0x4 MSTORE PUSH1 0x24 PUSH0 REVERT JUMPDEST PUSH0 PUSH2 0xAF1 DUP3 PUSH2 0x85E JUMP JUMPDEST SWAP2 POP PUSH2 0xAFC DUP4 PUSH2 0x85E JUMP JUMPDEST SWAP3 POP DUP3 DUP3 SUB SWAP1 POP DUP2 DUP2 GT ISZERO PUSH2 0xB14 JUMPI PUSH2 0xB13 PUSH2 0xABA JUMP JUMPDEST JUMPDEST SWAP3 SWAP2 POP POP JUMP JUMPDEST PUSH0 PUSH2 0xB24 DUP3 PUSH2 0x85E JUMP JUMPDEST SWAP2 POP PUSH2 0xB2F DUP4 PUSH2 0x85E JUMP JUMPDEST SWAP3 POP DUP3 DUP3 ADD SWAP1 POP DUP1 DUP3 GT ISZERO PUSH2 0xB47 JUMPI PUSH2 0xB46 PUSH2 0xABA JUMP JUMPDEST JUMPDEST SWAP3 SWAP2 POP POP JUMP JUMPDEST PUSH32 0x415554484F52495A455F544F5F5A45524F000000000000000000000000000000 PUSH0 DUP3 ADD MSTORE POP JUMP JUMPDEST PUSH0 PUSH2 0xB81 PUSH1 0x11 DUP4 PUSH2 0x972 JUMP JUMPDEST SWAP2 POP PUSH2 0xB8C DUP3 PUSH2 0xB4D JUMP JUMPDEST PUSH1 0x20 DUP3 ADD SWAP1 POP SWAP2 SWAP1 POP JUMP JUMPDEST PUSH0 PUSH1 0x20 DUP3 ADD SWAP1 POP DUP2 DUP2 SUB PUSH0 DUP4 ADD MSTORE PUSH2 0xBAE DUP2 PUSH2 0xB75 JUMP JUMPDEST SWAP1 POP SWAP2 SWAP1 POP JUMP INVALID LOG2 PUSH5 0x6970667358 0x22 SLT KECCAK256 MSTORE8 SWAP13 0xEC SWAP9 0xC1 DUP13 LOG1 DUP6 EQ 0xE6 0x29 PUSH24 0x15045323DAF03C187F258FEDCCC2AE2A7EF216AE64736F6C PUSH4 0x4300081A STOP CALLER "
				},
				"gasEstimates": {
					"creation": {
						"codeDepositCost": "610200",
						"executionCost": "22844",
						"totalCost": "633044"
					},
					"external": {
						"balanceOf(address)": "2851",
						"decreaseAllowance(address,uint256)": "infinite",
						"increaseAllowance(address,uint256)": "infinite",
						"transfer(address,uint256)": "infinite",
						"transferFrom(address,address,uint256)": "infinite"
					}
				},
				"methodIdentifiers": {
					"balanceOf(address)": "70a08231",
					"decreaseAllowance(address,uint256)": "a457c2d7",
					"increaseAllowance(address,uint256)": "39509351",
					"transfer(address,uint256)": "a9059cbb",
					"transferFrom(address,address,uint256)": "23b872dd"
				}
			},
			"storageLayout": {
				"storage": [
					{
						"astId": 227,
						"contract": "contracts/TokenB.sol:TokenB",
						"label": "balances",
						"offset": 0,
						"slot": "0",
						"type": "t_mapping(t_address,t_uint256)"
					},
					{
						"astId": 233,
						"contract": "contracts/TokenB.sol:TokenB",
						"label": "allowances",
						"offset": 0,
						"slot": "1",
						"type": "t_mapping(t_address,t_mapping(t_address,t_uint256))"
					}
				],
				"types": {
					"t_address": {
						"encoding": "inplace",
						"label": "address",
						"numberOfBytes": "20"
					},
					"t_mapping(t_address,t_mapping(t_address,t_uint256))": {
						"encoding": "mapping",
						"key": "t_address",
						"label": "mapping(address => mapping(address => uint256))",
						"numberOfBytes": "32",
						"value": "t_mapping(t_address,t_uint256)"
					},
					"t_mapping(t_address,t_uint256)": {
						"encoding": "mapping",
						"key": "t_address",
						"label": "mapping(address => uint256)",
						"numberOfBytes": "32",
						"value": "t_uint256"
					},
					"t_uint256": {
						"encoding": "inplace",
						"label": "uint256",
						"numberOfBytes": "32"
					}
				}
			},
			"userdoc": {
				"kind": "user",
				"methods": {},
				"version": 1
			}
		}
	}
}