{
	"contracts/Vault.sol": {
		"Vault": {
			"abi": [
				{
					"inputs": [
						{
							"internalType": "contract IToken",
							"name": "_token",
							"type": "address"
						},
						{
							"internalType": "uint256",
							"name": "_amount",
							"type": "uint256"
						}
					],
					"name": "depositToken",
					"outputs": [],
					"stateMutability": "nonpayable",
					"type": "function"
				},
				{
					"inputs": [
						{
							"internalType": "address",
							"name": "_user",
							"type": "address"
						},
						{
							"internalType": "contract IToken",
							"name": "_token",
							"type": "address"
						}
					],
					"name": "getBalanceOf",
					"outputs": [
						{
							"internalType": "uint256",
							"name": "",
							"type": "uint256"
						}
					],
					"stateMutability": "view",
					"type": "function"
				}
			],
			"devdoc": {
				"kind": "dev",
				"methods": {},
				"version": 1
			},
			"evm": {
				"assembly": "    /* \"contracts/Vault.sol\":351:1901  contract Vault {... */\n  mstore(0x40, 0xc0)\n  callvalue\n  dup1\n  iszero\n  tag_1\n  jumpi\n  0x00\n  dup1\n  revert\ntag_1:\n  pop\n  mload(0x80)\n  mload(0xa0)\n  codecopy(0x00, dataOffset(sub_0), dataSize(sub_0))\n  0x00\n  assignImmutable(\"0x6f845f1bb00367e04f1ba75b68d6d81459c85bc2efaef82ba90fd7d26a0b0576\")\n  0x00\n  assignImmutable(\"0xaa496a6876b795f7b82a8d4269b53dfc3fca649ec4733de847149157c94e6c76\")\n  return(0x00, dataSize(sub_0))\nstop\n\nsub_0: assembly {\n        /* \"contracts/Vault.sol\":351:1901  contract Vault {... */\n      mstore(0x40, 0x80)\n      callvalue\n      dup1\n      iszero\n      tag_1\n      jumpi\n      0x00\n      dup1\n      revert\n    tag_1:\n      pop\n      jumpi(tag_2, lt(calldatasize, 0x04))\n      shr(0xe0, calldataload(0x00))\n      dup1\n      0x338b5dea\n      eq\n      tag_3\n      jumpi\n      dup1\n      0x53290b44\n      eq\n      tag_4\n      jumpi\n    tag_2:\n      0x00\n      dup1\n      revert\n        /* \"contracts/Vault.sol\":1619:1756  function depositToken(IToken _token, uint256 _amount) external {... */\n    tag_3:\n      tag_5\n      0x04\n      dup1\n      calldatasize\n      sub\n      dup2\n      add\n      swap1\n      tag_6\n      swap2\n      swap1\n      tag_7\n      jump\t// in\n    tag_6:\n      tag_8\n      jump\t// in\n    tag_5:\n      stop\n        /* \"contracts/Vault.sol\":1764:1896  function getBalanceOf(address _user, IToken _token) external view returns(uint256) {... */\n    tag_4:\n      tag_9\n      0x04\n      dup1\n      calldatasize\n      sub\n      dup2\n      add\n      swap1\n      tag_10\n      swap2\n      swap1\n      tag_11\n      jump\t// in\n    tag_10:\n      tag_12\n      jump\t// in\n    tag_9:\n      mload(0x40)\n      tag_13\n      swap2\n      swap1\n      tag_14\n      jump\t// in\n    tag_13:\n      mload(0x40)\n      dup1\n      swap2\n      sub\n      swap1\n      return\n        /* \"contracts/Vault.sol\":1619:1756  function depositToken(IToken _token, uint256 _amount) external {... */\n    tag_8:\n        /* \"contracts/Vault.sol\":1693:1699  _token */\n      dup2\n        /* \"contracts/Vault.sol\":1693:1712  _token.transferFrom */\n      0xffffffffffffffffffffffffffffffffffffffff\n      and\n      0x23b872dd\n        /* \"contracts/Vault.sol\":1713:1723  msg.sender */\n      caller\n        /* \"contracts/Vault.sol\":1733:1737  this */\n      address\n        /* \"contracts/Vault.sol\":1740:1747  _amount */\n      dup5\n        /* \"contracts/Vault.sol\":1693:1748  _token.transferFrom(msg.sender, address(this), _amount) */\n      mload(0x40)\n      dup5\n      0xffffffff\n      and\n      0xe0\n      shl\n      dup2\n      mstore\n      0x04\n      add\n      tag_16\n      swap4\n      swap3\n      swap2\n      swap1\n      tag_17\n      jump\t// in\n    tag_16:\n      0x00\n      mload(0x40)\n      dup1\n      dup4\n      sub\n      dup2\n      0x00\n      dup8\n      dup1\n      extcodesize\n      iszero\n      dup1\n      iszero\n      tag_18\n      jumpi\n      0x00\n      dup1\n      revert\n    tag_18:\n      pop\n      gas\n      call\n      iszero\n      dup1\n      iszero\n      tag_20\n      jumpi\n      returndatasize\n      0x00\n      dup1\n      returndatacopy\n      revert(0x00, returndatasize)\n    tag_20:\n      pop\n      pop\n      pop\n      pop\n        /* \"contracts/Vault.sol\":1619:1756  function depositToken(IToken _token, uint256 _amount) external {... */\n      pop\n      pop\n      jump\t// out\n        /* \"contracts/Vault.sol\":1764:1896  function getBalanceOf(address _user, IToken _token) external view returns(uint256) {... */\n    tag_12:\n        /* \"contracts/Vault.sol\":1838:1845  uint256 */\n      0x00\n        /* \"contracts/Vault.sol\":1865:1871  _token */\n      dup2\n        /* \"contracts/Vault.sol\":1865:1881  _token.balanceOf */\n      0xffffffffffffffffffffffffffffffffffffffff\n      and\n      0x70a08231\n        /* \"contracts/Vault.sol\":1882:1887  _user */\n      dup5\n        /* \"contracts/Vault.sol\":1865:1888  _token.balanceOf(_user) */\n      mload(0x40)\n      dup3\n      0xffffffff\n      and\n      0xe0\n      shl\n      dup2\n      mstore\n      0x04\n      add\n      tag_22\n      swap2\n      swap1\n      tag_23\n      jump\t// in\n    tag_22:\n      0x20\n      mload(0x40)\n      dup1\n      dup4\n      sub\n      dup2\n      dup7\n      gas\n      staticcall\n      iszero\n      dup1\n      iszero\n      tag_25\n      jumpi\n      returndatasize\n      0x00\n      dup1\n      returndatacopy\n      revert(0x00, returndatasize)\n    tag_25:\n      pop\n      pop\n      pop\n      pop\n      mload(0x40)\n      returndatasize\n      not(0x1f)\n      0x1f\n      dup3\n      add\n      and\n      dup3\n      add\n      dup1\n      0x40\n      mstore\n      pop\n      dup2\n      add\n      swap1\n      tag_26\n      swap2\n      swap1\n      tag_27\n      jump\t// in\n    tag_26:\n        /* \"contracts/Vault.sol\":1858:1888  return _token.balanceOf(_user) */\n      swap1\n      pop\n        /* \"contracts/Vault.sol\":1764:1896  function getBalanceOf(address _user, IToken _token) external view returns(uint256) {... */\n      swap3\n      swap2\n      pop\n      pop\n      jump\t// out\n        /* \"#utility.yul\":88:205   */\n    tag_29:\n        /* \"#utility.yul\":197:198   */\n      0x00\n        /* \"#utility.yul\":194:195   */\n      dup1\n        /* \"#utility.yul\":187:199   */\n      revert\n        /* \"#utility.yul\":334:460   */\n    tag_31:\n        /* \"#utility.yul\":371:378   */\n      0x00\n        /* \"#utility.yul\":411:453   */\n      0xffffffffffffffffffffffffffffffffffffffff\n        /* \"#utility.yul\":404:409   */\n      dup3\n        /* \"#utility.yul\":400:454   */\n      and\n        /* \"#utility.yul\":389:454   */\n      swap1\n      pop\n        /* \"#utility.yul\":334:460   */\n      swap2\n      swap1\n      pop\n      jump\t// out\n        /* \"#utility.yul\":466:562   */\n    tag_32:\n        /* \"#utility.yul\":503:510   */\n      0x00\n        /* \"#utility.yul\":532:556   */\n      tag_50\n        /* \"#utility.yul\":550:555   */\n      dup3\n        /* \"#utility.yul\":532:556   */\n      tag_31\n      jump\t// in\n    tag_50:\n        /* \"#utility.yul\":521:556   */\n      swap1\n      pop\n        /* \"#utility.yul\":466:562   */\n      swap2\n      swap1\n      pop\n      jump\t// out\n        /* \"#utility.yul\":568:678   */\n    tag_33:\n        /* \"#utility.yul\":619:626   */\n      0x00\n        /* \"#utility.yul\":648:672   */\n      tag_52\n        /* \"#utility.yul\":666:671   */\n      dup3\n        /* \"#utility.yul\":648:672   */\n      tag_32\n      jump\t// in\n    tag_52:\n        /* \"#utility.yul\":637:672   */\n      swap1\n      pop\n        /* \"#utility.yul\":568:678   */\n      swap2\n      swap1\n      pop\n      jump\t// out\n        /* \"#utility.yul\":684:834   */\n    tag_34:\n        /* \"#utility.yul\":771:809   */\n      tag_54\n        /* \"#utility.yul\":803:808   */\n      dup2\n        /* \"#utility.yul\":771:809   */\n      tag_33\n      jump\t// in\n    tag_54:\n        /* \"#utility.yul\":764:769   */\n      dup2\n        /* \"#utility.yul\":761:810   */\n      eq\n        /* \"#utility.yul\":751:828   */\n      tag_55\n      jumpi\n        /* \"#utility.yul\":824:825   */\n      0x00\n        /* \"#utility.yul\":821:822   */\n      dup1\n        /* \"#utility.yul\":814:826   */\n      revert\n        /* \"#utility.yul\":751:828   */\n    tag_55:\n        /* \"#utility.yul\":684:834   */\n      pop\n      jump\t// out\n        /* \"#utility.yul\":840:1007   */\n    tag_35:\n        /* \"#utility.yul\":900:905   */\n      0x00\n        /* \"#utility.yul\":938:944   */\n      dup2\n        /* \"#utility.yul\":925:945   */\n      calldataload\n        /* \"#utility.yul\":916:945   */\n      swap1\n      pop\n        /* \"#utility.yul\":954:1001   */\n      tag_57\n        /* \"#utility.yul\":995:1000   */\n      dup2\n        /* \"#utility.yul\":954:1001   */\n      tag_34\n      jump\t// in\n    tag_57:\n        /* \"#utility.yul\":840:1007   */\n      swap3\n      swap2\n      pop\n      pop\n      jump\t// out\n        /* \"#utility.yul\":1013:1090   */\n    tag_36:\n        /* \"#utility.yul\":1050:1057   */\n      0x00\n        /* \"#utility.yul\":1079:1084   */\n      dup2\n        /* \"#utility.yul\":1068:1084   */\n      swap1\n      pop\n        /* \"#utility.yul\":1013:1090   */\n      swap2\n      swap1\n      pop\n      jump\t// out\n        /* \"#utility.yul\":1096:1218   */\n    tag_37:\n        /* \"#utility.yul\":1169:1193   */\n      tag_60\n        /* \"#utility.yul\":1187:1192   */\n      dup2\n        /* \"#utility.yul\":1169:1193   */\n      tag_36\n      jump\t// in\n    tag_60:\n        /* \"#utility.yul\":1162:1167   */\n      dup2\n        /* \"#utility.yul\":1159:1194   */\n      eq\n        /* \"#utility.yul\":1149:1212   */\n      tag_61\n      jumpi\n        /* \"#utility.yul\":1208:1209   */\n      0x00\n        /* \"#utility.yul\":1205:1206   */\n      dup1\n        /* \"#utility.yul\":1198:1210   */\n      revert\n        /* \"#utility.yul\":1149:1212   */\n    tag_61:\n        /* \"#utility.yul\":1096:1218   */\n      pop\n      jump\t// out\n        /* \"#utility.yul\":1224:1363   */\n    tag_38:\n        /* \"#utility.yul\":1270:1275   */\n      0x00\n        /* \"#utility.yul\":1308:1314   */\n      dup2\n        /* \"#utility.yul\":1295:1315   */\n      calldataload\n        /* \"#utility.yul\":1286:1315   */\n      swap1\n      pop\n        /* \"#utility.yul\":1324:1357   */\n      tag_63\n        /* \"#utility.yul\":1351:1356   */\n      dup2\n        /* \"#utility.yul\":1324:1357   */\n      tag_37\n      jump\t// in\n    tag_63:\n        /* \"#utility.yul\":1224:1363   */\n      swap3\n      swap2\n      pop\n      pop\n      jump\t// out\n        /* \"#utility.yul\":1369:1871   */\n    tag_7:\n        /* \"#utility.yul\":1451:1457   */\n      0x00\n        /* \"#utility.yul\":1459:1465   */\n      dup1\n        /* \"#utility.yul\":1508:1510   */\n      0x40\n        /* \"#utility.yul\":1496:1505   */\n      dup4\n        /* \"#utility.yul\":1487:1494   */\n      dup6\n        /* \"#utility.yul\":1483:1506   */\n      sub\n        /* \"#utility.yul\":1479:1511   */\n      slt\n        /* \"#utility.yul\":1476:1595   */\n      iszero\n      tag_65\n      jumpi\n        /* \"#utility.yul\":1514:1593   */\n      tag_66\n      tag_29\n      jump\t// in\n    tag_66:\n        /* \"#utility.yul\":1476:1595   */\n    tag_65:\n        /* \"#utility.yul\":1634:1635   */\n      0x00\n        /* \"#utility.yul\":1659:1726   */\n      tag_67\n        /* \"#utility.yul\":1718:1725   */\n      dup6\n        /* \"#utility.yul\":1709:1715   */\n      dup3\n        /* \"#utility.yul\":1698:1707   */\n      dup7\n        /* \"#utility.yul\":1694:1716   */\n      add\n        /* \"#utility.yul\":1659:1726   */\n      tag_35\n      jump\t// in\n    tag_67:\n        /* \"#utility.yul\":1649:1726   */\n      swap3\n      pop\n        /* \"#utility.yul\":1605:1736   */\n      pop\n        /* \"#utility.yul\":1775:1777   */\n      0x20\n        /* \"#utility.yul\":1801:1854   */\n      tag_68\n        /* \"#utility.yul\":1846:1853   */\n      dup6\n        /* \"#utility.yul\":1837:1843   */\n      dup3\n        /* \"#utility.yul\":1826:1835   */\n      dup7\n        /* \"#utility.yul\":1822:1844   */\n      add\n        /* \"#utility.yul\":1801:1854   */\n      tag_38\n      jump\t// in\n    tag_68:\n        /* \"#utility.yul\":1791:1854   */\n      swap2\n      pop\n        /* \"#utility.yul\":1746:1864   */\n      pop\n        /* \"#utility.yul\":1369:1871   */\n      swap3\n      pop\n      swap3\n      swap1\n      pop\n      jump\t// out\n        /* \"#utility.yul\":1877:1999   */\n    tag_39:\n        /* \"#utility.yul\":1950:1974   */\n      tag_70\n        /* \"#utility.yul\":1968:1973   */\n      dup2\n        /* \"#utility.yul\":1950:1974   */\n      tag_32\n      jump\t// in\n    tag_70:\n        /* \"#utility.yul\":1943:1948   */\n      dup2\n        /* \"#utility.yul\":1940:1975   */\n      eq\n        /* \"#utility.yul\":1930:1993   */\n      tag_71\n      jumpi\n        /* \"#utility.yul\":1989:1990   */\n      0x00\n        /* \"#utility.yul\":1986:1987   */\n      dup1\n        /* \"#utility.yul\":1979:1991   */\n      revert\n        /* \"#utility.yul\":1930:1993   */\n    tag_71:\n        /* \"#utility.yul\":1877:1999   */\n      pop\n      jump\t// out\n        /* \"#utility.yul\":2005:2144   */\n    tag_40:\n        /* \"#utility.yul\":2051:2056   */\n      0x00\n        /* \"#utility.yul\":2089:2095   */\n      dup2\n        /* \"#utility.yul\":2076:2096   */\n      calldataload\n        /* \"#utility.yul\":2067:2096   */\n      swap1\n      pop\n        /* \"#utility.yul\":2105:2138   */\n      tag_73\n        /* \"#utility.yul\":2132:2137   */\n      dup2\n        /* \"#utility.yul\":2105:2138   */\n      tag_39\n      jump\t// in\n    tag_73:\n        /* \"#utility.yul\":2005:2144   */\n      swap3\n      swap2\n      pop\n      pop\n      jump\t// out\n        /* \"#utility.yul\":2150:2652   */\n    tag_11:\n        /* \"#utility.yul\":2232:2238   */\n      0x00\n        /* \"#utility.yul\":2240:2246   */\n      dup1\n        /* \"#utility.yul\":2289:2291   */\n      0x40\n        /* \"#utility.yul\":2277:2286   */\n      dup4\n        /* \"#utility.yul\":2268:2275   */\n      dup6\n        /* \"#utility.yul\":2264:2287   */\n      sub\n        /* \"#utility.yul\":2260:2292   */\n      slt\n        /* \"#utility.yul\":2257:2376   */\n      iszero\n      tag_75\n      jumpi\n        /* \"#utility.yul\":2295:2374   */\n      tag_76\n      tag_29\n      jump\t// in\n    tag_76:\n        /* \"#utility.yul\":2257:2376   */\n    tag_75:\n        /* \"#utility.yul\":2415:2416   */\n      0x00\n        /* \"#utility.yul\":2440:2493   */\n      tag_77\n        /* \"#utility.yul\":2485:2492   */\n      dup6\n        /* \"#utility.yul\":2476:2482   */\n      dup3\n        /* \"#utility.yul\":2465:2474   */\n      dup7\n        /* \"#utility.yul\":2461:2483   */\n      add\n        /* \"#utility.yul\":2440:2493   */\n      tag_40\n      jump\t// in\n    tag_77:\n        /* \"#utility.yul\":2430:2493   */\n      swap3\n      pop\n        /* \"#utility.yul\":2386:2503   */\n      pop\n        /* \"#utility.yul\":2542:2544   */\n      0x20\n        /* \"#utility.yul\":2568:2635   */\n      tag_78\n        /* \"#utility.yul\":2627:2634   */\n      dup6\n        /* \"#utility.yul\":2618:2624   */\n      dup3\n        /* \"#utility.yul\":2607:2616   */\n      dup7\n        /* \"#utility.yul\":2603:2625   */\n      add\n        /* \"#utility.yul\":2568:2635   */\n      tag_35\n      jump\t// in\n    tag_78:\n        /* \"#utility.yul\":2558:2635   */\n      swap2\n      pop\n        /* \"#utility.yul\":2513:2645   */\n      pop\n        /* \"#utility.yul\":2150:2652   */\n      swap3\n      pop\n      swap3\n      swap1\n      pop\n      jump\t// out\n        /* \"#utility.yul\":2658:2776   */\n    tag_41:\n        /* \"#utility.yul\":2745:2769   */\n      tag_80\n        /* \"#utility.yul\":2763:2768   */\n      dup2\n        /* \"#utility.yul\":2745:2769   */\n      tag_36\n      jump\t// in\n    tag_80:\n        /* \"#utility.yul\":2740:2743   */\n      dup3\n        /* \"#utility.yul\":2733:2770   */\n      mstore\n        /* \"#utility.yul\":2658:2776   */\n      pop\n      pop\n      jump\t// out\n        /* \"#utility.yul\":2782:3004   */\n    tag_14:\n        /* \"#utility.yul\":2875:2879   */\n      0x00\n        /* \"#utility.yul\":2913:2915   */\n      0x20\n        /* \"#utility.yul\":2902:2911   */\n      dup3\n        /* \"#utility.yul\":2898:2916   */\n      add\n        /* \"#utility.yul\":2890:2916   */\n      swap1\n      pop\n        /* \"#utility.yul\":2926:2997   */\n      tag_82\n        /* \"#utility.yul\":2994:2995   */\n      0x00\n        /* \"#utility.yul\":2983:2992   */\n      dup4\n        /* \"#utility.yul\":2979:2996   */\n      add\n        /* \"#utility.yul\":2970:2976   */\n      dup5\n        /* \"#utility.yul\":2926:2997   */\n      tag_41\n      jump\t// in\n    tag_82:\n        /* \"#utility.yul\":2782:3004   */\n      swap3\n      swap2\n      pop\n      pop\n      jump\t// out\n        /* \"#utility.yul\":3010:3128   */\n    tag_42:\n        /* \"#utility.yul\":3097:3121   */\n      tag_84\n        /* \"#utility.yul\":3115:3120   */\n      dup2\n        /* \"#utility.yul\":3097:3121   */\n      tag_32\n      jump\t// in\n    tag_84:\n        /* \"#utility.yul\":3092:3095   */\n      dup3\n        /* \"#utility.yul\":3085:3122   */\n      mstore\n        /* \"#utility.yul\":3010:3128   */\n      pop\n      pop\n      jump\t// out\n        /* \"#utility.yul\":3134:3576   */\n    tag_17:\n        /* \"#utility.yul\":3283:3287   */\n      0x00\n        /* \"#utility.yul\":3321:3323   */\n      0x60\n        /* \"#utility.yul\":3310:3319   */\n      dup3\n        /* \"#utility.yul\":3306:3324   */\n      add\n        /* \"#utility.yul\":3298:3324   */\n      swap1\n      pop\n        /* \"#utility.yul\":3334:3405   */\n      tag_86\n        /* \"#utility.yul\":3402:3403   */\n      0x00\n        /* \"#utility.yul\":3391:3400   */\n      dup4\n        /* \"#utility.yul\":3387:3404   */\n      add\n        /* \"#utility.yul\":3378:3384   */\n      dup7\n        /* \"#utility.yul\":3334:3405   */\n      tag_42\n      jump\t// in\n    tag_86:\n        /* \"#utility.yul\":3415:3487   */\n      tag_87\n        /* \"#utility.yul\":3483:3485   */\n      0x20\n        /* \"#utility.yul\":3472:3481   */\n      dup4\n        /* \"#utility.yul\":3468:3486   */\n      add\n        /* \"#utility.yul\":3459:3465   */\n      dup6\n        /* \"#utility.yul\":3415:3487   */\n      tag_42\n      jump\t// in\n    tag_87:\n        /* \"#utility.yul\":3497:3569   */\n      tag_88\n        /* \"#utility.yul\":3565:3567   */\n      0x40\n        /* \"#utility.yul\":3554:3563   */\n      dup4\n        /* \"#utility.yul\":3550:3568   */\n      add\n        /* \"#utility.yul\":3541:3547   */\n      dup5\n        /* \"#utility.yul\":3497:3569   */\n      tag_41\n      jump\t// in\n    tag_88:\n        /* \"#utility.yul\":3134:3576   */\n      swap5\n      swap4\n      pop\n      pop\n      pop\n      pop\n      jump\t// out\n        /* \"#utility.yul\":3582:3804   */\n    tag_23:\n        /* \"#utility.yul\":3675:3679   */\n      0x00\n        /* \"#utility.yul\":3713:3715   */\n      0x20\n        /* \"#utility.yul\":3702:3711   */\n      dup3\n        /* \"#utility.yul\":3698:3716   */\n      add\n        /* \"#utility.yul\":3690:3716   */\n      swap1\n      pop\n        /* \"#utility.yul\":3726:3797   */\n      tag_90\n        /* \"#utility.yul\":3794:3795   */\n      0x00\n        /* \"#utility.yul\":3783:3792   */\n      dup4\n        /* \"#utility.yul\":3779:3796   */\n      add\n        /* \"#utility.yul\":3770:3776   */\n      dup5\n        /* \"#utility.yul\":3726:3797   */\n      tag_42\n      jump\t// in\n    tag_90:\n        /* \"#utility.yul\":3582:3804   */\n      swap3\n      swap2\n      pop\n      pop\n      jump\t// out\n        /* \"#utility.yul\":3810:3953   */\n    tag_43:\n        /* \"#utility.yul\":3867:3872   */\n      0x00\n        /* \"#utility.yul\":3898:3904   */\n      dup2\n        /* \"#utility.yul\":3892:3905   */\n      mload\n        /* \"#utility.yul\":3883:3905   */\n      swap1\n      pop\n        /* \"#utility.yul\":3914:3947   */\n      tag_92\n        /* \"#utility.yul\":3941:3946   */\n      dup2\n        /* \"#utility.yul\":3914:3947   */\n      tag_37\n      jump\t// in\n    tag_92:\n        /* \"#utility.yul\":3810:3953   */\n      swap3\n      swap2\n      pop\n      pop\n      jump\t// out\n        /* \"#utility.yul\":3959:4310   */\n    tag_27:\n        /* \"#utility.yul\":4029:4035   */\n      0x00\n        /* \"#utility.yul\":4078:4080   */\n      0x20\n        /* \"#utility.yul\":4066:4075   */\n      dup3\n        /* \"#utility.yul\":4057:4064   */\n      dup5\n        /* \"#utility.yul\":4053:4076   */\n      sub\n        /* \"#utility.yul\":4049:4081   */\n      slt\n        /* \"#utility.yul\":4046:4165   */\n      iszero\n      tag_94\n      jumpi\n        /* \"#utility.yul\":4084:4163   */\n      tag_95\n      tag_29\n      jump\t// in\n    tag_95:\n        /* \"#utility.yul\":4046:4165   */\n    tag_94:\n        /* \"#utility.yul\":4204:4205   */\n      0x00\n        /* \"#utility.yul\":4229:4293   */\n      tag_96\n        /* \"#utility.yul\":4285:4292   */\n      dup5\n        /* \"#utility.yul\":4276:4282   */\n      dup3\n        /* \"#utility.yul\":4265:4274   */\n      dup6\n        /* \"#utility.yul\":4261:4283   */\n      add\n        /* \"#utility.yul\":4229:4293   */\n      tag_43\n      jump\t// in\n    tag_96:\n        /* \"#utility.yul\":4219:4293   */\n      swap2\n      pop\n        /* \"#utility.yul\":4175:4303   */\n      pop\n        /* \"#utility.yul\":3959:4310   */\n      swap3\n      swap2\n      pop\n      pop\n      jump\t// out\n\n    auxdata: 0xa26469706673582212201ed7e7476f4c66ec09ae33126882563ac9de130140365a1d24244c2dcecc8b8e64736f6c634300081a0033\n}\n",
				"bytecode": {
					"linkReferences": {},
					"object": "60c0604052348015600e575f80fd5b5060805160a0516103b561002a5f395f50505f50506103b55ff3fe608060405234801561000f575f80fd5b5060043610610034575f3560e01c8063338b5dea1461003857806353290b4414610054575b5f80fd5b610052600480360381019061004d9190610215565b610084565b005b61006e6004803603810190610069919061027d565b6100f2565b60405161007b91906102ca565b60405180910390f35b8173ffffffffffffffffffffffffffffffffffffffff166323b872dd3330846040518463ffffffff1660e01b81526004016100c1939291906102f2565b5f604051808303815f87803b1580156100d8575f80fd5b505af11580156100ea573d5f803e3d5ffd5b505050505050565b5f8173ffffffffffffffffffffffffffffffffffffffff166370a08231846040518263ffffffff1660e01b815260040161012c9190610327565b602060405180830381865afa158015610147573d5f803e3d5ffd5b505050506040513d601f19601f8201168201806040525081019061016b9190610354565b905092915050565b5f80fd5b5f73ffffffffffffffffffffffffffffffffffffffff82169050919050565b5f6101a082610177565b9050919050565b5f6101b182610196565b9050919050565b6101c1816101a7565b81146101cb575f80fd5b50565b5f813590506101dc816101b8565b92915050565b5f819050919050565b6101f4816101e2565b81146101fe575f80fd5b50565b5f8135905061020f816101eb565b92915050565b5f806040838503121561022b5761022a610173565b5b5f610238858286016101ce565b925050602061024985828601610201565b9150509250929050565b61025c81610196565b8114610266575f80fd5b50565b5f8135905061027781610253565b92915050565b5f806040838503121561029357610292610173565b5b5f6102a085828601610269565b92505060206102b1858286016101ce565b9150509250929050565b6102c4816101e2565b82525050565b5f6020820190506102dd5f8301846102bb565b92915050565b6102ec81610196565b82525050565b5f6060820190506103055f8301866102e3565b61031260208301856102e3565b61031f60408301846102bb565b949350505050565b5f60208201905061033a5f8301846102e3565b92915050565b5f8151905061034e816101eb565b92915050565b5f6020828403121561036957610368610173565b5b5f61037684828501610340565b9150509291505056fea26469706673582212201ed7e7476f4c66ec09ae33126882563ac9de130140365a1d24244c2dcecc8b8e64736f6c634300081a0033",
					"opcodes": "PUSH1 0xC0 PUSH1 0x40 MSTORE CALLVALUE DUP1 ISZERO PUSH1 0xE JUMPI PUSH0 DUP1 REVERT JUMPDEST POP PUSH1 0x80 MLOAD PUSH1 0xA0 MLOAD PUSH2 0x3B5 PUSH2 0x2A PUSH0 CODECOPY PUSH0 POP POP PUSH0 POP POP PUSH2 0x3B5 PUSH0 RETURN INVALID PUSH1 0x80 PUSH1 0x40 MSTORE CALLVALUE DUP1 ISZERO PUSH2 0xF JUMPI PUSH0 DUP1 REVERT JUMPDEST POP PUSH1 0x4 CALLDATASIZE LT PUSH2 0x34 JUMPI PUSH0 CALLDATALOAD PUSH1 0xE0 SHR DUP1 PUSH4 0x338B5DEA EQ PUSH2 0x38 JUMPI DUP1 PUSH4 0x53290B44 EQ PUSH2 0x54 JUMPI JUMPDEST PUSH0 DUP1 REVERT JUMPDEST PUSH2 0x52 PUSH1 0x4 DUP1 CALLDATASIZE SUB DUP2 ADD SWAP1 PUSH2 0x4D SWAP2 SWAP1 PUSH2 0x215 JUMP JUMPDEST PUSH2 0x84 JUMP JUMPDEST STOP JUMPDEST PUSH2 0x6E PUSH1 0x4 DUP1 CALLDATASIZE SUB DUP2 ADD SWAP1 PUSH2 0x69 SWAP2 SWAP1 PUSH2 0x27D JUMP JUMPDEST PUSH2 0xF2 JUMP JUMPDEST PUSH1 0x40 MLOAD PUSH2 0x7B SWAP2 SWAP1 PUSH2 0x2CA JUMP JUMPDEST PUSH1 0x40 MLOAD DUP1 SWAP2 SUB SWAP1 RETURN JUMPDEST DUP2 PUSH20 0xFFFFFFFFFFFFFFFFFFFFFFFFFFFFFFFFFFFFFFFF AND PUSH4 0x23B872DD CALLER ADDRESS DUP5 PUSH1 0x40 MLOAD DUP5 PUSH4 0xFFFFFFFF AND PUSH1 0xE0 SHL DUP2 MSTORE PUSH1 0x4 ADD PUSH2 0xC1 SWAP4 SWAP3 SWAP2 SWAP1 PUSH2 0x2F2 JUMP JUMPDEST PUSH0 PUSH1 0x40 MLOAD DUP1 DUP4 SUB DUP2 PUSH0 DUP8 DUP1 EXTCODESIZE ISZERO DUP1 ISZERO PUSH2 0xD8 JUMPI PUSH0 DUP1 REVERT JUMPDEST POP GAS CALL ISZERO DUP1 ISZERO PUSH2 0xEA JUMPI RETURNDATASIZE PUSH0 DUP1 RETURNDATACOPY RETURNDATASIZE PUSH0 REVERT JUMPDEST POP POP POP POP POP POP JUMP JUMPDEST PUSH0 DUP2 PUSH20 0xFFFFFFFFFFFFFFFFFFFFFFFFFFFFFFFFFFFFFFFF AND PUSH4 0x70A08231 DUP5 PUSH1 0x40 MLOAD DUP3 PUSH4 0xFFFFFFFF AND PUSH1 0xE0 SHL DUP2 MSTORE PUSH1 0x4 ADD PUSH2 0x12C SWAP2 SWAP1 PUSH2 0x327 JUMP JUMPDEST PUSH1 0x20 PUSH1 0x40 MLOAD DUP1 DUP4 SUB DUP2 DUP7 GAS STATICCALL ISZERO DUP1 ISZERO PUSH2 0x147 JUMPI RETURNDATASIZE PUSH0 DUP1 RETURNDATACOPY RETURNDATASIZE PUSH0 REVERT JUMPDEST POP POP POP POP PUSH1 0x40 MLOAD RETURNDATASIZE PUSH1 0x1F NOT PUSH1 0x1F DUP3 ADD AND DUP3 ADD DUP1 PUSH1 0x40 MSTORE POP DUP2 ADD SWAP1 PUSH2 0x16B SWAP2 SWAP1 PUSH2 0x354 JUMP JUMPDEST SWAP1 POP SWAP3 SWAP2 POP POP JUMP JUMPDEST PUSH0 DUP1 REVERT JUMPDEST PUSH0 PUSH20 0xFFFFFFFFFFFFFFFFFFFFFFFFFFFFFFFFFFFFFFFF DUP3 AND SWAP1 POP SWAP2 SWAP1 POP JUMP JUMPDEST PUSH0 PUSH2 0x1A0 DUP3 PUSH2 0x177 JUMP JUMPDEST SWAP1 POP SWAP2 SWAP1 POP JUMP JUMPDEST PUSH0 PUSH2 0x1B1 DUP3 PUSH2 0x196 JUMP JUMPDEST SWAP1 POP SWAP2 SWAP1 POP JUMP JUMPDEST PUSH2 0x1C1 DUP2 PUSH2 0x1A7 JUMP JUMPDEST DUP2 EQ PUSH2 0x1CB JUMPI PUSH0 DUP1 REVERT JUMPDEST POP JUMP JUMPDEST PUSH0 DUP2 CALLDATALOAD SWAP1 POP PUSH2 0x1DC DUP2 PUSH2 0x1B8 JUMP JUMPDEST SWAP3 SWAP2 POP POP JUMP JUMPDEST PUSH0 DUP2 SWAP1 POP SWAP2 SWAP1 POP JUMP JUMPDEST PUSH2 0x1F4 DUP2 PUSH2 0x1E2 JUMP JUMPDEST DUP2 EQ PUSH2 0x1FE JUMPI PUSH0 DUP1 REVERT JUMPDEST POP JUMP JUMPDEST PUSH0 DUP2 CALLDATALOAD SWAP1 POP PUSH2 0x20F DUP2 PUSH2 0x1EB JUMP JUMPDEST SWAP3 SWAP2 POP POP JUMP JUMPDEST PUSH0 DUP1 PUSH1 0x40 DUP4 DUP6 SUB SLT ISZERO PUSH2 0x22B JUMPI PUSH2 0x22A PUSH2 0x173 JUMP JUMPDEST JUMPDEST PUSH0 PUSH2 0x238 DUP6 DUP3 DUP7 ADD PUSH2 0x1CE JUMP JUMPDEST SWAP3 POP POP PUSH1 0x20 PUSH2 0x249 DUP6 DUP3 DUP7 ADD PUSH2 0x201 JUMP JUMPDEST SWAP2 POP POP SWAP3 POP SWAP3 SWAP1 POP JUMP JUMPDEST PUSH2 0x25C DUP2 PUSH2 0x196 JUMP JUMPDEST DUP2 EQ PUSH2 0x266 JUMPI PUSH0 DUP1 REVERT JUMPDEST POP JUMP JUMPDEST PUSH0 DUP2 CALLDATALOAD SWAP1 POP PUSH2 0x277 DUP2 PUSH2 0x253 JUMP JUMPDEST SWAP3 SWAP2 POP POP JUMP JUMPDEST PUSH0 DUP1 PUSH1 0x40 DUP4 DUP6 SUB SLT ISZERO PUSH2 0x293 JUMPI PUSH2 0x292 PUSH2 0x173 JUMP JUMPDEST JUMPDEST PUSH0 PUSH2 0x2A0 DUP6 DUP3 DUP7 ADD PUSH2 0x269 JUMP JUMPDEST SWAP3 POP POP PUSH1 0x20 PUSH2 0x2B1 DUP6 DUP3 DUP7 ADD PUSH2 0x1CE JUMP JUMPDEST SWAP2 POP POP SWAP3 POP SWAP3 SWAP1 POP JUMP JUMPDEST PUSH2 0x2C4 DUP2 PUSH2 0x1E2 JUMP JUMPDEST DUP3 MSTORE POP POP JUMP JUMPDEST PUSH0 PUSH1 0x20 DUP3 ADD SWAP1 POP PUSH2 0x2DD PUSH0 DUP4 ADD DUP5 PUSH2 0x2BB JUMP JUMPDEST SWAP3 SWAP2 POP POP JUMP JUMPDEST PUSH2 0x2EC DUP2 PUSH2 0x196 JUMP JUMPDEST DUP3 MSTORE POP POP JUMP JUMPDEST PUSH0 PUSH1 0x60 DUP3 ADD SWAP1 POP PUSH2 0x305 PUSH0 DUP4 ADD DUP7 PUSH2 0x2E3 JUMP JUMPDEST PUSH2 0x312 PUSH1 0x20 DUP4 ADD DUP6 PUSH2 0x2E3 JUMP JUMPDEST PUSH2 0x31F PUSH1 0x40 DUP4 ADD DUP5 PUSH2 0x2BB JUMP JUMPDEST SWAP5 SWAP4 POP POP POP POP JUMP JUMPDEST PUSH0 PUSH1 0x20 DUP3 ADD SWAP1 POP PUSH2 0x33A PUSH0 DUP4 ADD DUP5 PUSH2 0x2E3 JUMP JUMPDEST SWAP3 SWAP2 POP POP JUMP JUMPDEST PUSH0 DUP2 MLOAD SWAP1 POP PUSH2 0x34E DUP2 PUSH2 0x1EB JUMP JUMPDEST SWAP3 SWAP2 POP POP JUMP JUMPDEST PUSH0 PUSH1 0x20 DUP3 DUP5 SUB SLT ISZERO PUSH2 0x369 JUMPI PUSH2 0x368 PUSH2 0x173 JUMP JUMPDEST JUMPDEST PUSH0 PUSH2 0x376 DUP5 DUP3 DUP6 ADD PUSH2 0x340 JUMP JUMPDEST SWAP2 POP POP SWAP3 SWAP2 POP POP JUMP INVALID LOG2 PUSH5 0x6970667358 0x22 SLT KECCAK256 0x1E 0xD7 0xE7 SELFBALANCE PUSH16 0x4C66EC09AE33126882563AC9DE130140 CALLDATASIZE GAS SAR 0x24 0x24 0x4C 0x2D 0xCE 0xCC DUP12 DUP15 PUSH5 0x736F6C6343 STOP ADDMOD BYTE STOP CALLER "
				},
				"gasEstimates": {
					"creation": {
						"codeDepositCost": "189800",
						"executionCost": "infinite",
						"totalCost": "infinite"
					},
					"external": {
						"depositToken(address,uint256)": "infinite",
						"getBalanceOf(address,address)": "infinite"
					}
				},
				"methodIdentifiers": {
					"depositToken(address,uint256)": "338b5dea",
					"getBalanceOf(address,address)": "53290b44"
				}
			},
			"storageLayout": {
				"storage": [
					{
						"astId": 463,
						"contract": "contracts/Vault.sol:Vault",
						"label": "tokenBalances",
						"offset": 0,
						"slot": "0",
						"type": "t_mapping(t_address,t_mapping(t_address,t_uint256))"
					}
				],
				"types": {
					"t_address": {
						"encoding": "inplace",
						"label": "address",
						"numberOfBytes": "20"
					},
					"t_mapping(t_address,t_mapping(t_address,t_uint256))": {
						"encoding": "mapping",
						"key": "t_address",
						"label": "mapping(address => mapping(address => uint256))",
						"numberOfBytes": "32",
						"value": "t_mapping(t_address,t_uint256)"
					},
					"t_mapping(t_address,t_uint256)": {
						"encoding": "mapping",
						"key": "t_address",
						"label": "mapping(address => uint256)",
						"numberOfBytes": "32",
						"value": "t_uint256"
					},
					"t_uint256": {
						"encoding": "inplace",
						"label": "uint256",
						"numberOfBytes": "32"
					}
				}
			},
			"userdoc": {
				"kind": "user",
				"methods": {},
				"version": 1
			}
		}
	}
}