{
	"contracts/TokenA.sol": {
		"TokenA": {
			"abi": [
				{
					"inputs": [],
					"stateMutability": "nonpayable",
					"type": "constructor"
				},
				{
					"anonymous": false,
					"inputs": [
						{
							"indexed": true,
							"internalType": "address",
							"name": "_from",
							"type": "address"
						},
						{
							"indexed": true,
							"internalType": "address",
							"name": "_to",
							"type": "address"
						},
						{
							"indexed": false,
							"internalType": "uint256",
							"name": "_amount",
							"type": "uint256"
						}
					],
					"name": "Transfer",
					"type": "event"
				},
				{
					"inputs": [
						{
							"internalType": "address",
							"name": "_recipient",
							"type": "address"
						},
						{
							"internalType": "uint256",
							"name": "_amount",
							"type": "uint256"
						}
					],
					"name": "decreaseAllowance",
					"outputs": [],
					"stateMutability": "nonpayable",
					"type": "function"
				},
				{
					"inputs": [
						{
							"internalType": "address",
							"name": "user",
							"type": "address"
						}
					],
					"name": "getBalance",
					"outputs": [
						{
							"internalType": "uint256",
							"name": "",
							"type": "uint256"
						}
					],
					"stateMutability": "view",
					"type": "function"
				},
				{
					"inputs": [
						{
							"internalType": "address",
							"name": "_recipient",
							"type": "address"
						},
						{
							"internalType": "uint256",
							"name": "_amount",
							"type": "uint256"
						}
					],
					"name": "increaseAllowance",
					"outputs": [],
					"stateMutability": "nonpayable",
					"type": "function"
				},
				{
					"inputs": [
						{
							"internalType": "address",
							"name": "_recipient",
							"type": "address"
						},
						{
							"internalType": "uint256",
							"name": "_amount",
							"type": "uint256"
						}
					],
					"name": "transferTo",
					"outputs": [],
					"stateMutability": "nonpayable",
					"type": "function"
				},
				{
					"inputs": [
						{
							"internalType": "address",
							"name": "_from",
							"type": "address"
						},
						{
							"internalType": "address",
							"name": "_to",
							"type": "address"
						},
						{
							"internalType": "uint256",
							"name": "_amount",
							"type": "uint256"
						}
					],
					"name": "transferWithAllowance",
					"outputs": [],
					"stateMutability": "nonpayable",
					"type": "function"
				}
			],
			"devdoc": {
				"kind": "dev",
				"methods": {},
				"version": 1
			},
			"evm": {
				"assembly": "    /* \"contracts/TokenA.sol\":60:1789  contract TokenA {... */\n  mstore(0x40, 0x80)\n    /* \"contracts/TokenA.sol\":376:445  constructor() {... */\n  callvalue\n  dup1\n  iszero\n  tag_1\n  jumpi\n  0x00\n  dup1\n  revert\ntag_1:\n  pop\n    /* \"contracts/TokenA.sol\":126:141  1000 * 10 ** 18 */\n  0x3635c9adc5dea00000\n    /* \"contracts/TokenA.sol\":401:409  balances */\n  0x00\n    /* \"contracts/TokenA.sol\":401:421  balances[msg.sender] */\n  dup1\n    /* \"contracts/TokenA.sol\":410:420  msg.sender */\n  caller\n    /* \"contracts/TokenA.sol\":401:421  balances[msg.sender] */\n  0xffffffffffffffffffffffffffffffffffffffff\n  and\n  0xffffffffffffffffffffffffffffffffffffffff\n  and\n  dup2\n  mstore\n  0x20\n  add\n  swap1\n  dup2\n  mstore\n  0x20\n  add\n  0x00\n  keccak256\n    /* \"contracts/TokenA.sol\":401:437  balances[msg.sender] = OWNER_BALANCE */\n  dup2\n  swap1\n  sstore\n  pop\n    /* \"contracts/TokenA.sol\":60:1789  contract TokenA {... */\n  dataSize(sub_0)\n  dup1\n  dataOffset(sub_0)\n  0x00\n  codecopy\n  0x00\n  return\nstop\n\nsub_0: assembly {\n        /* \"contracts/TokenA.sol\":60:1789  contract TokenA {... */\n      mstore(0x40, 0x80)\n      callvalue\n      dup1\n      iszero\n      tag_1\n      jumpi\n      0x00\n      dup1\n      revert\n    tag_1:\n      pop\n      jumpi(tag_2, lt(calldatasize, 0x04))\n      shr(0xe0, calldataload(0x00))\n      dup1\n      0x2ccb1b30\n      eq\n      tag_3\n      jumpi\n      dup1\n      0x39509351\n      eq\n      tag_4\n      jumpi\n      dup1\n      0xa457c2d7\n      eq\n      tag_5\n      jumpi\n      dup1\n      0xafd0047f\n      eq\n      tag_6\n      jumpi\n      dup1\n      0xf8b2cb4f\n      eq\n      tag_7\n      jumpi\n    tag_2:\n      0x00\n      dup1\n      revert\n        /* \"contracts/TokenA.sol\":453:810  function transferTo(address _recipient, uint256 _amount) external {... */\n    tag_3:\n      tag_8\n      0x04\n      dup1\n      calldatasize\n      sub\n      dup2\n      add\n      swap1\n      tag_9\n      swap2\n      swap1\n      tag_10\n      jump\t// in\n    tag_9:\n      tag_11\n      jump\t// in\n    tag_8:\n      stop\n        /* \"contracts/TokenA.sol\":1255:1459  function increaseAllowance(address _recipient, uint256 _amount) external {... */\n    tag_4:\n      tag_12\n      0x04\n      dup1\n      calldatasize\n      sub\n      dup2\n      add\n      swap1\n      tag_13\n      swap2\n      swap1\n      tag_10\n      jump\t// in\n    tag_13:\n      tag_14\n      jump\t// in\n    tag_12:\n      stop\n        /* \"contracts/TokenA.sol\":1467:1671  function decreaseAllowance(address _recipient, uint256 _amount) external {... */\n    tag_5:\n      tag_15\n      0x04\n      dup1\n      calldatasize\n      sub\n      dup2\n      add\n      swap1\n      tag_16\n      swap2\n      swap1\n      tag_10\n      jump\t// in\n    tag_16:\n      tag_17\n      jump\t// in\n    tag_15:\n      stop\n        /* \"contracts/TokenA.sol\":818:1247  function transferWithAllowance(address _from, address _to, uint256 _amount) external {... */\n    tag_6:\n      tag_18\n      0x04\n      dup1\n      calldatasize\n      sub\n      dup2\n      add\n      swap1\n      tag_19\n      swap2\n      swap1\n      tag_20\n      jump\t// in\n    tag_19:\n      tag_21\n      jump\t// in\n    tag_18:\n      stop\n        /* \"contracts/TokenA.sol\":1679:1784  function getBalance(address user) external view returns(uint256) {... */\n    tag_7:\n      tag_22\n      0x04\n      dup1\n      calldatasize\n      sub\n      dup2\n      add\n      swap1\n      tag_23\n      swap2\n      swap1\n      tag_24\n      jump\t// in\n    tag_23:\n      tag_25\n      jump\t// in\n    tag_22:\n      mload(0x40)\n      tag_26\n      swap2\n      swap1\n      tag_27\n      jump\t// in\n    tag_26:\n      mload(0x40)\n      dup1\n      swap2\n      sub\n      swap1\n      return\n        /* \"contracts/TokenA.sol\":453:810  function transferTo(address _recipient, uint256 _amount) external {... */\n    tag_11:\n        /* \"contracts/TokenA.sol\":560:561  0 */\n      0x00\n        /* \"contracts/TokenA.sol\":538:562  _recipient != address(0) */\n      0xffffffffffffffffffffffffffffffffffffffff\n      and\n        /* \"contracts/TokenA.sol\":538:548  _recipient */\n      dup3\n        /* \"contracts/TokenA.sol\":538:562  _recipient != address(0) */\n      0xffffffffffffffffffffffffffffffffffffffff\n      and\n      sub\n        /* \"contracts/TokenA.sol\":530:583  require(_recipient != address(0), \"TRANSFER_TO_ZERO\") */\n      tag_29\n      jumpi\n      mload(0x40)\n      0x08c379a000000000000000000000000000000000000000000000000000000000\n      dup2\n      mstore\n      0x04\n      add\n      tag_30\n      swap1\n      tag_31\n      jump\t// in\n    tag_30:\n      mload(0x40)\n      dup1\n      swap2\n      sub\n      swap1\n      revert\n    tag_29:\n        /* \"contracts/TokenA.sol\":626:633  _amount */\n      dup1\n        /* \"contracts/TokenA.sol\":602:610  balances */\n      0x00\n        /* \"contracts/TokenA.sol\":602:622  balances[msg.sender] */\n      dup1\n        /* \"contracts/TokenA.sol\":611:621  msg.sender */\n      caller\n        /* \"contracts/TokenA.sol\":602:622  balances[msg.sender] */\n      0xffffffffffffffffffffffffffffffffffffffff\n      and\n      0xffffffffffffffffffffffffffffffffffffffff\n      and\n      dup2\n      mstore\n      0x20\n      add\n      swap1\n      dup2\n      mstore\n      0x20\n      add\n      0x00\n      keccak256\n      sload\n        /* \"contracts/TokenA.sol\":602:633  balances[msg.sender] >= _amount */\n      lt\n      iszero\n        /* \"contracts/TokenA.sol\":594:657  require(balances[msg.sender] >= _amount, \"INSUFFICENT_BALANCE\") */\n      tag_32\n      jumpi\n      mload(0x40)\n      0x08c379a000000000000000000000000000000000000000000000000000000000\n      dup2\n      mstore\n      0x04\n      add\n      tag_33\n      swap1\n      tag_34\n      jump\t// in\n    tag_33:\n      mload(0x40)\n      dup1\n      swap2\n      sub\n      swap1\n      revert\n    tag_32:\n        /* \"contracts/TokenA.sol\":694:701  _amount */\n      dup1\n        /* \"contracts/TokenA.sol\":670:678  balances */\n      0x00\n        /* \"contracts/TokenA.sol\":670:690  balances[msg.sender] */\n      dup1\n        /* \"contracts/TokenA.sol\":679:689  msg.sender */\n      caller\n        /* \"contracts/TokenA.sol\":670:690  balances[msg.sender] */\n      0xffffffffffffffffffffffffffffffffffffffff\n      and\n      0xffffffffffffffffffffffffffffffffffffffff\n      and\n      dup2\n      mstore\n      0x20\n      add\n      swap1\n      dup2\n      mstore\n      0x20\n      add\n      0x00\n      keccak256\n      0x00\n        /* \"contracts/TokenA.sol\":670:701  balances[msg.sender] -= _amount */\n      dup3\n      dup3\n      sload\n      tag_35\n      swap2\n      swap1\n      tag_36\n      jump\t// in\n    tag_35:\n      swap3\n      pop\n      pop\n      dup2\n      swap1\n      sstore\n      pop\n        /* \"contracts/TokenA.sol\":736:743  _amount */\n      dup1\n        /* \"contracts/TokenA.sol\":712:720  balances */\n      0x00\n        /* \"contracts/TokenA.sol\":712:732  balances[_recipient] */\n      dup1\n        /* \"contracts/TokenA.sol\":721:731  _recipient */\n      dup5\n        /* \"contracts/TokenA.sol\":712:732  balances[_recipient] */\n      0xffffffffffffffffffffffffffffffffffffffff\n      and\n      0xffffffffffffffffffffffffffffffffffffffff\n      and\n      dup2\n      mstore\n      0x20\n      add\n      swap1\n      dup2\n      mstore\n      0x20\n      add\n      0x00\n      keccak256\n      0x00\n        /* \"contracts/TokenA.sol\":712:743  balances[_recipient] += _amount */\n      dup3\n      dup3\n      sload\n      tag_37\n      swap2\n      swap1\n      tag_38\n      jump\t// in\n    tag_37:\n      swap3\n      pop\n      pop\n      dup2\n      swap1\n      sstore\n      pop\n        /* \"contracts/TokenA.sol\":782:792  _recipient */\n      dup2\n        /* \"contracts/TokenA.sol\":761:802  Transfer(msg.sender, _recipient, _amount) */\n      0xffffffffffffffffffffffffffffffffffffffff\n      and\n        /* \"contracts/TokenA.sol\":770:780  msg.sender */\n      caller\n        /* \"contracts/TokenA.sol\":761:802  Transfer(msg.sender, _recipient, _amount) */\n      0xffffffffffffffffffffffffffffffffffffffff\n      and\n      0xddf252ad1be2c89b69c2b068fc378daa952ba7f163c4a11628f55a4df523b3ef\n        /* \"contracts/TokenA.sol\":794:801  _amount */\n      dup4\n        /* \"contracts/TokenA.sol\":761:802  Transfer(msg.sender, _recipient, _amount) */\n      mload(0x40)\n      tag_39\n      swap2\n      swap1\n      tag_27\n      jump\t// in\n    tag_39:\n      mload(0x40)\n      dup1\n      swap2\n      sub\n      swap1\n      log3\n        /* \"contracts/TokenA.sol\":453:810  function transferTo(address _recipient, uint256 _amount) external {... */\n      pop\n      pop\n      jump\t// out\n        /* \"contracts/TokenA.sol\":1255:1459  function increaseAllowance(address _recipient, uint256 _amount) external {... */\n    tag_14:\n        /* \"contracts/TokenA.sol\":1369:1370  0 */\n      0x00\n        /* \"contracts/TokenA.sol\":1347:1371  _recipient != address(0) */\n      0xffffffffffffffffffffffffffffffffffffffff\n      and\n        /* \"contracts/TokenA.sol\":1347:1357  _recipient */\n      dup3\n        /* \"contracts/TokenA.sol\":1347:1371  _recipient != address(0) */\n      0xffffffffffffffffffffffffffffffffffffffff\n      and\n      sub\n        /* \"contracts/TokenA.sol\":1339:1393  require(_recipient != address(0), \"AUTHORIZE_TO_ZERO\") */\n      tag_41\n      jumpi\n      mload(0x40)\n      0x08c379a000000000000000000000000000000000000000000000000000000000\n      dup2\n      mstore\n      0x04\n      add\n      tag_42\n      swap1\n      tag_43\n      jump\t// in\n    tag_42:\n      mload(0x40)\n      dup1\n      swap2\n      sub\n      swap1\n      revert\n    tag_41:\n        /* \"contracts/TokenA.sol\":1444:1451  _amount */\n      dup1\n        /* \"contracts/TokenA.sol\":1406:1416  allowances */\n      0x01\n        /* \"contracts/TokenA.sol\":1406:1428  allowances[msg.sender] */\n      0x00\n        /* \"contracts/TokenA.sol\":1417:1427  msg.sender */\n      caller\n        /* \"contracts/TokenA.sol\":1406:1428  allowances[msg.sender] */\n      0xffffffffffffffffffffffffffffffffffffffff\n      and\n      0xffffffffffffffffffffffffffffffffffffffff\n      and\n      dup2\n      mstore\n      0x20\n      add\n      swap1\n      dup2\n      mstore\n      0x20\n      add\n      0x00\n      keccak256\n        /* \"contracts/TokenA.sol\":1406:1440  allowances[msg.sender][_recipient] */\n      0x00\n        /* \"contracts/TokenA.sol\":1429:1439  _recipient */\n      dup5\n        /* \"contracts/TokenA.sol\":1406:1440  allowances[msg.sender][_recipient] */\n      0xffffffffffffffffffffffffffffffffffffffff\n      and\n      0xffffffffffffffffffffffffffffffffffffffff\n      and\n      dup2\n      mstore\n      0x20\n      add\n      swap1\n      dup2\n      mstore\n      0x20\n      add\n      0x00\n      keccak256\n      0x00\n        /* \"contracts/TokenA.sol\":1406:1451  allowances[msg.sender][_recipient] += _amount */\n      dup3\n      dup3\n      sload\n      tag_44\n      swap2\n      swap1\n      tag_38\n      jump\t// in\n    tag_44:\n      swap3\n      pop\n      pop\n      dup2\n      swap1\n      sstore\n      pop\n        /* \"contracts/TokenA.sol\":1255:1459  function increaseAllowance(address _recipient, uint256 _amount) external {... */\n      pop\n      pop\n      jump\t// out\n        /* \"contracts/TokenA.sol\":1467:1671  function decreaseAllowance(address _recipient, uint256 _amount) external {... */\n    tag_17:\n        /* \"contracts/TokenA.sol\":1581:1582  0 */\n      0x00\n        /* \"contracts/TokenA.sol\":1559:1583  _recipient != address(0) */\n      0xffffffffffffffffffffffffffffffffffffffff\n      and\n        /* \"contracts/TokenA.sol\":1559:1569  _recipient */\n      dup3\n        /* \"contracts/TokenA.sol\":1559:1583  _recipient != address(0) */\n      0xffffffffffffffffffffffffffffffffffffffff\n      and\n      sub\n        /* \"contracts/TokenA.sol\":1551:1605  require(_recipient != address(0), \"AUTHORIZE_TO_ZERO\") */\n      tag_46\n      jumpi\n      mload(0x40)\n      0x08c379a000000000000000000000000000000000000000000000000000000000\n      dup2\n      mstore\n      0x04\n      add\n      tag_47\n      swap1\n      tag_43\n      jump\t// in\n    tag_47:\n      mload(0x40)\n      dup1\n      swap2\n      sub\n      swap1\n      revert\n    tag_46:\n        /* \"contracts/TokenA.sol\":1656:1663  _amount */\n      dup1\n        /* \"contracts/TokenA.sol\":1618:1628  allowances */\n      0x01\n        /* \"contracts/TokenA.sol\":1618:1640  allowances[msg.sender] */\n      0x00\n        /* \"contracts/TokenA.sol\":1629:1639  msg.sender */\n      caller\n        /* \"contracts/TokenA.sol\":1618:1640  allowances[msg.sender] */\n      0xffffffffffffffffffffffffffffffffffffffff\n      and\n      0xffffffffffffffffffffffffffffffffffffffff\n      and\n      dup2\n      mstore\n      0x20\n      add\n      swap1\n      dup2\n      mstore\n      0x20\n      add\n      0x00\n      keccak256\n        /* \"contracts/TokenA.sol\":1618:1652  allowances[msg.sender][_recipient] */\n      0x00\n        /* \"contracts/TokenA.sol\":1641:1651  _recipient */\n      dup5\n        /* \"contracts/TokenA.sol\":1618:1652  allowances[msg.sender][_recipient] */\n      0xffffffffffffffffffffffffffffffffffffffff\n      and\n      0xffffffffffffffffffffffffffffffffffffffff\n      and\n      dup2\n      mstore\n      0x20\n      add\n      swap1\n      dup2\n      mstore\n      0x20\n      add\n      0x00\n      keccak256\n      0x00\n        /* \"contracts/TokenA.sol\":1618:1663  allowances[msg.sender][_recipient] -= _amount */\n      dup3\n      dup3\n      sload\n      tag_48\n      swap2\n      swap1\n      tag_36\n      jump\t// in\n    tag_48:\n      swap3\n      pop\n      pop\n      dup2\n      swap1\n      sstore\n      pop\n        /* \"contracts/TokenA.sol\":1467:1671  function decreaseAllowance(address _recipient, uint256 _amount) external {... */\n      pop\n      pop\n      jump\t// out\n        /* \"contracts/TokenA.sol\":818:1247  function transferWithAllowance(address _from, address _to, uint256 _amount) external {... */\n    tag_21:\n        /* \"contracts/TokenA.sol\":937:938  0 */\n      0x00\n        /* \"contracts/TokenA.sol\":922:939  _to != address(0) */\n      0xffffffffffffffffffffffffffffffffffffffff\n      and\n        /* \"contracts/TokenA.sol\":922:925  _to */\n      dup3\n        /* \"contracts/TokenA.sol\":922:939  _to != address(0) */\n      0xffffffffffffffffffffffffffffffffffffffff\n      and\n      sub\n        /* \"contracts/TokenA.sol\":914:960  require(_to != address(0), \"TRANSFER_TO_ZERO\") */\n      tag_50\n      jumpi\n      mload(0x40)\n      0x08c379a000000000000000000000000000000000000000000000000000000000\n      dup2\n      mstore\n      0x04\n      add\n      tag_51\n      swap1\n      tag_31\n      jump\t// in\n    tag_51:\n      mload(0x40)\n      dup1\n      swap2\n      sub\n      swap1\n      revert\n    tag_50:\n        /* \"contracts/TokenA.sol\":1012:1019  _amount */\n      dup1\n        /* \"contracts/TokenA.sol\":979:989  allowances */\n      0x01\n        /* \"contracts/TokenA.sol\":979:996  allowances[_from] */\n      0x00\n        /* \"contracts/TokenA.sol\":990:995  _from */\n      dup6\n        /* \"contracts/TokenA.sol\":979:996  allowances[_from] */\n      0xffffffffffffffffffffffffffffffffffffffff\n      and\n      0xffffffffffffffffffffffffffffffffffffffff\n      and\n      dup2\n      mstore\n      0x20\n      add\n      swap1\n      dup2\n      mstore\n      0x20\n      add\n      0x00\n      keccak256\n        /* \"contracts/TokenA.sol\":979:1008  allowances[_from][msg.sender] */\n      0x00\n        /* \"contracts/TokenA.sol\":997:1007  msg.sender */\n      caller\n        /* \"contracts/TokenA.sol\":979:1008  allowances[_from][msg.sender] */\n      0xffffffffffffffffffffffffffffffffffffffff\n      and\n      0xffffffffffffffffffffffffffffffffffffffff\n      and\n      dup2\n      mstore\n      0x20\n      add\n      swap1\n      dup2\n      mstore\n      0x20\n      add\n      0x00\n      keccak256\n      sload\n        /* \"contracts/TokenA.sol\":979:1019  allowances[_from][msg.sender] >= _amount */\n      lt\n      iszero\n        /* \"contracts/TokenA.sol\":971:1045  require(allowances[_from][msg.sender] >= _amount, \"INSUFFICENT_ALLOWANCE\") */\n      tag_52\n      jumpi\n      mload(0x40)\n      0x08c379a000000000000000000000000000000000000000000000000000000000\n      dup2\n      mstore\n      0x04\n      add\n      tag_53\n      swap1\n      tag_54\n      jump\t// in\n    tag_53:\n      mload(0x40)\n      dup1\n      swap2\n      sub\n      swap1\n      revert\n    tag_52:\n        /* \"contracts/TokenA.sol\":1083:1090  _amount */\n      dup1\n        /* \"contracts/TokenA.sol\":1064:1072  balances */\n      0x00\n        /* \"contracts/TokenA.sol\":1064:1079  balances[_from] */\n      dup1\n        /* \"contracts/TokenA.sol\":1073:1078  _from */\n      dup6\n        /* \"contracts/TokenA.sol\":1064:1079  balances[_from] */\n      0xffffffffffffffffffffffffffffffffffffffff\n      and\n      0xffffffffffffffffffffffffffffffffffffffff\n      and\n      dup2\n      mstore\n      0x20\n      add\n      swap1\n      dup2\n      mstore\n      0x20\n      add\n      0x00\n      keccak256\n      sload\n        /* \"contracts/TokenA.sol\":1064:1090  balances[_from] >= _amount */\n      lt\n      iszero\n        /* \"contracts/TokenA.sol\":1056:1114  require(balances[_from] >= _amount, \"INSUFFICENT_BALANCE\") */\n      tag_55\n      jumpi\n      mload(0x40)\n      0x08c379a000000000000000000000000000000000000000000000000000000000\n      dup2\n      mstore\n      0x04\n      add\n      tag_56\n      swap1\n      tag_34\n      jump\t// in\n    tag_56:\n      mload(0x40)\n      dup1\n      swap2\n      sub\n      swap1\n      revert\n    tag_55:\n        /* \"contracts/TokenA.sol\":1160:1167  _amount */\n      dup1\n        /* \"contracts/TokenA.sol\":1127:1137  allowances */\n      0x01\n        /* \"contracts/TokenA.sol\":1127:1144  allowances[_from] */\n      0x00\n        /* \"contracts/TokenA.sol\":1138:1143  _from */\n      dup6\n        /* \"contracts/TokenA.sol\":1127:1144  allowances[_from] */\n      0xffffffffffffffffffffffffffffffffffffffff\n      and\n      0xffffffffffffffffffffffffffffffffffffffff\n      and\n      dup2\n      mstore\n      0x20\n      add\n      swap1\n      dup2\n      mstore\n      0x20\n      add\n      0x00\n      keccak256\n        /* \"contracts/TokenA.sol\":1127:1156  allowances[_from][msg.sender] */\n      0x00\n        /* \"contracts/TokenA.sol\":1145:1155  msg.sender */\n      caller\n        /* \"contracts/TokenA.sol\":1127:1156  allowances[_from][msg.sender] */\n      0xffffffffffffffffffffffffffffffffffffffff\n      and\n      0xffffffffffffffffffffffffffffffffffffffff\n      and\n      dup2\n      mstore\n      0x20\n      add\n      swap1\n      dup2\n      mstore\n      0x20\n      add\n      0x00\n      keccak256\n      0x00\n        /* \"contracts/TokenA.sol\":1127:1167  allowances[_from][msg.sender] -= _amount */\n      dup3\n      dup3\n      sload\n      tag_57\n      swap2\n      swap1\n      tag_36\n      jump\t// in\n    tag_57:\n      swap3\n      pop\n      pop\n      dup2\n      swap1\n      sstore\n      pop\n        /* \"contracts/TokenA.sol\":1197:1204  _amount */\n      dup1\n        /* \"contracts/TokenA.sol\":1178:1186  balances */\n      0x00\n        /* \"contracts/TokenA.sol\":1178:1193  balances[_from] */\n      dup1\n        /* \"contracts/TokenA.sol\":1187:1192  _from */\n      dup6\n        /* \"contracts/TokenA.sol\":1178:1193  balances[_from] */\n      0xffffffffffffffffffffffffffffffffffffffff\n      and\n      0xffffffffffffffffffffffffffffffffffffffff\n      and\n      dup2\n      mstore\n      0x20\n      add\n      swap1\n      dup2\n      mstore\n      0x20\n      add\n      0x00\n      keccak256\n      0x00\n        /* \"contracts/TokenA.sol\":1178:1204  balances[_from] -= _amount */\n      dup3\n      dup3\n      sload\n      tag_58\n      swap2\n      swap1\n      tag_36\n      jump\t// in\n    tag_58:\n      swap3\n      pop\n      pop\n      dup2\n      swap1\n      sstore\n      pop\n        /* \"contracts/TokenA.sol\":1232:1239  _amount */\n      dup1\n        /* \"contracts/TokenA.sol\":1215:1223  balances */\n      0x00\n        /* \"contracts/TokenA.sol\":1215:1228  balances[_to] */\n      dup1\n        /* \"contracts/TokenA.sol\":1224:1227  _to */\n      dup5\n        /* \"contracts/TokenA.sol\":1215:1228  balances[_to] */\n      0xffffffffffffffffffffffffffffffffffffffff\n      and\n      0xffffffffffffffffffffffffffffffffffffffff\n      and\n      dup2\n      mstore\n      0x20\n      add\n      swap1\n      dup2\n      mstore\n      0x20\n      add\n      0x00\n      keccak256\n      0x00\n        /* \"contracts/TokenA.sol\":1215:1239  balances[_to] += _amount */\n      dup3\n      dup3\n      sload\n      tag_59\n      swap2\n      swap1\n      tag_38\n      jump\t// in\n    tag_59:\n      swap3\n      pop\n      pop\n      dup2\n      swap1\n      sstore\n      pop\n        /* \"contracts/TokenA.sol\":818:1247  function transferWithAllowance(address _from, address _to, uint256 _amount) external {... */\n      pop\n      pop\n      pop\n      jump\t// out\n        /* \"contracts/TokenA.sol\":1679:1784  function getBalance(address user) external view returns(uint256) {... */\n    tag_25:\n        /* \"contracts/TokenA.sol\":1735:1742  uint256 */\n      0x00\n        /* \"contracts/TokenA.sol\":1762:1770  balances */\n      dup1\n        /* \"contracts/TokenA.sol\":1762:1776  balances[user] */\n      0x00\n        /* \"contracts/TokenA.sol\":1771:1775  user */\n      dup4\n        /* \"contracts/TokenA.sol\":1762:1776  balances[user] */\n      0xffffffffffffffffffffffffffffffffffffffff\n      and\n      0xffffffffffffffffffffffffffffffffffffffff\n      and\n      dup2\n      mstore\n      0x20\n      add\n      swap1\n      dup2\n      mstore\n      0x20\n      add\n      0x00\n      keccak256\n      sload\n        /* \"contracts/TokenA.sol\":1755:1776  return balances[user] */\n      swap1\n      pop\n        /* \"contracts/TokenA.sol\":1679:1784  function getBalance(address user) external view returns(uint256) {... */\n      swap2\n      swap1\n      pop\n      jump\t// out\n        /* \"#utility.yul\":88:205   */\n    tag_62:\n        /* \"#utility.yul\":197:198   */\n      0x00\n        /* \"#utility.yul\":194:195   */\n      dup1\n        /* \"#utility.yul\":187:199   */\n      revert\n        /* \"#utility.yul\":334:460   */\n    tag_64:\n        /* \"#utility.yul\":371:378   */\n      0x00\n        /* \"#utility.yul\":411:453   */\n      0xffffffffffffffffffffffffffffffffffffffff\n        /* \"#utility.yul\":404:409   */\n      dup3\n        /* \"#utility.yul\":400:454   */\n      and\n        /* \"#utility.yul\":389:454   */\n      swap1\n      pop\n        /* \"#utility.yul\":334:460   */\n      swap2\n      swap1\n      pop\n      jump\t// out\n        /* \"#utility.yul\":466:562   */\n    tag_65:\n        /* \"#utility.yul\":503:510   */\n      0x00\n        /* \"#utility.yul\":532:556   */\n      tag_88\n        /* \"#utility.yul\":550:555   */\n      dup3\n        /* \"#utility.yul\":532:556   */\n      tag_64\n      jump\t// in\n    tag_88:\n        /* \"#utility.yul\":521:556   */\n      swap1\n      pop\n        /* \"#utility.yul\":466:562   */\n      swap2\n      swap1\n      pop\n      jump\t// out\n        /* \"#utility.yul\":568:690   */\n    tag_66:\n        /* \"#utility.yul\":641:665   */\n      tag_90\n        /* \"#utility.yul\":659:664   */\n      dup2\n        /* \"#utility.yul\":641:665   */\n      tag_65\n      jump\t// in\n    tag_90:\n        /* \"#utility.yul\":634:639   */\n      dup2\n        /* \"#utility.yul\":631:666   */\n      eq\n        /* \"#utility.yul\":621:684   */\n      tag_91\n      jumpi\n        /* \"#utility.yul\":680:681   */\n      0x00\n        /* \"#utility.yul\":677:678   */\n      dup1\n        /* \"#utility.yul\":670:682   */\n      revert\n        /* \"#utility.yul\":621:684   */\n    tag_91:\n        /* \"#utility.yul\":568:690   */\n      pop\n      jump\t// out\n        /* \"#utility.yul\":696:835   */\n    tag_67:\n        /* \"#utility.yul\":742:747   */\n      0x00\n        /* \"#utility.yul\":780:786   */\n      dup2\n        /* \"#utility.yul\":767:787   */\n      calldataload\n        /* \"#utility.yul\":758:787   */\n      swap1\n      pop\n        /* \"#utility.yul\":796:829   */\n      tag_93\n        /* \"#utility.yul\":823:828   */\n      dup2\n        /* \"#utility.yul\":796:829   */\n      tag_66\n      jump\t// in\n    tag_93:\n        /* \"#utility.yul\":696:835   */\n      swap3\n      swap2\n      pop\n      pop\n      jump\t// out\n        /* \"#utility.yul\":841:918   */\n    tag_68:\n        /* \"#utility.yul\":878:885   */\n      0x00\n        /* \"#utility.yul\":907:912   */\n      dup2\n        /* \"#utility.yul\":896:912   */\n      swap1\n      pop\n        /* \"#utility.yul\":841:918   */\n      swap2\n      swap1\n      pop\n      jump\t// out\n        /* \"#utility.yul\":924:1046   */\n    tag_69:\n        /* \"#utility.yul\":997:1021   */\n      tag_96\n        /* \"#utility.yul\":1015:1020   */\n      dup2\n        /* \"#utility.yul\":997:1021   */\n      tag_68\n      jump\t// in\n    tag_96:\n        /* \"#utility.yul\":990:995   */\n      dup2\n        /* \"#utility.yul\":987:1022   */\n      eq\n        /* \"#utility.yul\":977:1040   */\n      tag_97\n      jumpi\n        /* \"#utility.yul\":1036:1037   */\n      0x00\n        /* \"#utility.yul\":1033:1034   */\n      dup1\n        /* \"#utility.yul\":1026:1038   */\n      revert\n        /* \"#utility.yul\":977:1040   */\n    tag_97:\n        /* \"#utility.yul\":924:1046   */\n      pop\n      jump\t// out\n        /* \"#utility.yul\":1052:1191   */\n    tag_70:\n        /* \"#utility.yul\":1098:1103   */\n      0x00\n        /* \"#utility.yul\":1136:1142   */\n      dup2\n        /* \"#utility.yul\":1123:1143   */\n      calldataload\n        /* \"#utility.yul\":1114:1143   */\n      swap1\n      pop\n        /* \"#utility.yul\":1152:1185   */\n      tag_99\n        /* \"#utility.yul\":1179:1184   */\n      dup2\n        /* \"#utility.yul\":1152:1185   */\n      tag_69\n      jump\t// in\n    tag_99:\n        /* \"#utility.yul\":1052:1191   */\n      swap3\n      swap2\n      pop\n      pop\n      jump\t// out\n        /* \"#utility.yul\":1197:1671   */\n    tag_10:\n        /* \"#utility.yul\":1265:1271   */\n      0x00\n        /* \"#utility.yul\":1273:1279   */\n      dup1\n        /* \"#utility.yul\":1322:1324   */\n      0x40\n        /* \"#utility.yul\":1310:1319   */\n      dup4\n        /* \"#utility.yul\":1301:1308   */\n      dup6\n        /* \"#utility.yul\":1297:1320   */\n      sub\n        /* \"#utility.yul\":1293:1325   */\n      slt\n        /* \"#utility.yul\":1290:1409   */\n      iszero\n      tag_101\n      jumpi\n        /* \"#utility.yul\":1328:1407   */\n      tag_102\n      tag_62\n      jump\t// in\n    tag_102:\n        /* \"#utility.yul\":1290:1409   */\n    tag_101:\n        /* \"#utility.yul\":1448:1449   */\n      0x00\n        /* \"#utility.yul\":1473:1526   */\n      tag_103\n        /* \"#utility.yul\":1518:1525   */\n      dup6\n        /* \"#utility.yul\":1509:1515   */\n      dup3\n        /* \"#utility.yul\":1498:1507   */\n      dup7\n        /* \"#utility.yul\":1494:1516   */\n      add\n        /* \"#utility.yul\":1473:1526   */\n      tag_67\n      jump\t// in\n    tag_103:\n        /* \"#utility.yul\":1463:1526   */\n      swap3\n      pop\n        /* \"#utility.yul\":1419:1536   */\n      pop\n        /* \"#utility.yul\":1575:1577   */\n      0x20\n        /* \"#utility.yul\":1601:1654   */\n      tag_104\n        /* \"#utility.yul\":1646:1653   */\n      dup6\n        /* \"#utility.yul\":1637:1643   */\n      dup3\n        /* \"#utility.yul\":1626:1635   */\n      dup7\n        /* \"#utility.yul\":1622:1644   */\n      add\n        /* \"#utility.yul\":1601:1654   */\n      tag_70\n      jump\t// in\n    tag_104:\n        /* \"#utility.yul\":1591:1654   */\n      swap2\n      pop\n        /* \"#utility.yul\":1546:1664   */\n      pop\n        /* \"#utility.yul\":1197:1671   */\n      swap3\n      pop\n      swap3\n      swap1\n      pop\n      jump\t// out\n        /* \"#utility.yul\":1677:2296   */\n    tag_20:\n        /* \"#utility.yul\":1754:1760   */\n      0x00\n        /* \"#utility.yul\":1762:1768   */\n      dup1\n        /* \"#utility.yul\":1770:1776   */\n      0x00\n        /* \"#utility.yul\":1819:1821   */\n      0x60\n        /* \"#utility.yul\":1807:1816   */\n      dup5\n        /* \"#utility.yul\":1798:1805   */\n      dup7\n        /* \"#utility.yul\":1794:1817   */\n      sub\n        /* \"#utility.yul\":1790:1822   */\n      slt\n        /* \"#utility.yul\":1787:1906   */\n      iszero\n      tag_106\n      jumpi\n        /* \"#utility.yul\":1825:1904   */\n      tag_107\n      tag_62\n      jump\t// in\n    tag_107:\n        /* \"#utility.yul\":1787:1906   */\n    tag_106:\n        /* \"#utility.yul\":1945:1946   */\n      0x00\n        /* \"#utility.yul\":1970:2023   */\n      tag_108\n        /* \"#utility.yul\":2015:2022   */\n      dup7\n        /* \"#utility.yul\":2006:2012   */\n      dup3\n        /* \"#utility.yul\":1995:2004   */\n      dup8\n        /* \"#utility.yul\":1991:2013   */\n      add\n        /* \"#utility.yul\":1970:2023   */\n      tag_67\n      jump\t// in\n    tag_108:\n        /* \"#utility.yul\":1960:2023   */\n      swap4\n      pop\n        /* \"#utility.yul\":1916:2033   */\n      pop\n        /* \"#utility.yul\":2072:2074   */\n      0x20\n        /* \"#utility.yul\":2098:2151   */\n      tag_109\n        /* \"#utility.yul\":2143:2150   */\n      dup7\n        /* \"#utility.yul\":2134:2140   */\n      dup3\n        /* \"#utility.yul\":2123:2132   */\n      dup8\n        /* \"#utility.yul\":2119:2141   */\n      add\n        /* \"#utility.yul\":2098:2151   */\n      tag_67\n      jump\t// in\n    tag_109:\n        /* \"#utility.yul\":2088:2151   */\n      swap3\n      pop\n        /* \"#utility.yul\":2043:2161   */\n      pop\n        /* \"#utility.yul\":2200:2202   */\n      0x40\n        /* \"#utility.yul\":2226:2279   */\n      tag_110\n        /* \"#utility.yul\":2271:2278   */\n      dup7\n        /* \"#utility.yul\":2262:2268   */\n      dup3\n        /* \"#utility.yul\":2251:2260   */\n      dup8\n        /* \"#utility.yul\":2247:2269   */\n      add\n        /* \"#utility.yul\":2226:2279   */\n      tag_70\n      jump\t// in\n    tag_110:\n        /* \"#utility.yul\":2216:2279   */\n      swap2\n      pop\n        /* \"#utility.yul\":2171:2289   */\n      pop\n        /* \"#utility.yul\":1677:2296   */\n      swap3\n      pop\n      swap3\n      pop\n      swap3\n      jump\t// out\n        /* \"#utility.yul\":2302:2631   */\n    tag_24:\n        /* \"#utility.yul\":2361:2367   */\n      0x00\n        /* \"#utility.yul\":2410:2412   */\n      0x20\n        /* \"#utility.yul\":2398:2407   */\n      dup3\n        /* \"#utility.yul\":2389:2396   */\n      dup5\n        /* \"#utility.yul\":2385:2408   */\n      sub\n        /* \"#utility.yul\":2381:2413   */\n      slt\n        /* \"#utility.yul\":2378:2497   */\n      iszero\n      tag_112\n      jumpi\n        /* \"#utility.yul\":2416:2495   */\n      tag_113\n      tag_62\n      jump\t// in\n    tag_113:\n        /* \"#utility.yul\":2378:2497   */\n    tag_112:\n        /* \"#utility.yul\":2536:2537   */\n      0x00\n        /* \"#utility.yul\":2561:2614   */\n      tag_114\n        /* \"#utility.yul\":2606:2613   */\n      dup5\n        /* \"#utility.yul\":2597:2603   */\n      dup3\n        /* \"#utility.yul\":2586:2595   */\n      dup6\n        /* \"#utility.yul\":2582:2604   */\n      add\n        /* \"#utility.yul\":2561:2614   */\n      tag_67\n      jump\t// in\n    tag_114:\n        /* \"#utility.yul\":2551:2614   */\n      swap2\n      pop\n        /* \"#utility.yul\":2507:2624   */\n      pop\n        /* \"#utility.yul\":2302:2631   */\n      swap3\n      swap2\n      pop\n      pop\n      jump\t// out\n        /* \"#utility.yul\":2637:2755   */\n    tag_71:\n        /* \"#utility.yul\":2724:2748   */\n      tag_116\n        /* \"#utility.yul\":2742:2747   */\n      dup2\n        /* \"#utility.yul\":2724:2748   */\n      tag_68\n      jump\t// in\n    tag_116:\n        /* \"#utility.yul\":2719:2722   */\n      dup3\n        /* \"#utility.yul\":2712:2749   */\n      mstore\n        /* \"#utility.yul\":2637:2755   */\n      pop\n      pop\n      jump\t// out\n        /* \"#utility.yul\":2761:2983   */\n    tag_27:\n        /* \"#utility.yul\":2854:2858   */\n      0x00\n        /* \"#utility.yul\":2892:2894   */\n      0x20\n        /* \"#utility.yul\":2881:2890   */\n      dup3\n        /* \"#utility.yul\":2877:2895   */\n      add\n        /* \"#utility.yul\":2869:2895   */\n      swap1\n      pop\n        /* \"#utility.yul\":2905:2976   */\n      tag_118\n        /* \"#utility.yul\":2973:2974   */\n      0x00\n        /* \"#utility.yul\":2962:2971   */\n      dup4\n        /* \"#utility.yul\":2958:2975   */\n      add\n        /* \"#utility.yul\":2949:2955   */\n      dup5\n        /* \"#utility.yul\":2905:2976   */\n      tag_71\n      jump\t// in\n    tag_118:\n        /* \"#utility.yul\":2761:2983   */\n      swap3\n      swap2\n      pop\n      pop\n      jump\t// out\n        /* \"#utility.yul\":2989:3158   */\n    tag_72:\n        /* \"#utility.yul\":3073:3084   */\n      0x00\n        /* \"#utility.yul\":3107:3113   */\n      dup3\n        /* \"#utility.yul\":3102:3105   */\n      dup3\n        /* \"#utility.yul\":3095:3114   */\n      mstore\n        /* \"#utility.yul\":3147:3151   */\n      0x20\n        /* \"#utility.yul\":3142:3145   */\n      dup3\n        /* \"#utility.yul\":3138:3152   */\n      add\n        /* \"#utility.yul\":3123:3152   */\n      swap1\n      pop\n        /* \"#utility.yul\":2989:3158   */\n      swap3\n      swap2\n      pop\n      pop\n      jump\t// out\n        /* \"#utility.yul\":3164:3330   */\n    tag_73:\n        /* \"#utility.yul\":3304:3322   */\n      0x5452414e534645525f544f5f5a45524f00000000000000000000000000000000\n        /* \"#utility.yul\":3300:3301   */\n      0x00\n        /* \"#utility.yul\":3292:3298   */\n      dup3\n        /* \"#utility.yul\":3288:3302   */\n      add\n        /* \"#utility.yul\":3281:3323   */\n      mstore\n        /* \"#utility.yul\":3164:3330   */\n      pop\n      jump\t// out\n        /* \"#utility.yul\":3336:3702   */\n    tag_74:\n        /* \"#utility.yul\":3478:3481   */\n      0x00\n        /* \"#utility.yul\":3499:3566   */\n      tag_122\n        /* \"#utility.yul\":3563:3565   */\n      0x10\n        /* \"#utility.yul\":3558:3561   */\n      dup4\n        /* \"#utility.yul\":3499:3566   */\n      tag_72\n      jump\t// in\n    tag_122:\n        /* \"#utility.yul\":3492:3566   */\n      swap2\n      pop\n        /* \"#utility.yul\":3575:3668   */\n      tag_123\n        /* \"#utility.yul\":3664:3667   */\n      dup3\n        /* \"#utility.yul\":3575:3668   */\n      tag_73\n      jump\t// in\n    tag_123:\n        /* \"#utility.yul\":3693:3695   */\n      0x20\n        /* \"#utility.yul\":3688:3691   */\n      dup3\n        /* \"#utility.yul\":3684:3696   */\n      add\n        /* \"#utility.yul\":3677:3696   */\n      swap1\n      pop\n        /* \"#utility.yul\":3336:3702   */\n      swap2\n      swap1\n      pop\n      jump\t// out\n        /* \"#utility.yul\":3708:4127   */\n    tag_31:\n        /* \"#utility.yul\":3874:3878   */\n      0x00\n        /* \"#utility.yul\":3912:3914   */\n      0x20\n        /* \"#utility.yul\":3901:3910   */\n      dup3\n        /* \"#utility.yul\":3897:3915   */\n      add\n        /* \"#utility.yul\":3889:3915   */\n      swap1\n      pop\n        /* \"#utility.yul\":3961:3970   */\n      dup2\n        /* \"#utility.yul\":3955:3959   */\n      dup2\n        /* \"#utility.yul\":3951:3971   */\n      sub\n        /* \"#utility.yul\":3947:3948   */\n      0x00\n        /* \"#utility.yul\":3936:3945   */\n      dup4\n        /* \"#utility.yul\":3932:3949   */\n      add\n        /* \"#utility.yul\":3925:3972   */\n      mstore\n        /* \"#utility.yul\":3989:4120   */\n      tag_125\n        /* \"#utility.yul\":4115:4119   */\n      dup2\n        /* \"#utility.yul\":3989:4120   */\n      tag_74\n      jump\t// in\n    tag_125:\n        /* \"#utility.yul\":3981:4120   */\n      swap1\n      pop\n        /* \"#utility.yul\":3708:4127   */\n      swap2\n      swap1\n      pop\n      jump\t// out\n        /* \"#utility.yul\":4133:4302   */\n    tag_75:\n        /* \"#utility.yul\":4273:4294   */\n      0x494e535546464943454e545f42414c414e434500000000000000000000000000\n        /* \"#utility.yul\":4269:4270   */\n      0x00\n        /* \"#utility.yul\":4261:4267   */\n      dup3\n        /* \"#utility.yul\":4257:4271   */\n      add\n        /* \"#utility.yul\":4250:4295   */\n      mstore\n        /* \"#utility.yul\":4133:4302   */\n      pop\n      jump\t// out\n        /* \"#utility.yul\":4308:4674   */\n    tag_76:\n        /* \"#utility.yul\":4450:4453   */\n      0x00\n        /* \"#utility.yul\":4471:4538   */\n      tag_128\n        /* \"#utility.yul\":4535:4537   */\n      0x13\n        /* \"#utility.yul\":4530:4533   */\n      dup4\n        /* \"#utility.yul\":4471:4538   */\n      tag_72\n      jump\t// in\n    tag_128:\n        /* \"#utility.yul\":4464:4538   */\n      swap2\n      pop\n        /* \"#utility.yul\":4547:4640   */\n      tag_129\n        /* \"#utility.yul\":4636:4639   */\n      dup3\n        /* \"#utility.yul\":4547:4640   */\n      tag_75\n      jump\t// in\n    tag_129:\n        /* \"#utility.yul\":4665:4667   */\n      0x20\n        /* \"#utility.yul\":4660:4663   */\n      dup3\n        /* \"#utility.yul\":4656:4668   */\n      add\n        /* \"#utility.yul\":4649:4668   */\n      swap1\n      pop\n        /* \"#utility.yul\":4308:4674   */\n      swap2\n      swap1\n      pop\n      jump\t// out\n        /* \"#utility.yul\":4680:5099   */\n    tag_34:\n        /* \"#utility.yul\":4846:4850   */\n      0x00\n        /* \"#utility.yul\":4884:4886   */\n      0x20\n        /* \"#utility.yul\":4873:4882   */\n      dup3\n        /* \"#utility.yul\":4869:4887   */\n      add\n        /* \"#utility.yul\":4861:4887   */\n      swap1\n      pop\n        /* \"#utility.yul\":4933:4942   */\n      dup2\n        /* \"#utility.yul\":4927:4931   */\n      dup2\n        /* \"#utility.yul\":4923:4943   */\n      sub\n        /* \"#utility.yul\":4919:4920   */\n      0x00\n        /* \"#utility.yul\":4908:4917   */\n      dup4\n        /* \"#utility.yul\":4904:4921   */\n      add\n        /* \"#utility.yul\":4897:4944   */\n      mstore\n        /* \"#utility.yul\":4961:5092   */\n      tag_131\n        /* \"#utility.yul\":5087:5091   */\n      dup2\n        /* \"#utility.yul\":4961:5092   */\n      tag_76\n      jump\t// in\n    tag_131:\n        /* \"#utility.yul\":4953:5092   */\n      swap1\n      pop\n        /* \"#utility.yul\":4680:5099   */\n      swap2\n      swap1\n      pop\n      jump\t// out\n        /* \"#utility.yul\":5105:5285   */\n    tag_77:\n        /* \"#utility.yul\":5153:5230   */\n      0x4e487b7100000000000000000000000000000000000000000000000000000000\n        /* \"#utility.yul\":5150:5151   */\n      0x00\n        /* \"#utility.yul\":5143:5231   */\n      mstore\n        /* \"#utility.yul\":5250:5254   */\n      0x11\n        /* \"#utility.yul\":5247:5248   */\n      0x04\n        /* \"#utility.yul\":5240:5255   */\n      mstore\n        /* \"#utility.yul\":5274:5278   */\n      0x24\n        /* \"#utility.yul\":5271:5272   */\n      0x00\n        /* \"#utility.yul\":5264:5279   */\n      revert\n        /* \"#utility.yul\":5291:5485   */\n    tag_36:\n        /* \"#utility.yul\":5331:5335   */\n      0x00\n        /* \"#utility.yul\":5351:5371   */\n      tag_134\n        /* \"#utility.yul\":5369:5370   */\n      dup3\n        /* \"#utility.yul\":5351:5371   */\n      tag_68\n      jump\t// in\n    tag_134:\n        /* \"#utility.yul\":5346:5371   */\n      swap2\n      pop\n        /* \"#utility.yul\":5385:5405   */\n      tag_135\n        /* \"#utility.yul\":5403:5404   */\n      dup4\n        /* \"#utility.yul\":5385:5405   */\n      tag_68\n      jump\t// in\n    tag_135:\n        /* \"#utility.yul\":5380:5405   */\n      swap3\n      pop\n        /* \"#utility.yul\":5429:5430   */\n      dup3\n        /* \"#utility.yul\":5426:5427   */\n      dup3\n        /* \"#utility.yul\":5422:5431   */\n      sub\n        /* \"#utility.yul\":5414:5431   */\n      swap1\n      pop\n        /* \"#utility.yul\":5453:5454   */\n      dup2\n        /* \"#utility.yul\":5447:5451   */\n      dup2\n        /* \"#utility.yul\":5444:5455   */\n      gt\n        /* \"#utility.yul\":5441:5478   */\n      iszero\n      tag_136\n      jumpi\n        /* \"#utility.yul\":5458:5476   */\n      tag_137\n      tag_77\n      jump\t// in\n    tag_137:\n        /* \"#utility.yul\":5441:5478   */\n    tag_136:\n        /* \"#utility.yul\":5291:5485   */\n      swap3\n      swap2\n      pop\n      pop\n      jump\t// out\n        /* \"#utility.yul\":5491:5682   */\n    tag_38:\n        /* \"#utility.yul\":5531:5534   */\n      0x00\n        /* \"#utility.yul\":5550:5570   */\n      tag_139\n        /* \"#utility.yul\":5568:5569   */\n      dup3\n        /* \"#utility.yul\":5550:5570   */\n      tag_68\n      jump\t// in\n    tag_139:\n        /* \"#utility.yul\":5545:5570   */\n      swap2\n      pop\n        /* \"#utility.yul\":5584:5604   */\n      tag_140\n        /* \"#utility.yul\":5602:5603   */\n      dup4\n        /* \"#utility.yul\":5584:5604   */\n      tag_68\n      jump\t// in\n    tag_140:\n        /* \"#utility.yul\":5579:5604   */\n      swap3\n      pop\n        /* \"#utility.yul\":5627:5628   */\n      dup3\n        /* \"#utility.yul\":5624:5625   */\n      dup3\n        /* \"#utility.yul\":5620:5629   */\n      add\n        /* \"#utility.yul\":5613:5629   */\n      swap1\n      pop\n        /* \"#utility.yul\":5648:5651   */\n      dup1\n        /* \"#utility.yul\":5645:5646   */\n      dup3\n        /* \"#utility.yul\":5642:5652   */\n      gt\n        /* \"#utility.yul\":5639:5675   */\n      iszero\n      tag_141\n      jumpi\n        /* \"#utility.yul\":5655:5673   */\n      tag_142\n      tag_77\n      jump\t// in\n    tag_142:\n        /* \"#utility.yul\":5639:5675   */\n    tag_141:\n        /* \"#utility.yul\":5491:5682   */\n      swap3\n      swap2\n      pop\n      pop\n      jump\t// out\n        /* \"#utility.yul\":5688:5855   */\n    tag_78:\n        /* \"#utility.yul\":5828:5847   */\n      0x415554484f52495a455f544f5f5a45524f000000000000000000000000000000\n        /* \"#utility.yul\":5824:5825   */\n      0x00\n        /* \"#utility.yul\":5816:5822   */\n      dup3\n        /* \"#utility.yul\":5812:5826   */\n      add\n        /* \"#utility.yul\":5805:5848   */\n      mstore\n        /* \"#utility.yul\":5688:5855   */\n      pop\n      jump\t// out\n        /* \"#utility.yul\":5861:6227   */\n    tag_79:\n        /* \"#utility.yul\":6003:6006   */\n      0x00\n        /* \"#utility.yul\":6024:6091   */\n      tag_145\n        /* \"#utility.yul\":6088:6090   */\n      0x11\n        /* \"#utility.yul\":6083:6086   */\n      dup4\n        /* \"#utility.yul\":6024:6091   */\n      tag_72\n      jump\t// in\n    tag_145:\n        /* \"#utility.yul\":6017:6091   */\n      swap2\n      pop\n        /* \"#utility.yul\":6100:6193   */\n      tag_146\n        /* \"#utility.yul\":6189:6192   */\n      dup3\n        /* \"#utility.yul\":6100:6193   */\n      tag_78\n      jump\t// in\n    tag_146:\n        /* \"#utility.yul\":6218:6220   */\n      0x20\n        /* \"#utility.yul\":6213:6216   */\n      dup3\n        /* \"#utility.yul\":6209:6221   */\n      add\n        /* \"#utility.yul\":6202:6221   */\n      swap1\n      pop\n        /* \"#utility.yul\":5861:6227   */\n      swap2\n      swap1\n      pop\n      jump\t// out\n        /* \"#utility.yul\":6233:6652   */\n    tag_43:\n        /* \"#utility.yul\":6399:6403   */\n      0x00\n        /* \"#utility.yul\":6437:6439   */\n      0x20\n        /* \"#utility.yul\":6426:6435   */\n      dup3\n        /* \"#utility.yul\":6422:6440   */\n      add\n        /* \"#utility.yul\":6414:6440   */\n      swap1\n      pop\n        /* \"#utility.yul\":6486:6495   */\n      dup2\n        /* \"#utility.yul\":6480:6484   */\n      dup2\n        /* \"#utility.yul\":6476:6496   */\n      sub\n        /* \"#utility.yul\":6472:6473   */\n      0x00\n        /* \"#utility.yul\":6461:6470   */\n      dup4\n        /* \"#utility.yul\":6457:6474   */\n      add\n        /* \"#utility.yul\":6450:6497   */\n      mstore\n        /* \"#utility.yul\":6514:6645   */\n      tag_148\n        /* \"#utility.yul\":6640:6644   */\n      dup2\n        /* \"#utility.yul\":6514:6645   */\n      tag_79\n      jump\t// in\n    tag_148:\n        /* \"#utility.yul\":6506:6645   */\n      swap1\n      pop\n        /* \"#utility.yul\":6233:6652   */\n      swap2\n      swap1\n      pop\n      jump\t// out\n        /* \"#utility.yul\":6658:6829   */\n    tag_80:\n        /* \"#utility.yul\":6798:6821   */\n      0x494e535546464943454e545f414c4c4f57414e43450000000000000000000000\n        /* \"#utility.yul\":6794:6795   */\n      0x00\n        /* \"#utility.yul\":6786:6792   */\n      dup3\n        /* \"#utility.yul\":6782:6796   */\n      add\n        /* \"#utility.yul\":6775:6822   */\n      mstore\n        /* \"#utility.yul\":6658:6829   */\n      pop\n      jump\t// out\n        /* \"#utility.yul\":6835:7201   */\n    tag_81:\n        /* \"#utility.yul\":6977:6980   */\n      0x00\n        /* \"#utility.yul\":6998:7065   */\n      tag_151\n        /* \"#utility.yul\":7062:7064   */\n      0x15\n        /* \"#utility.yul\":7057:7060   */\n      dup4\n        /* \"#utility.yul\":6998:7065   */\n      tag_72\n      jump\t// in\n    tag_151:\n        /* \"#utility.yul\":6991:7065   */\n      swap2\n      pop\n        /* \"#utility.yul\":7074:7167   */\n      tag_152\n        /* \"#utility.yul\":7163:7166   */\n      dup3\n        /* \"#utility.yul\":7074:7167   */\n      tag_80\n      jump\t// in\n    tag_152:\n        /* \"#utility.yul\":7192:7194   */\n      0x20\n        /* \"#utility.yul\":7187:7190   */\n      dup3\n        /* \"#utility.yul\":7183:7195   */\n      add\n        /* \"#utility.yul\":7176:7195   */\n      swap1\n      pop\n        /* \"#utility.yul\":6835:7201   */\n      swap2\n      swap1\n      pop\n      jump\t// out\n        /* \"#utility.yul\":7207:7626   */\n    tag_54:\n        /* \"#utility.yul\":7373:7377   */\n      0x00\n        /* \"#utility.yul\":7411:7413   */\n      0x20\n        /* \"#utility.yul\":7400:7409   */\n      dup3\n        /* \"#utility.yul\":7396:7414   */\n      add\n        /* \"#utility.yul\":7388:7414   */\n      swap1\n      pop\n        /* \"#utility.yul\":7460:7469   */\n      dup2\n        /* \"#utility.yul\":7454:7458   */\n      dup2\n        /* \"#utility.yul\":7450:7470   */\n      sub\n        /* \"#utility.yul\":7446:7447   */\n      0x00\n        /* \"#utility.yul\":7435:7444   */\n      dup4\n        /* \"#utility.yul\":7431:7448   */\n      add\n        /* \"#utility.yul\":7424:7471   */\n      mstore\n        /* \"#utility.yul\":7488:7619   */\n      tag_154\n        /* \"#utility.yul\":7614:7618   */\n      dup2\n        /* \"#utility.yul\":7488:7619   */\n      tag_81\n      jump\t// in\n    tag_154:\n        /* \"#utility.yul\":7480:7619   */\n      swap1\n      pop\n        /* \"#utility.yul\":7207:7626   */\n      swap2\n      swap1\n      pop\n      jump\t// out\n\n    auxdata: 0xa2646970667358221220eb77771afb8fc56575bfc4c75ae6c799af1bb20e0752bb12da5ab876d4ebc9d764736f6c634300081a0033\n}\n",
				"bytecode": {
					"linkReferences": {},
					"object": "6080604052348015600e575f80fd5b50683635c9adc5dea000005f803373ffffffffffffffffffffffffffffffffffffffff1673ffffffffffffffffffffffffffffffffffffffff1681526020019081526020015f2081905550610c02806100665f395ff3fe608060405234801561000f575f80fd5b5060043610610055575f3560e01c80632ccb1b30146100595780633950935114610075578063a457c2d714610091578063afd0047f146100ad578063f8b2cb4f146100c9575b5f80fd5b610073600480360381019061006e91906108a8565b6100f9565b005b61008f600480360381019061008a91906108a8565b6102f3565b005b6100ab60048036038101906100a691906108a8565b6103f3565b005b6100c760048036038101906100c291906108e6565b6104f3565b005b6100e360048036038101906100de9190610936565b6107d2565b6040516100f09190610970565b60405180910390f35b5f73ffffffffffffffffffffffffffffffffffffffff168273ffffffffffffffffffffffffffffffffffffffff1603610167576040517f08c379a000000000000000000000000000000000000000000000000000000000815260040161015e906109e3565b60405180910390fd5b805f803373ffffffffffffffffffffffffffffffffffffffff1673ffffffffffffffffffffffffffffffffffffffff1681526020019081526020015f205410156101e6576040517f08c379a00000000000000000000000000000000000000000000000000000000081526004016101dd90610a4b565b60405180910390fd5b805f803373ffffffffffffffffffffffffffffffffffffffff1673ffffffffffffffffffffffffffffffffffffffff1681526020019081526020015f205f8282546102319190610a96565b92505081905550805f808473ffffffffffffffffffffffffffffffffffffffff1673ffffffffffffffffffffffffffffffffffffffff1681526020019081526020015f205f8282546102839190610ac9565b925050819055508173ffffffffffffffffffffffffffffffffffffffff163373ffffffffffffffffffffffffffffffffffffffff167fddf252ad1be2c89b69c2b068fc378daa952ba7f163c4a11628f55a4df523b3ef836040516102e79190610970565b60405180910390a35050565b5f73ffffffffffffffffffffffffffffffffffffffff168273ffffffffffffffffffffffffffffffffffffffff1603610361576040517f08c379a000000000000000000000000000000000000000000000000000000000815260040161035890610b46565b60405180910390fd5b8060015f3373ffffffffffffffffffffffffffffffffffffffff1673ffffffffffffffffffffffffffffffffffffffff1681526020019081526020015f205f8473ffffffffffffffffffffffffffffffffffffffff1673ffffffffffffffffffffffffffffffffffffffff1681526020019081526020015f205f8282546103e89190610ac9565b925050819055505050565b5f73ffffffffffffffffffffffffffffffffffffffff168273ffffffffffffffffffffffffffffffffffffffff1603610461576040517f08c379a000000000000000000000000000000000000000000000000000000000815260040161045890610b46565b60405180910390fd5b8060015f3373ffffffffffffffffffffffffffffffffffffffff1673ffffffffffffffffffffffffffffffffffffffff1681526020019081526020015f205f8473ffffffffffffffffffffffffffffffffffffffff1673ffffffffffffffffffffffffffffffffffffffff1681526020019081526020015f205f8282546104e89190610a96565b925050819055505050565b5f73ffffffffffffffffffffffffffffffffffffffff168273ffffffffffffffffffffffffffffffffffffffff1603610561576040517f08c379a0000000000000000000000000000000000000000000000000000000008152600401610558906109e3565b60405180910390fd5b8060015f8573ffffffffffffffffffffffffffffffffffffffff1673ffffffffffffffffffffffffffffffffffffffff1681526020019081526020015f205f3373ffffffffffffffffffffffffffffffffffffffff1673ffffffffffffffffffffffffffffffffffffffff1681526020019081526020015f2054101561061c576040517f08c379a000000000000000000000000000000000000000000000000000000000815260040161061390610bae565b60405180910390fd5b805f808573ffffffffffffffffffffffffffffffffffffffff1673ffffffffffffffffffffffffffffffffffffffff1681526020019081526020015f2054101561069b576040517f08c379a000000000000000000000000000000000000000000000000000000000815260040161069290610a4b565b60405180910390fd5b8060015f8573ffffffffffffffffffffffffffffffffffffffff1673ffffffffffffffffffffffffffffffffffffffff1681526020019081526020015f205f3373ffffffffffffffffffffffffffffffffffffffff1673ffffffffffffffffffffffffffffffffffffffff1681526020019081526020015f205f8282546107229190610a96565b92505081905550805f808573ffffffffffffffffffffffffffffffffffffffff1673ffffffffffffffffffffffffffffffffffffffff1681526020019081526020015f205f8282546107749190610a96565b92505081905550805f808473ffffffffffffffffffffffffffffffffffffffff1673ffffffffffffffffffffffffffffffffffffffff1681526020019081526020015f205f8282546107c69190610ac9565b92505081905550505050565b5f805f8373ffffffffffffffffffffffffffffffffffffffff1673ffffffffffffffffffffffffffffffffffffffff1681526020019081526020015f20549050919050565b5f80fd5b5f73ffffffffffffffffffffffffffffffffffffffff82169050919050565b5f6108448261081b565b9050919050565b6108548161083a565b811461085e575f80fd5b50565b5f8135905061086f8161084b565b92915050565b5f819050919050565b61088781610875565b8114610891575f80fd5b50565b5f813590506108a28161087e565b92915050565b5f80604083850312156108be576108bd610817565b5b5f6108cb85828601610861565b92505060206108dc85828601610894565b9150509250929050565b5f805f606084860312156108fd576108fc610817565b5b5f61090a86828701610861565b935050602061091b86828701610861565b925050604061092c86828701610894565b9150509250925092565b5f6020828403121561094b5761094a610817565b5b5f61095884828501610861565b91505092915050565b61096a81610875565b82525050565b5f6020820190506109835f830184610961565b92915050565b5f82825260208201905092915050565b7f5452414e534645525f544f5f5a45524f000000000000000000000000000000005f82015250565b5f6109cd601083610989565b91506109d882610999565b602082019050919050565b5f6020820190508181035f8301526109fa816109c1565b9050919050565b7f494e535546464943454e545f42414c414e4345000000000000000000000000005f82015250565b5f610a35601383610989565b9150610a4082610a01565b602082019050919050565b5f6020820190508181035f830152610a6281610a29565b9050919050565b7f4e487b71000000000000000000000000000000000000000000000000000000005f52601160045260245ffd5b5f610aa082610875565b9150610aab83610875565b9250828203905081811115610ac357610ac2610a69565b5b92915050565b5f610ad382610875565b9150610ade83610875565b9250828201905080821115610af657610af5610a69565b5b92915050565b7f415554484f52495a455f544f5f5a45524f0000000000000000000000000000005f82015250565b5f610b30601183610989565b9150610b3b82610afc565b602082019050919050565b5f6020820190508181035f830152610b5d81610b24565b9050919050565b7f494e535546464943454e545f414c4c4f57414e434500000000000000000000005f82015250565b5f610b98601583610989565b9150610ba382610b64565b602082019050919050565b5f6020820190508181035f830152610bc581610b8c565b905091905056fea2646970667358221220eb77771afb8fc56575bfc4c75ae6c799af1bb20e0752bb12da5ab876d4ebc9d764736f6c634300081a0033",
					"opcodes": "PUSH1 0x80 PUSH1 0x40 MSTORE CALLVALUE DUP1 ISZERO PUSH1 0xE JUMPI PUSH0 DUP1 REVERT JUMPDEST POP PUSH9 0x3635C9ADC5DEA00000 PUSH0 DUP1 CALLER PUSH20 0xFFFFFFFFFFFFFFFFFFFFFFFFFFFFFFFFFFFFFFFF AND PUSH20 0xFFFFFFFFFFFFFFFFFFFFFFFFFFFFFFFFFFFFFFFF AND DUP2 MSTORE PUSH1 0x20 ADD SWAP1 DUP2 MSTORE PUSH1 0x20 ADD PUSH0 KECCAK256 DUP2 SWAP1 SSTORE POP PUSH2 0xC02 DUP1 PUSH2 0x66 PUSH0 CODECOPY PUSH0 RETURN INVALID PUSH1 0x80 PUSH1 0x40 MSTORE CALLVALUE DUP1 ISZERO PUSH2 0xF JUMPI PUSH0 DUP1 REVERT JUMPDEST POP PUSH1 0x4 CALLDATASIZE LT PUSH2 0x55 JUMPI PUSH0 CALLDATALOAD PUSH1 0xE0 SHR DUP1 PUSH4 0x2CCB1B30 EQ PUSH2 0x59 JUMPI DUP1 PUSH4 0x39509351 EQ PUSH2 0x75 JUMPI DUP1 PUSH4 0xA457C2D7 EQ PUSH2 0x91 JUMPI DUP1 PUSH4 0xAFD0047F EQ PUSH2 0xAD JUMPI DUP1 PUSH4 0xF8B2CB4F EQ PUSH2 0xC9 JUMPI JUMPDEST PUSH0 DUP1 REVERT JUMPDEST PUSH2 0x73 PUSH1 0x4 DUP1 CALLDATASIZE SUB DUP2 ADD SWAP1 PUSH2 0x6E SWAP2 SWAP1 PUSH2 0x8A8 JUMP JUMPDEST PUSH2 0xF9 JUMP JUMPDEST STOP JUMPDEST PUSH2 0x8F PUSH1 0x4 DUP1 CALLDATASIZE SUB DUP2 ADD SWAP1 PUSH2 0x8A SWAP2 SWAP1 PUSH2 0x8A8 JUMP JUMPDEST PUSH2 0x2F3 JUMP JUMPDEST STOP JUMPDEST PUSH2 0xAB PUSH1 0x4 DUP1 CALLDATASIZE SUB DUP2 ADD SWAP1 PUSH2 0xA6 SWAP2 SWAP1 PUSH2 0x8A8 JUMP JUMPDEST PUSH2 0x3F3 JUMP JUMPDEST STOP JUMPDEST PUSH2 0xC7 PUSH1 0x4 DUP1 CALLDATASIZE SUB DUP2 ADD SWAP1 PUSH2 0xC2 SWAP2 SWAP1 PUSH2 0x8E6 JUMP JUMPDEST PUSH2 0x4F3 JUMP JUMPDEST STOP JUMPDEST PUSH2 0xE3 PUSH1 0x4 DUP1 CALLDATASIZE SUB DUP2 ADD SWAP1 PUSH2 0xDE SWAP2 SWAP1 PUSH2 0x936 JUMP JUMPDEST PUSH2 0x7D2 JUMP JUMPDEST PUSH1 0x40 MLOAD PUSH2 0xF0 SWAP2 SWAP1 PUSH2 0x970 JUMP JUMPDEST PUSH1 0x40 MLOAD DUP1 SWAP2 SUB SWAP1 RETURN JUMPDEST PUSH0 PUSH20 0xFFFFFFFFFFFFFFFFFFFFFFFFFFFFFFFFFFFFFFFF AND DUP3 PUSH20 0xFFFFFFFFFFFFFFFFFFFFFFFFFFFFFFFFFFFFFFFF AND SUB PUSH2 0x167 JUMPI PUSH1 0x40 MLOAD PUSH32 0x8C379A000000000000000000000000000000000000000000000000000000000 DUP2 MSTORE PUSH1 0x4 ADD PUSH2 0x15E SWAP1 PUSH2 0x9E3 JUMP JUMPDEST PUSH1 0x40 MLOAD DUP1 SWAP2 SUB SWAP1 REVERT JUMPDEST DUP1 PUSH0 DUP1 CALLER PUSH20 0xFFFFFFFFFFFFFFFFFFFFFFFFFFFFFFFFFFFFFFFF AND PUSH20 0xFFFFFFFFFFFFFFFFFFFFFFFFFFFFFFFFFFFFFFFF AND DUP2 MSTORE PUSH1 0x20 ADD SWAP1 DUP2 MSTORE PUSH1 0x20 ADD PUSH0 KECCAK256 SLOAD LT ISZERO PUSH2 0x1E6 JUMPI PUSH1 0x40 MLOAD PUSH32 0x8C379A000000000000000000000000000000000000000000000000000000000 DUP2 MSTORE PUSH1 0x4 ADD PUSH2 0x1DD SWAP1 PUSH2 0xA4B JUMP JUMPDEST PUSH1 0x40 MLOAD DUP1 SWAP2 SUB SWAP1 REVERT JUMPDEST DUP1 PUSH0 DUP1 CALLER PUSH20 0xFFFFFFFFFFFFFFFFFFFFFFFFFFFFFFFFFFFFFFFF AND PUSH20 0xFFFFFFFFFFFFFFFFFFFFFFFFFFFFFFFFFFFFFFFF AND DUP2 MSTORE PUSH1 0x20 ADD SWAP1 DUP2 MSTORE PUSH1 0x20 ADD PUSH0 KECCAK256 PUSH0 DUP3 DUP3 SLOAD PUSH2 0x231 SWAP2 SWAP1 PUSH2 0xA96 JUMP JUMPDEST SWAP3 POP POP DUP2 SWAP1 SSTORE POP DUP1 PUSH0 DUP1 DUP5 PUSH20 0xFFFFFFFFFFFFFFFFFFFFFFFFFFFFFFFFFFFFFFFF AND PUSH20 0xFFFFFFFFFFFFFFFFFFFFFFFFFFFFFFFFFFFFFFFF AND DUP2 MSTORE PUSH1 0x20 ADD SWAP1 DUP2 MSTORE PUSH1 0x20 ADD PUSH0 KECCAK256 PUSH0 DUP3 DUP3 SLOAD PUSH2 0x283 SWAP2 SWAP1 PUSH2 0xAC9 JUMP JUMPDEST SWAP3 POP POP DUP2 SWAP1 SSTORE POP DUP2 PUSH20 0xFFFFFFFFFFFFFFFFFFFFFFFFFFFFFFFFFFFFFFFF AND CALLER PUSH20 0xFFFFFFFFFFFFFFFFFFFFFFFFFFFFFFFFFFFFFFFF AND PUSH32 0xDDF252AD1BE2C89B69C2B068FC378DAA952BA7F163C4A11628F55A4DF523B3EF DUP4 PUSH1 0x40 MLOAD PUSH2 0x2E7 SWAP2 SWAP1 PUSH2 0x970 JUMP JUMPDEST PUSH1 0x40 MLOAD DUP1 SWAP2 SUB SWAP1 LOG3 POP POP JUMP JUMPDEST PUSH0 PUSH20 0xFFFFFFFFFFFFFFFFFFFFFFFFFFFFFFFFFFFFFFFF AND DUP3 PUSH20 0xFFFFFFFFFFFFFFFFFFFFFFFFFFFFFFFFFFFFFFFF AND SUB PUSH2 0x361 JUMPI PUSH1 0x40 MLOAD PUSH32 0x8C379A000000000000000000000000000000000000000000000000000000000 DUP2 MSTORE PUSH1 0x4 ADD PUSH2 0x358 SWAP1 PUSH2 0xB46 JUMP JUMPDEST PUSH1 0x40 MLOAD DUP1 SWAP2 SUB SWAP1 REVERT JUMPDEST DUP1 PUSH1 0x1 PUSH0 CALLER PUSH20 0xFFFFFFFFFFFFFFFFFFFFFFFFFFFFFFFFFFFFFFFF AND PUSH20 0xFFFFFFFFFFFFFFFFFFFFFFFFFFFFFFFFFFFFFFFF AND DUP2 MSTORE PUSH1 0x20 ADD SWAP1 DUP2 MSTORE PUSH1 0x20 ADD PUSH0 KECCAK256 PUSH0 DUP5 PUSH20 0xFFFFFFFFFFFFFFFFFFFFFFFFFFFFFFFFFFFFFFFF AND PUSH20 0xFFFFFFFFFFFFFFFFFFFFFFFFFFFFFFFFFFFFFFFF AND DUP2 MSTORE PUSH1 0x20 ADD SWAP1 DUP2 MSTORE PUSH1 0x20 ADD PUSH0 KECCAK256 PUSH0 DUP3 DUP3 SLOAD PUSH2 0x3E8 SWAP2 SWAP1 PUSH2 0xAC9 JUMP JUMPDEST SWAP3 POP POP DUP2 SWAP1 SSTORE POP POP POP JUMP JUMPDEST PUSH0 PUSH20 0xFFFFFFFFFFFFFFFFFFFFFFFFFFFFFFFFFFFFFFFF AND DUP3 PUSH20 0xFFFFFFFFFFFFFFFFFFFFFFFFFFFFFFFFFFFFFFFF AND SUB PUSH2 0x461 JUMPI PUSH1 0x40 MLOAD PUSH32 0x8C379A000000000000000000000000000000000000000000000000000000000 DUP2 MSTORE PUSH1 0x4 ADD PUSH2 0x458 SWAP1 PUSH2 0xB46 JUMP JUMPDEST PUSH1 0x40 MLOAD DUP1 SWAP2 SUB SWAP1 REVERT JUMPDEST DUP1 PUSH1 0x1 PUSH0 CALLER PUSH20 0xFFFFFFFFFFFFFFFFFFFFFFFFFFFFFFFFFFFFFFFF AND PUSH20 0xFFFFFFFFFFFFFFFFFFFFFFFFFFFFFFFFFFFFFFFF AND DUP2 MSTORE PUSH1 0x20 ADD SWAP1 DUP2 MSTORE PUSH1 0x20 ADD PUSH0 KECCAK256 PUSH0 DUP5 PUSH20 0xFFFFFFFFFFFFFFFFFFFFFFFFFFFFFFFFFFFFFFFF AND PUSH20 0xFFFFFFFFFFFFFFFFFFFFFFFFFFFFFFFFFFFFFFFF AND DUP2 MSTORE PUSH1 0x20 ADD SWAP1 DUP2 MSTORE PUSH1 0x20 ADD PUSH0 KECCAK256 PUSH0 DUP3 DUP3 SLOAD PUSH2 0x4E8 SWAP2 SWAP1 PUSH2 0xA96 JUMP JUMPDEST SWAP3 POP POP DUP2 SWAP1 SSTORE POP POP POP JUMP JUMPDEST PUSH0 PUSH20 0xFFFFFFFFFFFFFFFFFFFFFFFFFFFFFFFFFFFFFFFF AND DUP3 PUSH20 0xFFFFFFFFFFFFFFFFFFFFFFFFFFFFFFFFFFFFFFFF AND SUB PUSH2 0x561 JUMPI PUSH1 0x40 MLOAD PUSH32 0x8C379A000000000000000000000000000000000000000000000000000000000 DUP2 MSTORE PUSH1 0x4 ADD PUSH2 0x558 SWAP1 PUSH2 0x9E3 JUMP JUMPDEST PUSH1 0x40 MLOAD DUP1 SWAP2 SUB SWAP1 REVERT JUMPDEST DUP1 PUSH1 0x1 PUSH0 DUP6 PUSH20 0xFFFFFFFFFFFFFFFFFFFFFFFFFFFFFFFFFFFFFFFF AND PUSH20 0xFFFFFFFFFFFFFFFFFFFFFFFFFFFFFFFFFFFFFFFF AND DUP2 MSTORE PUSH1 0x20 ADD SWAP1 DUP2 MSTORE PUSH1 0x20 ADD PUSH0 KECCAK256 PUSH0 CALLER PUSH20 0xFFFFFFFFFFFFFFFFFFFFFFFFFFFFFFFFFFFFFFFF AND PUSH20 0xFFFFFFFFFFFFFFFFFFFFFFFFFFFFFFFFFFFFFFFF AND DUP2 MSTORE PUSH1 0x20 ADD SWAP1 DUP2 MSTORE PUSH1 0x20 ADD PUSH0 KECCAK256 SLOAD LT ISZERO PUSH2 0x61C JUMPI PUSH1 0x40 MLOAD PUSH32 0x8C379A000000000000000000000000000000000000000000000000000000000 DUP2 MSTORE PUSH1 0x4 ADD PUSH2 0x613 SWAP1 PUSH2 0xBAE JUMP JUMPDEST PUSH1 0x40 MLOAD DUP1 SWAP2 SUB SWAP1 REVERT JUMPDEST DUP1 PUSH0 DUP1 DUP6 PUSH20 0xFFFFFFFFFFFFFFFFFFFFFFFFFFFFFFFFFFFFFFFF AND PUSH20 0xFFFFFFFFFFFFFFFFFFFFFFFFFFFFFFFFFFFFFFFF AND DUP2 MSTORE PUSH1 0x20 ADD SWAP1 DUP2 MSTORE PUSH1 0x20 ADD PUSH0 KECCAK256 SLOAD LT ISZERO PUSH2 0x69B JUMPI PUSH1 0x40 MLOAD PUSH32 0x8C379A000000000000000000000000000000000000000000000000000000000 DUP2 MSTORE PUSH1 0x4 ADD PUSH2 0x692 SWAP1 PUSH2 0xA4B JUMP JUMPDEST PUSH1 0x40 MLOAD DUP1 SWAP2 SUB SWAP1 REVERT JUMPDEST DUP1 PUSH1 0x1 PUSH0 DUP6 PUSH20 0xFFFFFFFFFFFFFFFFFFFFFFFFFFFFFFFFFFFFFFFF AND PUSH20 0xFFFFFFFFFFFFFFFFFFFFFFFFFFFFFFFFFFFFFFFF AND DUP2 MSTORE PUSH1 0x20 ADD SWAP1 DUP2 MSTORE PUSH1 0x20 ADD PUSH0 KECCAK256 PUSH0 CALLER PUSH20 0xFFFFFFFFFFFFFFFFFFFFFFFFFFFFFFFFFFFFFFFF AND PUSH20 0xFFFFFFFFFFFFFFFFFFFFFFFFFFFFFFFFFFFFFFFF AND DUP2 MSTORE PUSH1 0x20 ADD SWAP1 DUP2 MSTORE PUSH1 0x20 ADD PUSH0 KECCAK256 PUSH0 DUP3 DUP3 SLOAD PUSH2 0x722 SWAP2 SWAP1 PUSH2 0xA96 JUMP JUMPDEST SWAP3 POP POP DUP2 SWAP1 SSTORE POP DUP1 PUSH0 DUP1 DUP6 PUSH20 0xFFFFFFFFFFFFFFFFFFFFFFFFFFFFFFFFFFFFFFFF AND PUSH20 0xFFFFFFFFFFFFFFFFFFFFFFFFFFFFFFFFFFFFFFFF AND DUP2 MSTORE PUSH1 0x20 ADD SWAP1 DUP2 MSTORE PUSH1 0x20 ADD PUSH0 KECCAK256 PUSH0 DUP3 DUP3 SLOAD PUSH2 0x774 SWAP2 SWAP1 PUSH2 0xA96 JUMP JUMPDEST SWAP3 POP POP DUP2 SWAP1 SSTORE POP DUP1 PUSH0 DUP1 DUP5 PUSH20 0xFFFFFFFFFFFFFFFFFFFFFFFFFFFFFFFFFFFFFFFF AND PUSH20 0xFFFFFFFFFFFFFFFFFFFFFFFFFFFFFFFFFFFFFFFF AND DUP2 MSTORE PUSH1 0x20 ADD SWAP1 DUP2 MSTORE PUSH1 0x20 ADD PUSH0 KECCAK256 PUSH0 DUP3 DUP3 SLOAD PUSH2 0x7C6 SWAP2 SWAP1 PUSH2 0xAC9 JUMP JUMPDEST SWAP3 POP POP DUP2 SWAP1 SSTORE POP POP POP POP JUMP JUMPDEST PUSH0 DUP1 PUSH0 DUP4 PUSH20 0xFFFFFFFFFFFFFFFFFFFFFFFFFFFFFFFFFFFFFFFF AND PUSH20 0xFFFFFFFFFFFFFFFFFFFFFFFFFFFFFFFFFFFFFFFF AND DUP2 MSTORE PUSH1 0x20 ADD SWAP1 DUP2 MSTORE PUSH1 0x20 ADD PUSH0 KECCAK256 SLOAD SWAP1 POP SWAP2 SWAP1 POP JUMP JUMPDEST PUSH0 DUP1 REVERT JUMPDEST PUSH0 PUSH20 0xFFFFFFFFFFFFFFFFFFFFFFFFFFFFFFFFFFFFFFFF DUP3 AND SWAP1 POP SWAP2 SWAP1 POP JUMP JUMPDEST PUSH0 PUSH2 0x844 DUP3 PUSH2 0x81B JUMP JUMPDEST SWAP1 POP SWAP2 SWAP1 POP JUMP JUMPDEST PUSH2 0x854 DUP2 PUSH2 0x83A JUMP JUMPDEST DUP2 EQ PUSH2 0x85E JUMPI PUSH0 DUP1 REVERT JUMPDEST POP JUMP JUMPDEST PUSH0 DUP2 CALLDATALOAD SWAP1 POP PUSH2 0x86F DUP2 PUSH2 0x84B JUMP JUMPDEST SWAP3 SWAP2 POP POP JUMP JUMPDEST PUSH0 DUP2 SWAP1 POP SWAP2 SWAP1 POP JUMP JUMPDEST PUSH2 0x887 DUP2 PUSH2 0x875 JUMP JUMPDEST DUP2 EQ PUSH2 0x891 JUMPI PUSH0 DUP1 REVERT JUMPDEST POP JUMP JUMPDEST PUSH0 DUP2 CALLDATALOAD SWAP1 POP PUSH2 0x8A2 DUP2 PUSH2 0x87E JUMP JUMPDEST SWAP3 SWAP2 POP POP JUMP JUMPDEST PUSH0 DUP1 PUSH1 0x40 DUP4 DUP6 SUB SLT ISZERO PUSH2 0x8BE JUMPI PUSH2 0x8BD PUSH2 0x817 JUMP JUMPDEST JUMPDEST PUSH0 PUSH2 0x8CB DUP6 DUP3 DUP7 ADD PUSH2 0x861 JUMP JUMPDEST SWAP3 POP POP PUSH1 0x20 PUSH2 0x8DC DUP6 DUP3 DUP7 ADD PUSH2 0x894 JUMP JUMPDEST SWAP2 POP POP SWAP3 POP SWAP3 SWAP1 POP JUMP JUMPDEST PUSH0 DUP1 PUSH0 PUSH1 0x60 DUP5 DUP7 SUB SLT ISZERO PUSH2 0x8FD JUMPI PUSH2 0x8FC PUSH2 0x817 JUMP JUMPDEST JUMPDEST PUSH0 PUSH2 0x90A DUP7 DUP3 DUP8 ADD PUSH2 0x861 JUMP JUMPDEST SWAP4 POP POP PUSH1 0x20 PUSH2 0x91B DUP7 DUP3 DUP8 ADD PUSH2 0x861 JUMP JUMPDEST SWAP3 POP POP PUSH1 0x40 PUSH2 0x92C DUP7 DUP3 DUP8 ADD PUSH2 0x894 JUMP JUMPDEST SWAP2 POP POP SWAP3 POP SWAP3 POP SWAP3 JUMP JUMPDEST PUSH0 PUSH1 0x20 DUP3 DUP5 SUB SLT ISZERO PUSH2 0x94B JUMPI PUSH2 0x94A PUSH2 0x817 JUMP JUMPDEST JUMPDEST PUSH0 PUSH2 0x958 DUP5 DUP3 DUP6 ADD PUSH2 0x861 JUMP JUMPDEST SWAP2 POP POP SWAP3 SWAP2 POP POP JUMP JUMPDEST PUSH2 0x96A DUP2 PUSH2 0x875 JUMP JUMPDEST DUP3 MSTORE POP POP JUMP JUMPDEST PUSH0 PUSH1 0x20 DUP3 ADD SWAP1 POP PUSH2 0x983 PUSH0 DUP4 ADD DUP5 PUSH2 0x961 JUMP JUMPDEST SWAP3 SWAP2 POP POP JUMP JUMPDEST PUSH0 DUP3 DUP3 MSTORE PUSH1 0x20 DUP3 ADD SWAP1 POP SWAP3 SWAP2 POP POP JUMP JUMPDEST PUSH32 0x5452414E534645525F544F5F5A45524F00000000000000000000000000000000 PUSH0 DUP3 ADD MSTORE POP JUMP JUMPDEST PUSH0 PUSH2 0x9CD PUSH1 0x10 DUP4 PUSH2 0x989 JUMP JUMPDEST SWAP2 POP PUSH2 0x9D8 DUP3 PUSH2 0x999 JUMP JUMPDEST PUSH1 0x20 DUP3 ADD SWAP1 POP SWAP2 SWAP1 POP JUMP JUMPDEST PUSH0 PUSH1 0x20 DUP3 ADD SWAP1 POP DUP2 DUP2 SUB PUSH0 DUP4 ADD MSTORE PUSH2 0x9FA DUP2 PUSH2 0x9C1 JUMP JUMPDEST SWAP1 POP SWAP2 SWAP1 POP JUMP JUMPDEST PUSH32 0x494E535546464943454E545F42414C414E434500000000000000000000000000 PUSH0 DUP3 ADD MSTORE POP JUMP JUMPDEST PUSH0 PUSH2 0xA35 PUSH1 0x13 DUP4 PUSH2 0x989 JUMP JUMPDEST SWAP2 POP PUSH2 0xA40 DUP3 PUSH2 0xA01 JUMP JUMPDEST PUSH1 0x20 DUP3 ADD SWAP1 POP SWAP2 SWAP1 POP JUMP JUMPDEST PUSH0 PUSH1 0x20 DUP3 ADD SWAP1 POP DUP2 DUP2 SUB PUSH0 DUP4 ADD MSTORE PUSH2 0xA62 DUP2 PUSH2 0xA29 JUMP JUMPDEST SWAP1 POP SWAP2 SWAP1 POP JUMP JUMPDEST PUSH32 0x4E487B7100000000000000000000000000000000000000000000000000000000 PUSH0 MSTORE PUSH1 0x11 PUSH1 0x4 MSTORE PUSH1 0x24 PUSH0 REVERT JUMPDEST PUSH0 PUSH2 0xAA0 DUP3 PUSH2 0x875 JUMP JUMPDEST SWAP2 POP PUSH2 0xAAB DUP4 PUSH2 0x875 JUMP JUMPDEST SWAP3 POP DUP3 DUP3 SUB SWAP1 POP DUP2 DUP2 GT ISZERO PUSH2 0xAC3 JUMPI PUSH2 0xAC2 PUSH2 0xA69 JUMP JUMPDEST JUMPDEST SWAP3 SWAP2 POP POP JUMP JUMPDEST PUSH0 PUSH2 0xAD3 DUP3 PUSH2 0x875 JUMP JUMPDEST SWAP2 POP PUSH2 0xADE DUP4 PUSH2 0x875 JUMP JUMPDEST SWAP3 POP DUP3 DUP3 ADD SWAP1 POP DUP1 DUP3 GT ISZERO PUSH2 0xAF6 JUMPI PUSH2 0xAF5 PUSH2 0xA69 JUMP JUMPDEST JUMPDEST SWAP3 SWAP2 POP POP JUMP JUMPDEST PUSH32 0x415554484F52495A455F544F5F5A45524F000000000000000000000000000000 PUSH0 DUP3 ADD MSTORE POP JUMP JUMPDEST PUSH0 PUSH2 0xB30 PUSH1 0x11 DUP4 PUSH2 0x989 JUMP JUMPDEST SWAP2 POP PUSH2 0xB3B DUP3 PUSH2 0xAFC JUMP JUMPDEST PUSH1 0x20 DUP3 ADD SWAP1 POP SWAP2 SWAP1 POP JUMP JUMPDEST PUSH0 PUSH1 0x20 DUP3 ADD SWAP1 POP DUP2 DUP2 SUB PUSH0 DUP4 ADD MSTORE PUSH2 0xB5D DUP2 PUSH2 0xB24 JUMP JUMPDEST SWAP1 POP SWAP2 SWAP1 POP JUMP JUMPDEST PUSH32 0x494E535546464943454E545F414C4C4F57414E43450000000000000000000000 PUSH0 DUP3 ADD MSTORE POP JUMP JUMPDEST PUSH0 PUSH2 0xB98 PUSH1 0x15 DUP4 PUSH2 0x989 JUMP JUMPDEST SWAP2 POP PUSH2 0xBA3 DUP3 PUSH2 0xB64 JUMP JUMPDEST PUSH1 0x20 DUP3 ADD SWAP1 POP SWAP2 SWAP1 POP JUMP JUMPDEST PUSH0 PUSH1 0x20 DUP3 ADD SWAP1 POP DUP2 DUP2 SUB PUSH0 DUP4 ADD MSTORE PUSH2 0xBC5 DUP2 PUSH2 0xB8C JUMP JUMPDEST SWAP1 POP SWAP2 SWAP1 POP JUMP INVALID LOG2 PUSH5 0x6970667358 0x22 SLT KECCAK256 0xEB PUSH24 0x771AFB8FC56575BFC4C75AE6C799AF1BB20E0752BB12DA5A 0xB8 PUSH23 0xD4EBC9D764736F6C634300081A00330000000000000000 "
				},
				"gasEstimates": {
					"creation": {
						"codeDepositCost": "614800",
						"executionCost": "22850",
						"totalCost": "637650"
					},
					"external": {
						"decreaseAllowance(address,uint256)": "infinite",
						"getBalance(address)": "2895",
						"increaseAllowance(address,uint256)": "infinite",
						"transferTo(address,uint256)": "infinite",
						"transferWithAllowance(address,address,uint256)": "infinite"
					}
				},
				"methodIdentifiers": {
					"decreaseAllowance(address,uint256)": "a457c2d7",
					"getBalance(address)": "f8b2cb4f",
					"increaseAllowance(address,uint256)": "39509351",
					"transferTo(address,uint256)": "2ccb1b30",
					"transferWithAllowance(address,address,uint256)": "afd0047f"
				}
			},
			"storageLayout": {
				"storage": [
					{
						"astId": 12,
						"contract": "contracts/TokenA.sol:TokenA",
						"label": "balances",
						"offset": 0,
						"slot": "0",
						"type": "t_mapping(t_address,t_uint256)"
					},
					{
						"astId": 18,
						"contract": "contracts/TokenA.sol:TokenA",
						"label": "allowances",
						"offset": 0,
						"slot": "1",
						"type": "t_mapping(t_address,t_mapping(t_address,t_uint256))"
					}
				],
				"types": {
					"t_address": {
						"encoding": "inplace",
						"label": "address",
						"numberOfBytes": "20"
					},
					"t_mapping(t_address,t_mapping(t_address,t_uint256))": {
						"encoding": "mapping",
						"key": "t_address",
						"label": "mapping(address => mapping(address => uint256))",
						"numberOfBytes": "32",
						"value": "t_mapping(t_address,t_uint256)"
					},
					"t_mapping(t_address,t_uint256)": {
						"encoding": "mapping",
						"key": "t_address",
						"label": "mapping(address => uint256)",
						"numberOfBytes": "32",
						"value": "t_uint256"
					},
					"t_uint256": {
						"encoding": "inplace",
						"label": "uint256",
						"numberOfBytes": "32"
					}
				}
			},
			"userdoc": {
				"kind": "user",
				"methods": {},
				"version": 1
			}
		}
	}
}